{
	"contracts/WOM_MINT.sol": {
		"WOM": {
			"abi": [
				{
					"inputs": [
						{
							"internalType": "string",
							"name": "_name",
							"type": "string"
						},
						{
							"internalType": "string",
							"name": "_symbol",
							"type": "string"
						},
						{
							"internalType": "string",
							"name": "_initBaseURI",
							"type": "string"
						}
					],
					"stateMutability": "nonpayable",
					"type": "constructor"
				},
				{
					"anonymous": false,
					"inputs": [
						{
							"indexed": true,
							"internalType": "address",
							"name": "owner",
							"type": "address"
						},
						{
							"indexed": true,
							"internalType": "address",
							"name": "approved",
							"type": "address"
						},
						{
							"indexed": true,
							"internalType": "uint256",
							"name": "tokenId",
							"type": "uint256"
						}
					],
					"name": "Approval",
					"type": "event"
				},
				{
					"anonymous": false,
					"inputs": [
						{
							"indexed": true,
							"internalType": "address",
							"name": "owner",
							"type": "address"
						},
						{
							"indexed": true,
							"internalType": "address",
							"name": "operator",
							"type": "address"
						},
						{
							"indexed": false,
							"internalType": "bool",
							"name": "approved",
							"type": "bool"
						}
					],
					"name": "ApprovalForAll",
					"type": "event"
				},
				{
					"anonymous": false,
					"inputs": [
						{
							"indexed": true,
							"internalType": "address",
							"name": "previousOwner",
							"type": "address"
						},
						{
							"indexed": true,
							"internalType": "address",
							"name": "newOwner",
							"type": "address"
						}
					],
					"name": "OwnershipTransferred",
					"type": "event"
				},
				{
					"anonymous": false,
					"inputs": [
						{
							"indexed": true,
							"internalType": "address",
							"name": "from",
							"type": "address"
						},
						{
							"indexed": true,
							"internalType": "address",
							"name": "to",
							"type": "address"
						},
						{
							"indexed": true,
							"internalType": "uint256",
							"name": "tokenId",
							"type": "uint256"
						}
					],
					"name": "Transfer",
					"type": "event"
				},
				{
					"inputs": [
						{
							"internalType": "address",
							"name": "",
							"type": "address"
						}
					],
					"name": "addressMintedBalance",
					"outputs": [
						{
							"internalType": "uint256",
							"name": "",
							"type": "uint256"
						}
					],
					"stateMutability": "view",
					"type": "function"
				},
				{
					"inputs": [
						{
							"internalType": "address",
							"name": "to",
							"type": "address"
						},
						{
							"internalType": "uint256",
							"name": "tokenId",
							"type": "uint256"
						}
					],
					"name": "approve",
					"outputs": [],
					"stateMutability": "nonpayable",
					"type": "function"
				},
				{
					"inputs": [
						{
							"internalType": "address",
							"name": "owner",
							"type": "address"
						}
					],
					"name": "balanceOf",
					"outputs": [
						{
							"internalType": "uint256",
							"name": "",
							"type": "uint256"
						}
					],
					"stateMutability": "view",
					"type": "function"
				},
				{
					"inputs": [],
					"name": "baseExtension",
					"outputs": [
						{
							"internalType": "string",
							"name": "",
							"type": "string"
						}
					],
					"stateMutability": "view",
					"type": "function"
				},
				{
					"inputs": [],
					"name": "baseURI",
					"outputs": [
						{
							"internalType": "string",
							"name": "",
							"type": "string"
						}
					],
					"stateMutability": "view",
					"type": "function"
				},
				{
					"inputs": [],
					"name": "contractURI",
					"outputs": [
						{
							"internalType": "string",
							"name": "",
							"type": "string"
						}
					],
					"stateMutability": "pure",
					"type": "function"
				},
				{
					"inputs": [
						{
							"internalType": "uint256",
							"name": "tokenId",
							"type": "uint256"
						}
					],
					"name": "getApproved",
					"outputs": [
						{
							"internalType": "address",
							"name": "",
							"type": "address"
						}
					],
					"stateMutability": "view",
					"type": "function"
				},
				{
					"inputs": [
						{
							"internalType": "address",
							"name": "owner",
							"type": "address"
						},
						{
							"internalType": "address",
							"name": "operator",
							"type": "address"
						}
					],
					"name": "isApprovedForAll",
					"outputs": [
						{
							"internalType": "bool",
							"name": "",
							"type": "bool"
						}
					],
					"stateMutability": "view",
					"type": "function"
				},
				{
					"inputs": [
						{
							"internalType": "address",
							"name": "_user",
							"type": "address"
						}
					],
					"name": "isWhitelisted",
					"outputs": [
						{
							"internalType": "bool",
							"name": "",
							"type": "bool"
						}
					],
					"stateMutability": "view",
					"type": "function"
				},
				{
					"inputs": [],
					"name": "maxMintAmount",
					"outputs": [
						{
							"internalType": "uint256",
							"name": "",
							"type": "uint256"
						}
					],
					"stateMutability": "view",
					"type": "function"
				},
				{
					"inputs": [],
					"name": "maxSupply",
					"outputs": [
						{
							"internalType": "uint256",
							"name": "",
							"type": "uint256"
						}
					],
					"stateMutability": "view",
					"type": "function"
				},
				{
					"inputs": [
						{
							"internalType": "uint256",
							"name": "_mintAmount",
							"type": "uint256"
						}
					],
					"name": "mint",
					"outputs": [],
					"stateMutability": "payable",
					"type": "function"
				},
				{
					"inputs": [],
					"name": "name",
					"outputs": [
						{
							"internalType": "string",
							"name": "",
							"type": "string"
						}
					],
					"stateMutability": "view",
					"type": "function"
				},
				{
					"inputs": [],
					"name": "nftPerAddressLimit",
					"outputs": [
						{
							"internalType": "uint256",
							"name": "",
							"type": "uint256"
						}
					],
					"stateMutability": "view",
					"type": "function"
				},
				{
					"inputs": [],
					"name": "onlyWhitelisted",
					"outputs": [
						{
							"internalType": "bool",
							"name": "",
							"type": "bool"
						}
					],
					"stateMutability": "view",
					"type": "function"
				},
				{
					"inputs": [],
					"name": "owner",
					"outputs": [
						{
							"internalType": "address",
							"name": "",
							"type": "address"
						}
					],
					"stateMutability": "view",
					"type": "function"
				},
				{
					"inputs": [
						{
							"internalType": "uint256",
							"name": "tokenId",
							"type": "uint256"
						}
					],
					"name": "ownerOf",
					"outputs": [
						{
							"internalType": "address",
							"name": "",
							"type": "address"
						}
					],
					"stateMutability": "view",
					"type": "function"
				},
				{
					"inputs": [
						{
							"internalType": "bool",
							"name": "_state",
							"type": "bool"
						}
					],
					"name": "pause",
					"outputs": [],
					"stateMutability": "nonpayable",
					"type": "function"
				},
				{
					"inputs": [],
					"name": "paused",
					"outputs": [
						{
							"internalType": "bool",
							"name": "",
							"type": "bool"
						}
					],
					"stateMutability": "view",
					"type": "function"
				},
				{
					"inputs": [],
					"name": "renounceOwnership",
					"outputs": [],
					"stateMutability": "nonpayable",
					"type": "function"
				},
				{
					"inputs": [
						{
							"internalType": "address",
							"name": "from",
							"type": "address"
						},
						{
							"internalType": "address",
							"name": "to",
							"type": "address"
						},
						{
							"internalType": "uint256",
							"name": "tokenId",
							"type": "uint256"
						}
					],
					"name": "safeTransferFrom",
					"outputs": [],
					"stateMutability": "nonpayable",
					"type": "function"
				},
				{
					"inputs": [
						{
							"internalType": "address",
							"name": "from",
							"type": "address"
						},
						{
							"internalType": "address",
							"name": "to",
							"type": "address"
						},
						{
							"internalType": "uint256",
							"name": "tokenId",
							"type": "uint256"
						},
						{
							"internalType": "bytes",
							"name": "data",
							"type": "bytes"
						}
					],
					"name": "safeTransferFrom",
					"outputs": [],
					"stateMutability": "nonpayable",
					"type": "function"
				},
				{
					"inputs": [
						{
							"internalType": "address",
							"name": "operator",
							"type": "address"
						},
						{
							"internalType": "bool",
							"name": "approved",
							"type": "bool"
						}
					],
					"name": "setApprovalForAll",
					"outputs": [],
					"stateMutability": "nonpayable",
					"type": "function"
				},
				{
					"inputs": [
						{
							"internalType": "string",
							"name": "_newBaseExtension",
							"type": "string"
						}
					],
					"name": "setBaseExtension",
					"outputs": [],
					"stateMutability": "nonpayable",
					"type": "function"
				},
				{
					"inputs": [
						{
							"internalType": "string",
							"name": "_newBaseURI",
							"type": "string"
						}
					],
					"name": "setBaseURI",
					"outputs": [],
					"stateMutability": "nonpayable",
					"type": "function"
				},
				{
					"inputs": [
						{
							"internalType": "uint256",
							"name": "_limit",
							"type": "uint256"
						}
					],
					"name": "setNftPerAddressLimit",
					"outputs": [],
					"stateMutability": "nonpayable",
					"type": "function"
				},
				{
					"inputs": [
						{
							"internalType": "bool",
							"name": "_state",
							"type": "bool"
						}
					],
					"name": "setOnlyWhitelisted",
					"outputs": [],
					"stateMutability": "nonpayable",
					"type": "function"
				},
				{
					"inputs": [
						{
							"internalType": "bytes4",
							"name": "interfaceId",
							"type": "bytes4"
						}
					],
					"name": "supportsInterface",
					"outputs": [
						{
							"internalType": "bool",
							"name": "",
							"type": "bool"
						}
					],
					"stateMutability": "view",
					"type": "function"
				},
				{
					"inputs": [],
					"name": "symbol",
					"outputs": [
						{
							"internalType": "string",
							"name": "",
							"type": "string"
						}
					],
					"stateMutability": "view",
					"type": "function"
				},
				{
					"inputs": [
						{
							"internalType": "uint256",
							"name": "index",
							"type": "uint256"
						}
					],
					"name": "tokenByIndex",
					"outputs": [
						{
							"internalType": "uint256",
							"name": "",
							"type": "uint256"
						}
					],
					"stateMutability": "view",
					"type": "function"
				},
				{
					"inputs": [
						{
							"internalType": "address",
							"name": "owner",
							"type": "address"
						},
						{
							"internalType": "uint256",
							"name": "index",
							"type": "uint256"
						}
					],
					"name": "tokenOfOwnerByIndex",
					"outputs": [
						{
							"internalType": "uint256",
							"name": "",
							"type": "uint256"
						}
					],
					"stateMutability": "view",
					"type": "function"
				},
				{
					"inputs": [
						{
							"internalType": "uint256",
							"name": "tokenId",
							"type": "uint256"
						}
					],
					"name": "tokenURI",
					"outputs": [
						{
							"internalType": "string",
							"name": "",
							"type": "string"
						}
					],
					"stateMutability": "view",
					"type": "function"
				},
				{
					"inputs": [],
					"name": "totalSupply",
					"outputs": [
						{
							"internalType": "uint256",
							"name": "",
							"type": "uint256"
						}
					],
					"stateMutability": "view",
					"type": "function"
				},
				{
					"inputs": [
						{
							"internalType": "address",
							"name": "from",
							"type": "address"
						},
						{
							"internalType": "address",
							"name": "to",
							"type": "address"
						},
						{
							"internalType": "uint256",
							"name": "tokenId",
							"type": "uint256"
						}
					],
					"name": "transferFrom",
					"outputs": [],
					"stateMutability": "nonpayable",
					"type": "function"
				},
				{
					"inputs": [
						{
							"internalType": "address",
							"name": "newOwner",
							"type": "address"
						}
					],
					"name": "transferOwnership",
					"outputs": [],
					"stateMutability": "nonpayable",
					"type": "function"
				},
				{
					"inputs": [
						{
							"internalType": "address",
							"name": "_owner",
							"type": "address"
						}
					],
					"name": "walletOfOwner",
					"outputs": [
						{
							"internalType": "uint256[]",
							"name": "",
							"type": "uint256[]"
						}
					],
					"stateMutability": "view",
					"type": "function"
				},
				{
					"inputs": [
						{
							"internalType": "address[]",
							"name": "_users",
							"type": "address[]"
						}
					],
					"name": "whitelistUsers",
					"outputs": [],
					"stateMutability": "nonpayable",
					"type": "function"
				},
				{
					"inputs": [
						{
							"internalType": "uint256",
							"name": "",
							"type": "uint256"
						}
					],
					"name": "whitelistedAddresses",
					"outputs": [
						{
							"internalType": "address",
							"name": "",
							"type": "address"
						}
					],
					"stateMutability": "view",
					"type": "function"
				},
				{
					"inputs": [],
					"name": "withdraw",
					"outputs": [],
					"stateMutability": "payable",
					"type": "function"
				}
			],
			"devdoc": {
				"kind": "dev",
				"methods": {
					"approve(address,uint256)": {
						"details": "See {IERC721-approve}."
					},
					"balanceOf(address)": {
						"details": "See {IERC721-balanceOf}."
					},
					"getApproved(uint256)": {
						"details": "See {IERC721-getApproved}."
					},
					"isApprovedForAll(address,address)": {
						"details": "See {IERC721-isApprovedForAll}."
					},
					"name()": {
						"details": "See {IERC721Metadata-name}."
					},
					"owner()": {
						"details": "Returns the address of the current owner."
					},
					"ownerOf(uint256)": {
						"details": "See {IERC721-ownerOf}."
					},
					"renounceOwnership()": {
						"details": "Leaves the contract without owner. It will not be possible to call `onlyOwner` functions anymore. Can only be called by the current owner. NOTE: Renouncing ownership will leave the contract without an owner, thereby removing any functionality that is only available to the owner."
					},
					"safeTransferFrom(address,address,uint256)": {
						"details": "See {IERC721-safeTransferFrom}."
					},
					"safeTransferFrom(address,address,uint256,bytes)": {
						"details": "See {IERC721-safeTransferFrom}."
					},
					"setApprovalForAll(address,bool)": {
						"details": "See {IERC721-setApprovalForAll}."
					},
					"supportsInterface(bytes4)": {
						"details": "See {IERC165-supportsInterface}."
					},
					"symbol()": {
						"details": "See {IERC721Metadata-symbol}."
					},
					"tokenByIndex(uint256)": {
						"details": "See {IERC721Enumerable-tokenByIndex}."
					},
					"tokenOfOwnerByIndex(address,uint256)": {
						"details": "See {IERC721Enumerable-tokenOfOwnerByIndex}."
					},
					"tokenURI(uint256)": {
						"details": "See {IERC721Metadata-tokenURI}."
					},
					"totalSupply()": {
						"details": "See {IERC721Enumerable-totalSupply}."
					},
					"transferFrom(address,address,uint256)": {
						"details": "See {IERC721-transferFrom}."
					},
					"transferOwnership(address)": {
						"details": "Transfers ownership of the contract to a new account (`newOwner`). Can only be called by the current owner."
					}
				},
				"version": 1
			},
			"evm": {
				"assembly": "    /* \"contracts/WOM_MINT.sol\":304:341  string public baseExtension = \".json\" */\n  0xc0\n    /* \"contracts/WOM_MINT.sol\":203:4294  contract WOM is ERC721Enumerable, Ownable {... */\n  0x40\n    /* \"contracts/WOM_MINT.sol\":304:341  string public baseExtension = \".json\" */\n  mstore\n  0x05\n    /* \"contracts/WOM_MINT.sol\":203:4294  contract WOM is ERC721Enumerable, Ownable {... */\n  0x80\n    /* \"contracts/WOM_MINT.sol\":304:341  string public baseExtension = \".json\" */\n  dup2\n  swap1\n  mstore\n  shl(0xd9, 0x173539b7b7)\n  0xa0\n  swap1\n  dup2\n  mstore\n  tag_1\n  swap2\n  0x0c\n  swap2\n  swap1\n  tag_2\n  jump\t// in\ntag_1:\n  pop\n    /* \"contracts/WOM_MINT.sol\":426:428  13 */\n  0x0d\n    /* \"contracts/WOM_MINT.sol\":399:428  uint256 public maxSupply = 13 */\n  dup1\n  sstore\n    /* \"contracts/WOM_MINT.sol\":484:485  2 */\n  0x02\n    /* \"contracts/WOM_MINT.sol\":453:485  uint256 public maxMintAmount = 2 */\n  0x0e\n  dup2\n  swap1\n  sstore\n    /* \"contracts/WOM_MINT.sol\":489:526  uint256 public nftPerAddressLimit = 2 */\n  0x0f\n  sstore\n    /* \"contracts/WOM_MINT.sol\":530:556  bool public paused = false */\n  0x10\n  dup1\n  sload\n  not(0xffff)\n    /* \"contracts/WOM_MINT.sol\":560:594  bool public onlyWhitelisted = true */\n  and\n    /* \"contracts/WOM_MINT.sol\":530:556  bool public paused = false */\n  0x0100\n    /* \"contracts/WOM_MINT.sol\":560:594  bool public onlyWhitelisted = true */\n  or\n  swap1\n  sstore\n    /* \"contracts/WOM_MINT.sol\":699:857  constructor(... */\n  callvalue\n  dup1\n  iszero\n  tag_3\n  jumpi\n  0x00\n  dup1\n  revert\ntag_3:\n  pop\n  mload(0x40)\n  sub(codesize, bytecodeSize)\n  dup1\n  bytecodeSize\n  dup4\n  codecopy\n  dup2\n  add\n  0x40\n  dup2\n  swap1\n  mstore\n  tag_4\n  swap2\n  tag_5\n  jump\t// in\ntag_4:\n    /* \"@openzeppelin/contracts/token/ERC721/ERC721.sol\":1456:1469  _name = name_ */\n  dup3\n  mload\n    /* \"contracts/WOM_MINT.sol\":806:811  _name */\n  dup4\n  swap1\n    /* \"contracts/WOM_MINT.sol\":813:820  _symbol */\n  dup4\n  swap1\n    /* \"@openzeppelin/contracts/token/ERC721/ERC721.sol\":1456:1469  _name = name_ */\n  tag_10\n  swap1\n    /* \"@openzeppelin/contracts/token/ERC721/ERC721.sol\":1456:1461  _name */\n  0x00\n  swap1\n    /* \"@openzeppelin/contracts/token/ERC721/ERC721.sol\":1456:1469  _name = name_ */\n  0x20\n  dup6\n  add\n  swap1\n  tag_2\n  jump\t// in\ntag_10:\n  pop\n    /* \"@openzeppelin/contracts/token/ERC721/ERC721.sol\":1479:1496  _symbol = symbol_ */\n  dup1\n  mload\n  tag_11\n  swap1\n    /* \"@openzeppelin/contracts/token/ERC721/ERC721.sol\":1479:1486  _symbol */\n  0x01\n  swap1\n    /* \"@openzeppelin/contracts/token/ERC721/ERC721.sol\":1479:1496  _symbol = symbol_ */\n  0x20\n  dup5\n  add\n  swap1\n  tag_2\n  jump\t// in\ntag_11:\n  pop\n    /* \"@openzeppelin/contracts/token/ERC721/ERC721.sol\":1390:1503  constructor(string memory name_, string memory symbol_) {... */\n  pop\n  pop\n    /* \"@openzeppelin/contracts/access/Ownable.sol\":936:968  _transferOwnership(_msgSender()) */\n  tag_13\n    /* \"@openzeppelin/contracts/access/Ownable.sol\":955:967  _msgSender() */\n  tag_14\n    /* \"@openzeppelin/contracts/access/Ownable.sol\":955:965  _msgSender */\n  shl(0x20, tag_15)\n    /* \"@openzeppelin/contracts/access/Ownable.sol\":955:967  _msgSender() */\n  0x20\n  shr\n  jump\t// in\ntag_14:\n    /* \"@openzeppelin/contracts/access/Ownable.sol\":936:954  _transferOwnership */\n  tag_16\n    /* \"@openzeppelin/contracts/access/Ownable.sol\":936:968  _transferOwnership(_msgSender()) */\n  jump\t// in\ntag_13:\n    /* \"contracts/WOM_MINT.sol\":828:852  setBaseURI(_initBaseURI) */\n  tag_18\n    /* \"contracts/WOM_MINT.sol\":839:851  _initBaseURI */\n  dup2\n    /* \"contracts/WOM_MINT.sol\":828:838  setBaseURI */\n  tag_19\n    /* \"contracts/WOM_MINT.sol\":828:852  setBaseURI(_initBaseURI) */\n  jump\t// in\ntag_18:\n    /* \"contracts/WOM_MINT.sol\":699:857  constructor(... */\n  pop\n  pop\n  pop\n    /* \"contracts/WOM_MINT.sol\":203:4294  contract WOM is ERC721Enumerable, Ownable {... */\n  jump(tag_47)\n    /* \"@openzeppelin/contracts/utils/Context.sol\":640:736  function _msgSender() internal view virtual returns (address) {... */\ntag_15:\n    /* \"@openzeppelin/contracts/utils/Context.sol\":719:729  msg.sender */\n  caller\n  swap1\n    /* \"@openzeppelin/contracts/utils/Context.sol\":640:736  function _msgSender() internal view virtual returns (address) {... */\n  jump\t// out\n    /* \"@openzeppelin/contracts/access/Ownable.sol\":2433:2620  function _transferOwnership(address newOwner) internal virtual {... */\ntag_16:\n    /* \"@openzeppelin/contracts/access/Ownable.sol\":2525:2531  _owner */\n  0x0a\n  dup1\n  sload\n  sub(shl(0xa0, 0x01), 0x01)\n    /* \"@openzeppelin/contracts/access/Ownable.sol\":2541:2558  _owner = newOwner */\n  dup4\n  dup2\n  and\n  not(sub(shl(0xa0, 0x01), 0x01))\n  dup4\n  and\n  dup2\n  or\n  swap1\n  swap4\n  sstore\n    /* \"@openzeppelin/contracts/access/Ownable.sol\":2573:2613  OwnershipTransferred(oldOwner, newOwner) */\n  mload(0x40)\n    /* \"@openzeppelin/contracts/access/Ownable.sol\":2525:2531  _owner */\n  swap2\n  and\n  swap2\n    /* \"@openzeppelin/contracts/access/Ownable.sol\":2541:2558  _owner = newOwner */\n  swap1\n    /* \"@openzeppelin/contracts/access/Ownable.sol\":2525:2531  _owner */\n  dup3\n  swap1\n    /* \"@openzeppelin/contracts/access/Ownable.sol\":2573:2613  OwnershipTransferred(oldOwner, newOwner) */\n  0x8be0079c531659141344cd1fd0a4f28419497f9722a3daafe3b4186f6b6457e0\n  swap1\n    /* \"@openzeppelin/contracts/access/Ownable.sol\":2506:2522  address oldOwner */\n  0x00\n  swap1\n    /* \"@openzeppelin/contracts/access/Ownable.sol\":2573:2613  OwnershipTransferred(oldOwner, newOwner) */\n  log3\n    /* \"@openzeppelin/contracts/access/Ownable.sol\":2496:2620  {... */\n  pop\n    /* \"@openzeppelin/contracts/access/Ownable.sol\":2433:2620  function _transferOwnership(address newOwner) internal virtual {... */\n  pop\n  jump\t// out\n    /* \"contracts/WOM_MINT.sol\":3295:3391  function setBaseURI(string memory _newBaseURI) public onlyOwner {... */\ntag_19:\n    /* \"@openzeppelin/contracts/access/Ownable.sol\":1094:1107  _checkOwner() */\n  tag_24\n    /* \"@openzeppelin/contracts/access/Ownable.sol\":1094:1105  _checkOwner */\n  tag_25\n    /* \"@openzeppelin/contracts/access/Ownable.sol\":1094:1107  _checkOwner() */\n  jump\t// in\ntag_24:\n    /* \"contracts/WOM_MINT.sol\":3365:3386  baseURI = _newBaseURI */\n  dup1\n  mload\n  tag_27\n  swap1\n    /* \"contracts/WOM_MINT.sol\":3365:3372  baseURI */\n  0x0b\n  swap1\n    /* \"contracts/WOM_MINT.sol\":3365:3386  baseURI = _newBaseURI */\n  0x20\n  dup5\n  add\n  swap1\n  tag_2\n  jump\t// in\ntag_27:\n  pop\n    /* \"contracts/WOM_MINT.sol\":3295:3391  function setBaseURI(string memory _newBaseURI) public onlyOwner {... */\n  pop\n  jump\t// out\n    /* \"@openzeppelin/contracts/access/Ownable.sol\":1359:1489  function _checkOwner() internal view virtual {... */\ntag_25:\n    /* \"@openzeppelin/contracts/access/Ownable.sol\":1273:1279  _owner */\n  and(sub(shl(0xa0, 0x01), 0x01), sload(0x0a))\n    /* \"@openzeppelin/contracts/utils/Context.sol\":719:729  msg.sender */\n  caller\n    /* \"@openzeppelin/contracts/access/Ownable.sol\":1422:1445  owner() == _msgSender() */\n  eq\n    /* \"@openzeppelin/contracts/access/Ownable.sol\":1414:1482  require(owner() == _msgSender(), \"Ownable: caller is not the owner\") */\n  tag_32\n  jumpi\n  mload(0x40)\n  shl(0xe5, 0x461bcd)\n  dup2\n  mstore\n    /* \"#utility.yul\":1877:1879   */\n  0x20\n    /* \"@openzeppelin/contracts/access/Ownable.sol\":1414:1482  require(owner() == _msgSender(), \"Ownable: caller is not the owner\") */\n  0x04\n  dup3\n  add\n    /* \"#utility.yul\":1859:1880   */\n  dup2\n  swap1\n  mstore\n    /* \"#utility.yul\":1896:1914   */\n  0x24\n  dup3\n  add\n    /* \"#utility.yul\":1889:1919   */\n  mstore\n    /* \"#utility.yul\":1955:1989   */\n  0x4f776e61626c653a2063616c6c6572206973206e6f7420746865206f776e6572\n    /* \"#utility.yul\":1935:1953   */\n  0x44\n  dup3\n  add\n    /* \"#utility.yul\":1928:1990   */\n  mstore\n    /* \"#utility.yul\":2007:2025   */\n  0x64\n  add\n    /* \"@openzeppelin/contracts/access/Ownable.sol\":1414:1482  require(owner() == _msgSender(), \"Ownable: caller is not the owner\") */\n  mload(0x40)\n  dup1\n  swap2\n  sub\n  swap1\n  revert\ntag_32:\n    /* \"@openzeppelin/contracts/access/Ownable.sol\":1359:1489  function _checkOwner() internal view virtual {... */\n  jump\t// out\n    /* \"contracts/WOM_MINT.sol\":203:4294  contract WOM is ERC721Enumerable, Ownable {... */\ntag_2:\n  dup3\n  dup1\n  sload\n  tag_36\n  swap1\n  tag_37\n  jump\t// in\ntag_36:\n  swap1\n  0x00\n  mstore\n  keccak256(0x00, 0x20)\n  swap1\n  0x1f\n  add\n  0x20\n  swap1\n  div\n  dup2\n  add\n  swap3\n  dup3\n  tag_39\n  jumpi\n  0x00\n  dup6\n  sstore\n  jump(tag_42)\ntag_39:\n  dup3\n  0x1f\n  lt\n  tag_40\n  jumpi\n  dup1\n  mload\n  not(0xff)\n  and\n  dup4\n  dup1\n  add\n  or\n  dup6\n  sstore\n  jump(tag_42)\ntag_40:\n  dup3\n  dup1\n  add\n  0x01\n  add\n  dup6\n  sstore\n  dup3\n  iszero\n  tag_42\n  jumpi\n  swap2\n  dup3\n  add\ntag_41:\n  dup3\n  dup2\n  gt\n  iszero\n  tag_42\n  jumpi\n  dup3\n  mload\n  dup3\n  sstore\n  swap2\n  0x20\n  add\n  swap2\n  swap1\n  0x01\n  add\n  swap1\n  jump(tag_41)\ntag_42:\n  pop\n  tag_43\n  swap3\n  swap2\n  pop\n  tag_44\n  jump\t// in\ntag_43:\n  pop\n  swap1\n  jump\t// out\ntag_44:\ntag_45:\n  dup1\n  dup3\n  gt\n  iszero\n  tag_43\n  jumpi\n  0x00\n  dup2\n  sstore\n  0x01\n  add\n  jump(tag_45)\n    /* \"#utility.yul\":14:899   */\ntag_48:\n    /* \"#utility.yul\":68:73   */\n  0x00\n    /* \"#utility.yul\":121:124   */\n  dup3\n    /* \"#utility.yul\":114:118   */\n  0x1f\n    /* \"#utility.yul\":106:112   */\n  dup4\n    /* \"#utility.yul\":102:119   */\n  add\n    /* \"#utility.yul\":98:125   */\n  slt\n    /* \"#utility.yul\":88:143   */\n  tag_50\n  jumpi\n    /* \"#utility.yul\":139:140   */\n  0x00\n    /* \"#utility.yul\":136:137   */\n  dup1\n    /* \"#utility.yul\":129:141   */\n  revert\n    /* \"#utility.yul\":88:143   */\ntag_50:\n    /* \"#utility.yul\":162:175   */\n  dup2\n  mload\n  sub(shl(0x40, 0x01), 0x01)\n    /* \"#utility.yul\":224:234   */\n  dup1\n  dup3\n  gt\n    /* \"#utility.yul\":221:257   */\n  iszero\n  tag_52\n  jumpi\n    /* \"#utility.yul\":237:255   */\n  tag_52\n  tag_53\n  jump\t// in\ntag_52:\n    /* \"#utility.yul\":312:314   */\n  0x40\n    /* \"#utility.yul\":306:315   */\n  mload\n    /* \"#utility.yul\":280:282   */\n  0x1f\n    /* \"#utility.yul\":366:379   */\n  dup4\n  add\n  not(0x1f)\n    /* \"#utility.yul\":362:384   */\n  swap1\n  dup2\n  and\n    /* \"#utility.yul\":386:388   */\n  0x3f\n    /* \"#utility.yul\":358:389   */\n  add\n    /* \"#utility.yul\":354:394   */\n  and\n    /* \"#utility.yul\":342:395   */\n  dup2\n  add\n  swap1\n    /* \"#utility.yul\":410:428   */\n  dup3\n  dup3\n  gt\n    /* \"#utility.yul\":430:452   */\n  dup2\n  dup4\n  lt\n    /* \"#utility.yul\":407:453   */\n  or\n    /* \"#utility.yul\":404:476   */\n  iszero\n  tag_55\n  jumpi\n    /* \"#utility.yul\":456:474   */\n  tag_55\n  tag_53\n  jump\t// in\ntag_55:\n    /* \"#utility.yul\":496:506   */\n  dup2\n    /* \"#utility.yul\":492:494   */\n  0x40\n    /* \"#utility.yul\":485:507   */\n  mstore\n    /* \"#utility.yul\":531:533   */\n  dup4\n    /* \"#utility.yul\":523:529   */\n  dup2\n    /* \"#utility.yul\":516:534   */\n  mstore\n    /* \"#utility.yul\":553:557   */\n  0x20\n    /* \"#utility.yul\":543:557   */\n  swap3\n  pop\n    /* \"#utility.yul\":598:601   */\n  dup7\n    /* \"#utility.yul\":593:595   */\n  dup4\n    /* \"#utility.yul\":588:590   */\n  dup6\n    /* \"#utility.yul\":580:586   */\n  dup9\n    /* \"#utility.yul\":576:591   */\n  add\n    /* \"#utility.yul\":572:596   */\n  add\n    /* \"#utility.yul\":569:602   */\n  gt\n    /* \"#utility.yul\":566:619   */\n  iszero\n  tag_56\n  jumpi\n    /* \"#utility.yul\":615:616   */\n  0x00\n    /* \"#utility.yul\":612:613   */\n  dup1\n    /* \"#utility.yul\":605:617   */\n  revert\n    /* \"#utility.yul\":566:619   */\ntag_56:\n    /* \"#utility.yul\":637:638   */\n  0x00\n    /* \"#utility.yul\":628:638   */\n  swap2\n  pop\n    /* \"#utility.yul\":647:780   */\ntag_57:\n    /* \"#utility.yul\":661:663   */\n  dup4\n    /* \"#utility.yul\":658:659   */\n  dup3\n    /* \"#utility.yul\":655:664   */\n  lt\n    /* \"#utility.yul\":647:780   */\n  iszero\n  tag_59\n  jumpi\n    /* \"#utility.yul\":749:763   */\n  dup6\n  dup3\n  add\n    /* \"#utility.yul\":745:768   */\n  dup4\n  add\n    /* \"#utility.yul\":739:769   */\n  mload\n    /* \"#utility.yul\":718:732   */\n  dup2\n  dup4\n  add\n    /* \"#utility.yul\":714:737   */\n  dup5\n  add\n    /* \"#utility.yul\":707:770   */\n  mstore\n    /* \"#utility.yul\":672:682   */\n  swap1\n  dup3\n  add\n  swap1\n    /* \"#utility.yul\":647:780   */\n  jump(tag_57)\ntag_59:\n    /* \"#utility.yul\":798:800   */\n  dup4\n    /* \"#utility.yul\":795:796   */\n  dup3\n    /* \"#utility.yul\":792:801   */\n  gt\n    /* \"#utility.yul\":789:869   */\n  iszero\n  tag_60\n  jumpi\n    /* \"#utility.yul\":857:858   */\n  0x00\n    /* \"#utility.yul\":852:854   */\n  dup4\n    /* \"#utility.yul\":847:849   */\n  dup6\n    /* \"#utility.yul\":839:845   */\n  dup4\n    /* \"#utility.yul\":835:850   */\n  add\n    /* \"#utility.yul\":831:855   */\n  add\n    /* \"#utility.yul\":824:859   */\n  mstore\n    /* \"#utility.yul\":789:869   */\ntag_60:\n    /* \"#utility.yul\":887:893   */\n  swap7\n    /* \"#utility.yul\":14:899   */\n  swap6\n  pop\n  pop\n  pop\n  pop\n  pop\n  pop\n  jump\t// out\n    /* \"#utility.yul\":904:1670   */\ntag_5:\n    /* \"#utility.yul\":1022:1028   */\n  0x00\n    /* \"#utility.yul\":1030:1036   */\n  dup1\n    /* \"#utility.yul\":1038:1044   */\n  0x00\n    /* \"#utility.yul\":1091:1093   */\n  0x60\n    /* \"#utility.yul\":1079:1088   */\n  dup5\n    /* \"#utility.yul\":1070:1077   */\n  dup7\n    /* \"#utility.yul\":1066:1089   */\n  sub\n    /* \"#utility.yul\":1062:1094   */\n  slt\n    /* \"#utility.yul\":1059:1111   */\n  iszero\n  tag_62\n  jumpi\n    /* \"#utility.yul\":1107:1108   */\n  0x00\n    /* \"#utility.yul\":1104:1105   */\n  dup1\n    /* \"#utility.yul\":1097:1109   */\n  revert\n    /* \"#utility.yul\":1059:1111   */\ntag_62:\n    /* \"#utility.yul\":1134:1150   */\n  dup4\n  mload\n  sub(shl(0x40, 0x01), 0x01)\n    /* \"#utility.yul\":1199:1213   */\n  dup1\n  dup3\n  gt\n    /* \"#utility.yul\":1196:1230   */\n  iszero\n  tag_63\n  jumpi\n    /* \"#utility.yul\":1226:1227   */\n  0x00\n    /* \"#utility.yul\":1223:1224   */\n  dup1\n    /* \"#utility.yul\":1216:1228   */\n  revert\n    /* \"#utility.yul\":1196:1230   */\ntag_63:\n    /* \"#utility.yul\":1249:1310   */\n  tag_64\n    /* \"#utility.yul\":1302:1309   */\n  dup8\n    /* \"#utility.yul\":1293:1299   */\n  dup4\n    /* \"#utility.yul\":1282:1291   */\n  dup9\n    /* \"#utility.yul\":1278:1300   */\n  add\n    /* \"#utility.yul\":1249:1310   */\n  tag_48\n  jump\t// in\ntag_64:\n    /* \"#utility.yul\":1239:1310   */\n  swap5\n  pop\n    /* \"#utility.yul\":1356:1358   */\n  0x20\n    /* \"#utility.yul\":1345:1354   */\n  dup7\n    /* \"#utility.yul\":1341:1359   */\n  add\n    /* \"#utility.yul\":1335:1360   */\n  mload\n    /* \"#utility.yul\":1319:1360   */\n  swap2\n  pop\n    /* \"#utility.yul\":1385:1387   */\n  dup1\n    /* \"#utility.yul\":1375:1383   */\n  dup3\n    /* \"#utility.yul\":1372:1388   */\n  gt\n    /* \"#utility.yul\":1369:1405   */\n  iszero\n  tag_65\n  jumpi\n    /* \"#utility.yul\":1401:1402   */\n  0x00\n    /* \"#utility.yul\":1398:1399   */\n  dup1\n    /* \"#utility.yul\":1391:1403   */\n  revert\n    /* \"#utility.yul\":1369:1405   */\ntag_65:\n    /* \"#utility.yul\":1424:1487   */\n  tag_66\n    /* \"#utility.yul\":1479:1486   */\n  dup8\n    /* \"#utility.yul\":1468:1476   */\n  dup4\n    /* \"#utility.yul\":1457:1466   */\n  dup9\n    /* \"#utility.yul\":1453:1477   */\n  add\n    /* \"#utility.yul\":1424:1487   */\n  tag_48\n  jump\t// in\ntag_66:\n    /* \"#utility.yul\":1414:1487   */\n  swap4\n  pop\n    /* \"#utility.yul\":1533:1535   */\n  0x40\n    /* \"#utility.yul\":1522:1531   */\n  dup7\n    /* \"#utility.yul\":1518:1536   */\n  add\n    /* \"#utility.yul\":1512:1537   */\n  mload\n    /* \"#utility.yul\":1496:1537   */\n  swap2\n  pop\n    /* \"#utility.yul\":1562:1564   */\n  dup1\n    /* \"#utility.yul\":1552:1560   */\n  dup3\n    /* \"#utility.yul\":1549:1565   */\n  gt\n    /* \"#utility.yul\":1546:1582   */\n  iszero\n  tag_67\n  jumpi\n    /* \"#utility.yul\":1578:1579   */\n  0x00\n    /* \"#utility.yul\":1575:1576   */\n  dup1\n    /* \"#utility.yul\":1568:1580   */\n  revert\n    /* \"#utility.yul\":1546:1582   */\ntag_67:\n  pop\n    /* \"#utility.yul\":1601:1664   */\n  tag_68\n    /* \"#utility.yul\":1656:1663   */\n  dup7\n    /* \"#utility.yul\":1645:1653   */\n  dup3\n    /* \"#utility.yul\":1634:1643   */\n  dup8\n    /* \"#utility.yul\":1630:1654   */\n  add\n    /* \"#utility.yul\":1601:1664   */\n  tag_48\n  jump\t// in\ntag_68:\n    /* \"#utility.yul\":1591:1664   */\n  swap2\n  pop\n  pop\n    /* \"#utility.yul\":904:1670   */\n  swap3\n  pop\n  swap3\n  pop\n  swap3\n  jump\t// out\n    /* \"#utility.yul\":2036:2416   */\ntag_37:\n    /* \"#utility.yul\":2115:2116   */\n  0x01\n    /* \"#utility.yul\":2111:2123   */\n  dup2\n  dup2\n  shr\n  swap1\n    /* \"#utility.yul\":2158:2170   */\n  dup3\n  and\n  dup1\n    /* \"#utility.yul\":2179:2240   */\n  tag_71\n  jumpi\n    /* \"#utility.yul\":2233:2237   */\n  0x7f\n    /* \"#utility.yul\":2225:2231   */\n  dup3\n    /* \"#utility.yul\":2221:2238   */\n  and\n    /* \"#utility.yul\":2211:2238   */\n  swap2\n  pop\n    /* \"#utility.yul\":2179:2240   */\ntag_71:\n    /* \"#utility.yul\":2286:2288   */\n  0x20\n    /* \"#utility.yul\":2278:2284   */\n  dup3\n    /* \"#utility.yul\":2275:2289   */\n  lt\n    /* \"#utility.yul\":2255:2273   */\n  dup2\n    /* \"#utility.yul\":2252:2290   */\n  eq\n    /* \"#utility.yul\":2249:2410   */\n  iszero\n  tag_72\n  jumpi\n    /* \"#utility.yul\":2332:2342   */\n  0x4e487b71\n    /* \"#utility.yul\":2327:2330   */\n  0xe0\n    /* \"#utility.yul\":2323:2343   */\n  shl\n    /* \"#utility.yul\":2320:2321   */\n  0x00\n    /* \"#utility.yul\":2313:2344   */\n  mstore\n    /* \"#utility.yul\":2367:2371   */\n  0x22\n    /* \"#utility.yul\":2364:2365   */\n  0x04\n    /* \"#utility.yul\":2357:2372   */\n  mstore\n    /* \"#utility.yul\":2395:2399   */\n  0x24\n    /* \"#utility.yul\":2392:2393   */\n  0x00\n    /* \"#utility.yul\":2385:2400   */\n  revert\n    /* \"#utility.yul\":2249:2410   */\ntag_72:\n  pop\n    /* \"#utility.yul\":2036:2416   */\n  swap2\n  swap1\n  pop\n  jump\t// out\n    /* \"#utility.yul\":2421:2548   */\ntag_53:\n    /* \"#utility.yul\":2482:2492   */\n  0x4e487b71\n    /* \"#utility.yul\":2477:2480   */\n  0xe0\n    /* \"#utility.yul\":2473:2493   */\n  shl\n    /* \"#utility.yul\":2470:2471   */\n  0x00\n    /* \"#utility.yul\":2463:2494   */\n  mstore\n    /* \"#utility.yul\":2513:2517   */\n  0x41\n    /* \"#utility.yul\":2510:2511   */\n  0x04\n    /* \"#utility.yul\":2503:2518   */\n  mstore\n    /* \"#utility.yul\":2537:2541   */\n  0x24\n    /* \"#utility.yul\":2534:2535   */\n  0x00\n    /* \"#utility.yul\":2527:2542   */\n  revert\n    /* \"#utility.yul\":2421:2548   */\ntag_47:\n    /* \"contracts/WOM_MINT.sol\":203:4294  contract WOM is ERC721Enumerable, Ownable {... */\n  dataSize(sub_0)\n  dup1\n  dataOffset(sub_0)\n  0x00\n  codecopy\n  0x00\n  return\nstop\n\nsub_0: assembly {\n        /* \"contracts/WOM_MINT.sol\":203:4294  contract WOM is ERC721Enumerable, Ownable {... */\n      mstore(0x40, 0x80)\n      jumpi(tag_1, lt(calldatasize, 0x04))\n      shr(0xe0, calldataload(0x00))\n      dup1\n      0x6c0360eb\n      gt\n      tag_41\n      jumpi\n      dup1\n      0xba7d2c76\n      gt\n      tag_42\n      jumpi\n      dup1\n      0xda3ef23f\n      gt\n      tag_43\n      jumpi\n      dup1\n      0xda3ef23f\n      eq\n      tag_36\n      jumpi\n      dup1\n      0xe8a3d485\n      eq\n      tag_37\n      jumpi\n      dup1\n      0xe985e9c5\n      eq\n      tag_38\n      jumpi\n      dup1\n      0xedec5f27\n      eq\n      tag_39\n      jumpi\n      dup1\n      0xf2fde38b\n      eq\n      tag_40\n      jumpi\n      0x00\n      dup1\n      revert\n    tag_43:\n      dup1\n      0xba7d2c76\n      eq\n      tag_31\n      jumpi\n      dup1\n      0xc6682862\n      eq\n      tag_32\n      jumpi\n      dup1\n      0xc87b56dd\n      eq\n      tag_33\n      jumpi\n      dup1\n      0xd0eb26b0\n      eq\n      tag_34\n      jumpi\n      dup1\n      0xd5abeb01\n      eq\n      tag_35\n      jumpi\n      0x00\n      dup1\n      revert\n    tag_42:\n      dup1\n      0x9c70b512\n      gt\n      tag_44\n      jumpi\n      dup1\n      0x9c70b512\n      eq\n      tag_26\n      jumpi\n      dup1\n      0xa0712d68\n      eq\n      tag_27\n      jumpi\n      dup1\n      0xa22cb465\n      eq\n      tag_28\n      jumpi\n      dup1\n      0xb88d4fde\n      eq\n      tag_29\n      jumpi\n      dup1\n      0xba4e5c49\n      eq\n      tag_30\n      jumpi\n      0x00\n      dup1\n      revert\n    tag_44:\n      dup1\n      0x6c0360eb\n      eq\n      tag_21\n      jumpi\n      dup1\n      0x70a08231\n      eq\n      tag_22\n      jumpi\n      dup1\n      0x715018a6\n      eq\n      tag_23\n      jumpi\n      dup1\n      0x8da5cb5b\n      eq\n      tag_24\n      jumpi\n      dup1\n      0x95d89b41\n      eq\n      tag_25\n      jumpi\n      0x00\n      dup1\n      revert\n    tag_41:\n      dup1\n      0x2f745c59\n      gt\n      tag_45\n      jumpi\n      dup1\n      0x438b6300\n      gt\n      tag_46\n      jumpi\n      dup1\n      0x438b6300\n      eq\n      tag_16\n      jumpi\n      dup1\n      0x4f6ccce7\n      eq\n      tag_17\n      jumpi\n      dup1\n      0x55f804b3\n      eq\n      tag_18\n      jumpi\n      dup1\n      0x5c975abb\n      eq\n      tag_19\n      jumpi\n      dup1\n      0x6352211e\n      eq\n      tag_20\n      jumpi\n      0x00\n      dup1\n      revert\n    tag_46:\n      dup1\n      0x2f745c59\n      eq\n      tag_11\n      jumpi\n      dup1\n      0x3af32abf\n      eq\n      tag_12\n      jumpi\n      dup1\n      0x3c952764\n      eq\n      tag_13\n      jumpi\n      dup1\n      0x3ccfd60b\n      eq\n      tag_14\n      jumpi\n      dup1\n      0x42842e0e\n      eq\n      tag_15\n      jumpi\n      0x00\n      dup1\n      revert\n    tag_45:\n      dup1\n      0x095ea7b3\n      gt\n      tag_47\n      jumpi\n      dup1\n      0x095ea7b3\n      eq\n      tag_6\n      jumpi\n      dup1\n      0x18160ddd\n      eq\n      tag_7\n      jumpi\n      dup1\n      0x18cae269\n      eq\n      tag_8\n      jumpi\n      dup1\n      0x239c70ae\n      eq\n      tag_9\n      jumpi\n      dup1\n      0x23b872dd\n      eq\n      tag_10\n      jumpi\n      0x00\n      dup1\n      revert\n    tag_47:\n      dup1\n      0x01ffc9a7\n      eq\n      tag_2\n      jumpi\n      dup1\n      0x02329a29\n      eq\n      tag_3\n      jumpi\n      dup1\n      0x06fdde03\n      eq\n      tag_4\n      jumpi\n      dup1\n      0x081812fc\n      eq\n      tag_5\n      jumpi\n    tag_1:\n      0x00\n      dup1\n      revert\n        /* \"@openzeppelin/contracts/token/ERC721/extensions/ERC721Enumerable.sol\":990:1212  function supportsInterface(bytes4 interfaceId) public view virtual override(IERC165, ERC721) returns (bool) {... */\n    tag_2:\n      callvalue\n      dup1\n      iszero\n      tag_48\n      jumpi\n      0x00\n      dup1\n      revert\n    tag_48:\n      pop\n      tag_49\n      tag_50\n      calldatasize\n      0x04\n      tag_51\n      jump\t// in\n    tag_50:\n      tag_52\n      jump\t// in\n    tag_49:\n      mload(0x40)\n        /* \"#utility.yul\":8427:8441   */\n      swap1\n      iszero\n        /* \"#utility.yul\":8420:8442   */\n      iszero\n        /* \"#utility.yul\":8402:8443   */\n      dup2\n      mstore\n        /* \"#utility.yul\":8390:8392   */\n      0x20\n        /* \"#utility.yul\":8375:8393   */\n      add\n        /* \"@openzeppelin/contracts/token/ERC721/extensions/ERC721Enumerable.sol\":990:1212  function supportsInterface(bytes4 interfaceId) public view virtual override(IERC165, ERC721) returns (bool) {... */\n    tag_53:\n      mload(0x40)\n      dup1\n      swap2\n      sub\n      swap1\n      return\n        /* \"contracts/WOM_MINT.sol\":3519:3590  function pause(bool _state) public onlyOwner {... */\n    tag_3:\n      callvalue\n      dup1\n      iszero\n      tag_55\n      jumpi\n      0x00\n      dup1\n      revert\n    tag_55:\n      pop\n      tag_56\n      tag_57\n      calldatasize\n      0x04\n      tag_58\n      jump\t// in\n    tag_57:\n      tag_59\n      jump\t// in\n    tag_56:\n      stop\n        /* \"@openzeppelin/contracts/token/ERC721/ERC721.sol\":2470:2568  function name() public view virtual override returns (string memory) {... */\n    tag_4:\n      callvalue\n      dup1\n      iszero\n      tag_60\n      jumpi\n      0x00\n      dup1\n      revert\n    tag_60:\n      pop\n      tag_61\n      tag_62\n      jump\t// in\n    tag_61:\n      mload(0x40)\n      tag_53\n      swap2\n      swap1\n      tag_64\n      jump\t// in\n        /* \"@openzeppelin/contracts/token/ERC721/ERC721.sol\":3935:4102  function getApproved(uint256 tokenId) public view virtual override returns (address) {... */\n    tag_5:\n      callvalue\n      dup1\n      iszero\n      tag_65\n      jumpi\n      0x00\n      dup1\n      revert\n    tag_65:\n      pop\n      tag_66\n      tag_67\n      calldatasize\n      0x04\n      tag_68\n      jump\t// in\n    tag_67:\n      tag_69\n      jump\t// in\n    tag_66:\n      mload(0x40)\n      sub(shl(0xa0, 0x01), 0x01)\n        /* \"#utility.yul\":7088:7120   */\n      swap1\n      swap2\n      and\n        /* \"#utility.yul\":7070:7121   */\n      dup2\n      mstore\n        /* \"#utility.yul\":7058:7060   */\n      0x20\n        /* \"#utility.yul\":7043:7061   */\n      add\n        /* \"@openzeppelin/contracts/token/ERC721/ERC721.sol\":3935:4102  function getApproved(uint256 tokenId) public view virtual override returns (address) {... */\n      tag_53\n        /* \"#utility.yul\":6924:7127   */\n      jump\n        /* \"@openzeppelin/contracts/token/ERC721/ERC721.sol\":3467:3874  function approve(address to, uint256 tokenId) public virtual override {... */\n    tag_6:\n      callvalue\n      dup1\n      iszero\n      tag_72\n      jumpi\n      0x00\n      dup1\n      revert\n    tag_72:\n      pop\n      tag_56\n      tag_74\n      calldatasize\n      0x04\n      tag_75\n      jump\t// in\n    tag_74:\n      tag_76\n      jump\t// in\n        /* \"@openzeppelin/contracts/token/ERC721/extensions/ERC721Enumerable.sol\":1615:1726  function totalSupply() public view virtual override returns (uint256) {... */\n    tag_7:\n      callvalue\n      dup1\n      iszero\n      tag_77\n      jumpi\n      0x00\n      dup1\n      revert\n    tag_77:\n      pop\n        /* \"@openzeppelin/contracts/token/ERC721/extensions/ERC721Enumerable.sol\":1702:1712  _allTokens */\n      0x08\n        /* \"@openzeppelin/contracts/token/ERC721/extensions/ERC721Enumerable.sol\":1702:1719  _allTokens.length */\n      sload\n        /* \"@openzeppelin/contracts/token/ERC721/extensions/ERC721Enumerable.sol\":1615:1726  function totalSupply() public view virtual override returns (uint256) {... */\n    tag_78:\n      mload(0x40)\n        /* \"#utility.yul\":17318:17343   */\n      swap1\n      dup2\n      mstore\n        /* \"#utility.yul\":17306:17308   */\n      0x20\n        /* \"#utility.yul\":17291:17309   */\n      add\n        /* \"@openzeppelin/contracts/token/ERC721/extensions/ERC721Enumerable.sol\":1615:1726  function totalSupply() public view virtual override returns (uint256) {... */\n      tag_53\n        /* \"#utility.yul\":17172:17349   */\n      jump\n        /* \"contracts/WOM_MINT.sol\":639:694  mapping(address => uint256) public addressMintedBalance */\n    tag_8:\n      callvalue\n      dup1\n      iszero\n      tag_82\n      jumpi\n      0x00\n      dup1\n      revert\n    tag_82:\n      pop\n      tag_78\n      tag_84\n      calldatasize\n      0x04\n      tag_85\n      jump\t// in\n    tag_84:\n      mstore(0x20, 0x12)\n      0x00\n      swap1\n      dup2\n      mstore\n      0x40\n      swap1\n      keccak256\n      sload\n      dup2\n      jump\n        /* \"contracts/WOM_MINT.sol\":453:485  uint256 public maxMintAmount = 2 */\n    tag_9:\n      callvalue\n      dup1\n      iszero\n      tag_88\n      jumpi\n      0x00\n      dup1\n      revert\n    tag_88:\n      pop\n      tag_78\n      sload(0x0e)\n      dup2\n      jump\n        /* \"@openzeppelin/contracts/token/ERC721/ERC721.sol\":4612:4939  function transferFrom(... */\n    tag_10:\n      callvalue\n      dup1\n      iszero\n      tag_92\n      jumpi\n      0x00\n      dup1\n      revert\n    tag_92:\n      pop\n      tag_56\n      tag_94\n      calldatasize\n      0x04\n      tag_95\n      jump\t// in\n    tag_94:\n      tag_96\n      jump\t// in\n        /* \"@openzeppelin/contracts/token/ERC721/extensions/ERC721Enumerable.sol\":1291:1544  function tokenOfOwnerByIndex(address owner, uint256 index) public view virtual override returns (uint256) {... */\n    tag_11:\n      callvalue\n      dup1\n      iszero\n      tag_97\n      jumpi\n      0x00\n      dup1\n      revert\n    tag_97:\n      pop\n      tag_78\n      tag_99\n      calldatasize\n      0x04\n      tag_75\n      jump\t// in\n    tag_99:\n      tag_100\n      jump\t// in\n        /* \"contracts/WOM_MINT.sol\":2109:2341  function isWhitelisted(address _user) public view returns (bool) {... */\n    tag_12:\n      callvalue\n      dup1\n      iszero\n      tag_102\n      jumpi\n      0x00\n      dup1\n      revert\n    tag_102:\n      pop\n      tag_49\n      tag_104\n      calldatasize\n      0x04\n      tag_85\n      jump\t// in\n    tag_104:\n      tag_105\n      jump\t// in\n        /* \"contracts/WOM_MINT.sol\":3596:3689  function setOnlyWhitelisted(bool _state) public onlyOwner {... */\n    tag_13:\n      callvalue\n      dup1\n      iszero\n      tag_107\n      jumpi\n      0x00\n      dup1\n      revert\n    tag_107:\n      pop\n      tag_56\n      tag_109\n      calldatasize\n      0x04\n      tag_58\n      jump\t// in\n    tag_109:\n      tag_110\n      jump\t// in\n        /* \"contracts/WOM_MINT.sol\":3841:4292  function withdraw() public payable onlyOwner {... */\n    tag_14:\n      tag_56\n      tag_112\n      jump\t// in\n        /* \"@openzeppelin/contracts/token/ERC721/ERC721.sol\":5005:5184  function safeTransferFrom(... */\n    tag_15:\n      callvalue\n      dup1\n      iszero\n      tag_113\n      jumpi\n      0x00\n      dup1\n      revert\n    tag_113:\n      pop\n      tag_56\n      tag_115\n      calldatasize\n      0x04\n      tag_95\n      jump\t// in\n    tag_115:\n      tag_116\n      jump\t// in\n        /* \"contracts/WOM_MINT.sol\":2345:2682  function walletOfOwner(address _owner)... */\n    tag_16:\n      callvalue\n      dup1\n      iszero\n      tag_117\n      jumpi\n      0x00\n      dup1\n      revert\n    tag_117:\n      pop\n      tag_118\n      tag_119\n      calldatasize\n      0x04\n      tag_85\n      jump\t// in\n    tag_119:\n      tag_120\n      jump\t// in\n    tag_118:\n      mload(0x40)\n      tag_53\n      swap2\n      swap1\n      tag_122\n      jump\t// in\n        /* \"@openzeppelin/contracts/token/ERC721/extensions/ERC721Enumerable.sol\":1798:2028  function tokenByIndex(uint256 index) public view virtual override returns (uint256) {... */\n    tag_17:\n      callvalue\n      dup1\n      iszero\n      tag_123\n      jumpi\n      0x00\n      dup1\n      revert\n    tag_123:\n      pop\n      tag_78\n      tag_125\n      calldatasize\n      0x04\n      tag_68\n      jump\t// in\n    tag_125:\n      tag_126\n      jump\t// in\n        /* \"contracts/WOM_MINT.sol\":3295:3391  function setBaseURI(string memory _newBaseURI) public onlyOwner {... */\n    tag_18:\n      callvalue\n      dup1\n      iszero\n      tag_128\n      jumpi\n      0x00\n      dup1\n      revert\n    tag_128:\n      pop\n      tag_56\n      tag_130\n      calldatasize\n      0x04\n      tag_131\n      jump\t// in\n    tag_130:\n      tag_132\n      jump\t// in\n        /* \"contracts/WOM_MINT.sol\":530:556  bool public paused = false */\n    tag_19:\n      callvalue\n      dup1\n      iszero\n      tag_133\n      jumpi\n      0x00\n      dup1\n      revert\n    tag_133:\n      pop\n      sload(0x10)\n      tag_49\n      swap1\n      0xff\n      and\n      dup2\n      jump\n        /* \"@openzeppelin/contracts/token/ERC721/ERC721.sol\":2190:2408  function ownerOf(uint256 tokenId) public view virtual override returns (address) {... */\n    tag_20:\n      callvalue\n      dup1\n      iszero\n      tag_137\n      jumpi\n      0x00\n      dup1\n      revert\n    tag_137:\n      pop\n      tag_66\n      tag_139\n      calldatasize\n      0x04\n      tag_68\n      jump\t// in\n    tag_139:\n      tag_140\n      jump\t// in\n        /* \"contracts/WOM_MINT.sol\":279:300  string public baseURI */\n    tag_21:\n      callvalue\n      dup1\n      iszero\n      tag_142\n      jumpi\n      0x00\n      dup1\n      revert\n    tag_142:\n      pop\n      tag_61\n      tag_144\n      jump\t// in\n        /* \"@openzeppelin/contracts/token/ERC721/ERC721.sol\":1929:2133  function balanceOf(address owner) public view virtual override returns (uint256) {... */\n    tag_22:\n      callvalue\n      dup1\n      iszero\n      tag_146\n      jumpi\n      0x00\n      dup1\n      revert\n    tag_146:\n      pop\n      tag_78\n      tag_148\n      calldatasize\n      0x04\n      tag_85\n      jump\t// in\n    tag_148:\n      tag_149\n      jump\t// in\n        /* \"@openzeppelin/contracts/access/Ownable.sol\":1831:1932  function renounceOwnership() public virtual onlyOwner {... */\n    tag_23:\n      callvalue\n      dup1\n      iszero\n      tag_151\n      jumpi\n      0x00\n      dup1\n      revert\n    tag_151:\n      pop\n      tag_56\n      tag_153\n      jump\t// in\n        /* \"@openzeppelin/contracts/access/Ownable.sol\":1201:1286  function owner() public view virtual returns (address) {... */\n    tag_24:\n      callvalue\n      dup1\n      iszero\n      tag_154\n      jumpi\n      0x00\n      dup1\n      revert\n    tag_154:\n      pop\n        /* \"@openzeppelin/contracts/access/Ownable.sol\":1273:1279  _owner */\n      and(sub(shl(0xa0, 0x01), 0x01), sload(0x0a))\n        /* \"@openzeppelin/contracts/access/Ownable.sol\":1201:1286  function owner() public view virtual returns (address) {... */\n      jump(tag_66)\n        /* \"@openzeppelin/contracts/token/ERC721/ERC721.sol\":2632:2734  function symbol() public view virtual override returns (string memory) {... */\n    tag_25:\n      callvalue\n      dup1\n      iszero\n      tag_158\n      jumpi\n      0x00\n      dup1\n      revert\n    tag_158:\n      pop\n      tag_61\n      tag_160\n      jump\t// in\n        /* \"contracts/WOM_MINT.sol\":560:594  bool public onlyWhitelisted = true */\n    tag_26:\n      callvalue\n      dup1\n      iszero\n      tag_162\n      jumpi\n      0x00\n      dup1\n      revert\n    tag_162:\n      pop\n      sload(0x10)\n      tag_49\n      swap1\n      0x0100\n      swap1\n      div\n      0xff\n      and\n      dup2\n      jump\n        /* \"contracts/WOM_MINT.sol\":991:1896  function mint(uint256 _mintAmount) public payable {... */\n    tag_27:\n      tag_56\n      tag_167\n      calldatasize\n      0x04\n      tag_68\n      jump\t// in\n    tag_167:\n      tag_168\n      jump\t// in\n        /* \"@openzeppelin/contracts/token/ERC721/ERC721.sol\":4169:4322  function setApprovalForAll(address operator, bool approved) public virtual override {... */\n    tag_28:\n      callvalue\n      dup1\n      iszero\n      tag_169\n      jumpi\n      0x00\n      dup1\n      revert\n    tag_169:\n      pop\n      tag_56\n      tag_171\n      calldatasize\n      0x04\n      tag_172\n      jump\t// in\n    tag_171:\n      tag_173\n      jump\t// in\n        /* \"@openzeppelin/contracts/token/ERC721/ERC721.sol\":5250:5565  function safeTransferFrom(... */\n    tag_29:\n      callvalue\n      dup1\n      iszero\n      tag_174\n      jumpi\n      0x00\n      dup1\n      revert\n    tag_174:\n      pop\n      tag_56\n      tag_176\n      calldatasize\n      0x04\n      tag_177\n      jump\t// in\n    tag_176:\n      tag_178\n      jump\t// in\n        /* \"contracts/WOM_MINT.sol\":598:635  address[] public whitelistedAddresses */\n    tag_30:\n      callvalue\n      dup1\n      iszero\n      tag_179\n      jumpi\n      0x00\n      dup1\n      revert\n    tag_179:\n      pop\n      tag_66\n      tag_181\n      calldatasize\n      0x04\n      tag_68\n      jump\t// in\n    tag_181:\n      tag_182\n      jump\t// in\n        /* \"contracts/WOM_MINT.sol\":489:526  uint256 public nftPerAddressLimit = 2 */\n    tag_31:\n      callvalue\n      dup1\n      iszero\n      tag_184\n      jumpi\n      0x00\n      dup1\n      revert\n    tag_184:\n      pop\n      tag_78\n      sload(0x0f)\n      dup2\n      jump\n        /* \"contracts/WOM_MINT.sol\":304:341  string public baseExtension = \".json\" */\n    tag_32:\n      callvalue\n      dup1\n      iszero\n      tag_188\n      jumpi\n      0x00\n      dup1\n      revert\n    tag_188:\n      pop\n      tag_61\n      tag_190\n      jump\t// in\n        /* \"contracts/WOM_MINT.sol\":2686:3089  function tokenURI(uint256 tokenId)... */\n    tag_33:\n      callvalue\n      dup1\n      iszero\n      tag_192\n      jumpi\n      0x00\n      dup1\n      revert\n    tag_192:\n      pop\n      tag_61\n      tag_194\n      calldatasize\n      0x04\n      tag_68\n      jump\t// in\n    tag_194:\n      tag_195\n      jump\t// in\n        /* \"contracts/WOM_MINT.sol\":3095:3197  function setNftPerAddressLimit(uint256 _limit) public onlyOwner {... */\n    tag_34:\n      callvalue\n      dup1\n      iszero\n      tag_197\n      jumpi\n      0x00\n      dup1\n      revert\n    tag_197:\n      pop\n      tag_56\n      tag_199\n      calldatasize\n      0x04\n      tag_68\n      jump\t// in\n    tag_199:\n      tag_200\n      jump\t// in\n        /* \"contracts/WOM_MINT.sol\":399:428  uint256 public maxSupply = 13 */\n    tag_35:\n      callvalue\n      dup1\n      iszero\n      tag_201\n      jumpi\n      0x00\n      dup1\n      revert\n    tag_201:\n      pop\n      tag_78\n      sload(0x0d)\n      dup2\n      jump\n        /* \"contracts/WOM_MINT.sol\":3395:3515  function setBaseExtension(string memory _newBaseExtension) public onlyOwner {... */\n    tag_36:\n      callvalue\n      dup1\n      iszero\n      tag_205\n      jumpi\n      0x00\n      dup1\n      revert\n    tag_205:\n      pop\n      tag_56\n      tag_207\n      calldatasize\n      0x04\n      tag_131\n      jump\t// in\n    tag_207:\n      tag_208\n      jump\t// in\n        /* \"contracts/WOM_MINT.sol\":1900:2103  function contractURI() public pure returns (string memory) {... */\n    tag_37:\n      callvalue\n      dup1\n      iszero\n      tag_209\n      jumpi\n      0x00\n      dup1\n      revert\n    tag_209:\n      pop\n      tag_61\n      tag_211\n      jump\t// in\n        /* \"@openzeppelin/contracts/token/ERC721/ERC721.sol\":4388:4550  function isApprovedForAll(address owner, address operator) public view virtual override returns (bool) {... */\n    tag_38:\n      callvalue\n      dup1\n      iszero\n      tag_213\n      jumpi\n      0x00\n      dup1\n      revert\n    tag_213:\n      pop\n      tag_49\n      tag_215\n      calldatasize\n      0x04\n      tag_216\n      jump\t// in\n    tag_215:\n      sub(shl(0xa0, 0x01), 0x01)\n        /* \"@openzeppelin/contracts/token/ERC721/ERC721.sol\":4508:4533  _operatorApprovals[owner] */\n      swap2\n      dup3\n      and\n        /* \"@openzeppelin/contracts/token/ERC721/ERC721.sol\":4485:4489  bool */\n      0x00\n        /* \"@openzeppelin/contracts/token/ERC721/ERC721.sol\":4508:4533  _operatorApprovals[owner] */\n      swap1\n      dup2\n      mstore\n        /* \"@openzeppelin/contracts/token/ERC721/ERC721.sol\":4508:4526  _operatorApprovals */\n      0x05\n        /* \"@openzeppelin/contracts/token/ERC721/ERC721.sol\":4508:4533  _operatorApprovals[owner] */\n      0x20\n      swap1\n      dup2\n      mstore\n      0x40\n      dup1\n      dup4\n      keccak256\n        /* \"@openzeppelin/contracts/token/ERC721/ERC721.sol\":4508:4543  _operatorApprovals[owner][operator] */\n      swap4\n      swap1\n      swap5\n      and\n      dup3\n      mstore\n      swap2\n      swap1\n      swap2\n      mstore\n      keccak256\n      sload\n      0xff\n      and\n      swap1\n        /* \"@openzeppelin/contracts/token/ERC721/ERC721.sol\":4388:4550  function isApprovedForAll(address owner, address operator) public view virtual override returns (bool) {... */\n      jump\n        /* \"contracts/WOM_MINT.sol\":3695:3836  function whitelistUsers(address[] calldata _users) public onlyOwner {... */\n    tag_39:\n      callvalue\n      dup1\n      iszero\n      tag_219\n      jumpi\n      0x00\n      dup1\n      revert\n    tag_219:\n      pop\n      tag_56\n      tag_221\n      calldatasize\n      0x04\n      tag_222\n      jump\t// in\n    tag_221:\n      tag_223\n      jump\t// in\n        /* \"@openzeppelin/contracts/access/Ownable.sol\":2081:2279  function transferOwnership(address newOwner) public virtual onlyOwner {... */\n    tag_40:\n      callvalue\n      dup1\n      iszero\n      tag_224\n      jumpi\n      0x00\n      dup1\n      revert\n    tag_224:\n      pop\n      tag_56\n      tag_226\n      calldatasize\n      0x04\n      tag_85\n      jump\t// in\n    tag_226:\n      tag_227\n      jump\t// in\n        /* \"@openzeppelin/contracts/token/ERC721/extensions/ERC721Enumerable.sol\":990:1212  function supportsInterface(bytes4 interfaceId) public view virtual override(IERC165, ERC721) returns (bool) {... */\n    tag_52:\n        /* \"@openzeppelin/contracts/token/ERC721/extensions/ERC721Enumerable.sol\":1092:1096  bool */\n      0x00\n      not(sub(shl(0xe0, 0x01), 0x01))\n        /* \"@openzeppelin/contracts/token/ERC721/extensions/ERC721Enumerable.sol\":1115:1165  interfaceId == type(IERC721Enumerable).interfaceId */\n      dup3\n      and\n      shl(0xe0, 0x780e9d63)\n      eq\n      dup1\n        /* \"@openzeppelin/contracts/token/ERC721/extensions/ERC721Enumerable.sol\":1115:1205  interfaceId == type(IERC721Enumerable).interfaceId || super.supportsInterface(interfaceId) */\n      tag_230\n      jumpi\n      pop\n        /* \"@openzeppelin/contracts/token/ERC721/extensions/ERC721Enumerable.sol\":1169:1205  super.supportsInterface(interfaceId) */\n      tag_230\n        /* \"@openzeppelin/contracts/token/ERC721/extensions/ERC721Enumerable.sol\":1193:1204  interfaceId */\n      dup3\n        /* \"@openzeppelin/contracts/token/ERC721/extensions/ERC721Enumerable.sol\":1169:1192  super.supportsInterface */\n      tag_231\n        /* \"@openzeppelin/contracts/token/ERC721/extensions/ERC721Enumerable.sol\":1169:1205  super.supportsInterface(interfaceId) */\n      jump\t// in\n    tag_230:\n        /* \"@openzeppelin/contracts/token/ERC721/extensions/ERC721Enumerable.sol\":1108:1205  return interfaceId == type(IERC721Enumerable).interfaceId || super.supportsInterface(interfaceId) */\n      swap3\n        /* \"@openzeppelin/contracts/token/ERC721/extensions/ERC721Enumerable.sol\":990:1212  function supportsInterface(bytes4 interfaceId) public view virtual override(IERC165, ERC721) returns (bool) {... */\n      swap2\n      pop\n      pop\n      jump\t// out\n        /* \"contracts/WOM_MINT.sol\":3519:3590  function pause(bool _state) public onlyOwner {... */\n    tag_59:\n        /* \"@openzeppelin/contracts/access/Ownable.sol\":1094:1107  _checkOwner() */\n      tag_233\n        /* \"@openzeppelin/contracts/access/Ownable.sol\":1094:1105  _checkOwner */\n      tag_234\n        /* \"@openzeppelin/contracts/access/Ownable.sol\":1094:1107  _checkOwner() */\n      jump\t// in\n    tag_233:\n        /* \"contracts/WOM_MINT.sol\":3570:3576  paused */\n      0x10\n        /* \"contracts/WOM_MINT.sol\":3570:3585  paused = _state */\n      dup1\n      sload\n      not(0xff)\n      and\n      swap2\n      iszero\n      iszero\n      swap2\n      swap1\n      swap2\n      or\n      swap1\n      sstore\n        /* \"contracts/WOM_MINT.sol\":3519:3590  function pause(bool _state) public onlyOwner {... */\n      jump\t// out\n        /* \"@openzeppelin/contracts/token/ERC721/ERC721.sol\":2470:2568  function name() public view virtual override returns (string memory) {... */\n    tag_62:\n        /* \"@openzeppelin/contracts/token/ERC721/ERC721.sol\":2524:2537  string memory */\n      0x60\n        /* \"@openzeppelin/contracts/token/ERC721/ERC721.sol\":2556:2561  _name */\n      0x00\n        /* \"@openzeppelin/contracts/token/ERC721/ERC721.sol\":2549:2561  return _name */\n      dup1\n      sload\n      tag_237\n      swap1\n      tag_238\n      jump\t// in\n    tag_237:\n      dup1\n      0x1f\n      add\n      0x20\n      dup1\n      swap2\n      div\n      mul\n      0x20\n      add\n      mload(0x40)\n      swap1\n      dup2\n      add\n      0x40\n      mstore\n      dup1\n      swap3\n      swap2\n      swap1\n      dup2\n      dup2\n      mstore\n      0x20\n      add\n      dup3\n      dup1\n      sload\n      tag_239\n      swap1\n      tag_238\n      jump\t// in\n    tag_239:\n      dup1\n      iszero\n      tag_240\n      jumpi\n      dup1\n      0x1f\n      lt\n      tag_241\n      jumpi\n      0x0100\n      dup1\n      dup4\n      sload\n      div\n      mul\n      dup4\n      mstore\n      swap2\n      0x20\n      add\n      swap2\n      jump(tag_240)\n    tag_241:\n      dup3\n      add\n      swap2\n      swap1\n      0x00\n      mstore\n      keccak256(0x00, 0x20)\n      swap1\n    tag_242:\n      dup2\n      sload\n      dup2\n      mstore\n      swap1\n      0x01\n      add\n      swap1\n      0x20\n      add\n      dup1\n      dup4\n      gt\n      tag_242\n      jumpi\n      dup3\n      swap1\n      sub\n      0x1f\n      and\n      dup3\n      add\n      swap2\n    tag_240:\n      pop\n      pop\n      pop\n      pop\n      pop\n      swap1\n      pop\n        /* \"@openzeppelin/contracts/token/ERC721/ERC721.sol\":2470:2568  function name() public view virtual override returns (string memory) {... */\n      swap1\n      jump\t// out\n        /* \"@openzeppelin/contracts/token/ERC721/ERC721.sol\":3935:4102  function getApproved(uint256 tokenId) public view virtual override returns (address) {... */\n    tag_69:\n        /* \"@openzeppelin/contracts/token/ERC721/ERC721.sol\":4011:4018  address */\n      0x00\n        /* \"@openzeppelin/contracts/token/ERC721/ERC721.sol\":4030:4053  _requireMinted(tokenId) */\n      tag_244\n        /* \"@openzeppelin/contracts/token/ERC721/ERC721.sol\":4045:4052  tokenId */\n      dup3\n        /* \"@openzeppelin/contracts/token/ERC721/ERC721.sol\":4030:4044  _requireMinted */\n      tag_245\n        /* \"@openzeppelin/contracts/token/ERC721/ERC721.sol\":4030:4053  _requireMinted(tokenId) */\n      jump\t// in\n    tag_244:\n      pop\n        /* \"@openzeppelin/contracts/token/ERC721/ERC721.sol\":4071:4095  _tokenApprovals[tokenId] */\n      0x00\n      swap1\n      dup2\n      mstore\n        /* \"@openzeppelin/contracts/token/ERC721/ERC721.sol\":4071:4086  _tokenApprovals */\n      0x04\n        /* \"@openzeppelin/contracts/token/ERC721/ERC721.sol\":4071:4095  _tokenApprovals[tokenId] */\n      0x20\n      mstore\n      0x40\n      swap1\n      keccak256\n      sload\n      sub(shl(0xa0, 0x01), 0x01)\n      and\n      swap1\n        /* \"@openzeppelin/contracts/token/ERC721/ERC721.sol\":3935:4102  function getApproved(uint256 tokenId) public view virtual override returns (address) {... */\n      jump\t// out\n        /* \"@openzeppelin/contracts/token/ERC721/ERC721.sol\":3467:3874  function approve(address to, uint256 tokenId) public virtual override {... */\n    tag_76:\n        /* \"@openzeppelin/contracts/token/ERC721/ERC721.sol\":3547:3560  address owner */\n      0x00\n        /* \"@openzeppelin/contracts/token/ERC721/ERC721.sol\":3563:3586  ERC721.ownerOf(tokenId) */\n      tag_247\n        /* \"@openzeppelin/contracts/token/ERC721/ERC721.sol\":3578:3585  tokenId */\n      dup3\n        /* \"@openzeppelin/contracts/token/ERC721/ERC721.sol\":3563:3577  ERC721.ownerOf */\n      tag_140\n        /* \"@openzeppelin/contracts/token/ERC721/ERC721.sol\":3563:3586  ERC721.ownerOf(tokenId) */\n      jump\t// in\n    tag_247:\n        /* \"@openzeppelin/contracts/token/ERC721/ERC721.sol\":3547:3586  address owner = ERC721.ownerOf(tokenId) */\n      swap1\n      pop\n        /* \"@openzeppelin/contracts/token/ERC721/ERC721.sol\":3610:3615  owner */\n      dup1\n      sub(shl(0xa0, 0x01), 0x01)\n        /* \"@openzeppelin/contracts/token/ERC721/ERC721.sol\":3604:3615  to != owner */\n      and\n        /* \"@openzeppelin/contracts/token/ERC721/ERC721.sol\":3604:3606  to */\n      dup4\n      sub(shl(0xa0, 0x01), 0x01)\n        /* \"@openzeppelin/contracts/token/ERC721/ERC721.sol\":3604:3615  to != owner */\n      and\n      eq\n      iszero\n        /* \"@openzeppelin/contracts/token/ERC721/ERC721.sol\":3596:3653  require(to != owner, \"ERC721: approval to current owner\") */\n      tag_248\n      jumpi\n      mload(0x40)\n      shl(0xe5, 0x461bcd)\n      dup2\n      mstore\n        /* \"#utility.yul\":15436:15438   */\n      0x20\n        /* \"@openzeppelin/contracts/token/ERC721/ERC721.sol\":3596:3653  require(to != owner, \"ERC721: approval to current owner\") */\n      0x04\n      dup3\n      add\n        /* \"#utility.yul\":15418:15439   */\n      mstore\n        /* \"#utility.yul\":15475:15477   */\n      0x21\n        /* \"#utility.yul\":15455:15473   */\n      0x24\n      dup3\n      add\n        /* \"#utility.yul\":15448:15478   */\n      mstore\n        /* \"#utility.yul\":15514:15548   */\n      0x4552433732313a20617070726f76616c20746f2063757272656e74206f776e65\n        /* \"#utility.yul\":15494:15512   */\n      0x44\n      dup3\n      add\n        /* \"#utility.yul\":15487:15549   */\n      mstore\n      shl(0xf9, 0x39)\n        /* \"#utility.yul\":15565:15583   */\n      0x64\n      dup3\n      add\n        /* \"#utility.yul\":15558:15589   */\n      mstore\n        /* \"#utility.yul\":15606:15625   */\n      0x84\n      add\n        /* \"@openzeppelin/contracts/token/ERC721/ERC721.sol\":3596:3653  require(to != owner, \"ERC721: approval to current owner\") */\n    tag_249:\n      mload(0x40)\n      dup1\n      swap2\n      sub\n      swap1\n      revert\n    tag_248:\n        /* \"@openzeppelin/contracts/utils/Context.sol\":719:729  msg.sender */\n      caller\n      sub(shl(0xa0, 0x01), 0x01)\n        /* \"@openzeppelin/contracts/token/ERC721/ERC721.sol\":3685:3706  _msgSender() == owner */\n      dup3\n      and\n      eq\n      dup1\n        /* \"@openzeppelin/contracts/token/ERC721/ERC721.sol\":3685:3747  _msgSender() == owner || isApprovedForAll(owner, _msgSender()) */\n      tag_254\n      jumpi\n      pop\n        /* \"@openzeppelin/contracts/token/ERC721/ERC721.sol\":3710:3747  isApprovedForAll(owner, _msgSender()) */\n      tag_254\n        /* \"@openzeppelin/contracts/token/ERC721/ERC721.sol\":3727:3732  owner */\n      dup2\n        /* \"@openzeppelin/contracts/utils/Context.sol\":719:729  msg.sender */\n      caller\n        /* \"@openzeppelin/contracts/token/ERC721/ERC721.sol\":4388:4550  function isApprovedForAll(address owner, address operator) public view virtual override returns (bool) {... */\n      tag_215\n      jump\t// in\n        /* \"@openzeppelin/contracts/token/ERC721/ERC721.sol\":3710:3747  isApprovedForAll(owner, _msgSender()) */\n    tag_254:\n        /* \"@openzeppelin/contracts/token/ERC721/ERC721.sol\":3664:3835  require(... */\n      tag_256\n      jumpi\n      mload(0x40)\n      shl(0xe5, 0x461bcd)\n      dup2\n      mstore\n        /* \"#utility.yul\":13163:13165   */\n      0x20\n        /* \"@openzeppelin/contracts/token/ERC721/ERC721.sol\":3664:3835  require(... */\n      0x04\n      dup3\n      add\n        /* \"#utility.yul\":13145:13166   */\n      mstore\n        /* \"#utility.yul\":13202:13204   */\n      0x3e\n        /* \"#utility.yul\":13182:13200   */\n      0x24\n      dup3\n      add\n        /* \"#utility.yul\":13175:13205   */\n      mstore\n        /* \"#utility.yul\":13241:13275   */\n      0x4552433732313a20617070726f76652063616c6c6572206973206e6f7420746f\n        /* \"#utility.yul\":13221:13239   */\n      0x44\n      dup3\n      add\n        /* \"#utility.yul\":13214:13276   */\n      mstore\n        /* \"#utility.yul\":13312:13344   */\n      0x6b656e206f776e6572206e6f7220617070726f76656420666f7220616c6c0000\n        /* \"#utility.yul\":13292:13310   */\n      0x64\n      dup3\n      add\n        /* \"#utility.yul\":13285:13345   */\n      mstore\n        /* \"#utility.yul\":13362:13381   */\n      0x84\n      add\n        /* \"@openzeppelin/contracts/token/ERC721/ERC721.sol\":3664:3835  require(... */\n      tag_249\n        /* \"#utility.yul\":12961:13387   */\n      jump\n        /* \"@openzeppelin/contracts/token/ERC721/ERC721.sol\":3664:3835  require(... */\n    tag_256:\n        /* \"@openzeppelin/contracts/token/ERC721/ERC721.sol\":3846:3867  _approve(to, tokenId) */\n      tag_259\n        /* \"@openzeppelin/contracts/token/ERC721/ERC721.sol\":3855:3857  to */\n      dup4\n        /* \"@openzeppelin/contracts/token/ERC721/ERC721.sol\":3859:3866  tokenId */\n      dup4\n        /* \"@openzeppelin/contracts/token/ERC721/ERC721.sol\":3846:3854  _approve */\n      tag_260\n        /* \"@openzeppelin/contracts/token/ERC721/ERC721.sol\":3846:3867  _approve(to, tokenId) */\n      jump\t// in\n    tag_259:\n        /* \"@openzeppelin/contracts/token/ERC721/ERC721.sol\":3537:3874  {... */\n      pop\n        /* \"@openzeppelin/contracts/token/ERC721/ERC721.sol\":3467:3874  function approve(address to, uint256 tokenId) public virtual override {... */\n      pop\n      pop\n      jump\t// out\n        /* \"@openzeppelin/contracts/token/ERC721/ERC721.sol\":4612:4939  function transferFrom(... */\n    tag_96:\n        /* \"@openzeppelin/contracts/token/ERC721/ERC721.sol\":4801:4842  _isApprovedOrOwner(_msgSender(), tokenId) */\n      tag_263\n        /* \"@openzeppelin/contracts/utils/Context.sol\":719:729  msg.sender */\n      caller\n        /* \"@openzeppelin/contracts/token/ERC721/ERC721.sol\":4834:4841  tokenId */\n      dup3\n        /* \"@openzeppelin/contracts/token/ERC721/ERC721.sol\":4801:4819  _isApprovedOrOwner */\n      tag_265\n        /* \"@openzeppelin/contracts/token/ERC721/ERC721.sol\":4801:4842  _isApprovedOrOwner(_msgSender(), tokenId) */\n      jump\t// in\n    tag_263:\n        /* \"@openzeppelin/contracts/token/ERC721/ERC721.sol\":4793:4893  require(_isApprovedOrOwner(_msgSender(), tokenId), \"ERC721: caller is not token owner nor approved\") */\n      tag_266\n      jumpi\n      mload(0x40)\n      shl(0xe5, 0x461bcd)\n      dup2\n      mstore\n      0x04\n      add\n      tag_249\n      swap1\n      tag_268\n      jump\t// in\n    tag_266:\n        /* \"@openzeppelin/contracts/token/ERC721/ERC721.sol\":4904:4932  _transfer(from, to, tokenId) */\n      tag_259\n        /* \"@openzeppelin/contracts/token/ERC721/ERC721.sol\":4914:4918  from */\n      dup4\n        /* \"@openzeppelin/contracts/token/ERC721/ERC721.sol\":4920:4922  to */\n      dup4\n        /* \"@openzeppelin/contracts/token/ERC721/ERC721.sol\":4924:4931  tokenId */\n      dup4\n        /* \"@openzeppelin/contracts/token/ERC721/ERC721.sol\":4904:4913  _transfer */\n      tag_270\n        /* \"@openzeppelin/contracts/token/ERC721/ERC721.sol\":4904:4932  _transfer(from, to, tokenId) */\n      jump\t// in\n        /* \"@openzeppelin/contracts/token/ERC721/extensions/ERC721Enumerable.sol\":1291:1544  function tokenOfOwnerByIndex(address owner, uint256 index) public view virtual override returns (uint256) {... */\n    tag_100:\n        /* \"@openzeppelin/contracts/token/ERC721/extensions/ERC721Enumerable.sol\":1388:1395  uint256 */\n      0x00\n        /* \"@openzeppelin/contracts/token/ERC721/extensions/ERC721Enumerable.sol\":1423:1446  ERC721.balanceOf(owner) */\n      tag_272\n        /* \"@openzeppelin/contracts/token/ERC721/extensions/ERC721Enumerable.sol\":1440:1445  owner */\n      dup4\n        /* \"@openzeppelin/contracts/token/ERC721/extensions/ERC721Enumerable.sol\":1423:1439  ERC721.balanceOf */\n      tag_149\n        /* \"@openzeppelin/contracts/token/ERC721/extensions/ERC721Enumerable.sol\":1423:1446  ERC721.balanceOf(owner) */\n      jump\t// in\n    tag_272:\n        /* \"@openzeppelin/contracts/token/ERC721/extensions/ERC721Enumerable.sol\":1415:1420  index */\n      dup3\n        /* \"@openzeppelin/contracts/token/ERC721/extensions/ERC721Enumerable.sol\":1415:1446  index < ERC721.balanceOf(owner) */\n      lt\n        /* \"@openzeppelin/contracts/token/ERC721/extensions/ERC721Enumerable.sol\":1407:1494  require(index < ERC721.balanceOf(owner), \"ERC721Enumerable: owner index out of bounds\") */\n      tag_273\n      jumpi\n      mload(0x40)\n      shl(0xe5, 0x461bcd)\n      dup2\n      mstore\n        /* \"#utility.yul\":8880:8882   */\n      0x20\n        /* \"@openzeppelin/contracts/token/ERC721/extensions/ERC721Enumerable.sol\":1407:1494  require(index < ERC721.balanceOf(owner), \"ERC721Enumerable: owner index out of bounds\") */\n      0x04\n      dup3\n      add\n        /* \"#utility.yul\":8862:8883   */\n      mstore\n        /* \"#utility.yul\":8919:8921   */\n      0x2b\n        /* \"#utility.yul\":8899:8917   */\n      0x24\n      dup3\n      add\n        /* \"#utility.yul\":8892:8922   */\n      mstore\n        /* \"#utility.yul\":8958:8992   */\n      0x455243373231456e756d657261626c653a206f776e657220696e646578206f75\n        /* \"#utility.yul\":8938:8956   */\n      0x44\n      dup3\n      add\n        /* \"#utility.yul\":8931:8993   */\n      mstore\n      shl(0xa8, 0x74206f6620626f756e6473)\n        /* \"#utility.yul\":9009:9027   */\n      0x64\n      dup3\n      add\n        /* \"#utility.yul\":9002:9043   */\n      mstore\n        /* \"#utility.yul\":9060:9079   */\n      0x84\n      add\n        /* \"@openzeppelin/contracts/token/ERC721/extensions/ERC721Enumerable.sol\":1407:1494  require(index < ERC721.balanceOf(owner), \"ERC721Enumerable: owner index out of bounds\") */\n      tag_249\n        /* \"#utility.yul\":8678:9085   */\n      jump\n        /* \"@openzeppelin/contracts/token/ERC721/extensions/ERC721Enumerable.sol\":1407:1494  require(index < ERC721.balanceOf(owner), \"ERC721Enumerable: owner index out of bounds\") */\n    tag_273:\n      pop\n      sub(shl(0xa0, 0x01), 0x01)\n        /* \"@openzeppelin/contracts/token/ERC721/extensions/ERC721Enumerable.sol\":1511:1530  _ownedTokens[owner] */\n      swap2\n      swap1\n      swap2\n      and\n      0x00\n      swap1\n      dup2\n      mstore\n        /* \"@openzeppelin/contracts/token/ERC721/extensions/ERC721Enumerable.sol\":1511:1523  _ownedTokens */\n      0x06\n        /* \"@openzeppelin/contracts/token/ERC721/extensions/ERC721Enumerable.sol\":1511:1530  _ownedTokens[owner] */\n      0x20\n      swap1\n      dup2\n      mstore\n      0x40\n      dup1\n      dup4\n      keccak256\n        /* \"@openzeppelin/contracts/token/ERC721/extensions/ERC721Enumerable.sol\":1511:1537  _ownedTokens[owner][index] */\n      swap4\n      dup4\n      mstore\n      swap3\n      swap1\n      mstore\n      keccak256\n      sload\n      swap1\n        /* \"@openzeppelin/contracts/token/ERC721/extensions/ERC721Enumerable.sol\":1291:1544  function tokenOfOwnerByIndex(address owner, uint256 index) public view virtual override returns (uint256) {... */\n      jump\t// out\n        /* \"contracts/WOM_MINT.sol\":2109:2341  function isWhitelisted(address _user) public view returns (bool) {... */\n    tag_105:\n        /* \"contracts/WOM_MINT.sol\":2168:2172  bool */\n      0x00\n      dup1\n        /* \"contracts/WOM_MINT.sol\":2180:2319  for (uint i = 0; i < whitelistedAddresses.length; i++) {... */\n    tag_277:\n        /* \"contracts/WOM_MINT.sol\":2201:2221  whitelistedAddresses */\n      0x11\n        /* \"contracts/WOM_MINT.sol\":2201:2228  whitelistedAddresses.length */\n      sload\n        /* \"contracts/WOM_MINT.sol\":2197:2228  i < whitelistedAddresses.length */\n      dup2\n      lt\n        /* \"contracts/WOM_MINT.sol\":2180:2319  for (uint i = 0; i < whitelistedAddresses.length; i++) {... */\n      iszero\n      tag_278\n      jumpi\n        /* \"contracts/WOM_MINT.sol\":2274:2279  _user */\n      dup3\n      sub(shl(0xa0, 0x01), 0x01)\n        /* \"contracts/WOM_MINT.sol\":2247:2279  whitelistedAddresses[i] == _user */\n      and\n        /* \"contracts/WOM_MINT.sol\":2247:2267  whitelistedAddresses */\n      0x11\n        /* \"contracts/WOM_MINT.sol\":2268:2269  i */\n      dup3\n        /* \"contracts/WOM_MINT.sol\":2247:2270  whitelistedAddresses[i] */\n      dup2\n      sload\n      dup2\n      lt\n      tag_281\n      jumpi\n      tag_281\n      tag_282\n      jump\t// in\n    tag_281:\n      0x00\n      swap2\n      dup3\n      mstore\n      0x20\n      swap1\n      swap2\n      keccak256\n      add\n      sload\n      sub(shl(0xa0, 0x01), 0x01)\n      and\n        /* \"contracts/WOM_MINT.sol\":2247:2279  whitelistedAddresses[i] == _user */\n      eq\n        /* \"contracts/WOM_MINT.sol\":2243:2313  if (whitelistedAddresses[i] == _user) {... */\n      iszero\n      tag_284\n      jumpi\n      pop\n        /* \"contracts/WOM_MINT.sol\":2300:2304  true */\n      0x01\n      swap3\n        /* \"contracts/WOM_MINT.sol\":2109:2341  function isWhitelisted(address _user) public view returns (bool) {... */\n      swap2\n      pop\n      pop\n      jump\t// out\n        /* \"contracts/WOM_MINT.sol\":2243:2313  if (whitelistedAddresses[i] == _user) {... */\n    tag_284:\n        /* \"contracts/WOM_MINT.sol\":2230:2233  i++ */\n      dup1\n      tag_285\n      dup2\n      tag_286\n      jump\t// in\n    tag_285:\n      swap2\n      pop\n      pop\n        /* \"contracts/WOM_MINT.sol\":2180:2319  for (uint i = 0; i < whitelistedAddresses.length; i++) {... */\n      jump(tag_277)\n    tag_278:\n      pop\n        /* \"contracts/WOM_MINT.sol\":2331:2336  false */\n      0x00\n      swap3\n        /* \"contracts/WOM_MINT.sol\":2109:2341  function isWhitelisted(address _user) public view returns (bool) {... */\n      swap2\n      pop\n      pop\n      jump\t// out\n        /* \"contracts/WOM_MINT.sol\":3596:3689  function setOnlyWhitelisted(bool _state) public onlyOwner {... */\n    tag_110:\n        /* \"@openzeppelin/contracts/access/Ownable.sol\":1094:1107  _checkOwner() */\n      tag_288\n        /* \"@openzeppelin/contracts/access/Ownable.sol\":1094:1105  _checkOwner */\n      tag_234\n        /* \"@openzeppelin/contracts/access/Ownable.sol\":1094:1107  _checkOwner() */\n      jump\t// in\n    tag_288:\n        /* \"contracts/WOM_MINT.sol\":3660:3675  onlyWhitelisted */\n      0x10\n        /* \"contracts/WOM_MINT.sol\":3660:3684  onlyWhitelisted = _state */\n      dup1\n      sload\n      swap2\n      iszero\n      iszero\n      0x0100\n      mul\n      not(0xff00)\n      swap1\n      swap3\n      and\n      swap2\n      swap1\n      swap2\n      or\n      swap1\n      sstore\n        /* \"contracts/WOM_MINT.sol\":3596:3689  function setOnlyWhitelisted(bool _state) public onlyOwner {... */\n      jump\t// out\n        /* \"contracts/WOM_MINT.sol\":3841:4292  function withdraw() public payable onlyOwner {... */\n    tag_112:\n        /* \"@openzeppelin/contracts/access/Ownable.sol\":1094:1107  _checkOwner() */\n      tag_291\n        /* \"@openzeppelin/contracts/access/Ownable.sol\":1094:1105  _checkOwner */\n      tag_234\n        /* \"@openzeppelin/contracts/access/Ownable.sol\":1094:1107  _checkOwner() */\n      jump\t// in\n    tag_291:\n        /* \"contracts/WOM_MINT.sol\":4117:4124  bool os */\n      0x00\n        /* \"contracts/WOM_MINT.sol\":4138:4145  owner() */\n      tag_293\n        /* \"@openzeppelin/contracts/access/Ownable.sol\":1273:1279  _owner */\n      and(sub(shl(0xa0, 0x01), 0x01), sload(0x0a))\n      swap1\n        /* \"@openzeppelin/contracts/access/Ownable.sol\":1201:1286  function owner() public view virtual returns (address) {... */\n      jump\n        /* \"contracts/WOM_MINT.sol\":4138:4145  owner() */\n    tag_293:\n      sub(shl(0xa0, 0x01), 0x01)\n        /* \"contracts/WOM_MINT.sol\":4130:4151  payable(owner()).call */\n      and\n        /* \"contracts/WOM_MINT.sol\":4159:4180  address(this).balance */\n      selfbalance\n        /* \"contracts/WOM_MINT.sol\":4130:4185  payable(owner()).call{value: address(this).balance}(\"\") */\n      mload(0x40)\n      0x00\n      mload(0x40)\n      dup1\n      dup4\n      sub\n      dup2\n      dup6\n      dup8\n      gas\n      call\n      swap3\n      pop\n      pop\n      pop\n      returndatasize\n      dup1\n      0x00\n      dup2\n      eq\n      tag_298\n      jumpi\n      mload(0x40)\n      swap2\n      pop\n      and(add(returndatasize, 0x3f), not(0x1f))\n      dup3\n      add\n      0x40\n      mstore\n      returndatasize\n      dup3\n      mstore\n      returndatasize\n      0x00\n      0x20\n      dup5\n      add\n      returndatacopy\n      jump(tag_297)\n    tag_298:\n      0x60\n      swap2\n      pop\n    tag_297:\n      pop\n        /* \"contracts/WOM_MINT.sol\":4116:4185  (bool os, ) = payable(owner()).call{value: address(this).balance}(\"\") */\n      pop\n      swap1\n      pop\n        /* \"contracts/WOM_MINT.sol\":4199:4201  os */\n      dup1\n        /* \"contracts/WOM_MINT.sol\":4191:4202  require(os) */\n      tag_299\n      jumpi\n      0x00\n      dup1\n      revert\n    tag_299:\n        /* \"contracts/WOM_MINT.sol\":3886:4292  {... */\n      pop\n        /* \"contracts/WOM_MINT.sol\":3841:4292  function withdraw() public payable onlyOwner {... */\n      jump\t// out\n        /* \"@openzeppelin/contracts/token/ERC721/ERC721.sol\":5005:5184  function safeTransferFrom(... */\n    tag_116:\n        /* \"@openzeppelin/contracts/token/ERC721/ERC721.sol\":5138:5177  safeTransferFrom(from, to, tokenId, \"\") */\n      tag_259\n        /* \"@openzeppelin/contracts/token/ERC721/ERC721.sol\":5155:5159  from */\n      dup4\n        /* \"@openzeppelin/contracts/token/ERC721/ERC721.sol\":5161:5163  to */\n      dup4\n        /* \"@openzeppelin/contracts/token/ERC721/ERC721.sol\":5165:5172  tokenId */\n      dup4\n        /* \"@openzeppelin/contracts/token/ERC721/ERC721.sol\":5138:5177  safeTransferFrom(from, to, tokenId, \"\") */\n      mload(0x40)\n      dup1\n      0x20\n      add\n      0x40\n      mstore\n      dup1\n      0x00\n      dup2\n      mstore\n      pop\n        /* \"@openzeppelin/contracts/token/ERC721/ERC721.sol\":5138:5154  safeTransferFrom */\n      tag_178\n        /* \"@openzeppelin/contracts/token/ERC721/ERC721.sol\":5138:5177  safeTransferFrom(from, to, tokenId, \"\") */\n      jump\t// in\n        /* \"contracts/WOM_MINT.sol\":2345:2682  function walletOfOwner(address _owner)... */\n    tag_120:\n        /* \"contracts/WOM_MINT.sol\":2417:2433  uint256[] memory */\n      0x60\n        /* \"contracts/WOM_MINT.sol\":2443:2466  uint256 ownerTokenCount */\n      0x00\n        /* \"contracts/WOM_MINT.sol\":2469:2486  balanceOf(_owner) */\n      tag_303\n        /* \"contracts/WOM_MINT.sol\":2479:2485  _owner */\n      dup4\n        /* \"contracts/WOM_MINT.sol\":2469:2478  balanceOf */\n      tag_149\n        /* \"contracts/WOM_MINT.sol\":2469:2486  balanceOf(_owner) */\n      jump\t// in\n    tag_303:\n        /* \"contracts/WOM_MINT.sol\":2443:2486  uint256 ownerTokenCount = balanceOf(_owner) */\n      swap1\n      pop\n        /* \"contracts/WOM_MINT.sol\":2492:2517  uint256[] memory tokenIds */\n      0x00\n        /* \"contracts/WOM_MINT.sol\":2534:2549  ownerTokenCount */\n      dup2\n        /* \"contracts/WOM_MINT.sol\":2520:2550  new uint256[](ownerTokenCount) */\n      0xffffffffffffffff\n      dup2\n      gt\n      iszero\n      tag_305\n      jumpi\n      tag_305\n      tag_306\n      jump\t// in\n    tag_305:\n      mload(0x40)\n      swap1\n      dup1\n      dup3\n      mstore\n      dup1\n      0x20\n      mul\n      0x20\n      add\n      dup3\n      add\n      0x40\n      mstore\n      dup1\n      iszero\n      tag_307\n      jumpi\n      dup2\n      0x20\n      add\n      0x20\n      dup3\n      mul\n      dup1\n      calldatasize\n      dup4\n      calldatacopy\n      add\n      swap1\n      pop\n    tag_307:\n      pop\n        /* \"contracts/WOM_MINT.sol\":2492:2550  uint256[] memory tokenIds = new uint256[](ownerTokenCount) */\n      swap1\n      pop\n        /* \"contracts/WOM_MINT.sol\":2561:2570  uint256 i */\n      0x00\n        /* \"contracts/WOM_MINT.sol\":2556:2657  for (uint256 i; i < ownerTokenCount; i++) {... */\n    tag_308:\n        /* \"contracts/WOM_MINT.sol\":2576:2591  ownerTokenCount */\n      dup3\n        /* \"contracts/WOM_MINT.sol\":2572:2573  i */\n      dup2\n        /* \"contracts/WOM_MINT.sol\":2572:2591  i < ownerTokenCount */\n      lt\n        /* \"contracts/WOM_MINT.sol\":2556:2657  for (uint256 i; i < ownerTokenCount; i++) {... */\n      iszero\n      tag_309\n      jumpi\n        /* \"contracts/WOM_MINT.sol\":2620:2650  tokenOfOwnerByIndex(_owner, i) */\n      tag_311\n        /* \"contracts/WOM_MINT.sol\":2640:2646  _owner */\n      dup6\n        /* \"contracts/WOM_MINT.sol\":2648:2649  i */\n      dup3\n        /* \"contracts/WOM_MINT.sol\":2620:2639  tokenOfOwnerByIndex */\n      tag_100\n        /* \"contracts/WOM_MINT.sol\":2620:2650  tokenOfOwnerByIndex(_owner, i) */\n      jump\t// in\n    tag_311:\n        /* \"contracts/WOM_MINT.sol\":2606:2614  tokenIds */\n      dup3\n        /* \"contracts/WOM_MINT.sol\":2615:2616  i */\n      dup3\n        /* \"contracts/WOM_MINT.sol\":2606:2617  tokenIds[i] */\n      dup2\n      mload\n      dup2\n      lt\n      tag_313\n      jumpi\n      tag_313\n      tag_282\n      jump\t// in\n    tag_313:\n      0x20\n      swap1\n      dup2\n      mul\n      swap2\n      swap1\n      swap2\n      add\n      add\n        /* \"contracts/WOM_MINT.sol\":2606:2650  tokenIds[i] = tokenOfOwnerByIndex(_owner, i) */\n      mstore\n        /* \"contracts/WOM_MINT.sol\":2593:2596  i++ */\n      dup1\n      tag_314\n      dup2\n      tag_286\n      jump\t// in\n    tag_314:\n      swap2\n      pop\n      pop\n        /* \"contracts/WOM_MINT.sol\":2556:2657  for (uint256 i; i < ownerTokenCount; i++) {... */\n      jump(tag_308)\n    tag_309:\n      pop\n        /* \"contracts/WOM_MINT.sol\":2669:2677  tokenIds */\n      swap4\n        /* \"contracts/WOM_MINT.sol\":2345:2682  function walletOfOwner(address _owner)... */\n      swap3\n      pop\n      pop\n      pop\n      jump\t// out\n        /* \"@openzeppelin/contracts/token/ERC721/extensions/ERC721Enumerable.sol\":1798:2028  function tokenByIndex(uint256 index) public view virtual override returns (uint256) {... */\n    tag_126:\n        /* \"@openzeppelin/contracts/token/ERC721/extensions/ERC721Enumerable.sol\":1873:1880  uint256 */\n      0x00\n        /* \"@openzeppelin/contracts/token/ERC721/extensions/ERC721Enumerable.sol\":1908:1938  ERC721Enumerable.totalSupply() */\n      tag_316\n        /* \"@openzeppelin/contracts/token/ERC721/extensions/ERC721Enumerable.sol\":1702:1712  _allTokens */\n      0x08\n        /* \"@openzeppelin/contracts/token/ERC721/extensions/ERC721Enumerable.sol\":1702:1719  _allTokens.length */\n      sload\n      swap1\n        /* \"@openzeppelin/contracts/token/ERC721/extensions/ERC721Enumerable.sol\":1615:1726  function totalSupply() public view virtual override returns (uint256) {... */\n      jump\n        /* \"@openzeppelin/contracts/token/ERC721/extensions/ERC721Enumerable.sol\":1908:1938  ERC721Enumerable.totalSupply() */\n    tag_316:\n        /* \"@openzeppelin/contracts/token/ERC721/extensions/ERC721Enumerable.sol\":1900:1905  index */\n      dup3\n        /* \"@openzeppelin/contracts/token/ERC721/extensions/ERC721Enumerable.sol\":1900:1938  index < ERC721Enumerable.totalSupply() */\n      lt\n        /* \"@openzeppelin/contracts/token/ERC721/extensions/ERC721Enumerable.sol\":1892:1987  require(index < ERC721Enumerable.totalSupply(), \"ERC721Enumerable: global index out of bounds\") */\n      tag_317\n      jumpi\n      mload(0x40)\n      shl(0xe5, 0x461bcd)\n      dup2\n      mstore\n        /* \"#utility.yul\":15838:15840   */\n      0x20\n        /* \"@openzeppelin/contracts/token/ERC721/extensions/ERC721Enumerable.sol\":1892:1987  require(index < ERC721Enumerable.totalSupply(), \"ERC721Enumerable: global index out of bounds\") */\n      0x04\n      dup3\n      add\n        /* \"#utility.yul\":15820:15841   */\n      mstore\n        /* \"#utility.yul\":15877:15879   */\n      0x2c\n        /* \"#utility.yul\":15857:15875   */\n      0x24\n      dup3\n      add\n        /* \"#utility.yul\":15850:15880   */\n      mstore\n        /* \"#utility.yul\":15916:15950   */\n      0x455243373231456e756d657261626c653a20676c6f62616c20696e646578206f\n        /* \"#utility.yul\":15896:15914   */\n      0x44\n      dup3\n      add\n        /* \"#utility.yul\":15889:15951   */\n      mstore\n      shl(0xa0, 0x7574206f6620626f756e6473)\n        /* \"#utility.yul\":15967:15985   */\n      0x64\n      dup3\n      add\n        /* \"#utility.yul\":15960:16002   */\n      mstore\n        /* \"#utility.yul\":16019:16038   */\n      0x84\n      add\n        /* \"@openzeppelin/contracts/token/ERC721/extensions/ERC721Enumerable.sol\":1892:1987  require(index < ERC721Enumerable.totalSupply(), \"ERC721Enumerable: global index out of bounds\") */\n      tag_249\n        /* \"#utility.yul\":15636:16044   */\n      jump\n        /* \"@openzeppelin/contracts/token/ERC721/extensions/ERC721Enumerable.sol\":1892:1987  require(index < ERC721Enumerable.totalSupply(), \"ERC721Enumerable: global index out of bounds\") */\n    tag_317:\n        /* \"@openzeppelin/contracts/token/ERC721/extensions/ERC721Enumerable.sol\":2004:2014  _allTokens */\n      0x08\n        /* \"@openzeppelin/contracts/token/ERC721/extensions/ERC721Enumerable.sol\":2015:2020  index */\n      dup3\n        /* \"@openzeppelin/contracts/token/ERC721/extensions/ERC721Enumerable.sol\":2004:2021  _allTokens[index] */\n      dup2\n      sload\n      dup2\n      lt\n      tag_321\n      jumpi\n      tag_321\n      tag_282\n      jump\t// in\n    tag_321:\n      swap1\n      0x00\n      mstore\n      keccak256(0x00, 0x20)\n      add\n      sload\n        /* \"@openzeppelin/contracts/token/ERC721/extensions/ERC721Enumerable.sol\":1997:2021  return _allTokens[index] */\n      swap1\n      pop\n        /* \"@openzeppelin/contracts/token/ERC721/extensions/ERC721Enumerable.sol\":1798:2028  function tokenByIndex(uint256 index) public view virtual override returns (uint256) {... */\n      swap2\n      swap1\n      pop\n      jump\t// out\n        /* \"contracts/WOM_MINT.sol\":3295:3391  function setBaseURI(string memory _newBaseURI) public onlyOwner {... */\n    tag_132:\n        /* \"@openzeppelin/contracts/access/Ownable.sol\":1094:1107  _checkOwner() */\n      tag_324\n        /* \"@openzeppelin/contracts/access/Ownable.sol\":1094:1105  _checkOwner */\n      tag_234\n        /* \"@openzeppelin/contracts/access/Ownable.sol\":1094:1107  _checkOwner() */\n      jump\t// in\n    tag_324:\n        /* \"contracts/WOM_MINT.sol\":3365:3386  baseURI = _newBaseURI */\n      dup1\n      mload\n      tag_326\n      swap1\n        /* \"contracts/WOM_MINT.sol\":3365:3372  baseURI */\n      0x0b\n      swap1\n        /* \"contracts/WOM_MINT.sol\":3365:3386  baseURI = _newBaseURI */\n      0x20\n      dup5\n      add\n      swap1\n      tag_327\n      jump\t// in\n    tag_326:\n      pop\n        /* \"contracts/WOM_MINT.sol\":3295:3391  function setBaseURI(string memory _newBaseURI) public onlyOwner {... */\n      pop\n      jump\t// out\n        /* \"@openzeppelin/contracts/token/ERC721/ERC721.sol\":2190:2408  function ownerOf(uint256 tokenId) public view virtual override returns (address) {... */\n    tag_140:\n        /* \"@openzeppelin/contracts/token/ERC721/ERC721.sol\":2262:2269  address */\n      0x00\n        /* \"@openzeppelin/contracts/token/ERC721/ERC721.sol\":2297:2313  _owners[tokenId] */\n      dup2\n      dup2\n      mstore\n        /* \"@openzeppelin/contracts/token/ERC721/ERC721.sol\":2297:2304  _owners */\n      0x02\n        /* \"@openzeppelin/contracts/token/ERC721/ERC721.sol\":2297:2313  _owners[tokenId] */\n      0x20\n      mstore\n      0x40\n      dup2\n      keccak256\n      sload\n      sub(shl(0xa0, 0x01), 0x01)\n      and\n        /* \"@openzeppelin/contracts/token/ERC721/ERC721.sol\":2331:2350  owner != address(0) */\n      dup1\n        /* \"@openzeppelin/contracts/token/ERC721/ERC721.sol\":2323:2379  require(owner != address(0), \"ERC721: invalid token ID\") */\n      tag_230\n      jumpi\n      mload(0x40)\n      shl(0xe5, 0x461bcd)\n      dup2\n      mstore\n        /* \"#utility.yul\":15083:15085   */\n      0x20\n        /* \"@openzeppelin/contracts/token/ERC721/ERC721.sol\":2323:2379  require(owner != address(0), \"ERC721: invalid token ID\") */\n      0x04\n      dup3\n      add\n        /* \"#utility.yul\":15065:15086   */\n      mstore\n        /* \"#utility.yul\":15122:15124   */\n      0x18\n        /* \"#utility.yul\":15102:15120   */\n      0x24\n      dup3\n      add\n        /* \"#utility.yul\":15095:15125   */\n      mstore\n      shl(0x42, 0x115490cdcc8c4e881a5b9d985b1a59081d1bdad95b881251)\n        /* \"#utility.yul\":15141:15159   */\n      0x44\n      dup3\n      add\n        /* \"#utility.yul\":15134:15188   */\n      mstore\n        /* \"#utility.yul\":15205:15223   */\n      0x64\n      add\n        /* \"@openzeppelin/contracts/token/ERC721/ERC721.sol\":2323:2379  require(owner != address(0), \"ERC721: invalid token ID\") */\n      tag_249\n        /* \"#utility.yul\":14881:15229   */\n      jump\n        /* \"contracts/WOM_MINT.sol\":279:300  string public baseURI */\n    tag_144:\n      0x0b\n      dup1\n      sload\n      tag_332\n      swap1\n      tag_238\n      jump\t// in\n    tag_332:\n      dup1\n      0x1f\n      add\n      0x20\n      dup1\n      swap2\n      div\n      mul\n      0x20\n      add\n      mload(0x40)\n      swap1\n      dup2\n      add\n      0x40\n      mstore\n      dup1\n      swap3\n      swap2\n      swap1\n      dup2\n      dup2\n      mstore\n      0x20\n      add\n      dup3\n      dup1\n      sload\n      tag_333\n      swap1\n      tag_238\n      jump\t// in\n    tag_333:\n      dup1\n      iszero\n      tag_334\n      jumpi\n      dup1\n      0x1f\n      lt\n      tag_335\n      jumpi\n      0x0100\n      dup1\n      dup4\n      sload\n      div\n      mul\n      dup4\n      mstore\n      swap2\n      0x20\n      add\n      swap2\n      jump(tag_334)\n    tag_335:\n      dup3\n      add\n      swap2\n      swap1\n      0x00\n      mstore\n      keccak256(0x00, 0x20)\n      swap1\n    tag_336:\n      dup2\n      sload\n      dup2\n      mstore\n      swap1\n      0x01\n      add\n      swap1\n      0x20\n      add\n      dup1\n      dup4\n      gt\n      tag_336\n      jumpi\n      dup3\n      swap1\n      sub\n      0x1f\n      and\n      dup3\n      add\n      swap2\n    tag_334:\n      pop\n      pop\n      pop\n      pop\n      pop\n      dup2\n      jump\t// out\n        /* \"@openzeppelin/contracts/token/ERC721/ERC721.sol\":1929:2133  function balanceOf(address owner) public view virtual override returns (uint256) {... */\n    tag_149:\n        /* \"@openzeppelin/contracts/token/ERC721/ERC721.sol\":2001:2008  uint256 */\n      0x00\n      sub(shl(0xa0, 0x01), 0x01)\n        /* \"@openzeppelin/contracts/token/ERC721/ERC721.sol\":2028:2047  owner != address(0) */\n      dup3\n      and\n        /* \"@openzeppelin/contracts/token/ERC721/ERC721.sol\":2020:2093  require(owner != address(0), \"ERC721: address zero is not a valid owner\") */\n      tag_338\n      jumpi\n      mload(0x40)\n      shl(0xe5, 0x461bcd)\n      dup2\n      mstore\n        /* \"#utility.yul\":11997:11999   */\n      0x20\n        /* \"@openzeppelin/contracts/token/ERC721/ERC721.sol\":2020:2093  require(owner != address(0), \"ERC721: address zero is not a valid owner\") */\n      0x04\n      dup3\n      add\n        /* \"#utility.yul\":11979:12000   */\n      mstore\n        /* \"#utility.yul\":12036:12038   */\n      0x29\n        /* \"#utility.yul\":12016:12034   */\n      0x24\n      dup3\n      add\n        /* \"#utility.yul\":12009:12039   */\n      mstore\n        /* \"#utility.yul\":12075:12109   */\n      0x4552433732313a2061646472657373207a65726f206973206e6f742061207661\n        /* \"#utility.yul\":12055:12073   */\n      0x44\n      dup3\n      add\n        /* \"#utility.yul\":12048:12110   */\n      mstore\n      shl(0xb9, 0x3634b21037bbb732b9)\n        /* \"#utility.yul\":12126:12144   */\n      0x64\n      dup3\n      add\n        /* \"#utility.yul\":12119:12158   */\n      mstore\n        /* \"#utility.yul\":12175:12194   */\n      0x84\n      add\n        /* \"@openzeppelin/contracts/token/ERC721/ERC721.sol\":2020:2093  require(owner != address(0), \"ERC721: address zero is not a valid owner\") */\n      tag_249\n        /* \"#utility.yul\":11795:12200   */\n      jump\n        /* \"@openzeppelin/contracts/token/ERC721/ERC721.sol\":2020:2093  require(owner != address(0), \"ERC721: address zero is not a valid owner\") */\n    tag_338:\n      pop\n      sub(shl(0xa0, 0x01), 0x01)\n        /* \"@openzeppelin/contracts/token/ERC721/ERC721.sol\":2110:2126  _balances[owner] */\n      and\n      0x00\n      swap1\n      dup2\n      mstore\n        /* \"@openzeppelin/contracts/token/ERC721/ERC721.sol\":2110:2119  _balances */\n      0x03\n        /* \"@openzeppelin/contracts/token/ERC721/ERC721.sol\":2110:2126  _balances[owner] */\n      0x20\n      mstore\n      0x40\n      swap1\n      keccak256\n      sload\n      swap1\n        /* \"@openzeppelin/contracts/token/ERC721/ERC721.sol\":1929:2133  function balanceOf(address owner) public view virtual override returns (uint256) {... */\n      jump\t// out\n        /* \"@openzeppelin/contracts/access/Ownable.sol\":1831:1932  function renounceOwnership() public virtual onlyOwner {... */\n    tag_153:\n        /* \"@openzeppelin/contracts/access/Ownable.sol\":1094:1107  _checkOwner() */\n      tag_342\n        /* \"@openzeppelin/contracts/access/Ownable.sol\":1094:1105  _checkOwner */\n      tag_234\n        /* \"@openzeppelin/contracts/access/Ownable.sol\":1094:1107  _checkOwner() */\n      jump\t// in\n    tag_342:\n        /* \"@openzeppelin/contracts/access/Ownable.sol\":1895:1925  _transferOwnership(address(0)) */\n      tag_344\n        /* \"@openzeppelin/contracts/access/Ownable.sol\":1922:1923  0 */\n      0x00\n        /* \"@openzeppelin/contracts/access/Ownable.sol\":1895:1913  _transferOwnership */\n      tag_345\n        /* \"@openzeppelin/contracts/access/Ownable.sol\":1895:1925  _transferOwnership(address(0)) */\n      jump\t// in\n    tag_344:\n        /* \"@openzeppelin/contracts/access/Ownable.sol\":1831:1932  function renounceOwnership() public virtual onlyOwner {... */\n      jump\t// out\n        /* \"@openzeppelin/contracts/token/ERC721/ERC721.sol\":2632:2734  function symbol() public view virtual override returns (string memory) {... */\n    tag_160:\n        /* \"@openzeppelin/contracts/token/ERC721/ERC721.sol\":2688:2701  string memory */\n      0x60\n        /* \"@openzeppelin/contracts/token/ERC721/ERC721.sol\":2720:2727  _symbol */\n      0x01\n        /* \"@openzeppelin/contracts/token/ERC721/ERC721.sol\":2713:2727  return _symbol */\n      dup1\n      sload\n      tag_237\n      swap1\n      tag_238\n      jump\t// in\n        /* \"contracts/WOM_MINT.sol\":991:1896  function mint(uint256 _mintAmount) public payable {... */\n    tag_168:\n        /* \"contracts/WOM_MINT.sol\":1056:1062  paused */\n      and(0xff, sload(0x10))\n        /* \"contracts/WOM_MINT.sol\":1055:1062  !paused */\n      iszero\n        /* \"contracts/WOM_MINT.sol\":1047:1089  require(!paused, \"the contract is paused\") */\n      tag_354\n      jumpi\n      mload(0x40)\n      shl(0xe5, 0x461bcd)\n      dup2\n      mstore\n        /* \"#utility.yul\":14316:14318   */\n      0x20\n        /* \"contracts/WOM_MINT.sol\":1047:1089  require(!paused, \"the contract is paused\") */\n      0x04\n      dup3\n      add\n        /* \"#utility.yul\":14298:14319   */\n      mstore\n        /* \"#utility.yul\":14355:14357   */\n      0x16\n        /* \"#utility.yul\":14335:14353   */\n      0x24\n      dup3\n      add\n        /* \"#utility.yul\":14328:14358   */\n      mstore\n      shl(0x52, 0x1d1a194818dbdb9d1c9858dd081a5cc81c185d5cd959)\n        /* \"#utility.yul\":14374:14392   */\n      0x44\n      dup3\n      add\n        /* \"#utility.yul\":14367:14419   */\n      mstore\n        /* \"#utility.yul\":14436:14454   */\n      0x64\n      add\n        /* \"contracts/WOM_MINT.sol\":1047:1089  require(!paused, \"the contract is paused\") */\n      tag_249\n        /* \"#utility.yul\":14114:14460   */\n      jump\n        /* \"contracts/WOM_MINT.sol\":1047:1089  require(!paused, \"the contract is paused\") */\n    tag_354:\n        /* \"contracts/WOM_MINT.sol\":1095:1109  uint256 supply */\n      0x00\n        /* \"contracts/WOM_MINT.sol\":1112:1125  totalSupply() */\n      tag_357\n        /* \"@openzeppelin/contracts/token/ERC721/extensions/ERC721Enumerable.sol\":1702:1712  _allTokens */\n      0x08\n        /* \"@openzeppelin/contracts/token/ERC721/extensions/ERC721Enumerable.sol\":1702:1719  _allTokens.length */\n      sload\n      swap1\n        /* \"@openzeppelin/contracts/token/ERC721/extensions/ERC721Enumerable.sol\":1615:1726  function totalSupply() public view virtual override returns (uint256) {... */\n      jump\n        /* \"contracts/WOM_MINT.sol\":1112:1125  totalSupply() */\n    tag_357:\n        /* \"contracts/WOM_MINT.sol\":1095:1125  uint256 supply = totalSupply() */\n      swap1\n      pop\n        /* \"contracts/WOM_MINT.sol\":1153:1154  0 */\n      0x00\n        /* \"contracts/WOM_MINT.sol\":1139:1150  _mintAmount */\n      dup3\n        /* \"contracts/WOM_MINT.sol\":1139:1154  _mintAmount > 0 */\n      gt\n        /* \"contracts/WOM_MINT.sol\":1131:1186  require(_mintAmount > 0, \"need to mint at least 1 NFT\") */\n      tag_358\n      jumpi\n      mload(0x40)\n      shl(0xe5, 0x461bcd)\n      dup2\n      mstore\n        /* \"#utility.yul\":17018:17020   */\n      0x20\n        /* \"contracts/WOM_MINT.sol\":1131:1186  require(_mintAmount > 0, \"need to mint at least 1 NFT\") */\n      0x04\n      dup3\n      add\n        /* \"#utility.yul\":17000:17021   */\n      mstore\n        /* \"#utility.yul\":17057:17059   */\n      0x1b\n        /* \"#utility.yul\":17037:17055   */\n      0x24\n      dup3\n      add\n        /* \"#utility.yul\":17030:17060   */\n      mstore\n        /* \"#utility.yul\":17096:17125   */\n      0x6e65656420746f206d696e74206174206c656173742031204e46540000000000\n        /* \"#utility.yul\":17076:17094   */\n      0x44\n      dup3\n      add\n        /* \"#utility.yul\":17069:17126   */\n      mstore\n        /* \"#utility.yul\":17143:17161   */\n      0x64\n      add\n        /* \"contracts/WOM_MINT.sol\":1131:1186  require(_mintAmount > 0, \"need to mint at least 1 NFT\") */\n      tag_249\n        /* \"#utility.yul\":16816:17167   */\n      jump\n        /* \"contracts/WOM_MINT.sol\":1131:1186  require(_mintAmount > 0, \"need to mint at least 1 NFT\") */\n    tag_358:\n        /* \"contracts/WOM_MINT.sol\":1224:1233  maxSupply */\n      sload(0x0d)\n        /* \"contracts/WOM_MINT.sol\":1200:1220  supply + _mintAmount */\n      tag_361\n        /* \"contracts/WOM_MINT.sol\":1209:1220  _mintAmount */\n      dup4\n        /* \"contracts/WOM_MINT.sol\":1200:1206  supply */\n      dup4\n        /* \"contracts/WOM_MINT.sol\":1200:1220  supply + _mintAmount */\n      tag_362\n      jump\t// in\n    tag_361:\n        /* \"contracts/WOM_MINT.sol\":1200:1233  supply + _mintAmount <= maxSupply */\n      gt\n      iszero\n        /* \"contracts/WOM_MINT.sol\":1192:1260  require(supply + _mintAmount <= maxSupply, \"max NFT limit exceeded\") */\n      tag_363\n      jumpi\n      mload(0x40)\n      shl(0xe5, 0x461bcd)\n      dup2\n      mstore\n        /* \"#utility.yul\":12407:12409   */\n      0x20\n        /* \"contracts/WOM_MINT.sol\":1192:1260  require(supply + _mintAmount <= maxSupply, \"max NFT limit exceeded\") */\n      0x04\n      dup3\n      add\n        /* \"#utility.yul\":12389:12410   */\n      mstore\n        /* \"#utility.yul\":12446:12448   */\n      0x16\n        /* \"#utility.yul\":12426:12444   */\n      0x24\n      dup3\n      add\n        /* \"#utility.yul\":12419:12449   */\n      mstore\n      shl(0x52, 0x1b585e08139195081b1a5b5a5d08195e18d959591959)\n        /* \"#utility.yul\":12465:12483   */\n      0x44\n      dup3\n      add\n        /* \"#utility.yul\":12458:12510   */\n      mstore\n        /* \"#utility.yul\":12527:12545   */\n      0x64\n      add\n        /* \"contracts/WOM_MINT.sol\":1192:1260  require(supply + _mintAmount <= maxSupply, \"max NFT limit exceeded\") */\n      tag_249\n        /* \"#utility.yul\":12205:12551   */\n      jump\n        /* \"contracts/WOM_MINT.sol\":1192:1260  require(supply + _mintAmount <= maxSupply, \"max NFT limit exceeded\") */\n    tag_363:\n        /* \"@openzeppelin/contracts/access/Ownable.sol\":1273:1279  _owner */\n      and(sub(shl(0xa0, 0x01), 0x01), sload(0x0a))\n        /* \"contracts/WOM_MINT.sol\":1271:1281  msg.sender */\n      caller\n        /* \"contracts/WOM_MINT.sol\":1271:1292  msg.sender != owner() */\n      eq\n        /* \"contracts/WOM_MINT.sol\":1267:1753  if (msg.sender != owner()) {... */\n      tag_371\n      jumpi\n        /* \"contracts/WOM_MINT.sol\":1325:1338  maxMintAmount */\n      sload(0x0e)\n        /* \"contracts/WOM_MINT.sol\":1310:1321  _mintAmount */\n      dup3\n        /* \"contracts/WOM_MINT.sol\":1310:1338  _mintAmount <= maxMintAmount */\n      gt\n      iszero\n        /* \"contracts/WOM_MINT.sol\":1302:1379  require(_mintAmount <= maxMintAmount, \"max mint amount per session exceeded\") */\n      tag_368\n      jumpi\n      mload(0x40)\n      shl(0xe5, 0x461bcd)\n      dup2\n      mstore\n        /* \"#utility.yul\":12758:12760   */\n      0x20\n        /* \"contracts/WOM_MINT.sol\":1302:1379  require(_mintAmount <= maxMintAmount, \"max mint amount per session exceeded\") */\n      0x04\n      dup3\n      add\n        /* \"#utility.yul\":12740:12761   */\n      mstore\n        /* \"#utility.yul\":12797:12799   */\n      0x24\n        /* \"#utility.yul\":12777:12795   */\n      dup1\n      dup3\n      add\n        /* \"#utility.yul\":12770:12800   */\n      mstore\n        /* \"#utility.yul\":12836:12870   */\n      0x6d6178206d696e7420616d6f756e74207065722073657373696f6e2065786365\n        /* \"#utility.yul\":12816:12834   */\n      0x44\n      dup3\n      add\n        /* \"#utility.yul\":12809:12871   */\n      mstore\n      shl(0xe2, 0x19591959)\n        /* \"#utility.yul\":12887:12905   */\n      0x64\n      dup3\n      add\n        /* \"#utility.yul\":12880:12914   */\n      mstore\n        /* \"#utility.yul\":12931:12950   */\n      0x84\n      add\n        /* \"contracts/WOM_MINT.sol\":1302:1379  require(_mintAmount <= maxMintAmount, \"max mint amount per session exceeded\") */\n      tag_249\n        /* \"#utility.yul\":12556:12956   */\n      jump\n        /* \"contracts/WOM_MINT.sol\":1302:1379  require(_mintAmount <= maxMintAmount, \"max mint amount per session exceeded\") */\n    tag_368:\n        /* \"contracts/WOM_MINT.sol\":1391:1406  onlyWhitelisted */\n      sload(0x10)\n      0xff\n      0x0100\n      swap1\n      swap2\n      div\n      and\n        /* \"contracts/WOM_MINT.sol\":1391:1414  onlyWhitelisted == true */\n      iszero\n      iszero\n        /* \"contracts/WOM_MINT.sol\":1391:1406  onlyWhitelisted */\n      0x01\n        /* \"contracts/WOM_MINT.sol\":1391:1414  onlyWhitelisted == true */\n      eq\n        /* \"contracts/WOM_MINT.sol\":1388:1674  if(onlyWhitelisted == true) {... */\n      iszero\n      tag_371\n      jumpi\n        /* \"contracts/WOM_MINT.sol\":1436:1461  isWhitelisted(msg.sender) */\n      tag_372\n        /* \"contracts/WOM_MINT.sol\":1450:1460  msg.sender */\n      caller\n        /* \"contracts/WOM_MINT.sol\":1436:1449  isWhitelisted */\n      tag_105\n        /* \"contracts/WOM_MINT.sol\":1436:1461  isWhitelisted(msg.sender) */\n      jump\t// in\n    tag_372:\n        /* \"contracts/WOM_MINT.sol\":1428:1489  require(isWhitelisted(msg.sender), \"user is not whitelisted\") */\n      tag_373\n      jumpi\n      mload(0x40)\n      shl(0xe5, 0x461bcd)\n      dup2\n      mstore\n        /* \"#utility.yul\":16251:16253   */\n      0x20\n        /* \"contracts/WOM_MINT.sol\":1428:1489  require(isWhitelisted(msg.sender), \"user is not whitelisted\") */\n      0x04\n      dup3\n      add\n        /* \"#utility.yul\":16233:16254   */\n      mstore\n        /* \"#utility.yul\":16290:16292   */\n      0x17\n        /* \"#utility.yul\":16270:16288   */\n      0x24\n      dup3\n      add\n        /* \"#utility.yul\":16263:16293   */\n      mstore\n        /* \"#utility.yul\":16329:16354   */\n      0x75736572206973206e6f742077686974656c6973746564000000000000000000\n        /* \"#utility.yul\":16309:16327   */\n      0x44\n      dup3\n      add\n        /* \"#utility.yul\":16302:16355   */\n      mstore\n        /* \"#utility.yul\":16372:16390   */\n      0x64\n      add\n        /* \"contracts/WOM_MINT.sol\":1428:1489  require(isWhitelisted(msg.sender), \"user is not whitelisted\") */\n      tag_249\n        /* \"#utility.yul\":16049:16396   */\n      jump\n        /* \"contracts/WOM_MINT.sol\":1428:1489  require(isWhitelisted(msg.sender), \"user is not whitelisted\") */\n    tag_373:\n        /* \"contracts/WOM_MINT.sol\":1549:1559  msg.sender */\n      caller\n        /* \"contracts/WOM_MINT.sol\":1501:1525  uint256 ownerMintedCount */\n      0x00\n        /* \"contracts/WOM_MINT.sol\":1528:1560  addressMintedBalance[msg.sender] */\n      swap1\n      dup2\n      mstore\n        /* \"contracts/WOM_MINT.sol\":1528:1548  addressMintedBalance */\n      0x12\n        /* \"contracts/WOM_MINT.sol\":1528:1560  addressMintedBalance[msg.sender] */\n      0x20\n      mstore\n      0x40\n      swap1\n      keccak256\n      sload\n        /* \"contracts/WOM_MINT.sol\":1614:1632  nftPerAddressLimit */\n      sload(0x0f)\n        /* \"contracts/WOM_MINT.sol\":1580:1610  ownerMintedCount + _mintAmount */\n      tag_376\n        /* \"contracts/WOM_MINT.sol\":1599:1610  _mintAmount */\n      dup5\n        /* \"contracts/WOM_MINT.sol\":1528:1560  addressMintedBalance[msg.sender] */\n      dup4\n        /* \"contracts/WOM_MINT.sol\":1580:1610  ownerMintedCount + _mintAmount */\n      tag_362\n      jump\t// in\n    tag_376:\n        /* \"contracts/WOM_MINT.sol\":1580:1632  ownerMintedCount + _mintAmount <= nftPerAddressLimit */\n      gt\n      iszero\n        /* \"contracts/WOM_MINT.sol\":1572:1665  require(ownerMintedCount + _mintAmount <= nftPerAddressLimit, \"max NFT per address exceeded\") */\n      tag_377\n      jumpi\n      mload(0x40)\n      shl(0xe5, 0x461bcd)\n      dup2\n      mstore\n        /* \"#utility.yul\":10881:10883   */\n      0x20\n        /* \"contracts/WOM_MINT.sol\":1572:1665  require(ownerMintedCount + _mintAmount <= nftPerAddressLimit, \"max NFT per address exceeded\") */\n      0x04\n      dup3\n      add\n        /* \"#utility.yul\":10863:10884   */\n      mstore\n        /* \"#utility.yul\":10920:10922   */\n      0x1c\n        /* \"#utility.yul\":10900:10918   */\n      0x24\n      dup3\n      add\n        /* \"#utility.yul\":10893:10923   */\n      mstore\n        /* \"#utility.yul\":10959:10989   */\n      0x6d6178204e465420706572206164647265737320657863656564656400000000\n        /* \"#utility.yul\":10939:10957   */\n      0x44\n      dup3\n      add\n        /* \"#utility.yul\":10932:10990   */\n      mstore\n        /* \"#utility.yul\":11007:11025   */\n      0x64\n      add\n        /* \"contracts/WOM_MINT.sol\":1572:1665  require(ownerMintedCount + _mintAmount <= nftPerAddressLimit, \"max NFT per address exceeded\") */\n      tag_249\n        /* \"#utility.yul\":10679:11031   */\n      jump\n        /* \"contracts/WOM_MINT.sol\":1572:1665  require(ownerMintedCount + _mintAmount <= nftPerAddressLimit, \"max NFT per address exceeded\") */\n    tag_377:\n        /* \"contracts/WOM_MINT.sol\":1416:1674  {... */\n      pop\n        /* \"contracts/WOM_MINT.sol\":1388:1674  if(onlyWhitelisted == true) {... */\n    tag_371:\n        /* \"contracts/WOM_MINT.sol\":1776:1777  1 */\n      0x01\n        /* \"contracts/WOM_MINT.sol\":1759:1892  for (uint256 i = 1; i <= _mintAmount; i++) {... */\n    tag_380:\n        /* \"contracts/WOM_MINT.sol\":1784:1795  _mintAmount */\n      dup3\n        /* \"contracts/WOM_MINT.sol\":1779:1780  i */\n      dup2\n        /* \"contracts/WOM_MINT.sol\":1779:1795  i <= _mintAmount */\n      gt\n        /* \"contracts/WOM_MINT.sol\":1759:1892  for (uint256 i = 1; i <= _mintAmount; i++) {... */\n      tag_259\n      jumpi\n        /* \"contracts/WOM_MINT.sol\":1831:1841  msg.sender */\n      caller\n        /* \"contracts/WOM_MINT.sol\":1810:1842  addressMintedBalance[msg.sender] */\n      0x00\n      swap1\n      dup2\n      mstore\n        /* \"contracts/WOM_MINT.sol\":1810:1830  addressMintedBalance */\n      0x12\n        /* \"contracts/WOM_MINT.sol\":1810:1842  addressMintedBalance[msg.sender] */\n      0x20\n      mstore\n      0x40\n      dup2\n      keccak256\n        /* \"contracts/WOM_MINT.sol\":1810:1844  addressMintedBalance[msg.sender]++ */\n      dup1\n      sload\n      swap2\n      tag_383\n      dup4\n      tag_286\n      jump\t// in\n    tag_383:\n      swap1\n      swap2\n      sstore\n      pop\n        /* \"contracts/WOM_MINT.sol\":1852:1885  _safeMint(msg.sender, supply + i) */\n      tag_384\n      swap1\n      pop\n        /* \"contracts/WOM_MINT.sol\":1862:1872  msg.sender */\n      caller\n        /* \"contracts/WOM_MINT.sol\":1874:1884  supply + i */\n      tag_385\n        /* \"contracts/WOM_MINT.sol\":1883:1884  i */\n      dup4\n        /* \"contracts/WOM_MINT.sol\":1874:1880  supply */\n      dup6\n        /* \"contracts/WOM_MINT.sol\":1874:1884  supply + i */\n      tag_362\n      jump\t// in\n    tag_385:\n        /* \"contracts/WOM_MINT.sol\":1852:1861  _safeMint */\n      tag_386\n        /* \"contracts/WOM_MINT.sol\":1852:1885  _safeMint(msg.sender, supply + i) */\n      jump\t// in\n    tag_384:\n        /* \"contracts/WOM_MINT.sol\":1797:1800  i++ */\n      dup1\n      tag_387\n      dup2\n      tag_286\n      jump\t// in\n    tag_387:\n      swap2\n      pop\n      pop\n        /* \"contracts/WOM_MINT.sol\":1759:1892  for (uint256 i = 1; i <= _mintAmount; i++) {... */\n      jump(tag_380)\n        /* \"@openzeppelin/contracts/token/ERC721/ERC721.sol\":4169:4322  function setApprovalForAll(address operator, bool approved) public virtual override {... */\n    tag_173:\n        /* \"@openzeppelin/contracts/token/ERC721/ERC721.sol\":4263:4315  _setApprovalForAll(_msgSender(), operator, approved) */\n      tag_326\n        /* \"@openzeppelin/contracts/utils/Context.sol\":719:729  msg.sender */\n      caller\n        /* \"@openzeppelin/contracts/token/ERC721/ERC721.sol\":4296:4304  operator */\n      dup4\n        /* \"@openzeppelin/contracts/token/ERC721/ERC721.sol\":4306:4314  approved */\n      dup4\n        /* \"@openzeppelin/contracts/token/ERC721/ERC721.sol\":4263:4281  _setApprovalForAll */\n      tag_391\n        /* \"@openzeppelin/contracts/token/ERC721/ERC721.sol\":4263:4315  _setApprovalForAll(_msgSender(), operator, approved) */\n      jump\t// in\n        /* \"@openzeppelin/contracts/token/ERC721/ERC721.sol\":5250:5565  function safeTransferFrom(... */\n    tag_178:\n        /* \"@openzeppelin/contracts/token/ERC721/ERC721.sol\":5418:5459  _isApprovedOrOwner(_msgSender(), tokenId) */\n      tag_393\n        /* \"@openzeppelin/contracts/utils/Context.sol\":719:729  msg.sender */\n      caller\n        /* \"@openzeppelin/contracts/token/ERC721/ERC721.sol\":5451:5458  tokenId */\n      dup4\n        /* \"@openzeppelin/contracts/token/ERC721/ERC721.sol\":5418:5436  _isApprovedOrOwner */\n      tag_265\n        /* \"@openzeppelin/contracts/token/ERC721/ERC721.sol\":5418:5459  _isApprovedOrOwner(_msgSender(), tokenId) */\n      jump\t// in\n    tag_393:\n        /* \"@openzeppelin/contracts/token/ERC721/ERC721.sol\":5410:5510  require(_isApprovedOrOwner(_msgSender(), tokenId), \"ERC721: caller is not token owner nor approved\") */\n      tag_395\n      jumpi\n      mload(0x40)\n      shl(0xe5, 0x461bcd)\n      dup2\n      mstore\n      0x04\n      add\n      tag_249\n      swap1\n      tag_268\n      jump\t// in\n    tag_395:\n        /* \"@openzeppelin/contracts/token/ERC721/ERC721.sol\":5520:5558  _safeTransfer(from, to, tokenId, data) */\n      tag_397\n        /* \"@openzeppelin/contracts/token/ERC721/ERC721.sol\":5534:5538  from */\n      dup5\n        /* \"@openzeppelin/contracts/token/ERC721/ERC721.sol\":5540:5542  to */\n      dup5\n        /* \"@openzeppelin/contracts/token/ERC721/ERC721.sol\":5544:5551  tokenId */\n      dup5\n        /* \"@openzeppelin/contracts/token/ERC721/ERC721.sol\":5553:5557  data */\n      dup5\n        /* \"@openzeppelin/contracts/token/ERC721/ERC721.sol\":5520:5533  _safeTransfer */\n      tag_398\n        /* \"@openzeppelin/contracts/token/ERC721/ERC721.sol\":5520:5558  _safeTransfer(from, to, tokenId, data) */\n      jump\t// in\n    tag_397:\n        /* \"@openzeppelin/contracts/token/ERC721/ERC721.sol\":5250:5565  function safeTransferFrom(... */\n      pop\n      pop\n      pop\n      pop\n      jump\t// out\n        /* \"contracts/WOM_MINT.sol\":598:635  address[] public whitelistedAddresses */\n    tag_182:\n      0x11\n      dup2\n      dup2\n      sload\n      dup2\n      lt\n      tag_399\n      jumpi\n      0x00\n      dup1\n      revert\n    tag_399:\n      0x00\n      swap2\n      dup3\n      mstore\n      0x20\n      swap1\n      swap2\n      keccak256\n      add\n      sload\n      sub(shl(0xa0, 0x01), 0x01)\n      and\n      swap1\n      pop\n      dup2\n      jump\t// out\n        /* \"contracts/WOM_MINT.sol\":304:341  string public baseExtension = \".json\" */\n    tag_190:\n      0x0c\n      dup1\n      sload\n      tag_332\n      swap1\n      tag_238\n      jump\t// in\n        /* \"contracts/WOM_MINT.sol\":2686:3089  function tokenURI(uint256 tokenId)... */\n    tag_195:\n        /* \"@openzeppelin/contracts/token/ERC721/ERC721.sol\":7099:7103  bool */\n      0x00\n        /* \"@openzeppelin/contracts/token/ERC721/ERC721.sol\":7122:7138  _owners[tokenId] */\n      dup2\n      dup2\n      mstore\n        /* \"@openzeppelin/contracts/token/ERC721/ERC721.sol\":7122:7129  _owners */\n      0x02\n        /* \"@openzeppelin/contracts/token/ERC721/ERC721.sol\":7122:7138  _owners[tokenId] */\n      0x20\n      mstore\n      0x40\n      swap1\n      keccak256\n      sload\n        /* \"contracts/WOM_MINT.sol\":2779:2792  string memory */\n      0x60\n      swap1\n      sub(shl(0xa0, 0x01), 0x01)\n        /* \"@openzeppelin/contracts/token/ERC721/ERC721.sol\":7122:7138  _owners[tokenId] */\n      and\n        /* \"contracts/WOM_MINT.sol\":2802:2896  require(... */\n      tag_409\n      jumpi\n      mload(0x40)\n      shl(0xe5, 0x461bcd)\n      dup2\n      mstore\n        /* \"#utility.yul\":14667:14669   */\n      0x20\n        /* \"contracts/WOM_MINT.sol\":2802:2896  require(... */\n      0x04\n      dup3\n      add\n        /* \"#utility.yul\":14649:14670   */\n      mstore\n        /* \"#utility.yul\":14706:14708   */\n      0x2f\n        /* \"#utility.yul\":14686:14704   */\n      0x24\n      dup3\n      add\n        /* \"#utility.yul\":14679:14709   */\n      mstore\n        /* \"#utility.yul\":14745:14779   */\n      0x4552433732314d657461646174613a2055524920717565727920666f72206e6f\n        /* \"#utility.yul\":14725:14743   */\n      0x44\n      dup3\n      add\n        /* \"#utility.yul\":14718:14780   */\n      mstore\n      shl(0x89, 0x3732bc34b9ba32b73a103a37b5b2b7)\n        /* \"#utility.yul\":14796:14814   */\n      0x64\n      dup3\n      add\n        /* \"#utility.yul\":14789:14834   */\n      mstore\n        /* \"#utility.yul\":14851:14870   */\n      0x84\n      add\n        /* \"contracts/WOM_MINT.sol\":2802:2896  require(... */\n      tag_249\n        /* \"#utility.yul\":14465:14876   */\n      jump\n        /* \"contracts/WOM_MINT.sol\":2802:2896  require(... */\n    tag_409:\n        /* \"contracts/WOM_MINT.sol\":2903:2931  string memory currentBaseURI */\n      0x00\n        /* \"contracts/WOM_MINT.sol\":2934:2944  _baseURI() */\n      tag_412\n        /* \"contracts/WOM_MINT.sol\":2934:2942  _baseURI */\n      tag_413\n        /* \"contracts/WOM_MINT.sol\":2934:2944  _baseURI() */\n      jump\t// in\n    tag_412:\n        /* \"contracts/WOM_MINT.sol\":2903:2944  string memory currentBaseURI = _baseURI() */\n      swap1\n      pop\n        /* \"contracts/WOM_MINT.sol\":2988:2989  0 */\n      0x00\n        /* \"contracts/WOM_MINT.sol\":2963:2977  currentBaseURI */\n      dup2\n        /* \"contracts/WOM_MINT.sol\":2957:2985  bytes(currentBaseURI).length */\n      mload\n        /* \"contracts/WOM_MINT.sol\":2957:2989  bytes(currentBaseURI).length > 0 */\n      gt\n        /* \"contracts/WOM_MINT.sol\":2957:3084  bytes(currentBaseURI).length > 0... */\n      tag_414\n      jumpi\n      mload(0x40)\n      dup1\n      0x20\n      add\n      0x40\n      mstore\n      dup1\n      0x00\n      dup2\n      mstore\n      pop\n      jump(tag_415)\n    tag_414:\n        /* \"contracts/WOM_MINT.sol\":3022:3036  currentBaseURI */\n      dup1\n        /* \"contracts/WOM_MINT.sol\":3038:3056  tokenId.toString() */\n      tag_416\n        /* \"contracts/WOM_MINT.sol\":3038:3045  tokenId */\n      dup5\n        /* \"contracts/WOM_MINT.sol\":3038:3054  tokenId.toString */\n      tag_417\n        /* \"contracts/WOM_MINT.sol\":3038:3056  tokenId.toString() */\n      jump\t// in\n    tag_416:\n        /* \"contracts/WOM_MINT.sol\":3058:3071  baseExtension */\n      0x0c\n        /* \"contracts/WOM_MINT.sol\":3005:3072  abi.encodePacked(currentBaseURI, tokenId.toString(), baseExtension) */\n      add(0x20, mload(0x40))\n      tag_418\n      swap4\n      swap3\n      swap2\n      swap1\n      tag_419\n      jump\t// in\n    tag_418:\n      mload(0x40)\n      0x20\n      dup2\n      dup4\n      sub\n      sub\n      dup2\n      mstore\n      swap1\n      0x40\n      mstore\n        /* \"contracts/WOM_MINT.sol\":2957:3084  bytes(currentBaseURI).length > 0... */\n    tag_415:\n        /* \"contracts/WOM_MINT.sol\":2950:3084  return bytes(currentBaseURI).length > 0... */\n      swap4\n        /* \"contracts/WOM_MINT.sol\":2686:3089  function tokenURI(uint256 tokenId)... */\n      swap3\n      pop\n      pop\n      pop\n      jump\t// out\n        /* \"contracts/WOM_MINT.sol\":3095:3197  function setNftPerAddressLimit(uint256 _limit) public onlyOwner {... */\n    tag_200:\n        /* \"@openzeppelin/contracts/access/Ownable.sol\":1094:1107  _checkOwner() */\n      tag_421\n        /* \"@openzeppelin/contracts/access/Ownable.sol\":1094:1105  _checkOwner */\n      tag_234\n        /* \"@openzeppelin/contracts/access/Ownable.sol\":1094:1107  _checkOwner() */\n      jump\t// in\n    tag_421:\n        /* \"contracts/WOM_MINT.sol\":3165:3183  nftPerAddressLimit */\n      0x0f\n        /* \"contracts/WOM_MINT.sol\":3165:3192  nftPerAddressLimit = _limit */\n      sstore\n        /* \"contracts/WOM_MINT.sol\":3095:3197  function setNftPerAddressLimit(uint256 _limit) public onlyOwner {... */\n      jump\t// out\n        /* \"contracts/WOM_MINT.sol\":3395:3515  function setBaseExtension(string memory _newBaseExtension) public onlyOwner {... */\n    tag_208:\n        /* \"@openzeppelin/contracts/access/Ownable.sol\":1094:1107  _checkOwner() */\n      tag_424\n        /* \"@openzeppelin/contracts/access/Ownable.sol\":1094:1105  _checkOwner */\n      tag_234\n        /* \"@openzeppelin/contracts/access/Ownable.sol\":1094:1107  _checkOwner() */\n      jump\t// in\n    tag_424:\n        /* \"contracts/WOM_MINT.sol\":3477:3510  baseExtension = _newBaseExtension */\n      dup1\n      mload\n      tag_326\n      swap1\n        /* \"contracts/WOM_MINT.sol\":3477:3490  baseExtension */\n      0x0c\n      swap1\n        /* \"contracts/WOM_MINT.sol\":3477:3510  baseExtension = _newBaseExtension */\n      0x20\n      dup5\n      add\n      swap1\n      tag_327\n      jump\t// in\n        /* \"contracts/WOM_MINT.sol\":1900:2103  function contractURI() public pure returns (string memory) {... */\n    tag_211:\n        /* \"contracts/WOM_MINT.sol\":1944:1957  string memory */\n      0x60\n        /* \"contracts/WOM_MINT.sol\":2000:2098  return \"https://bafkreickzcdxcbygczoczyrkzzii5hddgwd4k2vk5wgamm3pk325k7thny.ipfs.nftstorage.link/\" */\n      mload(0x40)\n      dup1\n      0x80\n      add\n      0x40\n      mstore\n      dup1\n      0x59\n      dup2\n      mstore\n      0x20\n      add\n      data_ca685d29ce80846512f986ff5a606b918a89362087363696372b9980fd8dc3fa\n      0x59\n      swap2\n      codecopy\n      swap1\n      pop\n        /* \"contracts/WOM_MINT.sol\":1900:2103  function contractURI() public pure returns (string memory) {... */\n      swap1\n      jump\t// out\n        /* \"contracts/WOM_MINT.sol\":3695:3836  function whitelistUsers(address[] calldata _users) public onlyOwner {... */\n    tag_223:\n        /* \"@openzeppelin/contracts/access/Ownable.sol\":1094:1107  _checkOwner() */\n      tag_430\n        /* \"@openzeppelin/contracts/access/Ownable.sol\":1094:1105  _checkOwner */\n      tag_234\n        /* \"@openzeppelin/contracts/access/Ownable.sol\":1094:1107  _checkOwner() */\n      jump\t// in\n    tag_430:\n        /* \"contracts/WOM_MINT.sol\":3769:3796  delete whitelistedAddresses */\n      tag_432\n        /* \"contracts/WOM_MINT.sol\":3776:3796  whitelistedAddresses */\n      0x11\n      0x00\n        /* \"contracts/WOM_MINT.sol\":3769:3796  delete whitelistedAddresses */\n      tag_433\n      jump\t// in\n    tag_432:\n        /* \"contracts/WOM_MINT.sol\":3802:3831  whitelistedAddresses = _users */\n      tag_259\n        /* \"contracts/WOM_MINT.sol\":3802:3822  whitelistedAddresses */\n      0x11\n        /* \"contracts/WOM_MINT.sol\":3825:3831  _users */\n      dup4\n      dup4\n        /* \"contracts/WOM_MINT.sol\":3802:3831  whitelistedAddresses = _users */\n      tag_435\n      jump\t// in\n        /* \"@openzeppelin/contracts/access/Ownable.sol\":2081:2279  function transferOwnership(address newOwner) public virtual onlyOwner {... */\n    tag_227:\n        /* \"@openzeppelin/contracts/access/Ownable.sol\":1094:1107  _checkOwner() */\n      tag_437\n        /* \"@openzeppelin/contracts/access/Ownable.sol\":1094:1105  _checkOwner */\n      tag_234\n        /* \"@openzeppelin/contracts/access/Ownable.sol\":1094:1107  _checkOwner() */\n      jump\t// in\n    tag_437:\n      sub(shl(0xa0, 0x01), 0x01)\n        /* \"@openzeppelin/contracts/access/Ownable.sol\":2169:2191  newOwner != address(0) */\n      dup2\n      and\n        /* \"@openzeppelin/contracts/access/Ownable.sol\":2161:2234  require(newOwner != address(0), \"Ownable: new owner is the zero address\") */\n      tag_439\n      jumpi\n      mload(0x40)\n      shl(0xe5, 0x461bcd)\n      dup2\n      mstore\n        /* \"#utility.yul\":9711:9713   */\n      0x20\n        /* \"@openzeppelin/contracts/access/Ownable.sol\":2161:2234  require(newOwner != address(0), \"Ownable: new owner is the zero address\") */\n      0x04\n      dup3\n      add\n        /* \"#utility.yul\":9693:9714   */\n      mstore\n        /* \"#utility.yul\":9750:9752   */\n      0x26\n        /* \"#utility.yul\":9730:9748   */\n      0x24\n      dup3\n      add\n        /* \"#utility.yul\":9723:9753   */\n      mstore\n        /* \"#utility.yul\":9789:9823   */\n      0x4f776e61626c653a206e6577206f776e657220697320746865207a65726f2061\n        /* \"#utility.yul\":9769:9787   */\n      0x44\n      dup3\n      add\n        /* \"#utility.yul\":9762:9824   */\n      mstore\n      shl(0xd0, 0x646472657373)\n        /* \"#utility.yul\":9840:9858   */\n      0x64\n      dup3\n      add\n        /* \"#utility.yul\":9833:9869   */\n      mstore\n        /* \"#utility.yul\":9886:9905   */\n      0x84\n      add\n        /* \"@openzeppelin/contracts/access/Ownable.sol\":2161:2234  require(newOwner != address(0), \"Ownable: new owner is the zero address\") */\n      tag_249\n        /* \"#utility.yul\":9509:9911   */\n      jump\n        /* \"@openzeppelin/contracts/access/Ownable.sol\":2161:2234  require(newOwner != address(0), \"Ownable: new owner is the zero address\") */\n    tag_439:\n        /* \"@openzeppelin/contracts/access/Ownable.sol\":2244:2272  _transferOwnership(newOwner) */\n      tag_299\n        /* \"@openzeppelin/contracts/access/Ownable.sol\":2263:2271  newOwner */\n      dup2\n        /* \"@openzeppelin/contracts/access/Ownable.sol\":2244:2262  _transferOwnership */\n      tag_345\n        /* \"@openzeppelin/contracts/access/Ownable.sol\":2244:2272  _transferOwnership(newOwner) */\n      jump\t// in\n        /* \"@openzeppelin/contracts/token/ERC721/ERC721.sol\":1570:1870  function supportsInterface(bytes4 interfaceId) public view virtual override(ERC165, IERC165) returns (bool) {... */\n    tag_231:\n        /* \"@openzeppelin/contracts/token/ERC721/ERC721.sol\":1672:1676  bool */\n      0x00\n      not(sub(shl(0xe0, 0x01), 0x01))\n        /* \"@openzeppelin/contracts/token/ERC721/ERC721.sol\":1707:1747  interfaceId == type(IERC721).interfaceId */\n      dup3\n      and\n      shl(0xe0, 0x80ac58cd)\n      eq\n      dup1\n        /* \"@openzeppelin/contracts/token/ERC721/ERC721.sol\":1707:1811  interfaceId == type(IERC721).interfaceId ||... */\n      tag_444\n      jumpi\n      pop\n      not(sub(shl(0xe0, 0x01), 0x01))\n        /* \"@openzeppelin/contracts/token/ERC721/ERC721.sol\":1763:1811  interfaceId == type(IERC721Metadata).interfaceId */\n      dup3\n      and\n      shl(0xe0, 0x5b5e139f)\n      eq\n        /* \"@openzeppelin/contracts/token/ERC721/ERC721.sol\":1707:1811  interfaceId == type(IERC721).interfaceId ||... */\n    tag_444:\n        /* \"@openzeppelin/contracts/token/ERC721/ERC721.sol\":1707:1863  interfaceId == type(IERC721).interfaceId ||... */\n      dup1\n      tag_230\n      jumpi\n      pop\n      shl(0xe0, 0x01ffc9a7)\n      not(sub(shl(0xe0, 0x01), 0x01))\n        /* \"@openzeppelin/contracts/utils/introspection/ERC165.sol\":937:977  interfaceId == type(IERC165).interfaceId */\n      dup4\n      and\n      eq\n        /* \"@openzeppelin/contracts/token/ERC721/ERC721.sol\":1827:1863  super.supportsInterface(interfaceId) */\n      tag_230\n        /* \"@openzeppelin/contracts/utils/introspection/ERC165.sol\":829:984  function supportsInterface(bytes4 interfaceId) public view virtual override returns (bool) {... */\n      jump\n        /* \"@openzeppelin/contracts/access/Ownable.sol\":1359:1489  function _checkOwner() internal view virtual {... */\n    tag_234:\n        /* \"@openzeppelin/contracts/access/Ownable.sol\":1273:1279  _owner */\n      and(sub(shl(0xa0, 0x01), 0x01), sload(0x0a))\n        /* \"@openzeppelin/contracts/utils/Context.sol\":719:729  msg.sender */\n      caller\n        /* \"@openzeppelin/contracts/access/Ownable.sol\":1422:1445  owner() == _msgSender() */\n      eq\n        /* \"@openzeppelin/contracts/access/Ownable.sol\":1414:1482  require(owner() == _msgSender(), \"Ownable: caller is not the owner\") */\n      tag_344\n      jumpi\n      mload(0x40)\n      shl(0xe5, 0x461bcd)\n      dup2\n      mstore\n        /* \"#utility.yul\":13955:13957   */\n      0x20\n        /* \"@openzeppelin/contracts/access/Ownable.sol\":1414:1482  require(owner() == _msgSender(), \"Ownable: caller is not the owner\") */\n      0x04\n      dup3\n      add\n        /* \"#utility.yul\":13937:13958   */\n      dup2\n      swap1\n      mstore\n        /* \"#utility.yul\":13974:13992   */\n      0x24\n      dup3\n      add\n        /* \"#utility.yul\":13967:13997   */\n      mstore\n        /* \"#utility.yul\":14033:14067   */\n      0x4f776e61626c653a2063616c6c6572206973206e6f7420746865206f776e6572\n        /* \"#utility.yul\":14013:14031   */\n      0x44\n      dup3\n      add\n        /* \"#utility.yul\":14006:14068   */\n      mstore\n        /* \"#utility.yul\":14085:14103   */\n      0x64\n      add\n        /* \"@openzeppelin/contracts/access/Ownable.sol\":1414:1482  require(owner() == _msgSender(), \"Ownable: caller is not the owner\") */\n      tag_249\n        /* \"#utility.yul\":13753:14109   */\n      jump\n        /* \"@openzeppelin/contracts/token/ERC721/ERC721.sol\":11657:11790  function _requireMinted(uint256 tokenId) internal view virtual {... */\n    tag_245:\n        /* \"@openzeppelin/contracts/token/ERC721/ERC721.sol\":7099:7103  bool */\n      0x00\n        /* \"@openzeppelin/contracts/token/ERC721/ERC721.sol\":7122:7138  _owners[tokenId] */\n      dup2\n      dup2\n      mstore\n        /* \"@openzeppelin/contracts/token/ERC721/ERC721.sol\":7122:7129  _owners */\n      0x02\n        /* \"@openzeppelin/contracts/token/ERC721/ERC721.sol\":7122:7138  _owners[tokenId] */\n      0x20\n      mstore\n      0x40\n      swap1\n      keccak256\n      sload\n      sub(shl(0xa0, 0x01), 0x01)\n      and\n        /* \"@openzeppelin/contracts/token/ERC721/ERC721.sol\":11730:11783  require(_exists(tokenId), \"ERC721: invalid token ID\") */\n      tag_299\n      jumpi\n      mload(0x40)\n      shl(0xe5, 0x461bcd)\n      dup2\n      mstore\n        /* \"#utility.yul\":15083:15085   */\n      0x20\n        /* \"@openzeppelin/contracts/token/ERC721/ERC721.sol\":11730:11783  require(_exists(tokenId), \"ERC721: invalid token ID\") */\n      0x04\n      dup3\n      add\n        /* \"#utility.yul\":15065:15086   */\n      mstore\n        /* \"#utility.yul\":15122:15124   */\n      0x18\n        /* \"#utility.yul\":15102:15120   */\n      0x24\n      dup3\n      add\n        /* \"#utility.yul\":15095:15125   */\n      mstore\n      shl(0x42, 0x115490cdcc8c4e881a5b9d985b1a59081d1bdad95b881251)\n        /* \"#utility.yul\":15141:15159   */\n      0x44\n      dup3\n      add\n        /* \"#utility.yul\":15134:15188   */\n      mstore\n        /* \"#utility.yul\":15205:15223   */\n      0x64\n      add\n        /* \"@openzeppelin/contracts/token/ERC721/ERC721.sol\":11730:11783  require(_exists(tokenId), \"ERC721: invalid token ID\") */\n      tag_249\n        /* \"#utility.yul\":14881:15229   */\n      jump\n        /* \"@openzeppelin/contracts/token/ERC721/ERC721.sol\":10959:11130  function _approve(address to, uint256 tokenId) internal virtual {... */\n    tag_260:\n        /* \"@openzeppelin/contracts/token/ERC721/ERC721.sol\":11033:11057  _tokenApprovals[tokenId] */\n      0x00\n      dup2\n      dup2\n      mstore\n        /* \"@openzeppelin/contracts/token/ERC721/ERC721.sol\":11033:11048  _tokenApprovals */\n      0x04\n        /* \"@openzeppelin/contracts/token/ERC721/ERC721.sol\":11033:11057  _tokenApprovals[tokenId] */\n      0x20\n      mstore\n      0x40\n      swap1\n      keccak256\n        /* \"@openzeppelin/contracts/token/ERC721/ERC721.sol\":11033:11062  _tokenApprovals[tokenId] = to */\n      dup1\n      sload\n      not(sub(shl(0xa0, 0x01), 0x01))\n      and\n      sub(shl(0xa0, 0x01), 0x01)\n      dup5\n      and\n      swap1\n      dup2\n      or\n      swap1\n      swap2\n      sstore\n        /* \"@openzeppelin/contracts/token/ERC721/ERC721.sol\":11033:11057  _tokenApprovals[tokenId] */\n      dup2\n      swap1\n        /* \"@openzeppelin/contracts/token/ERC721/ERC721.sol\":11086:11109  ERC721.ownerOf(tokenId) */\n      tag_460\n        /* \"@openzeppelin/contracts/token/ERC721/ERC721.sol\":11033:11057  _tokenApprovals[tokenId] */\n      dup3\n        /* \"@openzeppelin/contracts/token/ERC721/ERC721.sol\":11086:11100  ERC721.ownerOf */\n      tag_140\n        /* \"@openzeppelin/contracts/token/ERC721/ERC721.sol\":11086:11109  ERC721.ownerOf(tokenId) */\n      jump\t// in\n    tag_460:\n      sub(shl(0xa0, 0x01), 0x01)\n        /* \"@openzeppelin/contracts/token/ERC721/ERC721.sol\":11077:11123  Approval(ERC721.ownerOf(tokenId), to, tokenId) */\n      and\n      0x8c5be1e5ebec7d5bd14f71427d1e84f3dd0314c0f7b2291e5b200ac8c7c3b925\n      mload(0x40)\n      mload(0x40)\n      dup1\n      swap2\n      sub\n      swap1\n      log4\n        /* \"@openzeppelin/contracts/token/ERC721/ERC721.sol\":10959:11130  function _approve(address to, uint256 tokenId) internal virtual {... */\n      pop\n      pop\n      jump\t// out\n        /* \"@openzeppelin/contracts/token/ERC721/ERC721.sol\":7317:7578  function _isApprovedOrOwner(address spender, uint256 tokenId) internal view virtual returns (bool) {... */\n    tag_265:\n        /* \"@openzeppelin/contracts/token/ERC721/ERC721.sol\":7410:7414  bool */\n      0x00\n        /* \"@openzeppelin/contracts/token/ERC721/ERC721.sol\":7426:7439  address owner */\n      dup1\n        /* \"@openzeppelin/contracts/token/ERC721/ERC721.sol\":7442:7465  ERC721.ownerOf(tokenId) */\n      tag_462\n        /* \"@openzeppelin/contracts/token/ERC721/ERC721.sol\":7457:7464  tokenId */\n      dup4\n        /* \"@openzeppelin/contracts/token/ERC721/ERC721.sol\":7442:7456  ERC721.ownerOf */\n      tag_140\n        /* \"@openzeppelin/contracts/token/ERC721/ERC721.sol\":7442:7465  ERC721.ownerOf(tokenId) */\n      jump\t// in\n    tag_462:\n        /* \"@openzeppelin/contracts/token/ERC721/ERC721.sol\":7426:7465  address owner = ERC721.ownerOf(tokenId) */\n      swap1\n      pop\n        /* \"@openzeppelin/contracts/token/ERC721/ERC721.sol\":7494:7499  owner */\n      dup1\n      sub(shl(0xa0, 0x01), 0x01)\n        /* \"@openzeppelin/contracts/token/ERC721/ERC721.sol\":7483:7499  spender == owner */\n      and\n        /* \"@openzeppelin/contracts/token/ERC721/ERC721.sol\":7483:7490  spender */\n      dup5\n      sub(shl(0xa0, 0x01), 0x01)\n        /* \"@openzeppelin/contracts/token/ERC721/ERC721.sol\":7483:7499  spender == owner */\n      and\n      eq\n        /* \"@openzeppelin/contracts/token/ERC721/ERC721.sol\":7483:7535  spender == owner || isApprovedForAll(owner, spender) */\n      dup1\n      tag_464\n      jumpi\n      pop\n      sub(shl(0xa0, 0x01), 0x01)\n        /* \"@openzeppelin/contracts/token/ERC721/ERC721.sol\":4508:4533  _operatorApprovals[owner] */\n      dup1\n      dup3\n      and\n        /* \"@openzeppelin/contracts/token/ERC721/ERC721.sol\":4485:4489  bool */\n      0x00\n        /* \"@openzeppelin/contracts/token/ERC721/ERC721.sol\":4508:4533  _operatorApprovals[owner] */\n      swap1\n      dup2\n      mstore\n        /* \"@openzeppelin/contracts/token/ERC721/ERC721.sol\":4508:4526  _operatorApprovals */\n      0x05\n        /* \"@openzeppelin/contracts/token/ERC721/ERC721.sol\":4508:4533  _operatorApprovals[owner] */\n      0x20\n      swap1\n      dup2\n      mstore\n      0x40\n      dup1\n      dup4\n      keccak256\n        /* \"@openzeppelin/contracts/token/ERC721/ERC721.sol\":4508:4543  _operatorApprovals[owner][operator] */\n      swap4\n      dup9\n      and\n      dup4\n      mstore\n      swap3\n      swap1\n      mstore\n      keccak256\n      sload\n      0xff\n      and\n        /* \"@openzeppelin/contracts/token/ERC721/ERC721.sol\":7503:7535  isApprovedForAll(owner, spender) */\n    tag_464:\n        /* \"@openzeppelin/contracts/token/ERC721/ERC721.sol\":7483:7570  spender == owner || isApprovedForAll(owner, spender) || getApproved(tokenId) == spender */\n      dup1\n      tag_465\n      jumpi\n      pop\n        /* \"@openzeppelin/contracts/token/ERC721/ERC721.sol\":7563:7570  spender */\n      dup4\n      sub(shl(0xa0, 0x01), 0x01)\n        /* \"@openzeppelin/contracts/token/ERC721/ERC721.sol\":7539:7570  getApproved(tokenId) == spender */\n      and\n        /* \"@openzeppelin/contracts/token/ERC721/ERC721.sol\":7539:7559  getApproved(tokenId) */\n      tag_466\n        /* \"@openzeppelin/contracts/token/ERC721/ERC721.sol\":7551:7558  tokenId */\n      dup5\n        /* \"@openzeppelin/contracts/token/ERC721/ERC721.sol\":7539:7550  getApproved */\n      tag_69\n        /* \"@openzeppelin/contracts/token/ERC721/ERC721.sol\":7539:7559  getApproved(tokenId) */\n      jump\t// in\n    tag_466:\n      sub(shl(0xa0, 0x01), 0x01)\n        /* \"@openzeppelin/contracts/token/ERC721/ERC721.sol\":7539:7570  getApproved(tokenId) == spender */\n      and\n      eq\n        /* \"@openzeppelin/contracts/token/ERC721/ERC721.sol\":7483:7570  spender == owner || isApprovedForAll(owner, spender) || getApproved(tokenId) == spender */\n    tag_465:\n        /* \"@openzeppelin/contracts/token/ERC721/ERC721.sol\":7475:7571  return (spender == owner || isApprovedForAll(owner, spender) || getApproved(tokenId) == spender) */\n      swap5\n        /* \"@openzeppelin/contracts/token/ERC721/ERC721.sol\":7317:7578  function _isApprovedOrOwner(address spender, uint256 tokenId) internal view virtual returns (bool) {... */\n      swap4\n      pop\n      pop\n      pop\n      pop\n      jump\t// out\n        /* \"@openzeppelin/contracts/token/ERC721/ERC721.sol\":10242:10847  function _transfer(... */\n    tag_270:\n        /* \"@openzeppelin/contracts/token/ERC721/ERC721.sol\":10396:10400  from */\n      dup3\n      sub(shl(0xa0, 0x01), 0x01)\n        /* \"@openzeppelin/contracts/token/ERC721/ERC721.sol\":10369:10400  ERC721.ownerOf(tokenId) == from */\n      and\n        /* \"@openzeppelin/contracts/token/ERC721/ERC721.sol\":10369:10392  ERC721.ownerOf(tokenId) */\n      tag_468\n        /* \"@openzeppelin/contracts/token/ERC721/ERC721.sol\":10384:10391  tokenId */\n      dup3\n        /* \"@openzeppelin/contracts/token/ERC721/ERC721.sol\":10369:10383  ERC721.ownerOf */\n      tag_140\n        /* \"@openzeppelin/contracts/token/ERC721/ERC721.sol\":10369:10392  ERC721.ownerOf(tokenId) */\n      jump\t// in\n    tag_468:\n      sub(shl(0xa0, 0x01), 0x01)\n        /* \"@openzeppelin/contracts/token/ERC721/ERC721.sol\":10369:10400  ERC721.ownerOf(tokenId) == from */\n      and\n      eq\n        /* \"@openzeppelin/contracts/token/ERC721/ERC721.sol\":10361:10442  require(ERC721.ownerOf(tokenId) == from, \"ERC721: transfer from incorrect owner\") */\n      tag_469\n      jumpi\n      mload(0x40)\n      shl(0xe5, 0x461bcd)\n      dup2\n      mstore\n        /* \"#utility.yul\":10118:10120   */\n      0x20\n        /* \"@openzeppelin/contracts/token/ERC721/ERC721.sol\":10361:10442  require(ERC721.ownerOf(tokenId) == from, \"ERC721: transfer from incorrect owner\") */\n      0x04\n      dup3\n      add\n        /* \"#utility.yul\":10100:10121   */\n      mstore\n        /* \"#utility.yul\":10157:10159   */\n      0x25\n        /* \"#utility.yul\":10137:10155   */\n      0x24\n      dup3\n      add\n        /* \"#utility.yul\":10130:10160   */\n      mstore\n        /* \"#utility.yul\":10196:10230   */\n      0x4552433732313a207472616e736665722066726f6d20696e636f727265637420\n        /* \"#utility.yul\":10176:10194   */\n      0x44\n      dup3\n      add\n        /* \"#utility.yul\":10169:10231   */\n      mstore\n      shl(0xd9, 0x37bbb732b9)\n        /* \"#utility.yul\":10247:10265   */\n      0x64\n      dup3\n      add\n        /* \"#utility.yul\":10240:10275   */\n      mstore\n        /* \"#utility.yul\":10292:10311   */\n      0x84\n      add\n        /* \"@openzeppelin/contracts/token/ERC721/ERC721.sol\":10361:10442  require(ERC721.ownerOf(tokenId) == from, \"ERC721: transfer from incorrect owner\") */\n      tag_249\n        /* \"#utility.yul\":9916:10317   */\n      jump\n        /* \"@openzeppelin/contracts/token/ERC721/ERC721.sol\":10361:10442  require(ERC721.ownerOf(tokenId) == from, \"ERC721: transfer from incorrect owner\") */\n    tag_469:\n      sub(shl(0xa0, 0x01), 0x01)\n        /* \"@openzeppelin/contracts/token/ERC721/ERC721.sol\":10460:10476  to != address(0) */\n      dup3\n      and\n        /* \"@openzeppelin/contracts/token/ERC721/ERC721.sol\":10452:10517  require(to != address(0), \"ERC721: transfer to the zero address\") */\n      tag_472\n      jumpi\n      mload(0x40)\n      shl(0xe5, 0x461bcd)\n      dup2\n      mstore\n        /* \"#utility.yul\":11238:11240   */\n      0x20\n        /* \"@openzeppelin/contracts/token/ERC721/ERC721.sol\":10452:10517  require(to != address(0), \"ERC721: transfer to the zero address\") */\n      0x04\n      dup3\n      add\n        /* \"#utility.yul\":11220:11241   */\n      mstore\n        /* \"#utility.yul\":11277:11279   */\n      0x24\n        /* \"#utility.yul\":11257:11275   */\n      dup1\n      dup3\n      add\n        /* \"#utility.yul\":11250:11280   */\n      mstore\n        /* \"#utility.yul\":11316:11350   */\n      0x4552433732313a207472616e7366657220746f20746865207a65726f20616464\n        /* \"#utility.yul\":11296:11314   */\n      0x44\n      dup3\n      add\n        /* \"#utility.yul\":11289:11351   */\n      mstore\n      shl(0xe0, 0x72657373)\n        /* \"#utility.yul\":11367:11385   */\n      0x64\n      dup3\n      add\n        /* \"#utility.yul\":11360:11394   */\n      mstore\n        /* \"#utility.yul\":11411:11430   */\n      0x84\n      add\n        /* \"@openzeppelin/contracts/token/ERC721/ERC721.sol\":10452:10517  require(to != address(0), \"ERC721: transfer to the zero address\") */\n      tag_249\n        /* \"#utility.yul\":11036:11436   */\n      jump\n        /* \"@openzeppelin/contracts/token/ERC721/ERC721.sol\":10452:10517  require(to != address(0), \"ERC721: transfer to the zero address\") */\n    tag_472:\n        /* \"@openzeppelin/contracts/token/ERC721/ERC721.sol\":10528:10567  _beforeTokenTransfer(from, to, tokenId) */\n      tag_475\n        /* \"@openzeppelin/contracts/token/ERC721/ERC721.sol\":10549:10553  from */\n      dup4\n        /* \"@openzeppelin/contracts/token/ERC721/ERC721.sol\":10555:10557  to */\n      dup4\n        /* \"@openzeppelin/contracts/token/ERC721/ERC721.sol\":10559:10566  tokenId */\n      dup4\n        /* \"@openzeppelin/contracts/token/ERC721/ERC721.sol\":10528:10548  _beforeTokenTransfer */\n      tag_476\n        /* \"@openzeppelin/contracts/token/ERC721/ERC721.sol\":10528:10567  _beforeTokenTransfer(from, to, tokenId) */\n      jump\t// in\n    tag_475:\n        /* \"@openzeppelin/contracts/token/ERC721/ERC721.sol\":10629:10658  _approve(address(0), tokenId) */\n      tag_477\n        /* \"@openzeppelin/contracts/token/ERC721/ERC721.sol\":10646:10647  0 */\n      0x00\n        /* \"@openzeppelin/contracts/token/ERC721/ERC721.sol\":10650:10657  tokenId */\n      dup3\n        /* \"@openzeppelin/contracts/token/ERC721/ERC721.sol\":10629:10637  _approve */\n      tag_260\n        /* \"@openzeppelin/contracts/token/ERC721/ERC721.sol\":10629:10658  _approve(address(0), tokenId) */\n      jump\t// in\n    tag_477:\n      sub(shl(0xa0, 0x01), 0x01)\n        /* \"@openzeppelin/contracts/token/ERC721/ERC721.sol\":10669:10684  _balances[from] */\n      dup4\n      and\n      0x00\n      swap1\n      dup2\n      mstore\n        /* \"@openzeppelin/contracts/token/ERC721/ERC721.sol\":10669:10678  _balances */\n      0x03\n        /* \"@openzeppelin/contracts/token/ERC721/ERC721.sol\":10669:10684  _balances[from] */\n      0x20\n      mstore\n      0x40\n      dup2\n      keccak256\n        /* \"@openzeppelin/contracts/token/ERC721/ERC721.sol\":10669:10689  _balances[from] -= 1 */\n      dup1\n      sload\n        /* \"@openzeppelin/contracts/token/ERC721/ERC721.sol\":10688:10689  1 */\n      0x01\n      swap3\n        /* \"@openzeppelin/contracts/token/ERC721/ERC721.sol\":10669:10684  _balances[from] */\n      swap1\n        /* \"@openzeppelin/contracts/token/ERC721/ERC721.sol\":10669:10689  _balances[from] -= 1 */\n      tag_478\n      swap1\n        /* \"@openzeppelin/contracts/token/ERC721/ERC721.sol\":10688:10689  1 */\n      dup5\n      swap1\n        /* \"@openzeppelin/contracts/token/ERC721/ERC721.sol\":10669:10689  _balances[from] -= 1 */\n      tag_479\n      jump\t// in\n    tag_478:\n      swap1\n      swap2\n      sstore\n      pop\n      pop\n      sub(shl(0xa0, 0x01), 0x01)\n        /* \"@openzeppelin/contracts/token/ERC721/ERC721.sol\":10699:10712  _balances[to] */\n      dup3\n      and\n      0x00\n      swap1\n      dup2\n      mstore\n        /* \"@openzeppelin/contracts/token/ERC721/ERC721.sol\":10699:10708  _balances */\n      0x03\n        /* \"@openzeppelin/contracts/token/ERC721/ERC721.sol\":10699:10712  _balances[to] */\n      0x20\n      mstore\n      0x40\n      dup2\n      keccak256\n        /* \"@openzeppelin/contracts/token/ERC721/ERC721.sol\":10699:10717  _balances[to] += 1 */\n      dup1\n      sload\n        /* \"@openzeppelin/contracts/token/ERC721/ERC721.sol\":10716:10717  1 */\n      0x01\n      swap3\n        /* \"@openzeppelin/contracts/token/ERC721/ERC721.sol\":10699:10712  _balances[to] */\n      swap1\n        /* \"@openzeppelin/contracts/token/ERC721/ERC721.sol\":10699:10717  _balances[to] += 1 */\n      tag_480\n      swap1\n        /* \"@openzeppelin/contracts/token/ERC721/ERC721.sol\":10716:10717  1 */\n      dup5\n      swap1\n        /* \"@openzeppelin/contracts/token/ERC721/ERC721.sol\":10699:10717  _balances[to] += 1 */\n      tag_362\n      jump\t// in\n    tag_480:\n      swap1\n      swap2\n      sstore\n      pop\n      pop\n        /* \"@openzeppelin/contracts/token/ERC721/ERC721.sol\":10727:10743  _owners[tokenId] */\n      0x00\n      dup2\n      dup2\n      mstore\n        /* \"@openzeppelin/contracts/token/ERC721/ERC721.sol\":10727:10734  _owners */\n      0x02\n        /* \"@openzeppelin/contracts/token/ERC721/ERC721.sol\":10727:10743  _owners[tokenId] */\n      0x20\n      mstore\n      0x40\n      dup1\n      dup3\n      keccak256\n        /* \"@openzeppelin/contracts/token/ERC721/ERC721.sol\":10727:10748  _owners[tokenId] = to */\n      dup1\n      sload\n      not(sub(shl(0xa0, 0x01), 0x01))\n      and\n      sub(shl(0xa0, 0x01), 0x01)\n      dup7\n      dup2\n      and\n      swap2\n      dup3\n      or\n      swap1\n      swap3\n      sstore\n        /* \"@openzeppelin/contracts/token/ERC721/ERC721.sol\":10764:10791  Transfer(from, to, tokenId) */\n      swap2\n      mload\n        /* \"@openzeppelin/contracts/token/ERC721/ERC721.sol\":10727:10743  _owners[tokenId] */\n      dup5\n      swap4\n        /* \"@openzeppelin/contracts/token/ERC721/ERC721.sol\":10764:10791  Transfer(from, to, tokenId) */\n      swap2\n      dup8\n      and\n      swap2\n      0xddf252ad1be2c89b69c2b068fc378daa952ba7f163c4a11628f55a4df523b3ef\n      swap2\n      log4\n        /* \"@openzeppelin/contracts/token/ERC721/ERC721.sol\":3537:3874  {... */\n      pop\n        /* \"@openzeppelin/contracts/token/ERC721/ERC721.sol\":3467:3874  function approve(address to, uint256 tokenId) public virtual override {... */\n      pop\n      pop\n      jump\t// out\n        /* \"@openzeppelin/contracts/access/Ownable.sol\":2433:2620  function _transferOwnership(address newOwner) internal virtual {... */\n    tag_345:\n        /* \"@openzeppelin/contracts/access/Ownable.sol\":2525:2531  _owner */\n      0x0a\n      dup1\n      sload\n      sub(shl(0xa0, 0x01), 0x01)\n        /* \"@openzeppelin/contracts/access/Ownable.sol\":2541:2558  _owner = newOwner */\n      dup4\n      dup2\n      and\n      not(sub(shl(0xa0, 0x01), 0x01))\n      dup4\n      and\n      dup2\n      or\n      swap1\n      swap4\n      sstore\n        /* \"@openzeppelin/contracts/access/Ownable.sol\":2573:2613  OwnershipTransferred(oldOwner, newOwner) */\n      mload(0x40)\n        /* \"@openzeppelin/contracts/access/Ownable.sol\":2525:2531  _owner */\n      swap2\n      and\n      swap2\n        /* \"@openzeppelin/contracts/access/Ownable.sol\":2541:2558  _owner = newOwner */\n      swap1\n        /* \"@openzeppelin/contracts/access/Ownable.sol\":2525:2531  _owner */\n      dup3\n      swap1\n        /* \"@openzeppelin/contracts/access/Ownable.sol\":2573:2613  OwnershipTransferred(oldOwner, newOwner) */\n      0x8be0079c531659141344cd1fd0a4f28419497f9722a3daafe3b4186f6b6457e0\n      swap1\n        /* \"@openzeppelin/contracts/access/Ownable.sol\":2506:2522  address oldOwner */\n      0x00\n      swap1\n        /* \"@openzeppelin/contracts/access/Ownable.sol\":2573:2613  OwnershipTransferred(oldOwner, newOwner) */\n      log3\n        /* \"@openzeppelin/contracts/access/Ownable.sol\":2496:2620  {... */\n      pop\n        /* \"@openzeppelin/contracts/access/Ownable.sol\":2433:2620  function _transferOwnership(address newOwner) internal virtual {... */\n      pop\n      jump\t// out\n        /* \"@openzeppelin/contracts/token/ERC721/ERC721.sol\":7908:8016  function _safeMint(address to, uint256 tokenId) internal virtual {... */\n    tag_386:\n        /* \"@openzeppelin/contracts/token/ERC721/ERC721.sol\":7983:8009  _safeMint(to, tokenId, \"\") */\n      tag_326\n        /* \"@openzeppelin/contracts/token/ERC721/ERC721.sol\":7993:7995  to */\n      dup3\n        /* \"@openzeppelin/contracts/token/ERC721/ERC721.sol\":7997:8004  tokenId */\n      dup3\n        /* \"@openzeppelin/contracts/token/ERC721/ERC721.sol\":7983:8009  _safeMint(to, tokenId, \"\") */\n      mload(0x40)\n      dup1\n      0x20\n      add\n      0x40\n      mstore\n      dup1\n      0x00\n      dup2\n      mstore\n      pop\n        /* \"@openzeppelin/contracts/token/ERC721/ERC721.sol\":7983:7992  _safeMint */\n      tag_486\n        /* \"@openzeppelin/contracts/token/ERC721/ERC721.sol\":7983:8009  _safeMint(to, tokenId, \"\") */\n      jump\t// in\n        /* \"@openzeppelin/contracts/token/ERC721/ERC721.sol\":11266:11573  function _setApprovalForAll(... */\n    tag_391:\n        /* \"@openzeppelin/contracts/token/ERC721/ERC721.sol\":11416:11424  operator */\n      dup2\n      sub(shl(0xa0, 0x01), 0x01)\n        /* \"@openzeppelin/contracts/token/ERC721/ERC721.sol\":11407:11424  owner != operator */\n      and\n        /* \"@openzeppelin/contracts/token/ERC721/ERC721.sol\":11407:11412  owner */\n      dup4\n      sub(shl(0xa0, 0x01), 0x01)\n        /* \"@openzeppelin/contracts/token/ERC721/ERC721.sol\":11407:11424  owner != operator */\n      and\n      eq\n      iszero\n        /* \"@openzeppelin/contracts/token/ERC721/ERC721.sol\":11399:11454  require(owner != operator, \"ERC721: approve to caller\") */\n      tag_488\n      jumpi\n      mload(0x40)\n      shl(0xe5, 0x461bcd)\n      dup2\n      mstore\n        /* \"#utility.yul\":11643:11645   */\n      0x20\n        /* \"@openzeppelin/contracts/token/ERC721/ERC721.sol\":11399:11454  require(owner != operator, \"ERC721: approve to caller\") */\n      0x04\n      dup3\n      add\n        /* \"#utility.yul\":11625:11646   */\n      mstore\n        /* \"#utility.yul\":11682:11684   */\n      0x19\n        /* \"#utility.yul\":11662:11680   */\n      0x24\n      dup3\n      add\n        /* \"#utility.yul\":11655:11685   */\n      mstore\n        /* \"#utility.yul\":11721:11748   */\n      0x4552433732313a20617070726f766520746f2063616c6c657200000000000000\n        /* \"#utility.yul\":11701:11719   */\n      0x44\n      dup3\n      add\n        /* \"#utility.yul\":11694:11749   */\n      mstore\n        /* \"#utility.yul\":11766:11784   */\n      0x64\n      add\n        /* \"@openzeppelin/contracts/token/ERC721/ERC721.sol\":11399:11454  require(owner != operator, \"ERC721: approve to caller\") */\n      tag_249\n        /* \"#utility.yul\":11441:11790   */\n      jump\n        /* \"@openzeppelin/contracts/token/ERC721/ERC721.sol\":11399:11454  require(owner != operator, \"ERC721: approve to caller\") */\n    tag_488:\n      sub(shl(0xa0, 0x01), 0x01)\n        /* \"@openzeppelin/contracts/token/ERC721/ERC721.sol\":11464:11489  _operatorApprovals[owner] */\n      dup4\n      dup2\n      and\n      0x00\n      dup2\n      dup2\n      mstore\n        /* \"@openzeppelin/contracts/token/ERC721/ERC721.sol\":11464:11482  _operatorApprovals */\n      0x05\n        /* \"@openzeppelin/contracts/token/ERC721/ERC721.sol\":11464:11489  _operatorApprovals[owner] */\n      0x20\n      swap1\n      dup2\n      mstore\n      0x40\n      dup1\n      dup4\n      keccak256\n        /* \"@openzeppelin/contracts/token/ERC721/ERC721.sol\":11464:11499  _operatorApprovals[owner][operator] */\n      swap5\n      dup8\n      and\n      dup1\n      dup5\n      mstore\n      swap5\n      dup3\n      mstore\n      swap2\n      dup3\n      swap1\n      keccak256\n        /* \"@openzeppelin/contracts/token/ERC721/ERC721.sol\":11464:11510  _operatorApprovals[owner][operator] = approved */\n      dup1\n      sload\n      not(0xff)\n      and\n      dup7\n      iszero\n      iszero\n      swap1\n      dup2\n      or\n      swap1\n      swap2\n      sstore\n        /* \"@openzeppelin/contracts/token/ERC721/ERC721.sol\":11525:11566  ApprovalForAll(owner, operator, approved) */\n      swap2\n      mload\n        /* \"#utility.yul\":8402:8443   */\n      swap2\n      dup3\n      mstore\n        /* \"@openzeppelin/contracts/token/ERC721/ERC721.sol\":11525:11566  ApprovalForAll(owner, operator, approved) */\n      0x17307eab39ab6107e8899845ad3d59bd9653f200f220920489ca2b5937696c31\n      swap2\n        /* \"#utility.yul\":8375:8393   */\n      add\n        /* \"@openzeppelin/contracts/token/ERC721/ERC721.sol\":11525:11566  ApprovalForAll(owner, operator, approved) */\n      mload(0x40)\n      dup1\n      swap2\n      sub\n      swap1\n      log3\n        /* \"@openzeppelin/contracts/token/ERC721/ERC721.sol\":11266:11573  function _setApprovalForAll(... */\n      pop\n      pop\n      pop\n      jump\t// out\n        /* \"@openzeppelin/contracts/token/ERC721/ERC721.sol\":6426:6731  function _safeTransfer(... */\n    tag_398:\n        /* \"@openzeppelin/contracts/token/ERC721/ERC721.sol\":6576:6604  _transfer(from, to, tokenId) */\n      tag_493\n        /* \"@openzeppelin/contracts/token/ERC721/ERC721.sol\":6586:6590  from */\n      dup5\n        /* \"@openzeppelin/contracts/token/ERC721/ERC721.sol\":6592:6594  to */\n      dup5\n        /* \"@openzeppelin/contracts/token/ERC721/ERC721.sol\":6596:6603  tokenId */\n      dup5\n        /* \"@openzeppelin/contracts/token/ERC721/ERC721.sol\":6576:6585  _transfer */\n      tag_270\n        /* \"@openzeppelin/contracts/token/ERC721/ERC721.sol\":6576:6604  _transfer(from, to, tokenId) */\n      jump\t// in\n    tag_493:\n        /* \"@openzeppelin/contracts/token/ERC721/ERC721.sol\":6622:6669  _checkOnERC721Received(from, to, tokenId, data) */\n      tag_494\n        /* \"@openzeppelin/contracts/token/ERC721/ERC721.sol\":6645:6649  from */\n      dup5\n        /* \"@openzeppelin/contracts/token/ERC721/ERC721.sol\":6651:6653  to */\n      dup5\n        /* \"@openzeppelin/contracts/token/ERC721/ERC721.sol\":6655:6662  tokenId */\n      dup5\n        /* \"@openzeppelin/contracts/token/ERC721/ERC721.sol\":6664:6668  data */\n      dup5\n        /* \"@openzeppelin/contracts/token/ERC721/ERC721.sol\":6622:6644  _checkOnERC721Received */\n      tag_495\n        /* \"@openzeppelin/contracts/token/ERC721/ERC721.sol\":6622:6669  _checkOnERC721Received(from, to, tokenId, data) */\n      jump\t// in\n    tag_494:\n        /* \"@openzeppelin/contracts/token/ERC721/ERC721.sol\":6614:6724  require(_checkOnERC721Received(from, to, tokenId, data), \"ERC721: transfer to non ERC721Receiver implementer\") */\n      tag_397\n      jumpi\n      mload(0x40)\n      shl(0xe5, 0x461bcd)\n      dup2\n      mstore\n      0x04\n      add\n      tag_249\n      swap1\n      tag_498\n      jump\t// in\n        /* \"contracts/WOM_MINT.sol\":875:975  function _baseURI() internal view virtual override returns (string memory) {... */\n    tag_413:\n        /* \"contracts/WOM_MINT.sol\":935:948  string memory */\n      0x60\n        /* \"contracts/WOM_MINT.sol\":963:970  baseURI */\n      0x0b\n        /* \"contracts/WOM_MINT.sol\":956:970  return baseURI */\n      dup1\n      sload\n      tag_237\n      swap1\n      tag_238\n      jump\t// in\n        /* \"@openzeppelin/contracts/utils/Strings.sol\":392:1095  function toString(uint256 value) internal pure returns (string memory) {... */\n    tag_417:\n        /* \"@openzeppelin/contracts/utils/Strings.sol\":448:461  string memory */\n      0x60\n        /* \"@openzeppelin/contracts/utils/Strings.sol\":665:675  value == 0 */\n      dup2\n        /* \"@openzeppelin/contracts/utils/Strings.sol\":661:712  if (value == 0) {... */\n      tag_507\n      jumpi\n      pop\n      pop\n        /* \"@openzeppelin/contracts/utils/Strings.sol\":691:701  return \"0\" */\n      0x40\n      dup1\n      mload\n      dup1\n      dup3\n      add\n      swap1\n      swap2\n      mstore\n      0x01\n      dup2\n      mstore\n      shl(0xfc, 0x03)\n      0x20\n      dup3\n      add\n      mstore\n      swap1\n        /* \"@openzeppelin/contracts/utils/Strings.sol\":392:1095  function toString(uint256 value) internal pure returns (string memory) {... */\n      jump\t// out\n        /* \"@openzeppelin/contracts/utils/Strings.sol\":661:712  if (value == 0) {... */\n    tag_507:\n        /* \"@openzeppelin/contracts/utils/Strings.sol\":736:741  value */\n      dup2\n        /* \"@openzeppelin/contracts/utils/Strings.sol\":721:733  uint256 temp */\n      0x00\n        /* \"@openzeppelin/contracts/utils/Strings.sol\":775:850  while (temp != 0) {... */\n    tag_508:\n        /* \"@openzeppelin/contracts/utils/Strings.sol\":782:791  temp != 0 */\n      dup2\n      iszero\n        /* \"@openzeppelin/contracts/utils/Strings.sol\":775:850  while (temp != 0) {... */\n      tag_509\n      jumpi\n        /* \"@openzeppelin/contracts/utils/Strings.sol\":807:815  digits++ */\n      dup1\n      tag_510\n      dup2\n      tag_286\n      jump\t// in\n    tag_510:\n      swap2\n      pop\n        /* \"@openzeppelin/contracts/utils/Strings.sol\":829:839  temp /= 10 */\n      tag_511\n      swap1\n      pop\n        /* \"@openzeppelin/contracts/utils/Strings.sol\":837:839  10 */\n      0x0a\n        /* \"@openzeppelin/contracts/utils/Strings.sol\":829:839  temp /= 10 */\n      dup4\n      tag_512\n      jump\t// in\n    tag_511:\n      swap2\n      pop\n        /* \"@openzeppelin/contracts/utils/Strings.sol\":775:850  while (temp != 0) {... */\n      jump(tag_508)\n    tag_509:\n        /* \"@openzeppelin/contracts/utils/Strings.sol\":859:878  bytes memory buffer */\n      0x00\n        /* \"@openzeppelin/contracts/utils/Strings.sol\":891:897  digits */\n      dup2\n        /* \"@openzeppelin/contracts/utils/Strings.sol\":881:898  new bytes(digits) */\n      0xffffffffffffffff\n      dup2\n      gt\n      iszero\n      tag_514\n      jumpi\n      tag_514\n      tag_306\n      jump\t// in\n    tag_514:\n      mload(0x40)\n      swap1\n      dup1\n      dup3\n      mstore\n      dup1\n      0x1f\n      add\n      not(0x1f)\n      and\n      0x20\n      add\n      dup3\n      add\n      0x40\n      mstore\n      dup1\n      iszero\n      tag_515\n      jumpi\n      0x20\n      dup3\n      add\n      dup2\n      dup1\n      calldatasize\n      dup4\n      calldatacopy\n      add\n      swap1\n      pop\n    tag_515:\n      pop\n        /* \"@openzeppelin/contracts/utils/Strings.sol\":859:898  bytes memory buffer = new bytes(digits) */\n      swap1\n      pop\n        /* \"@openzeppelin/contracts/utils/Strings.sol\":908:1058  while (value != 0) {... */\n    tag_516:\n        /* \"@openzeppelin/contracts/utils/Strings.sol\":915:925  value != 0 */\n      dup5\n      iszero\n        /* \"@openzeppelin/contracts/utils/Strings.sol\":908:1058  while (value != 0) {... */\n      tag_465\n      jumpi\n        /* \"@openzeppelin/contracts/utils/Strings.sol\":941:952  digits -= 1 */\n      tag_518\n        /* \"@openzeppelin/contracts/utils/Strings.sol\":951:952  1 */\n      0x01\n        /* \"@openzeppelin/contracts/utils/Strings.sol\":941:952  digits -= 1 */\n      dup4\n      tag_479\n      jump\t// in\n    tag_518:\n      swap2\n      pop\n        /* \"@openzeppelin/contracts/utils/Strings.sol\":1009:1019  value % 10 */\n      tag_519\n        /* \"@openzeppelin/contracts/utils/Strings.sol\":1017:1019  10 */\n      0x0a\n        /* \"@openzeppelin/contracts/utils/Strings.sol\":1009:1014  value */\n      dup7\n        /* \"@openzeppelin/contracts/utils/Strings.sol\":1009:1019  value % 10 */\n      tag_520\n      jump\t// in\n    tag_519:\n        /* \"@openzeppelin/contracts/utils/Strings.sol\":996:1020  48 + uint256(value % 10) */\n      tag_521\n      swap1\n        /* \"@openzeppelin/contracts/utils/Strings.sol\":996:998  48 */\n      0x30\n        /* \"@openzeppelin/contracts/utils/Strings.sol\":996:1020  48 + uint256(value % 10) */\n      tag_362\n      jump\t// in\n    tag_521:\n        /* \"@openzeppelin/contracts/utils/Strings.sol\":983:1022  bytes1(uint8(48 + uint256(value % 10))) */\n      0xf8\n      shl\n        /* \"@openzeppelin/contracts/utils/Strings.sol\":966:972  buffer */\n      dup2\n        /* \"@openzeppelin/contracts/utils/Strings.sol\":973:979  digits */\n      dup4\n        /* \"@openzeppelin/contracts/utils/Strings.sol\":966:980  buffer[digits] */\n      dup2\n      mload\n      dup2\n      lt\n      tag_523\n      jumpi\n      tag_523\n      tag_282\n      jump\t// in\n    tag_523:\n      0x20\n      add\n      add\n        /* \"@openzeppelin/contracts/utils/Strings.sol\":966:1022  buffer[digits] = bytes1(uint8(48 + uint256(value % 10))) */\n      swap1\n      not(sub(shl(0xf8, 0x01), 0x01))\n      and\n      swap1\n      dup2\n      0x00\n      byte\n      swap1\n      mstore8\n      pop\n        /* \"@openzeppelin/contracts/utils/Strings.sol\":1036:1047  value /= 10 */\n      tag_524\n        /* \"@openzeppelin/contracts/utils/Strings.sol\":1045:1047  10 */\n      0x0a\n        /* \"@openzeppelin/contracts/utils/Strings.sol\":1036:1047  value /= 10 */\n      dup7\n      tag_512\n      jump\t// in\n    tag_524:\n      swap5\n      pop\n        /* \"@openzeppelin/contracts/utils/Strings.sol\":908:1058  while (value != 0) {... */\n      jump(tag_516)\n        /* \"@openzeppelin/contracts/token/ERC721/extensions/ERC721Enumerable.sol\":2624:3196  function _beforeTokenTransfer(... */\n    tag_476:\n      sub(shl(0xa0, 0x01), 0x01)\n        /* \"@openzeppelin/contracts/token/ERC721/extensions/ERC721Enumerable.sol\":2823:2841  from == address(0) */\n      dup4\n      and\n        /* \"@openzeppelin/contracts/token/ERC721/extensions/ERC721Enumerable.sol\":2819:3002  if (from == address(0)) {... */\n      tag_529\n      jumpi\n        /* \"@openzeppelin/contracts/token/ERC721/extensions/ERC721Enumerable.sol\":2857:2897  _addTokenToAllTokensEnumeration(tokenId) */\n      tag_530\n        /* \"@openzeppelin/contracts/token/ERC721/extensions/ERC721Enumerable.sol\":2889:2896  tokenId */\n      dup2\n        /* \"@openzeppelin/contracts/token/ERC721/extensions/ERC721Enumerable.sol\":4005:4015  _allTokens */\n      0x08\n        /* \"@openzeppelin/contracts/token/ERC721/extensions/ERC721Enumerable.sol\":4005:4022  _allTokens.length */\n      dup1\n      sload\n        /* \"@openzeppelin/contracts/token/ERC721/extensions/ERC721Enumerable.sol\":3978:4002  _allTokensIndex[tokenId] */\n      0x00\n      dup4\n      dup2\n      mstore\n        /* \"@openzeppelin/contracts/token/ERC721/extensions/ERC721Enumerable.sol\":3978:3993  _allTokensIndex */\n      0x09\n        /* \"@openzeppelin/contracts/token/ERC721/extensions/ERC721Enumerable.sol\":3978:4002  _allTokensIndex[tokenId] */\n      0x20\n      mstore\n      0x40\n      dup2\n      keccak256\n        /* \"@openzeppelin/contracts/token/ERC721/extensions/ERC721Enumerable.sol\":3978:4022  _allTokensIndex[tokenId] = _allTokens.length */\n      dup3\n      swap1\n      sstore\n        /* \"@openzeppelin/contracts/token/ERC721/extensions/ERC721Enumerable.sol\":4032:4056  _allTokens.push(tokenId) */\n      0x01\n      dup3\n      add\n      dup4\n      sstore\n      swap2\n      swap1\n      swap2\n      mstore\n      0xf3f7a9fe364faab93b216da50a3214154f22a0a2b415b23a84c8169e8b636ee3\n      add\n      sstore\n        /* \"@openzeppelin/contracts/token/ERC721/extensions/ERC721Enumerable.sol\":3902:4063  function _addTokenToAllTokensEnumeration(uint256 tokenId) private {... */\n      jump\n        /* \"@openzeppelin/contracts/token/ERC721/extensions/ERC721Enumerable.sol\":2857:2897  _addTokenToAllTokensEnumeration(tokenId) */\n    tag_530:\n        /* \"@openzeppelin/contracts/token/ERC721/extensions/ERC721Enumerable.sol\":2819:3002  if (from == address(0)) {... */\n      jump(tag_534)\n    tag_529:\n        /* \"@openzeppelin/contracts/token/ERC721/extensions/ERC721Enumerable.sol\":2926:2928  to */\n      dup2\n      sub(shl(0xa0, 0x01), 0x01)\n        /* \"@openzeppelin/contracts/token/ERC721/extensions/ERC721Enumerable.sol\":2918:2928  from != to */\n      and\n        /* \"@openzeppelin/contracts/token/ERC721/extensions/ERC721Enumerable.sol\":2918:2922  from */\n      dup4\n      sub(shl(0xa0, 0x01), 0x01)\n        /* \"@openzeppelin/contracts/token/ERC721/extensions/ERC721Enumerable.sol\":2918:2928  from != to */\n      and\n      eq\n        /* \"@openzeppelin/contracts/token/ERC721/extensions/ERC721Enumerable.sol\":2914:3002  if (from != to) {... */\n      tag_534\n      jumpi\n        /* \"@openzeppelin/contracts/token/ERC721/extensions/ERC721Enumerable.sol\":2944:2991  _removeTokenFromOwnerEnumeration(from, tokenId) */\n      tag_534\n        /* \"@openzeppelin/contracts/token/ERC721/extensions/ERC721Enumerable.sol\":2977:2981  from */\n      dup4\n        /* \"@openzeppelin/contracts/token/ERC721/extensions/ERC721Enumerable.sol\":2983:2990  tokenId */\n      dup3\n        /* \"@openzeppelin/contracts/token/ERC721/extensions/ERC721Enumerable.sol\":2944:2976  _removeTokenFromOwnerEnumeration */\n      tag_535\n        /* \"@openzeppelin/contracts/token/ERC721/extensions/ERC721Enumerable.sol\":2944:2991  _removeTokenFromOwnerEnumeration(from, tokenId) */\n      jump\t// in\n    tag_534:\n      sub(shl(0xa0, 0x01), 0x01)\n        /* \"@openzeppelin/contracts/token/ERC721/extensions/ERC721Enumerable.sol\":3015:3031  to == address(0) */\n      dup3\n      and\n        /* \"@openzeppelin/contracts/token/ERC721/extensions/ERC721Enumerable.sol\":3011:3190  if (to == address(0)) {... */\n      tag_536\n      jumpi\n        /* \"@openzeppelin/contracts/token/ERC721/extensions/ERC721Enumerable.sol\":3047:3092  _removeTokenFromAllTokensEnumeration(tokenId) */\n      tag_259\n        /* \"@openzeppelin/contracts/token/ERC721/extensions/ERC721Enumerable.sol\":3084:3091  tokenId */\n      dup2\n        /* \"@openzeppelin/contracts/token/ERC721/extensions/ERC721Enumerable.sol\":3047:3083  _removeTokenFromAllTokensEnumeration */\n      tag_538\n        /* \"@openzeppelin/contracts/token/ERC721/extensions/ERC721Enumerable.sol\":3047:3092  _removeTokenFromAllTokensEnumeration(tokenId) */\n      jump\t// in\n        /* \"@openzeppelin/contracts/token/ERC721/extensions/ERC721Enumerable.sol\":3011:3190  if (to == address(0)) {... */\n    tag_536:\n        /* \"@openzeppelin/contracts/token/ERC721/extensions/ERC721Enumerable.sol\":3119:3123  from */\n      dup3\n      sub(shl(0xa0, 0x01), 0x01)\n        /* \"@openzeppelin/contracts/token/ERC721/extensions/ERC721Enumerable.sol\":3113:3123  to != from */\n      and\n        /* \"@openzeppelin/contracts/token/ERC721/extensions/ERC721Enumerable.sol\":3113:3115  to */\n      dup3\n      sub(shl(0xa0, 0x01), 0x01)\n        /* \"@openzeppelin/contracts/token/ERC721/extensions/ERC721Enumerable.sol\":3113:3123  to != from */\n      and\n      eq\n        /* \"@openzeppelin/contracts/token/ERC721/extensions/ERC721Enumerable.sol\":3109:3190  if (to != from) {... */\n      tag_259\n      jumpi\n        /* \"@openzeppelin/contracts/token/ERC721/extensions/ERC721Enumerable.sol\":3139:3179  _addTokenToOwnerEnumeration(to, tokenId) */\n      tag_259\n        /* \"@openzeppelin/contracts/token/ERC721/extensions/ERC721Enumerable.sol\":3167:3169  to */\n      dup3\n        /* \"@openzeppelin/contracts/token/ERC721/extensions/ERC721Enumerable.sol\":3171:3178  tokenId */\n      dup3\n        /* \"@openzeppelin/contracts/token/ERC721/extensions/ERC721Enumerable.sol\":3139:3166  _addTokenToOwnerEnumeration */\n      tag_542\n        /* \"@openzeppelin/contracts/token/ERC721/extensions/ERC721Enumerable.sol\":3139:3179  _addTokenToOwnerEnumeration(to, tokenId) */\n      jump\t// in\n        /* \"@openzeppelin/contracts/token/ERC721/ERC721.sol\":8237:8546  function _safeMint(... */\n    tag_486:\n        /* \"@openzeppelin/contracts/token/ERC721/ERC721.sol\":8361:8379  _mint(to, tokenId) */\n      tag_545\n        /* \"@openzeppelin/contracts/token/ERC721/ERC721.sol\":8367:8369  to */\n      dup4\n        /* \"@openzeppelin/contracts/token/ERC721/ERC721.sol\":8371:8378  tokenId */\n      dup4\n        /* \"@openzeppelin/contracts/token/ERC721/ERC721.sol\":8361:8366  _mint */\n      tag_546\n        /* \"@openzeppelin/contracts/token/ERC721/ERC721.sol\":8361:8379  _mint(to, tokenId) */\n      jump\t// in\n    tag_545:\n        /* \"@openzeppelin/contracts/token/ERC721/ERC721.sol\":8410:8463  _checkOnERC721Received(address(0), to, tokenId, data) */\n      tag_547\n        /* \"@openzeppelin/contracts/token/ERC721/ERC721.sol\":8441:8442  0 */\n      0x00\n        /* \"@openzeppelin/contracts/token/ERC721/ERC721.sol\":8445:8447  to */\n      dup5\n        /* \"@openzeppelin/contracts/token/ERC721/ERC721.sol\":8449:8456  tokenId */\n      dup5\n        /* \"@openzeppelin/contracts/token/ERC721/ERC721.sol\":8458:8462  data */\n      dup5\n        /* \"@openzeppelin/contracts/token/ERC721/ERC721.sol\":8410:8432  _checkOnERC721Received */\n      tag_495\n        /* \"@openzeppelin/contracts/token/ERC721/ERC721.sol\":8410:8463  _checkOnERC721Received(address(0), to, tokenId, data) */\n      jump\t// in\n    tag_547:\n        /* \"@openzeppelin/contracts/token/ERC721/ERC721.sol\":8389:8539  require(... */\n      tag_259\n      jumpi\n      mload(0x40)\n      shl(0xe5, 0x461bcd)\n      dup2\n      mstore\n      0x04\n      add\n      tag_249\n      swap1\n      tag_498\n      jump\t// in\n        /* \"@openzeppelin/contracts/token/ERC721/ERC721.sol\":12342:13173  function _checkOnERC721Received(... */\n    tag_495:\n        /* \"@openzeppelin/contracts/token/ERC721/ERC721.sol\":12491:12495  bool */\n      0x00\n      sub(shl(0xa0, 0x01), 0x01)\n        /* \"@openzeppelin/contracts/token/ERC721/ERC721.sol\":12511:12524  to.isContract */\n      dup5\n      and\n        /* \"@openzeppelin/contracts/utils/Address.sol\":1465:1484  account.code.length */\n      extcodesize\n        /* \"@openzeppelin/contracts/utils/Address.sol\":1465:1488  account.code.length > 0 */\n      iszero\n        /* \"@openzeppelin/contracts/token/ERC721/ERC721.sol\":12507:13167  if (to.isContract()) {... */\n      tag_553\n      jumpi\n        /* \"@openzeppelin/contracts/token/ERC721/ERC721.sol\":12546:12617  IERC721Receiver(to).onERC721Received(_msgSender(), from, tokenId, data) */\n      mload(0x40)\n      shl(0xe1, 0x0a85bd01)\n      dup2\n      mstore\n      sub(shl(0xa0, 0x01), 0x01)\n        /* \"@openzeppelin/contracts/token/ERC721/ERC721.sol\":12546:12582  IERC721Receiver(to).onERC721Received */\n      dup6\n      and\n      swap1\n      0x150b7a02\n      swap1\n        /* \"@openzeppelin/contracts/token/ERC721/ERC721.sol\":12546:12617  IERC721Receiver(to).onERC721Received(_msgSender(), from, tokenId, data) */\n      tag_555\n      swap1\n        /* \"@openzeppelin/contracts/utils/Context.sol\":719:729  msg.sender */\n      caller\n      swap1\n        /* \"@openzeppelin/contracts/token/ERC721/ERC721.sol\":12597:12601  from */\n      dup10\n      swap1\n        /* \"@openzeppelin/contracts/token/ERC721/ERC721.sol\":12603:12610  tokenId */\n      dup9\n      swap1\n        /* \"@openzeppelin/contracts/token/ERC721/ERC721.sol\":12612:12616  data */\n      dup9\n      swap1\n        /* \"@openzeppelin/contracts/token/ERC721/ERC721.sol\":12546:12617  IERC721Receiver(to).onERC721Received(_msgSender(), from, tokenId, data) */\n      0x04\n      add\n      tag_556\n      jump\t// in\n    tag_555:\n      0x20\n      mload(0x40)\n      dup1\n      dup4\n      sub\n      dup2\n      0x00\n      dup8\n      dup1\n      extcodesize\n      iszero\n      dup1\n      iszero\n      tag_557\n      jumpi\n      0x00\n      dup1\n      revert\n    tag_557:\n      pop\n      gas\n      call\n      swap3\n      pop\n      pop\n      pop\n      dup1\n      iszero\n      tag_558\n      jumpi\n      pop\n      0x40\n      dup1\n      mload\n      0x1f\n      returndatasize\n      swap1\n      dup2\n      add\n      not(0x1f)\n      and\n      dup3\n      add\n      swap1\n      swap3\n      mstore\n      tag_559\n      swap2\n      dup2\n      add\n      swap1\n      tag_560\n      jump\t// in\n    tag_559:\n      0x01\n    tag_558:\n        /* \"@openzeppelin/contracts/token/ERC721/ERC721.sol\":12542:13115  try IERC721Receiver(to).onERC721Received(_msgSender(), from, tokenId, data) returns (bytes4 retval) {... */\n      tag_561\n      jumpi\n      returndatasize\n      dup1\n      dup1\n      iszero\n      tag_566\n      jumpi\n      mload(0x40)\n      swap2\n      pop\n      and(add(returndatasize, 0x3f), not(0x1f))\n      dup3\n      add\n      0x40\n      mstore\n      returndatasize\n      dup3\n      mstore\n      returndatasize\n      0x00\n      0x20\n      dup5\n      add\n      returndatacopy\n      jump(tag_565)\n    tag_566:\n      0x60\n      swap2\n      pop\n    tag_565:\n      pop\n        /* \"@openzeppelin/contracts/token/ERC721/ERC721.sol\":12784:12797  reason.length */\n      dup1\n      mload\n        /* \"@openzeppelin/contracts/token/ERC721/ERC721.sol\":12780:13101  if (reason.length == 0) {... */\n      tag_567\n      jumpi\n        /* \"@openzeppelin/contracts/token/ERC721/ERC721.sol\":12826:12886  revert(\"ERC721: transfer to non ERC721Receiver implementer\") */\n      mload(0x40)\n      shl(0xe5, 0x461bcd)\n      dup2\n      mstore\n      0x04\n      add\n      tag_249\n      swap1\n      tag_498\n      jump\t// in\n        /* \"@openzeppelin/contracts/token/ERC721/ERC721.sol\":12780:13101  if (reason.length == 0) {... */\n    tag_567:\n        /* \"@openzeppelin/contracts/token/ERC721/ERC721.sol\":13053:13059  reason */\n      dup1\n        /* \"@openzeppelin/contracts/token/ERC721/ERC721.sol\":13047:13060  mload(reason) */\n      mload\n        /* \"@openzeppelin/contracts/token/ERC721/ERC721.sol\":13038:13044  reason */\n      dup2\n        /* \"@openzeppelin/contracts/token/ERC721/ERC721.sol\":13034:13036  32 */\n      0x20\n        /* \"@openzeppelin/contracts/token/ERC721/ERC721.sol\":13030:13045  add(32, reason) */\n      add\n        /* \"@openzeppelin/contracts/token/ERC721/ERC721.sol\":13023:13061  revert(add(32, reason), mload(reason)) */\n      revert\n        /* \"@openzeppelin/contracts/token/ERC721/ERC721.sol\":12542:13115  try IERC721Receiver(to).onERC721Received(_msgSender(), from, tokenId, data) returns (bytes4 retval) {... */\n    tag_561:\n      not(sub(shl(0xe0, 0x01), 0x01))\n        /* \"@openzeppelin/contracts/token/ERC721/ERC721.sol\":12667:12718  retval == IERC721Receiver.onERC721Received.selector */\n      and\n      shl(0xe1, 0x0a85bd01)\n      eq\n      swap1\n      pop\n        /* \"@openzeppelin/contracts/token/ERC721/ERC721.sol\":12660:12718  return retval == IERC721Receiver.onERC721Received.selector */\n      jump(tag_465)\n        /* \"@openzeppelin/contracts/token/ERC721/ERC721.sol\":12507:13167  if (to.isContract()) {... */\n    tag_553:\n      pop\n        /* \"@openzeppelin/contracts/token/ERC721/ERC721.sol\":13152:13156  true */\n      0x01\n        /* \"@openzeppelin/contracts/token/ERC721/ERC721.sol\":12342:13173  function _checkOnERC721Received(... */\n      swap5\n      swap4\n      pop\n      pop\n      pop\n      pop\n      jump\t// out\n        /* \"@openzeppelin/contracts/token/ERC721/extensions/ERC721Enumerable.sol\":4680:5650  function _removeTokenFromOwnerEnumeration(address from, uint256 tokenId) private {... */\n    tag_535:\n        /* \"@openzeppelin/contracts/token/ERC721/extensions/ERC721Enumerable.sol\":4942:4964  uint256 lastTokenIndex */\n      0x00\n        /* \"@openzeppelin/contracts/token/ERC721/extensions/ERC721Enumerable.sol\":4992:4993  1 */\n      0x01\n        /* \"@openzeppelin/contracts/token/ERC721/extensions/ERC721Enumerable.sol\":4967:4989  ERC721.balanceOf(from) */\n      tag_576\n        /* \"@openzeppelin/contracts/token/ERC721/extensions/ERC721Enumerable.sol\":4984:4988  from */\n      dup5\n        /* \"@openzeppelin/contracts/token/ERC721/extensions/ERC721Enumerable.sol\":4967:4983  ERC721.balanceOf */\n      tag_149\n        /* \"@openzeppelin/contracts/token/ERC721/extensions/ERC721Enumerable.sol\":4967:4989  ERC721.balanceOf(from) */\n      jump\t// in\n    tag_576:\n        /* \"@openzeppelin/contracts/token/ERC721/extensions/ERC721Enumerable.sol\":4967:4993  ERC721.balanceOf(from) - 1 */\n      tag_577\n      swap2\n      swap1\n      tag_479\n      jump\t// in\n    tag_577:\n        /* \"@openzeppelin/contracts/token/ERC721/extensions/ERC721Enumerable.sol\":5003:5021  uint256 tokenIndex */\n      0x00\n        /* \"@openzeppelin/contracts/token/ERC721/extensions/ERC721Enumerable.sol\":5024:5050  _ownedTokensIndex[tokenId] */\n      dup4\n      dup2\n      mstore\n        /* \"@openzeppelin/contracts/token/ERC721/extensions/ERC721Enumerable.sol\":5024:5041  _ownedTokensIndex */\n      0x07\n        /* \"@openzeppelin/contracts/token/ERC721/extensions/ERC721Enumerable.sol\":5024:5050  _ownedTokensIndex[tokenId] */\n      0x20\n      mstore\n      0x40\n      swap1\n      keccak256\n      sload\n        /* \"@openzeppelin/contracts/token/ERC721/extensions/ERC721Enumerable.sol\":4942:4993  uint256 lastTokenIndex = ERC721.balanceOf(from) - 1 */\n      swap1\n      swap2\n      pop\n        /* \"@openzeppelin/contracts/token/ERC721/extensions/ERC721Enumerable.sol\":5154:5182  tokenIndex != lastTokenIndex */\n      dup1\n      dup3\n      eq\n        /* \"@openzeppelin/contracts/token/ERC721/extensions/ERC721Enumerable.sol\":5150:5473  if (tokenIndex != lastTokenIndex) {... */\n      tag_578\n      jumpi\n      sub(shl(0xa0, 0x01), 0x01)\n        /* \"@openzeppelin/contracts/token/ERC721/extensions/ERC721Enumerable.sol\":5220:5238  _ownedTokens[from] */\n      dup5\n      and\n        /* \"@openzeppelin/contracts/token/ERC721/extensions/ERC721Enumerable.sol\":5198:5217  uint256 lastTokenId */\n      0x00\n        /* \"@openzeppelin/contracts/token/ERC721/extensions/ERC721Enumerable.sol\":5220:5238  _ownedTokens[from] */\n      swap1\n      dup2\n      mstore\n        /* \"@openzeppelin/contracts/token/ERC721/extensions/ERC721Enumerable.sol\":5220:5232  _ownedTokens */\n      0x06\n        /* \"@openzeppelin/contracts/token/ERC721/extensions/ERC721Enumerable.sol\":5220:5238  _ownedTokens[from] */\n      0x20\n      swap1\n      dup2\n      mstore\n      0x40\n      dup1\n      dup4\n      keccak256\n        /* \"@openzeppelin/contracts/token/ERC721/extensions/ERC721Enumerable.sol\":5220:5254  _ownedTokens[from][lastTokenIndex] */\n      dup6\n      dup5\n      mstore\n      dup3\n      mstore\n      dup1\n      dup4\n      keccak256\n      sload\n        /* \"@openzeppelin/contracts/token/ERC721/extensions/ERC721Enumerable.sol\":5269:5299  _ownedTokens[from][tokenIndex] */\n      dup5\n      dup5\n      mstore\n      dup2\n      dup5\n      keccak256\n        /* \"@openzeppelin/contracts/token/ERC721/extensions/ERC721Enumerable.sol\":5269:5313  _ownedTokens[from][tokenIndex] = lastTokenId */\n      dup2\n      swap1\n      sstore\n        /* \"@openzeppelin/contracts/token/ERC721/extensions/ERC721Enumerable.sol\":5385:5415  _ownedTokensIndex[lastTokenId] */\n      dup4\n      mstore\n        /* \"@openzeppelin/contracts/token/ERC721/extensions/ERC721Enumerable.sol\":5385:5402  _ownedTokensIndex */\n      0x07\n        /* \"@openzeppelin/contracts/token/ERC721/extensions/ERC721Enumerable.sol\":5385:5415  _ownedTokensIndex[lastTokenId] */\n      swap1\n      swap2\n      mstore\n      swap1\n      keccak256\n        /* \"@openzeppelin/contracts/token/ERC721/extensions/ERC721Enumerable.sol\":5385:5428  _ownedTokensIndex[lastTokenId] = tokenIndex */\n      dup2\n      swap1\n      sstore\n        /* \"@openzeppelin/contracts/token/ERC721/extensions/ERC721Enumerable.sol\":5150:5473  if (tokenIndex != lastTokenIndex) {... */\n    tag_578:\n      pop\n        /* \"@openzeppelin/contracts/token/ERC721/extensions/ERC721Enumerable.sol\":5566:5592  _ownedTokensIndex[tokenId] */\n      0x00\n      swap2\n      dup3\n      mstore\n        /* \"@openzeppelin/contracts/token/ERC721/extensions/ERC721Enumerable.sol\":5566:5583  _ownedTokensIndex */\n      0x07\n        /* \"@openzeppelin/contracts/token/ERC721/extensions/ERC721Enumerable.sol\":5566:5592  _ownedTokensIndex[tokenId] */\n      0x20\n      swap1\n      dup2\n      mstore\n      0x40\n      dup1\n      dup5\n      keccak256\n        /* \"@openzeppelin/contracts/token/ERC721/extensions/ERC721Enumerable.sol\":5559:5592  delete _ownedTokensIndex[tokenId] */\n      dup5\n      swap1\n      sstore\n      sub(shl(0xa0, 0x01), 0x01)\n        /* \"@openzeppelin/contracts/token/ERC721/extensions/ERC721Enumerable.sol\":5609:5627  _ownedTokens[from] */\n      swap1\n      swap5\n      and\n      dup4\n      mstore\n        /* \"@openzeppelin/contracts/token/ERC721/extensions/ERC721Enumerable.sol\":5609:5621  _ownedTokens */\n      0x06\n        /* \"@openzeppelin/contracts/token/ERC721/extensions/ERC721Enumerable.sol\":5609:5627  _ownedTokens[from] */\n      dup2\n      mstore\n      dup4\n      dup4\n      keccak256\n        /* \"@openzeppelin/contracts/token/ERC721/extensions/ERC721Enumerable.sol\":5609:5643  _ownedTokens[from][lastTokenIndex] */\n      swap2\n      dup4\n      mstore\n      mstore\n      swap1\n      dup2\n      keccak256\n        /* \"@openzeppelin/contracts/token/ERC721/extensions/ERC721Enumerable.sol\":5602:5643  delete _ownedTokens[from][lastTokenIndex] */\n      sstore\n        /* \"@openzeppelin/contracts/token/ERC721/extensions/ERC721Enumerable.sol\":4680:5650  function _removeTokenFromOwnerEnumeration(address from, uint256 tokenId) private {... */\n      jump\t// out\n        /* \"@openzeppelin/contracts/token/ERC721/extensions/ERC721Enumerable.sol\":5938:6999  function _removeTokenFromAllTokensEnumeration(uint256 tokenId) private {... */\n    tag_538:\n        /* \"@openzeppelin/contracts/token/ERC721/extensions/ERC721Enumerable.sol\":6212:6222  _allTokens */\n      0x08\n        /* \"@openzeppelin/contracts/token/ERC721/extensions/ERC721Enumerable.sol\":6212:6229  _allTokens.length */\n      sload\n        /* \"@openzeppelin/contracts/token/ERC721/extensions/ERC721Enumerable.sol\":6187:6209  uint256 lastTokenIndex */\n      0x00\n      swap1\n        /* \"@openzeppelin/contracts/token/ERC721/extensions/ERC721Enumerable.sol\":6212:6233  _allTokens.length - 1 */\n      tag_580\n      swap1\n        /* \"@openzeppelin/contracts/token/ERC721/extensions/ERC721Enumerable.sol\":6232:6233  1 */\n      0x01\n      swap1\n        /* \"@openzeppelin/contracts/token/ERC721/extensions/ERC721Enumerable.sol\":6212:6233  _allTokens.length - 1 */\n      tag_479\n      jump\t// in\n    tag_580:\n        /* \"@openzeppelin/contracts/token/ERC721/extensions/ERC721Enumerable.sol\":6243:6261  uint256 tokenIndex */\n      0x00\n        /* \"@openzeppelin/contracts/token/ERC721/extensions/ERC721Enumerable.sol\":6264:6288  _allTokensIndex[tokenId] */\n      dup4\n      dup2\n      mstore\n        /* \"@openzeppelin/contracts/token/ERC721/extensions/ERC721Enumerable.sol\":6264:6279  _allTokensIndex */\n      0x09\n        /* \"@openzeppelin/contracts/token/ERC721/extensions/ERC721Enumerable.sol\":6264:6288  _allTokensIndex[tokenId] */\n      0x20\n      mstore\n      0x40\n      dup2\n      keccak256\n      sload\n        /* \"@openzeppelin/contracts/token/ERC721/extensions/ERC721Enumerable.sol\":6632:6642  _allTokens */\n      0x08\n        /* \"@openzeppelin/contracts/token/ERC721/extensions/ERC721Enumerable.sol\":6632:6658  _allTokens[lastTokenIndex] */\n      dup1\n      sload\n        /* \"@openzeppelin/contracts/token/ERC721/extensions/ERC721Enumerable.sol\":6187:6233  uint256 lastTokenIndex = _allTokens.length - 1 */\n      swap4\n      swap5\n      pop\n        /* \"@openzeppelin/contracts/token/ERC721/extensions/ERC721Enumerable.sol\":6264:6288  _allTokensIndex[tokenId] */\n      swap1\n      swap3\n        /* \"@openzeppelin/contracts/token/ERC721/extensions/ERC721Enumerable.sol\":6187:6233  uint256 lastTokenIndex = _allTokens.length - 1 */\n      dup5\n      swap1\n        /* \"@openzeppelin/contracts/token/ERC721/extensions/ERC721Enumerable.sol\":6632:6658  _allTokens[lastTokenIndex] */\n      dup2\n      lt\n      tag_582\n      jumpi\n      tag_582\n      tag_282\n      jump\t// in\n    tag_582:\n      swap1\n      0x00\n      mstore\n      keccak256(0x00, 0x20)\n      add\n      sload\n        /* \"@openzeppelin/contracts/token/ERC721/extensions/ERC721Enumerable.sol\":6610:6658  uint256 lastTokenId = _allTokens[lastTokenIndex] */\n      swap1\n      pop\n        /* \"@openzeppelin/contracts/token/ERC721/extensions/ERC721Enumerable.sol\":6694:6705  lastTokenId */\n      dup1\n        /* \"@openzeppelin/contracts/token/ERC721/extensions/ERC721Enumerable.sol\":6669:6679  _allTokens */\n      0x08\n        /* \"@openzeppelin/contracts/token/ERC721/extensions/ERC721Enumerable.sol\":6680:6690  tokenIndex */\n      dup4\n        /* \"@openzeppelin/contracts/token/ERC721/extensions/ERC721Enumerable.sol\":6669:6691  _allTokens[tokenIndex] */\n      dup2\n      sload\n      dup2\n      lt\n      tag_585\n      jumpi\n      tag_585\n      tag_282\n      jump\t// in\n    tag_585:\n      0x00\n      swap2\n      dup3\n      mstore\n      0x20\n      dup1\n      dup4\n      keccak256\n      swap1\n      swap2\n      add\n        /* \"@openzeppelin/contracts/token/ERC721/extensions/ERC721Enumerable.sol\":6669:6705  _allTokens[tokenIndex] = lastTokenId */\n      swap3\n      swap1\n      swap3\n      sstore\n        /* \"@openzeppelin/contracts/token/ERC721/extensions/ERC721Enumerable.sol\":6773:6801  _allTokensIndex[lastTokenId] */\n      dup3\n      dup2\n      mstore\n        /* \"@openzeppelin/contracts/token/ERC721/extensions/ERC721Enumerable.sol\":6773:6788  _allTokensIndex */\n      0x09\n        /* \"@openzeppelin/contracts/token/ERC721/extensions/ERC721Enumerable.sol\":6773:6801  _allTokensIndex[lastTokenId] */\n      swap1\n      swap2\n      mstore\n      0x40\n      dup1\n      dup3\n      keccak256\n        /* \"@openzeppelin/contracts/token/ERC721/extensions/ERC721Enumerable.sol\":6773:6814  _allTokensIndex[lastTokenId] = tokenIndex */\n      dup5\n      swap1\n      sstore\n        /* \"@openzeppelin/contracts/token/ERC721/extensions/ERC721Enumerable.sol\":6942:6966  _allTokensIndex[tokenId] */\n      dup6\n      dup3\n      mstore\n      dup2\n      keccak256\n        /* \"@openzeppelin/contracts/token/ERC721/extensions/ERC721Enumerable.sol\":6935:6966  delete _allTokensIndex[tokenId] */\n      sstore\n        /* \"@openzeppelin/contracts/token/ERC721/extensions/ERC721Enumerable.sol\":6976:6986  _allTokens */\n      0x08\n        /* \"@openzeppelin/contracts/token/ERC721/extensions/ERC721Enumerable.sol\":6976:6992  _allTokens.pop() */\n      dup1\n      sload\n      dup1\n      tag_588\n      jumpi\n      tag_588\n      tag_589\n      jump\t// in\n    tag_588:\n      0x01\n      swap1\n      sub\n      dup2\n      dup2\n      swap1\n      0x00\n      mstore\n      keccak256(0x00, 0x20)\n      add\n      0x00\n      swap1\n      sstore\n      swap1\n      sstore\n        /* \"@openzeppelin/contracts/token/ERC721/extensions/ERC721Enumerable.sol\":6009:6999  {... */\n      pop\n      pop\n      pop\n        /* \"@openzeppelin/contracts/token/ERC721/extensions/ERC721Enumerable.sol\":5938:6999  function _removeTokenFromAllTokensEnumeration(uint256 tokenId) private {... */\n      pop\n      jump\t// out\n        /* \"@openzeppelin/contracts/token/ERC721/extensions/ERC721Enumerable.sol\":3490:3707  function _addTokenToOwnerEnumeration(address to, uint256 tokenId) private {... */\n    tag_542:\n        /* \"@openzeppelin/contracts/token/ERC721/extensions/ERC721Enumerable.sol\":3574:3588  uint256 length */\n      0x00\n        /* \"@openzeppelin/contracts/token/ERC721/extensions/ERC721Enumerable.sol\":3591:3611  ERC721.balanceOf(to) */\n      tag_592\n        /* \"@openzeppelin/contracts/token/ERC721/extensions/ERC721Enumerable.sol\":3608:3610  to */\n      dup4\n        /* \"@openzeppelin/contracts/token/ERC721/extensions/ERC721Enumerable.sol\":3591:3607  ERC721.balanceOf */\n      tag_149\n        /* \"@openzeppelin/contracts/token/ERC721/extensions/ERC721Enumerable.sol\":3591:3611  ERC721.balanceOf(to) */\n      jump\t// in\n    tag_592:\n      sub(shl(0xa0, 0x01), 0x01)\n        /* \"@openzeppelin/contracts/token/ERC721/extensions/ERC721Enumerable.sol\":3621:3637  _ownedTokens[to] */\n      swap1\n      swap4\n      and\n      0x00\n      swap1\n      dup2\n      mstore\n        /* \"@openzeppelin/contracts/token/ERC721/extensions/ERC721Enumerable.sol\":3621:3633  _ownedTokens */\n      0x06\n        /* \"@openzeppelin/contracts/token/ERC721/extensions/ERC721Enumerable.sol\":3621:3637  _ownedTokens[to] */\n      0x20\n      swap1\n      dup2\n      mstore\n      0x40\n      dup1\n      dup4\n      keccak256\n        /* \"@openzeppelin/contracts/token/ERC721/extensions/ERC721Enumerable.sol\":3621:3645  _ownedTokens[to][length] */\n      dup7\n      dup5\n      mstore\n      dup3\n      mstore\n      dup1\n      dup4\n      keccak256\n        /* \"@openzeppelin/contracts/token/ERC721/extensions/ERC721Enumerable.sol\":3621:3655  _ownedTokens[to][length] = tokenId */\n      dup6\n      swap1\n      sstore\n        /* \"@openzeppelin/contracts/token/ERC721/extensions/ERC721Enumerable.sol\":3665:3691  _ownedTokensIndex[tokenId] */\n      swap4\n      dup3\n      mstore\n        /* \"@openzeppelin/contracts/token/ERC721/extensions/ERC721Enumerable.sol\":3665:3682  _ownedTokensIndex */\n      0x07\n        /* \"@openzeppelin/contracts/token/ERC721/extensions/ERC721Enumerable.sol\":3665:3691  _ownedTokensIndex[tokenId] */\n      swap1\n      mstore\n      swap2\n      swap1\n      swap2\n      keccak256\n        /* \"@openzeppelin/contracts/token/ERC721/extensions/ERC721Enumerable.sol\":3665:3700  _ownedTokensIndex[tokenId] = length */\n      swap2\n      swap1\n      swap2\n      sstore\n      pop\n        /* \"@openzeppelin/contracts/token/ERC721/extensions/ERC721Enumerable.sol\":3490:3707  function _addTokenToOwnerEnumeration(address to, uint256 tokenId) private {... */\n      jump\t// out\n        /* \"@openzeppelin/contracts/token/ERC721/ERC721.sol\":8868:9295  function _mint(address to, uint256 tokenId) internal virtual {... */\n    tag_546:\n      sub(shl(0xa0, 0x01), 0x01)\n        /* \"@openzeppelin/contracts/token/ERC721/ERC721.sol\":8947:8963  to != address(0) */\n      dup3\n      and\n        /* \"@openzeppelin/contracts/token/ERC721/ERC721.sol\":8939:9000  require(to != address(0), \"ERC721: mint to the zero address\") */\n      tag_594\n      jumpi\n      mload(0x40)\n      shl(0xe5, 0x461bcd)\n      dup2\n      mstore\n        /* \"#utility.yul\":13594:13596   */\n      0x20\n        /* \"@openzeppelin/contracts/token/ERC721/ERC721.sol\":8939:9000  require(to != address(0), \"ERC721: mint to the zero address\") */\n      0x04\n      dup3\n      add\n        /* \"#utility.yul\":13576:13597   */\n      dup2\n      swap1\n      mstore\n        /* \"#utility.yul\":13613:13631   */\n      0x24\n      dup3\n      add\n        /* \"#utility.yul\":13606:13636   */\n      mstore\n        /* \"#utility.yul\":13672:13706   */\n      0x4552433732313a206d696e7420746f20746865207a65726f2061646472657373\n        /* \"#utility.yul\":13652:13670   */\n      0x44\n      dup3\n      add\n        /* \"#utility.yul\":13645:13707   */\n      mstore\n        /* \"#utility.yul\":13724:13742   */\n      0x64\n      add\n        /* \"@openzeppelin/contracts/token/ERC721/ERC721.sol\":8939:9000  require(to != address(0), \"ERC721: mint to the zero address\") */\n      tag_249\n        /* \"#utility.yul\":13392:13748   */\n      jump\n        /* \"@openzeppelin/contracts/token/ERC721/ERC721.sol\":8939:9000  require(to != address(0), \"ERC721: mint to the zero address\") */\n    tag_594:\n        /* \"@openzeppelin/contracts/token/ERC721/ERC721.sol\":7099:7103  bool */\n      0x00\n        /* \"@openzeppelin/contracts/token/ERC721/ERC721.sol\":7122:7138  _owners[tokenId] */\n      dup2\n      dup2\n      mstore\n        /* \"@openzeppelin/contracts/token/ERC721/ERC721.sol\":7122:7129  _owners */\n      0x02\n        /* \"@openzeppelin/contracts/token/ERC721/ERC721.sol\":7122:7138  _owners[tokenId] */\n      0x20\n      mstore\n      0x40\n      swap1\n      keccak256\n      sload\n      sub(shl(0xa0, 0x01), 0x01)\n      and\n        /* \"@openzeppelin/contracts/token/ERC721/ERC721.sol\":7122:7152  _owners[tokenId] != address(0) */\n      iszero\n        /* \"@openzeppelin/contracts/token/ERC721/ERC721.sol\":9010:9068  require(!_exists(tokenId), \"ERC721: token already minted\") */\n      tag_598\n      jumpi\n      mload(0x40)\n      shl(0xe5, 0x461bcd)\n      dup2\n      mstore\n        /* \"#utility.yul\":10524:10526   */\n      0x20\n        /* \"@openzeppelin/contracts/token/ERC721/ERC721.sol\":9010:9068  require(!_exists(tokenId), \"ERC721: token already minted\") */\n      0x04\n      dup3\n      add\n        /* \"#utility.yul\":10506:10527   */\n      mstore\n        /* \"#utility.yul\":10563:10565   */\n      0x1c\n        /* \"#utility.yul\":10543:10561   */\n      0x24\n      dup3\n      add\n        /* \"#utility.yul\":10536:10566   */\n      mstore\n        /* \"#utility.yul\":10602:10632   */\n      0x4552433732313a20746f6b656e20616c7265616479206d696e74656400000000\n        /* \"#utility.yul\":10582:10600   */\n      0x44\n      dup3\n      add\n        /* \"#utility.yul\":10575:10633   */\n      mstore\n        /* \"#utility.yul\":10650:10668   */\n      0x64\n      add\n        /* \"@openzeppelin/contracts/token/ERC721/ERC721.sol\":9010:9068  require(!_exists(tokenId), \"ERC721: token already minted\") */\n      tag_249\n        /* \"#utility.yul\":10322:10674   */\n      jump\n        /* \"@openzeppelin/contracts/token/ERC721/ERC721.sol\":9010:9068  require(!_exists(tokenId), \"ERC721: token already minted\") */\n    tag_598:\n        /* \"@openzeppelin/contracts/token/ERC721/ERC721.sol\":9079:9124  _beforeTokenTransfer(address(0), to, tokenId) */\n      tag_601\n        /* \"@openzeppelin/contracts/token/ERC721/ERC721.sol\":9108:9109  0 */\n      0x00\n        /* \"@openzeppelin/contracts/token/ERC721/ERC721.sol\":9112:9114  to */\n      dup4\n        /* \"@openzeppelin/contracts/token/ERC721/ERC721.sol\":9116:9123  tokenId */\n      dup4\n        /* \"@openzeppelin/contracts/token/ERC721/ERC721.sol\":9079:9099  _beforeTokenTransfer */\n      tag_476\n        /* \"@openzeppelin/contracts/token/ERC721/ERC721.sol\":9079:9124  _beforeTokenTransfer(address(0), to, tokenId) */\n      jump\t// in\n    tag_601:\n      sub(shl(0xa0, 0x01), 0x01)\n        /* \"@openzeppelin/contracts/token/ERC721/ERC721.sol\":9135:9148  _balances[to] */\n      dup3\n      and\n      0x00\n      swap1\n      dup2\n      mstore\n        /* \"@openzeppelin/contracts/token/ERC721/ERC721.sol\":9135:9144  _balances */\n      0x03\n        /* \"@openzeppelin/contracts/token/ERC721/ERC721.sol\":9135:9148  _balances[to] */\n      0x20\n      mstore\n      0x40\n      dup2\n      keccak256\n        /* \"@openzeppelin/contracts/token/ERC721/ERC721.sol\":9135:9153  _balances[to] += 1 */\n      dup1\n      sload\n        /* \"@openzeppelin/contracts/token/ERC721/ERC721.sol\":9152:9153  1 */\n      0x01\n      swap3\n        /* \"@openzeppelin/contracts/token/ERC721/ERC721.sol\":9135:9148  _balances[to] */\n      swap1\n        /* \"@openzeppelin/contracts/token/ERC721/ERC721.sol\":9135:9153  _balances[to] += 1 */\n      tag_602\n      swap1\n        /* \"@openzeppelin/contracts/token/ERC721/ERC721.sol\":9152:9153  1 */\n      dup5\n      swap1\n        /* \"@openzeppelin/contracts/token/ERC721/ERC721.sol\":9135:9153  _balances[to] += 1 */\n      tag_362\n      jump\t// in\n    tag_602:\n      swap1\n      swap2\n      sstore\n      pop\n      pop\n        /* \"@openzeppelin/contracts/token/ERC721/ERC721.sol\":9163:9179  _owners[tokenId] */\n      0x00\n      dup2\n      dup2\n      mstore\n        /* \"@openzeppelin/contracts/token/ERC721/ERC721.sol\":9163:9170  _owners */\n      0x02\n        /* \"@openzeppelin/contracts/token/ERC721/ERC721.sol\":9163:9179  _owners[tokenId] */\n      0x20\n      mstore\n      0x40\n      dup1\n      dup3\n      keccak256\n        /* \"@openzeppelin/contracts/token/ERC721/ERC721.sol\":9163:9184  _owners[tokenId] = to */\n      dup1\n      sload\n      not(sub(shl(0xa0, 0x01), 0x01))\n      and\n      sub(shl(0xa0, 0x01), 0x01)\n      dup7\n      and\n      swap1\n      dup2\n      or\n      swap1\n      swap2\n      sstore\n        /* \"@openzeppelin/contracts/token/ERC721/ERC721.sol\":9200:9233  Transfer(address(0), to, tokenId) */\n      swap1\n      mload\n        /* \"@openzeppelin/contracts/token/ERC721/ERC721.sol\":9163:9179  _owners[tokenId] */\n      dup4\n      swap3\n      swap1\n        /* \"@openzeppelin/contracts/token/ERC721/ERC721.sol\":9200:9233  Transfer(address(0), to, tokenId) */\n      0xddf252ad1be2c89b69c2b068fc378daa952ba7f163c4a11628f55a4df523b3ef\n      swap1\n        /* \"@openzeppelin/contracts/token/ERC721/ERC721.sol\":9163:9179  _owners[tokenId] */\n      dup3\n      swap1\n        /* \"@openzeppelin/contracts/token/ERC721/ERC721.sol\":9200:9233  Transfer(address(0), to, tokenId) */\n      log4\n        /* \"contracts/WOM_MINT.sol\":3365:3386  baseURI = _newBaseURI */\n      pop\n        /* \"contracts/WOM_MINT.sol\":3295:3391  function setBaseURI(string memory _newBaseURI) public onlyOwner {... */\n      pop\n      jump\t// out\n    tag_327:\n      dup3\n      dup1\n      sload\n      tag_605\n      swap1\n      tag_238\n      jump\t// in\n    tag_605:\n      swap1\n      0x00\n      mstore\n      keccak256(0x00, 0x20)\n      swap1\n      0x1f\n      add\n      0x20\n      swap1\n      div\n      dup2\n      add\n      swap3\n      dup3\n      tag_607\n      jumpi\n      0x00\n      dup6\n      sstore\n      jump(tag_610)\n    tag_607:\n      dup3\n      0x1f\n      lt\n      tag_608\n      jumpi\n      dup1\n      mload\n      not(0xff)\n      and\n      dup4\n      dup1\n      add\n      or\n      dup6\n      sstore\n      jump(tag_610)\n    tag_608:\n      dup3\n      dup1\n      add\n      0x01\n      add\n      dup6\n      sstore\n      dup3\n      iszero\n      tag_610\n      jumpi\n      swap2\n      dup3\n      add\n    tag_609:\n      dup3\n      dup2\n      gt\n      iszero\n      tag_610\n      jumpi\n      dup3\n      mload\n      dup3\n      sstore\n      swap2\n      0x20\n      add\n      swap2\n      swap1\n      0x01\n      add\n      swap1\n      jump(tag_609)\n    tag_610:\n      pop\n      tag_611\n      swap3\n      swap2\n      pop\n      tag_612\n      jump\t// in\n    tag_611:\n      pop\n      swap1\n      jump\t// out\n    tag_433:\n      pop\n      dup1\n      sload\n      0x00\n      dup3\n      sstore\n      swap1\n      0x00\n      mstore\n      keccak256(0x00, 0x20)\n      swap1\n      dup2\n      add\n      swap1\n      tag_299\n      swap2\n      swap1\n      tag_612\n      jump\t// in\n    tag_435:\n      dup3\n      dup1\n      sload\n      dup3\n      dup3\n      sstore\n      swap1\n      0x00\n      mstore\n      keccak256(0x00, 0x20)\n      swap1\n      dup2\n      add\n      swap3\n      dup3\n      iszero\n      tag_610\n      jumpi\n      swap2\n      0x20\n      mul\n      dup3\n      add\n    tag_616:\n      dup3\n      dup2\n      gt\n      iszero\n      tag_610\n      jumpi\n      dup2\n      sload\n      not(sub(shl(0xa0, 0x01), 0x01))\n      and\n      sub(shl(0xa0, 0x01), 0x01)\n      dup5\n      calldataload\n      and\n      or\n      dup3\n      sstore\n      0x20\n      swap1\n      swap3\n      add\n      swap2\n      0x01\n      swap1\n      swap2\n      add\n      swap1\n      jump(tag_616)\n    tag_612:\n    tag_619:\n      dup1\n      dup3\n      gt\n      iszero\n      tag_611\n      jumpi\n      0x00\n      dup2\n      sstore\n      0x01\n      add\n      jump(tag_619)\n        /* \"#utility.yul\":14:645   */\n    tag_622:\n        /* \"#utility.yul\":78:83   */\n      0x00\n        /* \"#utility.yul\":108:126   */\n      0xffffffffffffffff\n        /* \"#utility.yul\":149:151   */\n      dup1\n        /* \"#utility.yul\":141:147   */\n      dup5\n        /* \"#utility.yul\":138:152   */\n      gt\n        /* \"#utility.yul\":135:175   */\n      iszero\n      tag_625\n      jumpi\n        /* \"#utility.yul\":155:173   */\n      tag_625\n      tag_306\n      jump\t// in\n    tag_625:\n        /* \"#utility.yul\":230:232   */\n      0x40\n        /* \"#utility.yul\":224:233   */\n      mload\n        /* \"#utility.yul\":198:200   */\n      0x1f\n        /* \"#utility.yul\":284:299   */\n      dup6\n      add\n      not(0x1f)\n        /* \"#utility.yul\":280:304   */\n      swap1\n      dup2\n      and\n        /* \"#utility.yul\":306:308   */\n      0x3f\n        /* \"#utility.yul\":276:309   */\n      add\n        /* \"#utility.yul\":272:314   */\n      and\n        /* \"#utility.yul\":260:315   */\n      dup2\n      add\n      swap1\n        /* \"#utility.yul\":330:348   */\n      dup3\n      dup3\n      gt\n        /* \"#utility.yul\":350:372   */\n      dup2\n      dup4\n      lt\n        /* \"#utility.yul\":327:373   */\n      or\n        /* \"#utility.yul\":324:396   */\n      iszero\n      tag_627\n      jumpi\n        /* \"#utility.yul\":376:394   */\n      tag_627\n      tag_306\n      jump\t// in\n    tag_627:\n        /* \"#utility.yul\":416:426   */\n      dup2\n        /* \"#utility.yul\":412:414   */\n      0x40\n        /* \"#utility.yul\":405:427   */\n      mstore\n        /* \"#utility.yul\":445:451   */\n      dup1\n        /* \"#utility.yul\":436:451   */\n      swap4\n      pop\n        /* \"#utility.yul\":475:481   */\n      dup6\n        /* \"#utility.yul\":467:473   */\n      dup2\n        /* \"#utility.yul\":460:482   */\n      mstore\n        /* \"#utility.yul\":515:518   */\n      dup7\n        /* \"#utility.yul\":506:512   */\n      dup7\n        /* \"#utility.yul\":501:504   */\n      dup7\n        /* \"#utility.yul\":497:513   */\n      add\n        /* \"#utility.yul\":494:519   */\n      gt\n        /* \"#utility.yul\":491:536   */\n      iszero\n      tag_628\n      jumpi\n        /* \"#utility.yul\":532:533   */\n      0x00\n        /* \"#utility.yul\":529:530   */\n      dup1\n        /* \"#utility.yul\":522:534   */\n      revert\n        /* \"#utility.yul\":491:536   */\n    tag_628:\n        /* \"#utility.yul\":582:588   */\n      dup6\n        /* \"#utility.yul\":577:580   */\n      dup6\n        /* \"#utility.yul\":570:574   */\n      0x20\n        /* \"#utility.yul\":562:568   */\n      dup4\n        /* \"#utility.yul\":558:575   */\n      add\n        /* \"#utility.yul\":545:589   */\n      calldatacopy\n        /* \"#utility.yul\":637:638   */\n      0x00\n        /* \"#utility.yul\":630:634   */\n      0x20\n        /* \"#utility.yul\":621:627   */\n      dup8\n        /* \"#utility.yul\":613:619   */\n      dup4\n        /* \"#utility.yul\":609:628   */\n      add\n        /* \"#utility.yul\":605:635   */\n      add\n        /* \"#utility.yul\":598:639   */\n      mstore\n      pop\n      pop\n      pop\n        /* \"#utility.yul\":14:645   */\n      swap4\n      swap3\n      pop\n      pop\n      pop\n      jump\t// out\n        /* \"#utility.yul\":650:823   */\n    tag_629:\n        /* \"#utility.yul\":718:738   */\n      dup1\n      calldataload\n      sub(shl(0xa0, 0x01), 0x01)\n        /* \"#utility.yul\":767:798   */\n      dup2\n      and\n        /* \"#utility.yul\":757:799   */\n      dup2\n      eq\n        /* \"#utility.yul\":747:817   */\n      tag_631\n      jumpi\n        /* \"#utility.yul\":813:814   */\n      0x00\n        /* \"#utility.yul\":810:811   */\n      dup1\n        /* \"#utility.yul\":803:815   */\n      revert\n        /* \"#utility.yul\":747:817   */\n    tag_631:\n        /* \"#utility.yul\":650:823   */\n      swap2\n      swap1\n      pop\n      jump\t// out\n        /* \"#utility.yul\":828:988   */\n    tag_632:\n        /* \"#utility.yul\":893:913   */\n      dup1\n      calldataload\n        /* \"#utility.yul\":949:962   */\n      dup1\n      iszero\n        /* \"#utility.yul\":942:963   */\n      iszero\n        /* \"#utility.yul\":932:964   */\n      dup2\n      eq\n        /* \"#utility.yul\":922:982   */\n      tag_631\n      jumpi\n        /* \"#utility.yul\":978:979   */\n      0x00\n        /* \"#utility.yul\":975:976   */\n      dup1\n        /* \"#utility.yul\":968:980   */\n      revert\n        /* \"#utility.yul\":993:1179   */\n    tag_85:\n        /* \"#utility.yul\":1052:1058   */\n      0x00\n        /* \"#utility.yul\":1105:1107   */\n      0x20\n        /* \"#utility.yul\":1093:1102   */\n      dup3\n        /* \"#utility.yul\":1084:1091   */\n      dup5\n        /* \"#utility.yul\":1080:1103   */\n      sub\n        /* \"#utility.yul\":1076:1108   */\n      slt\n        /* \"#utility.yul\":1073:1125   */\n      iszero\n      tag_636\n      jumpi\n        /* \"#utility.yul\":1121:1122   */\n      0x00\n        /* \"#utility.yul\":1118:1119   */\n      dup1\n        /* \"#utility.yul\":1111:1123   */\n      revert\n        /* \"#utility.yul\":1073:1125   */\n    tag_636:\n        /* \"#utility.yul\":1144:1173   */\n      tag_415\n        /* \"#utility.yul\":1163:1172   */\n      dup3\n        /* \"#utility.yul\":1144:1173   */\n      tag_629\n      jump\t// in\n        /* \"#utility.yul\":1184:1444   */\n    tag_216:\n        /* \"#utility.yul\":1252:1258   */\n      0x00\n        /* \"#utility.yul\":1260:1266   */\n      dup1\n        /* \"#utility.yul\":1313:1315   */\n      0x40\n        /* \"#utility.yul\":1301:1310   */\n      dup4\n        /* \"#utility.yul\":1292:1299   */\n      dup6\n        /* \"#utility.yul\":1288:1311   */\n      sub\n        /* \"#utility.yul\":1284:1316   */\n      slt\n        /* \"#utility.yul\":1281:1333   */\n      iszero\n      tag_639\n      jumpi\n        /* \"#utility.yul\":1329:1330   */\n      0x00\n        /* \"#utility.yul\":1326:1327   */\n      dup1\n        /* \"#utility.yul\":1319:1331   */\n      revert\n        /* \"#utility.yul\":1281:1333   */\n    tag_639:\n        /* \"#utility.yul\":1352:1381   */\n      tag_640\n        /* \"#utility.yul\":1371:1380   */\n      dup4\n        /* \"#utility.yul\":1352:1381   */\n      tag_629\n      jump\t// in\n    tag_640:\n        /* \"#utility.yul\":1342:1381   */\n      swap2\n      pop\n        /* \"#utility.yul\":1400:1438   */\n      tag_641\n        /* \"#utility.yul\":1434:1436   */\n      0x20\n        /* \"#utility.yul\":1423:1432   */\n      dup5\n        /* \"#utility.yul\":1419:1437   */\n      add\n        /* \"#utility.yul\":1400:1438   */\n      tag_629\n      jump\t// in\n    tag_641:\n        /* \"#utility.yul\":1390:1438   */\n      swap1\n      pop\n        /* \"#utility.yul\":1184:1444   */\n      swap3\n      pop\n      swap3\n      swap1\n      pop\n      jump\t// out\n        /* \"#utility.yul\":1449:1777   */\n    tag_95:\n        /* \"#utility.yul\":1526:1532   */\n      0x00\n        /* \"#utility.yul\":1534:1540   */\n      dup1\n        /* \"#utility.yul\":1542:1548   */\n      0x00\n        /* \"#utility.yul\":1595:1597   */\n      0x60\n        /* \"#utility.yul\":1583:1592   */\n      dup5\n        /* \"#utility.yul\":1574:1581   */\n      dup7\n        /* \"#utility.yul\":1570:1593   */\n      sub\n        /* \"#utility.yul\":1566:1598   */\n      slt\n        /* \"#utility.yul\":1563:1615   */\n      iszero\n      tag_643\n      jumpi\n        /* \"#utility.yul\":1611:1612   */\n      0x00\n        /* \"#utility.yul\":1608:1609   */\n      dup1\n        /* \"#utility.yul\":1601:1613   */\n      revert\n        /* \"#utility.yul\":1563:1615   */\n    tag_643:\n        /* \"#utility.yul\":1634:1663   */\n      tag_644\n        /* \"#utility.yul\":1653:1662   */\n      dup5\n        /* \"#utility.yul\":1634:1663   */\n      tag_629\n      jump\t// in\n    tag_644:\n        /* \"#utility.yul\":1624:1663   */\n      swap3\n      pop\n        /* \"#utility.yul\":1682:1720   */\n      tag_645\n        /* \"#utility.yul\":1716:1718   */\n      0x20\n        /* \"#utility.yul\":1705:1714   */\n      dup6\n        /* \"#utility.yul\":1701:1719   */\n      add\n        /* \"#utility.yul\":1682:1720   */\n      tag_629\n      jump\t// in\n    tag_645:\n        /* \"#utility.yul\":1672:1720   */\n      swap2\n      pop\n        /* \"#utility.yul\":1767:1769   */\n      0x40\n        /* \"#utility.yul\":1756:1765   */\n      dup5\n        /* \"#utility.yul\":1752:1770   */\n      add\n        /* \"#utility.yul\":1739:1771   */\n      calldataload\n        /* \"#utility.yul\":1729:1771   */\n      swap1\n      pop\n        /* \"#utility.yul\":1449:1777   */\n      swap3\n      pop\n      swap3\n      pop\n      swap3\n      jump\t// out\n        /* \"#utility.yul\":1782:2448   */\n    tag_177:\n        /* \"#utility.yul\":1877:1883   */\n      0x00\n        /* \"#utility.yul\":1885:1891   */\n      dup1\n        /* \"#utility.yul\":1893:1899   */\n      0x00\n        /* \"#utility.yul\":1901:1907   */\n      dup1\n        /* \"#utility.yul\":1954:1957   */\n      0x80\n        /* \"#utility.yul\":1942:1951   */\n      dup6\n        /* \"#utility.yul\":1933:1940   */\n      dup8\n        /* \"#utility.yul\":1929:1952   */\n      sub\n        /* \"#utility.yul\":1925:1958   */\n      slt\n        /* \"#utility.yul\":1922:1975   */\n      iszero\n      tag_647\n      jumpi\n        /* \"#utility.yul\":1971:1972   */\n      0x00\n        /* \"#utility.yul\":1968:1969   */\n      dup1\n        /* \"#utility.yul\":1961:1973   */\n      revert\n        /* \"#utility.yul\":1922:1975   */\n    tag_647:\n        /* \"#utility.yul\":1994:2023   */\n      tag_648\n        /* \"#utility.yul\":2013:2022   */\n      dup6\n        /* \"#utility.yul\":1994:2023   */\n      tag_629\n      jump\t// in\n    tag_648:\n        /* \"#utility.yul\":1984:2023   */\n      swap4\n      pop\n        /* \"#utility.yul\":2042:2080   */\n      tag_649\n        /* \"#utility.yul\":2076:2078   */\n      0x20\n        /* \"#utility.yul\":2065:2074   */\n      dup7\n        /* \"#utility.yul\":2061:2079   */\n      add\n        /* \"#utility.yul\":2042:2080   */\n      tag_629\n      jump\t// in\n    tag_649:\n        /* \"#utility.yul\":2032:2080   */\n      swap3\n      pop\n        /* \"#utility.yul\":2127:2129   */\n      0x40\n        /* \"#utility.yul\":2116:2125   */\n      dup6\n        /* \"#utility.yul\":2112:2130   */\n      add\n        /* \"#utility.yul\":2099:2131   */\n      calldataload\n        /* \"#utility.yul\":2089:2131   */\n      swap2\n      pop\n        /* \"#utility.yul\":2182:2184   */\n      0x60\n        /* \"#utility.yul\":2171:2180   */\n      dup6\n        /* \"#utility.yul\":2167:2185   */\n      add\n        /* \"#utility.yul\":2154:2186   */\n      calldataload\n        /* \"#utility.yul\":2209:2227   */\n      0xffffffffffffffff\n        /* \"#utility.yul\":2201:2207   */\n      dup2\n        /* \"#utility.yul\":2198:2228   */\n      gt\n        /* \"#utility.yul\":2195:2245   */\n      iszero\n      tag_650\n      jumpi\n        /* \"#utility.yul\":2241:2242   */\n      0x00\n        /* \"#utility.yul\":2238:2239   */\n      dup1\n        /* \"#utility.yul\":2231:2243   */\n      revert\n        /* \"#utility.yul\":2195:2245   */\n    tag_650:\n        /* \"#utility.yul\":2264:2286   */\n      dup6\n      add\n        /* \"#utility.yul\":2317:2321   */\n      0x1f\n        /* \"#utility.yul\":2309:2322   */\n      dup2\n      add\n        /* \"#utility.yul\":2305:2332   */\n      dup8\n      sgt\n        /* \"#utility.yul\":2295:2350   */\n      tag_651\n      jumpi\n        /* \"#utility.yul\":2346:2347   */\n      0x00\n        /* \"#utility.yul\":2343:2344   */\n      dup1\n        /* \"#utility.yul\":2336:2348   */\n      revert\n        /* \"#utility.yul\":2295:2350   */\n    tag_651:\n        /* \"#utility.yul\":2369:2442   */\n      tag_652\n        /* \"#utility.yul\":2434:2441   */\n      dup8\n        /* \"#utility.yul\":2429:2431   */\n      dup3\n        /* \"#utility.yul\":2416:2432   */\n      calldataload\n        /* \"#utility.yul\":2411:2413   */\n      0x20\n        /* \"#utility.yul\":2407:2409   */\n      dup5\n        /* \"#utility.yul\":2403:2414   */\n      add\n        /* \"#utility.yul\":2369:2442   */\n      tag_622\n      jump\t// in\n    tag_652:\n        /* \"#utility.yul\":2359:2442   */\n      swap2\n      pop\n      pop\n        /* \"#utility.yul\":1782:2448   */\n      swap3\n      swap6\n      swap2\n      swap5\n      pop\n      swap3\n      pop\n      jump\t// out\n        /* \"#utility.yul\":2453:2707   */\n    tag_172:\n        /* \"#utility.yul\":2518:2524   */\n      0x00\n        /* \"#utility.yul\":2526:2532   */\n      dup1\n        /* \"#utility.yul\":2579:2581   */\n      0x40\n        /* \"#utility.yul\":2567:2576   */\n      dup4\n        /* \"#utility.yul\":2558:2565   */\n      dup6\n        /* \"#utility.yul\":2554:2577   */\n      sub\n        /* \"#utility.yul\":2550:2582   */\n      slt\n        /* \"#utility.yul\":2547:2599   */\n      iszero\n      tag_654\n      jumpi\n        /* \"#utility.yul\":2595:2596   */\n      0x00\n        /* \"#utility.yul\":2592:2593   */\n      dup1\n        /* \"#utility.yul\":2585:2597   */\n      revert\n        /* \"#utility.yul\":2547:2599   */\n    tag_654:\n        /* \"#utility.yul\":2618:2647   */\n      tag_655\n        /* \"#utility.yul\":2637:2646   */\n      dup4\n        /* \"#utility.yul\":2618:2647   */\n      tag_629\n      jump\t// in\n    tag_655:\n        /* \"#utility.yul\":2608:2647   */\n      swap2\n      pop\n        /* \"#utility.yul\":2666:2701   */\n      tag_641\n        /* \"#utility.yul\":2697:2699   */\n      0x20\n        /* \"#utility.yul\":2686:2695   */\n      dup5\n        /* \"#utility.yul\":2682:2700   */\n      add\n        /* \"#utility.yul\":2666:2701   */\n      tag_632\n      jump\t// in\n        /* \"#utility.yul\":2712:2966   */\n    tag_75:\n        /* \"#utility.yul\":2780:2786   */\n      0x00\n        /* \"#utility.yul\":2788:2794   */\n      dup1\n        /* \"#utility.yul\":2841:2843   */\n      0x40\n        /* \"#utility.yul\":2829:2838   */\n      dup4\n        /* \"#utility.yul\":2820:2827   */\n      dup6\n        /* \"#utility.yul\":2816:2839   */\n      sub\n        /* \"#utility.yul\":2812:2844   */\n      slt\n        /* \"#utility.yul\":2809:2861   */\n      iszero\n      tag_658\n      jumpi\n        /* \"#utility.yul\":2857:2858   */\n      0x00\n        /* \"#utility.yul\":2854:2855   */\n      dup1\n        /* \"#utility.yul\":2847:2859   */\n      revert\n        /* \"#utility.yul\":2809:2861   */\n    tag_658:\n        /* \"#utility.yul\":2880:2909   */\n      tag_659\n        /* \"#utility.yul\":2899:2908   */\n      dup4\n        /* \"#utility.yul\":2880:2909   */\n      tag_629\n      jump\t// in\n    tag_659:\n        /* \"#utility.yul\":2870:2909   */\n      swap5\n        /* \"#utility.yul\":2956:2958   */\n      0x20\n        /* \"#utility.yul\":2941:2959   */\n      swap4\n      swap1\n      swap4\n      add\n        /* \"#utility.yul\":2928:2960   */\n      calldataload\n      swap4\n      pop\n      pop\n      pop\n        /* \"#utility.yul\":2712:2966   */\n      jump\t// out\n        /* \"#utility.yul\":2971:3586   */\n    tag_222:\n        /* \"#utility.yul\":3057:3063   */\n      0x00\n        /* \"#utility.yul\":3065:3071   */\n      dup1\n        /* \"#utility.yul\":3118:3120   */\n      0x20\n        /* \"#utility.yul\":3106:3115   */\n      dup4\n        /* \"#utility.yul\":3097:3104   */\n      dup6\n        /* \"#utility.yul\":3093:3116   */\n      sub\n        /* \"#utility.yul\":3089:3121   */\n      slt\n        /* \"#utility.yul\":3086:3138   */\n      iszero\n      tag_661\n      jumpi\n        /* \"#utility.yul\":3134:3135   */\n      0x00\n        /* \"#utility.yul\":3131:3132   */\n      dup1\n        /* \"#utility.yul\":3124:3136   */\n      revert\n        /* \"#utility.yul\":3086:3138   */\n    tag_661:\n        /* \"#utility.yul\":3174:3183   */\n      dup3\n        /* \"#utility.yul\":3161:3184   */\n      calldataload\n        /* \"#utility.yul\":3203:3221   */\n      0xffffffffffffffff\n        /* \"#utility.yul\":3244:3246   */\n      dup1\n        /* \"#utility.yul\":3236:3242   */\n      dup3\n        /* \"#utility.yul\":3233:3247   */\n      gt\n        /* \"#utility.yul\":3230:3264   */\n      iszero\n      tag_662\n      jumpi\n        /* \"#utility.yul\":3260:3261   */\n      0x00\n        /* \"#utility.yul\":3257:3258   */\n      dup1\n        /* \"#utility.yul\":3250:3262   */\n      revert\n        /* \"#utility.yul\":3230:3264   */\n    tag_662:\n        /* \"#utility.yul\":3298:3304   */\n      dup2\n        /* \"#utility.yul\":3287:3296   */\n      dup6\n        /* \"#utility.yul\":3283:3305   */\n      add\n        /* \"#utility.yul\":3273:3305   */\n      swap2\n      pop\n        /* \"#utility.yul\":3343:3350   */\n      dup6\n        /* \"#utility.yul\":3336:3340   */\n      0x1f\n        /* \"#utility.yul\":3332:3334   */\n      dup4\n        /* \"#utility.yul\":3328:3341   */\n      add\n        /* \"#utility.yul\":3324:3351   */\n      slt\n        /* \"#utility.yul\":3314:3369   */\n      tag_663\n      jumpi\n        /* \"#utility.yul\":3365:3366   */\n      0x00\n        /* \"#utility.yul\":3362:3363   */\n      dup1\n        /* \"#utility.yul\":3355:3367   */\n      revert\n        /* \"#utility.yul\":3314:3369   */\n    tag_663:\n        /* \"#utility.yul\":3405:3407   */\n      dup2\n        /* \"#utility.yul\":3392:3408   */\n      calldataload\n        /* \"#utility.yul\":3431:3433   */\n      dup2\n        /* \"#utility.yul\":3423:3429   */\n      dup2\n        /* \"#utility.yul\":3420:3434   */\n      gt\n        /* \"#utility.yul\":3417:3451   */\n      iszero\n      tag_664\n      jumpi\n        /* \"#utility.yul\":3447:3448   */\n      0x00\n        /* \"#utility.yul\":3444:3445   */\n      dup1\n        /* \"#utility.yul\":3437:3449   */\n      revert\n        /* \"#utility.yul\":3417:3451   */\n    tag_664:\n        /* \"#utility.yul\":3500:3507   */\n      dup7\n        /* \"#utility.yul\":3495:3497   */\n      0x20\n        /* \"#utility.yul\":3485:3491   */\n      dup3\n        /* \"#utility.yul\":3482:3483   */\n      0x05\n        /* \"#utility.yul\":3478:3492   */\n      shl\n        /* \"#utility.yul\":3474:3476   */\n      dup6\n        /* \"#utility.yul\":3470:3493   */\n      add\n        /* \"#utility.yul\":3466:3498   */\n      add\n        /* \"#utility.yul\":3463:3508   */\n      gt\n        /* \"#utility.yul\":3460:3525   */\n      iszero\n      tag_665\n      jumpi\n        /* \"#utility.yul\":3521:3522   */\n      0x00\n        /* \"#utility.yul\":3518:3519   */\n      dup1\n        /* \"#utility.yul\":3511:3523   */\n      revert\n        /* \"#utility.yul\":3460:3525   */\n    tag_665:\n        /* \"#utility.yul\":3552:3554   */\n      0x20\n        /* \"#utility.yul\":3544:3555   */\n      swap3\n      swap1\n      swap3\n      add\n      swap7\n        /* \"#utility.yul\":3574:3580   */\n      swap2\n      swap6\n      pop\n        /* \"#utility.yul\":2971:3586   */\n      swap1\n      swap4\n      pop\n      pop\n      pop\n      pop\n      jump\t// out\n        /* \"#utility.yul\":3591:3771   */\n    tag_58:\n        /* \"#utility.yul\":3647:3653   */\n      0x00\n        /* \"#utility.yul\":3700:3702   */\n      0x20\n        /* \"#utility.yul\":3688:3697   */\n      dup3\n        /* \"#utility.yul\":3679:3686   */\n      dup5\n        /* \"#utility.yul\":3675:3698   */\n      sub\n        /* \"#utility.yul\":3671:3703   */\n      slt\n        /* \"#utility.yul\":3668:3720   */\n      iszero\n      tag_667\n      jumpi\n        /* \"#utility.yul\":3716:3717   */\n      0x00\n        /* \"#utility.yul\":3713:3714   */\n      dup1\n        /* \"#utility.yul\":3706:3718   */\n      revert\n        /* \"#utility.yul\":3668:3720   */\n    tag_667:\n        /* \"#utility.yul\":3739:3765   */\n      tag_415\n        /* \"#utility.yul\":3755:3764   */\n      dup3\n        /* \"#utility.yul\":3739:3765   */\n      tag_632\n      jump\t// in\n        /* \"#utility.yul\":3776:4021   */\n    tag_51:\n        /* \"#utility.yul\":3834:3840   */\n      0x00\n        /* \"#utility.yul\":3887:3889   */\n      0x20\n        /* \"#utility.yul\":3875:3884   */\n      dup3\n        /* \"#utility.yul\":3866:3873   */\n      dup5\n        /* \"#utility.yul\":3862:3885   */\n      sub\n        /* \"#utility.yul\":3858:3890   */\n      slt\n        /* \"#utility.yul\":3855:3907   */\n      iszero\n      tag_670\n      jumpi\n        /* \"#utility.yul\":3903:3904   */\n      0x00\n        /* \"#utility.yul\":3900:3901   */\n      dup1\n        /* \"#utility.yul\":3893:3905   */\n      revert\n        /* \"#utility.yul\":3855:3907   */\n    tag_670:\n        /* \"#utility.yul\":3942:3951   */\n      dup2\n        /* \"#utility.yul\":3929:3952   */\n      calldataload\n        /* \"#utility.yul\":3961:3991   */\n      tag_415\n        /* \"#utility.yul\":3985:3990   */\n      dup2\n        /* \"#utility.yul\":3961:3991   */\n      tag_672\n      jump\t// in\n        /* \"#utility.yul\":4026:4275   */\n    tag_560:\n        /* \"#utility.yul\":4095:4101   */\n      0x00\n        /* \"#utility.yul\":4148:4150   */\n      0x20\n        /* \"#utility.yul\":4136:4145   */\n      dup3\n        /* \"#utility.yul\":4127:4134   */\n      dup5\n        /* \"#utility.yul\":4123:4146   */\n      sub\n        /* \"#utility.yul\":4119:4151   */\n      slt\n        /* \"#utility.yul\":4116:4168   */\n      iszero\n      tag_674\n      jumpi\n        /* \"#utility.yul\":4164:4165   */\n      0x00\n        /* \"#utility.yul\":4161:4162   */\n      dup1\n        /* \"#utility.yul\":4154:4166   */\n      revert\n        /* \"#utility.yul\":4116:4168   */\n    tag_674:\n        /* \"#utility.yul\":4196:4205   */\n      dup2\n        /* \"#utility.yul\":4190:4206   */\n      mload\n        /* \"#utility.yul\":4215:4245   */\n      tag_415\n        /* \"#utility.yul\":4239:4244   */\n      dup2\n        /* \"#utility.yul\":4215:4245   */\n      tag_672\n      jump\t// in\n        /* \"#utility.yul\":4280:4730   */\n    tag_131:\n        /* \"#utility.yul\":4349:4355   */\n      0x00\n        /* \"#utility.yul\":4402:4404   */\n      0x20\n        /* \"#utility.yul\":4390:4399   */\n      dup3\n        /* \"#utility.yul\":4381:4388   */\n      dup5\n        /* \"#utility.yul\":4377:4400   */\n      sub\n        /* \"#utility.yul\":4373:4405   */\n      slt\n        /* \"#utility.yul\":4370:4422   */\n      iszero\n      tag_677\n      jumpi\n        /* \"#utility.yul\":4418:4419   */\n      0x00\n        /* \"#utility.yul\":4415:4416   */\n      dup1\n        /* \"#utility.yul\":4408:4420   */\n      revert\n        /* \"#utility.yul\":4370:4422   */\n    tag_677:\n        /* \"#utility.yul\":4458:4467   */\n      dup2\n        /* \"#utility.yul\":4445:4468   */\n      calldataload\n        /* \"#utility.yul\":4491:4509   */\n      0xffffffffffffffff\n        /* \"#utility.yul\":4483:4489   */\n      dup2\n        /* \"#utility.yul\":4480:4510   */\n      gt\n        /* \"#utility.yul\":4477:4527   */\n      iszero\n      tag_678\n      jumpi\n        /* \"#utility.yul\":4523:4524   */\n      0x00\n        /* \"#utility.yul\":4520:4521   */\n      dup1\n        /* \"#utility.yul\":4513:4525   */\n      revert\n        /* \"#utility.yul\":4477:4527   */\n    tag_678:\n        /* \"#utility.yul\":4546:4568   */\n      dup3\n      add\n        /* \"#utility.yul\":4599:4603   */\n      0x1f\n        /* \"#utility.yul\":4591:4604   */\n      dup2\n      add\n        /* \"#utility.yul\":4587:4614   */\n      dup5\n      sgt\n        /* \"#utility.yul\":4577:4632   */\n      tag_679\n      jumpi\n        /* \"#utility.yul\":4628:4629   */\n      0x00\n        /* \"#utility.yul\":4625:4626   */\n      dup1\n        /* \"#utility.yul\":4618:4630   */\n      revert\n        /* \"#utility.yul\":4577:4632   */\n    tag_679:\n        /* \"#utility.yul\":4651:4724   */\n      tag_465\n        /* \"#utility.yul\":4716:4723   */\n      dup5\n        /* \"#utility.yul\":4711:4713   */\n      dup3\n        /* \"#utility.yul\":4698:4714   */\n      calldataload\n        /* \"#utility.yul\":4693:4695   */\n      0x20\n        /* \"#utility.yul\":4689:4691   */\n      dup5\n        /* \"#utility.yul\":4685:4696   */\n      add\n        /* \"#utility.yul\":4651:4724   */\n      tag_622\n      jump\t// in\n        /* \"#utility.yul\":4735:4915   */\n    tag_68:\n        /* \"#utility.yul\":4794:4800   */\n      0x00\n        /* \"#utility.yul\":4847:4849   */\n      0x20\n        /* \"#utility.yul\":4835:4844   */\n      dup3\n        /* \"#utility.yul\":4826:4833   */\n      dup5\n        /* \"#utility.yul\":4822:4845   */\n      sub\n        /* \"#utility.yul\":4818:4850   */\n      slt\n        /* \"#utility.yul\":4815:4867   */\n      iszero\n      tag_682\n      jumpi\n        /* \"#utility.yul\":4863:4864   */\n      0x00\n        /* \"#utility.yul\":4860:4861   */\n      dup1\n        /* \"#utility.yul\":4853:4865   */\n      revert\n        /* \"#utility.yul\":4815:4867   */\n    tag_682:\n      pop\n        /* \"#utility.yul\":4886:4909   */\n      calldataload\n      swap2\n        /* \"#utility.yul\":4735:4915   */\n      swap1\n      pop\n      jump\t// out\n        /* \"#utility.yul\":4920:5177   */\n    tag_683:\n        /* \"#utility.yul\":4961:4964   */\n      0x00\n        /* \"#utility.yul\":4999:5004   */\n      dup2\n        /* \"#utility.yul\":4993:5005   */\n      mload\n        /* \"#utility.yul\":5026:5032   */\n      dup1\n        /* \"#utility.yul\":5021:5024   */\n      dup5\n        /* \"#utility.yul\":5014:5033   */\n      mstore\n        /* \"#utility.yul\":5042:5105   */\n      tag_685\n        /* \"#utility.yul\":5098:5104   */\n      dup2\n        /* \"#utility.yul\":5091:5095   */\n      0x20\n        /* \"#utility.yul\":5086:5089   */\n      dup7\n        /* \"#utility.yul\":5082:5096   */\n      add\n        /* \"#utility.yul\":5075:5079   */\n      0x20\n        /* \"#utility.yul\":5068:5073   */\n      dup7\n        /* \"#utility.yul\":5064:5080   */\n      add\n        /* \"#utility.yul\":5042:5105   */\n      tag_686\n      jump\t// in\n    tag_685:\n        /* \"#utility.yul\":5159:5161   */\n      0x1f\n        /* \"#utility.yul\":5138:5153   */\n      add\n      not(0x1f)\n        /* \"#utility.yul\":5134:5163   */\n      and\n        /* \"#utility.yul\":5125:5164   */\n      swap3\n      swap1\n      swap3\n      add\n        /* \"#utility.yul\":5166:5170   */\n      0x20\n        /* \"#utility.yul\":5121:5171   */\n      add\n      swap3\n        /* \"#utility.yul\":4920:5177   */\n      swap2\n      pop\n      pop\n      jump\t// out\n        /* \"#utility.yul\":5182:6709   */\n    tag_419:\n        /* \"#utility.yul\":5406:5409   */\n      0x00\n        /* \"#utility.yul\":5444:5450   */\n      dup5\n        /* \"#utility.yul\":5438:5451   */\n      mload\n        /* \"#utility.yul\":5470:5474   */\n      0x20\n        /* \"#utility.yul\":5483:5534   */\n      tag_688\n        /* \"#utility.yul\":5527:5533   */\n      dup3\n        /* \"#utility.yul\":5522:5525   */\n      dup6\n        /* \"#utility.yul\":5517:5519   */\n      dup4\n        /* \"#utility.yul\":5509:5515   */\n      dup11\n        /* \"#utility.yul\":5505:5520   */\n      add\n        /* \"#utility.yul\":5483:5534   */\n      tag_686\n      jump\t// in\n    tag_688:\n        /* \"#utility.yul\":5597:5610   */\n      dup6\n      mload\n        /* \"#utility.yul\":5556:5572   */\n      swap2\n      dup5\n      add\n      swap2\n        /* \"#utility.yul\":5619:5674   */\n      tag_689\n        /* \"#utility.yul\":5597:5610   */\n      dup2\n        /* \"#utility.yul\":5556:5572   */\n      dup5\n        /* \"#utility.yul\":5641:5656   */\n      dup5\n      dup11\n      add\n        /* \"#utility.yul\":5619:5674   */\n      tag_686\n      jump\t// in\n    tag_689:\n        /* \"#utility.yul\":5763:5776   */\n      dup6\n      sload\n        /* \"#utility.yul\":5696:5716   */\n      swap3\n      add\n      swap2\n        /* \"#utility.yul\":5736:5737   */\n      0x00\n      swap1\n        /* \"#utility.yul\":5823:5824   */\n      0x01\n        /* \"#utility.yul\":5845:5863   */\n      dup2\n      dup2\n      shr\n      swap1\n        /* \"#utility.yul\":5898:5916   */\n      dup1\n      dup4\n      and\n      dup1\n        /* \"#utility.yul\":5925:6018   */\n      tag_690\n      jumpi\n        /* \"#utility.yul\":6003:6007   */\n      0x7f\n        /* \"#utility.yul\":5993:6001   */\n      dup4\n        /* \"#utility.yul\":5989:6008   */\n      and\n        /* \"#utility.yul\":5977:6008   */\n      swap3\n      pop\n        /* \"#utility.yul\":5925:6018   */\n    tag_690:\n        /* \"#utility.yul\":6066:6068   */\n      dup6\n        /* \"#utility.yul\":6056:6064   */\n      dup4\n        /* \"#utility.yul\":6053:6069   */\n      lt\n        /* \"#utility.yul\":6033:6051   */\n      dup2\n        /* \"#utility.yul\":6030:6070   */\n      eq\n        /* \"#utility.yul\":6027:6194   */\n      iszero\n      tag_691\n      jumpi\n      shl(0xe0, 0x4e487b71)\n        /* \"#utility.yul\":6093:6126   */\n      dup6\n      mstore\n        /* \"#utility.yul\":6149:6153   */\n      0x22\n        /* \"#utility.yul\":6146:6147   */\n      0x04\n        /* \"#utility.yul\":6139:6154   */\n      mstore\n        /* \"#utility.yul\":6179:6183   */\n      0x24\n        /* \"#utility.yul\":6100:6103   */\n      dup6\n        /* \"#utility.yul\":6167:6184   */\n      revert\n        /* \"#utility.yul\":6027:6194   */\n    tag_691:\n        /* \"#utility.yul\":6210:6228   */\n      dup1\n        /* \"#utility.yul\":6237:6347   */\n      dup1\n      iszero\n      tag_693\n      jumpi\n        /* \"#utility.yul\":6361:6362   */\n      0x01\n        /* \"#utility.yul\":6356:6684   */\n      dup2\n      eq\n      tag_694\n      jumpi\n        /* \"#utility.yul\":6203:6684   */\n      jump(tag_692)\n        /* \"#utility.yul\":6237:6347   */\n    tag_693:\n      not(0xff)\n        /* \"#utility.yul\":6272:6296   */\n      dup6\n      and\n        /* \"#utility.yul\":6258:6297   */\n      dup9\n      mstore\n        /* \"#utility.yul\":6317:6337   */\n      dup4\n      dup9\n      add\n      swap6\n      pop\n        /* \"#utility.yul\":6237:6347   */\n      jump(tag_692)\n        /* \"#utility.yul\":6356:6684   */\n    tag_694:\n        /* \"#utility.yul\":17427:17428   */\n      0x00\n        /* \"#utility.yul\":17420:17434   */\n      dup12\n      dup2\n      mstore\n        /* \"#utility.yul\":17464:17468   */\n      0x20\n        /* \"#utility.yul\":17451:17469   */\n      swap1\n      keccak256\n        /* \"#utility.yul\":6451:6452   */\n      0x00\n        /* \"#utility.yul\":6465:6634   */\n    tag_697:\n        /* \"#utility.yul\":6479:6487   */\n      dup6\n        /* \"#utility.yul\":6476:6477   */\n      dup2\n        /* \"#utility.yul\":6473:6488   */\n      lt\n        /* \"#utility.yul\":6465:6634   */\n      iszero\n      tag_699\n      jumpi\n        /* \"#utility.yul\":6561:6575   */\n      dup2\n      sload\n        /* \"#utility.yul\":6546:6559   */\n      dup11\n      dup3\n      add\n        /* \"#utility.yul\":6539:6576   */\n      mstore\n        /* \"#utility.yul\":6604:6620   */\n      swap1\n      dup5\n      add\n      swap1\n        /* \"#utility.yul\":6496:6506   */\n      dup9\n      add\n        /* \"#utility.yul\":6465:6634   */\n      jump(tag_697)\n    tag_699:\n        /* \"#utility.yul\":6469:6472   */\n      pop\n      pop\n        /* \"#utility.yul\":6665:6673   */\n      dup4\n        /* \"#utility.yul\":6658:6663   */\n      dup9\n        /* \"#utility.yul\":6654:6674   */\n      add\n        /* \"#utility.yul\":6647:6674   */\n      swap6\n      pop\n        /* \"#utility.yul\":6203:6684   */\n    tag_692:\n      pop\n        /* \"#utility.yul\":6700:6703   */\n      swap4\n      swap12\n        /* \"#utility.yul\":5182:6709   */\n      swap11\n      pop\n      pop\n      pop\n      pop\n      pop\n      pop\n      pop\n      pop\n      pop\n      pop\n      pop\n      jump\t// out\n        /* \"#utility.yul\":7132:7620   */\n    tag_556:\n      sub(shl(0xa0, 0x01), 0x01)\n        /* \"#utility.yul\":7401:7416   */\n      dup6\n      dup2\n      and\n        /* \"#utility.yul\":7383:7417   */\n      dup3\n      mstore\n        /* \"#utility.yul\":7453:7468   */\n      dup5\n      and\n        /* \"#utility.yul\":7448:7450   */\n      0x20\n        /* \"#utility.yul\":7433:7451   */\n      dup3\n      add\n        /* \"#utility.yul\":7426:7469   */\n      mstore\n        /* \"#utility.yul\":7500:7502   */\n      0x40\n        /* \"#utility.yul\":7485:7503   */\n      dup2\n      add\n        /* \"#utility.yul\":7478:7512   */\n      dup4\n      swap1\n      mstore\n        /* \"#utility.yul\":7548:7551   */\n      0x80\n        /* \"#utility.yul\":7543:7545   */\n      0x60\n        /* \"#utility.yul\":7528:7546   */\n      dup3\n      add\n        /* \"#utility.yul\":7521:7552   */\n      dup2\n      swap1\n      mstore\n        /* \"#utility.yul\":7326:7330   */\n      0x00\n      swap1\n        /* \"#utility.yul\":7569:7614   */\n      tag_703\n      swap1\n        /* \"#utility.yul\":7594:7613   */\n      dup4\n      add\n        /* \"#utility.yul\":7586:7592   */\n      dup5\n        /* \"#utility.yul\":7569:7614   */\n      tag_683\n      jump\t// in\n    tag_703:\n        /* \"#utility.yul\":7561:7614   */\n      swap7\n        /* \"#utility.yul\":7132:7620   */\n      swap6\n      pop\n      pop\n      pop\n      pop\n      pop\n      pop\n      jump\t// out\n        /* \"#utility.yul\":7625:8257   */\n    tag_122:\n        /* \"#utility.yul\":7796:7798   */\n      0x20\n        /* \"#utility.yul\":7848:7869   */\n      dup1\n      dup3\n      mstore\n        /* \"#utility.yul\":7918:7931   */\n      dup3\n      mload\n        /* \"#utility.yul\":7821:7839   */\n      dup3\n      dup3\n      add\n        /* \"#utility.yul\":7940:7962   */\n      dup2\n      swap1\n      mstore\n        /* \"#utility.yul\":7767:7771   */\n      0x00\n      swap2\n        /* \"#utility.yul\":7796:7798   */\n      swap1\n        /* \"#utility.yul\":8019:8034   */\n      dup5\n      dup3\n      add\n      swap1\n        /* \"#utility.yul\":7993:7995   */\n      0x40\n        /* \"#utility.yul\":7978:7996   */\n      dup6\n      add\n      swap1\n        /* \"#utility.yul\":7767:7771   */\n      dup5\n        /* \"#utility.yul\":8062:8231   */\n    tag_705:\n        /* \"#utility.yul\":8076:8082   */\n      dup2\n        /* \"#utility.yul\":8073:8074   */\n      dup2\n        /* \"#utility.yul\":8070:8083   */\n      lt\n        /* \"#utility.yul\":8062:8231   */\n      iszero\n      tag_707\n      jumpi\n        /* \"#utility.yul\":8137:8150   */\n      dup4\n      mload\n        /* \"#utility.yul\":8125:8151   */\n      dup4\n      mstore\n        /* \"#utility.yul\":8206:8221   */\n      swap3\n      dup5\n      add\n      swap3\n        /* \"#utility.yul\":8171:8183   */\n      swap2\n      dup5\n      add\n      swap2\n        /* \"#utility.yul\":8098:8099   */\n      0x01\n        /* \"#utility.yul\":8091:8100   */\n      add\n        /* \"#utility.yul\":8062:8231   */\n      jump(tag_705)\n    tag_707:\n      pop\n        /* \"#utility.yul\":8248:8251   */\n      swap1\n      swap7\n        /* \"#utility.yul\":7625:8257   */\n      swap6\n      pop\n      pop\n      pop\n      pop\n      pop\n      pop\n      jump\t// out\n        /* \"#utility.yul\":8454:8673   */\n    tag_64:\n        /* \"#utility.yul\":8603:8605   */\n      0x20\n        /* \"#utility.yul\":8592:8601   */\n      dup2\n        /* \"#utility.yul\":8585:8606   */\n      mstore\n        /* \"#utility.yul\":8566:8570   */\n      0x00\n        /* \"#utility.yul\":8623:8667   */\n      tag_415\n        /* \"#utility.yul\":8663:8665   */\n      0x20\n        /* \"#utility.yul\":8652:8661   */\n      dup4\n        /* \"#utility.yul\":8648:8666   */\n      add\n        /* \"#utility.yul\":8640:8646   */\n      dup5\n        /* \"#utility.yul\":8623:8667   */\n      tag_683\n      jump\t// in\n        /* \"#utility.yul\":9090:9504   */\n    tag_498:\n        /* \"#utility.yul\":9292:9294   */\n      0x20\n        /* \"#utility.yul\":9274:9295   */\n      dup1\n      dup3\n      mstore\n        /* \"#utility.yul\":9331:9333   */\n      0x32\n        /* \"#utility.yul\":9311:9329   */\n      swap1\n      dup3\n      add\n        /* \"#utility.yul\":9304:9334   */\n      mstore\n        /* \"#utility.yul\":9370:9404   */\n      0x4552433732313a207472616e7366657220746f206e6f6e204552433732315265\n        /* \"#utility.yul\":9365:9367   */\n      0x40\n        /* \"#utility.yul\":9350:9368   */\n      dup3\n      add\n        /* \"#utility.yul\":9343:9405   */\n      mstore\n      shl(0x71, 0x31b2b4bb32b91034b6b83632b6b2b73a32b9)\n        /* \"#utility.yul\":9436:9438   */\n      0x60\n        /* \"#utility.yul\":9421:9439   */\n      dup3\n      add\n        /* \"#utility.yul\":9414:9462   */\n      mstore\n        /* \"#utility.yul\":9494:9497   */\n      0x80\n        /* \"#utility.yul\":9479:9498   */\n      add\n      swap1\n        /* \"#utility.yul\":9090:9504   */\n      jump\t// out\n        /* \"#utility.yul\":16401:16811   */\n    tag_268:\n        /* \"#utility.yul\":16603:16605   */\n      0x20\n        /* \"#utility.yul\":16585:16606   */\n      dup1\n      dup3\n      mstore\n        /* \"#utility.yul\":16642:16644   */\n      0x2e\n        /* \"#utility.yul\":16622:16640   */\n      swap1\n      dup3\n      add\n        /* \"#utility.yul\":16615:16645   */\n      mstore\n        /* \"#utility.yul\":16681:16715   */\n      0x4552433732313a2063616c6c6572206973206e6f7420746f6b656e206f776e65\n        /* \"#utility.yul\":16676:16678   */\n      0x40\n        /* \"#utility.yul\":16661:16679   */\n      dup3\n      add\n        /* \"#utility.yul\":16654:16716   */\n      mstore\n      shl(0x92, 0x1c881b9bdc88185c1c1c9bdd9959)\n        /* \"#utility.yul\":16747:16749   */\n      0x60\n        /* \"#utility.yul\":16732:16750   */\n      dup3\n      add\n        /* \"#utility.yul\":16725:16769   */\n      mstore\n        /* \"#utility.yul\":16801:16804   */\n      0x80\n        /* \"#utility.yul\":16786:16805   */\n      add\n      swap1\n        /* \"#utility.yul\":16401:16811   */\n      jump\t// out\n        /* \"#utility.yul\":17480:17608   */\n    tag_362:\n        /* \"#utility.yul\":17520:17523   */\n      0x00\n        /* \"#utility.yul\":17551:17552   */\n      dup3\n        /* \"#utility.yul\":17547:17553   */\n      not\n        /* \"#utility.yul\":17544:17545   */\n      dup3\n        /* \"#utility.yul\":17541:17554   */\n      gt\n        /* \"#utility.yul\":17538:17577   */\n      iszero\n      tag_737\n      jumpi\n        /* \"#utility.yul\":17557:17575   */\n      tag_737\n      tag_738\n      jump\t// in\n    tag_737:\n      pop\n        /* \"#utility.yul\":17593:17602   */\n      add\n      swap1\n        /* \"#utility.yul\":17480:17608   */\n      jump\t// out\n        /* \"#utility.yul\":17613:17733   */\n    tag_512:\n        /* \"#utility.yul\":17653:17654   */\n      0x00\n        /* \"#utility.yul\":17679:17680   */\n      dup3\n        /* \"#utility.yul\":17669:17704   */\n      tag_741\n      jumpi\n        /* \"#utility.yul\":17684:17702   */\n      tag_741\n      tag_742\n      jump\t// in\n    tag_741:\n      pop\n        /* \"#utility.yul\":17718:17727   */\n      div\n      swap1\n        /* \"#utility.yul\":17613:17733   */\n      jump\t// out\n        /* \"#utility.yul\":17738:17863   */\n    tag_479:\n        /* \"#utility.yul\":17778:17782   */\n      0x00\n        /* \"#utility.yul\":17806:17807   */\n      dup3\n        /* \"#utility.yul\":17803:17804   */\n      dup3\n        /* \"#utility.yul\":17800:17808   */\n      lt\n        /* \"#utility.yul\":17797:17831   */\n      iszero\n      tag_745\n      jumpi\n        /* \"#utility.yul\":17811:17829   */\n      tag_745\n      tag_738\n      jump\t// in\n    tag_745:\n      pop\n        /* \"#utility.yul\":17848:17857   */\n      sub\n      swap1\n        /* \"#utility.yul\":17738:17863   */\n      jump\t// out\n        /* \"#utility.yul\":17868:18126   */\n    tag_686:\n        /* \"#utility.yul\":17940:17941   */\n      0x00\n        /* \"#utility.yul\":17950:18063   */\n    tag_747:\n        /* \"#utility.yul\":17964:17970   */\n      dup4\n        /* \"#utility.yul\":17961:17962   */\n      dup2\n        /* \"#utility.yul\":17958:17971   */\n      lt\n        /* \"#utility.yul\":17950:18063   */\n      iszero\n      tag_749\n      jumpi\n        /* \"#utility.yul\":18040:18051   */\n      dup2\n      dup2\n      add\n        /* \"#utility.yul\":18034:18052   */\n      mload\n        /* \"#utility.yul\":18021:18032   */\n      dup4\n      dup3\n      add\n        /* \"#utility.yul\":18014:18053   */\n      mstore\n        /* \"#utility.yul\":17986:17988   */\n      0x20\n        /* \"#utility.yul\":17979:17989   */\n      add\n        /* \"#utility.yul\":17950:18063   */\n      jump(tag_747)\n    tag_749:\n        /* \"#utility.yul\":18081:18087   */\n      dup4\n        /* \"#utility.yul\":18078:18079   */\n      dup2\n        /* \"#utility.yul\":18075:18088   */\n      gt\n        /* \"#utility.yul\":18072:18120   */\n      iszero\n      tag_397\n      jumpi\n      pop\n      pop\n        /* \"#utility.yul\":18116:18117   */\n      0x00\n        /* \"#utility.yul\":18098:18114   */\n      swap2\n      add\n        /* \"#utility.yul\":18091:18118   */\n      mstore\n        /* \"#utility.yul\":17868:18126   */\n      jump\t// out\n        /* \"#utility.yul\":18131:18511   */\n    tag_238:\n        /* \"#utility.yul\":18210:18211   */\n      0x01\n        /* \"#utility.yul\":18206:18218   */\n      dup2\n      dup2\n      shr\n      swap1\n        /* \"#utility.yul\":18253:18265   */\n      dup3\n      and\n      dup1\n        /* \"#utility.yul\":18274:18335   */\n      tag_752\n      jumpi\n        /* \"#utility.yul\":18328:18332   */\n      0x7f\n        /* \"#utility.yul\":18320:18326   */\n      dup3\n        /* \"#utility.yul\":18316:18333   */\n      and\n        /* \"#utility.yul\":18306:18333   */\n      swap2\n      pop\n        /* \"#utility.yul\":18274:18335   */\n    tag_752:\n        /* \"#utility.yul\":18381:18383   */\n      0x20\n        /* \"#utility.yul\":18373:18379   */\n      dup3\n        /* \"#utility.yul\":18370:18384   */\n      lt\n        /* \"#utility.yul\":18350:18368   */\n      dup2\n        /* \"#utility.yul\":18347:18385   */\n      eq\n        /* \"#utility.yul\":18344:18505   */\n      iszero\n      tag_753\n      jumpi\n        /* \"#utility.yul\":18427:18437   */\n      0x4e487b71\n        /* \"#utility.yul\":18422:18425   */\n      0xe0\n        /* \"#utility.yul\":18418:18438   */\n      shl\n        /* \"#utility.yul\":18415:18416   */\n      0x00\n        /* \"#utility.yul\":18408:18439   */\n      mstore\n        /* \"#utility.yul\":18462:18466   */\n      0x22\n        /* \"#utility.yul\":18459:18460   */\n      0x04\n        /* \"#utility.yul\":18452:18467   */\n      mstore\n        /* \"#utility.yul\":18490:18494   */\n      0x24\n        /* \"#utility.yul\":18487:18488   */\n      0x00\n        /* \"#utility.yul\":18480:18495   */\n      revert\n        /* \"#utility.yul\":18344:18505   */\n    tag_753:\n      pop\n        /* \"#utility.yul\":18131:18511   */\n      swap2\n      swap1\n      pop\n      jump\t// out\n        /* \"#utility.yul\":18516:18651   */\n    tag_286:\n        /* \"#utility.yul\":18555:18558   */\n      0x00\n      not(0x00)\n        /* \"#utility.yul\":18576:18593   */\n      dup3\n      eq\n        /* \"#utility.yul\":18573:18616   */\n      iszero\n      tag_756\n      jumpi\n        /* \"#utility.yul\":18596:18614   */\n      tag_756\n      tag_738\n      jump\t// in\n    tag_756:\n      pop\n        /* \"#utility.yul\":18643:18644   */\n      0x01\n        /* \"#utility.yul\":18632:18645   */\n      add\n      swap1\n        /* \"#utility.yul\":18516:18651   */\n      jump\t// out\n        /* \"#utility.yul\":18656:18768   */\n    tag_520:\n        /* \"#utility.yul\":18688:18689   */\n      0x00\n        /* \"#utility.yul\":18714:18715   */\n      dup3\n        /* \"#utility.yul\":18704:18739   */\n      tag_759\n      jumpi\n        /* \"#utility.yul\":18719:18737   */\n      tag_759\n      tag_742\n      jump\t// in\n    tag_759:\n      pop\n        /* \"#utility.yul\":18753:18762   */\n      mod\n      swap1\n        /* \"#utility.yul\":18656:18768   */\n      jump\t// out\n        /* \"#utility.yul\":18773:18900   */\n    tag_738:\n        /* \"#utility.yul\":18834:18844   */\n      0x4e487b71\n        /* \"#utility.yul\":18829:18832   */\n      0xe0\n        /* \"#utility.yul\":18825:18845   */\n      shl\n        /* \"#utility.yul\":18822:18823   */\n      0x00\n        /* \"#utility.yul\":18815:18846   */\n      mstore\n        /* \"#utility.yul\":18865:18869   */\n      0x11\n        /* \"#utility.yul\":18862:18863   */\n      0x04\n        /* \"#utility.yul\":18855:18870   */\n      mstore\n        /* \"#utility.yul\":18889:18893   */\n      0x24\n        /* \"#utility.yul\":18886:18887   */\n      0x00\n        /* \"#utility.yul\":18879:18894   */\n      revert\n        /* \"#utility.yul\":18905:19032   */\n    tag_742:\n        /* \"#utility.yul\":18966:18976   */\n      0x4e487b71\n        /* \"#utility.yul\":18961:18964   */\n      0xe0\n        /* \"#utility.yul\":18957:18977   */\n      shl\n        /* \"#utility.yul\":18954:18955   */\n      0x00\n        /* \"#utility.yul\":18947:18978   */\n      mstore\n        /* \"#utility.yul\":18997:19001   */\n      0x12\n        /* \"#utility.yul\":18994:18995   */\n      0x04\n        /* \"#utility.yul\":18987:19002   */\n      mstore\n        /* \"#utility.yul\":19021:19025   */\n      0x24\n        /* \"#utility.yul\":19018:19019   */\n      0x00\n        /* \"#utility.yul\":19011:19026   */\n      revert\n        /* \"#utility.yul\":19037:19164   */\n    tag_589:\n        /* \"#utility.yul\":19098:19108   */\n      0x4e487b71\n        /* \"#utility.yul\":19093:19096   */\n      0xe0\n        /* \"#utility.yul\":19089:19109   */\n      shl\n        /* \"#utility.yul\":19086:19087   */\n      0x00\n        /* \"#utility.yul\":19079:19110   */\n      mstore\n        /* \"#utility.yul\":19129:19133   */\n      0x31\n        /* \"#utility.yul\":19126:19127   */\n      0x04\n        /* \"#utility.yul\":19119:19134   */\n      mstore\n        /* \"#utility.yul\":19153:19157   */\n      0x24\n        /* \"#utility.yul\":19150:19151   */\n      0x00\n        /* \"#utility.yul\":19143:19158   */\n      revert\n        /* \"#utility.yul\":19169:19296   */\n    tag_282:\n        /* \"#utility.yul\":19230:19240   */\n      0x4e487b71\n        /* \"#utility.yul\":19225:19228   */\n      0xe0\n        /* \"#utility.yul\":19221:19241   */\n      shl\n        /* \"#utility.yul\":19218:19219   */\n      0x00\n        /* \"#utility.yul\":19211:19242   */\n      mstore\n        /* \"#utility.yul\":19261:19265   */\n      0x32\n        /* \"#utility.yul\":19258:19259   */\n      0x04\n        /* \"#utility.yul\":19251:19266   */\n      mstore\n        /* \"#utility.yul\":19285:19289   */\n      0x24\n        /* \"#utility.yul\":19282:19283   */\n      0x00\n        /* \"#utility.yul\":19275:19290   */\n      revert\n        /* \"#utility.yul\":19301:19428   */\n    tag_306:\n        /* \"#utility.yul\":19362:19372   */\n      0x4e487b71\n        /* \"#utility.yul\":19357:19360   */\n      0xe0\n        /* \"#utility.yul\":19353:19373   */\n      shl\n        /* \"#utility.yul\":19350:19351   */\n      0x00\n        /* \"#utility.yul\":19343:19374   */\n      mstore\n        /* \"#utility.yul\":19393:19397   */\n      0x41\n        /* \"#utility.yul\":19390:19391   */\n      0x04\n        /* \"#utility.yul\":19383:19398   */\n      mstore\n        /* \"#utility.yul\":19417:19421   */\n      0x24\n        /* \"#utility.yul\":19414:19415   */\n      0x00\n        /* \"#utility.yul\":19407:19422   */\n      revert\n        /* \"#utility.yul\":19433:19564   */\n    tag_672:\n      not(sub(shl(0xe0, 0x01), 0x01))\n        /* \"#utility.yul\":19507:19539   */\n      dup2\n      and\n        /* \"#utility.yul\":19497:19540   */\n      dup2\n      eq\n        /* \"#utility.yul\":19487:19558   */\n      tag_299\n      jumpi\n        /* \"#utility.yul\":19554:19555   */\n      0x00\n        /* \"#utility.yul\":19551:19552   */\n      dup1\n        /* \"#utility.yul\":19544:19556   */\n      revert\n    stop\n    data_ca685d29ce80846512f986ff5a606b918a89362087363696372b9980fd8dc3fa 68747470733a2f2f6261666b726569636b7a63647863627967637a6f637a79726b7a7a696935686464677764346b32766b357767616d6d33706b3332356b3774686e792e697066732e6e667473746f726167652e6c696e6b2f\n\n    auxdata: 0xa2646970667358221220ac9391771df5b94ceba08a98493ed21ff90349ab497b953e17e8a2ef83e8ca7d64736f6c63430008070033\n}\n",
				"bytecode": {
					"linkReferences": {},
					"object": "60c06040526005608081905264173539b7b760d91b60a09081526200002891600c9190620001b0565b50600d80556002600e819055600f556010805461ffff19166101001790553480156200005357600080fd5b50604051620029f0380380620029f083398101604081905262000076916200030d565b8251839083906200008f906000906020850190620001b0565b508051620000a5906001906020840190620001b0565b505050620000c2620000bc620000d660201b60201c565b620000da565b620000cd816200012c565b505050620003f1565b3390565b600a80546001600160a01b038381166001600160a01b0319831681179093556040519116919082907f8be0079c531659141344cd1fd0a4f28419497f9722a3daafe3b4186f6b6457e090600090a35050565b620001366200014f565b80516200014b90600b906020840190620001b0565b5050565b600a546001600160a01b03163314620001ae5760405162461bcd60e51b815260206004820181905260248201527f4f776e61626c653a2063616c6c6572206973206e6f7420746865206f776e6572604482015260640160405180910390fd5b565b828054620001be906200039e565b90600052602060002090601f016020900481019282620001e257600085556200022d565b82601f10620001fd57805160ff19168380011785556200022d565b828001600101855582156200022d579182015b828111156200022d57825182559160200191906001019062000210565b506200023b9291506200023f565b5090565b5b808211156200023b576000815560010162000240565b600082601f8301126200026857600080fd5b81516001600160401b0380821115620002855762000285620003db565b604051601f8301601f19908116603f01168101908282118183101715620002b057620002b0620003db565b81604052838152602092508683858801011115620002cd57600080fd5b600091505b83821015620002f15785820183015181830184015290820190620002d2565b83821115620003035760008385830101525b9695505050505050565b6000806000606084860312156200032357600080fd5b83516001600160401b03808211156200033b57600080fd5b620003498783880162000256565b945060208601519150808211156200036057600080fd5b6200036e8783880162000256565b935060408601519150808211156200038557600080fd5b50620003948682870162000256565b9150509250925092565b600181811c90821680620003b357607f821691505b60208210811415620003d557634e487b7160e01b600052602260045260246000fd5b50919050565b634e487b7160e01b600052604160045260246000fd5b6125ef80620004016000396000f3fe6080604052600436106102305760003560e01c80636c0360eb1161012e578063ba7d2c76116100ab578063da3ef23f1161006f578063da3ef23f14610647578063e8a3d48514610667578063e985e9c51461067c578063edec5f27146106c5578063f2fde38b146106e557600080fd5b8063ba7d2c76146105c6578063c6682862146105dc578063c87b56dd146105f1578063d0eb26b014610611578063d5abeb011461063157600080fd5b80639c70b512116100f25780639c70b51214610534578063a0712d6814610553578063a22cb46514610566578063b88d4fde14610586578063ba4e5c49146105a657600080fd5b80636c0360eb146104b757806370a08231146104cc578063715018a6146104ec5780638da5cb5b1461050157806395d89b411461051f57600080fd5b80632f745c59116101bc578063438b630011610180578063438b6300146104105780634f6ccce71461043d57806355f804b31461045d5780635c975abb1461047d5780636352211e1461049757600080fd5b80632f745c59146103885780633af32abf146103a85780633c952764146103c85780633ccfd60b146103e857806342842e0e146103f057600080fd5b8063095ea7b311610203578063095ea7b3146102e657806318160ddd1461030657806318cae26914610325578063239c70ae1461035257806323b872dd1461036857600080fd5b806301ffc9a71461023557806302329a291461026a57806306fdde031461028c578063081812fc146102ae575b600080fd5b34801561024157600080fd5b50610255610250366004612143565b610705565b60405190151581526020015b60405180910390f35b34801561027657600080fd5b5061028a610285366004612128565b610730565b005b34801561029857600080fd5b506102a161074b565b6040516102619190612350565b3480156102ba57600080fd5b506102ce6102c93660046121c6565b6107dd565b6040516001600160a01b039091168152602001610261565b3480156102f257600080fd5b5061028a610301366004612089565b610804565b34801561031257600080fd5b506008545b604051908152602001610261565b34801561033157600080fd5b50610317610340366004611f59565b60126020526000908152604090205481565b34801561035e57600080fd5b50610317600e5481565b34801561037457600080fd5b5061028a610383366004611fa7565b61091f565b34801561039457600080fd5b506103176103a3366004612089565b610950565b3480156103b457600080fd5b506102556103c3366004611f59565b6109e6565b3480156103d457600080fd5b5061028a6103e3366004612128565b610a50565b61028a610a72565b3480156103fc57600080fd5b5061028a61040b366004611fa7565b610aee565b34801561041c57600080fd5b5061043061042b366004611f59565b610b09565b604051610261919061230c565b34801561044957600080fd5b506103176104583660046121c6565b610bab565b34801561046957600080fd5b5061028a61047836600461217d565b610c3e565b34801561048957600080fd5b506010546102559060ff1681565b3480156104a357600080fd5b506102ce6104b23660046121c6565b610c5d565b3480156104c357600080fd5b506102a1610cbd565b3480156104d857600080fd5b506103176104e7366004611f59565b610d4b565b3480156104f857600080fd5b5061028a610dd1565b34801561050d57600080fd5b50600a546001600160a01b03166102ce565b34801561052b57600080fd5b506102a1610de5565b34801561054057600080fd5b5060105461025590610100900460ff1681565b61028a6105613660046121c6565b610df4565b34801561057257600080fd5b5061028a61058136600461205f565b611089565b34801561059257600080fd5b5061028a6105a1366004611fe3565b611094565b3480156105b257600080fd5b506102ce6105c13660046121c6565b6110cc565b3480156105d257600080fd5b50610317600f5481565b3480156105e857600080fd5b506102a16110f6565b3480156105fd57600080fd5b506102a161060c3660046121c6565b611103565b34801561061d57600080fd5b5061028a61062c3660046121c6565b6111e1565b34801561063d57600080fd5b50610317600d5481565b34801561065357600080fd5b5061028a61066236600461217d565b6111ee565b34801561067357600080fd5b506102a1611209565b34801561068857600080fd5b50610255610697366004611f74565b6001600160a01b03918216600090815260056020908152604080832093909416825291909152205460ff1690565b3480156106d157600080fd5b5061028a6106e03660046120b3565b611229565b3480156106f157600080fd5b5061028a610700366004611f59565b611249565b60006001600160e01b0319821663780e9d6360e01b148061072a575061072a826112bf565b92915050565b61073861130f565b6010805460ff1916911515919091179055565b60606000805461075a90612472565b80601f016020809104026020016040519081016040528092919081815260200182805461078690612472565b80156107d35780601f106107a8576101008083540402835291602001916107d3565b820191906000526020600020905b8154815290600101906020018083116107b657829003601f168201915b5050505050905090565b60006107e882611369565b506000908152600460205260409020546001600160a01b031690565b600061080f82610c5d565b9050806001600160a01b0316836001600160a01b031614156108825760405162461bcd60e51b815260206004820152602160248201527f4552433732313a20617070726f76616c20746f2063757272656e74206f776e656044820152603960f91b60648201526084015b60405180910390fd5b336001600160a01b038216148061089e575061089e8133610697565b6109105760405162461bcd60e51b815260206004820152603e60248201527f4552433732313a20617070726f76652063616c6c6572206973206e6f7420746f60448201527f6b656e206f776e6572206e6f7220617070726f76656420666f7220616c6c00006064820152608401610879565b61091a83836113c8565b505050565b6109293382611436565b6109455760405162461bcd60e51b8152600401610879906123b5565b61091a8383836114b5565b600061095b83610d4b565b82106109bd5760405162461bcd60e51b815260206004820152602b60248201527f455243373231456e756d657261626c653a206f776e657220696e646578206f7560448201526a74206f6620626f756e647360a81b6064820152608401610879565b506001600160a01b03919091166000908152600660209081526040808320938352929052205490565b6000805b601154811015610a4757826001600160a01b031660118281548110610a1157610a1161251e565b6000918252602090912001546001600160a01b03161415610a355750600192915050565b80610a3f816124ad565b9150506109ea565b50600092915050565b610a5861130f565b601080549115156101000261ff0019909216919091179055565b610a7a61130f565b6000610a8e600a546001600160a01b031690565b6001600160a01b03164760405160006040518083038185875af1925050503d8060008114610ad8576040519150601f19603f3d011682016040523d82523d6000602084013e610add565b606091505b5050905080610aeb57600080fd5b50565b61091a83838360405180602001604052806000815250611094565b60606000610b1683610d4b565b905060008167ffffffffffffffff811115610b3357610b33612534565b604051908082528060200260200182016040528015610b5c578160200160208202803683370190505b50905060005b82811015610ba357610b748582610950565b828281518110610b8657610b8661251e565b602090810291909101015280610b9b816124ad565b915050610b62565b509392505050565b6000610bb660085490565b8210610c195760405162461bcd60e51b815260206004820152602c60248201527f455243373231456e756d657261626c653a20676c6f62616c20696e646578206f60448201526b7574206f6620626f756e647360a01b6064820152608401610879565b60088281548110610c2c57610c2c61251e565b90600052602060002001549050919050565b610c4661130f565b8051610c5990600b906020840190611dad565b5050565b6000818152600260205260408120546001600160a01b03168061072a5760405162461bcd60e51b8152602060048201526018602482015277115490cdcc8c4e881a5b9d985b1a59081d1bdad95b88125160421b6044820152606401610879565b600b8054610cca90612472565b80601f0160208091040260200160405190810160405280929190818152602001828054610cf690612472565b8015610d435780601f10610d1857610100808354040283529160200191610d43565b820191906000526020600020905b815481529060010190602001808311610d2657829003601f168201915b505050505081565b60006001600160a01b038216610db55760405162461bcd60e51b815260206004820152602960248201527f4552433732313a2061646472657373207a65726f206973206e6f7420612076616044820152683634b21037bbb732b960b91b6064820152608401610879565b506001600160a01b031660009081526003602052604090205490565b610dd961130f565b610de3600061165c565b565b60606001805461075a90612472565b60105460ff1615610e405760405162461bcd60e51b81526020600482015260166024820152751d1a194818dbdb9d1c9858dd081a5cc81c185d5cd95960521b6044820152606401610879565b6000610e4b60085490565b905060008211610e9d5760405162461bcd60e51b815260206004820152601b60248201527f6e65656420746f206d696e74206174206c656173742031204e465400000000006044820152606401610879565b600d54610eaa8383612403565b1115610ef15760405162461bcd60e51b81526020600482015260166024820152751b585e08139195081b1a5b5a5d08195e18d95959195960521b6044820152606401610879565b600a546001600160a01b0316331461103957600e54821115610f615760405162461bcd60e51b8152602060048201526024808201527f6d6178206d696e7420616d6f756e74207065722073657373696f6e20657863656044820152631959195960e21b6064820152608401610879565b60105460ff6101009091041615156001141561103957610f80336109e6565b610fcc5760405162461bcd60e51b815260206004820152601760248201527f75736572206973206e6f742077686974656c69737465640000000000000000006044820152606401610879565b33600090815260126020526040902054600f54610fe98483612403565b11156110375760405162461bcd60e51b815260206004820152601c60248201527f6d6178204e4654207065722061646472657373206578636565646564000000006044820152606401610879565b505b60015b82811161091a5733600090815260126020526040812080549161105e836124ad565b909155506110779050336110728385612403565b6116ae565b80611081816124ad565b91505061103c565b610c593383836116c8565b61109e3383611436565b6110ba5760405162461bcd60e51b8152600401610879906123b5565b6110c684848484611797565b50505050565b601181815481106110dc57600080fd5b6000918252602090912001546001600160a01b0316905081565b600c8054610cca90612472565b6000818152600260205260409020546060906001600160a01b03166111825760405162461bcd60e51b815260206004820152602f60248201527f4552433732314d657461646174613a2055524920717565727920666f72206e6f60448201526e3732bc34b9ba32b73a103a37b5b2b760891b6064820152608401610879565b600061118c6117ca565b905060008151116111ac57604051806020016040528060008152506111da565b806111b6846117d9565b600c6040516020016111ca9392919061220b565b6040516020818303038152906040525b9392505050565b6111e961130f565b600f55565b6111f661130f565b8051610c5990600c906020840190611dad565b606060405180608001604052806059815260200161256160599139905090565b61123161130f565b61123d60116000611e31565b61091a60118383611e4f565b61125161130f565b6001600160a01b0381166112b65760405162461bcd60e51b815260206004820152602660248201527f4f776e61626c653a206e6577206f776e657220697320746865207a65726f206160448201526564647265737360d01b6064820152608401610879565b610aeb8161165c565b60006001600160e01b031982166380ac58cd60e01b14806112f057506001600160e01b03198216635b5e139f60e01b145b8061072a57506301ffc9a760e01b6001600160e01b031983161461072a565b600a546001600160a01b03163314610de35760405162461bcd60e51b815260206004820181905260248201527f4f776e61626c653a2063616c6c6572206973206e6f7420746865206f776e65726044820152606401610879565b6000818152600260205260409020546001600160a01b0316610aeb5760405162461bcd60e51b8152602060048201526018602482015277115490cdcc8c4e881a5b9d985b1a59081d1bdad95b88125160421b6044820152606401610879565b600081815260046020526040902080546001600160a01b0319166001600160a01b03841690811790915581906113fd82610c5d565b6001600160a01b03167f8c5be1e5ebec7d5bd14f71427d1e84f3dd0314c0f7b2291e5b200ac8c7c3b92560405160405180910390a45050565b60008061144283610c5d565b9050806001600160a01b0316846001600160a01b0316148061148957506001600160a01b0380821660009081526005602090815260408083209388168352929052205460ff165b806114ad5750836001600160a01b03166114a2846107dd565b6001600160a01b0316145b949350505050565b826001600160a01b03166114c882610c5d565b6001600160a01b03161461152c5760405162461bcd60e51b815260206004820152602560248201527f4552433732313a207472616e736665722066726f6d20696e636f72726563742060448201526437bbb732b960d91b6064820152608401610879565b6001600160a01b03821661158e5760405162461bcd60e51b8152602060048201526024808201527f4552433732313a207472616e7366657220746f20746865207a65726f206164646044820152637265737360e01b6064820152608401610879565b6115998383836118d7565b6115a46000826113c8565b6001600160a01b03831660009081526003602052604081208054600192906115cd90849061242f565b90915550506001600160a01b03821660009081526003602052604081208054600192906115fb908490612403565b909155505060008181526002602052604080822080546001600160a01b0319166001600160a01b0386811691821790925591518493918716917fddf252ad1be2c89b69c2b068fc378daa952ba7f163c4a11628f55a4df523b3ef91a4505050565b600a80546001600160a01b038381166001600160a01b0319831681179093556040519116919082907f8be0079c531659141344cd1fd0a4f28419497f9722a3daafe3b4186f6b6457e090600090a35050565b610c5982826040518060200160405280600081525061198f565b816001600160a01b0316836001600160a01b0316141561172a5760405162461bcd60e51b815260206004820152601960248201527f4552433732313a20617070726f766520746f2063616c6c6572000000000000006044820152606401610879565b6001600160a01b03838116600081815260056020908152604080832094871680845294825291829020805460ff191686151590811790915591519182527f17307eab39ab6107e8899845ad3d59bd9653f200f220920489ca2b5937696c31910160405180910390a3505050565b6117a28484846114b5565b6117ae848484846119c2565b6110c65760405162461bcd60e51b815260040161087990612363565b6060600b805461075a90612472565b6060816117fd5750506040805180820190915260018152600360fc1b602082015290565b8160005b81156118275780611811816124ad565b91506118209050600a8361241b565b9150611801565b60008167ffffffffffffffff81111561184257611842612534565b6040519080825280601f01601f19166020018201604052801561186c576020820181803683370190505b5090505b84156114ad5761188160018361242f565b915061188e600a866124c8565b611899906030612403565b60f81b8183815181106118ae576118ae61251e565b60200101906001600160f81b031916908160001a9053506118d0600a8661241b565b9450611870565b6001600160a01b0383166119325761192d81600880546000838152600960205260408120829055600182018355919091527ff3f7a9fe364faab93b216da50a3214154f22a0a2b415b23a84c8169e8b636ee30155565b611955565b816001600160a01b0316836001600160a01b031614611955576119558382611acf565b6001600160a01b03821661196c5761091a81611b6c565b826001600160a01b0316826001600160a01b03161461091a5761091a8282611c1b565b6119998383611c5f565b6119a660008484846119c2565b61091a5760405162461bcd60e51b815260040161087990612363565b60006001600160a01b0384163b15611ac457604051630a85bd0160e11b81526001600160a01b0385169063150b7a0290611a069033908990889088906004016122cf565b602060405180830381600087803b158015611a2057600080fd5b505af1925050508015611a50575060408051601f3d908101601f19168201909252611a4d91810190612160565b60015b611aaa573d808015611a7e576040519150601f19603f3d011682016040523d82523d6000602084013e611a83565b606091505b508051611aa25760405162461bcd60e51b815260040161087990612363565b805181602001fd5b6001600160e01b031916630a85bd0160e11b1490506114ad565b506001949350505050565b60006001611adc84610d4b565b611ae6919061242f565b600083815260076020526040902054909150808214611b39576001600160a01b03841660009081526006602090815260408083208584528252808320548484528184208190558352600790915290208190555b5060009182526007602090815260408084208490556001600160a01b039094168352600681528383209183525290812055565b600854600090611b7e9060019061242f565b60008381526009602052604081205460088054939450909284908110611ba657611ba661251e565b906000526020600020015490508060088381548110611bc757611bc761251e565b6000918252602080832090910192909255828152600990915260408082208490558582528120556008805480611bff57611bff612508565b6001900381819060005260206000200160009055905550505050565b6000611c2683610d4b565b6001600160a01b039093166000908152600660209081526040808320868452825280832085905593825260079052919091209190915550565b6001600160a01b038216611cb55760405162461bcd60e51b815260206004820181905260248201527f4552433732313a206d696e7420746f20746865207a65726f20616464726573736044820152606401610879565b6000818152600260205260409020546001600160a01b031615611d1a5760405162461bcd60e51b815260206004820152601c60248201527f4552433732313a20746f6b656e20616c7265616479206d696e746564000000006044820152606401610879565b611d26600083836118d7565b6001600160a01b0382166000908152600360205260408120805460019290611d4f908490612403565b909155505060008181526002602052604080822080546001600160a01b0319166001600160a01b03861690811790915590518392907fddf252ad1be2c89b69c2b068fc378daa952ba7f163c4a11628f55a4df523b3ef908290a45050565b828054611db990612472565b90600052602060002090601f016020900481019282611ddb5760008555611e21565b82601f10611df457805160ff1916838001178555611e21565b82800160010185558215611e21579182015b82811115611e21578251825591602001919060010190611e06565b50611e2d929150611ea2565b5090565b5080546000825590600052602060002090810190610aeb9190611ea2565b828054828255906000526020600020908101928215611e21579160200282015b82811115611e215781546001600160a01b0319166001600160a01b03843516178255602090920191600190910190611e6f565b5b80821115611e2d5760008155600101611ea3565b600067ffffffffffffffff80841115611ed257611ed2612534565b604051601f8501601f19908116603f01168101908282118183101715611efa57611efa612534565b81604052809350858152868686011115611f1357600080fd5b858560208301376000602087830101525050509392505050565b80356001600160a01b0381168114611f4457600080fd5b919050565b80358015158114611f4457600080fd5b600060208284031215611f6b57600080fd5b6111da82611f2d565b60008060408385031215611f8757600080fd5b611f9083611f2d565b9150611f9e60208401611f2d565b90509250929050565b600080600060608486031215611fbc57600080fd5b611fc584611f2d565b9250611fd360208501611f2d565b9150604084013590509250925092565b60008060008060808587031215611ff957600080fd5b61200285611f2d565b935061201060208601611f2d565b925060408501359150606085013567ffffffffffffffff81111561203357600080fd5b8501601f8101871361204457600080fd5b61205387823560208401611eb7565b91505092959194509250565b6000806040838503121561207257600080fd5b61207b83611f2d565b9150611f9e60208401611f49565b6000806040838503121561209c57600080fd5b6120a583611f2d565b946020939093013593505050565b600080602083850312156120c657600080fd5b823567ffffffffffffffff808211156120de57600080fd5b818501915085601f8301126120f257600080fd5b81358181111561210157600080fd5b8660208260051b850101111561211657600080fd5b60209290920196919550909350505050565b60006020828403121561213a57600080fd5b6111da82611f49565b60006020828403121561215557600080fd5b81356111da8161254a565b60006020828403121561217257600080fd5b81516111da8161254a565b60006020828403121561218f57600080fd5b813567ffffffffffffffff8111156121a657600080fd5b8201601f810184136121b757600080fd5b6114ad84823560208401611eb7565b6000602082840312156121d857600080fd5b5035919050565b600081518084526121f7816020860160208601612446565b601f01601f19169290920160200192915050565b60008451602061221e8285838a01612446565b8551918401916122318184848a01612446565b8554920191600090600181811c908083168061224e57607f831692505b85831081141561226c57634e487b7160e01b85526022600452602485fd5b8080156122805760018114612291576122be565b60ff198516885283880195506122be565b60008b81526020902060005b858110156122b65781548a82015290840190880161229d565b505083880195505b50939b9a5050505050505050505050565b6001600160a01b0385811682528416602082015260408101839052608060608201819052600090612302908301846121df565b9695505050505050565b6020808252825182820181905260009190848201906040850190845b8181101561234457835183529284019291840191600101612328565b50909695505050505050565b6020815260006111da60208301846121df565b60208082526032908201527f4552433732313a207472616e7366657220746f206e6f6e20455243373231526560408201527131b2b4bb32b91034b6b83632b6b2b73a32b960711b606082015260800190565b6020808252602e908201527f4552433732313a2063616c6c6572206973206e6f7420746f6b656e206f776e6560408201526d1c881b9bdc88185c1c1c9bdd995960921b606082015260800190565b60008219821115612416576124166124dc565b500190565b60008261242a5761242a6124f2565b500490565b600082821015612441576124416124dc565b500390565b60005b83811015612461578181015183820152602001612449565b838111156110c65750506000910152565b600181811c9082168061248657607f821691505b602082108114156124a757634e487b7160e01b600052602260045260246000fd5b50919050565b60006000198214156124c1576124c16124dc565b5060010190565b6000826124d7576124d76124f2565b500690565b634e487b7160e01b600052601160045260246000fd5b634e487b7160e01b600052601260045260246000fd5b634e487b7160e01b600052603160045260246000fd5b634e487b7160e01b600052603260045260246000fd5b634e487b7160e01b600052604160045260246000fd5b6001600160e01b031981168114610aeb57600080fdfe68747470733a2f2f6261666b726569636b7a63647863627967637a6f637a79726b7a7a696935686464677764346b32766b357767616d6d33706b3332356b3774686e792e697066732e6e667473746f726167652e6c696e6b2fa2646970667358221220ac9391771df5b94ceba08a98493ed21ff90349ab497b953e17e8a2ef83e8ca7d64736f6c63430008070033",
					"opcodes": "PUSH1 0xC0 PUSH1 0x40 MSTORE PUSH1 0x5 PUSH1 0x80 DUP2 SWAP1 MSTORE PUSH5 0x173539B7B7 PUSH1 0xD9 SHL PUSH1 0xA0 SWAP1 DUP2 MSTORE PUSH3 0x28 SWAP2 PUSH1 0xC SWAP2 SWAP1 PUSH3 0x1B0 JUMP JUMPDEST POP PUSH1 0xD DUP1 SSTORE PUSH1 0x2 PUSH1 0xE DUP2 SWAP1 SSTORE PUSH1 0xF SSTORE PUSH1 0x10 DUP1 SLOAD PUSH2 0xFFFF NOT AND PUSH2 0x100 OR SWAP1 SSTORE CALLVALUE DUP1 ISZERO PUSH3 0x53 JUMPI PUSH1 0x0 DUP1 REVERT JUMPDEST POP PUSH1 0x40 MLOAD PUSH3 0x29F0 CODESIZE SUB DUP1 PUSH3 0x29F0 DUP4 CODECOPY DUP2 ADD PUSH1 0x40 DUP2 SWAP1 MSTORE PUSH3 0x76 SWAP2 PUSH3 0x30D JUMP JUMPDEST DUP3 MLOAD DUP4 SWAP1 DUP4 SWAP1 PUSH3 0x8F SWAP1 PUSH1 0x0 SWAP1 PUSH1 0x20 DUP6 ADD SWAP1 PUSH3 0x1B0 JUMP JUMPDEST POP DUP1 MLOAD PUSH3 0xA5 SWAP1 PUSH1 0x1 SWAP1 PUSH1 0x20 DUP5 ADD SWAP1 PUSH3 0x1B0 JUMP JUMPDEST POP POP POP PUSH3 0xC2 PUSH3 0xBC PUSH3 0xD6 PUSH1 0x20 SHL PUSH1 0x20 SHR JUMP JUMPDEST PUSH3 0xDA JUMP JUMPDEST PUSH3 0xCD DUP2 PUSH3 0x12C JUMP JUMPDEST POP POP POP PUSH3 0x3F1 JUMP JUMPDEST CALLER SWAP1 JUMP JUMPDEST PUSH1 0xA DUP1 SLOAD PUSH1 0x1 PUSH1 0x1 PUSH1 0xA0 SHL SUB DUP4 DUP2 AND PUSH1 0x1 PUSH1 0x1 PUSH1 0xA0 SHL SUB NOT DUP4 AND DUP2 OR SWAP1 SWAP4 SSTORE PUSH1 0x40 MLOAD SWAP2 AND SWAP2 SWAP1 DUP3 SWAP1 PUSH32 0x8BE0079C531659141344CD1FD0A4F28419497F9722A3DAAFE3B4186F6B6457E0 SWAP1 PUSH1 0x0 SWAP1 LOG3 POP POP JUMP JUMPDEST PUSH3 0x136 PUSH3 0x14F JUMP JUMPDEST DUP1 MLOAD PUSH3 0x14B SWAP1 PUSH1 0xB SWAP1 PUSH1 0x20 DUP5 ADD SWAP1 PUSH3 0x1B0 JUMP JUMPDEST POP POP JUMP JUMPDEST PUSH1 0xA SLOAD PUSH1 0x1 PUSH1 0x1 PUSH1 0xA0 SHL SUB AND CALLER EQ PUSH3 0x1AE JUMPI PUSH1 0x40 MLOAD PUSH3 0x461BCD PUSH1 0xE5 SHL DUP2 MSTORE PUSH1 0x20 PUSH1 0x4 DUP3 ADD DUP2 SWAP1 MSTORE PUSH1 0x24 DUP3 ADD MSTORE PUSH32 0x4F776E61626C653A2063616C6C6572206973206E6F7420746865206F776E6572 PUSH1 0x44 DUP3 ADD MSTORE PUSH1 0x64 ADD PUSH1 0x40 MLOAD DUP1 SWAP2 SUB SWAP1 REVERT JUMPDEST JUMP JUMPDEST DUP3 DUP1 SLOAD PUSH3 0x1BE SWAP1 PUSH3 0x39E JUMP JUMPDEST SWAP1 PUSH1 0x0 MSTORE PUSH1 0x20 PUSH1 0x0 KECCAK256 SWAP1 PUSH1 0x1F ADD PUSH1 0x20 SWAP1 DIV DUP2 ADD SWAP3 DUP3 PUSH3 0x1E2 JUMPI PUSH1 0x0 DUP6 SSTORE PUSH3 0x22D JUMP JUMPDEST DUP3 PUSH1 0x1F LT PUSH3 0x1FD JUMPI DUP1 MLOAD PUSH1 0xFF NOT AND DUP4 DUP1 ADD OR DUP6 SSTORE PUSH3 0x22D JUMP JUMPDEST DUP3 DUP1 ADD PUSH1 0x1 ADD DUP6 SSTORE DUP3 ISZERO PUSH3 0x22D JUMPI SWAP2 DUP3 ADD JUMPDEST DUP3 DUP2 GT ISZERO PUSH3 0x22D JUMPI DUP3 MLOAD DUP3 SSTORE SWAP2 PUSH1 0x20 ADD SWAP2 SWAP1 PUSH1 0x1 ADD SWAP1 PUSH3 0x210 JUMP JUMPDEST POP PUSH3 0x23B SWAP3 SWAP2 POP PUSH3 0x23F JUMP JUMPDEST POP SWAP1 JUMP JUMPDEST JUMPDEST DUP1 DUP3 GT ISZERO PUSH3 0x23B JUMPI PUSH1 0x0 DUP2 SSTORE PUSH1 0x1 ADD PUSH3 0x240 JUMP JUMPDEST PUSH1 0x0 DUP3 PUSH1 0x1F DUP4 ADD SLT PUSH3 0x268 JUMPI PUSH1 0x0 DUP1 REVERT JUMPDEST DUP2 MLOAD PUSH1 0x1 PUSH1 0x1 PUSH1 0x40 SHL SUB DUP1 DUP3 GT ISZERO PUSH3 0x285 JUMPI PUSH3 0x285 PUSH3 0x3DB JUMP JUMPDEST PUSH1 0x40 MLOAD PUSH1 0x1F DUP4 ADD PUSH1 0x1F NOT SWAP1 DUP2 AND PUSH1 0x3F ADD AND DUP2 ADD SWAP1 DUP3 DUP3 GT DUP2 DUP4 LT OR ISZERO PUSH3 0x2B0 JUMPI PUSH3 0x2B0 PUSH3 0x3DB JUMP JUMPDEST DUP2 PUSH1 0x40 MSTORE DUP4 DUP2 MSTORE PUSH1 0x20 SWAP3 POP DUP7 DUP4 DUP6 DUP9 ADD ADD GT ISZERO PUSH3 0x2CD JUMPI PUSH1 0x0 DUP1 REVERT JUMPDEST PUSH1 0x0 SWAP2 POP JUMPDEST DUP4 DUP3 LT ISZERO PUSH3 0x2F1 JUMPI DUP6 DUP3 ADD DUP4 ADD MLOAD DUP2 DUP4 ADD DUP5 ADD MSTORE SWAP1 DUP3 ADD SWAP1 PUSH3 0x2D2 JUMP JUMPDEST DUP4 DUP3 GT ISZERO PUSH3 0x303 JUMPI PUSH1 0x0 DUP4 DUP6 DUP4 ADD ADD MSTORE JUMPDEST SWAP7 SWAP6 POP POP POP POP POP POP JUMP JUMPDEST PUSH1 0x0 DUP1 PUSH1 0x0 PUSH1 0x60 DUP5 DUP7 SUB SLT ISZERO PUSH3 0x323 JUMPI PUSH1 0x0 DUP1 REVERT JUMPDEST DUP4 MLOAD PUSH1 0x1 PUSH1 0x1 PUSH1 0x40 SHL SUB DUP1 DUP3 GT ISZERO PUSH3 0x33B JUMPI PUSH1 0x0 DUP1 REVERT JUMPDEST PUSH3 0x349 DUP8 DUP4 DUP9 ADD PUSH3 0x256 JUMP JUMPDEST SWAP5 POP PUSH1 0x20 DUP7 ADD MLOAD SWAP2 POP DUP1 DUP3 GT ISZERO PUSH3 0x360 JUMPI PUSH1 0x0 DUP1 REVERT JUMPDEST PUSH3 0x36E DUP8 DUP4 DUP9 ADD PUSH3 0x256 JUMP JUMPDEST SWAP4 POP PUSH1 0x40 DUP7 ADD MLOAD SWAP2 POP DUP1 DUP3 GT ISZERO PUSH3 0x385 JUMPI PUSH1 0x0 DUP1 REVERT JUMPDEST POP PUSH3 0x394 DUP7 DUP3 DUP8 ADD PUSH3 0x256 JUMP JUMPDEST SWAP2 POP POP SWAP3 POP SWAP3 POP SWAP3 JUMP JUMPDEST PUSH1 0x1 DUP2 DUP2 SHR SWAP1 DUP3 AND DUP1 PUSH3 0x3B3 JUMPI PUSH1 0x7F DUP3 AND SWAP2 POP JUMPDEST PUSH1 0x20 DUP3 LT DUP2 EQ ISZERO PUSH3 0x3D5 JUMPI PUSH4 0x4E487B71 PUSH1 0xE0 SHL PUSH1 0x0 MSTORE PUSH1 0x22 PUSH1 0x4 MSTORE PUSH1 0x24 PUSH1 0x0 REVERT JUMPDEST POP SWAP2 SWAP1 POP JUMP JUMPDEST PUSH4 0x4E487B71 PUSH1 0xE0 SHL PUSH1 0x0 MSTORE PUSH1 0x41 PUSH1 0x4 MSTORE PUSH1 0x24 PUSH1 0x0 REVERT JUMPDEST PUSH2 0x25EF DUP1 PUSH3 0x401 PUSH1 0x0 CODECOPY PUSH1 0x0 RETURN INVALID PUSH1 0x80 PUSH1 0x40 MSTORE PUSH1 0x4 CALLDATASIZE LT PUSH2 0x230 JUMPI PUSH1 0x0 CALLDATALOAD PUSH1 0xE0 SHR DUP1 PUSH4 0x6C0360EB GT PUSH2 0x12E JUMPI DUP1 PUSH4 0xBA7D2C76 GT PUSH2 0xAB JUMPI DUP1 PUSH4 0xDA3EF23F GT PUSH2 0x6F JUMPI DUP1 PUSH4 0xDA3EF23F EQ PUSH2 0x647 JUMPI DUP1 PUSH4 0xE8A3D485 EQ PUSH2 0x667 JUMPI DUP1 PUSH4 0xE985E9C5 EQ PUSH2 0x67C JUMPI DUP1 PUSH4 0xEDEC5F27 EQ PUSH2 0x6C5 JUMPI DUP1 PUSH4 0xF2FDE38B EQ PUSH2 0x6E5 JUMPI PUSH1 0x0 DUP1 REVERT JUMPDEST DUP1 PUSH4 0xBA7D2C76 EQ PUSH2 0x5C6 JUMPI DUP1 PUSH4 0xC6682862 EQ PUSH2 0x5DC JUMPI DUP1 PUSH4 0xC87B56DD EQ PUSH2 0x5F1 JUMPI DUP1 PUSH4 0xD0EB26B0 EQ PUSH2 0x611 JUMPI DUP1 PUSH4 0xD5ABEB01 EQ PUSH2 0x631 JUMPI PUSH1 0x0 DUP1 REVERT JUMPDEST DUP1 PUSH4 0x9C70B512 GT PUSH2 0xF2 JUMPI DUP1 PUSH4 0x9C70B512 EQ PUSH2 0x534 JUMPI DUP1 PUSH4 0xA0712D68 EQ PUSH2 0x553 JUMPI DUP1 PUSH4 0xA22CB465 EQ PUSH2 0x566 JUMPI DUP1 PUSH4 0xB88D4FDE EQ PUSH2 0x586 JUMPI DUP1 PUSH4 0xBA4E5C49 EQ PUSH2 0x5A6 JUMPI PUSH1 0x0 DUP1 REVERT JUMPDEST DUP1 PUSH4 0x6C0360EB EQ PUSH2 0x4B7 JUMPI DUP1 PUSH4 0x70A08231 EQ PUSH2 0x4CC JUMPI DUP1 PUSH4 0x715018A6 EQ PUSH2 0x4EC JUMPI DUP1 PUSH4 0x8DA5CB5B EQ PUSH2 0x501 JUMPI DUP1 PUSH4 0x95D89B41 EQ PUSH2 0x51F JUMPI PUSH1 0x0 DUP1 REVERT JUMPDEST DUP1 PUSH4 0x2F745C59 GT PUSH2 0x1BC JUMPI DUP1 PUSH4 0x438B6300 GT PUSH2 0x180 JUMPI DUP1 PUSH4 0x438B6300 EQ PUSH2 0x410 JUMPI DUP1 PUSH4 0x4F6CCCE7 EQ PUSH2 0x43D JUMPI DUP1 PUSH4 0x55F804B3 EQ PUSH2 0x45D JUMPI DUP1 PUSH4 0x5C975ABB EQ PUSH2 0x47D JUMPI DUP1 PUSH4 0x6352211E EQ PUSH2 0x497 JUMPI PUSH1 0x0 DUP1 REVERT JUMPDEST DUP1 PUSH4 0x2F745C59 EQ PUSH2 0x388 JUMPI DUP1 PUSH4 0x3AF32ABF EQ PUSH2 0x3A8 JUMPI DUP1 PUSH4 0x3C952764 EQ PUSH2 0x3C8 JUMPI DUP1 PUSH4 0x3CCFD60B EQ PUSH2 0x3E8 JUMPI DUP1 PUSH4 0x42842E0E EQ PUSH2 0x3F0 JUMPI PUSH1 0x0 DUP1 REVERT JUMPDEST DUP1 PUSH4 0x95EA7B3 GT PUSH2 0x203 JUMPI DUP1 PUSH4 0x95EA7B3 EQ PUSH2 0x2E6 JUMPI DUP1 PUSH4 0x18160DDD EQ PUSH2 0x306 JUMPI DUP1 PUSH4 0x18CAE269 EQ PUSH2 0x325 JUMPI DUP1 PUSH4 0x239C70AE EQ PUSH2 0x352 JUMPI DUP1 PUSH4 0x23B872DD EQ PUSH2 0x368 JUMPI PUSH1 0x0 DUP1 REVERT JUMPDEST DUP1 PUSH4 0x1FFC9A7 EQ PUSH2 0x235 JUMPI DUP1 PUSH4 0x2329A29 EQ PUSH2 0x26A JUMPI DUP1 PUSH4 0x6FDDE03 EQ PUSH2 0x28C JUMPI DUP1 PUSH4 0x81812FC EQ PUSH2 0x2AE JUMPI JUMPDEST PUSH1 0x0 DUP1 REVERT JUMPDEST CALLVALUE DUP1 ISZERO PUSH2 0x241 JUMPI PUSH1 0x0 DUP1 REVERT JUMPDEST POP PUSH2 0x255 PUSH2 0x250 CALLDATASIZE PUSH1 0x4 PUSH2 0x2143 JUMP JUMPDEST PUSH2 0x705 JUMP JUMPDEST PUSH1 0x40 MLOAD SWAP1 ISZERO ISZERO DUP2 MSTORE PUSH1 0x20 ADD JUMPDEST PUSH1 0x40 MLOAD DUP1 SWAP2 SUB SWAP1 RETURN JUMPDEST CALLVALUE DUP1 ISZERO PUSH2 0x276 JUMPI PUSH1 0x0 DUP1 REVERT JUMPDEST POP PUSH2 0x28A PUSH2 0x285 CALLDATASIZE PUSH1 0x4 PUSH2 0x2128 JUMP JUMPDEST PUSH2 0x730 JUMP JUMPDEST STOP JUMPDEST CALLVALUE DUP1 ISZERO PUSH2 0x298 JUMPI PUSH1 0x0 DUP1 REVERT JUMPDEST POP PUSH2 0x2A1 PUSH2 0x74B JUMP JUMPDEST PUSH1 0x40 MLOAD PUSH2 0x261 SWAP2 SWAP1 PUSH2 0x2350 JUMP JUMPDEST CALLVALUE DUP1 ISZERO PUSH2 0x2BA JUMPI PUSH1 0x0 DUP1 REVERT JUMPDEST POP PUSH2 0x2CE PUSH2 0x2C9 CALLDATASIZE PUSH1 0x4 PUSH2 0x21C6 JUMP JUMPDEST PUSH2 0x7DD JUMP JUMPDEST PUSH1 0x40 MLOAD PUSH1 0x1 PUSH1 0x1 PUSH1 0xA0 SHL SUB SWAP1 SWAP2 AND DUP2 MSTORE PUSH1 0x20 ADD PUSH2 0x261 JUMP JUMPDEST CALLVALUE DUP1 ISZERO PUSH2 0x2F2 JUMPI PUSH1 0x0 DUP1 REVERT JUMPDEST POP PUSH2 0x28A PUSH2 0x301 CALLDATASIZE PUSH1 0x4 PUSH2 0x2089 JUMP JUMPDEST PUSH2 0x804 JUMP JUMPDEST CALLVALUE DUP1 ISZERO PUSH2 0x312 JUMPI PUSH1 0x0 DUP1 REVERT JUMPDEST POP PUSH1 0x8 SLOAD JUMPDEST PUSH1 0x40 MLOAD SWAP1 DUP2 MSTORE PUSH1 0x20 ADD PUSH2 0x261 JUMP JUMPDEST CALLVALUE DUP1 ISZERO PUSH2 0x331 JUMPI PUSH1 0x0 DUP1 REVERT JUMPDEST POP PUSH2 0x317 PUSH2 0x340 CALLDATASIZE PUSH1 0x4 PUSH2 0x1F59 JUMP JUMPDEST PUSH1 0x12 PUSH1 0x20 MSTORE PUSH1 0x0 SWAP1 DUP2 MSTORE PUSH1 0x40 SWAP1 KECCAK256 SLOAD DUP2 JUMP JUMPDEST CALLVALUE DUP1 ISZERO PUSH2 0x35E JUMPI PUSH1 0x0 DUP1 REVERT JUMPDEST POP PUSH2 0x317 PUSH1 0xE SLOAD DUP2 JUMP JUMPDEST CALLVALUE DUP1 ISZERO PUSH2 0x374 JUMPI PUSH1 0x0 DUP1 REVERT JUMPDEST POP PUSH2 0x28A PUSH2 0x383 CALLDATASIZE PUSH1 0x4 PUSH2 0x1FA7 JUMP JUMPDEST PUSH2 0x91F JUMP JUMPDEST CALLVALUE DUP1 ISZERO PUSH2 0x394 JUMPI PUSH1 0x0 DUP1 REVERT JUMPDEST POP PUSH2 0x317 PUSH2 0x3A3 CALLDATASIZE PUSH1 0x4 PUSH2 0x2089 JUMP JUMPDEST PUSH2 0x950 JUMP JUMPDEST CALLVALUE DUP1 ISZERO PUSH2 0x3B4 JUMPI PUSH1 0x0 DUP1 REVERT JUMPDEST POP PUSH2 0x255 PUSH2 0x3C3 CALLDATASIZE PUSH1 0x4 PUSH2 0x1F59 JUMP JUMPDEST PUSH2 0x9E6 JUMP JUMPDEST CALLVALUE DUP1 ISZERO PUSH2 0x3D4 JUMPI PUSH1 0x0 DUP1 REVERT JUMPDEST POP PUSH2 0x28A PUSH2 0x3E3 CALLDATASIZE PUSH1 0x4 PUSH2 0x2128 JUMP JUMPDEST PUSH2 0xA50 JUMP JUMPDEST PUSH2 0x28A PUSH2 0xA72 JUMP JUMPDEST CALLVALUE DUP1 ISZERO PUSH2 0x3FC JUMPI PUSH1 0x0 DUP1 REVERT JUMPDEST POP PUSH2 0x28A PUSH2 0x40B CALLDATASIZE PUSH1 0x4 PUSH2 0x1FA7 JUMP JUMPDEST PUSH2 0xAEE JUMP JUMPDEST CALLVALUE DUP1 ISZERO PUSH2 0x41C JUMPI PUSH1 0x0 DUP1 REVERT JUMPDEST POP PUSH2 0x430 PUSH2 0x42B CALLDATASIZE PUSH1 0x4 PUSH2 0x1F59 JUMP JUMPDEST PUSH2 0xB09 JUMP JUMPDEST PUSH1 0x40 MLOAD PUSH2 0x261 SWAP2 SWAP1 PUSH2 0x230C JUMP JUMPDEST CALLVALUE DUP1 ISZERO PUSH2 0x449 JUMPI PUSH1 0x0 DUP1 REVERT JUMPDEST POP PUSH2 0x317 PUSH2 0x458 CALLDATASIZE PUSH1 0x4 PUSH2 0x21C6 JUMP JUMPDEST PUSH2 0xBAB JUMP JUMPDEST CALLVALUE DUP1 ISZERO PUSH2 0x469 JUMPI PUSH1 0x0 DUP1 REVERT JUMPDEST POP PUSH2 0x28A PUSH2 0x478 CALLDATASIZE PUSH1 0x4 PUSH2 0x217D JUMP JUMPDEST PUSH2 0xC3E JUMP JUMPDEST CALLVALUE DUP1 ISZERO PUSH2 0x489 JUMPI PUSH1 0x0 DUP1 REVERT JUMPDEST POP PUSH1 0x10 SLOAD PUSH2 0x255 SWAP1 PUSH1 0xFF AND DUP2 JUMP JUMPDEST CALLVALUE DUP1 ISZERO PUSH2 0x4A3 JUMPI PUSH1 0x0 DUP1 REVERT JUMPDEST POP PUSH2 0x2CE PUSH2 0x4B2 CALLDATASIZE PUSH1 0x4 PUSH2 0x21C6 JUMP JUMPDEST PUSH2 0xC5D JUMP JUMPDEST CALLVALUE DUP1 ISZERO PUSH2 0x4C3 JUMPI PUSH1 0x0 DUP1 REVERT JUMPDEST POP PUSH2 0x2A1 PUSH2 0xCBD JUMP JUMPDEST CALLVALUE DUP1 ISZERO PUSH2 0x4D8 JUMPI PUSH1 0x0 DUP1 REVERT JUMPDEST POP PUSH2 0x317 PUSH2 0x4E7 CALLDATASIZE PUSH1 0x4 PUSH2 0x1F59 JUMP JUMPDEST PUSH2 0xD4B JUMP JUMPDEST CALLVALUE DUP1 ISZERO PUSH2 0x4F8 JUMPI PUSH1 0x0 DUP1 REVERT JUMPDEST POP PUSH2 0x28A PUSH2 0xDD1 JUMP JUMPDEST CALLVALUE DUP1 ISZERO PUSH2 0x50D JUMPI PUSH1 0x0 DUP1 REVERT JUMPDEST POP PUSH1 0xA SLOAD PUSH1 0x1 PUSH1 0x1 PUSH1 0xA0 SHL SUB AND PUSH2 0x2CE JUMP JUMPDEST CALLVALUE DUP1 ISZERO PUSH2 0x52B JUMPI PUSH1 0x0 DUP1 REVERT JUMPDEST POP PUSH2 0x2A1 PUSH2 0xDE5 JUMP JUMPDEST CALLVALUE DUP1 ISZERO PUSH2 0x540 JUMPI PUSH1 0x0 DUP1 REVERT JUMPDEST POP PUSH1 0x10 SLOAD PUSH2 0x255 SWAP1 PUSH2 0x100 SWAP1 DIV PUSH1 0xFF AND DUP2 JUMP JUMPDEST PUSH2 0x28A PUSH2 0x561 CALLDATASIZE PUSH1 0x4 PUSH2 0x21C6 JUMP JUMPDEST PUSH2 0xDF4 JUMP JUMPDEST CALLVALUE DUP1 ISZERO PUSH2 0x572 JUMPI PUSH1 0x0 DUP1 REVERT JUMPDEST POP PUSH2 0x28A PUSH2 0x581 CALLDATASIZE PUSH1 0x4 PUSH2 0x205F JUMP JUMPDEST PUSH2 0x1089 JUMP JUMPDEST CALLVALUE DUP1 ISZERO PUSH2 0x592 JUMPI PUSH1 0x0 DUP1 REVERT JUMPDEST POP PUSH2 0x28A PUSH2 0x5A1 CALLDATASIZE PUSH1 0x4 PUSH2 0x1FE3 JUMP JUMPDEST PUSH2 0x1094 JUMP JUMPDEST CALLVALUE DUP1 ISZERO PUSH2 0x5B2 JUMPI PUSH1 0x0 DUP1 REVERT JUMPDEST POP PUSH2 0x2CE PUSH2 0x5C1 CALLDATASIZE PUSH1 0x4 PUSH2 0x21C6 JUMP JUMPDEST PUSH2 0x10CC JUMP JUMPDEST CALLVALUE DUP1 ISZERO PUSH2 0x5D2 JUMPI PUSH1 0x0 DUP1 REVERT JUMPDEST POP PUSH2 0x317 PUSH1 0xF SLOAD DUP2 JUMP JUMPDEST CALLVALUE DUP1 ISZERO PUSH2 0x5E8 JUMPI PUSH1 0x0 DUP1 REVERT JUMPDEST POP PUSH2 0x2A1 PUSH2 0x10F6 JUMP JUMPDEST CALLVALUE DUP1 ISZERO PUSH2 0x5FD JUMPI PUSH1 0x0 DUP1 REVERT JUMPDEST POP PUSH2 0x2A1 PUSH2 0x60C CALLDATASIZE PUSH1 0x4 PUSH2 0x21C6 JUMP JUMPDEST PUSH2 0x1103 JUMP JUMPDEST CALLVALUE DUP1 ISZERO PUSH2 0x61D JUMPI PUSH1 0x0 DUP1 REVERT JUMPDEST POP PUSH2 0x28A PUSH2 0x62C CALLDATASIZE PUSH1 0x4 PUSH2 0x21C6 JUMP JUMPDEST PUSH2 0x11E1 JUMP JUMPDEST CALLVALUE DUP1 ISZERO PUSH2 0x63D JUMPI PUSH1 0x0 DUP1 REVERT JUMPDEST POP PUSH2 0x317 PUSH1 0xD SLOAD DUP2 JUMP JUMPDEST CALLVALUE DUP1 ISZERO PUSH2 0x653 JUMPI PUSH1 0x0 DUP1 REVERT JUMPDEST POP PUSH2 0x28A PUSH2 0x662 CALLDATASIZE PUSH1 0x4 PUSH2 0x217D JUMP JUMPDEST PUSH2 0x11EE JUMP JUMPDEST CALLVALUE DUP1 ISZERO PUSH2 0x673 JUMPI PUSH1 0x0 DUP1 REVERT JUMPDEST POP PUSH2 0x2A1 PUSH2 0x1209 JUMP JUMPDEST CALLVALUE DUP1 ISZERO PUSH2 0x688 JUMPI PUSH1 0x0 DUP1 REVERT JUMPDEST POP PUSH2 0x255 PUSH2 0x697 CALLDATASIZE PUSH1 0x4 PUSH2 0x1F74 JUMP JUMPDEST PUSH1 0x1 PUSH1 0x1 PUSH1 0xA0 SHL SUB SWAP2 DUP3 AND PUSH1 0x0 SWAP1 DUP2 MSTORE PUSH1 0x5 PUSH1 0x20 SWAP1 DUP2 MSTORE PUSH1 0x40 DUP1 DUP4 KECCAK256 SWAP4 SWAP1 SWAP5 AND DUP3 MSTORE SWAP2 SWAP1 SWAP2 MSTORE KECCAK256 SLOAD PUSH1 0xFF AND SWAP1 JUMP JUMPDEST CALLVALUE DUP1 ISZERO PUSH2 0x6D1 JUMPI PUSH1 0x0 DUP1 REVERT JUMPDEST POP PUSH2 0x28A PUSH2 0x6E0 CALLDATASIZE PUSH1 0x4 PUSH2 0x20B3 JUMP JUMPDEST PUSH2 0x1229 JUMP JUMPDEST CALLVALUE DUP1 ISZERO PUSH2 0x6F1 JUMPI PUSH1 0x0 DUP1 REVERT JUMPDEST POP PUSH2 0x28A PUSH2 0x700 CALLDATASIZE PUSH1 0x4 PUSH2 0x1F59 JUMP JUMPDEST PUSH2 0x1249 JUMP JUMPDEST PUSH1 0x0 PUSH1 0x1 PUSH1 0x1 PUSH1 0xE0 SHL SUB NOT DUP3 AND PUSH4 0x780E9D63 PUSH1 0xE0 SHL EQ DUP1 PUSH2 0x72A JUMPI POP PUSH2 0x72A DUP3 PUSH2 0x12BF JUMP JUMPDEST SWAP3 SWAP2 POP POP JUMP JUMPDEST PUSH2 0x738 PUSH2 0x130F JUMP JUMPDEST PUSH1 0x10 DUP1 SLOAD PUSH1 0xFF NOT AND SWAP2 ISZERO ISZERO SWAP2 SWAP1 SWAP2 OR SWAP1 SSTORE JUMP JUMPDEST PUSH1 0x60 PUSH1 0x0 DUP1 SLOAD PUSH2 0x75A SWAP1 PUSH2 0x2472 JUMP JUMPDEST DUP1 PUSH1 0x1F ADD PUSH1 0x20 DUP1 SWAP2 DIV MUL PUSH1 0x20 ADD PUSH1 0x40 MLOAD SWAP1 DUP2 ADD PUSH1 0x40 MSTORE DUP1 SWAP3 SWAP2 SWAP1 DUP2 DUP2 MSTORE PUSH1 0x20 ADD DUP3 DUP1 SLOAD PUSH2 0x786 SWAP1 PUSH2 0x2472 JUMP JUMPDEST DUP1 ISZERO PUSH2 0x7D3 JUMPI DUP1 PUSH1 0x1F LT PUSH2 0x7A8 JUMPI PUSH2 0x100 DUP1 DUP4 SLOAD DIV MUL DUP4 MSTORE SWAP2 PUSH1 0x20 ADD SWAP2 PUSH2 0x7D3 JUMP JUMPDEST DUP3 ADD SWAP2 SWAP1 PUSH1 0x0 MSTORE PUSH1 0x20 PUSH1 0x0 KECCAK256 SWAP1 JUMPDEST DUP2 SLOAD DUP2 MSTORE SWAP1 PUSH1 0x1 ADD SWAP1 PUSH1 0x20 ADD DUP1 DUP4 GT PUSH2 0x7B6 JUMPI DUP3 SWAP1 SUB PUSH1 0x1F AND DUP3 ADD SWAP2 JUMPDEST POP POP POP POP POP SWAP1 POP SWAP1 JUMP JUMPDEST PUSH1 0x0 PUSH2 0x7E8 DUP3 PUSH2 0x1369 JUMP JUMPDEST POP PUSH1 0x0 SWAP1 DUP2 MSTORE PUSH1 0x4 PUSH1 0x20 MSTORE PUSH1 0x40 SWAP1 KECCAK256 SLOAD PUSH1 0x1 PUSH1 0x1 PUSH1 0xA0 SHL SUB AND SWAP1 JUMP JUMPDEST PUSH1 0x0 PUSH2 0x80F DUP3 PUSH2 0xC5D JUMP JUMPDEST SWAP1 POP DUP1 PUSH1 0x1 PUSH1 0x1 PUSH1 0xA0 SHL SUB AND DUP4 PUSH1 0x1 PUSH1 0x1 PUSH1 0xA0 SHL SUB AND EQ ISZERO PUSH2 0x882 JUMPI PUSH1 0x40 MLOAD PUSH3 0x461BCD PUSH1 0xE5 SHL DUP2 MSTORE PUSH1 0x20 PUSH1 0x4 DUP3 ADD MSTORE PUSH1 0x21 PUSH1 0x24 DUP3 ADD MSTORE PUSH32 0x4552433732313A20617070726F76616C20746F2063757272656E74206F776E65 PUSH1 0x44 DUP3 ADD MSTORE PUSH1 0x39 PUSH1 0xF9 SHL PUSH1 0x64 DUP3 ADD MSTORE PUSH1 0x84 ADD JUMPDEST PUSH1 0x40 MLOAD DUP1 SWAP2 SUB SWAP1 REVERT JUMPDEST CALLER PUSH1 0x1 PUSH1 0x1 PUSH1 0xA0 SHL SUB DUP3 AND EQ DUP1 PUSH2 0x89E JUMPI POP PUSH2 0x89E DUP2 CALLER PUSH2 0x697 JUMP JUMPDEST PUSH2 0x910 JUMPI PUSH1 0x40 MLOAD PUSH3 0x461BCD PUSH1 0xE5 SHL DUP2 MSTORE PUSH1 0x20 PUSH1 0x4 DUP3 ADD MSTORE PUSH1 0x3E PUSH1 0x24 DUP3 ADD MSTORE PUSH32 0x4552433732313A20617070726F76652063616C6C6572206973206E6F7420746F PUSH1 0x44 DUP3 ADD MSTORE PUSH32 0x6B656E206F776E6572206E6F7220617070726F76656420666F7220616C6C0000 PUSH1 0x64 DUP3 ADD MSTORE PUSH1 0x84 ADD PUSH2 0x879 JUMP JUMPDEST PUSH2 0x91A DUP4 DUP4 PUSH2 0x13C8 JUMP JUMPDEST POP POP POP JUMP JUMPDEST PUSH2 0x929 CALLER DUP3 PUSH2 0x1436 JUMP JUMPDEST PUSH2 0x945 JUMPI PUSH1 0x40 MLOAD PUSH3 0x461BCD PUSH1 0xE5 SHL DUP2 MSTORE PUSH1 0x4 ADD PUSH2 0x879 SWAP1 PUSH2 0x23B5 JUMP JUMPDEST PUSH2 0x91A DUP4 DUP4 DUP4 PUSH2 0x14B5 JUMP JUMPDEST PUSH1 0x0 PUSH2 0x95B DUP4 PUSH2 0xD4B JUMP JUMPDEST DUP3 LT PUSH2 0x9BD JUMPI PUSH1 0x40 MLOAD PUSH3 0x461BCD PUSH1 0xE5 SHL DUP2 MSTORE PUSH1 0x20 PUSH1 0x4 DUP3 ADD MSTORE PUSH1 0x2B PUSH1 0x24 DUP3 ADD MSTORE PUSH32 0x455243373231456E756D657261626C653A206F776E657220696E646578206F75 PUSH1 0x44 DUP3 ADD MSTORE PUSH11 0x74206F6620626F756E6473 PUSH1 0xA8 SHL PUSH1 0x64 DUP3 ADD MSTORE PUSH1 0x84 ADD PUSH2 0x879 JUMP JUMPDEST POP PUSH1 0x1 PUSH1 0x1 PUSH1 0xA0 SHL SUB SWAP2 SWAP1 SWAP2 AND PUSH1 0x0 SWAP1 DUP2 MSTORE PUSH1 0x6 PUSH1 0x20 SWAP1 DUP2 MSTORE PUSH1 0x40 DUP1 DUP4 KECCAK256 SWAP4 DUP4 MSTORE SWAP3 SWAP1 MSTORE KECCAK256 SLOAD SWAP1 JUMP JUMPDEST PUSH1 0x0 DUP1 JUMPDEST PUSH1 0x11 SLOAD DUP2 LT ISZERO PUSH2 0xA47 JUMPI DUP3 PUSH1 0x1 PUSH1 0x1 PUSH1 0xA0 SHL SUB AND PUSH1 0x11 DUP3 DUP2 SLOAD DUP2 LT PUSH2 0xA11 JUMPI PUSH2 0xA11 PUSH2 0x251E JUMP JUMPDEST PUSH1 0x0 SWAP2 DUP3 MSTORE PUSH1 0x20 SWAP1 SWAP2 KECCAK256 ADD SLOAD PUSH1 0x1 PUSH1 0x1 PUSH1 0xA0 SHL SUB AND EQ ISZERO PUSH2 0xA35 JUMPI POP PUSH1 0x1 SWAP3 SWAP2 POP POP JUMP JUMPDEST DUP1 PUSH2 0xA3F DUP2 PUSH2 0x24AD JUMP JUMPDEST SWAP2 POP POP PUSH2 0x9EA JUMP JUMPDEST POP PUSH1 0x0 SWAP3 SWAP2 POP POP JUMP JUMPDEST PUSH2 0xA58 PUSH2 0x130F JUMP JUMPDEST PUSH1 0x10 DUP1 SLOAD SWAP2 ISZERO ISZERO PUSH2 0x100 MUL PUSH2 0xFF00 NOT SWAP1 SWAP3 AND SWAP2 SWAP1 SWAP2 OR SWAP1 SSTORE JUMP JUMPDEST PUSH2 0xA7A PUSH2 0x130F JUMP JUMPDEST PUSH1 0x0 PUSH2 0xA8E PUSH1 0xA SLOAD PUSH1 0x1 PUSH1 0x1 PUSH1 0xA0 SHL SUB AND SWAP1 JUMP JUMPDEST PUSH1 0x1 PUSH1 0x1 PUSH1 0xA0 SHL SUB AND SELFBALANCE PUSH1 0x40 MLOAD PUSH1 0x0 PUSH1 0x40 MLOAD DUP1 DUP4 SUB DUP2 DUP6 DUP8 GAS CALL SWAP3 POP POP POP RETURNDATASIZE DUP1 PUSH1 0x0 DUP2 EQ PUSH2 0xAD8 JUMPI PUSH1 0x40 MLOAD SWAP2 POP PUSH1 0x1F NOT PUSH1 0x3F RETURNDATASIZE ADD AND DUP3 ADD PUSH1 0x40 MSTORE RETURNDATASIZE DUP3 MSTORE RETURNDATASIZE PUSH1 0x0 PUSH1 0x20 DUP5 ADD RETURNDATACOPY PUSH2 0xADD JUMP JUMPDEST PUSH1 0x60 SWAP2 POP JUMPDEST POP POP SWAP1 POP DUP1 PUSH2 0xAEB JUMPI PUSH1 0x0 DUP1 REVERT JUMPDEST POP JUMP JUMPDEST PUSH2 0x91A DUP4 DUP4 DUP4 PUSH1 0x40 MLOAD DUP1 PUSH1 0x20 ADD PUSH1 0x40 MSTORE DUP1 PUSH1 0x0 DUP2 MSTORE POP PUSH2 0x1094 JUMP JUMPDEST PUSH1 0x60 PUSH1 0x0 PUSH2 0xB16 DUP4 PUSH2 0xD4B JUMP JUMPDEST SWAP1 POP PUSH1 0x0 DUP2 PUSH8 0xFFFFFFFFFFFFFFFF DUP2 GT ISZERO PUSH2 0xB33 JUMPI PUSH2 0xB33 PUSH2 0x2534 JUMP JUMPDEST PUSH1 0x40 MLOAD SWAP1 DUP1 DUP3 MSTORE DUP1 PUSH1 0x20 MUL PUSH1 0x20 ADD DUP3 ADD PUSH1 0x40 MSTORE DUP1 ISZERO PUSH2 0xB5C JUMPI DUP2 PUSH1 0x20 ADD PUSH1 0x20 DUP3 MUL DUP1 CALLDATASIZE DUP4 CALLDATACOPY ADD SWAP1 POP JUMPDEST POP SWAP1 POP PUSH1 0x0 JUMPDEST DUP3 DUP2 LT ISZERO PUSH2 0xBA3 JUMPI PUSH2 0xB74 DUP6 DUP3 PUSH2 0x950 JUMP JUMPDEST DUP3 DUP3 DUP2 MLOAD DUP2 LT PUSH2 0xB86 JUMPI PUSH2 0xB86 PUSH2 0x251E JUMP JUMPDEST PUSH1 0x20 SWAP1 DUP2 MUL SWAP2 SWAP1 SWAP2 ADD ADD MSTORE DUP1 PUSH2 0xB9B DUP2 PUSH2 0x24AD JUMP JUMPDEST SWAP2 POP POP PUSH2 0xB62 JUMP JUMPDEST POP SWAP4 SWAP3 POP POP POP JUMP JUMPDEST PUSH1 0x0 PUSH2 0xBB6 PUSH1 0x8 SLOAD SWAP1 JUMP JUMPDEST DUP3 LT PUSH2 0xC19 JUMPI PUSH1 0x40 MLOAD PUSH3 0x461BCD PUSH1 0xE5 SHL DUP2 MSTORE PUSH1 0x20 PUSH1 0x4 DUP3 ADD MSTORE PUSH1 0x2C PUSH1 0x24 DUP3 ADD MSTORE PUSH32 0x455243373231456E756D657261626C653A20676C6F62616C20696E646578206F PUSH1 0x44 DUP3 ADD MSTORE PUSH12 0x7574206F6620626F756E6473 PUSH1 0xA0 SHL PUSH1 0x64 DUP3 ADD MSTORE PUSH1 0x84 ADD PUSH2 0x879 JUMP JUMPDEST PUSH1 0x8 DUP3 DUP2 SLOAD DUP2 LT PUSH2 0xC2C JUMPI PUSH2 0xC2C PUSH2 0x251E JUMP JUMPDEST SWAP1 PUSH1 0x0 MSTORE PUSH1 0x20 PUSH1 0x0 KECCAK256 ADD SLOAD SWAP1 POP SWAP2 SWAP1 POP JUMP JUMPDEST PUSH2 0xC46 PUSH2 0x130F JUMP JUMPDEST DUP1 MLOAD PUSH2 0xC59 SWAP1 PUSH1 0xB SWAP1 PUSH1 0x20 DUP5 ADD SWAP1 PUSH2 0x1DAD JUMP JUMPDEST POP POP JUMP JUMPDEST PUSH1 0x0 DUP2 DUP2 MSTORE PUSH1 0x2 PUSH1 0x20 MSTORE PUSH1 0x40 DUP2 KECCAK256 SLOAD PUSH1 0x1 PUSH1 0x1 PUSH1 0xA0 SHL SUB AND DUP1 PUSH2 0x72A JUMPI PUSH1 0x40 MLOAD PUSH3 0x461BCD PUSH1 0xE5 SHL DUP2 MSTORE PUSH1 0x20 PUSH1 0x4 DUP3 ADD MSTORE PUSH1 0x18 PUSH1 0x24 DUP3 ADD MSTORE PUSH24 0x115490CDCC8C4E881A5B9D985B1A59081D1BDAD95B881251 PUSH1 0x42 SHL PUSH1 0x44 DUP3 ADD MSTORE PUSH1 0x64 ADD PUSH2 0x879 JUMP JUMPDEST PUSH1 0xB DUP1 SLOAD PUSH2 0xCCA SWAP1 PUSH2 0x2472 JUMP JUMPDEST DUP1 PUSH1 0x1F ADD PUSH1 0x20 DUP1 SWAP2 DIV MUL PUSH1 0x20 ADD PUSH1 0x40 MLOAD SWAP1 DUP2 ADD PUSH1 0x40 MSTORE DUP1 SWAP3 SWAP2 SWAP1 DUP2 DUP2 MSTORE PUSH1 0x20 ADD DUP3 DUP1 SLOAD PUSH2 0xCF6 SWAP1 PUSH2 0x2472 JUMP JUMPDEST DUP1 ISZERO PUSH2 0xD43 JUMPI DUP1 PUSH1 0x1F LT PUSH2 0xD18 JUMPI PUSH2 0x100 DUP1 DUP4 SLOAD DIV MUL DUP4 MSTORE SWAP2 PUSH1 0x20 ADD SWAP2 PUSH2 0xD43 JUMP JUMPDEST DUP3 ADD SWAP2 SWAP1 PUSH1 0x0 MSTORE PUSH1 0x20 PUSH1 0x0 KECCAK256 SWAP1 JUMPDEST DUP2 SLOAD DUP2 MSTORE SWAP1 PUSH1 0x1 ADD SWAP1 PUSH1 0x20 ADD DUP1 DUP4 GT PUSH2 0xD26 JUMPI DUP3 SWAP1 SUB PUSH1 0x1F AND DUP3 ADD SWAP2 JUMPDEST POP POP POP POP POP DUP2 JUMP JUMPDEST PUSH1 0x0 PUSH1 0x1 PUSH1 0x1 PUSH1 0xA0 SHL SUB DUP3 AND PUSH2 0xDB5 JUMPI PUSH1 0x40 MLOAD PUSH3 0x461BCD PUSH1 0xE5 SHL DUP2 MSTORE PUSH1 0x20 PUSH1 0x4 DUP3 ADD MSTORE PUSH1 0x29 PUSH1 0x24 DUP3 ADD MSTORE PUSH32 0x4552433732313A2061646472657373207A65726F206973206E6F742061207661 PUSH1 0x44 DUP3 ADD MSTORE PUSH9 0x3634B21037BBB732B9 PUSH1 0xB9 SHL PUSH1 0x64 DUP3 ADD MSTORE PUSH1 0x84 ADD PUSH2 0x879 JUMP JUMPDEST POP PUSH1 0x1 PUSH1 0x1 PUSH1 0xA0 SHL SUB AND PUSH1 0x0 SWAP1 DUP2 MSTORE PUSH1 0x3 PUSH1 0x20 MSTORE PUSH1 0x40 SWAP1 KECCAK256 SLOAD SWAP1 JUMP JUMPDEST PUSH2 0xDD9 PUSH2 0x130F JUMP JUMPDEST PUSH2 0xDE3 PUSH1 0x0 PUSH2 0x165C JUMP JUMPDEST JUMP JUMPDEST PUSH1 0x60 PUSH1 0x1 DUP1 SLOAD PUSH2 0x75A SWAP1 PUSH2 0x2472 JUMP JUMPDEST PUSH1 0x10 SLOAD PUSH1 0xFF AND ISZERO PUSH2 0xE40 JUMPI PUSH1 0x40 MLOAD PUSH3 0x461BCD PUSH1 0xE5 SHL DUP2 MSTORE PUSH1 0x20 PUSH1 0x4 DUP3 ADD MSTORE PUSH1 0x16 PUSH1 0x24 DUP3 ADD MSTORE PUSH22 0x1D1A194818DBDB9D1C9858DD081A5CC81C185D5CD959 PUSH1 0x52 SHL PUSH1 0x44 DUP3 ADD MSTORE PUSH1 0x64 ADD PUSH2 0x879 JUMP JUMPDEST PUSH1 0x0 PUSH2 0xE4B PUSH1 0x8 SLOAD SWAP1 JUMP JUMPDEST SWAP1 POP PUSH1 0x0 DUP3 GT PUSH2 0xE9D JUMPI PUSH1 0x40 MLOAD PUSH3 0x461BCD PUSH1 0xE5 SHL DUP2 MSTORE PUSH1 0x20 PUSH1 0x4 DUP3 ADD MSTORE PUSH1 0x1B PUSH1 0x24 DUP3 ADD MSTORE PUSH32 0x6E65656420746F206D696E74206174206C656173742031204E46540000000000 PUSH1 0x44 DUP3 ADD MSTORE PUSH1 0x64 ADD PUSH2 0x879 JUMP JUMPDEST PUSH1 0xD SLOAD PUSH2 0xEAA DUP4 DUP4 PUSH2 0x2403 JUMP JUMPDEST GT ISZERO PUSH2 0xEF1 JUMPI PUSH1 0x40 MLOAD PUSH3 0x461BCD PUSH1 0xE5 SHL DUP2 MSTORE PUSH1 0x20 PUSH1 0x4 DUP3 ADD MSTORE PUSH1 0x16 PUSH1 0x24 DUP3 ADD MSTORE PUSH22 0x1B585E08139195081B1A5B5A5D08195E18D959591959 PUSH1 0x52 SHL PUSH1 0x44 DUP3 ADD MSTORE PUSH1 0x64 ADD PUSH2 0x879 JUMP JUMPDEST PUSH1 0xA SLOAD PUSH1 0x1 PUSH1 0x1 PUSH1 0xA0 SHL SUB AND CALLER EQ PUSH2 0x1039 JUMPI PUSH1 0xE SLOAD DUP3 GT ISZERO PUSH2 0xF61 JUMPI PUSH1 0x40 MLOAD PUSH3 0x461BCD PUSH1 0xE5 SHL DUP2 MSTORE PUSH1 0x20 PUSH1 0x4 DUP3 ADD MSTORE PUSH1 0x24 DUP1 DUP3 ADD MSTORE PUSH32 0x6D6178206D696E7420616D6F756E74207065722073657373696F6E2065786365 PUSH1 0x44 DUP3 ADD MSTORE PUSH4 0x19591959 PUSH1 0xE2 SHL PUSH1 0x64 DUP3 ADD MSTORE PUSH1 0x84 ADD PUSH2 0x879 JUMP JUMPDEST PUSH1 0x10 SLOAD PUSH1 0xFF PUSH2 0x100 SWAP1 SWAP2 DIV AND ISZERO ISZERO PUSH1 0x1 EQ ISZERO PUSH2 0x1039 JUMPI PUSH2 0xF80 CALLER PUSH2 0x9E6 JUMP JUMPDEST PUSH2 0xFCC JUMPI PUSH1 0x40 MLOAD PUSH3 0x461BCD PUSH1 0xE5 SHL DUP2 MSTORE PUSH1 0x20 PUSH1 0x4 DUP3 ADD MSTORE PUSH1 0x17 PUSH1 0x24 DUP3 ADD MSTORE PUSH32 0x75736572206973206E6F742077686974656C6973746564000000000000000000 PUSH1 0x44 DUP3 ADD MSTORE PUSH1 0x64 ADD PUSH2 0x879 JUMP JUMPDEST CALLER PUSH1 0x0 SWAP1 DUP2 MSTORE PUSH1 0x12 PUSH1 0x20 MSTORE PUSH1 0x40 SWAP1 KECCAK256 SLOAD PUSH1 0xF SLOAD PUSH2 0xFE9 DUP5 DUP4 PUSH2 0x2403 JUMP JUMPDEST GT ISZERO PUSH2 0x1037 JUMPI PUSH1 0x40 MLOAD PUSH3 0x461BCD PUSH1 0xE5 SHL DUP2 MSTORE PUSH1 0x20 PUSH1 0x4 DUP3 ADD MSTORE PUSH1 0x1C PUSH1 0x24 DUP3 ADD MSTORE PUSH32 0x6D6178204E465420706572206164647265737320657863656564656400000000 PUSH1 0x44 DUP3 ADD MSTORE PUSH1 0x64 ADD PUSH2 0x879 JUMP JUMPDEST POP JUMPDEST PUSH1 0x1 JUMPDEST DUP3 DUP2 GT PUSH2 0x91A JUMPI CALLER PUSH1 0x0 SWAP1 DUP2 MSTORE PUSH1 0x12 PUSH1 0x20 MSTORE PUSH1 0x40 DUP2 KECCAK256 DUP1 SLOAD SWAP2 PUSH2 0x105E DUP4 PUSH2 0x24AD JUMP JUMPDEST SWAP1 SWAP2 SSTORE POP PUSH2 0x1077 SWAP1 POP CALLER PUSH2 0x1072 DUP4 DUP6 PUSH2 0x2403 JUMP JUMPDEST PUSH2 0x16AE JUMP JUMPDEST DUP1 PUSH2 0x1081 DUP2 PUSH2 0x24AD JUMP JUMPDEST SWAP2 POP POP PUSH2 0x103C JUMP JUMPDEST PUSH2 0xC59 CALLER DUP4 DUP4 PUSH2 0x16C8 JUMP JUMPDEST PUSH2 0x109E CALLER DUP4 PUSH2 0x1436 JUMP JUMPDEST PUSH2 0x10BA JUMPI PUSH1 0x40 MLOAD PUSH3 0x461BCD PUSH1 0xE5 SHL DUP2 MSTORE PUSH1 0x4 ADD PUSH2 0x879 SWAP1 PUSH2 0x23B5 JUMP JUMPDEST PUSH2 0x10C6 DUP5 DUP5 DUP5 DUP5 PUSH2 0x1797 JUMP JUMPDEST POP POP POP POP JUMP JUMPDEST PUSH1 0x11 DUP2 DUP2 SLOAD DUP2 LT PUSH2 0x10DC JUMPI PUSH1 0x0 DUP1 REVERT JUMPDEST PUSH1 0x0 SWAP2 DUP3 MSTORE PUSH1 0x20 SWAP1 SWAP2 KECCAK256 ADD SLOAD PUSH1 0x1 PUSH1 0x1 PUSH1 0xA0 SHL SUB AND SWAP1 POP DUP2 JUMP JUMPDEST PUSH1 0xC DUP1 SLOAD PUSH2 0xCCA SWAP1 PUSH2 0x2472 JUMP JUMPDEST PUSH1 0x0 DUP2 DUP2 MSTORE PUSH1 0x2 PUSH1 0x20 MSTORE PUSH1 0x40 SWAP1 KECCAK256 SLOAD PUSH1 0x60 SWAP1 PUSH1 0x1 PUSH1 0x1 PUSH1 0xA0 SHL SUB AND PUSH2 0x1182 JUMPI PUSH1 0x40 MLOAD PUSH3 0x461BCD PUSH1 0xE5 SHL DUP2 MSTORE PUSH1 0x20 PUSH1 0x4 DUP3 ADD MSTORE PUSH1 0x2F PUSH1 0x24 DUP3 ADD MSTORE PUSH32 0x4552433732314D657461646174613A2055524920717565727920666F72206E6F PUSH1 0x44 DUP3 ADD MSTORE PUSH15 0x3732BC34B9BA32B73A103A37B5B2B7 PUSH1 0x89 SHL PUSH1 0x64 DUP3 ADD MSTORE PUSH1 0x84 ADD PUSH2 0x879 JUMP JUMPDEST PUSH1 0x0 PUSH2 0x118C PUSH2 0x17CA JUMP JUMPDEST SWAP1 POP PUSH1 0x0 DUP2 MLOAD GT PUSH2 0x11AC JUMPI PUSH1 0x40 MLOAD DUP1 PUSH1 0x20 ADD PUSH1 0x40 MSTORE DUP1 PUSH1 0x0 DUP2 MSTORE POP PUSH2 0x11DA JUMP JUMPDEST DUP1 PUSH2 0x11B6 DUP5 PUSH2 0x17D9 JUMP JUMPDEST PUSH1 0xC PUSH1 0x40 MLOAD PUSH1 0x20 ADD PUSH2 0x11CA SWAP4 SWAP3 SWAP2 SWAP1 PUSH2 0x220B JUMP JUMPDEST PUSH1 0x40 MLOAD PUSH1 0x20 DUP2 DUP4 SUB SUB DUP2 MSTORE SWAP1 PUSH1 0x40 MSTORE JUMPDEST SWAP4 SWAP3 POP POP POP JUMP JUMPDEST PUSH2 0x11E9 PUSH2 0x130F JUMP JUMPDEST PUSH1 0xF SSTORE JUMP JUMPDEST PUSH2 0x11F6 PUSH2 0x130F JUMP JUMPDEST DUP1 MLOAD PUSH2 0xC59 SWAP1 PUSH1 0xC SWAP1 PUSH1 0x20 DUP5 ADD SWAP1 PUSH2 0x1DAD JUMP JUMPDEST PUSH1 0x60 PUSH1 0x40 MLOAD DUP1 PUSH1 0x80 ADD PUSH1 0x40 MSTORE DUP1 PUSH1 0x59 DUP2 MSTORE PUSH1 0x20 ADD PUSH2 0x2561 PUSH1 0x59 SWAP2 CODECOPY SWAP1 POP SWAP1 JUMP JUMPDEST PUSH2 0x1231 PUSH2 0x130F JUMP JUMPDEST PUSH2 0x123D PUSH1 0x11 PUSH1 0x0 PUSH2 0x1E31 JUMP JUMPDEST PUSH2 0x91A PUSH1 0x11 DUP4 DUP4 PUSH2 0x1E4F JUMP JUMPDEST PUSH2 0x1251 PUSH2 0x130F JUMP JUMPDEST PUSH1 0x1 PUSH1 0x1 PUSH1 0xA0 SHL SUB DUP2 AND PUSH2 0x12B6 JUMPI PUSH1 0x40 MLOAD PUSH3 0x461BCD PUSH1 0xE5 SHL DUP2 MSTORE PUSH1 0x20 PUSH1 0x4 DUP3 ADD MSTORE PUSH1 0x26 PUSH1 0x24 DUP3 ADD MSTORE PUSH32 0x4F776E61626C653A206E6577206F776E657220697320746865207A65726F2061 PUSH1 0x44 DUP3 ADD MSTORE PUSH6 0x646472657373 PUSH1 0xD0 SHL PUSH1 0x64 DUP3 ADD MSTORE PUSH1 0x84 ADD PUSH2 0x879 JUMP JUMPDEST PUSH2 0xAEB DUP2 PUSH2 0x165C JUMP JUMPDEST PUSH1 0x0 PUSH1 0x1 PUSH1 0x1 PUSH1 0xE0 SHL SUB NOT DUP3 AND PUSH4 0x80AC58CD PUSH1 0xE0 SHL EQ DUP1 PUSH2 0x12F0 JUMPI POP PUSH1 0x1 PUSH1 0x1 PUSH1 0xE0 SHL SUB NOT DUP3 AND PUSH4 0x5B5E139F PUSH1 0xE0 SHL EQ JUMPDEST DUP1 PUSH2 0x72A JUMPI POP PUSH4 0x1FFC9A7 PUSH1 0xE0 SHL PUSH1 0x1 PUSH1 0x1 PUSH1 0xE0 SHL SUB NOT DUP4 AND EQ PUSH2 0x72A JUMP JUMPDEST PUSH1 0xA SLOAD PUSH1 0x1 PUSH1 0x1 PUSH1 0xA0 SHL SUB AND CALLER EQ PUSH2 0xDE3 JUMPI PUSH1 0x40 MLOAD PUSH3 0x461BCD PUSH1 0xE5 SHL DUP2 MSTORE PUSH1 0x20 PUSH1 0x4 DUP3 ADD DUP2 SWAP1 MSTORE PUSH1 0x24 DUP3 ADD MSTORE PUSH32 0x4F776E61626C653A2063616C6C6572206973206E6F7420746865206F776E6572 PUSH1 0x44 DUP3 ADD MSTORE PUSH1 0x64 ADD PUSH2 0x879 JUMP JUMPDEST PUSH1 0x0 DUP2 DUP2 MSTORE PUSH1 0x2 PUSH1 0x20 MSTORE PUSH1 0x40 SWAP1 KECCAK256 SLOAD PUSH1 0x1 PUSH1 0x1 PUSH1 0xA0 SHL SUB AND PUSH2 0xAEB JUMPI PUSH1 0x40 MLOAD PUSH3 0x461BCD PUSH1 0xE5 SHL DUP2 MSTORE PUSH1 0x20 PUSH1 0x4 DUP3 ADD MSTORE PUSH1 0x18 PUSH1 0x24 DUP3 ADD MSTORE PUSH24 0x115490CDCC8C4E881A5B9D985B1A59081D1BDAD95B881251 PUSH1 0x42 SHL PUSH1 0x44 DUP3 ADD MSTORE PUSH1 0x64 ADD PUSH2 0x879 JUMP JUMPDEST PUSH1 0x0 DUP2 DUP2 MSTORE PUSH1 0x4 PUSH1 0x20 MSTORE PUSH1 0x40 SWAP1 KECCAK256 DUP1 SLOAD PUSH1 0x1 PUSH1 0x1 PUSH1 0xA0 SHL SUB NOT AND PUSH1 0x1 PUSH1 0x1 PUSH1 0xA0 SHL SUB DUP5 AND SWAP1 DUP2 OR SWAP1 SWAP2 SSTORE DUP2 SWAP1 PUSH2 0x13FD DUP3 PUSH2 0xC5D JUMP JUMPDEST PUSH1 0x1 PUSH1 0x1 PUSH1 0xA0 SHL SUB AND PUSH32 0x8C5BE1E5EBEC7D5BD14F71427D1E84F3DD0314C0F7B2291E5B200AC8C7C3B925 PUSH1 0x40 MLOAD PUSH1 0x40 MLOAD DUP1 SWAP2 SUB SWAP1 LOG4 POP POP JUMP JUMPDEST PUSH1 0x0 DUP1 PUSH2 0x1442 DUP4 PUSH2 0xC5D JUMP JUMPDEST SWAP1 POP DUP1 PUSH1 0x1 PUSH1 0x1 PUSH1 0xA0 SHL SUB AND DUP5 PUSH1 0x1 PUSH1 0x1 PUSH1 0xA0 SHL SUB AND EQ DUP1 PUSH2 0x1489 JUMPI POP PUSH1 0x1 PUSH1 0x1 PUSH1 0xA0 SHL SUB DUP1 DUP3 AND PUSH1 0x0 SWAP1 DUP2 MSTORE PUSH1 0x5 PUSH1 0x20 SWAP1 DUP2 MSTORE PUSH1 0x40 DUP1 DUP4 KECCAK256 SWAP4 DUP9 AND DUP4 MSTORE SWAP3 SWAP1 MSTORE KECCAK256 SLOAD PUSH1 0xFF AND JUMPDEST DUP1 PUSH2 0x14AD JUMPI POP DUP4 PUSH1 0x1 PUSH1 0x1 PUSH1 0xA0 SHL SUB AND PUSH2 0x14A2 DUP5 PUSH2 0x7DD JUMP JUMPDEST PUSH1 0x1 PUSH1 0x1 PUSH1 0xA0 SHL SUB AND EQ JUMPDEST SWAP5 SWAP4 POP POP POP POP JUMP JUMPDEST DUP3 PUSH1 0x1 PUSH1 0x1 PUSH1 0xA0 SHL SUB AND PUSH2 0x14C8 DUP3 PUSH2 0xC5D JUMP JUMPDEST PUSH1 0x1 PUSH1 0x1 PUSH1 0xA0 SHL SUB AND EQ PUSH2 0x152C JUMPI PUSH1 0x40 MLOAD PUSH3 0x461BCD PUSH1 0xE5 SHL DUP2 MSTORE PUSH1 0x20 PUSH1 0x4 DUP3 ADD MSTORE PUSH1 0x25 PUSH1 0x24 DUP3 ADD MSTORE PUSH32 0x4552433732313A207472616E736665722066726F6D20696E636F727265637420 PUSH1 0x44 DUP3 ADD MSTORE PUSH5 0x37BBB732B9 PUSH1 0xD9 SHL PUSH1 0x64 DUP3 ADD MSTORE PUSH1 0x84 ADD PUSH2 0x879 JUMP JUMPDEST PUSH1 0x1 PUSH1 0x1 PUSH1 0xA0 SHL SUB DUP3 AND PUSH2 0x158E JUMPI PUSH1 0x40 MLOAD PUSH3 0x461BCD PUSH1 0xE5 SHL DUP2 MSTORE PUSH1 0x20 PUSH1 0x4 DUP3 ADD MSTORE PUSH1 0x24 DUP1 DUP3 ADD MSTORE PUSH32 0x4552433732313A207472616E7366657220746F20746865207A65726F20616464 PUSH1 0x44 DUP3 ADD MSTORE PUSH4 0x72657373 PUSH1 0xE0 SHL PUSH1 0x64 DUP3 ADD MSTORE PUSH1 0x84 ADD PUSH2 0x879 JUMP JUMPDEST PUSH2 0x1599 DUP4 DUP4 DUP4 PUSH2 0x18D7 JUMP JUMPDEST PUSH2 0x15A4 PUSH1 0x0 DUP3 PUSH2 0x13C8 JUMP JUMPDEST PUSH1 0x1 PUSH1 0x1 PUSH1 0xA0 SHL SUB DUP4 AND PUSH1 0x0 SWAP1 DUP2 MSTORE PUSH1 0x3 PUSH1 0x20 MSTORE PUSH1 0x40 DUP2 KECCAK256 DUP1 SLOAD PUSH1 0x1 SWAP3 SWAP1 PUSH2 0x15CD SWAP1 DUP5 SWAP1 PUSH2 0x242F JUMP JUMPDEST SWAP1 SWAP2 SSTORE POP POP PUSH1 0x1 PUSH1 0x1 PUSH1 0xA0 SHL SUB DUP3 AND PUSH1 0x0 SWAP1 DUP2 MSTORE PUSH1 0x3 PUSH1 0x20 MSTORE PUSH1 0x40 DUP2 KECCAK256 DUP1 SLOAD PUSH1 0x1 SWAP3 SWAP1 PUSH2 0x15FB SWAP1 DUP5 SWAP1 PUSH2 0x2403 JUMP JUMPDEST SWAP1 SWAP2 SSTORE POP POP PUSH1 0x0 DUP2 DUP2 MSTORE PUSH1 0x2 PUSH1 0x20 MSTORE PUSH1 0x40 DUP1 DUP3 KECCAK256 DUP1 SLOAD PUSH1 0x1 PUSH1 0x1 PUSH1 0xA0 SHL SUB NOT AND PUSH1 0x1 PUSH1 0x1 PUSH1 0xA0 SHL SUB DUP7 DUP2 AND SWAP2 DUP3 OR SWAP1 SWAP3 SSTORE SWAP2 MLOAD DUP5 SWAP4 SWAP2 DUP8 AND SWAP2 PUSH32 0xDDF252AD1BE2C89B69C2B068FC378DAA952BA7F163C4A11628F55A4DF523B3EF SWAP2 LOG4 POP POP POP JUMP JUMPDEST PUSH1 0xA DUP1 SLOAD PUSH1 0x1 PUSH1 0x1 PUSH1 0xA0 SHL SUB DUP4 DUP2 AND PUSH1 0x1 PUSH1 0x1 PUSH1 0xA0 SHL SUB NOT DUP4 AND DUP2 OR SWAP1 SWAP4 SSTORE PUSH1 0x40 MLOAD SWAP2 AND SWAP2 SWAP1 DUP3 SWAP1 PUSH32 0x8BE0079C531659141344CD1FD0A4F28419497F9722A3DAAFE3B4186F6B6457E0 SWAP1 PUSH1 0x0 SWAP1 LOG3 POP POP JUMP JUMPDEST PUSH2 0xC59 DUP3 DUP3 PUSH1 0x40 MLOAD DUP1 PUSH1 0x20 ADD PUSH1 0x40 MSTORE DUP1 PUSH1 0x0 DUP2 MSTORE POP PUSH2 0x198F JUMP JUMPDEST DUP2 PUSH1 0x1 PUSH1 0x1 PUSH1 0xA0 SHL SUB AND DUP4 PUSH1 0x1 PUSH1 0x1 PUSH1 0xA0 SHL SUB AND EQ ISZERO PUSH2 0x172A JUMPI PUSH1 0x40 MLOAD PUSH3 0x461BCD PUSH1 0xE5 SHL DUP2 MSTORE PUSH1 0x20 PUSH1 0x4 DUP3 ADD MSTORE PUSH1 0x19 PUSH1 0x24 DUP3 ADD MSTORE PUSH32 0x4552433732313A20617070726F766520746F2063616C6C657200000000000000 PUSH1 0x44 DUP3 ADD MSTORE PUSH1 0x64 ADD PUSH2 0x879 JUMP JUMPDEST PUSH1 0x1 PUSH1 0x1 PUSH1 0xA0 SHL SUB DUP4 DUP2 AND PUSH1 0x0 DUP2 DUP2 MSTORE PUSH1 0x5 PUSH1 0x20 SWAP1 DUP2 MSTORE PUSH1 0x40 DUP1 DUP4 KECCAK256 SWAP5 DUP8 AND DUP1 DUP5 MSTORE SWAP5 DUP3 MSTORE SWAP2 DUP3 SWAP1 KECCAK256 DUP1 SLOAD PUSH1 0xFF NOT AND DUP7 ISZERO ISZERO SWAP1 DUP2 OR SWAP1 SWAP2 SSTORE SWAP2 MLOAD SWAP2 DUP3 MSTORE PUSH32 0x17307EAB39AB6107E8899845AD3D59BD9653F200F220920489CA2B5937696C31 SWAP2 ADD PUSH1 0x40 MLOAD DUP1 SWAP2 SUB SWAP1 LOG3 POP POP POP JUMP JUMPDEST PUSH2 0x17A2 DUP5 DUP5 DUP5 PUSH2 0x14B5 JUMP JUMPDEST PUSH2 0x17AE DUP5 DUP5 DUP5 DUP5 PUSH2 0x19C2 JUMP JUMPDEST PUSH2 0x10C6 JUMPI PUSH1 0x40 MLOAD PUSH3 0x461BCD PUSH1 0xE5 SHL DUP2 MSTORE PUSH1 0x4 ADD PUSH2 0x879 SWAP1 PUSH2 0x2363 JUMP JUMPDEST PUSH1 0x60 PUSH1 0xB DUP1 SLOAD PUSH2 0x75A SWAP1 PUSH2 0x2472 JUMP JUMPDEST PUSH1 0x60 DUP2 PUSH2 0x17FD JUMPI POP POP PUSH1 0x40 DUP1 MLOAD DUP1 DUP3 ADD SWAP1 SWAP2 MSTORE PUSH1 0x1 DUP2 MSTORE PUSH1 0x3 PUSH1 0xFC SHL PUSH1 0x20 DUP3 ADD MSTORE SWAP1 JUMP JUMPDEST DUP2 PUSH1 0x0 JUMPDEST DUP2 ISZERO PUSH2 0x1827 JUMPI DUP1 PUSH2 0x1811 DUP2 PUSH2 0x24AD JUMP JUMPDEST SWAP2 POP PUSH2 0x1820 SWAP1 POP PUSH1 0xA DUP4 PUSH2 0x241B JUMP JUMPDEST SWAP2 POP PUSH2 0x1801 JUMP JUMPDEST PUSH1 0x0 DUP2 PUSH8 0xFFFFFFFFFFFFFFFF DUP2 GT ISZERO PUSH2 0x1842 JUMPI PUSH2 0x1842 PUSH2 0x2534 JUMP JUMPDEST PUSH1 0x40 MLOAD SWAP1 DUP1 DUP3 MSTORE DUP1 PUSH1 0x1F ADD PUSH1 0x1F NOT AND PUSH1 0x20 ADD DUP3 ADD PUSH1 0x40 MSTORE DUP1 ISZERO PUSH2 0x186C JUMPI PUSH1 0x20 DUP3 ADD DUP2 DUP1 CALLDATASIZE DUP4 CALLDATACOPY ADD SWAP1 POP JUMPDEST POP SWAP1 POP JUMPDEST DUP5 ISZERO PUSH2 0x14AD JUMPI PUSH2 0x1881 PUSH1 0x1 DUP4 PUSH2 0x242F JUMP JUMPDEST SWAP2 POP PUSH2 0x188E PUSH1 0xA DUP7 PUSH2 0x24C8 JUMP JUMPDEST PUSH2 0x1899 SWAP1 PUSH1 0x30 PUSH2 0x2403 JUMP JUMPDEST PUSH1 0xF8 SHL DUP2 DUP4 DUP2 MLOAD DUP2 LT PUSH2 0x18AE JUMPI PUSH2 0x18AE PUSH2 0x251E JUMP JUMPDEST PUSH1 0x20 ADD ADD SWAP1 PUSH1 0x1 PUSH1 0x1 PUSH1 0xF8 SHL SUB NOT AND SWAP1 DUP2 PUSH1 0x0 BYTE SWAP1 MSTORE8 POP PUSH2 0x18D0 PUSH1 0xA DUP7 PUSH2 0x241B JUMP JUMPDEST SWAP5 POP PUSH2 0x1870 JUMP JUMPDEST PUSH1 0x1 PUSH1 0x1 PUSH1 0xA0 SHL SUB DUP4 AND PUSH2 0x1932 JUMPI PUSH2 0x192D DUP2 PUSH1 0x8 DUP1 SLOAD PUSH1 0x0 DUP4 DUP2 MSTORE PUSH1 0x9 PUSH1 0x20 MSTORE PUSH1 0x40 DUP2 KECCAK256 DUP3 SWAP1 SSTORE PUSH1 0x1 DUP3 ADD DUP4 SSTORE SWAP2 SWAP1 SWAP2 MSTORE PUSH32 0xF3F7A9FE364FAAB93B216DA50A3214154F22A0A2B415B23A84C8169E8B636EE3 ADD SSTORE JUMP JUMPDEST PUSH2 0x1955 JUMP JUMPDEST DUP2 PUSH1 0x1 PUSH1 0x1 PUSH1 0xA0 SHL SUB AND DUP4 PUSH1 0x1 PUSH1 0x1 PUSH1 0xA0 SHL SUB AND EQ PUSH2 0x1955 JUMPI PUSH2 0x1955 DUP4 DUP3 PUSH2 0x1ACF JUMP JUMPDEST PUSH1 0x1 PUSH1 0x1 PUSH1 0xA0 SHL SUB DUP3 AND PUSH2 0x196C JUMPI PUSH2 0x91A DUP2 PUSH2 0x1B6C JUMP JUMPDEST DUP3 PUSH1 0x1 PUSH1 0x1 PUSH1 0xA0 SHL SUB AND DUP3 PUSH1 0x1 PUSH1 0x1 PUSH1 0xA0 SHL SUB AND EQ PUSH2 0x91A JUMPI PUSH2 0x91A DUP3 DUP3 PUSH2 0x1C1B JUMP JUMPDEST PUSH2 0x1999 DUP4 DUP4 PUSH2 0x1C5F JUMP JUMPDEST PUSH2 0x19A6 PUSH1 0x0 DUP5 DUP5 DUP5 PUSH2 0x19C2 JUMP JUMPDEST PUSH2 0x91A JUMPI PUSH1 0x40 MLOAD PUSH3 0x461BCD PUSH1 0xE5 SHL DUP2 MSTORE PUSH1 0x4 ADD PUSH2 0x879 SWAP1 PUSH2 0x2363 JUMP JUMPDEST PUSH1 0x0 PUSH1 0x1 PUSH1 0x1 PUSH1 0xA0 SHL SUB DUP5 AND EXTCODESIZE ISZERO PUSH2 0x1AC4 JUMPI PUSH1 0x40 MLOAD PUSH4 0xA85BD01 PUSH1 0xE1 SHL DUP2 MSTORE PUSH1 0x1 PUSH1 0x1 PUSH1 0xA0 SHL SUB DUP6 AND SWAP1 PUSH4 0x150B7A02 SWAP1 PUSH2 0x1A06 SWAP1 CALLER SWAP1 DUP10 SWAP1 DUP9 SWAP1 DUP9 SWAP1 PUSH1 0x4 ADD PUSH2 0x22CF JUMP JUMPDEST PUSH1 0x20 PUSH1 0x40 MLOAD DUP1 DUP4 SUB DUP2 PUSH1 0x0 DUP8 DUP1 EXTCODESIZE ISZERO DUP1 ISZERO PUSH2 0x1A20 JUMPI PUSH1 0x0 DUP1 REVERT JUMPDEST POP GAS CALL SWAP3 POP POP POP DUP1 ISZERO PUSH2 0x1A50 JUMPI POP PUSH1 0x40 DUP1 MLOAD PUSH1 0x1F RETURNDATASIZE SWAP1 DUP2 ADD PUSH1 0x1F NOT AND DUP3 ADD SWAP1 SWAP3 MSTORE PUSH2 0x1A4D SWAP2 DUP2 ADD SWAP1 PUSH2 0x2160 JUMP JUMPDEST PUSH1 0x1 JUMPDEST PUSH2 0x1AAA JUMPI RETURNDATASIZE DUP1 DUP1 ISZERO PUSH2 0x1A7E JUMPI PUSH1 0x40 MLOAD SWAP2 POP PUSH1 0x1F NOT PUSH1 0x3F RETURNDATASIZE ADD AND DUP3 ADD PUSH1 0x40 MSTORE RETURNDATASIZE DUP3 MSTORE RETURNDATASIZE PUSH1 0x0 PUSH1 0x20 DUP5 ADD RETURNDATACOPY PUSH2 0x1A83 JUMP JUMPDEST PUSH1 0x60 SWAP2 POP JUMPDEST POP DUP1 MLOAD PUSH2 0x1AA2 JUMPI PUSH1 0x40 MLOAD PUSH3 0x461BCD PUSH1 0xE5 SHL DUP2 MSTORE PUSH1 0x4 ADD PUSH2 0x879 SWAP1 PUSH2 0x2363 JUMP JUMPDEST DUP1 MLOAD DUP2 PUSH1 0x20 ADD REVERT JUMPDEST PUSH1 0x1 PUSH1 0x1 PUSH1 0xE0 SHL SUB NOT AND PUSH4 0xA85BD01 PUSH1 0xE1 SHL EQ SWAP1 POP PUSH2 0x14AD JUMP JUMPDEST POP PUSH1 0x1 SWAP5 SWAP4 POP POP POP POP JUMP JUMPDEST PUSH1 0x0 PUSH1 0x1 PUSH2 0x1ADC DUP5 PUSH2 0xD4B JUMP JUMPDEST PUSH2 0x1AE6 SWAP2 SWAP1 PUSH2 0x242F JUMP JUMPDEST PUSH1 0x0 DUP4 DUP2 MSTORE PUSH1 0x7 PUSH1 0x20 MSTORE PUSH1 0x40 SWAP1 KECCAK256 SLOAD SWAP1 SWAP2 POP DUP1 DUP3 EQ PUSH2 0x1B39 JUMPI PUSH1 0x1 PUSH1 0x1 PUSH1 0xA0 SHL SUB DUP5 AND PUSH1 0x0 SWAP1 DUP2 MSTORE PUSH1 0x6 PUSH1 0x20 SWAP1 DUP2 MSTORE PUSH1 0x40 DUP1 DUP4 KECCAK256 DUP6 DUP5 MSTORE DUP3 MSTORE DUP1 DUP4 KECCAK256 SLOAD DUP5 DUP5 MSTORE DUP2 DUP5 KECCAK256 DUP2 SWAP1 SSTORE DUP4 MSTORE PUSH1 0x7 SWAP1 SWAP2 MSTORE SWAP1 KECCAK256 DUP2 SWAP1 SSTORE JUMPDEST POP PUSH1 0x0 SWAP2 DUP3 MSTORE PUSH1 0x7 PUSH1 0x20 SWAP1 DUP2 MSTORE PUSH1 0x40 DUP1 DUP5 KECCAK256 DUP5 SWAP1 SSTORE PUSH1 0x1 PUSH1 0x1 PUSH1 0xA0 SHL SUB SWAP1 SWAP5 AND DUP4 MSTORE PUSH1 0x6 DUP2 MSTORE DUP4 DUP4 KECCAK256 SWAP2 DUP4 MSTORE MSTORE SWAP1 DUP2 KECCAK256 SSTORE JUMP JUMPDEST PUSH1 0x8 SLOAD PUSH1 0x0 SWAP1 PUSH2 0x1B7E SWAP1 PUSH1 0x1 SWAP1 PUSH2 0x242F JUMP JUMPDEST PUSH1 0x0 DUP4 DUP2 MSTORE PUSH1 0x9 PUSH1 0x20 MSTORE PUSH1 0x40 DUP2 KECCAK256 SLOAD PUSH1 0x8 DUP1 SLOAD SWAP4 SWAP5 POP SWAP1 SWAP3 DUP5 SWAP1 DUP2 LT PUSH2 0x1BA6 JUMPI PUSH2 0x1BA6 PUSH2 0x251E JUMP JUMPDEST SWAP1 PUSH1 0x0 MSTORE PUSH1 0x20 PUSH1 0x0 KECCAK256 ADD SLOAD SWAP1 POP DUP1 PUSH1 0x8 DUP4 DUP2 SLOAD DUP2 LT PUSH2 0x1BC7 JUMPI PUSH2 0x1BC7 PUSH2 0x251E JUMP JUMPDEST PUSH1 0x0 SWAP2 DUP3 MSTORE PUSH1 0x20 DUP1 DUP4 KECCAK256 SWAP1 SWAP2 ADD SWAP3 SWAP1 SWAP3 SSTORE DUP3 DUP2 MSTORE PUSH1 0x9 SWAP1 SWAP2 MSTORE PUSH1 0x40 DUP1 DUP3 KECCAK256 DUP5 SWAP1 SSTORE DUP6 DUP3 MSTORE DUP2 KECCAK256 SSTORE PUSH1 0x8 DUP1 SLOAD DUP1 PUSH2 0x1BFF JUMPI PUSH2 0x1BFF PUSH2 0x2508 JUMP JUMPDEST PUSH1 0x1 SWAP1 SUB DUP2 DUP2 SWAP1 PUSH1 0x0 MSTORE PUSH1 0x20 PUSH1 0x0 KECCAK256 ADD PUSH1 0x0 SWAP1 SSTORE SWAP1 SSTORE POP POP POP POP JUMP JUMPDEST PUSH1 0x0 PUSH2 0x1C26 DUP4 PUSH2 0xD4B JUMP JUMPDEST PUSH1 0x1 PUSH1 0x1 PUSH1 0xA0 SHL SUB SWAP1 SWAP4 AND PUSH1 0x0 SWAP1 DUP2 MSTORE PUSH1 0x6 PUSH1 0x20 SWAP1 DUP2 MSTORE PUSH1 0x40 DUP1 DUP4 KECCAK256 DUP7 DUP5 MSTORE DUP3 MSTORE DUP1 DUP4 KECCAK256 DUP6 SWAP1 SSTORE SWAP4 DUP3 MSTORE PUSH1 0x7 SWAP1 MSTORE SWAP2 SWAP1 SWAP2 KECCAK256 SWAP2 SWAP1 SWAP2 SSTORE POP JUMP JUMPDEST PUSH1 0x1 PUSH1 0x1 PUSH1 0xA0 SHL SUB DUP3 AND PUSH2 0x1CB5 JUMPI PUSH1 0x40 MLOAD PUSH3 0x461BCD PUSH1 0xE5 SHL DUP2 MSTORE PUSH1 0x20 PUSH1 0x4 DUP3 ADD DUP2 SWAP1 MSTORE PUSH1 0x24 DUP3 ADD MSTORE PUSH32 0x4552433732313A206D696E7420746F20746865207A65726F2061646472657373 PUSH1 0x44 DUP3 ADD MSTORE PUSH1 0x64 ADD PUSH2 0x879 JUMP JUMPDEST PUSH1 0x0 DUP2 DUP2 MSTORE PUSH1 0x2 PUSH1 0x20 MSTORE PUSH1 0x40 SWAP1 KECCAK256 SLOAD PUSH1 0x1 PUSH1 0x1 PUSH1 0xA0 SHL SUB AND ISZERO PUSH2 0x1D1A JUMPI PUSH1 0x40 MLOAD PUSH3 0x461BCD PUSH1 0xE5 SHL DUP2 MSTORE PUSH1 0x20 PUSH1 0x4 DUP3 ADD MSTORE PUSH1 0x1C PUSH1 0x24 DUP3 ADD MSTORE PUSH32 0x4552433732313A20746F6B656E20616C7265616479206D696E74656400000000 PUSH1 0x44 DUP3 ADD MSTORE PUSH1 0x64 ADD PUSH2 0x879 JUMP JUMPDEST PUSH2 0x1D26 PUSH1 0x0 DUP4 DUP4 PUSH2 0x18D7 JUMP JUMPDEST PUSH1 0x1 PUSH1 0x1 PUSH1 0xA0 SHL SUB DUP3 AND PUSH1 0x0 SWAP1 DUP2 MSTORE PUSH1 0x3 PUSH1 0x20 MSTORE PUSH1 0x40 DUP2 KECCAK256 DUP1 SLOAD PUSH1 0x1 SWAP3 SWAP1 PUSH2 0x1D4F SWAP1 DUP5 SWAP1 PUSH2 0x2403 JUMP JUMPDEST SWAP1 SWAP2 SSTORE POP POP PUSH1 0x0 DUP2 DUP2 MSTORE PUSH1 0x2 PUSH1 0x20 MSTORE PUSH1 0x40 DUP1 DUP3 KECCAK256 DUP1 SLOAD PUSH1 0x1 PUSH1 0x1 PUSH1 0xA0 SHL SUB NOT AND PUSH1 0x1 PUSH1 0x1 PUSH1 0xA0 SHL SUB DUP7 AND SWAP1 DUP2 OR SWAP1 SWAP2 SSTORE SWAP1 MLOAD DUP4 SWAP3 SWAP1 PUSH32 0xDDF252AD1BE2C89B69C2B068FC378DAA952BA7F163C4A11628F55A4DF523B3EF SWAP1 DUP3 SWAP1 LOG4 POP POP JUMP JUMPDEST DUP3 DUP1 SLOAD PUSH2 0x1DB9 SWAP1 PUSH2 0x2472 JUMP JUMPDEST SWAP1 PUSH1 0x0 MSTORE PUSH1 0x20 PUSH1 0x0 KECCAK256 SWAP1 PUSH1 0x1F ADD PUSH1 0x20 SWAP1 DIV DUP2 ADD SWAP3 DUP3 PUSH2 0x1DDB JUMPI PUSH1 0x0 DUP6 SSTORE PUSH2 0x1E21 JUMP JUMPDEST DUP3 PUSH1 0x1F LT PUSH2 0x1DF4 JUMPI DUP1 MLOAD PUSH1 0xFF NOT AND DUP4 DUP1 ADD OR DUP6 SSTORE PUSH2 0x1E21 JUMP JUMPDEST DUP3 DUP1 ADD PUSH1 0x1 ADD DUP6 SSTORE DUP3 ISZERO PUSH2 0x1E21 JUMPI SWAP2 DUP3 ADD JUMPDEST DUP3 DUP2 GT ISZERO PUSH2 0x1E21 JUMPI DUP3 MLOAD DUP3 SSTORE SWAP2 PUSH1 0x20 ADD SWAP2 SWAP1 PUSH1 0x1 ADD SWAP1 PUSH2 0x1E06 JUMP JUMPDEST POP PUSH2 0x1E2D SWAP3 SWAP2 POP PUSH2 0x1EA2 JUMP JUMPDEST POP SWAP1 JUMP JUMPDEST POP DUP1 SLOAD PUSH1 0x0 DUP3 SSTORE SWAP1 PUSH1 0x0 MSTORE PUSH1 0x20 PUSH1 0x0 KECCAK256 SWAP1 DUP2 ADD SWAP1 PUSH2 0xAEB SWAP2 SWAP1 PUSH2 0x1EA2 JUMP JUMPDEST DUP3 DUP1 SLOAD DUP3 DUP3 SSTORE SWAP1 PUSH1 0x0 MSTORE PUSH1 0x20 PUSH1 0x0 KECCAK256 SWAP1 DUP2 ADD SWAP3 DUP3 ISZERO PUSH2 0x1E21 JUMPI SWAP2 PUSH1 0x20 MUL DUP3 ADD JUMPDEST DUP3 DUP2 GT ISZERO PUSH2 0x1E21 JUMPI DUP2 SLOAD PUSH1 0x1 PUSH1 0x1 PUSH1 0xA0 SHL SUB NOT AND PUSH1 0x1 PUSH1 0x1 PUSH1 0xA0 SHL SUB DUP5 CALLDATALOAD AND OR DUP3 SSTORE PUSH1 0x20 SWAP1 SWAP3 ADD SWAP2 PUSH1 0x1 SWAP1 SWAP2 ADD SWAP1 PUSH2 0x1E6F JUMP JUMPDEST JUMPDEST DUP1 DUP3 GT ISZERO PUSH2 0x1E2D JUMPI PUSH1 0x0 DUP2 SSTORE PUSH1 0x1 ADD PUSH2 0x1EA3 JUMP JUMPDEST PUSH1 0x0 PUSH8 0xFFFFFFFFFFFFFFFF DUP1 DUP5 GT ISZERO PUSH2 0x1ED2 JUMPI PUSH2 0x1ED2 PUSH2 0x2534 JUMP JUMPDEST PUSH1 0x40 MLOAD PUSH1 0x1F DUP6 ADD PUSH1 0x1F NOT SWAP1 DUP2 AND PUSH1 0x3F ADD AND DUP2 ADD SWAP1 DUP3 DUP3 GT DUP2 DUP4 LT OR ISZERO PUSH2 0x1EFA JUMPI PUSH2 0x1EFA PUSH2 0x2534 JUMP JUMPDEST DUP2 PUSH1 0x40 MSTORE DUP1 SWAP4 POP DUP6 DUP2 MSTORE DUP7 DUP7 DUP7 ADD GT ISZERO PUSH2 0x1F13 JUMPI PUSH1 0x0 DUP1 REVERT JUMPDEST DUP6 DUP6 PUSH1 0x20 DUP4 ADD CALLDATACOPY PUSH1 0x0 PUSH1 0x20 DUP8 DUP4 ADD ADD MSTORE POP POP POP SWAP4 SWAP3 POP POP POP JUMP JUMPDEST DUP1 CALLDATALOAD PUSH1 0x1 PUSH1 0x1 PUSH1 0xA0 SHL SUB DUP2 AND DUP2 EQ PUSH2 0x1F44 JUMPI PUSH1 0x0 DUP1 REVERT JUMPDEST SWAP2 SWAP1 POP JUMP JUMPDEST DUP1 CALLDATALOAD DUP1 ISZERO ISZERO DUP2 EQ PUSH2 0x1F44 JUMPI PUSH1 0x0 DUP1 REVERT JUMPDEST PUSH1 0x0 PUSH1 0x20 DUP3 DUP5 SUB SLT ISZERO PUSH2 0x1F6B JUMPI PUSH1 0x0 DUP1 REVERT JUMPDEST PUSH2 0x11DA DUP3 PUSH2 0x1F2D JUMP JUMPDEST PUSH1 0x0 DUP1 PUSH1 0x40 DUP4 DUP6 SUB SLT ISZERO PUSH2 0x1F87 JUMPI PUSH1 0x0 DUP1 REVERT JUMPDEST PUSH2 0x1F90 DUP4 PUSH2 0x1F2D JUMP JUMPDEST SWAP2 POP PUSH2 0x1F9E PUSH1 0x20 DUP5 ADD PUSH2 0x1F2D JUMP JUMPDEST SWAP1 POP SWAP3 POP SWAP3 SWAP1 POP JUMP JUMPDEST PUSH1 0x0 DUP1 PUSH1 0x0 PUSH1 0x60 DUP5 DUP7 SUB SLT ISZERO PUSH2 0x1FBC JUMPI PUSH1 0x0 DUP1 REVERT JUMPDEST PUSH2 0x1FC5 DUP5 PUSH2 0x1F2D JUMP JUMPDEST SWAP3 POP PUSH2 0x1FD3 PUSH1 0x20 DUP6 ADD PUSH2 0x1F2D JUMP JUMPDEST SWAP2 POP PUSH1 0x40 DUP5 ADD CALLDATALOAD SWAP1 POP SWAP3 POP SWAP3 POP SWAP3 JUMP JUMPDEST PUSH1 0x0 DUP1 PUSH1 0x0 DUP1 PUSH1 0x80 DUP6 DUP8 SUB SLT ISZERO PUSH2 0x1FF9 JUMPI PUSH1 0x0 DUP1 REVERT JUMPDEST PUSH2 0x2002 DUP6 PUSH2 0x1F2D JUMP JUMPDEST SWAP4 POP PUSH2 0x2010 PUSH1 0x20 DUP7 ADD PUSH2 0x1F2D JUMP JUMPDEST SWAP3 POP PUSH1 0x40 DUP6 ADD CALLDATALOAD SWAP2 POP PUSH1 0x60 DUP6 ADD CALLDATALOAD PUSH8 0xFFFFFFFFFFFFFFFF DUP2 GT ISZERO PUSH2 0x2033 JUMPI PUSH1 0x0 DUP1 REVERT JUMPDEST DUP6 ADD PUSH1 0x1F DUP2 ADD DUP8 SGT PUSH2 0x2044 JUMPI PUSH1 0x0 DUP1 REVERT JUMPDEST PUSH2 0x2053 DUP8 DUP3 CALLDATALOAD PUSH1 0x20 DUP5 ADD PUSH2 0x1EB7 JUMP JUMPDEST SWAP2 POP POP SWAP3 SWAP6 SWAP2 SWAP5 POP SWAP3 POP JUMP JUMPDEST PUSH1 0x0 DUP1 PUSH1 0x40 DUP4 DUP6 SUB SLT ISZERO PUSH2 0x2072 JUMPI PUSH1 0x0 DUP1 REVERT JUMPDEST PUSH2 0x207B DUP4 PUSH2 0x1F2D JUMP JUMPDEST SWAP2 POP PUSH2 0x1F9E PUSH1 0x20 DUP5 ADD PUSH2 0x1F49 JUMP JUMPDEST PUSH1 0x0 DUP1 PUSH1 0x40 DUP4 DUP6 SUB SLT ISZERO PUSH2 0x209C JUMPI PUSH1 0x0 DUP1 REVERT JUMPDEST PUSH2 0x20A5 DUP4 PUSH2 0x1F2D JUMP JUMPDEST SWAP5 PUSH1 0x20 SWAP4 SWAP1 SWAP4 ADD CALLDATALOAD SWAP4 POP POP POP JUMP JUMPDEST PUSH1 0x0 DUP1 PUSH1 0x20 DUP4 DUP6 SUB SLT ISZERO PUSH2 0x20C6 JUMPI PUSH1 0x0 DUP1 REVERT JUMPDEST DUP3 CALLDATALOAD PUSH8 0xFFFFFFFFFFFFFFFF DUP1 DUP3 GT ISZERO PUSH2 0x20DE JUMPI PUSH1 0x0 DUP1 REVERT JUMPDEST DUP2 DUP6 ADD SWAP2 POP DUP6 PUSH1 0x1F DUP4 ADD SLT PUSH2 0x20F2 JUMPI PUSH1 0x0 DUP1 REVERT JUMPDEST DUP2 CALLDATALOAD DUP2 DUP2 GT ISZERO PUSH2 0x2101 JUMPI PUSH1 0x0 DUP1 REVERT JUMPDEST DUP7 PUSH1 0x20 DUP3 PUSH1 0x5 SHL DUP6 ADD ADD GT ISZERO PUSH2 0x2116 JUMPI PUSH1 0x0 DUP1 REVERT JUMPDEST PUSH1 0x20 SWAP3 SWAP1 SWAP3 ADD SWAP7 SWAP2 SWAP6 POP SWAP1 SWAP4 POP POP POP POP JUMP JUMPDEST PUSH1 0x0 PUSH1 0x20 DUP3 DUP5 SUB SLT ISZERO PUSH2 0x213A JUMPI PUSH1 0x0 DUP1 REVERT JUMPDEST PUSH2 0x11DA DUP3 PUSH2 0x1F49 JUMP JUMPDEST PUSH1 0x0 PUSH1 0x20 DUP3 DUP5 SUB SLT ISZERO PUSH2 0x2155 JUMPI PUSH1 0x0 DUP1 REVERT JUMPDEST DUP2 CALLDATALOAD PUSH2 0x11DA DUP2 PUSH2 0x254A JUMP JUMPDEST PUSH1 0x0 PUSH1 0x20 DUP3 DUP5 SUB SLT ISZERO PUSH2 0x2172 JUMPI PUSH1 0x0 DUP1 REVERT JUMPDEST DUP2 MLOAD PUSH2 0x11DA DUP2 PUSH2 0x254A JUMP JUMPDEST PUSH1 0x0 PUSH1 0x20 DUP3 DUP5 SUB SLT ISZERO PUSH2 0x218F JUMPI PUSH1 0x0 DUP1 REVERT JUMPDEST DUP2 CALLDATALOAD PUSH8 0xFFFFFFFFFFFFFFFF DUP2 GT ISZERO PUSH2 0x21A6 JUMPI PUSH1 0x0 DUP1 REVERT JUMPDEST DUP3 ADD PUSH1 0x1F DUP2 ADD DUP5 SGT PUSH2 0x21B7 JUMPI PUSH1 0x0 DUP1 REVERT JUMPDEST PUSH2 0x14AD DUP5 DUP3 CALLDATALOAD PUSH1 0x20 DUP5 ADD PUSH2 0x1EB7 JUMP JUMPDEST PUSH1 0x0 PUSH1 0x20 DUP3 DUP5 SUB SLT ISZERO PUSH2 0x21D8 JUMPI PUSH1 0x0 DUP1 REVERT JUMPDEST POP CALLDATALOAD SWAP2 SWAP1 POP JUMP JUMPDEST PUSH1 0x0 DUP2 MLOAD DUP1 DUP5 MSTORE PUSH2 0x21F7 DUP2 PUSH1 0x20 DUP7 ADD PUSH1 0x20 DUP7 ADD PUSH2 0x2446 JUMP JUMPDEST PUSH1 0x1F ADD PUSH1 0x1F NOT AND SWAP3 SWAP1 SWAP3 ADD PUSH1 0x20 ADD SWAP3 SWAP2 POP POP JUMP JUMPDEST PUSH1 0x0 DUP5 MLOAD PUSH1 0x20 PUSH2 0x221E DUP3 DUP6 DUP4 DUP11 ADD PUSH2 0x2446 JUMP JUMPDEST DUP6 MLOAD SWAP2 DUP5 ADD SWAP2 PUSH2 0x2231 DUP2 DUP5 DUP5 DUP11 ADD PUSH2 0x2446 JUMP JUMPDEST DUP6 SLOAD SWAP3 ADD SWAP2 PUSH1 0x0 SWAP1 PUSH1 0x1 DUP2 DUP2 SHR SWAP1 DUP1 DUP4 AND DUP1 PUSH2 0x224E JUMPI PUSH1 0x7F DUP4 AND SWAP3 POP JUMPDEST DUP6 DUP4 LT DUP2 EQ ISZERO PUSH2 0x226C JUMPI PUSH4 0x4E487B71 PUSH1 0xE0 SHL DUP6 MSTORE PUSH1 0x22 PUSH1 0x4 MSTORE PUSH1 0x24 DUP6 REVERT JUMPDEST DUP1 DUP1 ISZERO PUSH2 0x2280 JUMPI PUSH1 0x1 DUP2 EQ PUSH2 0x2291 JUMPI PUSH2 0x22BE JUMP JUMPDEST PUSH1 0xFF NOT DUP6 AND DUP9 MSTORE DUP4 DUP9 ADD SWAP6 POP PUSH2 0x22BE JUMP JUMPDEST PUSH1 0x0 DUP12 DUP2 MSTORE PUSH1 0x20 SWAP1 KECCAK256 PUSH1 0x0 JUMPDEST DUP6 DUP2 LT ISZERO PUSH2 0x22B6 JUMPI DUP2 SLOAD DUP11 DUP3 ADD MSTORE SWAP1 DUP5 ADD SWAP1 DUP9 ADD PUSH2 0x229D JUMP JUMPDEST POP POP DUP4 DUP9 ADD SWAP6 POP JUMPDEST POP SWAP4 SWAP12 SWAP11 POP POP POP POP POP POP POP POP POP POP POP JUMP JUMPDEST PUSH1 0x1 PUSH1 0x1 PUSH1 0xA0 SHL SUB DUP6 DUP2 AND DUP3 MSTORE DUP5 AND PUSH1 0x20 DUP3 ADD MSTORE PUSH1 0x40 DUP2 ADD DUP4 SWAP1 MSTORE PUSH1 0x80 PUSH1 0x60 DUP3 ADD DUP2 SWAP1 MSTORE PUSH1 0x0 SWAP1 PUSH2 0x2302 SWAP1 DUP4 ADD DUP5 PUSH2 0x21DF JUMP JUMPDEST SWAP7 SWAP6 POP POP POP POP POP POP JUMP JUMPDEST PUSH1 0x20 DUP1 DUP3 MSTORE DUP3 MLOAD DUP3 DUP3 ADD DUP2 SWAP1 MSTORE PUSH1 0x0 SWAP2 SWAP1 DUP5 DUP3 ADD SWAP1 PUSH1 0x40 DUP6 ADD SWAP1 DUP5 JUMPDEST DUP2 DUP2 LT ISZERO PUSH2 0x2344 JUMPI DUP4 MLOAD DUP4 MSTORE SWAP3 DUP5 ADD SWAP3 SWAP2 DUP5 ADD SWAP2 PUSH1 0x1 ADD PUSH2 0x2328 JUMP JUMPDEST POP SWAP1 SWAP7 SWAP6 POP POP POP POP POP POP JUMP JUMPDEST PUSH1 0x20 DUP2 MSTORE PUSH1 0x0 PUSH2 0x11DA PUSH1 0x20 DUP4 ADD DUP5 PUSH2 0x21DF JUMP JUMPDEST PUSH1 0x20 DUP1 DUP3 MSTORE PUSH1 0x32 SWAP1 DUP3 ADD MSTORE PUSH32 0x4552433732313A207472616E7366657220746F206E6F6E204552433732315265 PUSH1 0x40 DUP3 ADD MSTORE PUSH18 0x31B2B4BB32B91034B6B83632B6B2B73A32B9 PUSH1 0x71 SHL PUSH1 0x60 DUP3 ADD MSTORE PUSH1 0x80 ADD SWAP1 JUMP JUMPDEST PUSH1 0x20 DUP1 DUP3 MSTORE PUSH1 0x2E SWAP1 DUP3 ADD MSTORE PUSH32 0x4552433732313A2063616C6C6572206973206E6F7420746F6B656E206F776E65 PUSH1 0x40 DUP3 ADD MSTORE PUSH14 0x1C881B9BDC88185C1C1C9BDD9959 PUSH1 0x92 SHL PUSH1 0x60 DUP3 ADD MSTORE PUSH1 0x80 ADD SWAP1 JUMP JUMPDEST PUSH1 0x0 DUP3 NOT DUP3 GT ISZERO PUSH2 0x2416 JUMPI PUSH2 0x2416 PUSH2 0x24DC JUMP JUMPDEST POP ADD SWAP1 JUMP JUMPDEST PUSH1 0x0 DUP3 PUSH2 0x242A JUMPI PUSH2 0x242A PUSH2 0x24F2 JUMP JUMPDEST POP DIV SWAP1 JUMP JUMPDEST PUSH1 0x0 DUP3 DUP3 LT ISZERO PUSH2 0x2441 JUMPI PUSH2 0x2441 PUSH2 0x24DC JUMP JUMPDEST POP SUB SWAP1 JUMP JUMPDEST PUSH1 0x0 JUMPDEST DUP4 DUP2 LT ISZERO PUSH2 0x2461 JUMPI DUP2 DUP2 ADD MLOAD DUP4 DUP3 ADD MSTORE PUSH1 0x20 ADD PUSH2 0x2449 JUMP JUMPDEST DUP4 DUP2 GT ISZERO PUSH2 0x10C6 JUMPI POP POP PUSH1 0x0 SWAP2 ADD MSTORE JUMP JUMPDEST PUSH1 0x1 DUP2 DUP2 SHR SWAP1 DUP3 AND DUP1 PUSH2 0x2486 JUMPI PUSH1 0x7F DUP3 AND SWAP2 POP JUMPDEST PUSH1 0x20 DUP3 LT DUP2 EQ ISZERO PUSH2 0x24A7 JUMPI PUSH4 0x4E487B71 PUSH1 0xE0 SHL PUSH1 0x0 MSTORE PUSH1 0x22 PUSH1 0x4 MSTORE PUSH1 0x24 PUSH1 0x0 REVERT JUMPDEST POP SWAP2 SWAP1 POP JUMP JUMPDEST PUSH1 0x0 PUSH1 0x0 NOT DUP3 EQ ISZERO PUSH2 0x24C1 JUMPI PUSH2 0x24C1 PUSH2 0x24DC JUMP JUMPDEST POP PUSH1 0x1 ADD SWAP1 JUMP JUMPDEST PUSH1 0x0 DUP3 PUSH2 0x24D7 JUMPI PUSH2 0x24D7 PUSH2 0x24F2 JUMP JUMPDEST POP MOD SWAP1 JUMP JUMPDEST PUSH4 0x4E487B71 PUSH1 0xE0 SHL PUSH1 0x0 MSTORE PUSH1 0x11 PUSH1 0x4 MSTORE PUSH1 0x24 PUSH1 0x0 REVERT JUMPDEST PUSH4 0x4E487B71 PUSH1 0xE0 SHL PUSH1 0x0 MSTORE PUSH1 0x12 PUSH1 0x4 MSTORE PUSH1 0x24 PUSH1 0x0 REVERT JUMPDEST PUSH4 0x4E487B71 PUSH1 0xE0 SHL PUSH1 0x0 MSTORE PUSH1 0x31 PUSH1 0x4 MSTORE PUSH1 0x24 PUSH1 0x0 REVERT JUMPDEST PUSH4 0x4E487B71 PUSH1 0xE0 SHL PUSH1 0x0 MSTORE PUSH1 0x32 PUSH1 0x4 MSTORE PUSH1 0x24 PUSH1 0x0 REVERT JUMPDEST PUSH4 0x4E487B71 PUSH1 0xE0 SHL PUSH1 0x0 MSTORE PUSH1 0x41 PUSH1 0x4 MSTORE PUSH1 0x24 PUSH1 0x0 REVERT JUMPDEST PUSH1 0x1 PUSH1 0x1 PUSH1 0xE0 SHL SUB NOT DUP2 AND DUP2 EQ PUSH2 0xAEB JUMPI PUSH1 0x0 DUP1 REVERT INVALID PUSH9 0x747470733A2F2F6261 PUSH7 0x6B726569636B7A PUSH4 0x64786362 PUSH26 0x67637A6F637A79726B7A7A696935686464677764346B32766B35 PUSH24 0x67616D6D33706B3332356B3774686E792E697066732E6E66 PUSH21 0x73746F726167652E6C696E6B2FA264697066735822 SLT KECCAK256 0xAC SWAP4 SWAP2 PUSH24 0x1DF5B94CEBA08A98493ED21FF90349AB497B953E17E8A2EF DUP4 0xE8 0xCA PUSH30 0x64736F6C6343000807003300000000000000000000000000000000000000 "
				},
				"gasEstimates": {
					"creation": {
						"codeDepositCost": "1942200",
						"executionCost": "infinite",
						"totalCost": "infinite"
					},
					"external": {
						"addressMintedBalance(address)": "2609",
						"approve(address,uint256)": "infinite",
						"balanceOf(address)": "2657",
						"baseExtension()": "infinite",
						"baseURI()": "infinite",
						"contractURI()": "infinite",
						"getApproved(uint256)": "4837",
						"isApprovedForAll(address,address)": "infinite",
						"isWhitelisted(address)": "infinite",
						"maxMintAmount()": "2407",
						"maxSupply()": "2428",
						"mint(uint256)": "infinite",
						"name()": "infinite",
						"nftPerAddressLimit()": "2340",
						"onlyWhitelisted()": "2355",
						"owner()": "2443",
						"ownerOf(uint256)": "2671",
						"pause(bool)": "26762",
						"paused()": "2410",
						"renounceOwnership()": "infinite",
						"safeTransferFrom(address,address,uint256)": "infinite",
						"safeTransferFrom(address,address,uint256,bytes)": "infinite",
						"setApprovalForAll(address,bool)": "infinite",
						"setBaseExtension(string)": "infinite",
						"setBaseURI(string)": "infinite",
						"setNftPerAddressLimit(uint256)": "24599",
						"setOnlyWhitelisted(bool)": "26797",
						"supportsInterface(bytes4)": "infinite",
						"symbol()": "infinite",
						"tokenByIndex(uint256)": "6782",
						"tokenOfOwnerByIndex(address,uint256)": "4976",
						"tokenURI(uint256)": "infinite",
						"totalSupply()": "2349",
						"transferFrom(address,address,uint256)": "infinite",
						"transferOwnership(address)": "28468",
						"walletOfOwner(address)": "infinite",
						"whitelistUsers(address[])": "infinite",
						"whitelistedAddresses(uint256)": "4747",
						"withdraw()": "infinite"
					},
					"internal": {
						"_baseURI()": "infinite"
					}
				},
				"methodIdentifiers": {
					"addressMintedBalance(address)": "18cae269",
					"approve(address,uint256)": "095ea7b3",
					"balanceOf(address)": "70a08231",
					"baseExtension()": "c6682862",
					"baseURI()": "6c0360eb",
					"contractURI()": "e8a3d485",
					"getApproved(uint256)": "081812fc",
					"isApprovedForAll(address,address)": "e985e9c5",
					"isWhitelisted(address)": "3af32abf",
					"maxMintAmount()": "239c70ae",
					"maxSupply()": "d5abeb01",
					"mint(uint256)": "a0712d68",
					"name()": "06fdde03",
					"nftPerAddressLimit()": "ba7d2c76",
					"onlyWhitelisted()": "9c70b512",
					"owner()": "8da5cb5b",
					"ownerOf(uint256)": "6352211e",
					"pause(bool)": "02329a29",
					"paused()": "5c975abb",
					"renounceOwnership()": "715018a6",
					"safeTransferFrom(address,address,uint256)": "42842e0e",
					"safeTransferFrom(address,address,uint256,bytes)": "b88d4fde",
					"setApprovalForAll(address,bool)": "a22cb465",
					"setBaseExtension(string)": "da3ef23f",
					"setBaseURI(string)": "55f804b3",
					"setNftPerAddressLimit(uint256)": "d0eb26b0",
					"setOnlyWhitelisted(bool)": "3c952764",
					"supportsInterface(bytes4)": "01ffc9a7",
					"symbol()": "95d89b41",
					"tokenByIndex(uint256)": "4f6ccce7",
					"tokenOfOwnerByIndex(address,uint256)": "2f745c59",
					"tokenURI(uint256)": "c87b56dd",
					"totalSupply()": "18160ddd",
					"transferFrom(address,address,uint256)": "23b872dd",
					"transferOwnership(address)": "f2fde38b",
					"walletOfOwner(address)": "438b6300",
					"whitelistUsers(address[])": "edec5f27",
					"whitelistedAddresses(uint256)": "ba4e5c49",
					"withdraw()": "3ccfd60b"
				}
			},
			"storageLayout": {
				"storage": [
					{
						"astId": 138,
						"contract": "contracts/WOM_MINT.sol:WOM",
						"label": "_name",
						"offset": 0,
						"slot": "0",
						"type": "t_string_storage"
					},
					{
						"astId": 140,
						"contract": "contracts/WOM_MINT.sol:WOM",
						"label": "_symbol",
						"offset": 0,
						"slot": "1",
						"type": "t_string_storage"
					},
					{
						"astId": 144,
						"contract": "contracts/WOM_MINT.sol:WOM",
						"label": "_owners",
						"offset": 0,
						"slot": "2",
						"type": "t_mapping(t_uint256,t_address)"
					},
					{
						"astId": 148,
						"contract": "contracts/WOM_MINT.sol:WOM",
						"label": "_balances",
						"offset": 0,
						"slot": "3",
						"type": "t_mapping(t_address,t_uint256)"
					},
					{
						"astId": 152,
						"contract": "contracts/WOM_MINT.sol:WOM",
						"label": "_tokenApprovals",
						"offset": 0,
						"slot": "4",
						"type": "t_mapping(t_uint256,t_address)"
					},
					{
						"astId": 158,
						"contract": "contracts/WOM_MINT.sol:WOM",
						"label": "_operatorApprovals",
						"offset": 0,
						"slot": "5",
						"type": "t_mapping(t_address,t_mapping(t_address,t_bool))"
					},
					{
						"astId": 1128,
						"contract": "contracts/WOM_MINT.sol:WOM",
						"label": "_ownedTokens",
						"offset": 0,
						"slot": "6",
						"type": "t_mapping(t_address,t_mapping(t_uint256,t_uint256))"
					},
					{
						"astId": 1132,
						"contract": "contracts/WOM_MINT.sol:WOM",
						"label": "_ownedTokensIndex",
						"offset": 0,
						"slot": "7",
						"type": "t_mapping(t_uint256,t_uint256)"
					},
					{
						"astId": 1135,
						"contract": "contracts/WOM_MINT.sol:WOM",
						"label": "_allTokens",
						"offset": 0,
						"slot": "8",
						"type": "t_array(t_uint256)dyn_storage"
					},
					{
						"astId": 1139,
						"contract": "contracts/WOM_MINT.sol:WOM",
						"label": "_allTokensIndex",
						"offset": 0,
						"slot": "9",
						"type": "t_mapping(t_uint256,t_uint256)"
					},
					{
						"astId": 7,
						"contract": "contracts/WOM_MINT.sol:WOM",
						"label": "_owner",
						"offset": 0,
						"slot": "10",
						"type": "t_address"
					},
					{
						"astId": 2101,
						"contract": "contracts/WOM_MINT.sol:WOM",
						"label": "baseURI",
						"offset": 0,
						"slot": "11",
						"type": "t_string_storage"
					},
					{
						"astId": 2104,
						"contract": "contracts/WOM_MINT.sol:WOM",
						"label": "baseExtension",
						"offset": 0,
						"slot": "12",
						"type": "t_string_storage"
					},
					{
						"astId": 2107,
						"contract": "contracts/WOM_MINT.sol:WOM",
						"label": "maxSupply",
						"offset": 0,
						"slot": "13",
						"type": "t_uint256"
					},
					{
						"astId": 2110,
						"contract": "contracts/WOM_MINT.sol:WOM",
						"label": "maxMintAmount",
						"offset": 0,
						"slot": "14",
						"type": "t_uint256"
					},
					{
						"astId": 2113,
						"contract": "contracts/WOM_MINT.sol:WOM",
						"label": "nftPerAddressLimit",
						"offset": 0,
						"slot": "15",
						"type": "t_uint256"
					},
					{
						"astId": 2116,
						"contract": "contracts/WOM_MINT.sol:WOM",
						"label": "paused",
						"offset": 0,
						"slot": "16",
						"type": "t_bool"
					},
					{
						"astId": 2119,
						"contract": "contracts/WOM_MINT.sol:WOM",
						"label": "onlyWhitelisted",
						"offset": 1,
						"slot": "16",
						"type": "t_bool"
					},
					{
						"astId": 2122,
						"contract": "contracts/WOM_MINT.sol:WOM",
						"label": "whitelistedAddresses",
						"offset": 0,
						"slot": "17",
						"type": "t_array(t_address)dyn_storage"
					},
					{
						"astId": 2126,
						"contract": "contracts/WOM_MINT.sol:WOM",
						"label": "addressMintedBalance",
						"offset": 0,
						"slot": "18",
						"type": "t_mapping(t_address,t_uint256)"
					}
				],
				"types": {
					"t_address": {
						"encoding": "inplace",
						"label": "address",
						"numberOfBytes": "20"
					},
					"t_array(t_address)dyn_storage": {
						"base": "t_address",
						"encoding": "dynamic_array",
						"label": "address[]",
						"numberOfBytes": "32"
					},
					"t_array(t_uint256)dyn_storage": {
						"base": "t_uint256",
						"encoding": "dynamic_array",
						"label": "uint256[]",
						"numberOfBytes": "32"
					},
					"t_bool": {
						"encoding": "inplace",
						"label": "bool",
						"numberOfBytes": "1"
					},
					"t_mapping(t_address,t_bool)": {
						"encoding": "mapping",
						"key": "t_address",
						"label": "mapping(address => bool)",
						"numberOfBytes": "32",
						"value": "t_bool"
					},
					"t_mapping(t_address,t_mapping(t_address,t_bool))": {
						"encoding": "mapping",
						"key": "t_address",
						"label": "mapping(address => mapping(address => bool))",
						"numberOfBytes": "32",
						"value": "t_mapping(t_address,t_bool)"
					},
					"t_mapping(t_address,t_mapping(t_uint256,t_uint256))": {
						"encoding": "mapping",
						"key": "t_address",
						"label": "mapping(address => mapping(uint256 => uint256))",
						"numberOfBytes": "32",
						"value": "t_mapping(t_uint256,t_uint256)"
					},
					"t_mapping(t_address,t_uint256)": {
						"encoding": "mapping",
						"key": "t_address",
						"label": "mapping(address => uint256)",
						"numberOfBytes": "32",
						"value": "t_uint256"
					},
					"t_mapping(t_uint256,t_address)": {
						"encoding": "mapping",
						"key": "t_uint256",
						"label": "mapping(uint256 => address)",
						"numberOfBytes": "32",
						"value": "t_address"
					},
					"t_mapping(t_uint256,t_uint256)": {
						"encoding": "mapping",
						"key": "t_uint256",
						"label": "mapping(uint256 => uint256)",
						"numberOfBytes": "32",
						"value": "t_uint256"
					},
					"t_string_storage": {
						"encoding": "bytes",
						"label": "string",
						"numberOfBytes": "32"
					},
					"t_uint256": {
						"encoding": "inplace",
						"label": "uint256",
						"numberOfBytes": "32"
					}
				}
			},
			"userdoc": {
				"kind": "user",
				"methods": {},
				"version": 1
			}
		}
	}
}