{
	"contracts/WOM_LAND.sol": {
		"WomLand": {
			"abi": [
				{
					"inputs": [],
					"stateMutability": "nonpayable",
					"type": "constructor"
				},
				{
					"inputs": [],
					"name": "ApprovalCallerNotOwnerNorApproved",
					"type": "error"
				},
				{
					"inputs": [],
					"name": "ApprovalQueryForNonexistentToken",
					"type": "error"
				},
				{
					"inputs": [],
					"name": "BalanceQueryForZeroAddress",
					"type": "error"
				},
				{
					"inputs": [],
					"name": "MintERC2309QuantityExceedsLimit",
					"type": "error"
				},
				{
					"inputs": [],
					"name": "MintToZeroAddress",
					"type": "error"
				},
				{
					"inputs": [],
					"name": "MintZeroQuantity",
					"type": "error"
				},
				{
					"inputs": [],
					"name": "OwnerQueryForNonexistentToken",
					"type": "error"
				},
				{
					"inputs": [],
					"name": "OwnershipNotInitializedForExtraData",
					"type": "error"
				},
				{
					"inputs": [],
					"name": "TransferCallerNotOwnerNorApproved",
					"type": "error"
				},
				{
					"inputs": [],
					"name": "TransferFromIncorrectOwner",
					"type": "error"
				},
				{
					"inputs": [],
					"name": "TransferToNonERC721ReceiverImplementer",
					"type": "error"
				},
				{
					"inputs": [],
					"name": "TransferToZeroAddress",
					"type": "error"
				},
				{
					"inputs": [],
					"name": "URIQueryForNonexistentToken",
					"type": "error"
				},
				{
					"anonymous": false,
					"inputs": [
						{
							"indexed": true,
							"internalType": "address",
							"name": "owner",
							"type": "address"
						},
						{
							"indexed": true,
							"internalType": "address",
							"name": "approved",
							"type": "address"
						},
						{
							"indexed": true,
							"internalType": "uint256",
							"name": "tokenId",
							"type": "uint256"
						}
					],
					"name": "Approval",
					"type": "event"
				},
				{
					"anonymous": false,
					"inputs": [
						{
							"indexed": true,
							"internalType": "address",
							"name": "owner",
							"type": "address"
						},
						{
							"indexed": true,
							"internalType": "address",
							"name": "operator",
							"type": "address"
						},
						{
							"indexed": false,
							"internalType": "bool",
							"name": "approved",
							"type": "bool"
						}
					],
					"name": "ApprovalForAll",
					"type": "event"
				},
				{
					"anonymous": false,
					"inputs": [
						{
							"indexed": true,
							"internalType": "uint256",
							"name": "fromTokenId",
							"type": "uint256"
						},
						{
							"indexed": false,
							"internalType": "uint256",
							"name": "toTokenId",
							"type": "uint256"
						},
						{
							"indexed": true,
							"internalType": "address",
							"name": "from",
							"type": "address"
						},
						{
							"indexed": true,
							"internalType": "address",
							"name": "to",
							"type": "address"
						}
					],
					"name": "ConsecutiveTransfer",
					"type": "event"
				},
				{
					"anonymous": false,
					"inputs": [
						{
							"indexed": true,
							"internalType": "address",
							"name": "previousOwner",
							"type": "address"
						},
						{
							"indexed": true,
							"internalType": "address",
							"name": "newOwner",
							"type": "address"
						}
					],
					"name": "OwnershipTransferred",
					"type": "event"
				},
				{
					"anonymous": false,
					"inputs": [
						{
							"indexed": true,
							"internalType": "address",
							"name": "from",
							"type": "address"
						},
						{
							"indexed": true,
							"internalType": "address",
							"name": "to",
							"type": "address"
						},
						{
							"indexed": true,
							"internalType": "uint256",
							"name": "tokenId",
							"type": "uint256"
						}
					],
					"name": "Transfer",
					"type": "event"
				},
				{
					"inputs": [
						{
							"internalType": "address",
							"name": "",
							"type": "address"
						}
					],
					"name": "alreadyMinted",
					"outputs": [
						{
							"internalType": "uint256",
							"name": "",
							"type": "uint256"
						}
					],
					"stateMutability": "view",
					"type": "function"
				},
				{
					"inputs": [
						{
							"internalType": "address",
							"name": "to",
							"type": "address"
						},
						{
							"internalType": "uint256",
							"name": "tokenId",
							"type": "uint256"
						}
					],
					"name": "approve",
					"outputs": [],
					"stateMutability": "payable",
					"type": "function"
				},
				{
					"inputs": [
						{
							"internalType": "address",
							"name": "owner",
							"type": "address"
						}
					],
					"name": "balanceOf",
					"outputs": [
						{
							"internalType": "uint256",
							"name": "",
							"type": "uint256"
						}
					],
					"stateMutability": "view",
					"type": "function"
				},
				{
					"inputs": [],
					"name": "baseURI",
					"outputs": [
						{
							"internalType": "string",
							"name": "",
							"type": "string"
						}
					],
					"stateMutability": "view",
					"type": "function"
				},
				{
					"inputs": [
						{
							"internalType": "uint256",
							"name": "tokenId",
							"type": "uint256"
						}
					],
					"name": "burn",
					"outputs": [],
					"stateMutability": "nonpayable",
					"type": "function"
				},
				{
					"inputs": [
						{
							"internalType": "uint256",
							"name": "tokenId",
							"type": "uint256"
						}
					],
					"name": "getApproved",
					"outputs": [
						{
							"internalType": "address",
							"name": "",
							"type": "address"
						}
					],
					"stateMutability": "view",
					"type": "function"
				},
				{
					"inputs": [
						{
							"internalType": "address",
							"name": "owner",
							"type": "address"
						},
						{
							"internalType": "address",
							"name": "operator",
							"type": "address"
						}
					],
					"name": "isApprovedForAll",
					"outputs": [
						{
							"internalType": "bool",
							"name": "",
							"type": "bool"
						}
					],
					"stateMutability": "view",
					"type": "function"
				},
				{
					"inputs": [],
					"name": "maxSupply",
					"outputs": [
						{
							"internalType": "uint256",
							"name": "",
							"type": "uint256"
						}
					],
					"stateMutability": "view",
					"type": "function"
				},
				{
					"inputs": [
						{
							"internalType": "uint256",
							"name": "quantity",
							"type": "uint256"
						},
						{
							"internalType": "uint256",
							"name": "maxMint",
							"type": "uint256"
						},
						{
							"internalType": "uint256",
							"name": "unitPrice",
							"type": "uint256"
						},
						{
							"internalType": "bytes",
							"name": "signature",
							"type": "bytes"
						}
					],
					"name": "mint",
					"outputs": [],
					"stateMutability": "payable",
					"type": "function"
				},
				{
					"inputs": [],
					"name": "name",
					"outputs": [
						{
							"internalType": "string",
							"name": "",
							"type": "string"
						}
					],
					"stateMutability": "view",
					"type": "function"
				},
				{
					"inputs": [],
					"name": "owner",
					"outputs": [
						{
							"internalType": "address",
							"name": "",
							"type": "address"
						}
					],
					"stateMutability": "view",
					"type": "function"
				},
				{
					"inputs": [
						{
							"internalType": "address",
							"name": "to",
							"type": "address"
						},
						{
							"internalType": "uint256",
							"name": "quantity",
							"type": "uint256"
						}
					],
					"name": "ownerMint",
					"outputs": [],
					"stateMutability": "nonpayable",
					"type": "function"
				},
				{
					"inputs": [
						{
							"internalType": "uint256",
							"name": "tokenId",
							"type": "uint256"
						}
					],
					"name": "ownerOf",
					"outputs": [
						{
							"internalType": "address",
							"name": "",
							"type": "address"
						}
					],
					"stateMutability": "view",
					"type": "function"
				},
				{
					"inputs": [
						{
							"internalType": "bool",
							"name": "_state",
							"type": "bool"
						}
					],
					"name": "pause",
					"outputs": [],
					"stateMutability": "nonpayable",
					"type": "function"
				},
				{
					"inputs": [],
					"name": "paused",
					"outputs": [
						{
							"internalType": "bool",
							"name": "",
							"type": "bool"
						}
					],
					"stateMutability": "view",
					"type": "function"
				},
				{
					"inputs": [],
					"name": "publicMaxNFTPerAddress",
					"outputs": [
						{
							"internalType": "uint256",
							"name": "",
							"type": "uint256"
						}
					],
					"stateMutability": "view",
					"type": "function"
				},
				{
					"inputs": [],
					"name": "publicMint",
					"outputs": [
						{
							"internalType": "bool",
							"name": "",
							"type": "bool"
						}
					],
					"stateMutability": "view",
					"type": "function"
				},
				{
					"inputs": [],
					"name": "publicPriceMint",
					"outputs": [
						{
							"internalType": "uint256",
							"name": "",
							"type": "uint256"
						}
					],
					"stateMutability": "view",
					"type": "function"
				},
				{
					"inputs": [],
					"name": "renounceOwnership",
					"outputs": [],
					"stateMutability": "nonpayable",
					"type": "function"
				},
				{
					"inputs": [
						{
							"internalType": "address",
							"name": "from",
							"type": "address"
						},
						{
							"internalType": "address",
							"name": "to",
							"type": "address"
						},
						{
							"internalType": "uint256",
							"name": "tokenId",
							"type": "uint256"
						}
					],
					"name": "safeTransferFrom",
					"outputs": [],
					"stateMutability": "payable",
					"type": "function"
				},
				{
					"inputs": [
						{
							"internalType": "address",
							"name": "from",
							"type": "address"
						},
						{
							"internalType": "address",
							"name": "to",
							"type": "address"
						},
						{
							"internalType": "uint256",
							"name": "tokenId",
							"type": "uint256"
						},
						{
							"internalType": "bytes",
							"name": "_data",
							"type": "bytes"
						}
					],
					"name": "safeTransferFrom",
					"outputs": [],
					"stateMutability": "payable",
					"type": "function"
				},
				{
					"inputs": [
						{
							"internalType": "address",
							"name": "operator",
							"type": "address"
						},
						{
							"internalType": "bool",
							"name": "approved",
							"type": "bool"
						}
					],
					"name": "setApprovalForAll",
					"outputs": [],
					"stateMutability": "nonpayable",
					"type": "function"
				},
				{
					"inputs": [
						{
							"internalType": "string",
							"name": "baseuri_",
							"type": "string"
						}
					],
					"name": "setBaseUri",
					"outputs": [],
					"stateMutability": "nonpayable",
					"type": "function"
				},
				{
					"inputs": [
						{
							"internalType": "uint256",
							"name": "_state",
							"type": "uint256"
						}
					],
					"name": "setPublicMaxNFTPerAddress",
					"outputs": [],
					"stateMutability": "nonpayable",
					"type": "function"
				},
				{
					"inputs": [
						{
							"internalType": "bool",
							"name": "_state",
							"type": "bool"
						}
					],
					"name": "setPublicMint",
					"outputs": [],
					"stateMutability": "nonpayable",
					"type": "function"
				},
				{
					"inputs": [
						{
							"internalType": "uint256",
							"name": "_state",
							"type": "uint256"
						}
					],
					"name": "setPublicPrice",
					"outputs": [],
					"stateMutability": "nonpayable",
					"type": "function"
				},
				{
					"inputs": [
						{
							"internalType": "address",
							"name": "signerAddress_",
							"type": "address"
						}
					],
					"name": "setSignerAddress",
					"outputs": [],
					"stateMutability": "nonpayable",
					"type": "function"
				},
				{
					"inputs": [],
					"name": "signerAddress",
					"outputs": [
						{
							"internalType": "address",
							"name": "",
							"type": "address"
						}
					],
					"stateMutability": "view",
					"type": "function"
				},
				{
					"inputs": [
						{
							"internalType": "bytes4",
							"name": "interfaceId",
							"type": "bytes4"
						}
					],
					"name": "supportsInterface",
					"outputs": [
						{
							"internalType": "bool",
							"name": "",
							"type": "bool"
						}
					],
					"stateMutability": "view",
					"type": "function"
				},
				{
					"inputs": [],
					"name": "symbol",
					"outputs": [
						{
							"internalType": "string",
							"name": "",
							"type": "string"
						}
					],
					"stateMutability": "view",
					"type": "function"
				},
				{
					"inputs": [
						{
							"internalType": "uint256",
							"name": "tokenId",
							"type": "uint256"
						}
					],
					"name": "tokenURI",
					"outputs": [
						{
							"internalType": "string",
							"name": "",
							"type": "string"
						}
					],
					"stateMutability": "view",
					"type": "function"
				},
				{
					"inputs": [],
					"name": "totalSupply",
					"outputs": [
						{
							"internalType": "uint256",
							"name": "",
							"type": "uint256"
						}
					],
					"stateMutability": "view",
					"type": "function"
				},
				{
					"inputs": [
						{
							"internalType": "address",
							"name": "from",
							"type": "address"
						},
						{
							"internalType": "address",
							"name": "to",
							"type": "address"
						},
						{
							"internalType": "uint256",
							"name": "tokenId",
							"type": "uint256"
						}
					],
					"name": "transferFrom",
					"outputs": [],
					"stateMutability": "payable",
					"type": "function"
				},
				{
					"inputs": [
						{
							"internalType": "address",
							"name": "newOwner",
							"type": "address"
						}
					],
					"name": "transferOwnership",
					"outputs": [],
					"stateMutability": "nonpayable",
					"type": "function"
				},
				{
					"inputs": [
						{
							"internalType": "uint256",
							"name": "maxMint",
							"type": "uint256"
						},
						{
							"internalType": "uint256",
							"name": "unitPrice",
							"type": "uint256"
						},
						{
							"internalType": "address",
							"name": "minterAddress",
							"type": "address"
						},
						{
							"internalType": "bytes",
							"name": "signature",
							"type": "bytes"
						}
					],
					"name": "verifyCoupon",
					"outputs": [],
					"stateMutability": "view",
					"type": "function"
				},
				{
					"inputs": [],
					"name": "withdraw",
					"outputs": [],
					"stateMutability": "payable",
					"type": "function"
				}
			],
			"devdoc": {
				"kind": "dev",
				"methods": {
					"approve(address,uint256)": {
						"details": "Gives permission to `to` to transfer `tokenId` token to another account. The approval is cleared when the token is transferred. Only a single account can be approved at a time, so approving the zero address clears previous approvals. Requirements: - The caller must own the token or be an approved operator. - `tokenId` must exist. Emits an {Approval} event."
					},
					"balanceOf(address)": {
						"details": "Returns the number of tokens in `owner`'s account."
					},
					"getApproved(uint256)": {
						"details": "Returns the account approved for `tokenId` token. Requirements: - `tokenId` must exist."
					},
					"isApprovedForAll(address,address)": {
						"details": "Returns if the `operator` is allowed to manage all of the assets of `owner`. See {setApprovalForAll}."
					},
					"name()": {
						"details": "Returns the token collection name."
					},
					"owner()": {
						"details": "Returns the address of the current owner."
					},
					"ownerOf(uint256)": {
						"details": "Returns the owner of the `tokenId` token. Requirements: - `tokenId` must exist."
					},
					"renounceOwnership()": {
						"details": "Leaves the contract without owner. It will not be possible to call `onlyOwner` functions anymore. Can only be called by the current owner. NOTE: Renouncing ownership will leave the contract without an owner, thereby removing any functionality that is only available to the owner."
					},
					"safeTransferFrom(address,address,uint256)": {
						"details": "Equivalent to `safeTransferFrom(from, to, tokenId, '')`."
					},
					"safeTransferFrom(address,address,uint256,bytes)": {
						"details": "Safely transfers `tokenId` token from `from` to `to`. Requirements: - `from` cannot be the zero address. - `to` cannot be the zero address. - `tokenId` token must exist and be owned by `from`. - If the caller is not `from`, it must be approved to move this token by either {approve} or {setApprovalForAll}. - If `to` refers to a smart contract, it must implement {IERC721Receiver-onERC721Received}, which is called upon a safe transfer. Emits a {Transfer} event."
					},
					"setApprovalForAll(address,bool)": {
						"details": "Approve or remove `operator` as an operator for the caller. Operators can call {transferFrom} or {safeTransferFrom} for any token owned by the caller. Requirements: - The `operator` cannot be the caller. Emits an {ApprovalForAll} event."
					},
					"supportsInterface(bytes4)": {
						"details": "Returns true if this contract implements the interface defined by `interfaceId`. See the corresponding [EIP section](https://eips.ethereum.org/EIPS/eip-165#how-interfaces-are-identified) to learn more about how these ids are created. This function call must use less than 30000 gas."
					},
					"symbol()": {
						"details": "Returns the token collection symbol."
					},
					"tokenURI(uint256)": {
						"details": "Returns the Uniform Resource Identifier (URI) for `tokenId` token."
					},
					"totalSupply()": {
						"details": "Returns the total number of tokens in existence. Burned tokens will reduce the count. To get the total number of tokens minted, please see {_totalMinted}."
					},
					"transferFrom(address,address,uint256)": {
						"details": "Transfers `tokenId` from `from` to `to`. Requirements: - `from` cannot be the zero address. - `to` cannot be the zero address. - `tokenId` token must be owned by `from`. - If the caller is not `from`, it must be approved to move this token by either {approve} or {setApprovalForAll}. Emits a {Transfer} event."
					},
					"transferOwnership(address)": {
						"details": "Transfers ownership of the contract to a new account (`newOwner`). Can only be called by the current owner."
					}
				},
				"version": 1
			},
			"evm": {
				"assembly": "    /* \"contracts/WOM_LAND.sol\":227:3836  contract WomLand is ERC721A, Ownable {... */\n  mstore(0x40, 0x80)\n    /* \"contracts/WOM_LAND.sol\":324:328  1000 */\n  0x03e8\n    /* \"contracts/WOM_LAND.sol\":297:328  uint256 public maxSupply = 1000 */\n  0x0a\n  sstore\n    /* \"contracts/WOM_LAND.sol\":374:375  1 */\n  0x01\n    /* \"contracts/WOM_LAND.sol\":334:375  uint256 public publicMaxNFTPerAddress = 1 */\n  0x0b\n  sstore\n    /* \"contracts/WOM_LAND.sol\":414:424  0.04 ether */\n  0x8e1bc9bf040000\n    /* \"contracts/WOM_LAND.sol\":381:424  uint256 public publicPriceMint = 0.04 ether */\n  0x0c\n  sstore\n    /* \"contracts/WOM_LAND.sol\":430:456  bool public paused = false */\n  0x0d\n  dup1\n  sload\n  not(sub(shl(0xb0, 0x01), 0x01))\n    /* \"contracts/WOM_LAND.sol\":498:571  address public signerAddress = 0x4E99031f4C39cd1AE173Bc32e397dE77ac6D6395 */\n  and\n  0x4e99031f4c39cd1ae173bc32e397de77ac6d63950000\n  or\n  swap1\n  sstore\n    /* \"contracts/WOM_LAND.sol\":662:714  constructor() ERC721A(\"Lands of Mythesda\", \"LOM\") {} */\n  callvalue\n  dup1\n  iszero\n  tag_1\n  jumpi\n  0x00\n  dup1\n  revert\ntag_1:\n  pop\n    /* \"erc721a/contracts/ERC721A.sol\":4946:5100  constructor(string memory name_, string memory symbol_) {... */\n  mload(0x40)\n  dup1\n  0x40\n  add\n  0x40\n  mstore\n  dup1\n  0x11\n  dup2\n  mstore\n  0x20\n  add\n  shl(0x78, 0x4c616e6473206f66204d79746865736461)\n  dup2\n  mstore\n  pop\n  mload(0x40)\n  dup1\n  0x40\n  add\n  0x40\n  mstore\n  dup1\n  0x03\n  dup2\n  mstore\n  0x20\n  add\n  shl(0xe8, 0x4c4f4d)\n  dup2\n  mstore\n  pop\n    /* \"erc721a/contracts/ERC721A.sol\":5020:5025  name_ */\n  dup2\n    /* \"erc721a/contracts/ERC721A.sol\":5012:5017  _name */\n  0x02\n    /* \"erc721a/contracts/ERC721A.sol\":5012:5025  _name = name_ */\n  swap1\n  dup2\n  tag_6\n  swap2\n  swap1\n  tag_7\n  jump\t// in\ntag_6:\n  pop\n    /* \"erc721a/contracts/ERC721A.sol\":5035:5042  _symbol */\n  0x03\n    /* \"erc721a/contracts/ERC721A.sol\":5035:5052  _symbol = symbol_ */\n  tag_8\n    /* \"erc721a/contracts/ERC721A.sol\":5045:5052  symbol_ */\n  dup3\n    /* \"erc721a/contracts/ERC721A.sol\":5035:5042  _symbol */\n  dup3\n    /* \"erc721a/contracts/ERC721A.sol\":5035:5052  _symbol = symbol_ */\n  tag_7\n  jump\t// in\ntag_8:\n  pop\n  pop\n    /* \"erc721a/contracts/ERC721A.sol\":5482:5489  uint256 */\n  0x00\n    /* \"erc721a/contracts/ERC721A.sol\":5062:5093  _currentIndex = _startTokenId() */\n  dup1\n  sstore\n  pop\n    /* \"@openzeppelin/contracts/access/Ownable.sol\":936:968  _transferOwnership(_msgSender()) */\n  tag_12\n    /* \"@openzeppelin/contracts/utils/Context.sol\":719:729  msg.sender */\n  caller\n    /* \"@openzeppelin/contracts/access/Ownable.sol\":936:954  _transferOwnership */\n  tag_15\n    /* \"@openzeppelin/contracts/access/Ownable.sol\":936:968  _transferOwnership(_msgSender()) */\n  jump\t// in\ntag_12:\n    /* \"contracts/WOM_LAND.sol\":227:3836  contract WomLand is ERC721A, Ownable {... */\n  jump(tag_26)\n    /* \"@openzeppelin/contracts/access/Ownable.sol\":2433:2620  function _transferOwnership(address newOwner) internal virtual {... */\ntag_15:\n    /* \"@openzeppelin/contracts/access/Ownable.sol\":2525:2531  _owner */\n  0x08\n  dup1\n  sload\n  sub(shl(0xa0, 0x01), 0x01)\n    /* \"@openzeppelin/contracts/access/Ownable.sol\":2541:2558  _owner = newOwner */\n  dup4\n  dup2\n  and\n  not(sub(shl(0xa0, 0x01), 0x01))\n  dup4\n  and\n  dup2\n  or\n  swap1\n  swap4\n  sstore\n    /* \"@openzeppelin/contracts/access/Ownable.sol\":2573:2613  OwnershipTransferred(oldOwner, newOwner) */\n  mload(0x40)\n    /* \"@openzeppelin/contracts/access/Ownable.sol\":2525:2531  _owner */\n  swap2\n  and\n  swap2\n    /* \"@openzeppelin/contracts/access/Ownable.sol\":2541:2558  _owner = newOwner */\n  swap1\n    /* \"@openzeppelin/contracts/access/Ownable.sol\":2525:2531  _owner */\n  dup3\n  swap1\n    /* \"@openzeppelin/contracts/access/Ownable.sol\":2573:2613  OwnershipTransferred(oldOwner, newOwner) */\n  0x8be0079c531659141344cd1fd0a4f28419497f9722a3daafe3b4186f6b6457e0\n  swap1\n    /* \"@openzeppelin/contracts/access/Ownable.sol\":2506:2522  address oldOwner */\n  0x00\n  swap1\n    /* \"@openzeppelin/contracts/access/Ownable.sol\":2573:2613  OwnershipTransferred(oldOwner, newOwner) */\n  log3\n    /* \"@openzeppelin/contracts/access/Ownable.sol\":2496:2620  {... */\n  pop\n    /* \"@openzeppelin/contracts/access/Ownable.sol\":2433:2620  function _transferOwnership(address newOwner) internal virtual {... */\n  pop\n  jump\t// out\n    /* \"#utility.yul\":14:141   */\ntag_21:\n    /* \"#utility.yul\":75:85   */\n  0x4e487b71\n    /* \"#utility.yul\":70:73   */\n  0xe0\n    /* \"#utility.yul\":66:86   */\n  shl\n    /* \"#utility.yul\":63:64   */\n  0x00\n    /* \"#utility.yul\":56:87   */\n  mstore\n    /* \"#utility.yul\":106:110   */\n  0x41\n    /* \"#utility.yul\":103:104   */\n  0x04\n    /* \"#utility.yul\":96:111   */\n  mstore\n    /* \"#utility.yul\":130:134   */\n  0x24\n    /* \"#utility.yul\":127:128   */\n  0x00\n    /* \"#utility.yul\":120:135   */\n  revert\n    /* \"#utility.yul\":146:526   */\ntag_22:\n    /* \"#utility.yul\":225:226   */\n  0x01\n    /* \"#utility.yul\":221:233   */\n  dup2\n  dup2\n  shr\n  swap1\n    /* \"#utility.yul\":268:280   */\n  dup3\n  and\n  dup1\n    /* \"#utility.yul\":289:350   */\n  tag_29\n  jumpi\n    /* \"#utility.yul\":343:347   */\n  0x7f\n    /* \"#utility.yul\":335:341   */\n  dup3\n    /* \"#utility.yul\":331:348   */\n  and\n    /* \"#utility.yul\":321:348   */\n  swap2\n  pop\n    /* \"#utility.yul\":289:350   */\ntag_29:\n    /* \"#utility.yul\":396:398   */\n  0x20\n    /* \"#utility.yul\":388:394   */\n  dup3\n    /* \"#utility.yul\":385:399   */\n  lt\n    /* \"#utility.yul\":365:383   */\n  dup2\n    /* \"#utility.yul\":362:400   */\n  sub\n    /* \"#utility.yul\":359:520   */\n  tag_30\n  jumpi\n    /* \"#utility.yul\":442:452   */\n  0x4e487b71\n    /* \"#utility.yul\":437:440   */\n  0xe0\n    /* \"#utility.yul\":433:453   */\n  shl\n    /* \"#utility.yul\":430:431   */\n  0x00\n    /* \"#utility.yul\":423:454   */\n  mstore\n    /* \"#utility.yul\":477:481   */\n  0x22\n    /* \"#utility.yul\":474:475   */\n  0x04\n    /* \"#utility.yul\":467:482   */\n  mstore\n    /* \"#utility.yul\":505:509   */\n  0x24\n    /* \"#utility.yul\":502:503   */\n  0x00\n    /* \"#utility.yul\":495:510   */\n  revert\n    /* \"#utility.yul\":359:520   */\ntag_30:\n  pop\n    /* \"#utility.yul\":146:526   */\n  swap2\n  swap1\n  pop\n  jump\t// out\n    /* \"#utility.yul\":657:1202   */\ntag_24:\n    /* \"#utility.yul\":759:761   */\n  0x1f\n    /* \"#utility.yul\":754:757   */\n  dup3\n    /* \"#utility.yul\":751:762   */\n  gt\n    /* \"#utility.yul\":748:1196   */\n  iszero\n  tag_33\n  jumpi\n    /* \"#utility.yul\":795:796   */\n  0x00\n    /* \"#utility.yul\":820:825   */\n  dup2\n    /* \"#utility.yul\":816:818   */\n  dup2\n    /* \"#utility.yul\":809:826   */\n  mstore\n    /* \"#utility.yul\":865:869   */\n  0x20\n    /* \"#utility.yul\":861:863   */\n  dup2\n    /* \"#utility.yul\":851:870   */\n  keccak256\n    /* \"#utility.yul\":935:937   */\n  0x1f\n    /* \"#utility.yul\":923:933   */\n  dup6\n    /* \"#utility.yul\":919:938   */\n  add\n    /* \"#utility.yul\":916:917   */\n  0x05\n    /* \"#utility.yul\":912:939   */\n  shr\n    /* \"#utility.yul\":906:910   */\n  dup2\n    /* \"#utility.yul\":902:940   */\n  add\n    /* \"#utility.yul\":971:975   */\n  0x20\n    /* \"#utility.yul\":959:969   */\n  dup7\n    /* \"#utility.yul\":956:976   */\n  lt\n    /* \"#utility.yul\":953:1000   */\n  iszero\n  tag_34\n  jumpi\n  pop\n    /* \"#utility.yul\":994:998   */\n  dup1\n    /* \"#utility.yul\":953:1000   */\ntag_34:\n    /* \"#utility.yul\":1049:1051   */\n  0x1f\n    /* \"#utility.yul\":1044:1047   */\n  dup6\n    /* \"#utility.yul\":1040:1052   */\n  add\n    /* \"#utility.yul\":1037:1038   */\n  0x05\n    /* \"#utility.yul\":1033:1053   */\n  shr\n    /* \"#utility.yul\":1027:1031   */\n  dup3\n    /* \"#utility.yul\":1023:1054   */\n  add\n    /* \"#utility.yul\":1013:1054   */\n  swap2\n  pop\n    /* \"#utility.yul\":1104:1186   */\ntag_35:\n    /* \"#utility.yul\":1122:1124   */\n  dup2\n    /* \"#utility.yul\":1115:1120   */\n  dup2\n    /* \"#utility.yul\":1112:1125   */\n  lt\n    /* \"#utility.yul\":1104:1186   */\n  iszero\n  tag_37\n  jumpi\n    /* \"#utility.yul\":1167:1184   */\n  dup3\n  dup2\n  sstore\n    /* \"#utility.yul\":1148:1149   */\n  0x01\n    /* \"#utility.yul\":1137:1150   */\n  add\n    /* \"#utility.yul\":1104:1186   */\n  jump(tag_35)\ntag_37:\n    /* \"#utility.yul\":1108:1111   */\n  pop\n  pop\n  pop\n    /* \"#utility.yul\":748:1196   */\ntag_33:\n    /* \"#utility.yul\":657:1202   */\n  pop\n  pop\n  pop\n  jump\t// out\n    /* \"#utility.yul\":1378:2730   */\ntag_7:\n    /* \"#utility.yul\":1498:1508   */\n  dup2\n  mload\n  sub(shl(0x40, 0x01), 0x01)\n    /* \"#utility.yul\":1520:1550   */\n  dup2\n  gt\n    /* \"#utility.yul\":1517:1573   */\n  iszero\n  tag_41\n  jumpi\n    /* \"#utility.yul\":1553:1571   */\n  tag_41\n  tag_21\n  jump\t// in\ntag_41:\n    /* \"#utility.yul\":1582:1679   */\n  tag_42\n    /* \"#utility.yul\":1672:1678   */\n  dup2\n    /* \"#utility.yul\":1632:1670   */\n  tag_43\n    /* \"#utility.yul\":1664:1668   */\n  dup5\n    /* \"#utility.yul\":1658:1669   */\n  sload\n    /* \"#utility.yul\":1632:1670   */\n  tag_22\n  jump\t// in\ntag_43:\n    /* \"#utility.yul\":1626:1630   */\n  dup5\n    /* \"#utility.yul\":1582:1679   */\n  tag_24\n  jump\t// in\ntag_42:\n    /* \"#utility.yul\":1734:1738   */\n  0x20\n  dup1\n    /* \"#utility.yul\":1798:1800   */\n  0x1f\n    /* \"#utility.yul\":1787:1801   */\n  dup4\n  gt\n    /* \"#utility.yul\":1815:1816   */\n  0x01\n    /* \"#utility.yul\":1810:2473   */\n  dup2\n  eq\n  tag_45\n  jumpi\n    /* \"#utility.yul\":2517:2518   */\n  0x00\n    /* \"#utility.yul\":2534:2540   */\n  dup5\n    /* \"#utility.yul\":2531:2620   */\n  iszero\n  tag_46\n  jumpi\n  pop\n    /* \"#utility.yul\":2586:2605   */\n  dup6\n  dup4\n  add\n    /* \"#utility.yul\":2580:2606   */\n  mload\n    /* \"#utility.yul\":2531:2620   */\ntag_46:\n  not(0x00)\n    /* \"#utility.yul\":1335:1336   */\n  0x03\n    /* \"#utility.yul\":1331:1342   */\n  dup7\n  swap1\n  shl\n    /* \"#utility.yul\":1327:1351   */\n  shr\n    /* \"#utility.yul\":1323:1352   */\n  not\n    /* \"#utility.yul\":1313:1353   */\n  and\n    /* \"#utility.yul\":1359:1360   */\n  0x01\n    /* \"#utility.yul\":1355:1366   */\n  dup6\n  swap1\n  shl\n    /* \"#utility.yul\":1310:1367   */\n  or\n    /* \"#utility.yul\":2633:2714   */\n  dup6\n  sstore\n    /* \"#utility.yul\":1780:2724   */\n  jump(tag_37)\n    /* \"#utility.yul\":1810:2473   */\ntag_45:\n    /* \"#utility.yul\":604:605   */\n  0x00\n    /* \"#utility.yul\":597:611   */\n  dup6\n  dup2\n  mstore\n    /* \"#utility.yul\":641:645   */\n  0x20\n    /* \"#utility.yul\":628:646   */\n  dup2\n  keccak256\n  not(0x1f)\n    /* \"#utility.yul\":1846:1866   */\n  dup7\n  and\n  swap2\n    /* \"#utility.yul\":1964:2200   */\ntag_49:\n    /* \"#utility.yul\":1978:1985   */\n  dup3\n    /* \"#utility.yul\":1975:1976   */\n  dup2\n    /* \"#utility.yul\":1972:1986   */\n  lt\n    /* \"#utility.yul\":1964:2200   */\n  iszero\n  tag_51\n  jumpi\n    /* \"#utility.yul\":2067:2086   */\n  dup9\n  dup7\n  add\n    /* \"#utility.yul\":2061:2087   */\n  mload\n    /* \"#utility.yul\":2046:2088   */\n  dup3\n  sstore\n    /* \"#utility.yul\":2159:2186   */\n  swap5\n  dup5\n  add\n  swap5\n    /* \"#utility.yul\":2127:2128   */\n  0x01\n    /* \"#utility.yul\":2115:2129   */\n  swap1\n  swap2\n  add\n  swap1\n    /* \"#utility.yul\":1994:2013   */\n  dup5\n  add\n    /* \"#utility.yul\":1964:2200   */\n  jump(tag_49)\ntag_51:\n    /* \"#utility.yul\":1968:1971   */\n  pop\n    /* \"#utility.yul\":2228:2234   */\n  dup6\n    /* \"#utility.yul\":2219:2226   */\n  dup3\n    /* \"#utility.yul\":2216:2235   */\n  lt\n    /* \"#utility.yul\":2213:2414   */\n  iszero\n  tag_52\n  jumpi\n    /* \"#utility.yul\":2289:2308   */\n  dup8\n  dup6\n  add\n    /* \"#utility.yul\":2283:2309   */\n  mload\n  not(0x00)\n    /* \"#utility.yul\":2372:2373   */\n  0x03\n    /* \"#utility.yul\":2368:2382   */\n  dup9\n  swap1\n  shl\n    /* \"#utility.yul\":2384:2387   */\n  0xf8\n    /* \"#utility.yul\":2364:2388   */\n  and\n    /* \"#utility.yul\":2360:2397   */\n  shr\n    /* \"#utility.yul\":2356:2398   */\n  not\n    /* \"#utility.yul\":2341:2399   */\n  and\n    /* \"#utility.yul\":2326:2400   */\n  dup2\n  sstore\n    /* \"#utility.yul\":2213:2414   */\ntag_52:\n  pop\n  pop\n  pop\n  pop\n  pop\n    /* \"#utility.yul\":2460:2461   */\n  0x01\n    /* \"#utility.yul\":2444:2458   */\n  swap1\n  dup2\n  shl\n    /* \"#utility.yul\":2440:2462   */\n  add\n    /* \"#utility.yul\":2427:2463   */\n  swap1\n  sstore\n  pop\n    /* \"#utility.yul\":1378:2730   */\n  jump\t// out\ntag_26:\n    /* \"contracts/WOM_LAND.sol\":227:3836  contract WomLand is ERC721A, Ownable {... */\n  dataSize(sub_0)\n  dup1\n  dataOffset(sub_0)\n  0x00\n  codecopy\n  0x00\n  return\nstop\n\nsub_0: assembly {\n        /* \"contracts/WOM_LAND.sol\":227:3836  contract WomLand is ERC721A, Ownable {... */\n      mstore(0x40, 0x80)\n      jumpi(tag_1, lt(calldatasize, 0x04))\n      shr(0xe0, calldataload(0x00))\n      dup1\n      0x5c975abb\n      gt\n      tag_38\n      jumpi\n      dup1\n      0xa22cb465\n      gt\n      tag_39\n      jumpi\n      dup1\n      0xc87b56dd\n      gt\n      tag_40\n      jumpi\n      dup1\n      0xc87b56dd\n      eq\n      tag_33\n      jumpi\n      dup1\n      0xceda0dbd\n      eq\n      tag_34\n      jumpi\n      dup1\n      0xd5abeb01\n      eq\n      tag_35\n      jumpi\n      dup1\n      0xe985e9c5\n      eq\n      tag_36\n      jumpi\n      dup1\n      0xf2fde38b\n      eq\n      tag_37\n      jumpi\n      0x00\n      dup1\n      revert\n    tag_40:\n      dup1\n      0xa22cb465\n      eq\n      tag_29\n      jumpi\n      dup1\n      0xb88d4fde\n      eq\n      tag_30\n      jumpi\n      dup1\n      0xc48b1fa6\n      eq\n      tag_31\n      jumpi\n      dup1\n      0xc6275255\n      eq\n      tag_32\n      jumpi\n      0x00\n      dup1\n      revert\n    tag_39:\n      dup1\n      0x715018a6\n      gt\n      tag_41\n      jumpi\n      dup1\n      0x715018a6\n      eq\n      tag_24\n      jumpi\n      dup1\n      0x8da5cb5b\n      eq\n      tag_25\n      jumpi\n      dup1\n      0x8f9db08c\n      eq\n      tag_26\n      jumpi\n      dup1\n      0x95d89b41\n      eq\n      tag_27\n      jumpi\n      dup1\n      0xa0bcfc7f\n      eq\n      tag_28\n      jumpi\n      0x00\n      dup1\n      revert\n    tag_41:\n      dup1\n      0x5c975abb\n      eq\n      tag_20\n      jumpi\n      dup1\n      0x6352211e\n      eq\n      tag_21\n      jumpi\n      dup1\n      0x6c0360eb\n      eq\n      tag_22\n      jumpi\n      dup1\n      0x70a08231\n      eq\n      tag_23\n      jumpi\n      0x00\n      dup1\n      revert\n    tag_38:\n      dup1\n      0x18160ddd\n      gt\n      tag_42\n      jumpi\n      dup1\n      0x42842e0e\n      gt\n      tag_43\n      jumpi\n      dup1\n      0x42842e0e\n      eq\n      tag_15\n      jumpi\n      dup1\n      0x42966c68\n      eq\n      tag_16\n      jumpi\n      dup1\n      0x484b973c\n      eq\n      tag_17\n      jumpi\n      dup1\n      0x4a9eee69\n      eq\n      tag_18\n      jumpi\n      dup1\n      0x5b7633d0\n      eq\n      tag_19\n      jumpi\n      0x00\n      dup1\n      revert\n    tag_43:\n      dup1\n      0x18160ddd\n      eq\n      tag_11\n      jumpi\n      dup1\n      0x23b872dd\n      eq\n      tag_12\n      jumpi\n      dup1\n      0x26092b83\n      eq\n      tag_13\n      jumpi\n      dup1\n      0x3ccfd60b\n      eq\n      tag_14\n      jumpi\n      0x00\n      dup1\n      revert\n    tag_42:\n      dup1\n      0x081812fc\n      gt\n      tag_44\n      jumpi\n      dup1\n      0x081812fc\n      eq\n      tag_6\n      jumpi\n      dup1\n      0x095ea7b3\n      eq\n      tag_7\n      jumpi\n      dup1\n      0x0a398b88\n      eq\n      tag_8\n      jumpi\n      dup1\n      0x0bab3262\n      eq\n      tag_9\n      jumpi\n      dup1\n      0x0e2d56cf\n      eq\n      tag_10\n      jumpi\n      0x00\n      dup1\n      revert\n    tag_44:\n      dup1\n      0x01ffc9a7\n      eq\n      tag_2\n      jumpi\n      dup1\n      0x02329a29\n      eq\n      tag_3\n      jumpi\n      dup1\n      0x046dc166\n      eq\n      tag_4\n      jumpi\n      dup1\n      0x06fdde03\n      eq\n      tag_5\n      jumpi\n    tag_1:\n      0x00\n      dup1\n      revert\n        /* \"erc721a/contracts/ERC721A.sol\":9155:9785  function supportsInterface(bytes4 interfaceId) public view virtual override returns (bool) {... */\n    tag_2:\n      callvalue\n      dup1\n      iszero\n      tag_45\n      jumpi\n      0x00\n      dup1\n      revert\n    tag_45:\n      pop\n      tag_46\n      tag_47\n      calldatasize\n      0x04\n      tag_48\n      jump\t// in\n    tag_47:\n      tag_49\n      jump\t// in\n    tag_46:\n      mload(0x40)\n        /* \"#utility.yul\":565:579   */\n      swap1\n      iszero\n        /* \"#utility.yul\":558:580   */\n      iszero\n        /* \"#utility.yul\":540:581   */\n      dup2\n      mstore\n        /* \"#utility.yul\":528:530   */\n      0x20\n        /* \"#utility.yul\":513:531   */\n      add\n        /* \"erc721a/contracts/ERC721A.sol\":9155:9785  function supportsInterface(bytes4 interfaceId) public view virtual override returns (bool) {... */\n    tag_50:\n      mload(0x40)\n      dup1\n      swap2\n      sub\n      swap1\n      return\n        /* \"contracts/WOM_LAND.sol\":2443:2520  function pause(bool _state) public onlyOwner {... */\n    tag_3:\n      callvalue\n      dup1\n      iszero\n      tag_52\n      jumpi\n      0x00\n      dup1\n      revert\n    tag_52:\n      pop\n      tag_53\n      tag_54\n      calldatasize\n      0x04\n      tag_55\n      jump\t// in\n    tag_54:\n      tag_56\n      jump\t// in\n    tag_53:\n      stop\n        /* \"contracts/WOM_LAND.sol\":2323:2437  function setSignerAddress(address signerAddress_) public onlyOwner {... */\n    tag_4:\n      callvalue\n      dup1\n      iszero\n      tag_57\n      jumpi\n      0x00\n      dup1\n      revert\n    tag_57:\n      pop\n      tag_53\n      tag_59\n      calldatasize\n      0x04\n      tag_60\n      jump\t// in\n    tag_59:\n      tag_61\n      jump\t// in\n        /* \"erc721a/contracts/ERC721A.sol\":10039:10137  function name() public view virtual override returns (string memory) {... */\n    tag_5:\n      callvalue\n      dup1\n      iszero\n      tag_62\n      jumpi\n      0x00\n      dup1\n      revert\n    tag_62:\n      pop\n      tag_63\n      tag_64\n      jump\t// in\n    tag_63:\n      mload(0x40)\n      tag_50\n      swap2\n      swap1\n      tag_66\n      jump\t// in\n        /* \"erc721a/contracts/ERC721A.sol\":16360:16574  function getApproved(uint256 tokenId) public view virtual override returns (address) {... */\n    tag_6:\n      callvalue\n      dup1\n      iszero\n      tag_67\n      jumpi\n      0x00\n      dup1\n      revert\n    tag_67:\n      pop\n      tag_68\n      tag_69\n      calldatasize\n      0x04\n      tag_70\n      jump\t// in\n    tag_69:\n      tag_71\n      jump\t// in\n    tag_68:\n      mload(0x40)\n      sub(shl(0xa0, 0x01), 0x01)\n        /* \"#utility.yul\":2416:2448   */\n      swap1\n      swap2\n      and\n        /* \"#utility.yul\":2398:2449   */\n      dup2\n      mstore\n        /* \"#utility.yul\":2386:2388   */\n      0x20\n        /* \"#utility.yul\":2371:2389   */\n      add\n        /* \"erc721a/contracts/ERC721A.sol\":16360:16574  function getApproved(uint256 tokenId) public view virtual override returns (address) {... */\n      tag_50\n        /* \"#utility.yul\":2252:2455   */\n      jump\n        /* \"erc721a/contracts/ERC721A.sol\":15812:16210  function approve(address to, uint256 tokenId) public payable virtual override {... */\n    tag_7:\n      tag_53\n      tag_75\n      calldatasize\n      0x04\n      tag_76\n      jump\t// in\n    tag_75:\n      tag_77\n      jump\t// in\n        /* \"contracts/WOM_LAND.sol\":577:625  mapping(address => uint256) public alreadyMinted */\n    tag_8:\n      callvalue\n      dup1\n      iszero\n      tag_78\n      jumpi\n      0x00\n      dup1\n      revert\n    tag_78:\n      pop\n      tag_79\n      tag_80\n      calldatasize\n      0x04\n      tag_60\n      jump\t// in\n    tag_80:\n      mstore(0x20, 0x0e)\n      0x00\n      swap1\n      dup2\n      mstore\n      0x40\n      swap1\n      keccak256\n      sload\n      dup2\n      jump\n    tag_79:\n      mload(0x40)\n        /* \"#utility.yul\":2865:2890   */\n      swap1\n      dup2\n      mstore\n        /* \"#utility.yul\":2853:2855   */\n      0x20\n        /* \"#utility.yul\":2838:2856   */\n      add\n        /* \"contracts/WOM_LAND.sol\":577:625  mapping(address => uint256) public alreadyMinted */\n      tag_50\n        /* \"#utility.yul\":2719:2896   */\n      jump\n        /* \"contracts/WOM_LAND.sol\":334:375  uint256 public publicMaxNFTPerAddress = 1 */\n    tag_9:\n      callvalue\n      dup1\n      iszero\n      tag_84\n      jumpi\n      0x00\n      dup1\n      revert\n    tag_84:\n      pop\n      tag_79\n      sload(0x0b)\n      dup2\n      jump\n        /* \"contracts/WOM_LAND.sol\":2526:2615  function setPublicMint(bool _state) public onlyOwner {... */\n    tag_10:\n      callvalue\n      dup1\n      iszero\n      tag_88\n      jumpi\n      0x00\n      dup1\n      revert\n    tag_88:\n      pop\n      tag_53\n      tag_90\n      calldatasize\n      0x04\n      tag_55\n      jump\t// in\n    tag_90:\n      tag_91\n      jump\t// in\n        /* \"erc721a/contracts/ERC721A.sol\":5894:6211  function totalSupply() public view virtual override returns (uint256) {... */\n    tag_11:\n      callvalue\n      dup1\n      iszero\n      tag_92\n      jumpi\n      0x00\n      dup1\n      revert\n    tag_92:\n      pop\n        /* \"erc721a/contracts/ERC721A.sol\":6164:6176  _burnCounter */\n      sload(0x01)\n        /* \"erc721a/contracts/ERC721A.sol\":5955:5962  uint256 */\n      0x00\n        /* \"erc721a/contracts/ERC721A.sol\":6148:6161  _currentIndex */\n      sload\n        /* \"erc721a/contracts/ERC721A.sol\":6148:6176  _currentIndex - _burnCounter */\n      sub\n        /* \"erc721a/contracts/ERC721A.sol\":5894:6211  function totalSupply() public view virtual override returns (uint256) {... */\n      jump(tag_79)\n        /* \"erc721a/contracts/ERC721A.sol\":19903:22667  function transferFrom(... */\n    tag_12:\n      tag_53\n      tag_97\n      calldatasize\n      0x04\n      tag_98\n      jump\t// in\n    tag_97:\n      tag_99\n      jump\t// in\n        /* \"contracts/WOM_LAND.sol\":462:492  bool public publicMint = false */\n    tag_13:\n      callvalue\n      dup1\n      iszero\n      tag_100\n      jumpi\n      0x00\n      dup1\n      revert\n    tag_100:\n      pop\n      sload(0x0d)\n      tag_46\n      swap1\n      0x0100\n      swap1\n      div\n      0xff\n      and\n      dup2\n      jump\n        /* \"contracts/WOM_LAND.sol\":3358:3834  function withdraw() public payable onlyOwner {... */\n    tag_14:\n      tag_53\n      tag_105\n      jump\t// in\n        /* \"erc721a/contracts/ERC721A.sol\":22758:22945  function safeTransferFrom(... */\n    tag_15:\n      tag_53\n      tag_107\n      calldatasize\n      0x04\n      tag_98\n      jump\t// in\n    tag_107:\n      tag_108\n      jump\t// in\n        /* \"contracts/WOM_LAND.sol\":2022:2107  function burn(uint256 tokenId) public onlyOwner {... */\n    tag_16:\n      callvalue\n      dup1\n      iszero\n      tag_109\n      jumpi\n      0x00\n      dup1\n      revert\n    tag_109:\n      pop\n      tag_53\n      tag_111\n      calldatasize\n      0x04\n      tag_70\n      jump\t// in\n    tag_111:\n      tag_112\n      jump\t// in\n        /* \"contracts/WOM_LAND.sol\":2215:2317  function ownerMint(address to, uint256 quantity) public onlyOwner {... */\n    tag_17:\n      callvalue\n      dup1\n      iszero\n      tag_113\n      jumpi\n      0x00\n      dup1\n      revert\n    tag_113:\n      pop\n      tag_53\n      tag_115\n      calldatasize\n      0x04\n      tag_76\n      jump\t// in\n    tag_115:\n      tag_116\n      jump\t// in\n        /* \"contracts/WOM_LAND.sol\":720:1904  function mint(... */\n    tag_18:\n      tag_53\n      tag_118\n      calldatasize\n      0x04\n      tag_119\n      jump\t// in\n    tag_118:\n      tag_120\n      jump\t// in\n        /* \"contracts/WOM_LAND.sol\":498:571  address public signerAddress = 0x4E99031f4C39cd1AE173Bc32e397dE77ac6D6395 */\n    tag_19:\n      callvalue\n      dup1\n      iszero\n      tag_121\n      jumpi\n      0x00\n      dup1\n      revert\n    tag_121:\n      pop\n      sload(0x0d)\n      tag_68\n      swap1\n      0x010000\n      swap1\n      div\n      sub(shl(0xa0, 0x01), 0x01)\n      and\n      dup2\n      jump\n        /* \"contracts/WOM_LAND.sol\":430:456  bool public paused = false */\n    tag_20:\n      callvalue\n      dup1\n      iszero\n      tag_125\n      jumpi\n      0x00\n      dup1\n      revert\n    tag_125:\n      pop\n      sload(0x0d)\n      tag_46\n      swap1\n      0xff\n      and\n      dup2\n      jump\n        /* \"erc721a/contracts/ERC721A.sol\":11391:11541  function ownerOf(uint256 tokenId) public view virtual override returns (address) {... */\n    tag_21:\n      callvalue\n      dup1\n      iszero\n      tag_129\n      jumpi\n      0x00\n      dup1\n      revert\n    tag_129:\n      pop\n      tag_68\n      tag_131\n      calldatasize\n      0x04\n      tag_70\n      jump\t// in\n    tag_131:\n      tag_132\n      jump\t// in\n        /* \"contracts/WOM_LAND.sol\":270:291  string public baseURI */\n    tag_22:\n      callvalue\n      dup1\n      iszero\n      tag_134\n      jumpi\n      0x00\n      dup1\n      revert\n    tag_134:\n      pop\n      tag_63\n      tag_136\n      jump\t// in\n        /* \"erc721a/contracts/ERC721A.sol\":7045:7275  function balanceOf(address owner) public view virtual override returns (uint256) {... */\n    tag_23:\n      callvalue\n      dup1\n      iszero\n      tag_138\n      jumpi\n      0x00\n      dup1\n      revert\n    tag_138:\n      pop\n      tag_79\n      tag_140\n      calldatasize\n      0x04\n      tag_60\n      jump\t// in\n    tag_140:\n      tag_141\n      jump\t// in\n        /* \"@openzeppelin/contracts/access/Ownable.sol\":1831:1932  function renounceOwnership() public virtual onlyOwner {... */\n    tag_24:\n      callvalue\n      dup1\n      iszero\n      tag_143\n      jumpi\n      0x00\n      dup1\n      revert\n    tag_143:\n      pop\n      tag_53\n      tag_145\n      jump\t// in\n        /* \"@openzeppelin/contracts/access/Ownable.sol\":1201:1286  function owner() public view virtual returns (address) {... */\n    tag_25:\n      callvalue\n      dup1\n      iszero\n      tag_146\n      jumpi\n      0x00\n      dup1\n      revert\n    tag_146:\n      pop\n        /* \"@openzeppelin/contracts/access/Ownable.sol\":1273:1279  _owner */\n      and(sub(shl(0xa0, 0x01), 0x01), sload(0x08))\n        /* \"@openzeppelin/contracts/access/Ownable.sol\":1201:1286  function owner() public view virtual returns (address) {... */\n      jump(tag_68)\n        /* \"contracts/WOM_LAND.sol\":2847:3352  function verifyCoupon(... */\n    tag_26:\n      callvalue\n      dup1\n      iszero\n      tag_150\n      jumpi\n      0x00\n      dup1\n      revert\n    tag_150:\n      pop\n      tag_53\n      tag_152\n      calldatasize\n      0x04\n      tag_153\n      jump\t// in\n    tag_152:\n      tag_154\n      jump\t// in\n        /* \"erc721a/contracts/ERC721A.sol\":10208:10310  function symbol() public view virtual override returns (string memory) {... */\n    tag_27:\n      callvalue\n      dup1\n      iszero\n      tag_155\n      jumpi\n      0x00\n      dup1\n      revert\n    tag_155:\n      pop\n      tag_63\n      tag_157\n      jump\t// in\n        /* \"contracts/WOM_LAND.sol\":2113:2209  function setBaseUri(string memory baseuri_) public onlyOwner {... */\n    tag_28:\n      callvalue\n      dup1\n      iszero\n      tag_159\n      jumpi\n      0x00\n      dup1\n      revert\n    tag_159:\n      pop\n      tag_53\n      tag_161\n      calldatasize\n      0x04\n      tag_162\n      jump\t// in\n    tag_161:\n      tag_163\n      jump\t// in\n        /* \"erc721a/contracts/ERC721A.sol\":16901:17132  function setApprovalForAll(address operator, bool approved) public virtual override {... */\n    tag_29:\n      callvalue\n      dup1\n      iszero\n      tag_164\n      jumpi\n      0x00\n      dup1\n      revert\n    tag_164:\n      pop\n      tag_53\n      tag_166\n      calldatasize\n      0x04\n      tag_167\n      jump\t// in\n    tag_166:\n      tag_168\n      jump\t// in\n        /* \"erc721a/contracts/ERC721A.sol\":23526:23922  function safeTransferFrom(... */\n    tag_30:\n      tag_53\n      tag_170\n      calldatasize\n      0x04\n      tag_171\n      jump\t// in\n    tag_170:\n      tag_172\n      jump\t// in\n        /* \"contracts/WOM_LAND.sol\":2621:2737  function setPublicMaxNFTPerAddress(uint256 _state) public onlyOwner {... */\n    tag_31:\n      callvalue\n      dup1\n      iszero\n      tag_173\n      jumpi\n      0x00\n      dup1\n      revert\n    tag_173:\n      pop\n      tag_53\n      tag_175\n      calldatasize\n      0x04\n      tag_70\n      jump\t// in\n    tag_175:\n      tag_176\n      jump\t// in\n        /* \"contracts/WOM_LAND.sol\":2743:2841  function setPublicPrice(uint256 _state) public onlyOwner {... */\n    tag_32:\n      callvalue\n      dup1\n      iszero\n      tag_177\n      jumpi\n      0x00\n      dup1\n      revert\n    tag_177:\n      pop\n      tag_53\n      tag_179\n      calldatasize\n      0x04\n      tag_70\n      jump\t// in\n    tag_179:\n      tag_180\n      jump\t// in\n        /* \"erc721a/contracts/ERC721A.sol\":10411:10724  function tokenURI(uint256 tokenId) public view virtual override returns (string memory) {... */\n    tag_33:\n      callvalue\n      dup1\n      iszero\n      tag_181\n      jumpi\n      0x00\n      dup1\n      revert\n    tag_181:\n      pop\n      tag_63\n      tag_183\n      calldatasize\n      0x04\n      tag_70\n      jump\t// in\n    tag_183:\n      tag_184\n      jump\t// in\n        /* \"contracts/WOM_LAND.sol\":381:424  uint256 public publicPriceMint = 0.04 ether */\n    tag_34:\n      callvalue\n      dup1\n      iszero\n      tag_186\n      jumpi\n      0x00\n      dup1\n      revert\n    tag_186:\n      pop\n      tag_79\n      sload(0x0c)\n      dup2\n      jump\n        /* \"contracts/WOM_LAND.sol\":297:328  uint256 public maxSupply = 1000 */\n    tag_35:\n      callvalue\n      dup1\n      iszero\n      tag_190\n      jumpi\n      0x00\n      dup1\n      revert\n    tag_190:\n      pop\n      tag_79\n      sload(0x0a)\n      dup2\n      jump\n        /* \"erc721a/contracts/ERC721A.sol\":17282:17444  function isApprovedForAll(address owner, address operator) public view virtual override returns (bool) {... */\n    tag_36:\n      callvalue\n      dup1\n      iszero\n      tag_194\n      jumpi\n      0x00\n      dup1\n      revert\n    tag_194:\n      pop\n      tag_46\n      tag_196\n      calldatasize\n      0x04\n      tag_197\n      jump\t// in\n    tag_196:\n      tag_198\n      jump\t// in\n        /* \"@openzeppelin/contracts/access/Ownable.sol\":2081:2279  function transferOwnership(address newOwner) public virtual onlyOwner {... */\n    tag_37:\n      callvalue\n      dup1\n      iszero\n      tag_200\n      jumpi\n      0x00\n      dup1\n      revert\n    tag_200:\n      pop\n      tag_53\n      tag_202\n      calldatasize\n      0x04\n      tag_60\n      jump\t// in\n    tag_202:\n      tag_203\n      jump\t// in\n        /* \"erc721a/contracts/ERC721A.sol\":9155:9785  function supportsInterface(bytes4 interfaceId) public view virtual override returns (bool) {... */\n    tag_49:\n        /* \"erc721a/contracts/ERC721A.sol\":9240:9244  bool */\n      0x00\n      shl(0xe0, 0x01ffc9a7)\n      not(sub(shl(0xe0, 0x01), 0x01))\n        /* \"erc721a/contracts/ERC721A.sol\":9558:9583  interfaceId == 0x01ffc9a7 */\n      dup4\n      and\n      eq\n      dup1\n        /* \"erc721a/contracts/ERC721A.sol\":9558:9659  interfaceId == 0x01ffc9a7 || // ERC165 interface ID for ERC165.... */\n      tag_205\n      jumpi\n      pop\n      shl(0xe0, 0x80ac58cd)\n      not(sub(shl(0xe0, 0x01), 0x01))\n        /* \"erc721a/contracts/ERC721A.sol\":9634:9659  interfaceId == 0x80ac58cd */\n      dup4\n      and\n      eq\n        /* \"erc721a/contracts/ERC721A.sol\":9558:9659  interfaceId == 0x01ffc9a7 || // ERC165 interface ID for ERC165.... */\n    tag_205:\n        /* \"erc721a/contracts/ERC721A.sol\":9558:9735  interfaceId == 0x01ffc9a7 || // ERC165 interface ID for ERC165.... */\n      dup1\n      tag_206\n      jumpi\n      pop\n      shl(0xe0, 0x5b5e139f)\n      not(sub(shl(0xe0, 0x01), 0x01))\n        /* \"erc721a/contracts/ERC721A.sol\":9710:9735  interfaceId == 0x5b5e139f */\n      dup4\n      and\n      eq\n        /* \"erc721a/contracts/ERC721A.sol\":9558:9735  interfaceId == 0x01ffc9a7 || // ERC165 interface ID for ERC165.... */\n    tag_206:\n        /* \"erc721a/contracts/ERC721A.sol\":9539:9735  return... */\n      swap3\n        /* \"erc721a/contracts/ERC721A.sol\":9155:9785  function supportsInterface(bytes4 interfaceId) public view virtual override returns (bool) {... */\n      swap2\n      pop\n      pop\n      jump\t// out\n        /* \"contracts/WOM_LAND.sol\":2443:2520  function pause(bool _state) public onlyOwner {... */\n    tag_56:\n        /* \"@openzeppelin/contracts/access/Ownable.sol\":1094:1107  _checkOwner() */\n      tag_208\n        /* \"@openzeppelin/contracts/access/Ownable.sol\":1094:1105  _checkOwner */\n      tag_209\n        /* \"@openzeppelin/contracts/access/Ownable.sol\":1094:1107  _checkOwner() */\n      jump\t// in\n    tag_208:\n        /* \"contracts/WOM_LAND.sol\":2498:2504  paused */\n      0x0d\n        /* \"contracts/WOM_LAND.sol\":2498:2513  paused = _state */\n      dup1\n      sload\n      not(0xff)\n      and\n      swap2\n      iszero\n      iszero\n      swap2\n      swap1\n      swap2\n      or\n      swap1\n      sstore\n        /* \"contracts/WOM_LAND.sol\":2443:2520  function pause(bool _state) public onlyOwner {... */\n      jump\t// out\n        /* \"contracts/WOM_LAND.sol\":2323:2437  function setSignerAddress(address signerAddress_) public onlyOwner {... */\n    tag_61:\n        /* \"@openzeppelin/contracts/access/Ownable.sol\":1094:1107  _checkOwner() */\n      tag_212\n        /* \"@openzeppelin/contracts/access/Ownable.sol\":1094:1105  _checkOwner */\n      tag_209\n        /* \"@openzeppelin/contracts/access/Ownable.sol\":1094:1107  _checkOwner() */\n      jump\t// in\n    tag_212:\n        /* \"contracts/WOM_LAND.sol\":2400:2413  signerAddress */\n      0x0d\n        /* \"contracts/WOM_LAND.sol\":2400:2430  signerAddress = signerAddress_ */\n      dup1\n      sload\n      sub(shl(0xa0, 0x01), 0x01)\n      swap1\n      swap3\n      and\n      0x010000\n      mul\n      not(sub(shl(0xb0, 0x01), 0x010000))\n      swap1\n      swap3\n      and\n      swap2\n      swap1\n      swap2\n      or\n      swap1\n      sstore\n        /* \"contracts/WOM_LAND.sol\":2323:2437  function setSignerAddress(address signerAddress_) public onlyOwner {... */\n      jump\t// out\n        /* \"erc721a/contracts/ERC721A.sol\":10039:10137  function name() public view virtual override returns (string memory) {... */\n    tag_64:\n        /* \"erc721a/contracts/ERC721A.sol\":10093:10106  string memory */\n      0x60\n        /* \"erc721a/contracts/ERC721A.sol\":10125:10130  _name */\n      0x02\n        /* \"erc721a/contracts/ERC721A.sol\":10118:10130  return _name */\n      dup1\n      sload\n      tag_215\n      swap1\n      tag_216\n      jump\t// in\n    tag_215:\n      dup1\n      0x1f\n      add\n      0x20\n      dup1\n      swap2\n      div\n      mul\n      0x20\n      add\n      mload(0x40)\n      swap1\n      dup2\n      add\n      0x40\n      mstore\n      dup1\n      swap3\n      swap2\n      swap1\n      dup2\n      dup2\n      mstore\n      0x20\n      add\n      dup3\n      dup1\n      sload\n      tag_217\n      swap1\n      tag_216\n      jump\t// in\n    tag_217:\n      dup1\n      iszero\n      tag_218\n      jumpi\n      dup1\n      0x1f\n      lt\n      tag_219\n      jumpi\n      0x0100\n      dup1\n      dup4\n      sload\n      div\n      mul\n      dup4\n      mstore\n      swap2\n      0x20\n      add\n      swap2\n      jump(tag_218)\n    tag_219:\n      dup3\n      add\n      swap2\n      swap1\n      0x00\n      mstore\n      keccak256(0x00, 0x20)\n      swap1\n    tag_220:\n      dup2\n      sload\n      dup2\n      mstore\n      swap1\n      0x01\n      add\n      swap1\n      0x20\n      add\n      dup1\n      dup4\n      gt\n      tag_220\n      jumpi\n      dup3\n      swap1\n      sub\n      0x1f\n      and\n      dup3\n      add\n      swap2\n    tag_218:\n      pop\n      pop\n      pop\n      pop\n      pop\n      swap1\n      pop\n        /* \"erc721a/contracts/ERC721A.sol\":10039:10137  function name() public view virtual override returns (string memory) {... */\n      swap1\n      jump\t// out\n        /* \"erc721a/contracts/ERC721A.sol\":16360:16574  function getApproved(uint256 tokenId) public view virtual override returns (address) {... */\n    tag_71:\n        /* \"erc721a/contracts/ERC721A.sol\":16436:16443  address */\n      0x00\n        /* \"erc721a/contracts/ERC721A.sol\":16460:16476  _exists(tokenId) */\n      tag_222\n        /* \"erc721a/contracts/ERC721A.sol\":16468:16475  tokenId */\n      dup3\n        /* \"erc721a/contracts/ERC721A.sol\":16460:16467  _exists */\n      tag_223\n        /* \"erc721a/contracts/ERC721A.sol\":16460:16476  _exists(tokenId) */\n      jump\t// in\n    tag_222:\n        /* \"erc721a/contracts/ERC721A.sol\":16455:16519  if (!_exists(tokenId)) revert ApprovalQueryForNonexistentToken() */\n      tag_224\n      jumpi\n        /* \"erc721a/contracts/ERC721A.sol\":16485:16519  ApprovalQueryForNonexistentToken() */\n      mload(0x40)\n      shl(0xe2, 0x33d1c039)\n      dup2\n      mstore\n      0x04\n      add\n      mload(0x40)\n      dup1\n      swap2\n      sub\n      swap1\n      revert\n        /* \"erc721a/contracts/ERC721A.sol\":16455:16519  if (!_exists(tokenId)) revert ApprovalQueryForNonexistentToken() */\n    tag_224:\n      pop\n        /* \"erc721a/contracts/ERC721A.sol\":16537:16561  _tokenApprovals[tokenId] */\n      0x00\n      swap1\n      dup2\n      mstore\n        /* \"erc721a/contracts/ERC721A.sol\":16537:16552  _tokenApprovals */\n      0x06\n        /* \"erc721a/contracts/ERC721A.sol\":16537:16561  _tokenApprovals[tokenId] */\n      0x20\n      mstore\n      0x40\n      swap1\n      keccak256\n        /* \"erc721a/contracts/ERC721A.sol\":16537:16567  _tokenApprovals[tokenId].value */\n      sload\n      sub(shl(0xa0, 0x01), 0x01)\n      and\n      swap1\n        /* \"erc721a/contracts/ERC721A.sol\":16360:16574  function getApproved(uint256 tokenId) public view virtual override returns (address) {... */\n      jump\t// out\n        /* \"erc721a/contracts/ERC721A.sol\":15812:16210  function approve(address to, uint256 tokenId) public payable virtual override {... */\n    tag_77:\n        /* \"erc721a/contracts/ERC721A.sol\":15900:15913  address owner */\n      0x00\n        /* \"erc721a/contracts/ERC721A.sol\":15916:15932  ownerOf(tokenId) */\n      tag_226\n        /* \"erc721a/contracts/ERC721A.sol\":15924:15931  tokenId */\n      dup3\n        /* \"erc721a/contracts/ERC721A.sol\":15916:15923  ownerOf */\n      tag_132\n        /* \"erc721a/contracts/ERC721A.sol\":15916:15932  ownerOf(tokenId) */\n      jump\t// in\n    tag_226:\n        /* \"erc721a/contracts/ERC721A.sol\":15900:15932  address owner = ownerOf(tokenId) */\n      swap1\n      pop\n        /* \"erc721a/contracts/ERC721A.sol\":39523:39533  msg.sender */\n      caller\n      sub(shl(0xa0, 0x01), 0x01)\n        /* \"erc721a/contracts/ERC721A.sol\":15947:15975  _msgSenderERC721A() != owner */\n      dup3\n      and\n      eq\n        /* \"erc721a/contracts/ERC721A.sol\":15943:16115  if (_msgSenderERC721A() != owner)... */\n      tag_232\n      jumpi\n        /* \"erc721a/contracts/ERC721A.sol\":15994:16038  isApprovedForAll(owner, _msgSenderERC721A()) */\n      tag_230\n        /* \"erc721a/contracts/ERC721A.sol\":16011:16016  owner */\n      dup2\n        /* \"erc721a/contracts/ERC721A.sol\":39523:39533  msg.sender */\n      caller\n        /* \"erc721a/contracts/ERC721A.sol\":17282:17444  function isApprovedForAll(address owner, address operator) public view virtual override returns (bool) {... */\n      tag_198\n      jump\t// in\n        /* \"erc721a/contracts/ERC721A.sol\":15994:16038  isApprovedForAll(owner, _msgSenderERC721A()) */\n    tag_230:\n        /* \"erc721a/contracts/ERC721A.sol\":15989:16115  if (!isApprovedForAll(owner, _msgSenderERC721A())) {... */\n      tag_232\n      jumpi\n        /* \"erc721a/contracts/ERC721A.sol\":16065:16100  ApprovalCallerNotOwnerNorApproved() */\n      mload(0x40)\n      shl(0xe1, 0x67d9dca1)\n      dup2\n      mstore\n      0x04\n      add\n      mload(0x40)\n      dup1\n      swap2\n      sub\n      swap1\n      revert\n        /* \"erc721a/contracts/ERC721A.sol\":15989:16115  if (!isApprovedForAll(owner, _msgSenderERC721A())) {... */\n    tag_232:\n        /* \"erc721a/contracts/ERC721A.sol\":16125:16149  _tokenApprovals[tokenId] */\n      0x00\n      dup3\n      dup2\n      mstore\n        /* \"erc721a/contracts/ERC721A.sol\":16125:16140  _tokenApprovals */\n      0x06\n        /* \"erc721a/contracts/ERC721A.sol\":16125:16149  _tokenApprovals[tokenId] */\n      0x20\n      mstore\n      0x40\n      dup1\n      dup3\n      keccak256\n        /* \"erc721a/contracts/ERC721A.sol\":16125:16160  _tokenApprovals[tokenId].value = to */\n      dup1\n      sload\n      not(sub(shl(0xa0, 0x01), 0x01))\n      and\n      sub(shl(0xa0, 0x01), 0x01)\n      dup8\n      dup2\n      and\n      swap2\n      dup3\n      or\n      swap1\n      swap3\n      sstore\n        /* \"erc721a/contracts/ERC721A.sol\":16175:16203  Approval(owner, to, tokenId) */\n      swap2\n      mload\n        /* \"erc721a/contracts/ERC721A.sol\":16125:16149  _tokenApprovals[tokenId] */\n      dup6\n      swap4\n        /* \"erc721a/contracts/ERC721A.sol\":16175:16203  Approval(owner, to, tokenId) */\n      swap2\n      dup6\n      and\n      swap2\n      0x8c5be1e5ebec7d5bd14f71427d1e84f3dd0314c0f7b2291e5b200ac8c7c3b925\n      swap2\n      log4\n        /* \"erc721a/contracts/ERC721A.sol\":15890:16210  {... */\n      pop\n        /* \"erc721a/contracts/ERC721A.sol\":15812:16210  function approve(address to, uint256 tokenId) public payable virtual override {... */\n      pop\n      pop\n      jump\t// out\n        /* \"contracts/WOM_LAND.sol\":2526:2615  function setPublicMint(bool _state) public onlyOwner {... */\n    tag_91:\n        /* \"@openzeppelin/contracts/access/Ownable.sol\":1094:1107  _checkOwner() */\n      tag_234\n        /* \"@openzeppelin/contracts/access/Ownable.sol\":1094:1105  _checkOwner */\n      tag_209\n        /* \"@openzeppelin/contracts/access/Ownable.sol\":1094:1107  _checkOwner() */\n      jump\t// in\n    tag_234:\n        /* \"contracts/WOM_LAND.sol\":2589:2599  publicMint */\n      0x0d\n        /* \"contracts/WOM_LAND.sol\":2589:2608  publicMint = _state */\n      dup1\n      sload\n      swap2\n      iszero\n      iszero\n      0x0100\n      mul\n      not(0xff00)\n      swap1\n      swap3\n      and\n      swap2\n      swap1\n      swap2\n      or\n      swap1\n      sstore\n        /* \"contracts/WOM_LAND.sol\":2526:2615  function setPublicMint(bool _state) public onlyOwner {... */\n      jump\t// out\n        /* \"erc721a/contracts/ERC721A.sol\":19903:22667  function transferFrom(... */\n    tag_99:\n        /* \"erc721a/contracts/ERC721A.sol\":20040:20067  uint256 prevOwnershipPacked */\n      0x00\n        /* \"erc721a/contracts/ERC721A.sol\":20070:20097  _packedOwnershipOf(tokenId) */\n      tag_240\n        /* \"erc721a/contracts/ERC721A.sol\":20089:20096  tokenId */\n      dup3\n        /* \"erc721a/contracts/ERC721A.sol\":20070:20088  _packedOwnershipOf */\n      tag_241\n        /* \"erc721a/contracts/ERC721A.sol\":20070:20097  _packedOwnershipOf(tokenId) */\n      jump\t// in\n    tag_240:\n        /* \"erc721a/contracts/ERC721A.sol\":20040:20097  uint256 prevOwnershipPacked = _packedOwnershipOf(tokenId) */\n      swap1\n      pop\n        /* \"erc721a/contracts/ERC721A.sol\":20153:20157  from */\n      dup4\n      sub(shl(0xa0, 0x01), 0x01)\n        /* \"erc721a/contracts/ERC721A.sol\":20112:20157  address(uint160(prevOwnershipPacked)) != from */\n      and\n        /* \"erc721a/contracts/ERC721A.sol\":20128:20147  prevOwnershipPacked */\n      dup2\n      sub(shl(0xa0, 0x01), 0x01)\n        /* \"erc721a/contracts/ERC721A.sol\":20112:20157  address(uint160(prevOwnershipPacked)) != from */\n      and\n      eq\n        /* \"erc721a/contracts/ERC721A.sol\":20108:20194  if (address(uint160(prevOwnershipPacked)) != from) revert TransferFromIncorrectOwner() */\n      tag_242\n      jumpi\n        /* \"erc721a/contracts/ERC721A.sol\":20166:20194  TransferFromIncorrectOwner() */\n      mload(0x40)\n      shl(0xe8, 0xa11481)\n      dup2\n      mstore\n      0x04\n      add\n      mload(0x40)\n      dup1\n      swap2\n      sub\n      swap1\n      revert\n        /* \"erc721a/contracts/ERC721A.sol\":20108:20194  if (address(uint160(prevOwnershipPacked)) != from) revert TransferFromIncorrectOwner() */\n    tag_242:\n        /* \"erc721a/contracts/ERC721A.sol\":20206:20233  uint256 approvedAddressSlot */\n      0x00\n        /* \"erc721a/contracts/ERC721A.sol\":19036:19060  _tokenApprovals[tokenId] */\n      dup3\n      dup2\n      mstore\n        /* \"erc721a/contracts/ERC721A.sol\":19036:19051  _tokenApprovals */\n      0x06\n        /* \"erc721a/contracts/ERC721A.sol\":19036:19060  _tokenApprovals[tokenId] */\n      0x20\n      mstore\n      0x40\n      swap1\n      keccak256\n        /* \"erc721a/contracts/ERC721A.sol\":19260:19286  sload(approvedAddressSlot) */\n      dup1\n      sload\n        /* \"erc721a/contracts/ERC721A.sol\":20394:20462  _isSenderApprovedOrOwner(approvedAddress, from, _msgSenderERC721A()) */\n      tag_245\n        /* \"erc721a/contracts/ERC721A.sol\":19260:19286  sload(approvedAddressSlot) */\n      dup2\n        /* \"erc721a/contracts/ERC721A.sol\":20436:20440  from */\n      dup8\n        /* \"erc721a/contracts/ERC721A.sol\":39523:39533  msg.sender */\n      caller\n        /* \"erc721a/contracts/ERC721A.sol\":20442:20461  _msgSenderERC721A() */\n    tag_246:\n      sub(shl(0xa0, 0x01), 0x01)\n        /* \"erc721a/contracts/ERC721A.sol\":18524:18556  and(msgSender, _BITMASK_ADDRESS) */\n      swap1\n      dup2\n      and\n        /* \"erc721a/contracts/ERC721A.sol\":18370:18398  and(owner, _BITMASK_ADDRESS) */\n      swap2\n      and\n        /* \"erc721a/contracts/ERC721A.sol\":18651:18671  eq(msgSender, owner) */\n      dup2\n      eq\n        /* \"erc721a/contracts/ERC721A.sol\":18673:18703  eq(msgSender, approvedAddress) */\n      swap2\n      eq\n        /* \"erc721a/contracts/ERC721A.sol\":18648:18704  or(eq(msgSender, owner), eq(msgSender, approvedAddress)) */\n      or\n      swap1\n        /* \"erc721a/contracts/ERC721A.sol\":18074:18720  function _isSenderApprovedOrOwner(... */\n      jump\n        /* \"erc721a/contracts/ERC721A.sol\":20394:20462  _isSenderApprovedOrOwner(approvedAddress, from, _msgSenderERC721A()) */\n    tag_245:\n        /* \"erc721a/contracts/ERC721A.sol\":20389:20568  if (!_isSenderApprovedOrOwner(approvedAddress, from, _msgSenderERC721A()))... */\n      tag_251\n      jumpi\n        /* \"erc721a/contracts/ERC721A.sol\":20481:20524  isApprovedForAll(from, _msgSenderERC721A()) */\n      tag_249\n        /* \"erc721a/contracts/ERC721A.sol\":20498:20502  from */\n      dup7\n        /* \"erc721a/contracts/ERC721A.sol\":39523:39533  msg.sender */\n      caller\n        /* \"erc721a/contracts/ERC721A.sol\":17282:17444  function isApprovedForAll(address owner, address operator) public view virtual override returns (bool) {... */\n      tag_198\n      jump\t// in\n        /* \"erc721a/contracts/ERC721A.sol\":20481:20524  isApprovedForAll(from, _msgSenderERC721A()) */\n    tag_249:\n        /* \"erc721a/contracts/ERC721A.sol\":20476:20568  if (!isApprovedForAll(from, _msgSenderERC721A())) revert TransferCallerNotOwnerNorApproved() */\n      tag_251\n      jumpi\n        /* \"erc721a/contracts/ERC721A.sol\":20533:20568  TransferCallerNotOwnerNorApproved() */\n      mload(0x40)\n      shl(0xe1, 0x2ce44b5f)\n      dup2\n      mstore\n      0x04\n      add\n      mload(0x40)\n      dup1\n      swap2\n      sub\n      swap1\n      revert\n        /* \"erc721a/contracts/ERC721A.sol\":20476:20568  if (!isApprovedForAll(from, _msgSenderERC721A())) revert TransferCallerNotOwnerNorApproved() */\n    tag_251:\n      sub(shl(0xa0, 0x01), 0x01)\n        /* \"erc721a/contracts/ERC721A.sol\":20583:20599  to == address(0) */\n      dup6\n      and\n        /* \"erc721a/contracts/ERC721A.sol\":20579:20631  if (to == address(0)) revert TransferToZeroAddress() */\n      tag_252\n      jumpi\n        /* \"erc721a/contracts/ERC721A.sol\":20608:20631  TransferToZeroAddress() */\n      mload(0x40)\n      shl(0xe2, 0x3a954ecd)\n      dup2\n      mstore\n      0x04\n      add\n      mload(0x40)\n      dup1\n      swap2\n      sub\n      swap1\n      revert\n        /* \"erc721a/contracts/ERC721A.sol\":20579:20631  if (to == address(0)) revert TransferToZeroAddress() */\n    tag_252:\n        /* \"erc721a/contracts/ERC721A.sol\":20774:20789  approvedAddress */\n      dup1\n        /* \"erc721a/contracts/ERC721A.sol\":20771:20928  if approvedAddress {... */\n      iszero\n      tag_255\n      jumpi\n        /* \"erc721a/contracts/ERC721A.sol\":20912:20913  0 */\n      0x00\n        /* \"erc721a/contracts/ERC721A.sol\":20891:20910  approvedAddressSlot */\n      dup3\n        /* \"erc721a/contracts/ERC721A.sol\":20884:20914  sstore(approvedAddressSlot, 0) */\n      sstore\n        /* \"erc721a/contracts/ERC721A.sol\":20771:20928  if approvedAddress {... */\n    tag_255:\n      sub(shl(0xa0, 0x01), 0x01)\n        /* \"erc721a/contracts/ERC721A.sol\":21300:21324  _packedAddressData[from] */\n      dup7\n      dup2\n      and\n      0x00\n      swap1\n      dup2\n      mstore\n        /* \"erc721a/contracts/ERC721A.sol\":21300:21318  _packedAddressData */\n      0x05\n        /* \"erc721a/contracts/ERC721A.sol\":21300:21324  _packedAddressData[from] */\n      0x20\n      mstore\n      0x40\n      dup1\n      dup3\n      keccak256\n        /* \"erc721a/contracts/ERC721A.sol\":21298:21324  --_packedAddressData[from] */\n      dup1\n      sload\n      not(0x00)\n      add\n      swap1\n      sstore\n        /* \"erc721a/contracts/ERC721A.sol\":21368:21390  _packedAddressData[to] */\n      swap2\n      dup8\n      and\n      dup1\n      dup3\n      mstore\n      swap2\n      swap1\n      keccak256\n        /* \"erc721a/contracts/ERC721A.sol\":21366:21390  ++_packedAddressData[to] */\n      dup1\n      sload\n      0x01\n      add\n      swap1\n      sstore\n        /* \"erc721a/contracts/ERC721A.sol\":14703:14714  timestamp() */\n      timestamp\n        /* \"erc721a/contracts/ERC721A.sol\":14678:14701  _BITPOS_START_TIMESTAMP */\n      0xa0\n        /* \"erc721a/contracts/ERC721A.sol\":14674:14715  shl(_BITPOS_START_TIMESTAMP, timestamp()) */\n      shl\n        /* \"erc721a/contracts/ERC721A.sol\":14661:14724  or(owner, or(shl(_BITPOS_START_TIMESTAMP, timestamp()), flags)) */\n      or\n      shl(0xe1, 0x01)\n      or\n        /* \"erc721a/contracts/ERC721A.sol\":21654:21680  _packedOwnerships[tokenId] */\n      0x00\n      dup6\n      dup2\n      mstore\n        /* \"erc721a/contracts/ERC721A.sol\":21654:21671  _packedOwnerships */\n      0x04\n        /* \"erc721a/contracts/ERC721A.sol\":21654:21680  _packedOwnerships[tokenId] */\n      0x20\n      mstore\n      0x40\n      dup2\n      keccak256\n        /* \"erc721a/contracts/ERC721A.sol\":21654:21826  _packedOwnerships[tokenId] = _packOwnershipData(... */\n      swap2\n      swap1\n      swap2\n      sstore\n      shl(0xe1, 0x01)\n        /* \"erc721a/contracts/ERC721A.sol\":21943:21990  prevOwnershipPacked & _BITMASK_NEXT_INITIALIZED */\n      dup5\n      and\n        /* \"erc721a/contracts/ERC721A.sol\":21943:21995  prevOwnershipPacked & _BITMASK_NEXT_INITIALIZED == 0 */\n      swap1\n      sub\n        /* \"erc721a/contracts/ERC721A.sol\":21939:22556  if (prevOwnershipPacked & _BITMASK_NEXT_INITIALIZED == 0) {... */\n      tag_260\n      jumpi\n        /* \"erc721a/contracts/ERC721A.sol\":22047:22048  1 */\n      0x01\n        /* \"erc721a/contracts/ERC721A.sol\":22037:22048  tokenId + 1 */\n      dup5\n      add\n        /* \"erc721a/contracts/ERC721A.sol\":22015:22034  uint256 nextTokenId */\n      0x00\n        /* \"erc721a/contracts/ERC721A.sol\":22168:22198  _packedOwnerships[nextTokenId] */\n      dup2\n      dup2\n      mstore\n        /* \"erc721a/contracts/ERC721A.sol\":22168:22185  _packedOwnerships */\n      0x04\n        /* \"erc721a/contracts/ERC721A.sol\":22168:22198  _packedOwnerships[nextTokenId] */\n      0x20\n      mstore\n      0x40\n      dup2\n      keccak256\n      sload\n        /* \"erc721a/contracts/ERC721A.sol\":22168:22203  _packedOwnerships[nextTokenId] == 0 */\n      swap1\n      sub\n        /* \"erc721a/contracts/ERC721A.sol\":22164:22542  if (_packedOwnerships[nextTokenId] == 0) {... */\n      tag_262\n      jumpi\n        /* \"erc721a/contracts/ERC721A.sol\":22304:22317  _currentIndex */\n      sload(0x00)\n        /* \"erc721a/contracts/ERC721A.sol\":22289:22300  nextTokenId */\n      dup2\n        /* \"erc721a/contracts/ERC721A.sol\":22289:22317  nextTokenId != _currentIndex */\n      eq\n        /* \"erc721a/contracts/ERC721A.sol\":22285:22524  if (nextTokenId != _currentIndex) {... */\n      tag_262\n      jumpi\n        /* \"erc721a/contracts/ERC721A.sol\":22449:22479  _packedOwnerships[nextTokenId] */\n      0x00\n      dup2\n      dup2\n      mstore\n        /* \"erc721a/contracts/ERC721A.sol\":22449:22466  _packedOwnerships */\n      0x04\n        /* \"erc721a/contracts/ERC721A.sol\":22449:22479  _packedOwnerships[nextTokenId] */\n      0x20\n      mstore\n      0x40\n      swap1\n      keccak256\n        /* \"erc721a/contracts/ERC721A.sol\":22449:22501  _packedOwnerships[nextTokenId] = prevOwnershipPacked */\n      dup5\n      swap1\n      sstore\n        /* \"erc721a/contracts/ERC721A.sol\":22285:22524  if (nextTokenId != _currentIndex) {... */\n    tag_262:\n        /* \"erc721a/contracts/ERC721A.sol\":21997:22556  {... */\n      pop\n        /* \"erc721a/contracts/ERC721A.sol\":21939:22556  if (prevOwnershipPacked & _BITMASK_NEXT_INITIALIZED == 0) {... */\n    tag_260:\n        /* \"erc721a/contracts/ERC721A.sol\":22600:22607  tokenId */\n      dup4\n        /* \"erc721a/contracts/ERC721A.sol\":22596:22598  to */\n      dup6\n      sub(shl(0xa0, 0x01), 0x01)\n        /* \"erc721a/contracts/ERC721A.sol\":22581:22608  Transfer(from, to, tokenId) */\n      and\n        /* \"erc721a/contracts/ERC721A.sol\":22590:22594  from */\n      dup8\n      sub(shl(0xa0, 0x01), 0x01)\n        /* \"erc721a/contracts/ERC721A.sol\":22581:22608  Transfer(from, to, tokenId) */\n      and\n      0x00\n      dup1\n      mload\n      0x20\n      data_ada389e1fc24a8587c776340efb91b36e675792ab631816100d55df0b5cf3cbc\n      dup4\n      codecopy\n      dup2\n      mload\n      swap2\n      mstore\n      mload(0x40)\n      mload(0x40)\n      dup1\n      swap2\n      sub\n      swap1\n      log4\n        /* \"erc721a/contracts/ERC721A.sol\":22618:22660  _afterTokenTransfers(from, to, tokenId, 1) */\n    tag_263:\n        /* \"erc721a/contracts/ERC721A.sol\":20030:22667  {... */\n      pop\n      pop\n      pop\n        /* \"erc721a/contracts/ERC721A.sol\":19903:22667  function transferFrom(... */\n      pop\n      pop\n      pop\n      jump\t// out\n        /* \"contracts/WOM_LAND.sol\":3358:3834  function withdraw() public payable onlyOwner {... */\n    tag_105:\n        /* \"@openzeppelin/contracts/access/Ownable.sol\":1094:1107  _checkOwner() */\n      tag_266\n        /* \"@openzeppelin/contracts/access/Ownable.sol\":1094:1105  _checkOwner */\n      tag_209\n        /* \"@openzeppelin/contracts/access/Ownable.sol\":1094:1107  _checkOwner() */\n      jump\t// in\n    tag_266:\n        /* \"contracts/WOM_LAND.sol\":3650:3657  bool os */\n      0x00\n        /* \"contracts/WOM_LAND.sol\":3671:3678  owner() */\n      tag_268\n        /* \"@openzeppelin/contracts/access/Ownable.sol\":1273:1279  _owner */\n      and(sub(shl(0xa0, 0x01), 0x01), sload(0x08))\n      swap1\n        /* \"@openzeppelin/contracts/access/Ownable.sol\":1201:1286  function owner() public view virtual returns (address) {... */\n      jump\n        /* \"contracts/WOM_LAND.sol\":3671:3678  owner() */\n    tag_268:\n      sub(shl(0xa0, 0x01), 0x01)\n        /* \"contracts/WOM_LAND.sol\":3663:3684  payable(owner()).call */\n      and\n        /* \"contracts/WOM_LAND.sol\":3692:3713  address(this).balance */\n      selfbalance\n        /* \"contracts/WOM_LAND.sol\":3663:3718  payable(owner()).call{value: address(this).balance}(\"\") */\n      mload(0x40)\n      0x00\n      mload(0x40)\n      dup1\n      dup4\n      sub\n      dup2\n      dup6\n      dup8\n      gas\n      call\n      swap3\n      pop\n      pop\n      pop\n      returndatasize\n      dup1\n      0x00\n      dup2\n      eq\n      tag_273\n      jumpi\n      mload(0x40)\n      swap2\n      pop\n      and(add(returndatasize, 0x3f), not(0x1f))\n      dup3\n      add\n      0x40\n      mstore\n      returndatasize\n      dup3\n      mstore\n      returndatasize\n      0x00\n      0x20\n      dup5\n      add\n      returndatacopy\n      jump(tag_272)\n    tag_273:\n      0x60\n      swap2\n      pop\n    tag_272:\n      pop\n        /* \"contracts/WOM_LAND.sol\":3649:3718  (bool os, ) = payable(owner()).call{value: address(this).balance}(\"\") */\n      pop\n      swap1\n      pop\n        /* \"contracts/WOM_LAND.sol\":3735:3737  os */\n      dup1\n        /* \"contracts/WOM_LAND.sol\":3728:3738  assert(os) */\n      tag_275\n      jumpi\n      tag_275\n      tag_276\n      jump\t// in\n    tag_275:\n        /* \"contracts/WOM_LAND.sol\":3403:3834  {... */\n      pop\n        /* \"contracts/WOM_LAND.sol\":3358:3834  function withdraw() public payable onlyOwner {... */\n      jump\t// out\n        /* \"erc721a/contracts/ERC721A.sol\":22758:22945  function safeTransferFrom(... */\n    tag_108:\n        /* \"erc721a/contracts/ERC721A.sol\":22899:22938  safeTransferFrom(from, to, tokenId, '') */\n      tag_278\n        /* \"erc721a/contracts/ERC721A.sol\":22916:22920  from */\n      dup4\n        /* \"erc721a/contracts/ERC721A.sol\":22922:22924  to */\n      dup4\n        /* \"erc721a/contracts/ERC721A.sol\":22926:22933  tokenId */\n      dup4\n        /* \"erc721a/contracts/ERC721A.sol\":22899:22938  safeTransferFrom(from, to, tokenId, '') */\n      mload(0x40)\n      dup1\n      0x20\n      add\n      0x40\n      mstore\n      dup1\n      0x00\n      dup2\n      mstore\n      pop\n        /* \"erc721a/contracts/ERC721A.sol\":22899:22915  safeTransferFrom */\n      tag_172\n        /* \"erc721a/contracts/ERC721A.sol\":22899:22938  safeTransferFrom(from, to, tokenId, '') */\n      jump\t// in\n    tag_278:\n        /* \"erc721a/contracts/ERC721A.sol\":22758:22945  function safeTransferFrom(... */\n      pop\n      pop\n      pop\n      jump\t// out\n        /* \"contracts/WOM_LAND.sol\":2022:2107  function burn(uint256 tokenId) public onlyOwner {... */\n    tag_112:\n        /* \"@openzeppelin/contracts/access/Ownable.sol\":1094:1107  _checkOwner() */\n      tag_280\n        /* \"@openzeppelin/contracts/access/Ownable.sol\":1094:1105  _checkOwner */\n      tag_209\n        /* \"@openzeppelin/contracts/access/Ownable.sol\":1094:1107  _checkOwner() */\n      jump\t// in\n    tag_280:\n        /* \"contracts/WOM_LAND.sol\":2080:2100  super._burn(tokenId) */\n      tag_275\n        /* \"contracts/WOM_LAND.sol\":2092:2099  tokenId */\n      dup2\n        /* \"contracts/WOM_LAND.sol\":2080:2091  super._burn */\n      tag_283\n        /* \"contracts/WOM_LAND.sol\":2080:2100  super._burn(tokenId) */\n      jump\t// in\n        /* \"contracts/WOM_LAND.sol\":2215:2317  function ownerMint(address to, uint256 quantity) public onlyOwner {... */\n    tag_116:\n        /* \"@openzeppelin/contracts/access/Ownable.sol\":1094:1107  _checkOwner() */\n      tag_285\n        /* \"@openzeppelin/contracts/access/Ownable.sol\":1094:1105  _checkOwner */\n      tag_209\n        /* \"@openzeppelin/contracts/access/Ownable.sol\":1094:1107  _checkOwner() */\n      jump\t// in\n    tag_285:\n        /* \"contracts/WOM_LAND.sol\":2291:2310  _mint(to, quantity) */\n      tag_287\n        /* \"contracts/WOM_LAND.sol\":2297:2299  to */\n      dup3\n        /* \"contracts/WOM_LAND.sol\":2301:2309  quantity */\n      dup3\n        /* \"contracts/WOM_LAND.sol\":2291:2296  _mint */\n      tag_288\n        /* \"contracts/WOM_LAND.sol\":2291:2310  _mint(to, quantity) */\n      jump\t// in\n    tag_287:\n        /* \"contracts/WOM_LAND.sol\":2215:2317  function ownerMint(address to, uint256 quantity) public onlyOwner {... */\n      pop\n      pop\n      jump\t// out\n        /* \"contracts/WOM_LAND.sol\":720:1904  function mint(... */\n    tag_120:\n        /* \"contracts/WOM_LAND.sol\":884:890  paused */\n      and(0xff, sload(0x0d))\n        /* \"contracts/WOM_LAND.sol\":883:890  !paused */\n      iszero\n        /* \"contracts/WOM_LAND.sol\":875:917  require(!paused, \"The contract is paused\") */\n      tag_290\n      jumpi\n      mload(0x40)\n      shl(0xe5, 0x461bcd)\n      dup2\n      mstore\n        /* \"#utility.yul\":7743:7745   */\n      0x20\n        /* \"contracts/WOM_LAND.sol\":875:917  require(!paused, \"The contract is paused\") */\n      0x04\n      dup3\n      add\n        /* \"#utility.yul\":7725:7746   */\n      mstore\n        /* \"#utility.yul\":7782:7784   */\n      0x16\n        /* \"#utility.yul\":7762:7780   */\n      0x24\n      dup3\n      add\n        /* \"#utility.yul\":7755:7785   */\n      mstore\n      shl(0x52, 0x151a194818dbdb9d1c9858dd081a5cc81c185d5cd959)\n        /* \"#utility.yul\":7801:7819   */\n      0x44\n      dup3\n      add\n        /* \"#utility.yul\":7794:7846   */\n      mstore\n        /* \"#utility.yul\":7863:7881   */\n      0x64\n      add\n        /* \"contracts/WOM_LAND.sol\":875:917  require(!paused, \"The contract is paused\") */\n    tag_291:\n      mload(0x40)\n      dup1\n      swap2\n      sub\n      swap1\n      revert\n    tag_290:\n        /* \"contracts/WOM_LAND.sol\":927:941  uint256 supply */\n      0x00\n        /* \"contracts/WOM_LAND.sol\":944:957  totalSupply() */\n      tag_293\n        /* \"erc721a/contracts/ERC721A.sol\":6164:6176  _burnCounter */\n      sload(0x01)\n        /* \"erc721a/contracts/ERC721A.sol\":5955:5962  uint256 */\n      0x00\n        /* \"erc721a/contracts/ERC721A.sol\":6148:6161  _currentIndex */\n      sload\n        /* \"erc721a/contracts/ERC721A.sol\":6148:6176  _currentIndex - _burnCounter */\n      sub\n      swap1\n        /* \"erc721a/contracts/ERC721A.sol\":5894:6211  function totalSupply() public view virtual override returns (uint256) {... */\n      jump\n        /* \"contracts/WOM_LAND.sol\":944:957  totalSupply() */\n    tag_293:\n        /* \"contracts/WOM_LAND.sol\":927:957  uint256 supply = totalSupply() */\n      swap1\n      pop\n        /* \"contracts/WOM_LAND.sol\":986:987  0 */\n      0x00\n        /* \"contracts/WOM_LAND.sol\":975:983  quantity */\n      dup6\n        /* \"contracts/WOM_LAND.sol\":975:987  quantity > 0 */\n      gt\n        /* \"contracts/WOM_LAND.sol\":967:1019  require(quantity > 0, \"Need to mint at least 1 NFT\") */\n      tag_294\n      jumpi\n      mload(0x40)\n      shl(0xe5, 0x461bcd)\n      dup2\n      mstore\n        /* \"#utility.yul\":8094:8096   */\n      0x20\n        /* \"contracts/WOM_LAND.sol\":967:1019  require(quantity > 0, \"Need to mint at least 1 NFT\") */\n      0x04\n      dup3\n      add\n        /* \"#utility.yul\":8076:8097   */\n      mstore\n        /* \"#utility.yul\":8133:8135   */\n      0x1b\n        /* \"#utility.yul\":8113:8131   */\n      0x24\n      dup3\n      add\n        /* \"#utility.yul\":8106:8136   */\n      mstore\n        /* \"#utility.yul\":8172:8201   */\n      0x4e65656420746f206d696e74206174206c656173742031204e46540000000000\n        /* \"#utility.yul\":8152:8170   */\n      0x44\n      dup3\n      add\n        /* \"#utility.yul\":8145:8202   */\n      mstore\n        /* \"#utility.yul\":8219:8237   */\n      0x64\n      add\n        /* \"contracts/WOM_LAND.sol\":967:1019  require(quantity > 0, \"Need to mint at least 1 NFT\") */\n      tag_291\n        /* \"#utility.yul\":7892:8243   */\n      jump\n        /* \"contracts/WOM_LAND.sol\":967:1019  require(quantity > 0, \"Need to mint at least 1 NFT\") */\n    tag_294:\n        /* \"contracts/WOM_LAND.sol\":1058:1067  maxSupply */\n      sload(0x0a)\n        /* \"contracts/WOM_LAND.sol\":1037:1054  supply + quantity */\n      tag_297\n        /* \"contracts/WOM_LAND.sol\":1046:1054  quantity */\n      dup7\n        /* \"contracts/WOM_LAND.sol\":1037:1043  supply */\n      dup4\n        /* \"contracts/WOM_LAND.sol\":1037:1054  supply + quantity */\n      tag_298\n      jump\t// in\n    tag_297:\n        /* \"contracts/WOM_LAND.sol\":1037:1067  supply + quantity <= maxSupply */\n      gt\n      iszero\n        /* \"contracts/WOM_LAND.sol\":1029:1094  require(supply + quantity <= maxSupply, \"Max NFT limit exceeded\") */\n      tag_299\n      jumpi\n      mload(0x40)\n      shl(0xe5, 0x461bcd)\n      dup2\n      mstore\n        /* \"#utility.yul\":8712:8714   */\n      0x20\n        /* \"contracts/WOM_LAND.sol\":1029:1094  require(supply + quantity <= maxSupply, \"Max NFT limit exceeded\") */\n      0x04\n      dup3\n      add\n        /* \"#utility.yul\":8694:8715   */\n      mstore\n        /* \"#utility.yul\":8751:8753   */\n      0x16\n        /* \"#utility.yul\":8731:8749   */\n      0x24\n      dup3\n      add\n        /* \"#utility.yul\":8724:8754   */\n      mstore\n      shl(0x52, 0x13585e08139195081b1a5b5a5d08195e18d959591959)\n        /* \"#utility.yul\":8770:8788   */\n      0x44\n      dup3\n      add\n        /* \"#utility.yul\":8763:8815   */\n      mstore\n        /* \"#utility.yul\":8832:8850   */\n      0x64\n      add\n        /* \"contracts/WOM_LAND.sol\":1029:1094  require(supply + quantity <= maxSupply, \"Max NFT limit exceeded\") */\n      tag_291\n        /* \"#utility.yul\":8510:8856   */\n      jump\n        /* \"contracts/WOM_LAND.sol\":1029:1094  require(supply + quantity <= maxSupply, \"Max NFT limit exceeded\") */\n    tag_299:\n        /* \"contracts/WOM_LAND.sol\":1146:1156  msg.sender */\n      caller\n        /* \"contracts/WOM_LAND.sol\":1105:1129  uint256 ownerMintedCount */\n      0x00\n        /* \"contracts/WOM_LAND.sol\":1132:1157  alreadyMinted[msg.sender] */\n      swap1\n      dup2\n      mstore\n        /* \"contracts/WOM_LAND.sol\":1132:1145  alreadyMinted */\n      0x0e\n        /* \"contracts/WOM_LAND.sol\":1132:1157  alreadyMinted[msg.sender] */\n      0x20\n      mstore\n      0x40\n      swap1\n      keccak256\n      sload\n        /* \"contracts/WOM_LAND.sol\":1173:1183  publicMint */\n      sload(0x0d)\n      0x0100\n      swap1\n      div\n      0xff\n      and\n        /* \"contracts/WOM_LAND.sol\":1168:1785  if (!publicMint) {... */\n      tag_302\n      jumpi\n        /* \"contracts/WOM_LAND.sol\":1199:1254  verifyCoupon(maxMint, unitPrice, msg.sender, signature) */\n      tag_303\n        /* \"contracts/WOM_LAND.sol\":1212:1219  maxMint */\n      dup6\n        /* \"contracts/WOM_LAND.sol\":1221:1230  unitPrice */\n      dup6\n        /* \"contracts/WOM_LAND.sol\":1232:1242  msg.sender */\n      caller\n        /* \"contracts/WOM_LAND.sol\":1244:1253  signature */\n      dup7\n        /* \"contracts/WOM_LAND.sol\":1199:1211  verifyCoupon */\n      tag_154\n        /* \"contracts/WOM_LAND.sol\":1199:1254  verifyCoupon(maxMint, unitPrice, msg.sender, signature) */\n      jump\t// in\n    tag_303:\n        /* \"contracts/WOM_LAND.sol\":1324:1331  maxMint */\n      dup5\n        /* \"contracts/WOM_LAND.sol\":1293:1320  ownerMintedCount + quantity */\n      tag_304\n        /* \"contracts/WOM_LAND.sol\":1312:1320  quantity */\n      dup8\n        /* \"contracts/WOM_LAND.sol\":1293:1309  ownerMintedCount */\n      dup4\n        /* \"contracts/WOM_LAND.sol\":1293:1320  ownerMintedCount + quantity */\n      tag_298\n      jump\t// in\n    tag_304:\n        /* \"contracts/WOM_LAND.sol\":1293:1331  ownerMintedCount + quantity <= maxMint */\n      gt\n      iszero\n        /* \"contracts/WOM_LAND.sol\":1268:1393  require(... */\n      tag_305\n      jumpi\n      mload(0x40)\n      shl(0xe5, 0x461bcd)\n      dup2\n      mstore\n        /* \"#utility.yul\":9063:9065   */\n      0x20\n        /* \"contracts/WOM_LAND.sol\":1268:1393  require(... */\n      0x04\n      dup3\n      add\n        /* \"#utility.yul\":9045:9066   */\n      mstore\n        /* \"#utility.yul\":9102:9104   */\n      0x1c\n        /* \"#utility.yul\":9082:9100   */\n      0x24\n      dup3\n      add\n        /* \"#utility.yul\":9075:9105   */\n      mstore\n        /* \"#utility.yul\":9141:9171   */\n      0x4d6178204e465420666f72206164647265737320657863656564656400000000\n        /* \"#utility.yul\":9121:9139   */\n      0x44\n      dup3\n      add\n        /* \"#utility.yul\":9114:9172   */\n      mstore\n        /* \"#utility.yul\":9189:9207   */\n      0x64\n      add\n        /* \"contracts/WOM_LAND.sol\":1268:1393  require(... */\n      tag_291\n        /* \"#utility.yul\":8861:9213   */\n      jump\n        /* \"contracts/WOM_LAND.sol\":1268:1393  require(... */\n    tag_305:\n        /* \"contracts/WOM_LAND.sol\":1428:1448  unitPrice * quantity */\n      tag_308\n        /* \"contracts/WOM_LAND.sol\":1440:1448  quantity */\n      dup7\n        /* \"contracts/WOM_LAND.sol\":1428:1437  unitPrice */\n      dup6\n        /* \"contracts/WOM_LAND.sol\":1428:1448  unitPrice * quantity */\n      tag_309\n      jump\t// in\n    tag_308:\n        /* \"contracts/WOM_LAND.sol\":1415:1424  msg.value */\n      callvalue\n        /* \"contracts/WOM_LAND.sol\":1415:1448  msg.value >= unitPrice * quantity */\n      lt\n      iszero\n        /* \"contracts/WOM_LAND.sol\":1407:1472  require(msg.value >= unitPrice * quantity, \"Insufficient founds\") */\n      tag_310\n      jumpi\n      mload(0x40)\n      shl(0xe5, 0x461bcd)\n      dup2\n      mstore\n        /* \"#utility.yul\":9593:9595   */\n      0x20\n        /* \"contracts/WOM_LAND.sol\":1407:1472  require(msg.value >= unitPrice * quantity, \"Insufficient founds\") */\n      0x04\n      dup3\n      add\n        /* \"#utility.yul\":9575:9596   */\n      mstore\n        /* \"#utility.yul\":9632:9634   */\n      0x13\n        /* \"#utility.yul\":9612:9630   */\n      0x24\n      dup3\n      add\n        /* \"#utility.yul\":9605:9635   */\n      mstore\n      shl(0x68, 0x496e73756666696369656e7420666f756e6473)\n        /* \"#utility.yul\":9651:9669   */\n      0x44\n      dup3\n      add\n        /* \"#utility.yul\":9644:9693   */\n      mstore\n        /* \"#utility.yul\":9710:9728   */\n      0x64\n      add\n        /* \"contracts/WOM_LAND.sol\":1407:1472  require(msg.value >= unitPrice * quantity, \"Insufficient founds\") */\n      tag_291\n        /* \"#utility.yul\":9391:9734   */\n      jump\n        /* \"contracts/WOM_LAND.sol\":1407:1472  require(msg.value >= unitPrice * quantity, \"Insufficient founds\") */\n    tag_310:\n        /* \"contracts/WOM_LAND.sol\":1168:1785  if (!publicMint) {... */\n      jump(tag_318)\n    tag_302:\n        /* \"contracts/WOM_LAND.sol\":1559:1581  publicMaxNFTPerAddress */\n      sload(0x0b)\n        /* \"contracts/WOM_LAND.sol\":1528:1555  ownerMintedCount + quantity */\n      tag_314\n        /* \"contracts/WOM_LAND.sol\":1547:1555  quantity */\n      dup8\n        /* \"contracts/WOM_LAND.sol\":1528:1544  ownerMintedCount */\n      dup4\n        /* \"contracts/WOM_LAND.sol\":1528:1555  ownerMintedCount + quantity */\n      tag_298\n      jump\t// in\n    tag_314:\n        /* \"contracts/WOM_LAND.sol\":1528:1581  ownerMintedCount + quantity <= publicMaxNFTPerAddress */\n      gt\n      iszero\n        /* \"contracts/WOM_LAND.sol\":1503:1643  require(... */\n      tag_315\n      jumpi\n      mload(0x40)\n      shl(0xe5, 0x461bcd)\n      dup2\n      mstore\n        /* \"#utility.yul\":9063:9065   */\n      0x20\n        /* \"contracts/WOM_LAND.sol\":1503:1643  require(... */\n      0x04\n      dup3\n      add\n        /* \"#utility.yul\":9045:9066   */\n      mstore\n        /* \"#utility.yul\":9102:9104   */\n      0x1c\n        /* \"#utility.yul\":9082:9100   */\n      0x24\n      dup3\n      add\n        /* \"#utility.yul\":9075:9105   */\n      mstore\n        /* \"#utility.yul\":9141:9171   */\n      0x4d6178204e465420666f72206164647265737320657863656564656400000000\n        /* \"#utility.yul\":9121:9139   */\n      0x44\n      dup3\n      add\n        /* \"#utility.yul\":9114:9172   */\n      mstore\n        /* \"#utility.yul\":9189:9207   */\n      0x64\n      add\n        /* \"contracts/WOM_LAND.sol\":1503:1643  require(... */\n      tag_291\n        /* \"#utility.yul\":8861:9213   */\n      jump\n        /* \"contracts/WOM_LAND.sol\":1503:1643  require(... */\n    tag_315:\n        /* \"contracts/WOM_LAND.sol\":1713:1721  quantity */\n      dup6\n        /* \"contracts/WOM_LAND.sol\":1695:1710  publicPriceMint */\n      sload(0x0c)\n        /* \"contracts/WOM_LAND.sol\":1695:1721  publicPriceMint * quantity */\n      tag_317\n      swap2\n      swap1\n      tag_309\n      jump\t// in\n    tag_317:\n        /* \"contracts/WOM_LAND.sol\":1682:1691  msg.value */\n      callvalue\n        /* \"contracts/WOM_LAND.sol\":1682:1721  msg.value >= publicPriceMint * quantity */\n      lt\n      iszero\n        /* \"contracts/WOM_LAND.sol\":1657:1774  require(... */\n      tag_318\n      jumpi\n      mload(0x40)\n      shl(0xe5, 0x461bcd)\n      dup2\n      mstore\n        /* \"#utility.yul\":9593:9595   */\n      0x20\n        /* \"contracts/WOM_LAND.sol\":1657:1774  require(... */\n      0x04\n      dup3\n      add\n        /* \"#utility.yul\":9575:9596   */\n      mstore\n        /* \"#utility.yul\":9632:9634   */\n      0x13\n        /* \"#utility.yul\":9612:9630   */\n      0x24\n      dup3\n      add\n        /* \"#utility.yul\":9605:9635   */\n      mstore\n      shl(0x68, 0x496e73756666696369656e7420666f756e6473)\n        /* \"#utility.yul\":9651:9669   */\n      0x44\n      dup3\n      add\n        /* \"#utility.yul\":9644:9693   */\n      mstore\n        /* \"#utility.yul\":9710:9728   */\n      0x64\n      add\n        /* \"contracts/WOM_LAND.sol\":1657:1774  require(... */\n      tag_291\n        /* \"#utility.yul\":9391:9734   */\n      jump\n        /* \"contracts/WOM_LAND.sol\":1657:1774  require(... */\n    tag_318:\n        /* \"contracts/WOM_LAND.sol\":1837:1847  msg.sender */\n      caller\n        /* \"contracts/WOM_LAND.sol\":1823:1848  alreadyMinted[msg.sender] */\n      0x00\n      swap1\n      dup2\n      mstore\n        /* \"contracts/WOM_LAND.sol\":1823:1836  alreadyMinted */\n      0x0e\n        /* \"contracts/WOM_LAND.sol\":1823:1848  alreadyMinted[msg.sender] */\n      0x20\n      mstore\n      0x40\n      swap1\n      keccak256\n      sload\n        /* \"contracts/WOM_LAND.sol\":1823:1859  alreadyMinted[msg.sender] + quantity */\n      tag_320\n      swap1\n        /* \"contracts/WOM_LAND.sol\":1851:1859  quantity */\n      dup8\n      swap1\n        /* \"contracts/WOM_LAND.sol\":1823:1859  alreadyMinted[msg.sender] + quantity */\n      tag_298\n      jump\t// in\n    tag_320:\n        /* \"contracts/WOM_LAND.sol\":1809:1819  msg.sender */\n      caller\n        /* \"contracts/WOM_LAND.sol\":1795:1820  alreadyMinted[msg.sender] */\n      0x00\n      dup2\n      dup2\n      mstore\n        /* \"contracts/WOM_LAND.sol\":1795:1808  alreadyMinted */\n      0x0e\n        /* \"contracts/WOM_LAND.sol\":1795:1820  alreadyMinted[msg.sender] */\n      0x20\n      mstore\n      0x40\n      swap1\n      keccak256\n        /* \"contracts/WOM_LAND.sol\":1795:1859  alreadyMinted[msg.sender] = alreadyMinted[msg.sender] + quantity */\n      swap2\n      swap1\n      swap2\n      sstore\n        /* \"contracts/WOM_LAND.sol\":1870:1897  _mint(msg.sender, quantity) */\n      tag_263\n      swap1\n        /* \"contracts/WOM_LAND.sol\":1888:1896  quantity */\n      dup8\n        /* \"contracts/WOM_LAND.sol\":1870:1875  _mint */\n      tag_288\n        /* \"contracts/WOM_LAND.sol\":1870:1897  _mint(msg.sender, quantity) */\n      jump\t// in\n        /* \"erc721a/contracts/ERC721A.sol\":11391:11541  function ownerOf(uint256 tokenId) public view virtual override returns (address) {... */\n    tag_132:\n        /* \"erc721a/contracts/ERC721A.sol\":11463:11470  address */\n      0x00\n        /* \"erc721a/contracts/ERC721A.sol\":11505:11532  _packedOwnershipOf(tokenId) */\n      tag_206\n        /* \"erc721a/contracts/ERC721A.sol\":11524:11531  tokenId */\n      dup3\n        /* \"erc721a/contracts/ERC721A.sol\":11505:11523  _packedOwnershipOf */\n      tag_241\n        /* \"erc721a/contracts/ERC721A.sol\":11505:11532  _packedOwnershipOf(tokenId) */\n      jump\t// in\n        /* \"contracts/WOM_LAND.sol\":270:291  string public baseURI */\n    tag_136:\n      0x09\n      dup1\n      sload\n      tag_324\n      swap1\n      tag_216\n      jump\t// in\n    tag_324:\n      dup1\n      0x1f\n      add\n      0x20\n      dup1\n      swap2\n      div\n      mul\n      0x20\n      add\n      mload(0x40)\n      swap1\n      dup2\n      add\n      0x40\n      mstore\n      dup1\n      swap3\n      swap2\n      swap1\n      dup2\n      dup2\n      mstore\n      0x20\n      add\n      dup3\n      dup1\n      sload\n      tag_325\n      swap1\n      tag_216\n      jump\t// in\n    tag_325:\n      dup1\n      iszero\n      tag_326\n      jumpi\n      dup1\n      0x1f\n      lt\n      tag_327\n      jumpi\n      0x0100\n      dup1\n      dup4\n      sload\n      div\n      mul\n      dup4\n      mstore\n      swap2\n      0x20\n      add\n      swap2\n      jump(tag_326)\n    tag_327:\n      dup3\n      add\n      swap2\n      swap1\n      0x00\n      mstore\n      keccak256(0x00, 0x20)\n      swap1\n    tag_328:\n      dup2\n      sload\n      dup2\n      mstore\n      swap1\n      0x01\n      add\n      swap1\n      0x20\n      add\n      dup1\n      dup4\n      gt\n      tag_328\n      jumpi\n      dup3\n      swap1\n      sub\n      0x1f\n      and\n      dup3\n      add\n      swap2\n    tag_326:\n      pop\n      pop\n      pop\n      pop\n      pop\n      dup2\n      jump\t// out\n        /* \"erc721a/contracts/ERC721A.sol\":7045:7275  function balanceOf(address owner) public view virtual override returns (uint256) {... */\n    tag_141:\n        /* \"erc721a/contracts/ERC721A.sol\":7117:7124  uint256 */\n      0x00\n      sub(shl(0xa0, 0x01), 0x01)\n        /* \"erc721a/contracts/ERC721A.sol\":7140:7159  owner == address(0) */\n      dup3\n      and\n        /* \"erc721a/contracts/ERC721A.sol\":7136:7196  if (owner == address(0)) revert BalanceQueryForZeroAddress() */\n      tag_330\n      jumpi\n        /* \"erc721a/contracts/ERC721A.sol\":7168:7196  BalanceQueryForZeroAddress() */\n      mload(0x40)\n      shl(0xe2, 0x23d3ad81)\n      dup2\n      mstore\n      0x04\n      add\n      mload(0x40)\n      dup1\n      swap2\n      sub\n      swap1\n      revert\n        /* \"erc721a/contracts/ERC721A.sol\":7136:7196  if (owner == address(0)) revert BalanceQueryForZeroAddress() */\n    tag_330:\n      pop\n      sub(shl(0xa0, 0x01), 0x01)\n        /* \"erc721a/contracts/ERC721A.sol\":7213:7238  _packedAddressData[owner] */\n      and\n      0x00\n      swap1\n      dup2\n      mstore\n        /* \"erc721a/contracts/ERC721A.sol\":7213:7231  _packedAddressData */\n      0x05\n        /* \"erc721a/contracts/ERC721A.sol\":7213:7238  _packedAddressData[owner] */\n      0x20\n      mstore\n      0x40\n      swap1\n      keccak256\n      sload\n        /* \"erc721a/contracts/ERC721A.sol\":1360:1373  (1 << 64) - 1 */\n      0xffffffffffffffff\n        /* \"erc721a/contracts/ERC721A.sol\":7213:7268  _packedAddressData[owner] & _BITMASK_ADDRESS_DATA_ENTRY */\n      and\n      swap1\n        /* \"erc721a/contracts/ERC721A.sol\":7045:7275  function balanceOf(address owner) public view virtual override returns (uint256) {... */\n      jump\t// out\n        /* \"@openzeppelin/contracts/access/Ownable.sol\":1831:1932  function renounceOwnership() public virtual onlyOwner {... */\n    tag_145:\n        /* \"@openzeppelin/contracts/access/Ownable.sol\":1094:1107  _checkOwner() */\n      tag_332\n        /* \"@openzeppelin/contracts/access/Ownable.sol\":1094:1105  _checkOwner */\n      tag_209\n        /* \"@openzeppelin/contracts/access/Ownable.sol\":1094:1107  _checkOwner() */\n      jump\t// in\n    tag_332:\n        /* \"@openzeppelin/contracts/access/Ownable.sol\":1895:1925  _transferOwnership(address(0)) */\n      tag_334\n        /* \"@openzeppelin/contracts/access/Ownable.sol\":1922:1923  0 */\n      0x00\n        /* \"@openzeppelin/contracts/access/Ownable.sol\":1895:1913  _transferOwnership */\n      tag_335\n        /* \"@openzeppelin/contracts/access/Ownable.sol\":1895:1925  _transferOwnership(address(0)) */\n      jump\t// in\n    tag_334:\n        /* \"@openzeppelin/contracts/access/Ownable.sol\":1831:1932  function renounceOwnership() public virtual onlyOwner {... */\n      jump\t// out\n        /* \"contracts/WOM_LAND.sol\":2847:3352  function verifyCoupon(... */\n    tag_154:\n        /* \"contracts/WOM_LAND.sol\":3063:3114  abi.encodePacked(maxMint, unitPrice, minterAddress) */\n      0x40\n      dup1\n      mload\n      0x20\n      dup1\n      dup3\n      add\n        /* \"#utility.yul\":9924:9943   */\n      dup8\n      swap1\n      mstore\n        /* \"#utility.yul\":9959:9971   */\n      dup2\n      dup4\n      add\n        /* \"#utility.yul\":9952:9980   */\n      dup7\n      swap1\n      mstore\n        /* \"#utility.yul\":10018:10020   */\n      0x60\n        /* \"#utility.yul\":10014:10029   */\n      dup6\n      dup2\n      shl\n      not(0xffffffffffffffffffffffff)\n        /* \"#utility.yul\":10010:10063   */\n      and\n        /* \"#utility.yul\":9996:10008   */\n      swap1\n      dup4\n      add\n        /* \"#utility.yul\":9989:10064   */\n      mstore\n        /* \"contracts/WOM_LAND.sol\":3063:3114  abi.encodePacked(maxMint, unitPrice, minterAddress) */\n      dup3\n      mload\n      dup1\n      dup4\n      sub\n      0x54\n      add\n      dup2\n      mstore\n        /* \"#utility.yul\":10080:10092   */\n      0x74\n      dup4\n      add\n        /* \"contracts/WOM_LAND.sol\":3063:3114  abi.encodePacked(maxMint, unitPrice, minterAddress) */\n      dup5\n      mstore\n        /* \"contracts/WOM_LAND.sol\":3040:3124  keccak256(... */\n      dup1\n      mload\n      swap1\n      dup3\n      add\n      keccak256\n        /* \"#utility.yul\":14160:14226   */\n      0x19457468657265756d205369676e6564204d6573736167653a0a333200000000\n        /* \"@openzeppelin/contracts/utils/cryptography/ECDSA.sol\":7455:7513  abi.encodePacked(\"\\x19Ethereum Signed Message:\\n32\", hash) */\n      0x94\n      dup5\n      add\n        /* \"#utility.yul\":14148:14227   */\n      mstore\n        /* \"#utility.yul\":14243:14255   */\n      0xb0\n      dup1\n      dup5\n      add\n        /* \"#utility.yul\":14236:14264   */\n      dup3\n      swap1\n      mstore\n        /* \"@openzeppelin/contracts/utils/cryptography/ECDSA.sol\":7455:7513  abi.encodePacked(\"\\x19Ethereum Signed Message:\\n32\", hash) */\n      dup5\n      mload\n      dup1\n      dup6\n      sub\n      swap1\n      swap2\n      add\n      dup2\n      mstore\n        /* \"#utility.yul\":14280:14292   */\n      0xd0\n      swap1\n      swap4\n      add\n        /* \"@openzeppelin/contracts/utils/cryptography/ECDSA.sol\":7455:7513  abi.encodePacked(\"\\x19Ethereum Signed Message:\\n32\", hash) */\n      swap1\n      swap4\n      mstore\n        /* \"@openzeppelin/contracts/utils/cryptography/ECDSA.sol\":7445:7514  keccak256(abi.encodePacked(\"\\x19Ethereum Signed Message:\\n32\", hash)) */\n      dup2\n      mload\n      swap2\n      add\n      keccak256\n        /* \"contracts/WOM_LAND.sol\":3210:3234  address recoveredAddress */\n      0x00\n        /* \"contracts/WOM_LAND.sol\":3237:3276  ethSignedMessageHash.recover(signature) */\n      tag_342\n        /* \"contracts/WOM_LAND.sol\":3135:3200  bytes32 ethSignedMessageHash = inputHash.toEthSignedMessageHash() */\n      dup3\n        /* \"contracts/WOM_LAND.sol\":3266:3275  signature */\n      dup6\n        /* \"contracts/WOM_LAND.sol\":3237:3265  ethSignedMessageHash.recover */\n      tag_343\n        /* \"contracts/WOM_LAND.sol\":3237:3276  ethSignedMessageHash.recover(signature) */\n      jump\t// in\n    tag_342:\n        /* \"contracts/WOM_LAND.sol\":3314:3327  signerAddress */\n      sload(0x0d)\n        /* \"contracts/WOM_LAND.sol\":3210:3276  address recoveredAddress = ethSignedMessageHash.recover(signature) */\n      swap1\n      swap2\n      pop\n      sub(shl(0xa0, 0x01), 0x01)\n        /* \"contracts/WOM_LAND.sol\":3294:3327  recoveredAddress == signerAddress */\n      dup1\n      dup4\n      and\n        /* \"contracts/WOM_LAND.sol\":3314:3327  signerAddress */\n      0x010000\n      swap1\n      swap3\n      div\n      and\n        /* \"contracts/WOM_LAND.sol\":3294:3327  recoveredAddress == signerAddress */\n      eq\n        /* \"contracts/WOM_LAND.sol\":3286:3345  require(recoveredAddress == signerAddress, \"Bad signature\") */\n      tag_344\n      jumpi\n      mload(0x40)\n      shl(0xe5, 0x461bcd)\n      dup2\n      mstore\n        /* \"#utility.yul\":10305:10307   */\n      0x20\n        /* \"contracts/WOM_LAND.sol\":3286:3345  require(recoveredAddress == signerAddress, \"Bad signature\") */\n      0x04\n      dup3\n      add\n        /* \"#utility.yul\":10287:10308   */\n      mstore\n        /* \"#utility.yul\":10344:10346   */\n      0x0d\n        /* \"#utility.yul\":10324:10342   */\n      0x24\n      dup3\n      add\n        /* \"#utility.yul\":10317:10347   */\n      mstore\n      shl(0x98, 0x426164207369676e6174757265)\n        /* \"#utility.yul\":10363:10381   */\n      0x44\n      dup3\n      add\n        /* \"#utility.yul\":10356:10399   */\n      mstore\n        /* \"#utility.yul\":10416:10434   */\n      0x64\n      add\n        /* \"contracts/WOM_LAND.sol\":3286:3345  require(recoveredAddress == signerAddress, \"Bad signature\") */\n      tag_291\n        /* \"#utility.yul\":10103:10440   */\n      jump\n        /* \"contracts/WOM_LAND.sol\":3286:3345  require(recoveredAddress == signerAddress, \"Bad signature\") */\n    tag_344:\n        /* \"contracts/WOM_LAND.sol\":3010:3352  {... */\n      pop\n      pop\n      pop\n        /* \"contracts/WOM_LAND.sol\":2847:3352  function verifyCoupon(... */\n      pop\n      pop\n      pop\n      pop\n      jump\t// out\n        /* \"erc721a/contracts/ERC721A.sol\":10208:10310  function symbol() public view virtual override returns (string memory) {... */\n    tag_157:\n        /* \"erc721a/contracts/ERC721A.sol\":10264:10277  string memory */\n      0x60\n        /* \"erc721a/contracts/ERC721A.sol\":10296:10303  _symbol */\n      0x03\n        /* \"erc721a/contracts/ERC721A.sol\":10289:10303  return _symbol */\n      dup1\n      sload\n      tag_215\n      swap1\n      tag_216\n      jump\t// in\n        /* \"contracts/WOM_LAND.sol\":2113:2209  function setBaseUri(string memory baseuri_) public onlyOwner {... */\n    tag_163:\n        /* \"@openzeppelin/contracts/access/Ownable.sol\":1094:1107  _checkOwner() */\n      tag_354\n        /* \"@openzeppelin/contracts/access/Ownable.sol\":1094:1105  _checkOwner */\n      tag_209\n        /* \"@openzeppelin/contracts/access/Ownable.sol\":1094:1107  _checkOwner() */\n      jump\t// in\n    tag_354:\n        /* \"contracts/WOM_LAND.sol\":2184:2191  baseURI */\n      0x09\n        /* \"contracts/WOM_LAND.sol\":2184:2202  baseURI = baseuri_ */\n      tag_287\n        /* \"contracts/WOM_LAND.sol\":2194:2202  baseuri_ */\n      dup3\n        /* \"contracts/WOM_LAND.sol\":2184:2191  baseURI */\n      dup3\n        /* \"contracts/WOM_LAND.sol\":2184:2202  baseURI = baseuri_ */\n      tag_357\n      jump\t// in\n        /* \"erc721a/contracts/ERC721A.sol\":16901:17132  function setApprovalForAll(address operator, bool approved) public virtual override {... */\n    tag_168:\n        /* \"erc721a/contracts/ERC721A.sol\":39523:39533  msg.sender */\n      caller\n        /* \"erc721a/contracts/ERC721A.sol\":16995:17034  _operatorApprovals[_msgSenderERC721A()] */\n      0x00\n      dup2\n      dup2\n      mstore\n        /* \"erc721a/contracts/ERC721A.sol\":16995:17013  _operatorApprovals */\n      0x07\n        /* \"erc721a/contracts/ERC721A.sol\":16995:17034  _operatorApprovals[_msgSenderERC721A()] */\n      0x20\n      swap1\n      dup2\n      mstore\n      0x40\n      dup1\n      dup4\n      keccak256\n      sub(shl(0xa0, 0x01), 0x01)\n        /* \"erc721a/contracts/ERC721A.sol\":16995:17044  _operatorApprovals[_msgSenderERC721A()][operator] */\n      dup8\n      and\n      dup1\n      dup6\n      mstore\n      swap1\n      dup4\n      mstore\n      swap3\n      dup2\n      swap1\n      keccak256\n        /* \"erc721a/contracts/ERC721A.sol\":16995:17055  _operatorApprovals[_msgSenderERC721A()][operator] = approved */\n      dup1\n      sload\n      not(0xff)\n      and\n      dup7\n      iszero\n      iszero\n      swap1\n      dup2\n      or\n      swap1\n      swap2\n      sstore\n        /* \"erc721a/contracts/ERC721A.sol\":17070:17125  ApprovalForAll(_msgSenderERC721A(), operator, approved) */\n      swap1\n      mload\n        /* \"#utility.yul\":540:581   */\n      swap1\n      dup2\n      mstore\n        /* \"erc721a/contracts/ERC721A.sol\":16995:17044  _operatorApprovals[_msgSenderERC721A()][operator] */\n      swap2\n      swap3\n        /* \"erc721a/contracts/ERC721A.sol\":39523:39533  msg.sender */\n      swap2\n        /* \"erc721a/contracts/ERC721A.sol\":17070:17125  ApprovalForAll(_msgSenderERC721A(), operator, approved) */\n      0x17307eab39ab6107e8899845ad3d59bd9653f200f220920489ca2b5937696c31\n      swap2\n        /* \"#utility.yul\":513:531   */\n      add\n        /* \"erc721a/contracts/ERC721A.sol\":17070:17125  ApprovalForAll(_msgSenderERC721A(), operator, approved) */\n      mload(0x40)\n      dup1\n      swap2\n      sub\n      swap1\n      log3\n        /* \"erc721a/contracts/ERC721A.sol\":16901:17132  function setApprovalForAll(address operator, bool approved) public virtual override {... */\n      pop\n      pop\n      jump\t// out\n        /* \"erc721a/contracts/ERC721A.sol\":23526:23922  function safeTransferFrom(... */\n    tag_172:\n        /* \"erc721a/contracts/ERC721A.sol\":23695:23726  transferFrom(from, to, tokenId) */\n      tag_363\n        /* \"erc721a/contracts/ERC721A.sol\":23708:23712  from */\n      dup5\n        /* \"erc721a/contracts/ERC721A.sol\":23714:23716  to */\n      dup5\n        /* \"erc721a/contracts/ERC721A.sol\":23718:23725  tokenId */\n      dup5\n        /* \"erc721a/contracts/ERC721A.sol\":23695:23707  transferFrom */\n      tag_99\n        /* \"erc721a/contracts/ERC721A.sol\":23695:23726  transferFrom(from, to, tokenId) */\n      jump\t// in\n    tag_363:\n      sub(shl(0xa0, 0x01), 0x01)\n        /* \"erc721a/contracts/ERC721A.sol\":23740:23754  to.code.length */\n      dup4\n      and\n      extcodesize\n        /* \"erc721a/contracts/ERC721A.sol\":23740:23759  to.code.length != 0 */\n      iszero\n        /* \"erc721a/contracts/ERC721A.sol\":23736:23916  if (to.code.length != 0)... */\n      tag_367\n      jumpi\n        /* \"erc721a/contracts/ERC721A.sol\":23778:23834  _checkContractOnERC721Received(from, to, tokenId, _data) */\n      tag_365\n        /* \"erc721a/contracts/ERC721A.sol\":23809:23813  from */\n      dup5\n        /* \"erc721a/contracts/ERC721A.sol\":23815:23817  to */\n      dup5\n        /* \"erc721a/contracts/ERC721A.sol\":23819:23826  tokenId */\n      dup5\n        /* \"erc721a/contracts/ERC721A.sol\":23828:23833  _data */\n      dup5\n        /* \"erc721a/contracts/ERC721A.sol\":23778:23808  _checkContractOnERC721Received */\n      tag_366\n        /* \"erc721a/contracts/ERC721A.sol\":23778:23834  _checkContractOnERC721Received(from, to, tokenId, _data) */\n      jump\t// in\n    tag_365:\n        /* \"erc721a/contracts/ERC721A.sol\":23773:23916  if (!_checkContractOnERC721Received(from, to, tokenId, _data)) {... */\n      tag_367\n      jumpi\n        /* \"erc721a/contracts/ERC721A.sol\":23861:23901  TransferToNonERC721ReceiverImplementer() */\n      mload(0x40)\n      shl(0xe1, 0x68d2bf6b)\n      dup2\n      mstore\n      0x04\n      add\n      mload(0x40)\n      dup1\n      swap2\n      sub\n      swap1\n      revert\n        /* \"erc721a/contracts/ERC721A.sol\":23773:23916  if (!_checkContractOnERC721Received(from, to, tokenId, _data)) {... */\n    tag_367:\n        /* \"erc721a/contracts/ERC721A.sol\":23526:23922  function safeTransferFrom(... */\n      pop\n      pop\n      pop\n      pop\n      jump\t// out\n        /* \"contracts/WOM_LAND.sol\":2621:2737  function setPublicMaxNFTPerAddress(uint256 _state) public onlyOwner {... */\n    tag_176:\n        /* \"@openzeppelin/contracts/access/Ownable.sol\":1094:1107  _checkOwner() */\n      tag_369\n        /* \"@openzeppelin/contracts/access/Ownable.sol\":1094:1105  _checkOwner */\n      tag_209\n        /* \"@openzeppelin/contracts/access/Ownable.sol\":1094:1107  _checkOwner() */\n      jump\t// in\n    tag_369:\n        /* \"contracts/WOM_LAND.sol\":2699:2721  publicMaxNFTPerAddress */\n      0x0b\n        /* \"contracts/WOM_LAND.sol\":2699:2730  publicMaxNFTPerAddress = _state */\n      sstore\n        /* \"contracts/WOM_LAND.sol\":2621:2737  function setPublicMaxNFTPerAddress(uint256 _state) public onlyOwner {... */\n      jump\t// out\n        /* \"contracts/WOM_LAND.sol\":2743:2841  function setPublicPrice(uint256 _state) public onlyOwner {... */\n    tag_180:\n        /* \"@openzeppelin/contracts/access/Ownable.sol\":1094:1107  _checkOwner() */\n      tag_372\n        /* \"@openzeppelin/contracts/access/Ownable.sol\":1094:1105  _checkOwner */\n      tag_209\n        /* \"@openzeppelin/contracts/access/Ownable.sol\":1094:1107  _checkOwner() */\n      jump\t// in\n    tag_372:\n        /* \"contracts/WOM_LAND.sol\":2810:2825  publicPriceMint */\n      0x0c\n        /* \"contracts/WOM_LAND.sol\":2810:2834  publicPriceMint = _state */\n      sstore\n        /* \"contracts/WOM_LAND.sol\":2743:2841  function setPublicPrice(uint256 _state) public onlyOwner {... */\n      jump\t// out\n        /* \"erc721a/contracts/ERC721A.sol\":10411:10724  function tokenURI(uint256 tokenId) public view virtual override returns (string memory) {... */\n    tag_184:\n        /* \"erc721a/contracts/ERC721A.sol\":10484:10497  string memory */\n      0x60\n        /* \"erc721a/contracts/ERC721A.sol\":10514:10530  _exists(tokenId) */\n      tag_375\n        /* \"erc721a/contracts/ERC721A.sol\":10522:10529  tokenId */\n      dup3\n        /* \"erc721a/contracts/ERC721A.sol\":10514:10521  _exists */\n      tag_223\n        /* \"erc721a/contracts/ERC721A.sol\":10514:10530  _exists(tokenId) */\n      jump\t// in\n    tag_375:\n        /* \"erc721a/contracts/ERC721A.sol\":10509:10568  if (!_exists(tokenId)) revert URIQueryForNonexistentToken() */\n      tag_376\n      jumpi\n        /* \"erc721a/contracts/ERC721A.sol\":10539:10568  URIQueryForNonexistentToken() */\n      mload(0x40)\n      shl(0xe4, 0x0a14c4b5)\n      dup2\n      mstore\n      0x04\n      add\n      mload(0x40)\n      dup1\n      swap2\n      sub\n      swap1\n      revert\n        /* \"erc721a/contracts/ERC721A.sol\":10509:10568  if (!_exists(tokenId)) revert URIQueryForNonexistentToken() */\n    tag_376:\n        /* \"erc721a/contracts/ERC721A.sol\":10579:10600  string memory baseURI */\n      0x00\n        /* \"erc721a/contracts/ERC721A.sol\":10603:10613  _baseURI() */\n      tag_377\n        /* \"erc721a/contracts/ERC721A.sol\":10603:10611  _baseURI */\n      tag_378\n        /* \"erc721a/contracts/ERC721A.sol\":10603:10613  _baseURI() */\n      jump\t// in\n    tag_377:\n        /* \"erc721a/contracts/ERC721A.sol\":10579:10613  string memory baseURI = _baseURI() */\n      swap1\n      pop\n        /* \"erc721a/contracts/ERC721A.sol\":10636:10643  baseURI */\n      dup1\n        /* \"erc721a/contracts/ERC721A.sol\":10630:10651  bytes(baseURI).length */\n      mload\n        /* \"erc721a/contracts/ERC721A.sol\":10655:10656  0 */\n      0x00\n        /* \"erc721a/contracts/ERC721A.sol\":10630:10656  bytes(baseURI).length != 0 */\n      sub\n        /* \"erc721a/contracts/ERC721A.sol\":10630:10717  bytes(baseURI).length != 0 ? string(abi.encodePacked(baseURI, _toString(tokenId))) : '' */\n      tag_379\n      jumpi\n      mload(0x40)\n      dup1\n      0x20\n      add\n      0x40\n      mstore\n      dup1\n      0x00\n      dup2\n      mstore\n      pop\n      jump(tag_380)\n    tag_379:\n        /* \"erc721a/contracts/ERC721A.sol\":10683:10690  baseURI */\n      dup1\n        /* \"erc721a/contracts/ERC721A.sol\":10692:10710  _toString(tokenId) */\n      tag_381\n        /* \"erc721a/contracts/ERC721A.sol\":10702:10709  tokenId */\n      dup5\n        /* \"erc721a/contracts/ERC721A.sol\":10692:10701  _toString */\n      tag_382\n        /* \"erc721a/contracts/ERC721A.sol\":10692:10710  _toString(tokenId) */\n      jump\t// in\n    tag_381:\n        /* \"erc721a/contracts/ERC721A.sol\":10666:10711  abi.encodePacked(baseURI, _toString(tokenId)) */\n      add(0x20, mload(0x40))\n      tag_383\n      swap3\n      swap2\n      swap1\n      tag_384\n      jump\t// in\n    tag_383:\n      mload(0x40)\n      0x20\n      dup2\n      dup4\n      sub\n      sub\n      dup2\n      mstore\n      swap1\n      0x40\n      mstore\n        /* \"erc721a/contracts/ERC721A.sol\":10630:10717  bytes(baseURI).length != 0 ? string(abi.encodePacked(baseURI, _toString(tokenId))) : '' */\n    tag_380:\n        /* \"erc721a/contracts/ERC721A.sol\":10623:10717  return bytes(baseURI).length != 0 ? string(abi.encodePacked(baseURI, _toString(tokenId))) : '' */\n      swap4\n        /* \"erc721a/contracts/ERC721A.sol\":10411:10724  function tokenURI(uint256 tokenId) public view virtual override returns (string memory) {... */\n      swap3\n      pop\n      pop\n      pop\n      jump\t// out\n        /* \"erc721a/contracts/ERC721A.sol\":17282:17444  function isApprovedForAll(address owner, address operator) public view virtual override returns (bool) {... */\n    tag_198:\n      sub(shl(0xa0, 0x01), 0x01)\n        /* \"erc721a/contracts/ERC721A.sol\":17402:17427  _operatorApprovals[owner] */\n      swap2\n      dup3\n      and\n        /* \"erc721a/contracts/ERC721A.sol\":17379:17383  bool */\n      0x00\n        /* \"erc721a/contracts/ERC721A.sol\":17402:17427  _operatorApprovals[owner] */\n      swap1\n      dup2\n      mstore\n        /* \"erc721a/contracts/ERC721A.sol\":17402:17420  _operatorApprovals */\n      0x07\n        /* \"erc721a/contracts/ERC721A.sol\":17402:17427  _operatorApprovals[owner] */\n      0x20\n      swap1\n      dup2\n      mstore\n      0x40\n      dup1\n      dup4\n      keccak256\n        /* \"erc721a/contracts/ERC721A.sol\":17402:17437  _operatorApprovals[owner][operator] */\n      swap4\n      swap1\n      swap5\n      and\n      dup3\n      mstore\n      swap2\n      swap1\n      swap2\n      mstore\n      keccak256\n      sload\n      0xff\n      and\n      swap1\n        /* \"erc721a/contracts/ERC721A.sol\":17282:17444  function isApprovedForAll(address owner, address operator) public view virtual override returns (bool) {... */\n      jump\t// out\n        /* \"@openzeppelin/contracts/access/Ownable.sol\":2081:2279  function transferOwnership(address newOwner) public virtual onlyOwner {... */\n    tag_203:\n        /* \"@openzeppelin/contracts/access/Ownable.sol\":1094:1107  _checkOwner() */\n      tag_387\n        /* \"@openzeppelin/contracts/access/Ownable.sol\":1094:1105  _checkOwner */\n      tag_209\n        /* \"@openzeppelin/contracts/access/Ownable.sol\":1094:1107  _checkOwner() */\n      jump\t// in\n    tag_387:\n      sub(shl(0xa0, 0x01), 0x01)\n        /* \"@openzeppelin/contracts/access/Ownable.sol\":2169:2191  newOwner != address(0) */\n      dup2\n      and\n        /* \"@openzeppelin/contracts/access/Ownable.sol\":2161:2234  require(newOwner != address(0), \"Ownable: new owner is the zero address\") */\n      tag_389\n      jumpi\n      mload(0x40)\n      shl(0xe5, 0x461bcd)\n      dup2\n      mstore\n        /* \"#utility.yul\":13352:13354   */\n      0x20\n        /* \"@openzeppelin/contracts/access/Ownable.sol\":2161:2234  require(newOwner != address(0), \"Ownable: new owner is the zero address\") */\n      0x04\n      dup3\n      add\n        /* \"#utility.yul\":13334:13355   */\n      mstore\n        /* \"#utility.yul\":13391:13393   */\n      0x26\n        /* \"#utility.yul\":13371:13389   */\n      0x24\n      dup3\n      add\n        /* \"#utility.yul\":13364:13394   */\n      mstore\n        /* \"#utility.yul\":13430:13464   */\n      0x4f776e61626c653a206e6577206f776e657220697320746865207a65726f2061\n        /* \"#utility.yul\":13410:13428   */\n      0x44\n      dup3\n      add\n        /* \"#utility.yul\":13403:13465   */\n      mstore\n      shl(0xd0, 0x646472657373)\n        /* \"#utility.yul\":13481:13499   */\n      0x64\n      dup3\n      add\n        /* \"#utility.yul\":13474:13510   */\n      mstore\n        /* \"#utility.yul\":13527:13546   */\n      0x84\n      add\n        /* \"@openzeppelin/contracts/access/Ownable.sol\":2161:2234  require(newOwner != address(0), \"Ownable: new owner is the zero address\") */\n      tag_291\n        /* \"#utility.yul\":13150:13552   */\n      jump\n        /* \"@openzeppelin/contracts/access/Ownable.sol\":2161:2234  require(newOwner != address(0), \"Ownable: new owner is the zero address\") */\n    tag_389:\n        /* \"@openzeppelin/contracts/access/Ownable.sol\":2244:2272  _transferOwnership(newOwner) */\n      tag_275\n        /* \"@openzeppelin/contracts/access/Ownable.sol\":2263:2271  newOwner */\n      dup2\n        /* \"@openzeppelin/contracts/access/Ownable.sol\":2244:2262  _transferOwnership */\n      tag_335\n        /* \"@openzeppelin/contracts/access/Ownable.sol\":2244:2272  _transferOwnership(newOwner) */\n      jump\t// in\n        /* \"@openzeppelin/contracts/access/Ownable.sol\":1359:1489  function _checkOwner() internal view virtual {... */\n    tag_209:\n        /* \"@openzeppelin/contracts/access/Ownable.sol\":1273:1279  _owner */\n      and(sub(shl(0xa0, 0x01), 0x01), sload(0x08))\n        /* \"erc721a/contracts/ERC721A.sol\":39523:39533  msg.sender */\n      caller\n        /* \"@openzeppelin/contracts/access/Ownable.sol\":1422:1445  owner() == _msgSender() */\n      eq\n        /* \"@openzeppelin/contracts/access/Ownable.sol\":1414:1482  require(owner() == _msgSender(), \"Ownable: caller is not the owner\") */\n      tag_334\n      jumpi\n      mload(0x40)\n      shl(0xe5, 0x461bcd)\n      dup2\n      mstore\n        /* \"#utility.yul\":13759:13761   */\n      0x20\n        /* \"@openzeppelin/contracts/access/Ownable.sol\":1414:1482  require(owner() == _msgSender(), \"Ownable: caller is not the owner\") */\n      0x04\n      dup3\n      add\n        /* \"#utility.yul\":13741:13762   */\n      dup2\n      swap1\n      mstore\n        /* \"#utility.yul\":13778:13796   */\n      0x24\n      dup3\n      add\n        /* \"#utility.yul\":13771:13801   */\n      mstore\n        /* \"#utility.yul\":13837:13871   */\n      0x4f776e61626c653a2063616c6c6572206973206e6f7420746865206f776e6572\n        /* \"#utility.yul\":13817:13835   */\n      0x44\n      dup3\n      add\n        /* \"#utility.yul\":13810:13872   */\n      mstore\n        /* \"#utility.yul\":13889:13907   */\n      0x64\n      add\n        /* \"@openzeppelin/contracts/access/Ownable.sol\":1414:1482  require(owner() == _msgSender(), \"Ownable: caller is not the owner\") */\n      tag_291\n        /* \"#utility.yul\":13557:13913   */\n      jump\n        /* \"erc721a/contracts/ERC721A.sol\":17693:17970  function _exists(uint256 tokenId) internal view virtual returns (bool) {... */\n    tag_223:\n        /* \"erc721a/contracts/ERC721A.sol\":17758:17762  bool */\n      0x00\n        /* \"erc721a/contracts/ERC721A.sol\":17845:17858  _currentIndex */\n      dup1\n      sload\n        /* \"erc721a/contracts/ERC721A.sol\":17835:17842  tokenId */\n      dup3\n        /* \"erc721a/contracts/ERC721A.sol\":17835:17858  tokenId < _currentIndex */\n      lt\n        /* \"erc721a/contracts/ERC721A.sol\":17793:17944  _startTokenId() <= tokenId &&... */\n      dup1\n      iszero\n      tag_206\n      jumpi\n      pop\n      pop\n        /* \"erc721a/contracts/ERC721A.sol\":17895:17921  _packedOwnerships[tokenId] */\n      0x00\n      swap1\n      dup2\n      mstore\n        /* \"erc721a/contracts/ERC721A.sol\":17895:17912  _packedOwnerships */\n      0x04\n        /* \"erc721a/contracts/ERC721A.sol\":17895:17921  _packedOwnerships[tokenId] */\n      0x20\n      mstore\n      0x40\n      swap1\n      keccak256\n      sload\n      shl(0xe0, 0x01)\n        /* \"erc721a/contracts/ERC721A.sol\":17895:17939  _packedOwnerships[tokenId] & _BITMASK_BURNED */\n      and\n        /* \"erc721a/contracts/ERC721A.sol\":17895:17944  _packedOwnerships[tokenId] & _BITMASK_BURNED == 0 */\n      iszero\n      swap1\n        /* \"erc721a/contracts/ERC721A.sol\":17693:17970  function _exists(uint256 tokenId) internal view virtual returns (bool) {... */\n      jump\t// out\n        /* \"erc721a/contracts/ERC721A.sol\":12515:13764  function _packedOwnershipOf(uint256 tokenId) private view returns (uint256) {... */\n    tag_241:\n        /* \"erc721a/contracts/ERC721A.sol\":12582:12589  uint256 */\n      0x00\n        /* \"erc721a/contracts/ERC721A.sol\":12616:12623  tokenId */\n      dup2\n        /* \"erc721a/contracts/ERC721A.sol\":12714:12727  _currentIndex */\n      sload(0x00)\n        /* \"erc721a/contracts/ERC721A.sol\":12707:12711  curr */\n      dup2\n        /* \"erc721a/contracts/ERC721A.sol\":12707:12727  curr < _currentIndex */\n      lt\n        /* \"erc721a/contracts/ERC721A.sol\":12703:13700  if (curr < _currentIndex) {... */\n      iszero\n      tag_409\n      jumpi\n        /* \"erc721a/contracts/ERC721A.sol\":12751:12765  uint256 packed */\n      0x00\n        /* \"erc721a/contracts/ERC721A.sol\":12768:12791  _packedOwnerships[curr] */\n      dup2\n      dup2\n      mstore\n        /* \"erc721a/contracts/ERC721A.sol\":12768:12785  _packedOwnerships */\n      0x04\n        /* \"erc721a/contracts/ERC721A.sol\":12768:12791  _packedOwnerships[curr] */\n      0x20\n      mstore\n      0x40\n      dup2\n      keccak256\n      sload\n      swap1\n      shl(0xe0, 0x01)\n        /* \"erc721a/contracts/ERC721A.sol\":12855:12879  packed & _BITMASK_BURNED */\n      dup3\n      and\n        /* \"erc721a/contracts/ERC721A.sol\":12855:12884  packed & _BITMASK_BURNED == 0 */\n      swap1\n      sub\n        /* \"erc721a/contracts/ERC721A.sol\":12851:13682  if (packed & _BITMASK_BURNED == 0) {... */\n      tag_410\n      jumpi\n        /* \"erc721a/contracts/ERC721A.sol\":13510:13621  while (packed == 0) {... */\n    tag_411:\n        /* \"erc721a/contracts/ERC721A.sol\":13517:13523  packed */\n      dup1\n        /* \"erc721a/contracts/ERC721A.sol\":13527:13528  0 */\n      0x00\n        /* \"erc721a/contracts/ERC721A.sol\":13517:13528  packed == 0 */\n      sub\n        /* \"erc721a/contracts/ERC721A.sol\":13510:13621  while (packed == 0) {... */\n      tag_380\n      jumpi\n      pop\n      not(0x00)\n        /* \"erc721a/contracts/ERC721A.sol\":13587:13593  --curr */\n      add\n        /* \"erc721a/contracts/ERC721A.sol\":13569:13594  _packedOwnerships[--curr] */\n      0x00\n      dup2\n      dup2\n      mstore\n        /* \"erc721a/contracts/ERC721A.sol\":13569:13586  _packedOwnerships */\n      0x04\n        /* \"erc721a/contracts/ERC721A.sol\":13569:13594  _packedOwnerships[--curr] */\n      0x20\n      mstore\n      0x40\n      swap1\n      keccak256\n      sload\n        /* \"erc721a/contracts/ERC721A.sol\":13510:13621  while (packed == 0) {... */\n      jump(tag_411)\n        /* \"erc721a/contracts/ERC721A.sol\":12851:13682  if (packed & _BITMASK_BURNED == 0) {... */\n    tag_410:\n        /* \"erc721a/contracts/ERC721A.sol\":12729:13700  {... */\n      pop\n        /* \"erc721a/contracts/ERC721A.sol\":12703:13700  if (curr < _currentIndex) {... */\n    tag_409:\n        /* \"erc721a/contracts/ERC721A.sol\":13726:13757  OwnerQueryForNonexistentToken() */\n      mload(0x40)\n      shl(0xe1, 0x6f96cda1)\n      dup2\n      mstore\n      0x04\n      add\n      mload(0x40)\n      dup1\n      swap2\n      sub\n      swap1\n      revert\n        /* \"erc721a/contracts/ERC721A.sol\":33791:33878  function _burn(uint256 tokenId) internal virtual {... */\n    tag_283:\n        /* \"erc721a/contracts/ERC721A.sol\":33850:33871  _burn(tokenId, false) */\n      tag_275\n        /* \"erc721a/contracts/ERC721A.sol\":33856:33863  tokenId */\n      dup2\n        /* \"erc721a/contracts/ERC721A.sol\":33865:33870  false */\n      0x00\n        /* \"erc721a/contracts/ERC721A.sol\":33850:33855  _burn */\n      tag_423\n        /* \"erc721a/contracts/ERC721A.sol\":33850:33871  _burn(tokenId, false) */\n      jump\t// in\n        /* \"erc721a/contracts/ERC721A.sol\":27091:29993  function _mint(address to, uint256 quantity) internal virtual {... */\n    tag_288:\n        /* \"erc721a/contracts/ERC721A.sol\":27163:27183  uint256 startTokenId */\n      0x00\n        /* \"erc721a/contracts/ERC721A.sol\":27186:27199  _currentIndex */\n      dup1\n      sload\n      swap1\n        /* \"erc721a/contracts/ERC721A.sol\":27213:27226  quantity == 0 */\n      dup3\n      swap1\n      sub\n        /* \"erc721a/contracts/ERC721A.sol\":27209:27253  if (quantity == 0) revert MintZeroQuantity() */\n      tag_425\n      jumpi\n        /* \"erc721a/contracts/ERC721A.sol\":27235:27253  MintZeroQuantity() */\n      mload(0x40)\n      shl(0xe0, 0xb562e8dd)\n      dup2\n      mstore\n      0x04\n      add\n      mload(0x40)\n      dup1\n      swap2\n      sub\n      swap1\n      revert\n        /* \"erc721a/contracts/ERC721A.sol\":27209:27253  if (quantity == 0) revert MintZeroQuantity() */\n    tag_425:\n      sub(shl(0xa0, 0x01), 0x01)\n        /* \"erc721a/contracts/ERC721A.sol\":27728:27750  _packedAddressData[to] */\n      dup4\n      and\n      0x00\n      dup2\n      dup2\n      mstore\n        /* \"erc721a/contracts/ERC721A.sol\":27728:27746  _packedAddressData */\n      0x05\n        /* \"erc721a/contracts/ERC721A.sol\":27728:27750  _packedAddressData[to] */\n      0x20\n      swap1\n      dup2\n      mstore\n        /* \"erc721a/contracts/ERC721A.sol\":1495:1497  64 */\n      0x40\n        /* \"erc721a/contracts/ERC721A.sol\":27728:27750  _packedAddressData[to] */\n      dup1\n      dup4\n      keccak256\n        /* \"erc721a/contracts/ERC721A.sol\":27728:27799  _packedAddressData[to] += quantity * ((1 << _BITPOS_NUMBER_MINTED) | 1) */\n      dup1\n      sload\n        /* \"erc721a/contracts/ERC721A.sol\":27766:27798  (1 << _BITPOS_NUMBER_MINTED) | 1 */\n      0x010000000000000001\n        /* \"erc721a/contracts/ERC721A.sol\":27754:27799  quantity * ((1 << _BITPOS_NUMBER_MINTED) | 1) */\n      dup9\n      mul\n        /* \"erc721a/contracts/ERC721A.sol\":27728:27799  _packedAddressData[to] += quantity * ((1 << _BITPOS_NUMBER_MINTED) | 1) */\n      add\n      swap1\n      sstore\n        /* \"erc721a/contracts/ERC721A.sol\":28035:28066  _packedOwnerships[startTokenId] */\n      dup5\n      dup4\n      mstore\n        /* \"erc721a/contracts/ERC721A.sol\":28035:28052  _packedOwnerships */\n      0x04\n        /* \"erc721a/contracts/ERC721A.sol\":28035:28066  _packedOwnerships[startTokenId] */\n      swap1\n      swap2\n      mstore\n      dup2\n      keccak256\n      0x01\n        /* \"erc721a/contracts/ERC721A.sol\":15123:15138  eq(quantity, 1) */\n      dup6\n      eq\n        /* \"erc721a/contracts/ERC721A.sol\":15097:15121  _BITPOS_NEXT_INITIALIZED */\n      0xe1\n        /* \"erc721a/contracts/ERC721A.sol\":15093:15139  shl(_BITPOS_NEXT_INITIALIZED, eq(quantity, 1)) */\n      shl\n        /* \"erc721a/contracts/ERC721A.sol\":14703:14714  timestamp() */\n      timestamp\n        /* \"erc721a/contracts/ERC721A.sol\":14678:14701  _BITPOS_START_TIMESTAMP */\n      0xa0\n        /* \"erc721a/contracts/ERC721A.sol\":14674:14715  shl(_BITPOS_START_TIMESTAMP, timestamp()) */\n      shl\n        /* \"erc721a/contracts/ERC721A.sol\":14671:14723  or(shl(_BITPOS_START_TIMESTAMP, timestamp()), flags) */\n      or\n        /* \"erc721a/contracts/ERC721A.sol\":14661:14724  or(owner, or(shl(_BITPOS_START_TIMESTAMP, timestamp()), flags)) */\n      dup4\n      or\n        /* \"erc721a/contracts/ERC721A.sol\":28035:28205  _packedOwnerships[startTokenId] = _packOwnershipData(... */\n      swap1\n      sstore\n        /* \"erc721a/contracts/ERC721A.sol\":28264:28287  startTokenId + quantity */\n      dup3\n      dup5\n      add\n      swap1\n        /* \"erc721a/contracts/ERC721A.sol\":28035:28066  _packedOwnerships[startTokenId] */\n      dup4\n      swap1\n        /* \"erc721a/contracts/ERC721A.sol\":27728:27750  _packedAddressData[to] */\n      dup4\n      swap1\n      0x00\n      dup1\n      mload\n      0x20\n      data_ada389e1fc24a8587c776340efb91b36e675792ab631816100d55df0b5cf3cbc\n      dup4\n      codecopy\n      dup2\n      mload\n      swap2\n      mstore\n      dup2\n      dup1\n        /* \"erc721a/contracts/ERC721A.sol\":28872:29200  log4(... */\n      log4\n        /* \"erc721a/contracts/ERC721A.sol\":29520:29521  1 */\n      0x01\n        /* \"erc721a/contracts/ERC721A.sol\":29506:29518  startTokenId */\n      dup4\n        /* \"erc721a/contracts/ERC721A.sol\":29502:29522  add(startTokenId, 1) */\n      add\n        /* \"erc721a/contracts/ERC721A.sol\":29461:29800  for {... */\n    tag_431:\n        /* \"erc721a/contracts/ERC721A.sol\":29560:29563  end */\n      dup2\n        /* \"erc721a/contracts/ERC721A.sol\":29551:29558  tokenId */\n      dup2\n        /* \"erc721a/contracts/ERC721A.sol\":29548:29564  eq(tokenId, end) */\n      eq\n        /* \"erc721a/contracts/ERC721A.sol\":29461:29800  for {... */\n      tag_433\n      jumpi\n        /* \"erc721a/contracts/ERC721A.sol\":29774:29781  tokenId */\n      dup1\n        /* \"erc721a/contracts/ERC721A.sol\":29764:29772  toMasked */\n      dup4\n        /* \"erc721a/contracts/ERC721A.sol\":29761:29762  0 */\n      0x00\n      0x00\n      dup1\n      mload\n      0x20\n      data_ada389e1fc24a8587c776340efb91b36e675792ab631816100d55df0b5cf3cbc\n      dup4\n      codecopy\n      dup2\n      mload\n      swap2\n      mstore\n        /* \"erc721a/contracts/ERC721A.sol\":29731:29732  0 */\n      0x00\n        /* \"erc721a/contracts/ERC721A.sol\":29728:29729  0 */\n      dup1\n        /* \"erc721a/contracts/ERC721A.sol\":29723:29782  log4(0, 0, _TRANSFER_EVENT_SIGNATURE, 0, toMasked, tokenId) */\n      log4\n        /* \"erc721a/contracts/ERC721A.sol\":29612:29613  1 */\n      0x01\n        /* \"erc721a/contracts/ERC721A.sol\":29599:29614  add(tokenId, 1) */\n      add\n        /* \"erc721a/contracts/ERC721A.sol\":29461:29800  for {... */\n      jump(tag_431)\n    tag_433:\n        /* \"erc721a/contracts/ERC721A.sol\":29465:29540  {... */\n      pop\n        /* \"erc721a/contracts/ERC721A.sol\":29831:29839  toMasked */\n      dup2\n        /* \"erc721a/contracts/ERC721A.sol\":29843:29844  0 */\n      0x00\n        /* \"erc721a/contracts/ERC721A.sol\":29831:29844  toMasked == 0 */\n      sub\n        /* \"erc721a/contracts/ERC721A.sol\":29827:29872  if (toMasked == 0) revert MintToZeroAddress() */\n      tag_434\n      jumpi\n        /* \"erc721a/contracts/ERC721A.sol\":29853:29872  MintToZeroAddress() */\n      mload(0x40)\n      shl(0xe8, 0x2e0763)\n      dup2\n      mstore\n      0x04\n      add\n      mload(0x40)\n      dup1\n      swap2\n      sub\n      swap1\n      revert\n        /* \"erc721a/contracts/ERC721A.sol\":29827:29872  if (toMasked == 0) revert MintToZeroAddress() */\n    tag_434:\n        /* \"erc721a/contracts/ERC721A.sol\":29887:29900  _currentIndex */\n      0x00\n        /* \"erc721a/contracts/ERC721A.sol\":29887:29906  _currentIndex = end */\n      sstore\n      pop\n        /* \"erc721a/contracts/ERC721A.sol\":22758:22945  function safeTransferFrom(... */\n      pop\n      pop\n      pop\n      jump\t// out\n        /* \"@openzeppelin/contracts/access/Ownable.sol\":2433:2620  function _transferOwnership(address newOwner) internal virtual {... */\n    tag_335:\n        /* \"@openzeppelin/contracts/access/Ownable.sol\":2525:2531  _owner */\n      0x08\n      dup1\n      sload\n      sub(shl(0xa0, 0x01), 0x01)\n        /* \"@openzeppelin/contracts/access/Ownable.sol\":2541:2558  _owner = newOwner */\n      dup4\n      dup2\n      and\n      not(sub(shl(0xa0, 0x01), 0x01))\n      dup4\n      and\n      dup2\n      or\n      swap1\n      swap4\n      sstore\n        /* \"@openzeppelin/contracts/access/Ownable.sol\":2573:2613  OwnershipTransferred(oldOwner, newOwner) */\n      mload(0x40)\n        /* \"@openzeppelin/contracts/access/Ownable.sol\":2525:2531  _owner */\n      swap2\n      and\n      swap2\n        /* \"@openzeppelin/contracts/access/Ownable.sol\":2541:2558  _owner = newOwner */\n      swap1\n        /* \"@openzeppelin/contracts/access/Ownable.sol\":2525:2531  _owner */\n      dup3\n      swap1\n        /* \"@openzeppelin/contracts/access/Ownable.sol\":2573:2613  OwnershipTransferred(oldOwner, newOwner) */\n      0x8be0079c531659141344cd1fd0a4f28419497f9722a3daafe3b4186f6b6457e0\n      swap1\n        /* \"@openzeppelin/contracts/access/Ownable.sol\":2506:2522  address oldOwner */\n      0x00\n      swap1\n        /* \"@openzeppelin/contracts/access/Ownable.sol\":2573:2613  OwnershipTransferred(oldOwner, newOwner) */\n      log3\n        /* \"@openzeppelin/contracts/access/Ownable.sol\":2496:2620  {... */\n      pop\n        /* \"@openzeppelin/contracts/access/Ownable.sol\":2433:2620  function _transferOwnership(address newOwner) internal virtual {... */\n      pop\n      jump\t// out\n        /* \"@openzeppelin/contracts/utils/cryptography/ECDSA.sol\":3661:3888  function recover(bytes32 hash, bytes memory signature) internal pure returns (address) {... */\n    tag_343:\n        /* \"@openzeppelin/contracts/utils/cryptography/ECDSA.sol\":3739:3746  address */\n      0x00\n        /* \"@openzeppelin/contracts/utils/cryptography/ECDSA.sol\":3759:3776  address recovered */\n      dup1\n        /* \"@openzeppelin/contracts/utils/cryptography/ECDSA.sol\":3778:3796  RecoverError error */\n      0x00\n        /* \"@openzeppelin/contracts/utils/cryptography/ECDSA.sol\":3800:3827  tryRecover(hash, signature) */\n      tag_441\n        /* \"@openzeppelin/contracts/utils/cryptography/ECDSA.sol\":3811:3815  hash */\n      dup6\n        /* \"@openzeppelin/contracts/utils/cryptography/ECDSA.sol\":3817:3826  signature */\n      dup6\n        /* \"@openzeppelin/contracts/utils/cryptography/ECDSA.sol\":3800:3810  tryRecover */\n      tag_442\n        /* \"@openzeppelin/contracts/utils/cryptography/ECDSA.sol\":3800:3827  tryRecover(hash, signature) */\n      jump\t// in\n    tag_441:\n        /* \"@openzeppelin/contracts/utils/cryptography/ECDSA.sol\":3758:3827  (address recovered, RecoverError error) = tryRecover(hash, signature) */\n      swap2\n      pop\n      swap2\n      pop\n        /* \"@openzeppelin/contracts/utils/cryptography/ECDSA.sol\":3837:3855  _throwError(error) */\n      tag_443\n        /* \"@openzeppelin/contracts/utils/cryptography/ECDSA.sol\":3849:3854  error */\n      dup2\n        /* \"@openzeppelin/contracts/utils/cryptography/ECDSA.sol\":3837:3848  _throwError */\n      tag_444\n        /* \"@openzeppelin/contracts/utils/cryptography/ECDSA.sol\":3837:3855  _throwError(error) */\n      jump\t// in\n    tag_443:\n      pop\n        /* \"@openzeppelin/contracts/utils/cryptography/ECDSA.sol\":3872:3881  recovered */\n      swap4\n        /* \"@openzeppelin/contracts/utils/cryptography/ECDSA.sol\":3661:3888  function recover(bytes32 hash, bytes memory signature) internal pure returns (address) {... */\n      swap3\n      pop\n      pop\n      pop\n      jump\t// out\n        /* \"erc721a/contracts/ERC721A.sol\":25948:26645  function _checkContractOnERC721Received(... */\n    tag_366:\n        /* \"erc721a/contracts/ERC721A.sol\":26126:26214  ERC721A__IERC721Receiver(to).onERC721Received(_msgSenderERC721A(), from, tokenId, _data) */\n      mload(0x40)\n      shl(0xe1, 0x0a85bd01)\n      dup2\n      mstore\n        /* \"erc721a/contracts/ERC721A.sol\":26106:26110  bool */\n      0x00\n      swap1\n      sub(shl(0xa0, 0x01), 0x01)\n        /* \"erc721a/contracts/ERC721A.sol\":26126:26171  ERC721A__IERC721Receiver(to).onERC721Received */\n      dup6\n      and\n      swap1\n      0x150b7a02\n      swap1\n        /* \"erc721a/contracts/ERC721A.sol\":26126:26214  ERC721A__IERC721Receiver(to).onERC721Received(_msgSenderERC721A(), from, tokenId, _data) */\n      tag_447\n      swap1\n        /* \"erc721a/contracts/ERC721A.sol\":39523:39533  msg.sender */\n      caller\n      swap1\n        /* \"erc721a/contracts/ERC721A.sol\":26193:26197  from */\n      dup10\n      swap1\n        /* \"erc721a/contracts/ERC721A.sol\":26199:26206  tokenId */\n      dup9\n      swap1\n        /* \"erc721a/contracts/ERC721A.sol\":26208:26213  _data */\n      dup9\n      swap1\n        /* \"erc721a/contracts/ERC721A.sol\":26126:26214  ERC721A__IERC721Receiver(to).onERC721Received(_msgSenderERC721A(), from, tokenId, _data) */\n      0x04\n      add\n      tag_448\n      jump\t// in\n    tag_447:\n      0x20\n      mload(0x40)\n      dup1\n      dup4\n      sub\n      dup2\n      0x00\n      dup8\n      gas\n      call\n      swap3\n      pop\n      pop\n      pop\n      dup1\n      iszero\n      tag_449\n      jumpi\n      pop\n      0x40\n      dup1\n      mload\n      0x1f\n      returndatasize\n      swap1\n      dup2\n      add\n      not(0x1f)\n      and\n      dup3\n      add\n      swap1\n      swap3\n      mstore\n      tag_450\n      swap2\n      dup2\n      add\n      swap1\n      tag_451\n      jump\t// in\n    tag_450:\n      0x01\n    tag_449:\n        /* \"erc721a/contracts/ERC721A.sol\":26122:26639  try ERC721A__IERC721Receiver(to).onERC721Received(_msgSenderERC721A(), from, tokenId, _data) returns (... */\n      tag_452\n      jumpi\n      returndatasize\n      dup1\n      dup1\n      iszero\n      tag_457\n      jumpi\n      mload(0x40)\n      swap2\n      pop\n      and(add(returndatasize, 0x3f), not(0x1f))\n      dup3\n      add\n      0x40\n      mstore\n      returndatasize\n      dup3\n      mstore\n      returndatasize\n      0x00\n      0x20\n      dup5\n      add\n      returndatacopy\n      jump(tag_456)\n    tag_457:\n      0x60\n      swap2\n      pop\n    tag_456:\n      pop\n        /* \"erc721a/contracts/ERC721A.sol\":26404:26410  reason */\n      dup1\n        /* \"erc721a/contracts/ERC721A.sol\":26404:26417  reason.length */\n      mload\n        /* \"erc721a/contracts/ERC721A.sol\":26421:26422  0 */\n      0x00\n        /* \"erc721a/contracts/ERC721A.sol\":26404:26422  reason.length == 0 */\n      sub\n        /* \"erc721a/contracts/ERC721A.sol\":26400:26629  if (reason.length == 0) {... */\n      tag_458\n      jumpi\n        /* \"erc721a/contracts/ERC721A.sol\":26449:26489  TransferToNonERC721ReceiverImplementer() */\n      mload(0x40)\n      shl(0xe1, 0x68d2bf6b)\n      dup2\n      mstore\n      0x04\n      add\n      mload(0x40)\n      dup1\n      swap2\n      sub\n      swap1\n      revert\n        /* \"erc721a/contracts/ERC721A.sol\":26400:26629  if (reason.length == 0) {... */\n    tag_458:\n        /* \"erc721a/contracts/ERC721A.sol\":26589:26595  reason */\n      dup1\n        /* \"erc721a/contracts/ERC721A.sol\":26583:26596  mload(reason) */\n      mload\n        /* \"erc721a/contracts/ERC721A.sol\":26574:26580  reason */\n      dup2\n        /* \"erc721a/contracts/ERC721A.sol\":26570:26572  32 */\n      0x20\n        /* \"erc721a/contracts/ERC721A.sol\":26566:26581  add(32, reason) */\n      add\n        /* \"erc721a/contracts/ERC721A.sol\":26559:26597  revert(add(32, reason), mload(reason)) */\n      revert\n        /* \"erc721a/contracts/ERC721A.sol\":26122:26639  try ERC721A__IERC721Receiver(to).onERC721Received(_msgSenderERC721A(), from, tokenId, _data) returns (... */\n    tag_452:\n      not(sub(shl(0xe0, 0x01), 0x01))\n        /* \"erc721a/contracts/ERC721A.sol\":26282:26346  retval == ERC721A__IERC721Receiver(to).onERC721Received.selector */\n      and\n      shl(0xe1, 0x0a85bd01)\n      eq\n      swap1\n      pop\n        /* \"erc721a/contracts/ERC721A.sol\":26122:26639  try ERC721A__IERC721Receiver(to).onERC721Received(_msgSenderERC721A(), from, tokenId, _data) returns (... */\n    tag_460:\n        /* \"erc721a/contracts/ERC721A.sol\":25948:26645  function _checkContractOnERC721Received(... */\n      swap5\n      swap4\n      pop\n      pop\n      pop\n      pop\n      jump\t// out\n        /* \"contracts/WOM_LAND.sol\":1910:2016  function _baseURI() internal view virtual override returns (string memory) {... */\n    tag_378:\n        /* \"contracts/WOM_LAND.sol\":1970:1983  string memory */\n      0x60\n        /* \"contracts/WOM_LAND.sol\":2002:2009  baseURI */\n      0x09\n        /* \"contracts/WOM_LAND.sol\":1995:2009  return baseURI */\n      dup1\n      sload\n      tag_215\n      swap1\n      tag_216\n      jump\t// in\n        /* \"erc721a/contracts/ERC721A.sol\":39637:41345  function _toString(uint256 value) internal pure virtual returns (string memory str) {... */\n    tag_382:\n        /* \"erc721a/contracts/ERC721A.sol\":39702:39719  string memory str */\n      0x60\n        /* \"erc721a/contracts/ERC721A.sol\":40130:40134  0xa0 */\n      0xa0\n        /* \"erc721a/contracts/ERC721A.sol\":40123:40127  0x40 */\n      0x40\n        /* \"erc721a/contracts/ERC721A.sol\":40117:40128  mload(0x40) */\n      mload\n        /* \"erc721a/contracts/ERC721A.sol\":40113:40135  add(mload(0x40), 0xa0) */\n      add\n        /* \"erc721a/contracts/ERC721A.sol\":40220:40221  m */\n      dup1\n        /* \"erc721a/contracts/ERC721A.sol\":40214:40218  0x40 */\n      0x40\n        /* \"erc721a/contracts/ERC721A.sol\":40207:40222  mstore(0x40, m) */\n      mstore\n        /* \"erc721a/contracts/ERC721A.sol\":40293:40297  0x20 */\n      0x20\n        /* \"erc721a/contracts/ERC721A.sol\":40290:40291  m */\n      dup2\n        /* \"erc721a/contracts/ERC721A.sol\":40286:40298  sub(m, 0x20) */\n      sub\n        /* \"erc721a/contracts/ERC721A.sol\":40279:40298  str := sub(m, 0x20) */\n      swap2\n      pop\n      pop\n        /* \"erc721a/contracts/ERC721A.sol\":40373:40374  0 */\n      0x00\n        /* \"erc721a/contracts/ERC721A.sol\":40368:40371  str */\n      dup2\n        /* \"erc721a/contracts/ERC721A.sol\":40361:40375  mstore(str, 0) */\n      mstore\n        /* \"erc721a/contracts/ERC721A.sol\":40474:40477  str */\n      dup1\n        /* \"erc721a/contracts/ERC721A.sol\":40708:40713  value */\n      dup3\n        /* \"erc721a/contracts/ERC721A.sol\":40690:41109  for { let temp := value } 1 {} {... */\n    tag_468:\n        /* \"erc721a/contracts/ERC721A.sol\":40755:40756  1 */\n      0x01\n        /* \"erc721a/contracts/ERC721A.sol\":40750:40753  str */\n      dup4\n        /* \"erc721a/contracts/ERC721A.sol\":40746:40757  sub(str, 1) */\n      sub\n        /* \"erc721a/contracts/ERC721A.sol\":40739:40757  str := sub(str, 1) */\n      swap3\n      pop\n        /* \"erc721a/contracts/ERC721A.sol\":40923:40925  10 */\n      0x0a\n        /* \"erc721a/contracts/ERC721A.sol\":40917:40921  temp */\n      dup2\n        /* \"erc721a/contracts/ERC721A.sol\":40913:40926  mod(temp, 10) */\n      mod\n        /* \"erc721a/contracts/ERC721A.sol\":40909:40911  48 */\n      0x30\n        /* \"erc721a/contracts/ERC721A.sol\":40905:40927  add(48, mod(temp, 10)) */\n      add\n        /* \"erc721a/contracts/ERC721A.sol\":40900:40903  str */\n      dup4\n        /* \"erc721a/contracts/ERC721A.sol\":40892:40928  mstore8(str, add(48, mod(temp, 10))) */\n      mstore8\n        /* \"erc721a/contracts/ERC721A.sol\":41015:41017  10 */\n      0x0a\n        /* \"erc721a/contracts/ERC721A.sol\":41005:41018  div(temp, 10) */\n      swap1\n      div\n        /* \"erc721a/contracts/ERC721A.sol\":41070:41095  if iszero(temp) { break } */\n      dup1\n        /* \"erc721a/contracts/ERC721A.sol\":40690:41109  for { let temp := value } 1 {} {... */\n      tag_468\n        /* \"erc721a/contracts/ERC721A.sol\":41070:41095  if iszero(temp) { break } */\n      jumpi\n      pop\n        /* \"erc721a/contracts/ERC721A.sol\":41137:41150  sub(end, str) */\n      dup2\n      swap1\n      sub\n      not(0x1f)\n        /* \"erc721a/contracts/ERC721A.sol\":41250:41264  sub(str, 0x20) */\n      swap1\n      swap2\n      add\n        /* \"erc721a/contracts/ERC721A.sol\":41310:41329  mstore(str, length) */\n      swap1\n      dup2\n      mstore\n        /* \"erc721a/contracts/ERC721A.sol\":41250:41264  sub(str, 0x20) */\n      swap2\n        /* \"erc721a/contracts/ERC721A.sol\":39637:41345  function _toString(uint256 value) internal pure virtual returns (string memory str) {... */\n      swap1\n      pop\n      jump\t// out\n        /* \"erc721a/contracts/ERC721A.sol\":34095:37110  function _burn(uint256 tokenId, bool approvalCheck) internal virtual {... */\n    tag_423:\n        /* \"erc721a/contracts/ERC721A.sol\":34174:34201  uint256 prevOwnershipPacked */\n      0x00\n        /* \"erc721a/contracts/ERC721A.sol\":34204:34231  _packedOwnershipOf(tokenId) */\n      tag_475\n        /* \"erc721a/contracts/ERC721A.sol\":34223:34230  tokenId */\n      dup4\n        /* \"erc721a/contracts/ERC721A.sol\":34204:34222  _packedOwnershipOf */\n      tag_241\n        /* \"erc721a/contracts/ERC721A.sol\":34204:34231  _packedOwnershipOf(tokenId) */\n      jump\t// in\n    tag_475:\n        /* \"erc721a/contracts/ERC721A.sol\":34174:34231  uint256 prevOwnershipPacked = _packedOwnershipOf(tokenId) */\n      swap1\n      pop\n      dup1\n        /* \"erc721a/contracts/ERC721A.sol\":34242:34254  address from */\n      0x00\n      dup1\n        /* \"erc721a/contracts/ERC721A.sol\":34362:34397  _getApprovedSlotAndAddress(tokenId) */\n      tag_476\n        /* \"erc721a/contracts/ERC721A.sol\":34389:34396  tokenId */\n      dup7\n        /* \"erc721a/contracts/ERC721A.sol\":18927:18954  uint256 approvedAddressSlot */\n      0x00\n        /* \"erc721a/contracts/ERC721A.sol\":19036:19060  _tokenApprovals[tokenId] */\n      swap1\n      dup2\n      mstore\n        /* \"erc721a/contracts/ERC721A.sol\":19036:19051  _tokenApprovals */\n      0x06\n        /* \"erc721a/contracts/ERC721A.sol\":19036:19060  _tokenApprovals[tokenId] */\n      0x20\n      mstore\n      0x40\n      swap1\n      keccak256\n        /* \"erc721a/contracts/ERC721A.sol\":19260:19286  sload(approvedAddressSlot) */\n      dup1\n      sload\n        /* \"erc721a/contracts/ERC721A.sol\":19036:19060  _tokenApprovals[tokenId] */\n      swap1\n      swap2\n        /* \"erc721a/contracts/ERC721A.sol\":18828:19302  function _getApprovedSlotAndAddress(uint256 tokenId)... */\n      jump\n        /* \"erc721a/contracts/ERC721A.sol\":34362:34397  _getApprovedSlotAndAddress(tokenId) */\n    tag_476:\n        /* \"erc721a/contracts/ERC721A.sol\":34305:34397  (uint256 approvedAddressSlot, address approvedAddress) = _getApprovedSlotAndAddress(tokenId) */\n      swap2\n      pop\n      swap2\n      pop\n        /* \"erc721a/contracts/ERC721A.sol\":34412:34425  approvalCheck */\n      dup5\n        /* \"erc721a/contracts/ERC721A.sol\":34408:34720  if (approvalCheck) {... */\n      iszero\n      tag_483\n      jumpi\n        /* \"erc721a/contracts/ERC721A.sol\":34531:34599  _isSenderApprovedOrOwner(approvedAddress, from, _msgSenderERC721A()) */\n      tag_478\n        /* \"erc721a/contracts/ERC721A.sol\":34556:34571  approvedAddress */\n      dup2\n        /* \"erc721a/contracts/ERC721A.sol\":34573:34577  from */\n      dup5\n        /* \"erc721a/contracts/ERC721A.sol\":39523:39533  msg.sender */\n      caller\n        /* \"erc721a/contracts/ERC721A.sol\":34579:34598  _msgSenderERC721A() */\n      tag_246\n        /* \"erc721a/contracts/ERC721A.sol\":39437:39540  function _msgSenderERC721A() internal view virtual returns (address) {... */\n      jump\n        /* \"erc721a/contracts/ERC721A.sol\":34531:34599  _isSenderApprovedOrOwner(approvedAddress, from, _msgSenderERC721A()) */\n    tag_478:\n        /* \"erc721a/contracts/ERC721A.sol\":34526:34709  if (!_isSenderApprovedOrOwner(approvedAddress, from, _msgSenderERC721A()))... */\n      tag_483\n      jumpi\n        /* \"erc721a/contracts/ERC721A.sol\":34622:34665  isApprovedForAll(from, _msgSenderERC721A()) */\n      tag_481\n        /* \"erc721a/contracts/ERC721A.sol\":34639:34643  from */\n      dup4\n        /* \"erc721a/contracts/ERC721A.sol\":39523:39533  msg.sender */\n      caller\n        /* \"erc721a/contracts/ERC721A.sol\":17282:17444  function isApprovedForAll(address owner, address operator) public view virtual override returns (bool) {... */\n      tag_198\n      jump\t// in\n        /* \"erc721a/contracts/ERC721A.sol\":34622:34665  isApprovedForAll(from, _msgSenderERC721A()) */\n    tag_481:\n        /* \"erc721a/contracts/ERC721A.sol\":34617:34709  if (!isApprovedForAll(from, _msgSenderERC721A())) revert TransferCallerNotOwnerNorApproved() */\n      tag_483\n      jumpi\n        /* \"erc721a/contracts/ERC721A.sol\":34674:34709  TransferCallerNotOwnerNorApproved() */\n      mload(0x40)\n      shl(0xe1, 0x2ce44b5f)\n      dup2\n      mstore\n      0x04\n      add\n      mload(0x40)\n      dup1\n      swap2\n      sub\n      swap1\n      revert\n        /* \"erc721a/contracts/ERC721A.sol\":34617:34709  if (!isApprovedForAll(from, _msgSenderERC721A())) revert TransferCallerNotOwnerNorApproved() */\n    tag_483:\n        /* \"erc721a/contracts/ERC721A.sol\":34870:34885  approvedAddress */\n      dup1\n        /* \"erc721a/contracts/ERC721A.sol\":34867:35024  if approvedAddress {... */\n      iszero\n      tag_485\n      jumpi\n        /* \"erc721a/contracts/ERC721A.sol\":35008:35009  0 */\n      0x00\n        /* \"erc721a/contracts/ERC721A.sol\":34987:35006  approvedAddressSlot */\n      dup3\n        /* \"erc721a/contracts/ERC721A.sol\":34980:35010  sstore(approvedAddressSlot, 0) */\n      sstore\n        /* \"erc721a/contracts/ERC721A.sol\":34867:35024  if approvedAddress {... */\n    tag_485:\n      sub(shl(0xa0, 0x01), 0x01)\n        /* \"erc721a/contracts/ERC721A.sol\":35613:35637  _packedAddressData[from] */\n      dup4\n      and\n      0x00\n      dup2\n      dup2\n      mstore\n        /* \"erc721a/contracts/ERC721A.sol\":35613:35631  _packedAddressData */\n      0x05\n        /* \"erc721a/contracts/ERC721A.sol\":35613:35637  _packedAddressData[from] */\n      0x20\n      mstore\n      0x40\n      swap1\n      keccak256\n        /* \"erc721a/contracts/ERC721A.sol\":35613:35673  _packedAddressData[from] += (1 << _BITPOS_NUMBER_BURNED) - 1 */\n      dup1\n      sload\n        /* \"erc721a/contracts/ERC721A.sol\":35641:35673  (1 << _BITPOS_NUMBER_BURNED) - 1 */\n      0xffffffffffffffffffffffffffffffff\n        /* \"erc721a/contracts/ERC721A.sol\":35613:35673  _packedAddressData[from] += (1 << _BITPOS_NUMBER_BURNED) - 1 */\n      add\n      swap1\n      sstore\n        /* \"erc721a/contracts/ERC721A.sol\":14703:14714  timestamp() */\n      timestamp\n        /* \"erc721a/contracts/ERC721A.sol\":14678:14701  _BITPOS_START_TIMESTAMP */\n      0xa0\n        /* \"erc721a/contracts/ERC721A.sol\":14674:14715  shl(_BITPOS_START_TIMESTAMP, timestamp()) */\n      shl\n        /* \"erc721a/contracts/ERC721A.sol\":14661:14724  or(owner, or(shl(_BITPOS_START_TIMESTAMP, timestamp()), flags)) */\n      or\n      shl(0xe0, 0x03)\n      or\n        /* \"erc721a/contracts/ERC721A.sol\":35904:35930  _packedOwnerships[tokenId] */\n      0x00\n      dup8\n      dup2\n      mstore\n        /* \"erc721a/contracts/ERC721A.sol\":35904:35921  _packedOwnerships */\n      0x04\n        /* \"erc721a/contracts/ERC721A.sol\":35904:35930  _packedOwnerships[tokenId] */\n      0x20\n      mstore\n      0x40\n      dup2\n      keccak256\n        /* \"erc721a/contracts/ERC721A.sol\":35904:36106  _packedOwnerships[tokenId] = _packOwnershipData(... */\n      swap2\n      swap1\n      swap2\n      sstore\n      shl(0xe1, 0x01)\n        /* \"erc721a/contracts/ERC721A.sol\":36223:36270  prevOwnershipPacked & _BITMASK_NEXT_INITIALIZED */\n      dup6\n      and\n        /* \"erc721a/contracts/ERC721A.sol\":36223:36275  prevOwnershipPacked & _BITMASK_NEXT_INITIALIZED == 0 */\n      swap1\n      sub\n        /* \"erc721a/contracts/ERC721A.sol\":36219:36836  if (prevOwnershipPacked & _BITMASK_NEXT_INITIALIZED == 0) {... */\n      tag_488\n      jumpi\n        /* \"erc721a/contracts/ERC721A.sol\":36327:36328  1 */\n      0x01\n        /* \"erc721a/contracts/ERC721A.sol\":36317:36328  tokenId + 1 */\n      dup7\n      add\n        /* \"erc721a/contracts/ERC721A.sol\":36295:36314  uint256 nextTokenId */\n      0x00\n        /* \"erc721a/contracts/ERC721A.sol\":36448:36478  _packedOwnerships[nextTokenId] */\n      dup2\n      dup2\n      mstore\n        /* \"erc721a/contracts/ERC721A.sol\":36448:36465  _packedOwnerships */\n      0x04\n        /* \"erc721a/contracts/ERC721A.sol\":36448:36478  _packedOwnerships[nextTokenId] */\n      0x20\n      mstore\n      0x40\n      dup2\n      keccak256\n      sload\n        /* \"erc721a/contracts/ERC721A.sol\":36448:36483  _packedOwnerships[nextTokenId] == 0 */\n      swap1\n      sub\n        /* \"erc721a/contracts/ERC721A.sol\":36444:36822  if (_packedOwnerships[nextTokenId] == 0) {... */\n      tag_490\n      jumpi\n        /* \"erc721a/contracts/ERC721A.sol\":36584:36597  _currentIndex */\n      sload(0x00)\n        /* \"erc721a/contracts/ERC721A.sol\":36569:36580  nextTokenId */\n      dup2\n        /* \"erc721a/contracts/ERC721A.sol\":36569:36597  nextTokenId != _currentIndex */\n      eq\n        /* \"erc721a/contracts/ERC721A.sol\":36565:36804  if (nextTokenId != _currentIndex) {... */\n      tag_490\n      jumpi\n        /* \"erc721a/contracts/ERC721A.sol\":36729:36759  _packedOwnerships[nextTokenId] */\n      0x00\n      dup2\n      dup2\n      mstore\n        /* \"erc721a/contracts/ERC721A.sol\":36729:36746  _packedOwnerships */\n      0x04\n        /* \"erc721a/contracts/ERC721A.sol\":36729:36759  _packedOwnerships[nextTokenId] */\n      0x20\n      mstore\n      0x40\n      swap1\n      keccak256\n        /* \"erc721a/contracts/ERC721A.sol\":36729:36781  _packedOwnerships[nextTokenId] = prevOwnershipPacked */\n      dup6\n      swap1\n      sstore\n        /* \"erc721a/contracts/ERC721A.sol\":36565:36804  if (nextTokenId != _currentIndex) {... */\n    tag_490:\n        /* \"erc721a/contracts/ERC721A.sol\":36277:36836  {... */\n      pop\n        /* \"erc721a/contracts/ERC721A.sol\":36219:36836  if (prevOwnershipPacked & _BITMASK_NEXT_INITIALIZED == 0) {... */\n    tag_488:\n        /* \"erc721a/contracts/ERC721A.sol\":36861:36896  Transfer(from, address(0), tokenId) */\n      mload(0x40)\n        /* \"erc721a/contracts/ERC721A.sol\":36888:36895  tokenId */\n      dup7\n      swap1\n        /* \"erc721a/contracts/ERC721A.sol\":36884:36885  0 */\n      0x00\n      swap1\n      sub(shl(0xa0, 0x01), 0x01)\n        /* \"erc721a/contracts/ERC721A.sol\":36861:36896  Transfer(from, address(0), tokenId) */\n      dup7\n      and\n      swap1\n      0x00\n      dup1\n      mload\n      0x20\n      data_ada389e1fc24a8587c776340efb91b36e675792ab631816100d55df0b5cf3cbc\n      dup4\n      codecopy\n      dup2\n      mload\n      swap2\n      mstore\n      swap1\n        /* \"erc721a/contracts/ERC721A.sol\":36884:36885  0 */\n      dup4\n      swap1\n        /* \"erc721a/contracts/ERC721A.sol\":36861:36896  Transfer(from, address(0), tokenId) */\n      log4\n      pop\n      pop\n        /* \"erc721a/contracts/ERC721A.sol\":37079:37091  _burnCounter */\n      0x01\n        /* \"erc721a/contracts/ERC721A.sol\":37079:37093  _burnCounter++ */\n      dup1\n      sload\n      dup2\n      add\n      swap1\n      sstore\n      pop\n      pop\n      pop\n      pop\n        /* \"erc721a/contracts/ERC721A.sol\":34095:37110  function _burn(uint256 tokenId, bool approvalCheck) internal virtual {... */\n      jump\t// out\n        /* \"@openzeppelin/contracts/utils/cryptography/ECDSA.sol\":2145:2875  function tryRecover(bytes32 hash, bytes memory signature) internal pure returns (address, RecoverError) {... */\n    tag_442:\n        /* \"@openzeppelin/contracts/utils/cryptography/ECDSA.sol\":2226:2233  address */\n      0x00\n        /* \"@openzeppelin/contracts/utils/cryptography/ECDSA.sol\":2235:2247  RecoverError */\n      dup1\n        /* \"@openzeppelin/contracts/utils/cryptography/ECDSA.sol\":2263:2272  signature */\n      dup3\n        /* \"@openzeppelin/contracts/utils/cryptography/ECDSA.sol\":2263:2279  signature.length */\n      mload\n        /* \"@openzeppelin/contracts/utils/cryptography/ECDSA.sol\":2283:2285  65 */\n      0x41\n        /* \"@openzeppelin/contracts/utils/cryptography/ECDSA.sol\":2263:2285  signature.length == 65 */\n      sub\n        /* \"@openzeppelin/contracts/utils/cryptography/ECDSA.sol\":2259:2869  if (signature.length == 65) {... */\n      tag_494\n      jumpi\n        /* \"@openzeppelin/contracts/utils/cryptography/ECDSA.sol\":2599:2603  0x20 */\n      0x20\n        /* \"@openzeppelin/contracts/utils/cryptography/ECDSA.sol\":2584:2604  add(signature, 0x20) */\n      dup4\n      add\n        /* \"@openzeppelin/contracts/utils/cryptography/ECDSA.sol\":2578:2605  mload(add(signature, 0x20)) */\n      mload\n        /* \"@openzeppelin/contracts/utils/cryptography/ECDSA.sol\":2648:2652  0x40 */\n      0x40\n        /* \"@openzeppelin/contracts/utils/cryptography/ECDSA.sol\":2633:2653  add(signature, 0x40) */\n      dup5\n      add\n        /* \"@openzeppelin/contracts/utils/cryptography/ECDSA.sol\":2627:2654  mload(add(signature, 0x40)) */\n      mload\n        /* \"@openzeppelin/contracts/utils/cryptography/ECDSA.sol\":2705:2709  0x60 */\n      0x60\n        /* \"@openzeppelin/contracts/utils/cryptography/ECDSA.sol\":2690:2710  add(signature, 0x60) */\n      dup6\n      add\n        /* \"@openzeppelin/contracts/utils/cryptography/ECDSA.sol\":2684:2711  mload(add(signature, 0x60)) */\n      mload\n        /* \"@openzeppelin/contracts/utils/cryptography/ECDSA.sol\":2301:2310  bytes32 r */\n      0x00\n        /* \"@openzeppelin/contracts/utils/cryptography/ECDSA.sol\":2676:2712  byte(0, mload(add(signature, 0x60))) */\n      byte\n        /* \"@openzeppelin/contracts/utils/cryptography/ECDSA.sol\":2746:2771  tryRecover(hash, v, r, s) */\n      tag_495\n        /* \"@openzeppelin/contracts/utils/cryptography/ECDSA.sol\":2757:2761  hash */\n      dup8\n        /* \"@openzeppelin/contracts/utils/cryptography/ECDSA.sol\":2676:2712  byte(0, mload(add(signature, 0x60))) */\n      dup3\n        /* \"@openzeppelin/contracts/utils/cryptography/ECDSA.sol\":2578:2605  mload(add(signature, 0x20)) */\n      dup6\n        /* \"@openzeppelin/contracts/utils/cryptography/ECDSA.sol\":2627:2654  mload(add(signature, 0x40)) */\n      dup6\n        /* \"@openzeppelin/contracts/utils/cryptography/ECDSA.sol\":2746:2756  tryRecover */\n      tag_496\n        /* \"@openzeppelin/contracts/utils/cryptography/ECDSA.sol\":2746:2771  tryRecover(hash, v, r, s) */\n      jump\t// in\n    tag_495:\n        /* \"@openzeppelin/contracts/utils/cryptography/ECDSA.sol\":2739:2771  return tryRecover(hash, v, r, s) */\n      swap5\n      pop\n      swap5\n      pop\n      pop\n      pop\n      pop\n      jump(tag_497)\n        /* \"@openzeppelin/contracts/utils/cryptography/ECDSA.sol\":2259:2869  if (signature.length == 65) {... */\n    tag_494:\n      pop\n        /* \"@openzeppelin/contracts/utils/cryptography/ECDSA.sol\":2818:2819  0 */\n      0x00\n      swap1\n      pop\n        /* \"@openzeppelin/contracts/utils/cryptography/ECDSA.sol\":2822:2857  RecoverError.InvalidSignatureLength */\n      0x02\n        /* \"@openzeppelin/contracts/utils/cryptography/ECDSA.sol\":2259:2869  if (signature.length == 65) {... */\n    tag_497:\n        /* \"@openzeppelin/contracts/utils/cryptography/ECDSA.sol\":2145:2875  function tryRecover(bytes32 hash, bytes memory signature) internal pure returns (address, RecoverError) {... */\n      swap3\n      pop\n      swap3\n      swap1\n      pop\n      jump\t// out\n        /* \"@openzeppelin/contracts/utils/cryptography/ECDSA.sol\":570:1081  function _throwError(RecoverError error) private pure {... */\n    tag_444:\n        /* \"@openzeppelin/contracts/utils/cryptography/ECDSA.sol\":647:667  RecoverError.NoError */\n      0x00\n        /* \"@openzeppelin/contracts/utils/cryptography/ECDSA.sol\":638:643  error */\n      dup2\n        /* \"@openzeppelin/contracts/utils/cryptography/ECDSA.sol\":638:667  error == RecoverError.NoError */\n      0x04\n      dup2\n      gt\n      iszero\n      tag_503\n      jumpi\n      tag_503\n      tag_501\n      jump\t// in\n    tag_503:\n      sub\n        /* \"@openzeppelin/contracts/utils/cryptography/ECDSA.sol\":634:1075  if (error == RecoverError.NoError) {... */\n      tag_504\n      jumpi\n        /* \"@openzeppelin/contracts/utils/cryptography/ECDSA.sol\":570:1081  function _throwError(RecoverError error) private pure {... */\n      pop\n      jump\t// out\n        /* \"@openzeppelin/contracts/utils/cryptography/ECDSA.sol\":634:1075  if (error == RecoverError.NoError) {... */\n    tag_504:\n        /* \"@openzeppelin/contracts/utils/cryptography/ECDSA.sol\":743:772  RecoverError.InvalidSignature */\n      0x01\n        /* \"@openzeppelin/contracts/utils/cryptography/ECDSA.sol\":734:739  error */\n      dup2\n        /* \"@openzeppelin/contracts/utils/cryptography/ECDSA.sol\":734:772  error == RecoverError.InvalidSignature */\n      0x04\n      dup2\n      gt\n      iszero\n      tag_509\n      jumpi\n      tag_509\n      tag_501\n      jump\t// in\n    tag_509:\n      sub\n        /* \"@openzeppelin/contracts/utils/cryptography/ECDSA.sol\":730:1075  if (error == RecoverError.InvalidSignature) {... */\n      tag_510\n      jumpi\n        /* \"@openzeppelin/contracts/utils/cryptography/ECDSA.sol\":788:822  revert(\"ECDSA: invalid signature\") */\n      mload(0x40)\n      shl(0xe5, 0x461bcd)\n      dup2\n      mstore\n        /* \"#utility.yul\":15385:15387   */\n      0x20\n        /* \"@openzeppelin/contracts/utils/cryptography/ECDSA.sol\":788:822  revert(\"ECDSA: invalid signature\") */\n      0x04\n      dup3\n      add\n        /* \"#utility.yul\":15367:15388   */\n      mstore\n        /* \"#utility.yul\":15424:15426   */\n      0x18\n        /* \"#utility.yul\":15404:15422   */\n      0x24\n      dup3\n      add\n        /* \"#utility.yul\":15397:15427   */\n      mstore\n        /* \"#utility.yul\":15463:15489   */\n      0x45434453413a20696e76616c6964207369676e61747572650000000000000000\n        /* \"#utility.yul\":15443:15461   */\n      0x44\n      dup3\n      add\n        /* \"#utility.yul\":15436:15490   */\n      mstore\n        /* \"#utility.yul\":15507:15525   */\n      0x64\n      add\n        /* \"@openzeppelin/contracts/utils/cryptography/ECDSA.sol\":788:822  revert(\"ECDSA: invalid signature\") */\n      tag_291\n        /* \"#utility.yul\":15183:15531   */\n      jump\n        /* \"@openzeppelin/contracts/utils/cryptography/ECDSA.sol\":730:1075  if (error == RecoverError.InvalidSignature) {... */\n    tag_510:\n        /* \"@openzeppelin/contracts/utils/cryptography/ECDSA.sol\":852:887  RecoverError.InvalidSignatureLength */\n      0x02\n        /* \"@openzeppelin/contracts/utils/cryptography/ECDSA.sol\":843:848  error */\n      dup2\n        /* \"@openzeppelin/contracts/utils/cryptography/ECDSA.sol\":843:887  error == RecoverError.InvalidSignatureLength */\n      0x04\n      dup2\n      gt\n      iszero\n      tag_517\n      jumpi\n      tag_517\n      tag_501\n      jump\t// in\n    tag_517:\n      sub\n        /* \"@openzeppelin/contracts/utils/cryptography/ECDSA.sol\":839:1075  if (error == RecoverError.InvalidSignatureLength) {... */\n      tag_518\n      jumpi\n        /* \"@openzeppelin/contracts/utils/cryptography/ECDSA.sol\":903:944  revert(\"ECDSA: invalid signature length\") */\n      mload(0x40)\n      shl(0xe5, 0x461bcd)\n      dup2\n      mstore\n        /* \"#utility.yul\":15738:15740   */\n      0x20\n        /* \"@openzeppelin/contracts/utils/cryptography/ECDSA.sol\":903:944  revert(\"ECDSA: invalid signature length\") */\n      0x04\n      dup3\n      add\n        /* \"#utility.yul\":15720:15741   */\n      mstore\n        /* \"#utility.yul\":15777:15779   */\n      0x1f\n        /* \"#utility.yul\":15757:15775   */\n      0x24\n      dup3\n      add\n        /* \"#utility.yul\":15750:15780   */\n      mstore\n        /* \"#utility.yul\":15816:15849   */\n      0x45434453413a20696e76616c6964207369676e6174757265206c656e67746800\n        /* \"#utility.yul\":15796:15814   */\n      0x44\n      dup3\n      add\n        /* \"#utility.yul\":15789:15850   */\n      mstore\n        /* \"#utility.yul\":15867:15885   */\n      0x64\n      add\n        /* \"@openzeppelin/contracts/utils/cryptography/ECDSA.sol\":903:944  revert(\"ECDSA: invalid signature length\") */\n      tag_291\n        /* \"#utility.yul\":15536:15891   */\n      jump\n        /* \"@openzeppelin/contracts/utils/cryptography/ECDSA.sol\":839:1075  if (error == RecoverError.InvalidSignatureLength) {... */\n    tag_518:\n        /* \"@openzeppelin/contracts/utils/cryptography/ECDSA.sol\":974:1004  RecoverError.InvalidSignatureS */\n      0x03\n        /* \"@openzeppelin/contracts/utils/cryptography/ECDSA.sol\":965:970  error */\n      dup2\n        /* \"@openzeppelin/contracts/utils/cryptography/ECDSA.sol\":965:1004  error == RecoverError.InvalidSignatureS */\n      0x04\n      dup2\n      gt\n      iszero\n      tag_525\n      jumpi\n      tag_525\n      tag_501\n      jump\t// in\n    tag_525:\n      sub\n        /* \"@openzeppelin/contracts/utils/cryptography/ECDSA.sol\":961:1075  if (error == RecoverError.InvalidSignatureS) {... */\n      tag_275\n      jumpi\n        /* \"@openzeppelin/contracts/utils/cryptography/ECDSA.sol\":1020:1064  revert(\"ECDSA: invalid signature 's' value\") */\n      mload(0x40)\n      shl(0xe5, 0x461bcd)\n      dup2\n      mstore\n        /* \"#utility.yul\":16098:16100   */\n      0x20\n        /* \"@openzeppelin/contracts/utils/cryptography/ECDSA.sol\":1020:1064  revert(\"ECDSA: invalid signature 's' value\") */\n      0x04\n      dup3\n      add\n        /* \"#utility.yul\":16080:16101   */\n      mstore\n        /* \"#utility.yul\":16137:16139   */\n      0x22\n        /* \"#utility.yul\":16117:16135   */\n      0x24\n      dup3\n      add\n        /* \"#utility.yul\":16110:16140   */\n      mstore\n        /* \"#utility.yul\":16176:16210   */\n      0x45434453413a20696e76616c6964207369676e6174757265202773272076616c\n        /* \"#utility.yul\":16156:16174   */\n      0x44\n      dup3\n      add\n        /* \"#utility.yul\":16149:16211   */\n      mstore\n      shl(0xf0, 0x7565)\n        /* \"#utility.yul\":16227:16245   */\n      0x64\n      dup3\n      add\n        /* \"#utility.yul\":16220:16252   */\n      mstore\n        /* \"#utility.yul\":16269:16288   */\n      0x84\n      add\n        /* \"@openzeppelin/contracts/utils/cryptography/ECDSA.sol\":1020:1064  revert(\"ECDSA: invalid signature 's' value\") */\n      tag_291\n        /* \"#utility.yul\":15896:16294   */\n      jump\n        /* \"@openzeppelin/contracts/utils/cryptography/ECDSA.sol\":5069:6563  function tryRecover(... */\n    tag_496:\n        /* \"@openzeppelin/contracts/utils/cryptography/ECDSA.sol\":5195:5202  address */\n      0x00\n      dup1\n        /* \"@openzeppelin/contracts/utils/cryptography/ECDSA.sol\":6119:6185  0x7FFFFFFFFFFFFFFFFFFFFFFFFFFFFFFF5D576E7357A4501DDFE92F46681B20A0 */\n      0x7fffffffffffffffffffffffffffffff5d576e7357a4501ddfe92f46681b20a0\n        /* \"@openzeppelin/contracts/utils/cryptography/ECDSA.sol\":6106:6185  uint256(s) > 0x7FFFFFFFFFFFFFFFFFFFFFFFFFFFFFFF5D576E7357A4501DDFE92F46681B20A0 */\n      dup4\n      gt\n        /* \"@openzeppelin/contracts/utils/cryptography/ECDSA.sol\":6102:6263  if (uint256(s) > 0x7FFFFFFFFFFFFFFFFFFFFFFFFFFFFFFF5D576E7357A4501DDFE92F46681B20A0) {... */\n      iszero\n      tag_530\n      jumpi\n      pop\n        /* \"@openzeppelin/contracts/utils/cryptography/ECDSA.sol\":6217:6218  0 */\n      0x00\n      swap1\n      pop\n        /* \"@openzeppelin/contracts/utils/cryptography/ECDSA.sol\":6221:6251  RecoverError.InvalidSignatureS */\n      0x03\n        /* \"@openzeppelin/contracts/utils/cryptography/ECDSA.sol\":6201:6252  return (address(0), RecoverError.InvalidSignatureS) */\n      jump(tag_529)\n        /* \"@openzeppelin/contracts/utils/cryptography/ECDSA.sol\":6102:6263  if (uint256(s) > 0x7FFFFFFFFFFFFFFFFFFFFFFFFFFFFFFF5D576E7357A4501DDFE92F46681B20A0) {... */\n    tag_530:\n        /* \"@openzeppelin/contracts/utils/cryptography/ECDSA.sol\":6374:6398  ecrecover(hash, v, r, s) */\n      0x40\n      dup1\n      mload\n        /* \"@openzeppelin/contracts/utils/cryptography/ECDSA.sol\":6357:6371  address signer */\n      0x00\n        /* \"@openzeppelin/contracts/utils/cryptography/ECDSA.sol\":6374:6398  ecrecover(hash, v, r, s) */\n      dup1\n      dup3\n      mstore\n      0x20\n      dup3\n      add\n      dup1\n      dup5\n      mstore\n        /* \"#utility.yul\":16526:16551   */\n      dup10\n      swap1\n      mstore\n        /* \"#utility.yul\":16599:16603   */\n      0xff\n        /* \"#utility.yul\":16587:16604   */\n      dup9\n      and\n        /* \"#utility.yul\":16567:16585   */\n      swap3\n      dup3\n      add\n        /* \"#utility.yul\":16560:16605   */\n      swap3\n      swap1\n      swap3\n      mstore\n        /* \"#utility.yul\":16621:16639   */\n      0x60\n      dup2\n      add\n        /* \"#utility.yul\":16614:16648   */\n      dup7\n      swap1\n      mstore\n        /* \"#utility.yul\":16664:16682   */\n      0x80\n      dup2\n      add\n        /* \"#utility.yul\":16657:16691   */\n      dup6\n      swap1\n      mstore\n        /* \"@openzeppelin/contracts/utils/cryptography/ECDSA.sol\":6374:6398  ecrecover(hash, v, r, s) */\n      0x01\n      swap1\n        /* \"#utility.yul\":16498:16517   */\n      0xa0\n      add\n        /* \"@openzeppelin/contracts/utils/cryptography/ECDSA.sol\":6374:6398  ecrecover(hash, v, r, s) */\n      0x20\n      mload(0x40)\n      0x20\n      dup2\n      sub\n      swap1\n      dup1\n      dup5\n      sub\n      swap1\n      dup6\n      gas\n      staticcall\n      iszero\n      dup1\n      iszero\n      tag_534\n      jumpi\n      returndatasize\n      0x00\n      dup1\n      returndatacopy\n      revert(0x00, returndatasize)\n    tag_534:\n      pop\n      pop\n      mload(add(not(0x1f), mload(0x40)))\n      swap2\n      pop\n      pop\n      sub(shl(0xa0, 0x01), 0x01)\n        /* \"@openzeppelin/contracts/utils/cryptography/ECDSA.sol\":6412:6432  signer == address(0) */\n      dup2\n      and\n        /* \"@openzeppelin/contracts/utils/cryptography/ECDSA.sol\":6408:6509  if (signer == address(0)) {... */\n      tag_535\n      jumpi\n        /* \"@openzeppelin/contracts/utils/cryptography/ECDSA.sol\":6464:6465  0 */\n      0x00\n        /* \"@openzeppelin/contracts/utils/cryptography/ECDSA.sol\":6468:6497  RecoverError.InvalidSignature */\n      0x01\n        /* \"@openzeppelin/contracts/utils/cryptography/ECDSA.sol\":6448:6498  return (address(0), RecoverError.InvalidSignature) */\n      swap3\n      pop\n      swap3\n      pop\n      pop\n      jump(tag_529)\n        /* \"@openzeppelin/contracts/utils/cryptography/ECDSA.sol\":6408:6509  if (signer == address(0)) {... */\n    tag_535:\n        /* \"@openzeppelin/contracts/utils/cryptography/ECDSA.sol\":6527:6533  signer */\n      swap2\n      pop\n        /* \"@openzeppelin/contracts/utils/cryptography/ECDSA.sol\":6535:6555  RecoverError.NoError */\n      0x00\n      swap1\n      pop\n        /* \"@openzeppelin/contracts/utils/cryptography/ECDSA.sol\":5069:6563  function tryRecover(... */\n    tag_529:\n      swap5\n      pop\n      swap5\n      swap3\n      pop\n      pop\n      pop\n      jump\t// out\n        /* \"#utility.yul\":14:145   */\n    tag_536:\n      not(sub(shl(0xe0, 0x01), 0x01))\n        /* \"#utility.yul\":88:120   */\n      dup2\n      and\n        /* \"#utility.yul\":78:121   */\n      dup2\n      eq\n        /* \"#utility.yul\":68:139   */\n      tag_275\n      jumpi\n        /* \"#utility.yul\":135:136   */\n      0x00\n        /* \"#utility.yul\":132:133   */\n      dup1\n        /* \"#utility.yul\":125:137   */\n      revert\n        /* \"#utility.yul\":150:395   */\n    tag_48:\n        /* \"#utility.yul\":208:214   */\n      0x00\n        /* \"#utility.yul\":261:263   */\n      0x20\n        /* \"#utility.yul\":249:258   */\n      dup3\n        /* \"#utility.yul\":240:247   */\n      dup5\n        /* \"#utility.yul\":236:259   */\n      sub\n        /* \"#utility.yul\":232:264   */\n      slt\n        /* \"#utility.yul\":229:281   */\n      iszero\n      tag_552\n      jumpi\n        /* \"#utility.yul\":277:278   */\n      0x00\n        /* \"#utility.yul\":274:275   */\n      dup1\n        /* \"#utility.yul\":267:279   */\n      revert\n        /* \"#utility.yul\":229:281   */\n    tag_552:\n        /* \"#utility.yul\":316:325   */\n      dup2\n        /* \"#utility.yul\":303:326   */\n      calldataload\n        /* \"#utility.yul\":335:365   */\n      tag_380\n        /* \"#utility.yul\":359:364   */\n      dup2\n        /* \"#utility.yul\":335:365   */\n      tag_536\n      jump\t// in\n        /* \"#utility.yul\":592:752   */\n    tag_537:\n        /* \"#utility.yul\":657:677   */\n      dup1\n      calldataload\n        /* \"#utility.yul\":713:726   */\n      dup1\n      iszero\n        /* \"#utility.yul\":706:727   */\n      iszero\n        /* \"#utility.yul\":696:728   */\n      dup2\n      eq\n        /* \"#utility.yul\":686:746   */\n      tag_556\n      jumpi\n        /* \"#utility.yul\":742:743   */\n      0x00\n        /* \"#utility.yul\":739:740   */\n      dup1\n        /* \"#utility.yul\":732:744   */\n      revert\n        /* \"#utility.yul\":686:746   */\n    tag_556:\n        /* \"#utility.yul\":592:752   */\n      swap2\n      swap1\n      pop\n      jump\t// out\n        /* \"#utility.yul\":757:937   */\n    tag_55:\n        /* \"#utility.yul\":813:819   */\n      0x00\n        /* \"#utility.yul\":866:868   */\n      0x20\n        /* \"#utility.yul\":854:863   */\n      dup3\n        /* \"#utility.yul\":845:852   */\n      dup5\n        /* \"#utility.yul\":841:864   */\n      sub\n        /* \"#utility.yul\":837:869   */\n      slt\n        /* \"#utility.yul\":834:886   */\n      iszero\n      tag_558\n      jumpi\n        /* \"#utility.yul\":882:883   */\n      0x00\n        /* \"#utility.yul\":879:880   */\n      dup1\n        /* \"#utility.yul\":872:884   */\n      revert\n        /* \"#utility.yul\":834:886   */\n    tag_558:\n        /* \"#utility.yul\":905:931   */\n      tag_380\n        /* \"#utility.yul\":921:930   */\n      dup3\n        /* \"#utility.yul\":905:931   */\n      tag_537\n      jump\t// in\n        /* \"#utility.yul\":942:1115   */\n    tag_538:\n        /* \"#utility.yul\":1010:1030   */\n      dup1\n      calldataload\n      sub(shl(0xa0, 0x01), 0x01)\n        /* \"#utility.yul\":1059:1090   */\n      dup2\n      and\n        /* \"#utility.yul\":1049:1091   */\n      dup2\n      eq\n        /* \"#utility.yul\":1039:1109   */\n      tag_556\n      jumpi\n        /* \"#utility.yul\":1105:1106   */\n      0x00\n        /* \"#utility.yul\":1102:1103   */\n      dup1\n        /* \"#utility.yul\":1095:1107   */\n      revert\n        /* \"#utility.yul\":1120:1306   */\n    tag_60:\n        /* \"#utility.yul\":1179:1185   */\n      0x00\n        /* \"#utility.yul\":1232:1234   */\n      0x20\n        /* \"#utility.yul\":1220:1229   */\n      dup3\n        /* \"#utility.yul\":1211:1218   */\n      dup5\n        /* \"#utility.yul\":1207:1230   */\n      sub\n        /* \"#utility.yul\":1203:1235   */\n      slt\n        /* \"#utility.yul\":1200:1252   */\n      iszero\n      tag_563\n      jumpi\n        /* \"#utility.yul\":1248:1249   */\n      0x00\n        /* \"#utility.yul\":1245:1246   */\n      dup1\n        /* \"#utility.yul\":1238:1250   */\n      revert\n        /* \"#utility.yul\":1200:1252   */\n    tag_563:\n        /* \"#utility.yul\":1271:1300   */\n      tag_380\n        /* \"#utility.yul\":1290:1299   */\n      dup3\n        /* \"#utility.yul\":1271:1300   */\n      tag_538\n      jump\t// in\n        /* \"#utility.yul\":1311:1561   */\n    tag_539:\n        /* \"#utility.yul\":1396:1397   */\n      0x00\n        /* \"#utility.yul\":1406:1519   */\n    tag_566:\n        /* \"#utility.yul\":1420:1426   */\n      dup4\n        /* \"#utility.yul\":1417:1418   */\n      dup2\n        /* \"#utility.yul\":1414:1427   */\n      lt\n        /* \"#utility.yul\":1406:1519   */\n      iszero\n      tag_568\n      jumpi\n        /* \"#utility.yul\":1496:1507   */\n      dup2\n      dup2\n      add\n        /* \"#utility.yul\":1490:1508   */\n      mload\n        /* \"#utility.yul\":1477:1488   */\n      dup4\n      dup3\n      add\n        /* \"#utility.yul\":1470:1509   */\n      mstore\n        /* \"#utility.yul\":1442:1444   */\n      0x20\n        /* \"#utility.yul\":1435:1445   */\n      add\n        /* \"#utility.yul\":1406:1519   */\n      jump(tag_566)\n    tag_568:\n      pop\n      pop\n        /* \"#utility.yul\":1553:1554   */\n      0x00\n        /* \"#utility.yul\":1535:1551   */\n      swap2\n      add\n        /* \"#utility.yul\":1528:1555   */\n      mstore\n        /* \"#utility.yul\":1311:1561   */\n      jump\t// out\n        /* \"#utility.yul\":1566:1837   */\n    tag_540:\n        /* \"#utility.yul\":1608:1611   */\n      0x00\n        /* \"#utility.yul\":1646:1651   */\n      dup2\n        /* \"#utility.yul\":1640:1652   */\n      mload\n        /* \"#utility.yul\":1673:1679   */\n      dup1\n        /* \"#utility.yul\":1668:1671   */\n      dup5\n        /* \"#utility.yul\":1661:1680   */\n      mstore\n        /* \"#utility.yul\":1689:1765   */\n      tag_570\n        /* \"#utility.yul\":1758:1764   */\n      dup2\n        /* \"#utility.yul\":1751:1755   */\n      0x20\n        /* \"#utility.yul\":1746:1749   */\n      dup7\n        /* \"#utility.yul\":1742:1756   */\n      add\n        /* \"#utility.yul\":1735:1739   */\n      0x20\n        /* \"#utility.yul\":1728:1733   */\n      dup7\n        /* \"#utility.yul\":1724:1740   */\n      add\n        /* \"#utility.yul\":1689:1765   */\n      tag_539\n      jump\t// in\n    tag_570:\n        /* \"#utility.yul\":1819:1821   */\n      0x1f\n        /* \"#utility.yul\":1798:1813   */\n      add\n      not(0x1f)\n        /* \"#utility.yul\":1794:1823   */\n      and\n        /* \"#utility.yul\":1785:1824   */\n      swap3\n      swap1\n      swap3\n      add\n        /* \"#utility.yul\":1826:1830   */\n      0x20\n        /* \"#utility.yul\":1781:1831   */\n      add\n      swap3\n        /* \"#utility.yul\":1566:1837   */\n      swap2\n      pop\n      pop\n      jump\t// out\n        /* \"#utility.yul\":1842:2062   */\n    tag_66:\n        /* \"#utility.yul\":1991:1993   */\n      0x20\n        /* \"#utility.yul\":1980:1989   */\n      dup2\n        /* \"#utility.yul\":1973:1994   */\n      mstore\n        /* \"#utility.yul\":1954:1958   */\n      0x00\n        /* \"#utility.yul\":2011:2056   */\n      tag_380\n        /* \"#utility.yul\":2052:2054   */\n      0x20\n        /* \"#utility.yul\":2041:2050   */\n      dup4\n        /* \"#utility.yul\":2037:2055   */\n      add\n        /* \"#utility.yul\":2029:2035   */\n      dup5\n        /* \"#utility.yul\":2011:2056   */\n      tag_540\n      jump\t// in\n        /* \"#utility.yul\":2067:2247   */\n    tag_70:\n        /* \"#utility.yul\":2126:2132   */\n      0x00\n        /* \"#utility.yul\":2179:2181   */\n      0x20\n        /* \"#utility.yul\":2167:2176   */\n      dup3\n        /* \"#utility.yul\":2158:2165   */\n      dup5\n        /* \"#utility.yul\":2154:2177   */\n      sub\n        /* \"#utility.yul\":2150:2182   */\n      slt\n        /* \"#utility.yul\":2147:2199   */\n      iszero\n      tag_574\n      jumpi\n        /* \"#utility.yul\":2195:2196   */\n      0x00\n        /* \"#utility.yul\":2192:2193   */\n      dup1\n        /* \"#utility.yul\":2185:2197   */\n      revert\n        /* \"#utility.yul\":2147:2199   */\n    tag_574:\n      pop\n        /* \"#utility.yul\":2218:2241   */\n      calldataload\n      swap2\n        /* \"#utility.yul\":2067:2247   */\n      swap1\n      pop\n      jump\t// out\n        /* \"#utility.yul\":2460:2714   */\n    tag_76:\n        /* \"#utility.yul\":2528:2534   */\n      0x00\n        /* \"#utility.yul\":2536:2542   */\n      dup1\n        /* \"#utility.yul\":2589:2591   */\n      0x40\n        /* \"#utility.yul\":2577:2586   */\n      dup4\n        /* \"#utility.yul\":2568:2575   */\n      dup6\n        /* \"#utility.yul\":2564:2587   */\n      sub\n        /* \"#utility.yul\":2560:2592   */\n      slt\n        /* \"#utility.yul\":2557:2609   */\n      iszero\n      tag_577\n      jumpi\n        /* \"#utility.yul\":2605:2606   */\n      0x00\n        /* \"#utility.yul\":2602:2603   */\n      dup1\n        /* \"#utility.yul\":2595:2607   */\n      revert\n        /* \"#utility.yul\":2557:2609   */\n    tag_577:\n        /* \"#utility.yul\":2628:2657   */\n      tag_578\n        /* \"#utility.yul\":2647:2656   */\n      dup4\n        /* \"#utility.yul\":2628:2657   */\n      tag_538\n      jump\t// in\n    tag_578:\n        /* \"#utility.yul\":2618:2657   */\n      swap5\n        /* \"#utility.yul\":2704:2706   */\n      0x20\n        /* \"#utility.yul\":2689:2707   */\n      swap4\n      swap1\n      swap4\n      add\n        /* \"#utility.yul\":2676:2708   */\n      calldataload\n      swap4\n      pop\n      pop\n      pop\n        /* \"#utility.yul\":2460:2714   */\n      jump\t// out\n        /* \"#utility.yul\":2901:3229   */\n    tag_98:\n        /* \"#utility.yul\":2978:2984   */\n      0x00\n        /* \"#utility.yul\":2986:2992   */\n      dup1\n        /* \"#utility.yul\":2994:3000   */\n      0x00\n        /* \"#utility.yul\":3047:3049   */\n      0x60\n        /* \"#utility.yul\":3035:3044   */\n      dup5\n        /* \"#utility.yul\":3026:3033   */\n      dup7\n        /* \"#utility.yul\":3022:3045   */\n      sub\n        /* \"#utility.yul\":3018:3050   */\n      slt\n        /* \"#utility.yul\":3015:3067   */\n      iszero\n      tag_581\n      jumpi\n        /* \"#utility.yul\":3063:3064   */\n      0x00\n        /* \"#utility.yul\":3060:3061   */\n      dup1\n        /* \"#utility.yul\":3053:3065   */\n      revert\n        /* \"#utility.yul\":3015:3067   */\n    tag_581:\n        /* \"#utility.yul\":3086:3115   */\n      tag_582\n        /* \"#utility.yul\":3105:3114   */\n      dup5\n        /* \"#utility.yul\":3086:3115   */\n      tag_538\n      jump\t// in\n    tag_582:\n        /* \"#utility.yul\":3076:3115   */\n      swap3\n      pop\n        /* \"#utility.yul\":3134:3172   */\n      tag_583\n        /* \"#utility.yul\":3168:3170   */\n      0x20\n        /* \"#utility.yul\":3157:3166   */\n      dup6\n        /* \"#utility.yul\":3153:3171   */\n      add\n        /* \"#utility.yul\":3134:3172   */\n      tag_538\n      jump\t// in\n    tag_583:\n        /* \"#utility.yul\":3124:3172   */\n      swap2\n      pop\n        /* \"#utility.yul\":3219:3221   */\n      0x40\n        /* \"#utility.yul\":3208:3217   */\n      dup5\n        /* \"#utility.yul\":3204:3222   */\n      add\n        /* \"#utility.yul\":3191:3223   */\n      calldataload\n        /* \"#utility.yul\":3181:3223   */\n      swap1\n      pop\n        /* \"#utility.yul\":2901:3229   */\n      swap3\n      pop\n      swap3\n      pop\n      swap3\n      jump\t// out\n        /* \"#utility.yul\":3234:3361   */\n    tag_541:\n        /* \"#utility.yul\":3295:3305   */\n      0x4e487b71\n        /* \"#utility.yul\":3290:3293   */\n      0xe0\n        /* \"#utility.yul\":3286:3306   */\n      shl\n        /* \"#utility.yul\":3283:3284   */\n      0x00\n        /* \"#utility.yul\":3276:3307   */\n      mstore\n        /* \"#utility.yul\":3326:3330   */\n      0x41\n        /* \"#utility.yul\":3323:3324   */\n      0x04\n        /* \"#utility.yul\":3316:3331   */\n      mstore\n        /* \"#utility.yul\":3350:3354   */\n      0x24\n        /* \"#utility.yul\":3347:3348   */\n      0x00\n        /* \"#utility.yul\":3340:3355   */\n      revert\n        /* \"#utility.yul\":3366:3997   */\n    tag_542:\n        /* \"#utility.yul\":3430:3435   */\n      0x00\n        /* \"#utility.yul\":3460:3478   */\n      0xffffffffffffffff\n        /* \"#utility.yul\":3501:3503   */\n      dup1\n        /* \"#utility.yul\":3493:3499   */\n      dup5\n        /* \"#utility.yul\":3490:3504   */\n      gt\n        /* \"#utility.yul\":3487:3527   */\n      iszero\n      tag_587\n      jumpi\n        /* \"#utility.yul\":3507:3525   */\n      tag_587\n      tag_541\n      jump\t// in\n    tag_587:\n        /* \"#utility.yul\":3582:3584   */\n      0x40\n        /* \"#utility.yul\":3576:3585   */\n      mload\n        /* \"#utility.yul\":3550:3552   */\n      0x1f\n        /* \"#utility.yul\":3636:3651   */\n      dup6\n      add\n      not(0x1f)\n        /* \"#utility.yul\":3632:3656   */\n      swap1\n      dup2\n      and\n        /* \"#utility.yul\":3658:3660   */\n      0x3f\n        /* \"#utility.yul\":3628:3661   */\n      add\n        /* \"#utility.yul\":3624:3666   */\n      and\n        /* \"#utility.yul\":3612:3667   */\n      dup2\n      add\n      swap1\n        /* \"#utility.yul\":3682:3700   */\n      dup3\n      dup3\n      gt\n        /* \"#utility.yul\":3702:3724   */\n      dup2\n      dup4\n      lt\n        /* \"#utility.yul\":3679:3725   */\n      or\n        /* \"#utility.yul\":3676:3748   */\n      iszero\n      tag_589\n      jumpi\n        /* \"#utility.yul\":3728:3746   */\n      tag_589\n      tag_541\n      jump\t// in\n    tag_589:\n        /* \"#utility.yul\":3768:3778   */\n      dup2\n        /* \"#utility.yul\":3764:3766   */\n      0x40\n        /* \"#utility.yul\":3757:3779   */\n      mstore\n        /* \"#utility.yul\":3797:3803   */\n      dup1\n        /* \"#utility.yul\":3788:3803   */\n      swap4\n      pop\n        /* \"#utility.yul\":3827:3833   */\n      dup6\n        /* \"#utility.yul\":3819:3825   */\n      dup2\n        /* \"#utility.yul\":3812:3834   */\n      mstore\n        /* \"#utility.yul\":3867:3870   */\n      dup7\n        /* \"#utility.yul\":3858:3864   */\n      dup7\n        /* \"#utility.yul\":3853:3856   */\n      dup7\n        /* \"#utility.yul\":3849:3865   */\n      add\n        /* \"#utility.yul\":3846:3871   */\n      gt\n        /* \"#utility.yul\":3843:3888   */\n      iszero\n      tag_590\n      jumpi\n        /* \"#utility.yul\":3884:3885   */\n      0x00\n        /* \"#utility.yul\":3881:3882   */\n      dup1\n        /* \"#utility.yul\":3874:3886   */\n      revert\n        /* \"#utility.yul\":3843:3888   */\n    tag_590:\n        /* \"#utility.yul\":3934:3940   */\n      dup6\n        /* \"#utility.yul\":3929:3932   */\n      dup6\n        /* \"#utility.yul\":3922:3926   */\n      0x20\n        /* \"#utility.yul\":3914:3920   */\n      dup4\n        /* \"#utility.yul\":3910:3927   */\n      add\n        /* \"#utility.yul\":3897:3941   */\n      calldatacopy\n        /* \"#utility.yul\":3989:3990   */\n      0x00\n        /* \"#utility.yul\":3982:3986   */\n      0x20\n        /* \"#utility.yul\":3973:3979   */\n      dup8\n        /* \"#utility.yul\":3965:3971   */\n      dup4\n        /* \"#utility.yul\":3961:3980   */\n      add\n        /* \"#utility.yul\":3957:3987   */\n      add\n        /* \"#utility.yul\":3950:3991   */\n      mstore\n      pop\n      pop\n      pop\n        /* \"#utility.yul\":3366:3997   */\n      swap4\n      swap3\n      pop\n      pop\n      pop\n      jump\t// out\n        /* \"#utility.yul\":4002:4222   */\n    tag_543:\n        /* \"#utility.yul\":4044:4049   */\n      0x00\n        /* \"#utility.yul\":4097:4100   */\n      dup3\n        /* \"#utility.yul\":4090:4094   */\n      0x1f\n        /* \"#utility.yul\":4082:4088   */\n      dup4\n        /* \"#utility.yul\":4078:4095   */\n      add\n        /* \"#utility.yul\":4074:4101   */\n      slt\n        /* \"#utility.yul\":4064:4119   */\n      tag_592\n      jumpi\n        /* \"#utility.yul\":4115:4116   */\n      0x00\n        /* \"#utility.yul\":4112:4113   */\n      dup1\n        /* \"#utility.yul\":4105:4117   */\n      revert\n        /* \"#utility.yul\":4064:4119   */\n    tag_592:\n        /* \"#utility.yul\":4137:4216   */\n      tag_380\n        /* \"#utility.yul\":4212:4215   */\n      dup4\n        /* \"#utility.yul\":4203:4209   */\n      dup4\n        /* \"#utility.yul\":4190:4210   */\n      calldataload\n        /* \"#utility.yul\":4183:4187   */\n      0x20\n        /* \"#utility.yul\":4175:4181   */\n      dup6\n        /* \"#utility.yul\":4171:4188   */\n      add\n        /* \"#utility.yul\":4137:4216   */\n      tag_542\n      jump\t// in\n        /* \"#utility.yul\":4227:4752   */\n    tag_119:\n        /* \"#utility.yul\":4322:4328   */\n      0x00\n        /* \"#utility.yul\":4330:4336   */\n      dup1\n        /* \"#utility.yul\":4338:4344   */\n      0x00\n        /* \"#utility.yul\":4346:4352   */\n      dup1\n        /* \"#utility.yul\":4399:4402   */\n      0x80\n        /* \"#utility.yul\":4387:4396   */\n      dup6\n        /* \"#utility.yul\":4378:4385   */\n      dup8\n        /* \"#utility.yul\":4374:4397   */\n      sub\n        /* \"#utility.yul\":4370:4403   */\n      slt\n        /* \"#utility.yul\":4367:4420   */\n      iszero\n      tag_595\n      jumpi\n        /* \"#utility.yul\":4416:4417   */\n      0x00\n        /* \"#utility.yul\":4413:4414   */\n      dup1\n        /* \"#utility.yul\":4406:4418   */\n      revert\n        /* \"#utility.yul\":4367:4420   */\n    tag_595:\n        /* \"#utility.yul\":4452:4461   */\n      dup5\n        /* \"#utility.yul\":4439:4462   */\n      calldataload\n        /* \"#utility.yul\":4429:4462   */\n      swap4\n      pop\n        /* \"#utility.yul\":4509:4511   */\n      0x20\n        /* \"#utility.yul\":4498:4507   */\n      dup6\n        /* \"#utility.yul\":4494:4512   */\n      add\n        /* \"#utility.yul\":4481:4513   */\n      calldataload\n        /* \"#utility.yul\":4471:4513   */\n      swap3\n      pop\n        /* \"#utility.yul\":4560:4562   */\n      0x40\n        /* \"#utility.yul\":4549:4558   */\n      dup6\n        /* \"#utility.yul\":4545:4563   */\n      add\n        /* \"#utility.yul\":4532:4564   */\n      calldataload\n        /* \"#utility.yul\":4522:4564   */\n      swap2\n      pop\n        /* \"#utility.yul\":4615:4617   */\n      0x60\n        /* \"#utility.yul\":4604:4613   */\n      dup6\n        /* \"#utility.yul\":4600:4618   */\n      add\n        /* \"#utility.yul\":4587:4619   */\n      calldataload\n        /* \"#utility.yul\":4642:4660   */\n      0xffffffffffffffff\n        /* \"#utility.yul\":4634:4640   */\n      dup2\n        /* \"#utility.yul\":4631:4661   */\n      gt\n        /* \"#utility.yul\":4628:4678   */\n      iszero\n      tag_596\n      jumpi\n        /* \"#utility.yul\":4674:4675   */\n      0x00\n        /* \"#utility.yul\":4671:4672   */\n      dup1\n        /* \"#utility.yul\":4664:4676   */\n      revert\n        /* \"#utility.yul\":4628:4678   */\n    tag_596:\n        /* \"#utility.yul\":4697:4746   */\n      tag_597\n        /* \"#utility.yul\":4738:4745   */\n      dup8\n        /* \"#utility.yul\":4729:4735   */\n      dup3\n        /* \"#utility.yul\":4718:4727   */\n      dup9\n        /* \"#utility.yul\":4714:4736   */\n      add\n        /* \"#utility.yul\":4697:4746   */\n      tag_543\n      jump\t// in\n    tag_597:\n        /* \"#utility.yul\":4687:4746   */\n      swap2\n      pop\n      pop\n        /* \"#utility.yul\":4227:4752   */\n      swap3\n      swap6\n      swap2\n      swap5\n      pop\n      swap3\n      pop\n      jump\t// out\n        /* \"#utility.yul\":4757:5288   */\n    tag_153:\n        /* \"#utility.yul\":4852:4858   */\n      0x00\n        /* \"#utility.yul\":4860:4866   */\n      dup1\n        /* \"#utility.yul\":4868:4874   */\n      0x00\n        /* \"#utility.yul\":4876:4882   */\n      dup1\n        /* \"#utility.yul\":4929:4932   */\n      0x80\n        /* \"#utility.yul\":4917:4926   */\n      dup6\n        /* \"#utility.yul\":4908:4915   */\n      dup8\n        /* \"#utility.yul\":4904:4927   */\n      sub\n        /* \"#utility.yul\":4900:4933   */\n      slt\n        /* \"#utility.yul\":4897:4950   */\n      iszero\n      tag_599\n      jumpi\n        /* \"#utility.yul\":4946:4947   */\n      0x00\n        /* \"#utility.yul\":4943:4944   */\n      dup1\n        /* \"#utility.yul\":4936:4948   */\n      revert\n        /* \"#utility.yul\":4897:4950   */\n    tag_599:\n        /* \"#utility.yul\":4982:4991   */\n      dup5\n        /* \"#utility.yul\":4969:4992   */\n      calldataload\n        /* \"#utility.yul\":4959:4992   */\n      swap4\n      pop\n        /* \"#utility.yul\":5039:5041   */\n      0x20\n        /* \"#utility.yul\":5028:5037   */\n      dup6\n        /* \"#utility.yul\":5024:5042   */\n      add\n        /* \"#utility.yul\":5011:5043   */\n      calldataload\n        /* \"#utility.yul\":5001:5043   */\n      swap3\n      pop\n        /* \"#utility.yul\":5062:5100   */\n      tag_600\n        /* \"#utility.yul\":5096:5098   */\n      0x40\n        /* \"#utility.yul\":5085:5094   */\n      dup7\n        /* \"#utility.yul\":5081:5099   */\n      add\n        /* \"#utility.yul\":5062:5100   */\n      tag_538\n      jump\t// in\n    tag_600:\n        /* \"#utility.yul\":5052:5100   */\n      swap2\n      pop\n        /* \"#utility.yul\":5151:5153   */\n      0x60\n        /* \"#utility.yul\":5140:5149   */\n      dup6\n        /* \"#utility.yul\":5136:5154   */\n      add\n        /* \"#utility.yul\":5123:5155   */\n      calldataload\n        /* \"#utility.yul\":5178:5196   */\n      0xffffffffffffffff\n        /* \"#utility.yul\":5170:5176   */\n      dup2\n        /* \"#utility.yul\":5167:5197   */\n      gt\n        /* \"#utility.yul\":5164:5214   */\n      iszero\n      tag_596\n      jumpi\n        /* \"#utility.yul\":5210:5211   */\n      0x00\n        /* \"#utility.yul\":5207:5208   */\n      dup1\n        /* \"#utility.yul\":5200:5212   */\n      revert\n        /* \"#utility.yul\":5293:5743   */\n    tag_162:\n        /* \"#utility.yul\":5362:5368   */\n      0x00\n        /* \"#utility.yul\":5415:5417   */\n      0x20\n        /* \"#utility.yul\":5403:5412   */\n      dup3\n        /* \"#utility.yul\":5394:5401   */\n      dup5\n        /* \"#utility.yul\":5390:5413   */\n      sub\n        /* \"#utility.yul\":5386:5418   */\n      slt\n        /* \"#utility.yul\":5383:5435   */\n      iszero\n      tag_604\n      jumpi\n        /* \"#utility.yul\":5431:5432   */\n      0x00\n        /* \"#utility.yul\":5428:5429   */\n      dup1\n        /* \"#utility.yul\":5421:5433   */\n      revert\n        /* \"#utility.yul\":5383:5435   */\n    tag_604:\n        /* \"#utility.yul\":5471:5480   */\n      dup2\n        /* \"#utility.yul\":5458:5481   */\n      calldataload\n        /* \"#utility.yul\":5504:5522   */\n      0xffffffffffffffff\n        /* \"#utility.yul\":5496:5502   */\n      dup2\n        /* \"#utility.yul\":5493:5523   */\n      gt\n        /* \"#utility.yul\":5490:5540   */\n      iszero\n      tag_605\n      jumpi\n        /* \"#utility.yul\":5536:5537   */\n      0x00\n        /* \"#utility.yul\":5533:5534   */\n      dup1\n        /* \"#utility.yul\":5526:5538   */\n      revert\n        /* \"#utility.yul\":5490:5540   */\n    tag_605:\n        /* \"#utility.yul\":5559:5581   */\n      dup3\n      add\n        /* \"#utility.yul\":5612:5616   */\n      0x1f\n        /* \"#utility.yul\":5604:5617   */\n      dup2\n      add\n        /* \"#utility.yul\":5600:5627   */\n      dup5\n      sgt\n        /* \"#utility.yul\":5590:5645   */\n      tag_606\n      jumpi\n        /* \"#utility.yul\":5641:5642   */\n      0x00\n        /* \"#utility.yul\":5638:5639   */\n      dup1\n        /* \"#utility.yul\":5631:5643   */\n      revert\n        /* \"#utility.yul\":5590:5645   */\n    tag_606:\n        /* \"#utility.yul\":5664:5737   */\n      tag_460\n        /* \"#utility.yul\":5729:5736   */\n      dup5\n        /* \"#utility.yul\":5724:5726   */\n      dup3\n        /* \"#utility.yul\":5711:5727   */\n      calldataload\n        /* \"#utility.yul\":5706:5708   */\n      0x20\n        /* \"#utility.yul\":5702:5704   */\n      dup5\n        /* \"#utility.yul\":5698:5709   */\n      add\n        /* \"#utility.yul\":5664:5737   */\n      tag_542\n      jump\t// in\n        /* \"#utility.yul\":5748:6002   */\n    tag_167:\n        /* \"#utility.yul\":5813:5819   */\n      0x00\n        /* \"#utility.yul\":5821:5827   */\n      dup1\n        /* \"#utility.yul\":5874:5876   */\n      0x40\n        /* \"#utility.yul\":5862:5871   */\n      dup4\n        /* \"#utility.yul\":5853:5860   */\n      dup6\n        /* \"#utility.yul\":5849:5872   */\n      sub\n        /* \"#utility.yul\":5845:5877   */\n      slt\n        /* \"#utility.yul\":5842:5894   */\n      iszero\n      tag_609\n      jumpi\n        /* \"#utility.yul\":5890:5891   */\n      0x00\n        /* \"#utility.yul\":5887:5888   */\n      dup1\n        /* \"#utility.yul\":5880:5892   */\n      revert\n        /* \"#utility.yul\":5842:5894   */\n    tag_609:\n        /* \"#utility.yul\":5913:5942   */\n      tag_610\n        /* \"#utility.yul\":5932:5941   */\n      dup4\n        /* \"#utility.yul\":5913:5942   */\n      tag_538\n      jump\t// in\n    tag_610:\n        /* \"#utility.yul\":5903:5942   */\n      swap2\n      pop\n        /* \"#utility.yul\":5961:5996   */\n      tag_611\n        /* \"#utility.yul\":5992:5994   */\n      0x20\n        /* \"#utility.yul\":5981:5990   */\n      dup5\n        /* \"#utility.yul\":5977:5995   */\n      add\n        /* \"#utility.yul\":5961:5996   */\n      tag_537\n      jump\t// in\n    tag_611:\n        /* \"#utility.yul\":5951:5996   */\n      swap1\n      pop\n        /* \"#utility.yul\":5748:6002   */\n      swap3\n      pop\n      swap3\n      swap1\n      pop\n      jump\t// out\n        /* \"#utility.yul\":6007:6544   */\n    tag_171:\n        /* \"#utility.yul\":6102:6108   */\n      0x00\n        /* \"#utility.yul\":6110:6116   */\n      dup1\n        /* \"#utility.yul\":6118:6124   */\n      0x00\n        /* \"#utility.yul\":6126:6132   */\n      dup1\n        /* \"#utility.yul\":6179:6182   */\n      0x80\n        /* \"#utility.yul\":6167:6176   */\n      dup6\n        /* \"#utility.yul\":6158:6165   */\n      dup8\n        /* \"#utility.yul\":6154:6177   */\n      sub\n        /* \"#utility.yul\":6150:6183   */\n      slt\n        /* \"#utility.yul\":6147:6200   */\n      iszero\n      tag_613\n      jumpi\n        /* \"#utility.yul\":6196:6197   */\n      0x00\n        /* \"#utility.yul\":6193:6194   */\n      dup1\n        /* \"#utility.yul\":6186:6198   */\n      revert\n        /* \"#utility.yul\":6147:6200   */\n    tag_613:\n        /* \"#utility.yul\":6219:6248   */\n      tag_614\n        /* \"#utility.yul\":6238:6247   */\n      dup6\n        /* \"#utility.yul\":6219:6248   */\n      tag_538\n      jump\t// in\n    tag_614:\n        /* \"#utility.yul\":6209:6248   */\n      swap4\n      pop\n        /* \"#utility.yul\":6267:6305   */\n      tag_615\n        /* \"#utility.yul\":6301:6303   */\n      0x20\n        /* \"#utility.yul\":6290:6299   */\n      dup7\n        /* \"#utility.yul\":6286:6304   */\n      add\n        /* \"#utility.yul\":6267:6305   */\n      tag_538\n      jump\t// in\n    tag_615:\n        /* \"#utility.yul\":6257:6305   */\n      swap3\n      pop\n        /* \"#utility.yul\":6352:6354   */\n      0x40\n        /* \"#utility.yul\":6341:6350   */\n      dup6\n        /* \"#utility.yul\":6337:6355   */\n      add\n        /* \"#utility.yul\":6324:6356   */\n      calldataload\n        /* \"#utility.yul\":6314:6356   */\n      swap2\n      pop\n        /* \"#utility.yul\":6407:6409   */\n      0x60\n        /* \"#utility.yul\":6396:6405   */\n      dup6\n        /* \"#utility.yul\":6392:6410   */\n      add\n        /* \"#utility.yul\":6379:6411   */\n      calldataload\n        /* \"#utility.yul\":6434:6452   */\n      0xffffffffffffffff\n        /* \"#utility.yul\":6426:6432   */\n      dup2\n        /* \"#utility.yul\":6423:6453   */\n      gt\n        /* \"#utility.yul\":6420:6470   */\n      iszero\n      tag_596\n      jumpi\n        /* \"#utility.yul\":6466:6467   */\n      0x00\n        /* \"#utility.yul\":6463:6464   */\n      dup1\n        /* \"#utility.yul\":6456:6468   */\n      revert\n        /* \"#utility.yul\":6549:6809   */\n    tag_197:\n        /* \"#utility.yul\":6617:6623   */\n      0x00\n        /* \"#utility.yul\":6625:6631   */\n      dup1\n        /* \"#utility.yul\":6678:6680   */\n      0x40\n        /* \"#utility.yul\":6666:6675   */\n      dup4\n        /* \"#utility.yul\":6657:6664   */\n      dup6\n        /* \"#utility.yul\":6653:6676   */\n      sub\n        /* \"#utility.yul\":6649:6681   */\n      slt\n        /* \"#utility.yul\":6646:6698   */\n      iszero\n      tag_619\n      jumpi\n        /* \"#utility.yul\":6694:6695   */\n      0x00\n        /* \"#utility.yul\":6691:6692   */\n      dup1\n        /* \"#utility.yul\":6684:6696   */\n      revert\n        /* \"#utility.yul\":6646:6698   */\n    tag_619:\n        /* \"#utility.yul\":6717:6746   */\n      tag_620\n        /* \"#utility.yul\":6736:6745   */\n      dup4\n        /* \"#utility.yul\":6717:6746   */\n      tag_538\n      jump\t// in\n    tag_620:\n        /* \"#utility.yul\":6707:6746   */\n      swap2\n      pop\n        /* \"#utility.yul\":6765:6803   */\n      tag_611\n        /* \"#utility.yul\":6799:6801   */\n      0x20\n        /* \"#utility.yul\":6788:6797   */\n      dup5\n        /* \"#utility.yul\":6784:6802   */\n      add\n        /* \"#utility.yul\":6765:6803   */\n      tag_538\n      jump\t// in\n        /* \"#utility.yul\":6814:7194   */\n    tag_216:\n        /* \"#utility.yul\":6893:6894   */\n      0x01\n        /* \"#utility.yul\":6889:6901   */\n      dup2\n      dup2\n      shr\n      swap1\n        /* \"#utility.yul\":6936:6948   */\n      dup3\n      and\n      dup1\n        /* \"#utility.yul\":6957:7018   */\n      tag_623\n      jumpi\n        /* \"#utility.yul\":7011:7015   */\n      0x7f\n        /* \"#utility.yul\":7003:7009   */\n      dup3\n        /* \"#utility.yul\":6999:7016   */\n      and\n        /* \"#utility.yul\":6989:7016   */\n      swap2\n      pop\n        /* \"#utility.yul\":6957:7018   */\n    tag_623:\n        /* \"#utility.yul\":7064:7066   */\n      0x20\n        /* \"#utility.yul\":7056:7062   */\n      dup3\n        /* \"#utility.yul\":7053:7067   */\n      lt\n        /* \"#utility.yul\":7033:7051   */\n      dup2\n        /* \"#utility.yul\":7030:7068   */\n      sub\n        /* \"#utility.yul\":7027:7188   */\n      tag_624\n      jumpi\n        /* \"#utility.yul\":7110:7120   */\n      0x4e487b71\n        /* \"#utility.yul\":7105:7108   */\n      0xe0\n        /* \"#utility.yul\":7101:7121   */\n      shl\n        /* \"#utility.yul\":7098:7099   */\n      0x00\n        /* \"#utility.yul\":7091:7122   */\n      mstore\n        /* \"#utility.yul\":7145:7149   */\n      0x22\n        /* \"#utility.yul\":7142:7143   */\n      0x04\n        /* \"#utility.yul\":7135:7150   */\n      mstore\n        /* \"#utility.yul\":7173:7177   */\n      0x24\n        /* \"#utility.yul\":7170:7171   */\n      0x00\n        /* \"#utility.yul\":7163:7178   */\n      revert\n        /* \"#utility.yul\":7027:7188   */\n    tag_624:\n      pop\n        /* \"#utility.yul\":6814:7194   */\n      swap2\n      swap1\n      pop\n      jump\t// out\n        /* \"#utility.yul\":7409:7536   */\n    tag_276:\n        /* \"#utility.yul\":7470:7480   */\n      0x4e487b71\n        /* \"#utility.yul\":7465:7468   */\n      0xe0\n        /* \"#utility.yul\":7461:7481   */\n      shl\n        /* \"#utility.yul\":7458:7459   */\n      0x00\n        /* \"#utility.yul\":7451:7482   */\n      mstore\n        /* \"#utility.yul\":7501:7505   */\n      0x01\n        /* \"#utility.yul\":7498:7499   */\n      0x04\n        /* \"#utility.yul\":7491:7506   */\n      mstore\n        /* \"#utility.yul\":7525:7529   */\n      0x24\n        /* \"#utility.yul\":7522:7523   */\n      0x00\n        /* \"#utility.yul\":7515:7530   */\n      revert\n        /* \"#utility.yul\":8248:8375   */\n    tag_544:\n        /* \"#utility.yul\":8309:8319   */\n      0x4e487b71\n        /* \"#utility.yul\":8304:8307   */\n      0xe0\n        /* \"#utility.yul\":8300:8320   */\n      shl\n        /* \"#utility.yul\":8297:8298   */\n      0x00\n        /* \"#utility.yul\":8290:8321   */\n      mstore\n        /* \"#utility.yul\":8340:8344   */\n      0x11\n        /* \"#utility.yul\":8337:8338   */\n      0x04\n        /* \"#utility.yul\":8330:8345   */\n      mstore\n        /* \"#utility.yul\":8364:8368   */\n      0x24\n        /* \"#utility.yul\":8361:8362   */\n      0x00\n        /* \"#utility.yul\":8354:8369   */\n      revert\n        /* \"#utility.yul\":8380:8505   */\n    tag_298:\n        /* \"#utility.yul\":8445:8454   */\n      dup1\n      dup3\n      add\n        /* \"#utility.yul\":8466:8476   */\n      dup1\n      dup3\n      gt\n        /* \"#utility.yul\":8463:8499   */\n      iszero\n      tag_206\n      jumpi\n        /* \"#utility.yul\":8479:8497   */\n      tag_206\n      tag_544\n      jump\t// in\n        /* \"#utility.yul\":9218:9386   */\n    tag_309:\n        /* \"#utility.yul\":9291:9300   */\n      dup1\n      dup3\n      mul\n        /* \"#utility.yul\":9322:9331   */\n      dup2\n      iszero\n        /* \"#utility.yul\":9339:9354   */\n      dup3\n      dup3\n      div\n        /* \"#utility.yul\":9333:9355   */\n      dup5\n      eq\n        /* \"#utility.yul\":9319:9356   */\n      or\n        /* \"#utility.yul\":9309:9380   */\n      tag_206\n      jumpi\n        /* \"#utility.yul\":9360:9378   */\n      tag_206\n      tag_544\n      jump\t// in\n        /* \"#utility.yul\":10571:11116   */\n    tag_546:\n        /* \"#utility.yul\":10673:10675   */\n      0x1f\n        /* \"#utility.yul\":10668:10671   */\n      dup3\n        /* \"#utility.yul\":10665:10676   */\n      gt\n        /* \"#utility.yul\":10662:11110   */\n      iszero\n      tag_278\n      jumpi\n        /* \"#utility.yul\":10709:10710   */\n      0x00\n        /* \"#utility.yul\":10734:10739   */\n      dup2\n        /* \"#utility.yul\":10730:10732   */\n      dup2\n        /* \"#utility.yul\":10723:10740   */\n      mstore\n        /* \"#utility.yul\":10779:10783   */\n      0x20\n        /* \"#utility.yul\":10775:10777   */\n      dup2\n        /* \"#utility.yul\":10765:10784   */\n      keccak256\n        /* \"#utility.yul\":10849:10851   */\n      0x1f\n        /* \"#utility.yul\":10837:10847   */\n      dup6\n        /* \"#utility.yul\":10833:10852   */\n      add\n        /* \"#utility.yul\":10830:10831   */\n      0x05\n        /* \"#utility.yul\":10826:10853   */\n      shr\n        /* \"#utility.yul\":10820:10824   */\n      dup2\n        /* \"#utility.yul\":10816:10854   */\n      add\n        /* \"#utility.yul\":10885:10889   */\n      0x20\n        /* \"#utility.yul\":10873:10883   */\n      dup7\n        /* \"#utility.yul\":10870:10890   */\n      lt\n        /* \"#utility.yul\":10867:10914   */\n      iszero\n      tag_644\n      jumpi\n      pop\n        /* \"#utility.yul\":10908:10912   */\n      dup1\n        /* \"#utility.yul\":10867:10914   */\n    tag_644:\n        /* \"#utility.yul\":10963:10965   */\n      0x1f\n        /* \"#utility.yul\":10958:10961   */\n      dup6\n        /* \"#utility.yul\":10954:10966   */\n      add\n        /* \"#utility.yul\":10951:10952   */\n      0x05\n        /* \"#utility.yul\":10947:10967   */\n      shr\n        /* \"#utility.yul\":10941:10945   */\n      dup3\n        /* \"#utility.yul\":10937:10968   */\n      add\n        /* \"#utility.yul\":10927:10968   */\n      swap2\n      pop\n        /* \"#utility.yul\":11018:11100   */\n    tag_645:\n        /* \"#utility.yul\":11036:11038   */\n      dup2\n        /* \"#utility.yul\":11029:11034   */\n      dup2\n        /* \"#utility.yul\":11026:11039   */\n      lt\n        /* \"#utility.yul\":11018:11100   */\n      iszero\n      tag_263\n      jumpi\n        /* \"#utility.yul\":11081:11098   */\n      dup3\n      dup2\n      sstore\n        /* \"#utility.yul\":11062:11063   */\n      0x01\n        /* \"#utility.yul\":11051:11064   */\n      add\n        /* \"#utility.yul\":11018:11100   */\n      jump(tag_645)\n        /* \"#utility.yul\":11292:12644   */\n    tag_357:\n        /* \"#utility.yul\":11418:11421   */\n      dup2\n        /* \"#utility.yul\":11412:11422   */\n      mload\n        /* \"#utility.yul\":11445:11463   */\n      0xffffffffffffffff\n        /* \"#utility.yul\":11437:11443   */\n      dup2\n        /* \"#utility.yul\":11434:11464   */\n      gt\n        /* \"#utility.yul\":11431:11487   */\n      iszero\n      tag_651\n      jumpi\n        /* \"#utility.yul\":11467:11485   */\n      tag_651\n      tag_541\n      jump\t// in\n    tag_651:\n        /* \"#utility.yul\":11496:11593   */\n      tag_652\n        /* \"#utility.yul\":11586:11592   */\n      dup2\n        /* \"#utility.yul\":11546:11584   */\n      tag_653\n        /* \"#utility.yul\":11578:11582   */\n      dup5\n        /* \"#utility.yul\":11572:11583   */\n      sload\n        /* \"#utility.yul\":11546:11584   */\n      tag_216\n      jump\t// in\n    tag_653:\n        /* \"#utility.yul\":11540:11544   */\n      dup5\n        /* \"#utility.yul\":11496:11593   */\n      tag_546\n      jump\t// in\n    tag_652:\n        /* \"#utility.yul\":11648:11652   */\n      0x20\n      dup1\n        /* \"#utility.yul\":11712:11714   */\n      0x1f\n        /* \"#utility.yul\":11701:11715   */\n      dup4\n      gt\n        /* \"#utility.yul\":11729:11730   */\n      0x01\n        /* \"#utility.yul\":11724:12387   */\n      dup2\n      eq\n      tag_655\n      jumpi\n        /* \"#utility.yul\":12431:12432   */\n      0x00\n        /* \"#utility.yul\":12448:12454   */\n      dup5\n        /* \"#utility.yul\":12445:12534   */\n      iszero\n      tag_656\n      jumpi\n      pop\n        /* \"#utility.yul\":12500:12519   */\n      dup6\n      dup4\n      add\n        /* \"#utility.yul\":12494:12520   */\n      mload\n        /* \"#utility.yul\":12445:12534   */\n    tag_656:\n      not(0x00)\n        /* \"#utility.yul\":11249:11250   */\n      0x03\n        /* \"#utility.yul\":11245:11256   */\n      dup7\n      swap1\n      shl\n        /* \"#utility.yul\":11241:11265   */\n      shr\n        /* \"#utility.yul\":11237:11266   */\n      not\n        /* \"#utility.yul\":11227:11267   */\n      and\n        /* \"#utility.yul\":11273:11274   */\n      0x01\n        /* \"#utility.yul\":11269:11280   */\n      dup6\n      swap1\n      shl\n        /* \"#utility.yul\":11224:11281   */\n      or\n        /* \"#utility.yul\":12547:12628   */\n      dup6\n      sstore\n        /* \"#utility.yul\":11694:12638   */\n      jump(tag_263)\n        /* \"#utility.yul\":11724:12387   */\n    tag_655:\n        /* \"#utility.yul\":10518:10519   */\n      0x00\n        /* \"#utility.yul\":10511:10525   */\n      dup6\n      dup2\n      mstore\n        /* \"#utility.yul\":10555:10559   */\n      0x20\n        /* \"#utility.yul\":10542:10560   */\n      dup2\n      keccak256\n      not(0x1f)\n        /* \"#utility.yul\":11760:11780   */\n      dup7\n      and\n      swap2\n        /* \"#utility.yul\":11878:12114   */\n    tag_659:\n        /* \"#utility.yul\":11892:11899   */\n      dup3\n        /* \"#utility.yul\":11889:11890   */\n      dup2\n        /* \"#utility.yul\":11886:11900   */\n      lt\n        /* \"#utility.yul\":11878:12114   */\n      iszero\n      tag_661\n      jumpi\n        /* \"#utility.yul\":11981:12000   */\n      dup9\n      dup7\n      add\n        /* \"#utility.yul\":11975:12001   */\n      mload\n        /* \"#utility.yul\":11960:12002   */\n      dup3\n      sstore\n        /* \"#utility.yul\":12073:12100   */\n      swap5\n      dup5\n      add\n      swap5\n        /* \"#utility.yul\":12041:12042   */\n      0x01\n        /* \"#utility.yul\":12029:12043   */\n      swap1\n      swap2\n      add\n      swap1\n        /* \"#utility.yul\":11908:11927   */\n      dup5\n      add\n        /* \"#utility.yul\":11878:12114   */\n      jump(tag_659)\n    tag_661:\n        /* \"#utility.yul\":11882:11885   */\n      pop\n        /* \"#utility.yul\":12142:12148   */\n      dup6\n        /* \"#utility.yul\":12133:12140   */\n      dup3\n        /* \"#utility.yul\":12130:12149   */\n      lt\n        /* \"#utility.yul\":12127:12328   */\n      iszero\n      tag_662\n      jumpi\n        /* \"#utility.yul\":12203:12222   */\n      dup8\n      dup6\n      add\n        /* \"#utility.yul\":12197:12223   */\n      mload\n      not(0x00)\n        /* \"#utility.yul\":12286:12287   */\n      0x03\n        /* \"#utility.yul\":12282:12296   */\n      dup9\n      swap1\n      shl\n        /* \"#utility.yul\":12298:12301   */\n      0xf8\n        /* \"#utility.yul\":12278:12302   */\n      and\n        /* \"#utility.yul\":12274:12311   */\n      shr\n        /* \"#utility.yul\":12270:12312   */\n      not\n        /* \"#utility.yul\":12255:12313   */\n      and\n        /* \"#utility.yul\":12240:12314   */\n      dup2\n      sstore\n        /* \"#utility.yul\":12127:12328   */\n    tag_662:\n      pop\n      pop\n      pop\n      pop\n      pop\n        /* \"#utility.yul\":12374:12375   */\n      0x01\n        /* \"#utility.yul\":12358:12372   */\n      swap1\n      dup2\n      shl\n        /* \"#utility.yul\":12354:12376   */\n      add\n        /* \"#utility.yul\":12341:12377   */\n      swap1\n      sstore\n      pop\n        /* \"#utility.yul\":11292:12644   */\n      jump\t// out\n        /* \"#utility.yul\":12649:13145   */\n    tag_384:\n        /* \"#utility.yul\":12828:12831   */\n      0x00\n        /* \"#utility.yul\":12866:12872   */\n      dup4\n        /* \"#utility.yul\":12860:12873   */\n      mload\n        /* \"#utility.yul\":12882:12948   */\n      tag_664\n        /* \"#utility.yul\":12941:12947   */\n      dup2\n        /* \"#utility.yul\":12936:12939   */\n      dup5\n        /* \"#utility.yul\":12929:12933   */\n      0x20\n        /* \"#utility.yul\":12921:12927   */\n      dup9\n        /* \"#utility.yul\":12917:12934   */\n      add\n        /* \"#utility.yul\":12882:12948   */\n      tag_539\n      jump\t// in\n    tag_664:\n        /* \"#utility.yul\":13011:13024   */\n      dup4\n      mload\n        /* \"#utility.yul\":12970:12986   */\n      swap1\n      dup4\n      add\n      swap1\n        /* \"#utility.yul\":13033:13103   */\n      tag_665\n        /* \"#utility.yul\":13011:13024   */\n      dup2\n        /* \"#utility.yul\":12970:12986   */\n      dup4\n        /* \"#utility.yul\":13080:13084   */\n      0x20\n        /* \"#utility.yul\":13068:13085   */\n      dup9\n      add\n        /* \"#utility.yul\":13033:13103   */\n      tag_539\n      jump\t// in\n    tag_665:\n        /* \"#utility.yul\":13119:13139   */\n      add\n      swap5\n        /* \"#utility.yul\":12649:13145   */\n      swap4\n      pop\n      pop\n      pop\n      pop\n      jump\t// out\n        /* \"#utility.yul\":14303:14792   */\n    tag_448:\n      sub(shl(0xa0, 0x01), 0x01)\n        /* \"#utility.yul\":14572:14587   */\n      dup6\n      dup2\n      and\n        /* \"#utility.yul\":14554:14588   */\n      dup3\n      mstore\n        /* \"#utility.yul\":14624:14639   */\n      dup5\n      and\n        /* \"#utility.yul\":14619:14621   */\n      0x20\n        /* \"#utility.yul\":14604:14622   */\n      dup3\n      add\n        /* \"#utility.yul\":14597:14640   */\n      mstore\n        /* \"#utility.yul\":14671:14673   */\n      0x40\n        /* \"#utility.yul\":14656:14674   */\n      dup2\n      add\n        /* \"#utility.yul\":14649:14683   */\n      dup4\n      swap1\n      mstore\n        /* \"#utility.yul\":14719:14722   */\n      0x80\n        /* \"#utility.yul\":14714:14716   */\n      0x60\n        /* \"#utility.yul\":14699:14717   */\n      dup3\n      add\n        /* \"#utility.yul\":14692:14723   */\n      dup2\n      swap1\n      mstore\n        /* \"#utility.yul\":14497:14501   */\n      0x00\n      swap1\n        /* \"#utility.yul\":14740:14786   */\n      tag_670\n      swap1\n        /* \"#utility.yul\":14766:14785   */\n      dup4\n      add\n        /* \"#utility.yul\":14758:14764   */\n      dup5\n        /* \"#utility.yul\":14740:14786   */\n      tag_540\n      jump\t// in\n    tag_670:\n        /* \"#utility.yul\":14732:14786   */\n      swap7\n        /* \"#utility.yul\":14303:14792   */\n      swap6\n      pop\n      pop\n      pop\n      pop\n      pop\n      pop\n      jump\t// out\n        /* \"#utility.yul\":14797:15046   */\n    tag_451:\n        /* \"#utility.yul\":14866:14872   */\n      0x00\n        /* \"#utility.yul\":14919:14921   */\n      0x20\n        /* \"#utility.yul\":14907:14916   */\n      dup3\n        /* \"#utility.yul\":14898:14905   */\n      dup5\n        /* \"#utility.yul\":14894:14917   */\n      sub\n        /* \"#utility.yul\":14890:14922   */\n      slt\n        /* \"#utility.yul\":14887:14939   */\n      iszero\n      tag_672\n      jumpi\n        /* \"#utility.yul\":14935:14936   */\n      0x00\n        /* \"#utility.yul\":14932:14933   */\n      dup1\n        /* \"#utility.yul\":14925:14937   */\n      revert\n        /* \"#utility.yul\":14887:14939   */\n    tag_672:\n        /* \"#utility.yul\":14967:14976   */\n      dup2\n        /* \"#utility.yul\":14961:14977   */\n      mload\n        /* \"#utility.yul\":14986:15016   */\n      tag_380\n        /* \"#utility.yul\":15010:15015   */\n      dup2\n        /* \"#utility.yul\":14986:15016   */\n      tag_536\n      jump\t// in\n        /* \"#utility.yul\":15051:15178   */\n    tag_501:\n        /* \"#utility.yul\":15112:15122   */\n      0x4e487b71\n        /* \"#utility.yul\":15107:15110   */\n      0xe0\n        /* \"#utility.yul\":15103:15123   */\n      shl\n        /* \"#utility.yul\":15100:15101   */\n      0x00\n        /* \"#utility.yul\":15093:15124   */\n      mstore\n        /* \"#utility.yul\":15143:15147   */\n      0x21\n        /* \"#utility.yul\":15140:15141   */\n      0x04\n        /* \"#utility.yul\":15133:15148   */\n      mstore\n        /* \"#utility.yul\":15167:15171   */\n      0x24\n        /* \"#utility.yul\":15164:15165   */\n      0x00\n        /* \"#utility.yul\":15157:15172   */\n      revert\n    stop\n    data_ada389e1fc24a8587c776340efb91b36e675792ab631816100d55df0b5cf3cbc ddf252ad1be2c89b69c2b068fc378daa952ba7f163c4a11628f55a4df523b3ef\n\n    auxdata: 0xa2646970667358221220cc10ae34f2e47458fc10511041df7aa46d3482c04864dc07b415b87ffe4fc46264736f6c63430008110033\n}\n",
				"bytecode": {
					"linkReferences": {},
					"object": "60806040526103e8600a556001600b55668e1bc9bf040000600c55600d80546001600160b01b031916754e99031f4c39cd1ae173bc32e397de77ac6d639500001790553480156200004f57600080fd5b50604051806040016040528060118152602001704c616e6473206f66204d7974686573646160781b815250604051806040016040528060038152602001624c4f4d60e81b8152508160029081620000a79190620001c5565b506003620000b68282620001c5565b50506000805550620000c833620000ce565b62000291565b600880546001600160a01b038381166001600160a01b0319831681179093556040519116919082907f8be0079c531659141344cd1fd0a4f28419497f9722a3daafe3b4186f6b6457e090600090a35050565b634e487b7160e01b600052604160045260246000fd5b600181811c908216806200014b57607f821691505b6020821081036200016c57634e487b7160e01b600052602260045260246000fd5b50919050565b601f821115620001c057600081815260208120601f850160051c810160208610156200019b5750805b601f850160051c820191505b81811015620001bc57828155600101620001a7565b5050505b505050565b81516001600160401b03811115620001e157620001e162000120565b620001f981620001f2845462000136565b8462000172565b602080601f831160018114620002315760008415620002185750858301515b600019600386901b1c1916600185901b178555620001bc565b600085815260208120601f198616915b82811015620002625788860151825594840194600190910190840162000241565b5085821015620002815787850151600019600388901b60f8161c191681555b5050505050600190811b01905550565b611eeb80620002a16000396000f3fe60806040526004361061020f5760003560e01c80635c975abb11610118578063a22cb465116100a0578063c87b56dd1161006f578063c87b56dd146105b2578063ceda0dbd146105d2578063d5abeb01146105e8578063e985e9c5146105fe578063f2fde38b1461061e57600080fd5b8063a22cb4651461053f578063b88d4fde1461055f578063c48b1fa614610572578063c62752551461059257600080fd5b8063715018a6116100e7578063715018a6146104b75780638da5cb5b146104cc5780638f9db08c146104ea57806395d89b411461050a578063a0bcfc7f1461051f57600080fd5b80635c975abb146104485780636352211e146104625780636c0360eb1461048257806370a082311461049757600080fd5b806318160ddd1161019b57806342842e0e1161016a57806342842e0e146103bc57806342966c68146103cf578063484b973c146103ef5780634a9eee691461040f5780635b7633d01461042257600080fd5b806318160ddd1461036957806323b872dd1461038257806326092b83146103955780633ccfd60b146103b457600080fd5b8063081812fc116101e2578063081812fc146102ad578063095ea7b3146102e55780630a398b88146102f85780630bab3262146103335780630e2d56cf1461034957600080fd5b806301ffc9a71461021457806302329a2914610249578063046dc1661461026b57806306fdde031461028b575b600080fd5b34801561022057600080fd5b5061023461022f3660046118ba565b61063e565b60405190151581526020015b60405180910390f35b34801561025557600080fd5b506102696102643660046118ec565b610690565b005b34801561027757600080fd5b5061026961028636600461191e565b6106ab565b34801561029757600080fd5b506102a06106dd565b6040516102409190611989565b3480156102b957600080fd5b506102cd6102c836600461199c565b61076f565b6040516001600160a01b039091168152602001610240565b6102696102f33660046119b5565b6107b3565b34801561030457600080fd5b5061032561031336600461191e565b600e6020526000908152604090205481565b604051908152602001610240565b34801561033f57600080fd5b50610325600b5481565b34801561035557600080fd5b506102696103643660046118ec565b610853565b34801561037557600080fd5b5060015460005403610325565b6102696103903660046119df565b610875565b3480156103a157600080fd5b50600d5461023490610100900460ff1681565b610269610a06565b6102696103ca3660046119df565b610a85565b3480156103db57600080fd5b506102696103ea36600461199c565b610aa5565b3480156103fb57600080fd5b5061026961040a3660046119b5565b610ab6565b61026961041d366004611ac7565b610acc565b34801561042e57600080fd5b50600d546102cd906201000090046001600160a01b031681565b34801561045457600080fd5b50600d546102349060ff1681565b34801561046e57600080fd5b506102cd61047d36600461199c565b610d90565b34801561048e57600080fd5b506102a0610d9b565b3480156104a357600080fd5b506103256104b236600461191e565b610e29565b3480156104c357600080fd5b50610269610e78565b3480156104d857600080fd5b506008546001600160a01b03166102cd565b3480156104f657600080fd5b50610269610505366004611b21565b610e8c565b34801561051657600080fd5b506102a0610f7c565b34801561052b57600080fd5b5061026961053a366004611b6a565b610f8b565b34801561054b57600080fd5b5061026961055a366004611bb3565b610f9f565b61026961056d366004611be6565b61100b565b34801561057e57600080fd5b5061026961058d36600461199c565b611055565b34801561059e57600080fd5b506102696105ad36600461199c565b611062565b3480156105be57600080fd5b506102a06105cd36600461199c565b61106f565b3480156105de57600080fd5b50610325600c5481565b3480156105f457600080fd5b50610325600a5481565b34801561060a57600080fd5b50610234610619366004611c36565b6110f3565b34801561062a57600080fd5b5061026961063936600461191e565b611121565b60006301ffc9a760e01b6001600160e01b03198316148061066f57506380ac58cd60e01b6001600160e01b03198316145b8061068a5750635b5e139f60e01b6001600160e01b03198316145b92915050565b610698611197565b600d805460ff1916911515919091179055565b6106b3611197565b600d80546001600160a01b03909216620100000262010000600160b01b0319909216919091179055565b6060600280546106ec90611c60565b80601f016020809104026020016040519081016040528092919081815260200182805461071890611c60565b80156107655780601f1061073a57610100808354040283529160200191610765565b820191906000526020600020905b81548152906001019060200180831161074857829003601f168201915b5050505050905090565b600061077a826111f1565b610797576040516333d1c03960e21b815260040160405180910390fd5b506000908152600660205260409020546001600160a01b031690565b60006107be82610d90565b9050336001600160a01b038216146107f7576107da81336110f3565b6107f7576040516367d9dca160e11b815260040160405180910390fd5b60008281526006602052604080822080546001600160a01b0319166001600160a01b0387811691821790925591518593918516917f8c5be1e5ebec7d5bd14f71427d1e84f3dd0314c0f7b2291e5b200ac8c7c3b92591a4505050565b61085b611197565b600d80549115156101000261ff0019909216919091179055565b600061088082611218565b9050836001600160a01b0316816001600160a01b0316146108b35760405162a1148160e81b815260040160405180910390fd5b600082815260066020526040902080546108df8187335b6001600160a01b039081169116811491141790565b61090a576108ed86336110f3565b61090a57604051632ce44b5f60e11b815260040160405180910390fd5b6001600160a01b03851661093157604051633a954ecd60e21b815260040160405180910390fd5b801561093c57600082555b6001600160a01b038681166000908152600560205260408082208054600019019055918716808252919020805460010190554260a01b17600160e11b17600085815260046020526040812091909155600160e11b841690036109ce576001840160008181526004602052604081205490036109cc5760005481146109cc5760008181526004602052604090208490555b505b83856001600160a01b0316876001600160a01b0316600080516020611e9683398151915260405160405180910390a45b505050505050565b610a0e611197565b6000610a226008546001600160a01b031690565b6001600160a01b03164760405160006040518083038185875af1925050503d8060008114610a6c576040519150601f19603f3d011682016040523d82523d6000602084013e610a71565b606091505b5050905080610a8257610a82611c9a565b50565b610aa08383836040518060200160405280600081525061100b565b505050565b610aad611197565b610a828161127f565b610abe611197565b610ac8828261128a565b5050565b600d5460ff1615610b1d5760405162461bcd60e51b8152602060048201526016602482015275151a194818dbdb9d1c9858dd081a5cc81c185d5cd95960521b60448201526064015b60405180910390fd5b6000610b2c6001546000540390565b905060008511610b7e5760405162461bcd60e51b815260206004820152601b60248201527f4e65656420746f206d696e74206174206c656173742031204e465400000000006044820152606401610b14565b600a54610b8b8683611cc6565b1115610bd25760405162461bcd60e51b815260206004820152601660248201527513585e08139195081b1a5b5a5d08195e18d95959195960521b6044820152606401610b14565b336000908152600e6020526040902054600d54610100900460ff16610caa57610bfd85853386610e8c565b84610c088783611cc6565b1115610c565760405162461bcd60e51b815260206004820152601c60248201527f4d6178204e465420666f722061646472657373206578636565646564000000006044820152606401610b14565b610c608685611cd9565b341015610ca55760405162461bcd60e51b8152602060048201526013602482015272496e73756666696369656e7420666f756e647360681b6044820152606401610b14565b610d58565b600b54610cb78783611cc6565b1115610d055760405162461bcd60e51b815260206004820152601c60248201527f4d6178204e465420666f722061646472657373206578636565646564000000006044820152606401610b14565b85600c54610d139190611cd9565b341015610d585760405162461bcd60e51b8152602060048201526013602482015272496e73756666696369656e7420666f756e647360681b6044820152606401610b14565b336000908152600e6020526040902054610d73908790611cc6565b336000818152600e60205260409020919091556109fe908761128a565b600061068a82611218565b60098054610da890611c60565b80601f0160208091040260200160405190810160405280929190818152602001828054610dd490611c60565b8015610e215780601f10610df657610100808354040283529160200191610e21565b820191906000526020600020905b815481529060010190602001808311610e0457829003601f168201915b505050505081565b60006001600160a01b038216610e52576040516323d3ad8160e21b815260040160405180910390fd5b506001600160a01b031660009081526005602052604090205467ffffffffffffffff1690565b610e80611197565b610e8a6000611364565b565b604080516020808201879052818301869052606085811b6bffffffffffffffffffffffff191690830152825180830360540181526074830184528051908201207f19457468657265756d205369676e6564204d6573736167653a0a333200000000609484015260b08084018290528451808503909101815260d090930190935281519101206000610f1d82856113b6565b600d549091506001600160a01b03808316620100009092041614610f735760405162461bcd60e51b815260206004820152600d60248201526c426164207369676e617475726560981b6044820152606401610b14565b50505050505050565b6060600380546106ec90611c60565b610f93611197565b6009610ac88282611d36565b3360008181526007602090815260408083206001600160a01b03871680855290835292819020805460ff191686151590811790915590519081529192917f17307eab39ab6107e8899845ad3d59bd9653f200f220920489ca2b5937696c31910160405180910390a35050565b611016848484610875565b6001600160a01b0383163b1561104f57611032848484846113da565b61104f576040516368d2bf6b60e11b815260040160405180910390fd5b50505050565b61105d611197565b600b55565b61106a611197565b600c55565b606061107a826111f1565b61109757604051630a14c4b560e41b815260040160405180910390fd5b60006110a16114c6565b905080516000036110c157604051806020016040528060008152506110ec565b806110cb846114d5565b6040516020016110dc929190611df6565b6040516020818303038152906040525b9392505050565b6001600160a01b03918216600090815260076020908152604080832093909416825291909152205460ff1690565b611129611197565b6001600160a01b03811661118e5760405162461bcd60e51b815260206004820152602660248201527f4f776e61626c653a206e6577206f776e657220697320746865207a65726f206160448201526564647265737360d01b6064820152608401610b14565b610a8281611364565b6008546001600160a01b03163314610e8a5760405162461bcd60e51b815260206004820181905260248201527f4f776e61626c653a2063616c6c6572206973206e6f7420746865206f776e65726044820152606401610b14565b600080548210801561068a575050600090815260046020526040902054600160e01b161590565b6000816000548110156112665760008181526004602052604081205490600160e01b82169003611264575b806000036110ec575060001901600081815260046020526040902054611243565b505b604051636f96cda160e11b815260040160405180910390fd5b610a82816000611519565b60008054908290036112af5760405163b562e8dd60e01b815260040160405180910390fd5b6001600160a01b03831660008181526005602090815260408083208054680100000000000000018802019055848352600490915281206001851460e11b4260a01b17831790558284019083908390600080516020611e968339815191528180a4600183015b81811461133a5780836000600080516020611e96833981519152600080a4600101611314565b508160000361135b57604051622e076360e81b815260040160405180910390fd5b60005550505050565b600880546001600160a01b038381166001600160a01b0319831681179093556040519116919082907f8be0079c531659141344cd1fd0a4f28419497f9722a3daafe3b4186f6b6457e090600090a35050565b60008060006113c58585611651565b915091506113d281611696565b509392505050565b604051630a85bd0160e11b81526000906001600160a01b0385169063150b7a029061140f903390899088908890600401611e25565b6020604051808303816000875af192505050801561144a575060408051601f3d908101601f1916820190925261144791810190611e62565b60015b6114a8573d808015611478576040519150601f19603f3d011682016040523d82523d6000602084013e61147d565b606091505b5080516000036114a0576040516368d2bf6b60e11b815260040160405180910390fd5b805181602001fd5b6001600160e01b031916630a85bd0160e11b1490505b949350505050565b6060600980546106ec90611c60565b606060a06040510180604052602081039150506000815280825b600183039250600a81066030018353600a9004806114ef5750819003601f19909101908152919050565b600061152483611218565b90508060008061154286600090815260066020526040902080549091565b915091508415611582576115578184336108ca565b6115825761156583336110f3565b61158257604051632ce44b5f60e11b815260040160405180910390fd5b801561158d57600082555b6001600160a01b038316600081815260056020526040902080546fffffffffffffffffffffffffffffffff0190554260a01b17600360e01b17600087815260046020526040812091909155600160e11b8516900361161b576001860160008181526004602052604081205490036116195760005481146116195760008181526004602052604090208590555b505b60405186906000906001600160a01b03861690600080516020611e96833981519152908390a45050600180548101905550505050565b60008082516041036116875760208301516040840151606085015160001a61167b878285856117e0565b9450945050505061168f565b506000905060025b9250929050565b60008160048111156116aa576116aa611e7f565b036116b25750565b60018160048111156116c6576116c6611e7f565b036117135760405162461bcd60e51b815260206004820152601860248201527f45434453413a20696e76616c6964207369676e617475726500000000000000006044820152606401610b14565b600281600481111561172757611727611e7f565b036117745760405162461bcd60e51b815260206004820152601f60248201527f45434453413a20696e76616c6964207369676e6174757265206c656e677468006044820152606401610b14565b600381600481111561178857611788611e7f565b03610a825760405162461bcd60e51b815260206004820152602260248201527f45434453413a20696e76616c6964207369676e6174757265202773272076616c604482015261756560f01b6064820152608401610b14565b6000807f7fffffffffffffffffffffffffffffff5d576e7357a4501ddfe92f46681b20a0831115611817575060009050600361189b565b6040805160008082526020820180845289905260ff881692820192909252606081018690526080810185905260019060a0016020604051602081039080840390855afa15801561186b573d6000803e3d6000fd5b5050604051601f1901519150506001600160a01b0381166118945760006001925092505061189b565b9150600090505b94509492505050565b6001600160e01b031981168114610a8257600080fd5b6000602082840312156118cc57600080fd5b81356110ec816118a4565b803580151581146118e757600080fd5b919050565b6000602082840312156118fe57600080fd5b6110ec826118d7565b80356001600160a01b03811681146118e757600080fd5b60006020828403121561193057600080fd5b6110ec82611907565b60005b8381101561195457818101518382015260200161193c565b50506000910152565b60008151808452611975816020860160208601611939565b601f01601f19169290920160200192915050565b6020815260006110ec602083018461195d565b6000602082840312156119ae57600080fd5b5035919050565b600080604083850312156119c857600080fd5b6119d183611907565b946020939093013593505050565b6000806000606084860312156119f457600080fd5b6119fd84611907565b9250611a0b60208501611907565b9150604084013590509250925092565b634e487b7160e01b600052604160045260246000fd5b600067ffffffffffffffff80841115611a4c57611a4c611a1b565b604051601f8501601f19908116603f01168101908282118183101715611a7457611a74611a1b565b81604052809350858152868686011115611a8d57600080fd5b858560208301376000602087830101525050509392505050565b600082601f830112611ab857600080fd5b6110ec83833560208501611a31565b60008060008060808587031215611add57600080fd5b843593506020850135925060408501359150606085013567ffffffffffffffff811115611b0957600080fd5b611b1587828801611aa7565b91505092959194509250565b60008060008060808587031215611b3757600080fd5b8435935060208501359250611b4e60408601611907565b9150606085013567ffffffffffffffff811115611b0957600080fd5b600060208284031215611b7c57600080fd5b813567ffffffffffffffff811115611b9357600080fd5b8201601f81018413611ba457600080fd5b6114be84823560208401611a31565b60008060408385031215611bc657600080fd5b611bcf83611907565b9150611bdd602084016118d7565b90509250929050565b60008060008060808587031215611bfc57600080fd5b611c0585611907565b9350611c1360208601611907565b925060408501359150606085013567ffffffffffffffff811115611b0957600080fd5b60008060408385031215611c4957600080fd5b611c5283611907565b9150611bdd60208401611907565b600181811c90821680611c7457607f821691505b602082108103611c9457634e487b7160e01b600052602260045260246000fd5b50919050565b634e487b7160e01b600052600160045260246000fd5b634e487b7160e01b600052601160045260246000fd5b8082018082111561068a5761068a611cb0565b808202811582820484141761068a5761068a611cb0565b601f821115610aa057600081815260208120601f850160051c81016020861015611d175750805b601f850160051c820191505b818110156109fe57828155600101611d23565b815167ffffffffffffffff811115611d5057611d50611a1b565b611d6481611d5e8454611c60565b84611cf0565b602080601f831160018114611d995760008415611d815750858301515b600019600386901b1c1916600185901b1785556109fe565b600085815260208120601f198616915b82811015611dc857888601518255948401946001909101908401611da9565b5085821015611de65787850151600019600388901b60f8161c191681555b5050505050600190811b01905550565b60008351611e08818460208801611939565b835190830190611e1c818360208801611939565b01949350505050565b6001600160a01b0385811682528416602082015260408101839052608060608201819052600090611e589083018461195d565b9695505050505050565b600060208284031215611e7457600080fd5b81516110ec816118a4565b634e487b7160e01b600052602160045260246000fdfeddf252ad1be2c89b69c2b068fc378daa952ba7f163c4a11628f55a4df523b3efa2646970667358221220cc10ae34f2e47458fc10511041df7aa46d3482c04864dc07b415b87ffe4fc46264736f6c63430008110033",
					"opcodes": "PUSH1 0x80 PUSH1 0x40 MSTORE PUSH2 0x3E8 PUSH1 0xA SSTORE PUSH1 0x1 PUSH1 0xB SSTORE PUSH7 0x8E1BC9BF040000 PUSH1 0xC SSTORE PUSH1 0xD DUP1 SLOAD PUSH1 0x1 PUSH1 0x1 PUSH1 0xB0 SHL SUB NOT AND PUSH22 0x4E99031F4C39CD1AE173BC32E397DE77AC6D63950000 OR SWAP1 SSTORE CALLVALUE DUP1 ISZERO PUSH3 0x4F JUMPI PUSH1 0x0 DUP1 REVERT JUMPDEST POP PUSH1 0x40 MLOAD DUP1 PUSH1 0x40 ADD PUSH1 0x40 MSTORE DUP1 PUSH1 0x11 DUP2 MSTORE PUSH1 0x20 ADD PUSH17 0x4C616E6473206F66204D79746865736461 PUSH1 0x78 SHL DUP2 MSTORE POP PUSH1 0x40 MLOAD DUP1 PUSH1 0x40 ADD PUSH1 0x40 MSTORE DUP1 PUSH1 0x3 DUP2 MSTORE PUSH1 0x20 ADD PUSH3 0x4C4F4D PUSH1 0xE8 SHL DUP2 MSTORE POP DUP2 PUSH1 0x2 SWAP1 DUP2 PUSH3 0xA7 SWAP2 SWAP1 PUSH3 0x1C5 JUMP JUMPDEST POP PUSH1 0x3 PUSH3 0xB6 DUP3 DUP3 PUSH3 0x1C5 JUMP JUMPDEST POP POP PUSH1 0x0 DUP1 SSTORE POP PUSH3 0xC8 CALLER PUSH3 0xCE JUMP JUMPDEST PUSH3 0x291 JUMP JUMPDEST PUSH1 0x8 DUP1 SLOAD PUSH1 0x1 PUSH1 0x1 PUSH1 0xA0 SHL SUB DUP4 DUP2 AND PUSH1 0x1 PUSH1 0x1 PUSH1 0xA0 SHL SUB NOT DUP4 AND DUP2 OR SWAP1 SWAP4 SSTORE PUSH1 0x40 MLOAD SWAP2 AND SWAP2 SWAP1 DUP3 SWAP1 PUSH32 0x8BE0079C531659141344CD1FD0A4F28419497F9722A3DAAFE3B4186F6B6457E0 SWAP1 PUSH1 0x0 SWAP1 LOG3 POP POP JUMP JUMPDEST PUSH4 0x4E487B71 PUSH1 0xE0 SHL PUSH1 0x0 MSTORE PUSH1 0x41 PUSH1 0x4 MSTORE PUSH1 0x24 PUSH1 0x0 REVERT JUMPDEST PUSH1 0x1 DUP2 DUP2 SHR SWAP1 DUP3 AND DUP1 PUSH3 0x14B JUMPI PUSH1 0x7F DUP3 AND SWAP2 POP JUMPDEST PUSH1 0x20 DUP3 LT DUP2 SUB PUSH3 0x16C JUMPI PUSH4 0x4E487B71 PUSH1 0xE0 SHL PUSH1 0x0 MSTORE PUSH1 0x22 PUSH1 0x4 MSTORE PUSH1 0x24 PUSH1 0x0 REVERT JUMPDEST POP SWAP2 SWAP1 POP JUMP JUMPDEST PUSH1 0x1F DUP3 GT ISZERO PUSH3 0x1C0 JUMPI PUSH1 0x0 DUP2 DUP2 MSTORE PUSH1 0x20 DUP2 KECCAK256 PUSH1 0x1F DUP6 ADD PUSH1 0x5 SHR DUP2 ADD PUSH1 0x20 DUP7 LT ISZERO PUSH3 0x19B JUMPI POP DUP1 JUMPDEST PUSH1 0x1F DUP6 ADD PUSH1 0x5 SHR DUP3 ADD SWAP2 POP JUMPDEST DUP2 DUP2 LT ISZERO PUSH3 0x1BC JUMPI DUP3 DUP2 SSTORE PUSH1 0x1 ADD PUSH3 0x1A7 JUMP JUMPDEST POP POP POP JUMPDEST POP POP POP JUMP JUMPDEST DUP2 MLOAD PUSH1 0x1 PUSH1 0x1 PUSH1 0x40 SHL SUB DUP2 GT ISZERO PUSH3 0x1E1 JUMPI PUSH3 0x1E1 PUSH3 0x120 JUMP JUMPDEST PUSH3 0x1F9 DUP2 PUSH3 0x1F2 DUP5 SLOAD PUSH3 0x136 JUMP JUMPDEST DUP5 PUSH3 0x172 JUMP JUMPDEST PUSH1 0x20 DUP1 PUSH1 0x1F DUP4 GT PUSH1 0x1 DUP2 EQ PUSH3 0x231 JUMPI PUSH1 0x0 DUP5 ISZERO PUSH3 0x218 JUMPI POP DUP6 DUP4 ADD MLOAD JUMPDEST PUSH1 0x0 NOT PUSH1 0x3 DUP7 SWAP1 SHL SHR NOT AND PUSH1 0x1 DUP6 SWAP1 SHL OR DUP6 SSTORE PUSH3 0x1BC JUMP JUMPDEST PUSH1 0x0 DUP6 DUP2 MSTORE PUSH1 0x20 DUP2 KECCAK256 PUSH1 0x1F NOT DUP7 AND SWAP2 JUMPDEST DUP3 DUP2 LT ISZERO PUSH3 0x262 JUMPI DUP9 DUP7 ADD MLOAD DUP3 SSTORE SWAP5 DUP5 ADD SWAP5 PUSH1 0x1 SWAP1 SWAP2 ADD SWAP1 DUP5 ADD PUSH3 0x241 JUMP JUMPDEST POP DUP6 DUP3 LT ISZERO PUSH3 0x281 JUMPI DUP8 DUP6 ADD MLOAD PUSH1 0x0 NOT PUSH1 0x3 DUP9 SWAP1 SHL PUSH1 0xF8 AND SHR NOT AND DUP2 SSTORE JUMPDEST POP POP POP POP POP PUSH1 0x1 SWAP1 DUP2 SHL ADD SWAP1 SSTORE POP JUMP JUMPDEST PUSH2 0x1EEB DUP1 PUSH3 0x2A1 PUSH1 0x0 CODECOPY PUSH1 0x0 RETURN INVALID PUSH1 0x80 PUSH1 0x40 MSTORE PUSH1 0x4 CALLDATASIZE LT PUSH2 0x20F JUMPI PUSH1 0x0 CALLDATALOAD PUSH1 0xE0 SHR DUP1 PUSH4 0x5C975ABB GT PUSH2 0x118 JUMPI DUP1 PUSH4 0xA22CB465 GT PUSH2 0xA0 JUMPI DUP1 PUSH4 0xC87B56DD GT PUSH2 0x6F JUMPI DUP1 PUSH4 0xC87B56DD EQ PUSH2 0x5B2 JUMPI DUP1 PUSH4 0xCEDA0DBD EQ PUSH2 0x5D2 JUMPI DUP1 PUSH4 0xD5ABEB01 EQ PUSH2 0x5E8 JUMPI DUP1 PUSH4 0xE985E9C5 EQ PUSH2 0x5FE JUMPI DUP1 PUSH4 0xF2FDE38B EQ PUSH2 0x61E JUMPI PUSH1 0x0 DUP1 REVERT JUMPDEST DUP1 PUSH4 0xA22CB465 EQ PUSH2 0x53F JUMPI DUP1 PUSH4 0xB88D4FDE EQ PUSH2 0x55F JUMPI DUP1 PUSH4 0xC48B1FA6 EQ PUSH2 0x572 JUMPI DUP1 PUSH4 0xC6275255 EQ PUSH2 0x592 JUMPI PUSH1 0x0 DUP1 REVERT JUMPDEST DUP1 PUSH4 0x715018A6 GT PUSH2 0xE7 JUMPI DUP1 PUSH4 0x715018A6 EQ PUSH2 0x4B7 JUMPI DUP1 PUSH4 0x8DA5CB5B EQ PUSH2 0x4CC JUMPI DUP1 PUSH4 0x8F9DB08C EQ PUSH2 0x4EA JUMPI DUP1 PUSH4 0x95D89B41 EQ PUSH2 0x50A JUMPI DUP1 PUSH4 0xA0BCFC7F EQ PUSH2 0x51F JUMPI PUSH1 0x0 DUP1 REVERT JUMPDEST DUP1 PUSH4 0x5C975ABB EQ PUSH2 0x448 JUMPI DUP1 PUSH4 0x6352211E EQ PUSH2 0x462 JUMPI DUP1 PUSH4 0x6C0360EB EQ PUSH2 0x482 JUMPI DUP1 PUSH4 0x70A08231 EQ PUSH2 0x497 JUMPI PUSH1 0x0 DUP1 REVERT JUMPDEST DUP1 PUSH4 0x18160DDD GT PUSH2 0x19B JUMPI DUP1 PUSH4 0x42842E0E GT PUSH2 0x16A JUMPI DUP1 PUSH4 0x42842E0E EQ PUSH2 0x3BC JUMPI DUP1 PUSH4 0x42966C68 EQ PUSH2 0x3CF JUMPI DUP1 PUSH4 0x484B973C EQ PUSH2 0x3EF JUMPI DUP1 PUSH4 0x4A9EEE69 EQ PUSH2 0x40F JUMPI DUP1 PUSH4 0x5B7633D0 EQ PUSH2 0x422 JUMPI PUSH1 0x0 DUP1 REVERT JUMPDEST DUP1 PUSH4 0x18160DDD EQ PUSH2 0x369 JUMPI DUP1 PUSH4 0x23B872DD EQ PUSH2 0x382 JUMPI DUP1 PUSH4 0x26092B83 EQ PUSH2 0x395 JUMPI DUP1 PUSH4 0x3CCFD60B EQ PUSH2 0x3B4 JUMPI PUSH1 0x0 DUP1 REVERT JUMPDEST DUP1 PUSH4 0x81812FC GT PUSH2 0x1E2 JUMPI DUP1 PUSH4 0x81812FC EQ PUSH2 0x2AD JUMPI DUP1 PUSH4 0x95EA7B3 EQ PUSH2 0x2E5 JUMPI DUP1 PUSH4 0xA398B88 EQ PUSH2 0x2F8 JUMPI DUP1 PUSH4 0xBAB3262 EQ PUSH2 0x333 JUMPI DUP1 PUSH4 0xE2D56CF EQ PUSH2 0x349 JUMPI PUSH1 0x0 DUP1 REVERT JUMPDEST DUP1 PUSH4 0x1FFC9A7 EQ PUSH2 0x214 JUMPI DUP1 PUSH4 0x2329A29 EQ PUSH2 0x249 JUMPI DUP1 PUSH4 0x46DC166 EQ PUSH2 0x26B JUMPI DUP1 PUSH4 0x6FDDE03 EQ PUSH2 0x28B JUMPI JUMPDEST PUSH1 0x0 DUP1 REVERT JUMPDEST CALLVALUE DUP1 ISZERO PUSH2 0x220 JUMPI PUSH1 0x0 DUP1 REVERT JUMPDEST POP PUSH2 0x234 PUSH2 0x22F CALLDATASIZE PUSH1 0x4 PUSH2 0x18BA JUMP JUMPDEST PUSH2 0x63E JUMP JUMPDEST PUSH1 0x40 MLOAD SWAP1 ISZERO ISZERO DUP2 MSTORE PUSH1 0x20 ADD JUMPDEST PUSH1 0x40 MLOAD DUP1 SWAP2 SUB SWAP1 RETURN JUMPDEST CALLVALUE DUP1 ISZERO PUSH2 0x255 JUMPI PUSH1 0x0 DUP1 REVERT JUMPDEST POP PUSH2 0x269 PUSH2 0x264 CALLDATASIZE PUSH1 0x4 PUSH2 0x18EC JUMP JUMPDEST PUSH2 0x690 JUMP JUMPDEST STOP JUMPDEST CALLVALUE DUP1 ISZERO PUSH2 0x277 JUMPI PUSH1 0x0 DUP1 REVERT JUMPDEST POP PUSH2 0x269 PUSH2 0x286 CALLDATASIZE PUSH1 0x4 PUSH2 0x191E JUMP JUMPDEST PUSH2 0x6AB JUMP JUMPDEST CALLVALUE DUP1 ISZERO PUSH2 0x297 JUMPI PUSH1 0x0 DUP1 REVERT JUMPDEST POP PUSH2 0x2A0 PUSH2 0x6DD JUMP JUMPDEST PUSH1 0x40 MLOAD PUSH2 0x240 SWAP2 SWAP1 PUSH2 0x1989 JUMP JUMPDEST CALLVALUE DUP1 ISZERO PUSH2 0x2B9 JUMPI PUSH1 0x0 DUP1 REVERT JUMPDEST POP PUSH2 0x2CD PUSH2 0x2C8 CALLDATASIZE PUSH1 0x4 PUSH2 0x199C JUMP JUMPDEST PUSH2 0x76F JUMP JUMPDEST PUSH1 0x40 MLOAD PUSH1 0x1 PUSH1 0x1 PUSH1 0xA0 SHL SUB SWAP1 SWAP2 AND DUP2 MSTORE PUSH1 0x20 ADD PUSH2 0x240 JUMP JUMPDEST PUSH2 0x269 PUSH2 0x2F3 CALLDATASIZE PUSH1 0x4 PUSH2 0x19B5 JUMP JUMPDEST PUSH2 0x7B3 JUMP JUMPDEST CALLVALUE DUP1 ISZERO PUSH2 0x304 JUMPI PUSH1 0x0 DUP1 REVERT JUMPDEST POP PUSH2 0x325 PUSH2 0x313 CALLDATASIZE PUSH1 0x4 PUSH2 0x191E JUMP JUMPDEST PUSH1 0xE PUSH1 0x20 MSTORE PUSH1 0x0 SWAP1 DUP2 MSTORE PUSH1 0x40 SWAP1 KECCAK256 SLOAD DUP2 JUMP JUMPDEST PUSH1 0x40 MLOAD SWAP1 DUP2 MSTORE PUSH1 0x20 ADD PUSH2 0x240 JUMP JUMPDEST CALLVALUE DUP1 ISZERO PUSH2 0x33F JUMPI PUSH1 0x0 DUP1 REVERT JUMPDEST POP PUSH2 0x325 PUSH1 0xB SLOAD DUP2 JUMP JUMPDEST CALLVALUE DUP1 ISZERO PUSH2 0x355 JUMPI PUSH1 0x0 DUP1 REVERT JUMPDEST POP PUSH2 0x269 PUSH2 0x364 CALLDATASIZE PUSH1 0x4 PUSH2 0x18EC JUMP JUMPDEST PUSH2 0x853 JUMP JUMPDEST CALLVALUE DUP1 ISZERO PUSH2 0x375 JUMPI PUSH1 0x0 DUP1 REVERT JUMPDEST POP PUSH1 0x1 SLOAD PUSH1 0x0 SLOAD SUB PUSH2 0x325 JUMP JUMPDEST PUSH2 0x269 PUSH2 0x390 CALLDATASIZE PUSH1 0x4 PUSH2 0x19DF JUMP JUMPDEST PUSH2 0x875 JUMP JUMPDEST CALLVALUE DUP1 ISZERO PUSH2 0x3A1 JUMPI PUSH1 0x0 DUP1 REVERT JUMPDEST POP PUSH1 0xD SLOAD PUSH2 0x234 SWAP1 PUSH2 0x100 SWAP1 DIV PUSH1 0xFF AND DUP2 JUMP JUMPDEST PUSH2 0x269 PUSH2 0xA06 JUMP JUMPDEST PUSH2 0x269 PUSH2 0x3CA CALLDATASIZE PUSH1 0x4 PUSH2 0x19DF JUMP JUMPDEST PUSH2 0xA85 JUMP JUMPDEST CALLVALUE DUP1 ISZERO PUSH2 0x3DB JUMPI PUSH1 0x0 DUP1 REVERT JUMPDEST POP PUSH2 0x269 PUSH2 0x3EA CALLDATASIZE PUSH1 0x4 PUSH2 0x199C JUMP JUMPDEST PUSH2 0xAA5 JUMP JUMPDEST CALLVALUE DUP1 ISZERO PUSH2 0x3FB JUMPI PUSH1 0x0 DUP1 REVERT JUMPDEST POP PUSH2 0x269 PUSH2 0x40A CALLDATASIZE PUSH1 0x4 PUSH2 0x19B5 JUMP JUMPDEST PUSH2 0xAB6 JUMP JUMPDEST PUSH2 0x269 PUSH2 0x41D CALLDATASIZE PUSH1 0x4 PUSH2 0x1AC7 JUMP JUMPDEST PUSH2 0xACC JUMP JUMPDEST CALLVALUE DUP1 ISZERO PUSH2 0x42E JUMPI PUSH1 0x0 DUP1 REVERT JUMPDEST POP PUSH1 0xD SLOAD PUSH2 0x2CD SWAP1 PUSH3 0x10000 SWAP1 DIV PUSH1 0x1 PUSH1 0x1 PUSH1 0xA0 SHL SUB AND DUP2 JUMP JUMPDEST CALLVALUE DUP1 ISZERO PUSH2 0x454 JUMPI PUSH1 0x0 DUP1 REVERT JUMPDEST POP PUSH1 0xD SLOAD PUSH2 0x234 SWAP1 PUSH1 0xFF AND DUP2 JUMP JUMPDEST CALLVALUE DUP1 ISZERO PUSH2 0x46E JUMPI PUSH1 0x0 DUP1 REVERT JUMPDEST POP PUSH2 0x2CD PUSH2 0x47D CALLDATASIZE PUSH1 0x4 PUSH2 0x199C JUMP JUMPDEST PUSH2 0xD90 JUMP JUMPDEST CALLVALUE DUP1 ISZERO PUSH2 0x48E JUMPI PUSH1 0x0 DUP1 REVERT JUMPDEST POP PUSH2 0x2A0 PUSH2 0xD9B JUMP JUMPDEST CALLVALUE DUP1 ISZERO PUSH2 0x4A3 JUMPI PUSH1 0x0 DUP1 REVERT JUMPDEST POP PUSH2 0x325 PUSH2 0x4B2 CALLDATASIZE PUSH1 0x4 PUSH2 0x191E JUMP JUMPDEST PUSH2 0xE29 JUMP JUMPDEST CALLVALUE DUP1 ISZERO PUSH2 0x4C3 JUMPI PUSH1 0x0 DUP1 REVERT JUMPDEST POP PUSH2 0x269 PUSH2 0xE78 JUMP JUMPDEST CALLVALUE DUP1 ISZERO PUSH2 0x4D8 JUMPI PUSH1 0x0 DUP1 REVERT JUMPDEST POP PUSH1 0x8 SLOAD PUSH1 0x1 PUSH1 0x1 PUSH1 0xA0 SHL SUB AND PUSH2 0x2CD JUMP JUMPDEST CALLVALUE DUP1 ISZERO PUSH2 0x4F6 JUMPI PUSH1 0x0 DUP1 REVERT JUMPDEST POP PUSH2 0x269 PUSH2 0x505 CALLDATASIZE PUSH1 0x4 PUSH2 0x1B21 JUMP JUMPDEST PUSH2 0xE8C JUMP JUMPDEST CALLVALUE DUP1 ISZERO PUSH2 0x516 JUMPI PUSH1 0x0 DUP1 REVERT JUMPDEST POP PUSH2 0x2A0 PUSH2 0xF7C JUMP JUMPDEST CALLVALUE DUP1 ISZERO PUSH2 0x52B JUMPI PUSH1 0x0 DUP1 REVERT JUMPDEST POP PUSH2 0x269 PUSH2 0x53A CALLDATASIZE PUSH1 0x4 PUSH2 0x1B6A JUMP JUMPDEST PUSH2 0xF8B JUMP JUMPDEST CALLVALUE DUP1 ISZERO PUSH2 0x54B JUMPI PUSH1 0x0 DUP1 REVERT JUMPDEST POP PUSH2 0x269 PUSH2 0x55A CALLDATASIZE PUSH1 0x4 PUSH2 0x1BB3 JUMP JUMPDEST PUSH2 0xF9F JUMP JUMPDEST PUSH2 0x269 PUSH2 0x56D CALLDATASIZE PUSH1 0x4 PUSH2 0x1BE6 JUMP JUMPDEST PUSH2 0x100B JUMP JUMPDEST CALLVALUE DUP1 ISZERO PUSH2 0x57E JUMPI PUSH1 0x0 DUP1 REVERT JUMPDEST POP PUSH2 0x269 PUSH2 0x58D CALLDATASIZE PUSH1 0x4 PUSH2 0x199C JUMP JUMPDEST PUSH2 0x1055 JUMP JUMPDEST CALLVALUE DUP1 ISZERO PUSH2 0x59E JUMPI PUSH1 0x0 DUP1 REVERT JUMPDEST POP PUSH2 0x269 PUSH2 0x5AD CALLDATASIZE PUSH1 0x4 PUSH2 0x199C JUMP JUMPDEST PUSH2 0x1062 JUMP JUMPDEST CALLVALUE DUP1 ISZERO PUSH2 0x5BE JUMPI PUSH1 0x0 DUP1 REVERT JUMPDEST POP PUSH2 0x2A0 PUSH2 0x5CD CALLDATASIZE PUSH1 0x4 PUSH2 0x199C JUMP JUMPDEST PUSH2 0x106F JUMP JUMPDEST CALLVALUE DUP1 ISZERO PUSH2 0x5DE JUMPI PUSH1 0x0 DUP1 REVERT JUMPDEST POP PUSH2 0x325 PUSH1 0xC SLOAD DUP2 JUMP JUMPDEST CALLVALUE DUP1 ISZERO PUSH2 0x5F4 JUMPI PUSH1 0x0 DUP1 REVERT JUMPDEST POP PUSH2 0x325 PUSH1 0xA SLOAD DUP2 JUMP JUMPDEST CALLVALUE DUP1 ISZERO PUSH2 0x60A JUMPI PUSH1 0x0 DUP1 REVERT JUMPDEST POP PUSH2 0x234 PUSH2 0x619 CALLDATASIZE PUSH1 0x4 PUSH2 0x1C36 JUMP JUMPDEST PUSH2 0x10F3 JUMP JUMPDEST CALLVALUE DUP1 ISZERO PUSH2 0x62A JUMPI PUSH1 0x0 DUP1 REVERT JUMPDEST POP PUSH2 0x269 PUSH2 0x639 CALLDATASIZE PUSH1 0x4 PUSH2 0x191E JUMP JUMPDEST PUSH2 0x1121 JUMP JUMPDEST PUSH1 0x0 PUSH4 0x1FFC9A7 PUSH1 0xE0 SHL PUSH1 0x1 PUSH1 0x1 PUSH1 0xE0 SHL SUB NOT DUP4 AND EQ DUP1 PUSH2 0x66F JUMPI POP PUSH4 0x80AC58CD PUSH1 0xE0 SHL PUSH1 0x1 PUSH1 0x1 PUSH1 0xE0 SHL SUB NOT DUP4 AND EQ JUMPDEST DUP1 PUSH2 0x68A JUMPI POP PUSH4 0x5B5E139F PUSH1 0xE0 SHL PUSH1 0x1 PUSH1 0x1 PUSH1 0xE0 SHL SUB NOT DUP4 AND EQ JUMPDEST SWAP3 SWAP2 POP POP JUMP JUMPDEST PUSH2 0x698 PUSH2 0x1197 JUMP JUMPDEST PUSH1 0xD DUP1 SLOAD PUSH1 0xFF NOT AND SWAP2 ISZERO ISZERO SWAP2 SWAP1 SWAP2 OR SWAP1 SSTORE JUMP JUMPDEST PUSH2 0x6B3 PUSH2 0x1197 JUMP JUMPDEST PUSH1 0xD DUP1 SLOAD PUSH1 0x1 PUSH1 0x1 PUSH1 0xA0 SHL SUB SWAP1 SWAP3 AND PUSH3 0x10000 MUL PUSH3 0x10000 PUSH1 0x1 PUSH1 0xB0 SHL SUB NOT SWAP1 SWAP3 AND SWAP2 SWAP1 SWAP2 OR SWAP1 SSTORE JUMP JUMPDEST PUSH1 0x60 PUSH1 0x2 DUP1 SLOAD PUSH2 0x6EC SWAP1 PUSH2 0x1C60 JUMP JUMPDEST DUP1 PUSH1 0x1F ADD PUSH1 0x20 DUP1 SWAP2 DIV MUL PUSH1 0x20 ADD PUSH1 0x40 MLOAD SWAP1 DUP2 ADD PUSH1 0x40 MSTORE DUP1 SWAP3 SWAP2 SWAP1 DUP2 DUP2 MSTORE PUSH1 0x20 ADD DUP3 DUP1 SLOAD PUSH2 0x718 SWAP1 PUSH2 0x1C60 JUMP JUMPDEST DUP1 ISZERO PUSH2 0x765 JUMPI DUP1 PUSH1 0x1F LT PUSH2 0x73A JUMPI PUSH2 0x100 DUP1 DUP4 SLOAD DIV MUL DUP4 MSTORE SWAP2 PUSH1 0x20 ADD SWAP2 PUSH2 0x765 JUMP JUMPDEST DUP3 ADD SWAP2 SWAP1 PUSH1 0x0 MSTORE PUSH1 0x20 PUSH1 0x0 KECCAK256 SWAP1 JUMPDEST DUP2 SLOAD DUP2 MSTORE SWAP1 PUSH1 0x1 ADD SWAP1 PUSH1 0x20 ADD DUP1 DUP4 GT PUSH2 0x748 JUMPI DUP3 SWAP1 SUB PUSH1 0x1F AND DUP3 ADD SWAP2 JUMPDEST POP POP POP POP POP SWAP1 POP SWAP1 JUMP JUMPDEST PUSH1 0x0 PUSH2 0x77A DUP3 PUSH2 0x11F1 JUMP JUMPDEST PUSH2 0x797 JUMPI PUSH1 0x40 MLOAD PUSH4 0x33D1C039 PUSH1 0xE2 SHL DUP2 MSTORE PUSH1 0x4 ADD PUSH1 0x40 MLOAD DUP1 SWAP2 SUB SWAP1 REVERT JUMPDEST POP PUSH1 0x0 SWAP1 DUP2 MSTORE PUSH1 0x6 PUSH1 0x20 MSTORE PUSH1 0x40 SWAP1 KECCAK256 SLOAD PUSH1 0x1 PUSH1 0x1 PUSH1 0xA0 SHL SUB AND SWAP1 JUMP JUMPDEST PUSH1 0x0 PUSH2 0x7BE DUP3 PUSH2 0xD90 JUMP JUMPDEST SWAP1 POP CALLER PUSH1 0x1 PUSH1 0x1 PUSH1 0xA0 SHL SUB DUP3 AND EQ PUSH2 0x7F7 JUMPI PUSH2 0x7DA DUP2 CALLER PUSH2 0x10F3 JUMP JUMPDEST PUSH2 0x7F7 JUMPI PUSH1 0x40 MLOAD PUSH4 0x67D9DCA1 PUSH1 0xE1 SHL DUP2 MSTORE PUSH1 0x4 ADD PUSH1 0x40 MLOAD DUP1 SWAP2 SUB SWAP1 REVERT JUMPDEST PUSH1 0x0 DUP3 DUP2 MSTORE PUSH1 0x6 PUSH1 0x20 MSTORE PUSH1 0x40 DUP1 DUP3 KECCAK256 DUP1 SLOAD PUSH1 0x1 PUSH1 0x1 PUSH1 0xA0 SHL SUB NOT AND PUSH1 0x1 PUSH1 0x1 PUSH1 0xA0 SHL SUB DUP8 DUP2 AND SWAP2 DUP3 OR SWAP1 SWAP3 SSTORE SWAP2 MLOAD DUP6 SWAP4 SWAP2 DUP6 AND SWAP2 PUSH32 0x8C5BE1E5EBEC7D5BD14F71427D1E84F3DD0314C0F7B2291E5B200AC8C7C3B925 SWAP2 LOG4 POP POP POP JUMP JUMPDEST PUSH2 0x85B PUSH2 0x1197 JUMP JUMPDEST PUSH1 0xD DUP1 SLOAD SWAP2 ISZERO ISZERO PUSH2 0x100 MUL PUSH2 0xFF00 NOT SWAP1 SWAP3 AND SWAP2 SWAP1 SWAP2 OR SWAP1 SSTORE JUMP JUMPDEST PUSH1 0x0 PUSH2 0x880 DUP3 PUSH2 0x1218 JUMP JUMPDEST SWAP1 POP DUP4 PUSH1 0x1 PUSH1 0x1 PUSH1 0xA0 SHL SUB AND DUP2 PUSH1 0x1 PUSH1 0x1 PUSH1 0xA0 SHL SUB AND EQ PUSH2 0x8B3 JUMPI PUSH1 0x40 MLOAD PUSH3 0xA11481 PUSH1 0xE8 SHL DUP2 MSTORE PUSH1 0x4 ADD PUSH1 0x40 MLOAD DUP1 SWAP2 SUB SWAP1 REVERT JUMPDEST PUSH1 0x0 DUP3 DUP2 MSTORE PUSH1 0x6 PUSH1 0x20 MSTORE PUSH1 0x40 SWAP1 KECCAK256 DUP1 SLOAD PUSH2 0x8DF DUP2 DUP8 CALLER JUMPDEST PUSH1 0x1 PUSH1 0x1 PUSH1 0xA0 SHL SUB SWAP1 DUP2 AND SWAP2 AND DUP2 EQ SWAP2 EQ OR SWAP1 JUMP JUMPDEST PUSH2 0x90A JUMPI PUSH2 0x8ED DUP7 CALLER PUSH2 0x10F3 JUMP JUMPDEST PUSH2 0x90A JUMPI PUSH1 0x40 MLOAD PUSH4 0x2CE44B5F PUSH1 0xE1 SHL DUP2 MSTORE PUSH1 0x4 ADD PUSH1 0x40 MLOAD DUP1 SWAP2 SUB SWAP1 REVERT JUMPDEST PUSH1 0x1 PUSH1 0x1 PUSH1 0xA0 SHL SUB DUP6 AND PUSH2 0x931 JUMPI PUSH1 0x40 MLOAD PUSH4 0x3A954ECD PUSH1 0xE2 SHL DUP2 MSTORE PUSH1 0x4 ADD PUSH1 0x40 MLOAD DUP1 SWAP2 SUB SWAP1 REVERT JUMPDEST DUP1 ISZERO PUSH2 0x93C JUMPI PUSH1 0x0 DUP3 SSTORE JUMPDEST PUSH1 0x1 PUSH1 0x1 PUSH1 0xA0 SHL SUB DUP7 DUP2 AND PUSH1 0x0 SWAP1 DUP2 MSTORE PUSH1 0x5 PUSH1 0x20 MSTORE PUSH1 0x40 DUP1 DUP3 KECCAK256 DUP1 SLOAD PUSH1 0x0 NOT ADD SWAP1 SSTORE SWAP2 DUP8 AND DUP1 DUP3 MSTORE SWAP2 SWAP1 KECCAK256 DUP1 SLOAD PUSH1 0x1 ADD SWAP1 SSTORE TIMESTAMP PUSH1 0xA0 SHL OR PUSH1 0x1 PUSH1 0xE1 SHL OR PUSH1 0x0 DUP6 DUP2 MSTORE PUSH1 0x4 PUSH1 0x20 MSTORE PUSH1 0x40 DUP2 KECCAK256 SWAP2 SWAP1 SWAP2 SSTORE PUSH1 0x1 PUSH1 0xE1 SHL DUP5 AND SWAP1 SUB PUSH2 0x9CE JUMPI PUSH1 0x1 DUP5 ADD PUSH1 0x0 DUP2 DUP2 MSTORE PUSH1 0x4 PUSH1 0x20 MSTORE PUSH1 0x40 DUP2 KECCAK256 SLOAD SWAP1 SUB PUSH2 0x9CC JUMPI PUSH1 0x0 SLOAD DUP2 EQ PUSH2 0x9CC JUMPI PUSH1 0x0 DUP2 DUP2 MSTORE PUSH1 0x4 PUSH1 0x20 MSTORE PUSH1 0x40 SWAP1 KECCAK256 DUP5 SWAP1 SSTORE JUMPDEST POP JUMPDEST DUP4 DUP6 PUSH1 0x1 PUSH1 0x1 PUSH1 0xA0 SHL SUB AND DUP8 PUSH1 0x1 PUSH1 0x1 PUSH1 0xA0 SHL SUB AND PUSH1 0x0 DUP1 MLOAD PUSH1 0x20 PUSH2 0x1E96 DUP4 CODECOPY DUP2 MLOAD SWAP2 MSTORE PUSH1 0x40 MLOAD PUSH1 0x40 MLOAD DUP1 SWAP2 SUB SWAP1 LOG4 JUMPDEST POP POP POP POP POP POP JUMP JUMPDEST PUSH2 0xA0E PUSH2 0x1197 JUMP JUMPDEST PUSH1 0x0 PUSH2 0xA22 PUSH1 0x8 SLOAD PUSH1 0x1 PUSH1 0x1 PUSH1 0xA0 SHL SUB AND SWAP1 JUMP JUMPDEST PUSH1 0x1 PUSH1 0x1 PUSH1 0xA0 SHL SUB AND SELFBALANCE PUSH1 0x40 MLOAD PUSH1 0x0 PUSH1 0x40 MLOAD DUP1 DUP4 SUB DUP2 DUP6 DUP8 GAS CALL SWAP3 POP POP POP RETURNDATASIZE DUP1 PUSH1 0x0 DUP2 EQ PUSH2 0xA6C JUMPI PUSH1 0x40 MLOAD SWAP2 POP PUSH1 0x1F NOT PUSH1 0x3F RETURNDATASIZE ADD AND DUP3 ADD PUSH1 0x40 MSTORE RETURNDATASIZE DUP3 MSTORE RETURNDATASIZE PUSH1 0x0 PUSH1 0x20 DUP5 ADD RETURNDATACOPY PUSH2 0xA71 JUMP JUMPDEST PUSH1 0x60 SWAP2 POP JUMPDEST POP POP SWAP1 POP DUP1 PUSH2 0xA82 JUMPI PUSH2 0xA82 PUSH2 0x1C9A JUMP JUMPDEST POP JUMP JUMPDEST PUSH2 0xAA0 DUP4 DUP4 DUP4 PUSH1 0x40 MLOAD DUP1 PUSH1 0x20 ADD PUSH1 0x40 MSTORE DUP1 PUSH1 0x0 DUP2 MSTORE POP PUSH2 0x100B JUMP JUMPDEST POP POP POP JUMP JUMPDEST PUSH2 0xAAD PUSH2 0x1197 JUMP JUMPDEST PUSH2 0xA82 DUP2 PUSH2 0x127F JUMP JUMPDEST PUSH2 0xABE PUSH2 0x1197 JUMP JUMPDEST PUSH2 0xAC8 DUP3 DUP3 PUSH2 0x128A JUMP JUMPDEST POP POP JUMP JUMPDEST PUSH1 0xD SLOAD PUSH1 0xFF AND ISZERO PUSH2 0xB1D JUMPI PUSH1 0x40 MLOAD PUSH3 0x461BCD PUSH1 0xE5 SHL DUP2 MSTORE PUSH1 0x20 PUSH1 0x4 DUP3 ADD MSTORE PUSH1 0x16 PUSH1 0x24 DUP3 ADD MSTORE PUSH22 0x151A194818DBDB9D1C9858DD081A5CC81C185D5CD959 PUSH1 0x52 SHL PUSH1 0x44 DUP3 ADD MSTORE PUSH1 0x64 ADD JUMPDEST PUSH1 0x40 MLOAD DUP1 SWAP2 SUB SWAP1 REVERT JUMPDEST PUSH1 0x0 PUSH2 0xB2C PUSH1 0x1 SLOAD PUSH1 0x0 SLOAD SUB SWAP1 JUMP JUMPDEST SWAP1 POP PUSH1 0x0 DUP6 GT PUSH2 0xB7E JUMPI PUSH1 0x40 MLOAD PUSH3 0x461BCD PUSH1 0xE5 SHL DUP2 MSTORE PUSH1 0x20 PUSH1 0x4 DUP3 ADD MSTORE PUSH1 0x1B PUSH1 0x24 DUP3 ADD MSTORE PUSH32 0x4E65656420746F206D696E74206174206C656173742031204E46540000000000 PUSH1 0x44 DUP3 ADD MSTORE PUSH1 0x64 ADD PUSH2 0xB14 JUMP JUMPDEST PUSH1 0xA SLOAD PUSH2 0xB8B DUP7 DUP4 PUSH2 0x1CC6 JUMP JUMPDEST GT ISZERO PUSH2 0xBD2 JUMPI PUSH1 0x40 MLOAD PUSH3 0x461BCD PUSH1 0xE5 SHL DUP2 MSTORE PUSH1 0x20 PUSH1 0x4 DUP3 ADD MSTORE PUSH1 0x16 PUSH1 0x24 DUP3 ADD MSTORE PUSH22 0x13585E08139195081B1A5B5A5D08195E18D959591959 PUSH1 0x52 SHL PUSH1 0x44 DUP3 ADD MSTORE PUSH1 0x64 ADD PUSH2 0xB14 JUMP JUMPDEST CALLER PUSH1 0x0 SWAP1 DUP2 MSTORE PUSH1 0xE PUSH1 0x20 MSTORE PUSH1 0x40 SWAP1 KECCAK256 SLOAD PUSH1 0xD SLOAD PUSH2 0x100 SWAP1 DIV PUSH1 0xFF AND PUSH2 0xCAA JUMPI PUSH2 0xBFD DUP6 DUP6 CALLER DUP7 PUSH2 0xE8C JUMP JUMPDEST DUP5 PUSH2 0xC08 DUP8 DUP4 PUSH2 0x1CC6 JUMP JUMPDEST GT ISZERO PUSH2 0xC56 JUMPI PUSH1 0x40 MLOAD PUSH3 0x461BCD PUSH1 0xE5 SHL DUP2 MSTORE PUSH1 0x20 PUSH1 0x4 DUP3 ADD MSTORE PUSH1 0x1C PUSH1 0x24 DUP3 ADD MSTORE PUSH32 0x4D6178204E465420666F72206164647265737320657863656564656400000000 PUSH1 0x44 DUP3 ADD MSTORE PUSH1 0x64 ADD PUSH2 0xB14 JUMP JUMPDEST PUSH2 0xC60 DUP7 DUP6 PUSH2 0x1CD9 JUMP JUMPDEST CALLVALUE LT ISZERO PUSH2 0xCA5 JUMPI PUSH1 0x40 MLOAD PUSH3 0x461BCD PUSH1 0xE5 SHL DUP2 MSTORE PUSH1 0x20 PUSH1 0x4 DUP3 ADD MSTORE PUSH1 0x13 PUSH1 0x24 DUP3 ADD MSTORE PUSH19 0x496E73756666696369656E7420666F756E6473 PUSH1 0x68 SHL PUSH1 0x44 DUP3 ADD MSTORE PUSH1 0x64 ADD PUSH2 0xB14 JUMP JUMPDEST PUSH2 0xD58 JUMP JUMPDEST PUSH1 0xB SLOAD PUSH2 0xCB7 DUP8 DUP4 PUSH2 0x1CC6 JUMP JUMPDEST GT ISZERO PUSH2 0xD05 JUMPI PUSH1 0x40 MLOAD PUSH3 0x461BCD PUSH1 0xE5 SHL DUP2 MSTORE PUSH1 0x20 PUSH1 0x4 DUP3 ADD MSTORE PUSH1 0x1C PUSH1 0x24 DUP3 ADD MSTORE PUSH32 0x4D6178204E465420666F72206164647265737320657863656564656400000000 PUSH1 0x44 DUP3 ADD MSTORE PUSH1 0x64 ADD PUSH2 0xB14 JUMP JUMPDEST DUP6 PUSH1 0xC SLOAD PUSH2 0xD13 SWAP2 SWAP1 PUSH2 0x1CD9 JUMP JUMPDEST CALLVALUE LT ISZERO PUSH2 0xD58 JUMPI PUSH1 0x40 MLOAD PUSH3 0x461BCD PUSH1 0xE5 SHL DUP2 MSTORE PUSH1 0x20 PUSH1 0x4 DUP3 ADD MSTORE PUSH1 0x13 PUSH1 0x24 DUP3 ADD MSTORE PUSH19 0x496E73756666696369656E7420666F756E6473 PUSH1 0x68 SHL PUSH1 0x44 DUP3 ADD MSTORE PUSH1 0x64 ADD PUSH2 0xB14 JUMP JUMPDEST CALLER PUSH1 0x0 SWAP1 DUP2 MSTORE PUSH1 0xE PUSH1 0x20 MSTORE PUSH1 0x40 SWAP1 KECCAK256 SLOAD PUSH2 0xD73 SWAP1 DUP8 SWAP1 PUSH2 0x1CC6 JUMP JUMPDEST CALLER PUSH1 0x0 DUP2 DUP2 MSTORE PUSH1 0xE PUSH1 0x20 MSTORE PUSH1 0x40 SWAP1 KECCAK256 SWAP2 SWAP1 SWAP2 SSTORE PUSH2 0x9FE SWAP1 DUP8 PUSH2 0x128A JUMP JUMPDEST PUSH1 0x0 PUSH2 0x68A DUP3 PUSH2 0x1218 JUMP JUMPDEST PUSH1 0x9 DUP1 SLOAD PUSH2 0xDA8 SWAP1 PUSH2 0x1C60 JUMP JUMPDEST DUP1 PUSH1 0x1F ADD PUSH1 0x20 DUP1 SWAP2 DIV MUL PUSH1 0x20 ADD PUSH1 0x40 MLOAD SWAP1 DUP2 ADD PUSH1 0x40 MSTORE DUP1 SWAP3 SWAP2 SWAP1 DUP2 DUP2 MSTORE PUSH1 0x20 ADD DUP3 DUP1 SLOAD PUSH2 0xDD4 SWAP1 PUSH2 0x1C60 JUMP JUMPDEST DUP1 ISZERO PUSH2 0xE21 JUMPI DUP1 PUSH1 0x1F LT PUSH2 0xDF6 JUMPI PUSH2 0x100 DUP1 DUP4 SLOAD DIV MUL DUP4 MSTORE SWAP2 PUSH1 0x20 ADD SWAP2 PUSH2 0xE21 JUMP JUMPDEST DUP3 ADD SWAP2 SWAP1 PUSH1 0x0 MSTORE PUSH1 0x20 PUSH1 0x0 KECCAK256 SWAP1 JUMPDEST DUP2 SLOAD DUP2 MSTORE SWAP1 PUSH1 0x1 ADD SWAP1 PUSH1 0x20 ADD DUP1 DUP4 GT PUSH2 0xE04 JUMPI DUP3 SWAP1 SUB PUSH1 0x1F AND DUP3 ADD SWAP2 JUMPDEST POP POP POP POP POP DUP2 JUMP JUMPDEST PUSH1 0x0 PUSH1 0x1 PUSH1 0x1 PUSH1 0xA0 SHL SUB DUP3 AND PUSH2 0xE52 JUMPI PUSH1 0x40 MLOAD PUSH4 0x23D3AD81 PUSH1 0xE2 SHL DUP2 MSTORE PUSH1 0x4 ADD PUSH1 0x40 MLOAD DUP1 SWAP2 SUB SWAP1 REVERT JUMPDEST POP PUSH1 0x1 PUSH1 0x1 PUSH1 0xA0 SHL SUB AND PUSH1 0x0 SWAP1 DUP2 MSTORE PUSH1 0x5 PUSH1 0x20 MSTORE PUSH1 0x40 SWAP1 KECCAK256 SLOAD PUSH8 0xFFFFFFFFFFFFFFFF AND SWAP1 JUMP JUMPDEST PUSH2 0xE80 PUSH2 0x1197 JUMP JUMPDEST PUSH2 0xE8A PUSH1 0x0 PUSH2 0x1364 JUMP JUMPDEST JUMP JUMPDEST PUSH1 0x40 DUP1 MLOAD PUSH1 0x20 DUP1 DUP3 ADD DUP8 SWAP1 MSTORE DUP2 DUP4 ADD DUP7 SWAP1 MSTORE PUSH1 0x60 DUP6 DUP2 SHL PUSH12 0xFFFFFFFFFFFFFFFFFFFFFFFF NOT AND SWAP1 DUP4 ADD MSTORE DUP3 MLOAD DUP1 DUP4 SUB PUSH1 0x54 ADD DUP2 MSTORE PUSH1 0x74 DUP4 ADD DUP5 MSTORE DUP1 MLOAD SWAP1 DUP3 ADD KECCAK256 PUSH32 0x19457468657265756D205369676E6564204D6573736167653A0A333200000000 PUSH1 0x94 DUP5 ADD MSTORE PUSH1 0xB0 DUP1 DUP5 ADD DUP3 SWAP1 MSTORE DUP5 MLOAD DUP1 DUP6 SUB SWAP1 SWAP2 ADD DUP2 MSTORE PUSH1 0xD0 SWAP1 SWAP4 ADD SWAP1 SWAP4 MSTORE DUP2 MLOAD SWAP2 ADD KECCAK256 PUSH1 0x0 PUSH2 0xF1D DUP3 DUP6 PUSH2 0x13B6 JUMP JUMPDEST PUSH1 0xD SLOAD SWAP1 SWAP2 POP PUSH1 0x1 PUSH1 0x1 PUSH1 0xA0 SHL SUB DUP1 DUP4 AND PUSH3 0x10000 SWAP1 SWAP3 DIV AND EQ PUSH2 0xF73 JUMPI PUSH1 0x40 MLOAD PUSH3 0x461BCD PUSH1 0xE5 SHL DUP2 MSTORE PUSH1 0x20 PUSH1 0x4 DUP3 ADD MSTORE PUSH1 0xD PUSH1 0x24 DUP3 ADD MSTORE PUSH13 0x426164207369676E6174757265 PUSH1 0x98 SHL PUSH1 0x44 DUP3 ADD MSTORE PUSH1 0x64 ADD PUSH2 0xB14 JUMP JUMPDEST POP POP POP POP POP POP POP JUMP JUMPDEST PUSH1 0x60 PUSH1 0x3 DUP1 SLOAD PUSH2 0x6EC SWAP1 PUSH2 0x1C60 JUMP JUMPDEST PUSH2 0xF93 PUSH2 0x1197 JUMP JUMPDEST PUSH1 0x9 PUSH2 0xAC8 DUP3 DUP3 PUSH2 0x1D36 JUMP JUMPDEST CALLER PUSH1 0x0 DUP2 DUP2 MSTORE PUSH1 0x7 PUSH1 0x20 SWAP1 DUP2 MSTORE PUSH1 0x40 DUP1 DUP4 KECCAK256 PUSH1 0x1 PUSH1 0x1 PUSH1 0xA0 SHL SUB DUP8 AND DUP1 DUP6 MSTORE SWAP1 DUP4 MSTORE SWAP3 DUP2 SWAP1 KECCAK256 DUP1 SLOAD PUSH1 0xFF NOT AND DUP7 ISZERO ISZERO SWAP1 DUP2 OR SWAP1 SWAP2 SSTORE SWAP1 MLOAD SWAP1 DUP2 MSTORE SWAP2 SWAP3 SWAP2 PUSH32 0x17307EAB39AB6107E8899845AD3D59BD9653F200F220920489CA2B5937696C31 SWAP2 ADD PUSH1 0x40 MLOAD DUP1 SWAP2 SUB SWAP1 LOG3 POP POP JUMP JUMPDEST PUSH2 0x1016 DUP5 DUP5 DUP5 PUSH2 0x875 JUMP JUMPDEST PUSH1 0x1 PUSH1 0x1 PUSH1 0xA0 SHL SUB DUP4 AND EXTCODESIZE ISZERO PUSH2 0x104F JUMPI PUSH2 0x1032 DUP5 DUP5 DUP5 DUP5 PUSH2 0x13DA JUMP JUMPDEST PUSH2 0x104F JUMPI PUSH1 0x40 MLOAD PUSH4 0x68D2BF6B PUSH1 0xE1 SHL DUP2 MSTORE PUSH1 0x4 ADD PUSH1 0x40 MLOAD DUP1 SWAP2 SUB SWAP1 REVERT JUMPDEST POP POP POP POP JUMP JUMPDEST PUSH2 0x105D PUSH2 0x1197 JUMP JUMPDEST PUSH1 0xB SSTORE JUMP JUMPDEST PUSH2 0x106A PUSH2 0x1197 JUMP JUMPDEST PUSH1 0xC SSTORE JUMP JUMPDEST PUSH1 0x60 PUSH2 0x107A DUP3 PUSH2 0x11F1 JUMP JUMPDEST PUSH2 0x1097 JUMPI PUSH1 0x40 MLOAD PUSH4 0xA14C4B5 PUSH1 0xE4 SHL DUP2 MSTORE PUSH1 0x4 ADD PUSH1 0x40 MLOAD DUP1 SWAP2 SUB SWAP1 REVERT JUMPDEST PUSH1 0x0 PUSH2 0x10A1 PUSH2 0x14C6 JUMP JUMPDEST SWAP1 POP DUP1 MLOAD PUSH1 0x0 SUB PUSH2 0x10C1 JUMPI PUSH1 0x40 MLOAD DUP1 PUSH1 0x20 ADD PUSH1 0x40 MSTORE DUP1 PUSH1 0x0 DUP2 MSTORE POP PUSH2 0x10EC JUMP JUMPDEST DUP1 PUSH2 0x10CB DUP5 PUSH2 0x14D5 JUMP JUMPDEST PUSH1 0x40 MLOAD PUSH1 0x20 ADD PUSH2 0x10DC SWAP3 SWAP2 SWAP1 PUSH2 0x1DF6 JUMP JUMPDEST PUSH1 0x40 MLOAD PUSH1 0x20 DUP2 DUP4 SUB SUB DUP2 MSTORE SWAP1 PUSH1 0x40 MSTORE JUMPDEST SWAP4 SWAP3 POP POP POP JUMP JUMPDEST PUSH1 0x1 PUSH1 0x1 PUSH1 0xA0 SHL SUB SWAP2 DUP3 AND PUSH1 0x0 SWAP1 DUP2 MSTORE PUSH1 0x7 PUSH1 0x20 SWAP1 DUP2 MSTORE PUSH1 0x40 DUP1 DUP4 KECCAK256 SWAP4 SWAP1 SWAP5 AND DUP3 MSTORE SWAP2 SWAP1 SWAP2 MSTORE KECCAK256 SLOAD PUSH1 0xFF AND SWAP1 JUMP JUMPDEST PUSH2 0x1129 PUSH2 0x1197 JUMP JUMPDEST PUSH1 0x1 PUSH1 0x1 PUSH1 0xA0 SHL SUB DUP2 AND PUSH2 0x118E JUMPI PUSH1 0x40 MLOAD PUSH3 0x461BCD PUSH1 0xE5 SHL DUP2 MSTORE PUSH1 0x20 PUSH1 0x4 DUP3 ADD MSTORE PUSH1 0x26 PUSH1 0x24 DUP3 ADD MSTORE PUSH32 0x4F776E61626C653A206E6577206F776E657220697320746865207A65726F2061 PUSH1 0x44 DUP3 ADD MSTORE PUSH6 0x646472657373 PUSH1 0xD0 SHL PUSH1 0x64 DUP3 ADD MSTORE PUSH1 0x84 ADD PUSH2 0xB14 JUMP JUMPDEST PUSH2 0xA82 DUP2 PUSH2 0x1364 JUMP JUMPDEST PUSH1 0x8 SLOAD PUSH1 0x1 PUSH1 0x1 PUSH1 0xA0 SHL SUB AND CALLER EQ PUSH2 0xE8A JUMPI PUSH1 0x40 MLOAD PUSH3 0x461BCD PUSH1 0xE5 SHL DUP2 MSTORE PUSH1 0x20 PUSH1 0x4 DUP3 ADD DUP2 SWAP1 MSTORE PUSH1 0x24 DUP3 ADD MSTORE PUSH32 0x4F776E61626C653A2063616C6C6572206973206E6F7420746865206F776E6572 PUSH1 0x44 DUP3 ADD MSTORE PUSH1 0x64 ADD PUSH2 0xB14 JUMP JUMPDEST PUSH1 0x0 DUP1 SLOAD DUP3 LT DUP1 ISZERO PUSH2 0x68A JUMPI POP POP PUSH1 0x0 SWAP1 DUP2 MSTORE PUSH1 0x4 PUSH1 0x20 MSTORE PUSH1 0x40 SWAP1 KECCAK256 SLOAD PUSH1 0x1 PUSH1 0xE0 SHL AND ISZERO SWAP1 JUMP JUMPDEST PUSH1 0x0 DUP2 PUSH1 0x0 SLOAD DUP2 LT ISZERO PUSH2 0x1266 JUMPI PUSH1 0x0 DUP2 DUP2 MSTORE PUSH1 0x4 PUSH1 0x20 MSTORE PUSH1 0x40 DUP2 KECCAK256 SLOAD SWAP1 PUSH1 0x1 PUSH1 0xE0 SHL DUP3 AND SWAP1 SUB PUSH2 0x1264 JUMPI JUMPDEST DUP1 PUSH1 0x0 SUB PUSH2 0x10EC JUMPI POP PUSH1 0x0 NOT ADD PUSH1 0x0 DUP2 DUP2 MSTORE PUSH1 0x4 PUSH1 0x20 MSTORE PUSH1 0x40 SWAP1 KECCAK256 SLOAD PUSH2 0x1243 JUMP JUMPDEST POP JUMPDEST PUSH1 0x40 MLOAD PUSH4 0x6F96CDA1 PUSH1 0xE1 SHL DUP2 MSTORE PUSH1 0x4 ADD PUSH1 0x40 MLOAD DUP1 SWAP2 SUB SWAP1 REVERT JUMPDEST PUSH2 0xA82 DUP2 PUSH1 0x0 PUSH2 0x1519 JUMP JUMPDEST PUSH1 0x0 DUP1 SLOAD SWAP1 DUP3 SWAP1 SUB PUSH2 0x12AF JUMPI PUSH1 0x40 MLOAD PUSH4 0xB562E8DD PUSH1 0xE0 SHL DUP2 MSTORE PUSH1 0x4 ADD PUSH1 0x40 MLOAD DUP1 SWAP2 SUB SWAP1 REVERT JUMPDEST PUSH1 0x1 PUSH1 0x1 PUSH1 0xA0 SHL SUB DUP4 AND PUSH1 0x0 DUP2 DUP2 MSTORE PUSH1 0x5 PUSH1 0x20 SWAP1 DUP2 MSTORE PUSH1 0x40 DUP1 DUP4 KECCAK256 DUP1 SLOAD PUSH9 0x10000000000000001 DUP9 MUL ADD SWAP1 SSTORE DUP5 DUP4 MSTORE PUSH1 0x4 SWAP1 SWAP2 MSTORE DUP2 KECCAK256 PUSH1 0x1 DUP6 EQ PUSH1 0xE1 SHL TIMESTAMP PUSH1 0xA0 SHL OR DUP4 OR SWAP1 SSTORE DUP3 DUP5 ADD SWAP1 DUP4 SWAP1 DUP4 SWAP1 PUSH1 0x0 DUP1 MLOAD PUSH1 0x20 PUSH2 0x1E96 DUP4 CODECOPY DUP2 MLOAD SWAP2 MSTORE DUP2 DUP1 LOG4 PUSH1 0x1 DUP4 ADD JUMPDEST DUP2 DUP2 EQ PUSH2 0x133A JUMPI DUP1 DUP4 PUSH1 0x0 PUSH1 0x0 DUP1 MLOAD PUSH1 0x20 PUSH2 0x1E96 DUP4 CODECOPY DUP2 MLOAD SWAP2 MSTORE PUSH1 0x0 DUP1 LOG4 PUSH1 0x1 ADD PUSH2 0x1314 JUMP JUMPDEST POP DUP2 PUSH1 0x0 SUB PUSH2 0x135B JUMPI PUSH1 0x40 MLOAD PUSH3 0x2E0763 PUSH1 0xE8 SHL DUP2 MSTORE PUSH1 0x4 ADD PUSH1 0x40 MLOAD DUP1 SWAP2 SUB SWAP1 REVERT JUMPDEST PUSH1 0x0 SSTORE POP POP POP POP JUMP JUMPDEST PUSH1 0x8 DUP1 SLOAD PUSH1 0x1 PUSH1 0x1 PUSH1 0xA0 SHL SUB DUP4 DUP2 AND PUSH1 0x1 PUSH1 0x1 PUSH1 0xA0 SHL SUB NOT DUP4 AND DUP2 OR SWAP1 SWAP4 SSTORE PUSH1 0x40 MLOAD SWAP2 AND SWAP2 SWAP1 DUP3 SWAP1 PUSH32 0x8BE0079C531659141344CD1FD0A4F28419497F9722A3DAAFE3B4186F6B6457E0 SWAP1 PUSH1 0x0 SWAP1 LOG3 POP POP JUMP JUMPDEST PUSH1 0x0 DUP1 PUSH1 0x0 PUSH2 0x13C5 DUP6 DUP6 PUSH2 0x1651 JUMP JUMPDEST SWAP2 POP SWAP2 POP PUSH2 0x13D2 DUP2 PUSH2 0x1696 JUMP JUMPDEST POP SWAP4 SWAP3 POP POP POP JUMP JUMPDEST PUSH1 0x40 MLOAD PUSH4 0xA85BD01 PUSH1 0xE1 SHL DUP2 MSTORE PUSH1 0x0 SWAP1 PUSH1 0x1 PUSH1 0x1 PUSH1 0xA0 SHL SUB DUP6 AND SWAP1 PUSH4 0x150B7A02 SWAP1 PUSH2 0x140F SWAP1 CALLER SWAP1 DUP10 SWAP1 DUP9 SWAP1 DUP9 SWAP1 PUSH1 0x4 ADD PUSH2 0x1E25 JUMP JUMPDEST PUSH1 0x20 PUSH1 0x40 MLOAD DUP1 DUP4 SUB DUP2 PUSH1 0x0 DUP8 GAS CALL SWAP3 POP POP POP DUP1 ISZERO PUSH2 0x144A JUMPI POP PUSH1 0x40 DUP1 MLOAD PUSH1 0x1F RETURNDATASIZE SWAP1 DUP2 ADD PUSH1 0x1F NOT AND DUP3 ADD SWAP1 SWAP3 MSTORE PUSH2 0x1447 SWAP2 DUP2 ADD SWAP1 PUSH2 0x1E62 JUMP JUMPDEST PUSH1 0x1 JUMPDEST PUSH2 0x14A8 JUMPI RETURNDATASIZE DUP1 DUP1 ISZERO PUSH2 0x1478 JUMPI PUSH1 0x40 MLOAD SWAP2 POP PUSH1 0x1F NOT PUSH1 0x3F RETURNDATASIZE ADD AND DUP3 ADD PUSH1 0x40 MSTORE RETURNDATASIZE DUP3 MSTORE RETURNDATASIZE PUSH1 0x0 PUSH1 0x20 DUP5 ADD RETURNDATACOPY PUSH2 0x147D JUMP JUMPDEST PUSH1 0x60 SWAP2 POP JUMPDEST POP DUP1 MLOAD PUSH1 0x0 SUB PUSH2 0x14A0 JUMPI PUSH1 0x40 MLOAD PUSH4 0x68D2BF6B PUSH1 0xE1 SHL DUP2 MSTORE PUSH1 0x4 ADD PUSH1 0x40 MLOAD DUP1 SWAP2 SUB SWAP1 REVERT JUMPDEST DUP1 MLOAD DUP2 PUSH1 0x20 ADD REVERT JUMPDEST PUSH1 0x1 PUSH1 0x1 PUSH1 0xE0 SHL SUB NOT AND PUSH4 0xA85BD01 PUSH1 0xE1 SHL EQ SWAP1 POP JUMPDEST SWAP5 SWAP4 POP POP POP POP JUMP JUMPDEST PUSH1 0x60 PUSH1 0x9 DUP1 SLOAD PUSH2 0x6EC SWAP1 PUSH2 0x1C60 JUMP JUMPDEST PUSH1 0x60 PUSH1 0xA0 PUSH1 0x40 MLOAD ADD DUP1 PUSH1 0x40 MSTORE PUSH1 0x20 DUP2 SUB SWAP2 POP POP PUSH1 0x0 DUP2 MSTORE DUP1 DUP3 JUMPDEST PUSH1 0x1 DUP4 SUB SWAP3 POP PUSH1 0xA DUP2 MOD PUSH1 0x30 ADD DUP4 MSTORE8 PUSH1 0xA SWAP1 DIV DUP1 PUSH2 0x14EF JUMPI POP DUP2 SWAP1 SUB PUSH1 0x1F NOT SWAP1 SWAP2 ADD SWAP1 DUP2 MSTORE SWAP2 SWAP1 POP JUMP JUMPDEST PUSH1 0x0 PUSH2 0x1524 DUP4 PUSH2 0x1218 JUMP JUMPDEST SWAP1 POP DUP1 PUSH1 0x0 DUP1 PUSH2 0x1542 DUP7 PUSH1 0x0 SWAP1 DUP2 MSTORE PUSH1 0x6 PUSH1 0x20 MSTORE PUSH1 0x40 SWAP1 KECCAK256 DUP1 SLOAD SWAP1 SWAP2 JUMP JUMPDEST SWAP2 POP SWAP2 POP DUP5 ISZERO PUSH2 0x1582 JUMPI PUSH2 0x1557 DUP2 DUP5 CALLER PUSH2 0x8CA JUMP JUMPDEST PUSH2 0x1582 JUMPI PUSH2 0x1565 DUP4 CALLER PUSH2 0x10F3 JUMP JUMPDEST PUSH2 0x1582 JUMPI PUSH1 0x40 MLOAD PUSH4 0x2CE44B5F PUSH1 0xE1 SHL DUP2 MSTORE PUSH1 0x4 ADD PUSH1 0x40 MLOAD DUP1 SWAP2 SUB SWAP1 REVERT JUMPDEST DUP1 ISZERO PUSH2 0x158D JUMPI PUSH1 0x0 DUP3 SSTORE JUMPDEST PUSH1 0x1 PUSH1 0x1 PUSH1 0xA0 SHL SUB DUP4 AND PUSH1 0x0 DUP2 DUP2 MSTORE PUSH1 0x5 PUSH1 0x20 MSTORE PUSH1 0x40 SWAP1 KECCAK256 DUP1 SLOAD PUSH16 0xFFFFFFFFFFFFFFFFFFFFFFFFFFFFFFFF ADD SWAP1 SSTORE TIMESTAMP PUSH1 0xA0 SHL OR PUSH1 0x3 PUSH1 0xE0 SHL OR PUSH1 0x0 DUP8 DUP2 MSTORE PUSH1 0x4 PUSH1 0x20 MSTORE PUSH1 0x40 DUP2 KECCAK256 SWAP2 SWAP1 SWAP2 SSTORE PUSH1 0x1 PUSH1 0xE1 SHL DUP6 AND SWAP1 SUB PUSH2 0x161B JUMPI PUSH1 0x1 DUP7 ADD PUSH1 0x0 DUP2 DUP2 MSTORE PUSH1 0x4 PUSH1 0x20 MSTORE PUSH1 0x40 DUP2 KECCAK256 SLOAD SWAP1 SUB PUSH2 0x1619 JUMPI PUSH1 0x0 SLOAD DUP2 EQ PUSH2 0x1619 JUMPI PUSH1 0x0 DUP2 DUP2 MSTORE PUSH1 0x4 PUSH1 0x20 MSTORE PUSH1 0x40 SWAP1 KECCAK256 DUP6 SWAP1 SSTORE JUMPDEST POP JUMPDEST PUSH1 0x40 MLOAD DUP7 SWAP1 PUSH1 0x0 SWAP1 PUSH1 0x1 PUSH1 0x1 PUSH1 0xA0 SHL SUB DUP7 AND SWAP1 PUSH1 0x0 DUP1 MLOAD PUSH1 0x20 PUSH2 0x1E96 DUP4 CODECOPY DUP2 MLOAD SWAP2 MSTORE SWAP1 DUP4 SWAP1 LOG4 POP POP PUSH1 0x1 DUP1 SLOAD DUP2 ADD SWAP1 SSTORE POP POP POP POP JUMP JUMPDEST PUSH1 0x0 DUP1 DUP3 MLOAD PUSH1 0x41 SUB PUSH2 0x1687 JUMPI PUSH1 0x20 DUP4 ADD MLOAD PUSH1 0x40 DUP5 ADD MLOAD PUSH1 0x60 DUP6 ADD MLOAD PUSH1 0x0 BYTE PUSH2 0x167B DUP8 DUP3 DUP6 DUP6 PUSH2 0x17E0 JUMP JUMPDEST SWAP5 POP SWAP5 POP POP POP POP PUSH2 0x168F JUMP JUMPDEST POP PUSH1 0x0 SWAP1 POP PUSH1 0x2 JUMPDEST SWAP3 POP SWAP3 SWAP1 POP JUMP JUMPDEST PUSH1 0x0 DUP2 PUSH1 0x4 DUP2 GT ISZERO PUSH2 0x16AA JUMPI PUSH2 0x16AA PUSH2 0x1E7F JUMP JUMPDEST SUB PUSH2 0x16B2 JUMPI POP JUMP JUMPDEST PUSH1 0x1 DUP2 PUSH1 0x4 DUP2 GT ISZERO PUSH2 0x16C6 JUMPI PUSH2 0x16C6 PUSH2 0x1E7F JUMP JUMPDEST SUB PUSH2 0x1713 JUMPI PUSH1 0x40 MLOAD PUSH3 0x461BCD PUSH1 0xE5 SHL DUP2 MSTORE PUSH1 0x20 PUSH1 0x4 DUP3 ADD MSTORE PUSH1 0x18 PUSH1 0x24 DUP3 ADD MSTORE PUSH32 0x45434453413A20696E76616C6964207369676E61747572650000000000000000 PUSH1 0x44 DUP3 ADD MSTORE PUSH1 0x64 ADD PUSH2 0xB14 JUMP JUMPDEST PUSH1 0x2 DUP2 PUSH1 0x4 DUP2 GT ISZERO PUSH2 0x1727 JUMPI PUSH2 0x1727 PUSH2 0x1E7F JUMP JUMPDEST SUB PUSH2 0x1774 JUMPI PUSH1 0x40 MLOAD PUSH3 0x461BCD PUSH1 0xE5 SHL DUP2 MSTORE PUSH1 0x20 PUSH1 0x4 DUP3 ADD MSTORE PUSH1 0x1F PUSH1 0x24 DUP3 ADD MSTORE PUSH32 0x45434453413A20696E76616C6964207369676E6174757265206C656E67746800 PUSH1 0x44 DUP3 ADD MSTORE PUSH1 0x64 ADD PUSH2 0xB14 JUMP JUMPDEST PUSH1 0x3 DUP2 PUSH1 0x4 DUP2 GT ISZERO PUSH2 0x1788 JUMPI PUSH2 0x1788 PUSH2 0x1E7F JUMP JUMPDEST SUB PUSH2 0xA82 JUMPI PUSH1 0x40 MLOAD PUSH3 0x461BCD PUSH1 0xE5 SHL DUP2 MSTORE PUSH1 0x20 PUSH1 0x4 DUP3 ADD MSTORE PUSH1 0x22 PUSH1 0x24 DUP3 ADD MSTORE PUSH32 0x45434453413A20696E76616C6964207369676E6174757265202773272076616C PUSH1 0x44 DUP3 ADD MSTORE PUSH2 0x7565 PUSH1 0xF0 SHL PUSH1 0x64 DUP3 ADD MSTORE PUSH1 0x84 ADD PUSH2 0xB14 JUMP JUMPDEST PUSH1 0x0 DUP1 PUSH32 0x7FFFFFFFFFFFFFFFFFFFFFFFFFFFFFFF5D576E7357A4501DDFE92F46681B20A0 DUP4 GT ISZERO PUSH2 0x1817 JUMPI POP PUSH1 0x0 SWAP1 POP PUSH1 0x3 PUSH2 0x189B JUMP JUMPDEST PUSH1 0x40 DUP1 MLOAD PUSH1 0x0 DUP1 DUP3 MSTORE PUSH1 0x20 DUP3 ADD DUP1 DUP5 MSTORE DUP10 SWAP1 MSTORE PUSH1 0xFF DUP9 AND SWAP3 DUP3 ADD SWAP3 SWAP1 SWAP3 MSTORE PUSH1 0x60 DUP2 ADD DUP7 SWAP1 MSTORE PUSH1 0x80 DUP2 ADD DUP6 SWAP1 MSTORE PUSH1 0x1 SWAP1 PUSH1 0xA0 ADD PUSH1 0x20 PUSH1 0x40 MLOAD PUSH1 0x20 DUP2 SUB SWAP1 DUP1 DUP5 SUB SWAP1 DUP6 GAS STATICCALL ISZERO DUP1 ISZERO PUSH2 0x186B JUMPI RETURNDATASIZE PUSH1 0x0 DUP1 RETURNDATACOPY RETURNDATASIZE PUSH1 0x0 REVERT JUMPDEST POP POP PUSH1 0x40 MLOAD PUSH1 0x1F NOT ADD MLOAD SWAP2 POP POP PUSH1 0x1 PUSH1 0x1 PUSH1 0xA0 SHL SUB DUP2 AND PUSH2 0x1894 JUMPI PUSH1 0x0 PUSH1 0x1 SWAP3 POP SWAP3 POP POP PUSH2 0x189B JUMP JUMPDEST SWAP2 POP PUSH1 0x0 SWAP1 POP JUMPDEST SWAP5 POP SWAP5 SWAP3 POP POP POP JUMP JUMPDEST PUSH1 0x1 PUSH1 0x1 PUSH1 0xE0 SHL SUB NOT DUP2 AND DUP2 EQ PUSH2 0xA82 JUMPI PUSH1 0x0 DUP1 REVERT JUMPDEST PUSH1 0x0 PUSH1 0x20 DUP3 DUP5 SUB SLT ISZERO PUSH2 0x18CC JUMPI PUSH1 0x0 DUP1 REVERT JUMPDEST DUP2 CALLDATALOAD PUSH2 0x10EC DUP2 PUSH2 0x18A4 JUMP JUMPDEST DUP1 CALLDATALOAD DUP1 ISZERO ISZERO DUP2 EQ PUSH2 0x18E7 JUMPI PUSH1 0x0 DUP1 REVERT JUMPDEST SWAP2 SWAP1 POP JUMP JUMPDEST PUSH1 0x0 PUSH1 0x20 DUP3 DUP5 SUB SLT ISZERO PUSH2 0x18FE JUMPI PUSH1 0x0 DUP1 REVERT JUMPDEST PUSH2 0x10EC DUP3 PUSH2 0x18D7 JUMP JUMPDEST DUP1 CALLDATALOAD PUSH1 0x1 PUSH1 0x1 PUSH1 0xA0 SHL SUB DUP2 AND DUP2 EQ PUSH2 0x18E7 JUMPI PUSH1 0x0 DUP1 REVERT JUMPDEST PUSH1 0x0 PUSH1 0x20 DUP3 DUP5 SUB SLT ISZERO PUSH2 0x1930 JUMPI PUSH1 0x0 DUP1 REVERT JUMPDEST PUSH2 0x10EC DUP3 PUSH2 0x1907 JUMP JUMPDEST PUSH1 0x0 JUMPDEST DUP4 DUP2 LT ISZERO PUSH2 0x1954 JUMPI DUP2 DUP2 ADD MLOAD DUP4 DUP3 ADD MSTORE PUSH1 0x20 ADD PUSH2 0x193C JUMP JUMPDEST POP POP PUSH1 0x0 SWAP2 ADD MSTORE JUMP JUMPDEST PUSH1 0x0 DUP2 MLOAD DUP1 DUP5 MSTORE PUSH2 0x1975 DUP2 PUSH1 0x20 DUP7 ADD PUSH1 0x20 DUP7 ADD PUSH2 0x1939 JUMP JUMPDEST PUSH1 0x1F ADD PUSH1 0x1F NOT AND SWAP3 SWAP1 SWAP3 ADD PUSH1 0x20 ADD SWAP3 SWAP2 POP POP JUMP JUMPDEST PUSH1 0x20 DUP2 MSTORE PUSH1 0x0 PUSH2 0x10EC PUSH1 0x20 DUP4 ADD DUP5 PUSH2 0x195D JUMP JUMPDEST PUSH1 0x0 PUSH1 0x20 DUP3 DUP5 SUB SLT ISZERO PUSH2 0x19AE JUMPI PUSH1 0x0 DUP1 REVERT JUMPDEST POP CALLDATALOAD SWAP2 SWAP1 POP JUMP JUMPDEST PUSH1 0x0 DUP1 PUSH1 0x40 DUP4 DUP6 SUB SLT ISZERO PUSH2 0x19C8 JUMPI PUSH1 0x0 DUP1 REVERT JUMPDEST PUSH2 0x19D1 DUP4 PUSH2 0x1907 JUMP JUMPDEST SWAP5 PUSH1 0x20 SWAP4 SWAP1 SWAP4 ADD CALLDATALOAD SWAP4 POP POP POP JUMP JUMPDEST PUSH1 0x0 DUP1 PUSH1 0x0 PUSH1 0x60 DUP5 DUP7 SUB SLT ISZERO PUSH2 0x19F4 JUMPI PUSH1 0x0 DUP1 REVERT JUMPDEST PUSH2 0x19FD DUP5 PUSH2 0x1907 JUMP JUMPDEST SWAP3 POP PUSH2 0x1A0B PUSH1 0x20 DUP6 ADD PUSH2 0x1907 JUMP JUMPDEST SWAP2 POP PUSH1 0x40 DUP5 ADD CALLDATALOAD SWAP1 POP SWAP3 POP SWAP3 POP SWAP3 JUMP JUMPDEST PUSH4 0x4E487B71 PUSH1 0xE0 SHL PUSH1 0x0 MSTORE PUSH1 0x41 PUSH1 0x4 MSTORE PUSH1 0x24 PUSH1 0x0 REVERT JUMPDEST PUSH1 0x0 PUSH8 0xFFFFFFFFFFFFFFFF DUP1 DUP5 GT ISZERO PUSH2 0x1A4C JUMPI PUSH2 0x1A4C PUSH2 0x1A1B JUMP JUMPDEST PUSH1 0x40 MLOAD PUSH1 0x1F DUP6 ADD PUSH1 0x1F NOT SWAP1 DUP2 AND PUSH1 0x3F ADD AND DUP2 ADD SWAP1 DUP3 DUP3 GT DUP2 DUP4 LT OR ISZERO PUSH2 0x1A74 JUMPI PUSH2 0x1A74 PUSH2 0x1A1B JUMP JUMPDEST DUP2 PUSH1 0x40 MSTORE DUP1 SWAP4 POP DUP6 DUP2 MSTORE DUP7 DUP7 DUP7 ADD GT ISZERO PUSH2 0x1A8D JUMPI PUSH1 0x0 DUP1 REVERT JUMPDEST DUP6 DUP6 PUSH1 0x20 DUP4 ADD CALLDATACOPY PUSH1 0x0 PUSH1 0x20 DUP8 DUP4 ADD ADD MSTORE POP POP POP SWAP4 SWAP3 POP POP POP JUMP JUMPDEST PUSH1 0x0 DUP3 PUSH1 0x1F DUP4 ADD SLT PUSH2 0x1AB8 JUMPI PUSH1 0x0 DUP1 REVERT JUMPDEST PUSH2 0x10EC DUP4 DUP4 CALLDATALOAD PUSH1 0x20 DUP6 ADD PUSH2 0x1A31 JUMP JUMPDEST PUSH1 0x0 DUP1 PUSH1 0x0 DUP1 PUSH1 0x80 DUP6 DUP8 SUB SLT ISZERO PUSH2 0x1ADD JUMPI PUSH1 0x0 DUP1 REVERT JUMPDEST DUP5 CALLDATALOAD SWAP4 POP PUSH1 0x20 DUP6 ADD CALLDATALOAD SWAP3 POP PUSH1 0x40 DUP6 ADD CALLDATALOAD SWAP2 POP PUSH1 0x60 DUP6 ADD CALLDATALOAD PUSH8 0xFFFFFFFFFFFFFFFF DUP2 GT ISZERO PUSH2 0x1B09 JUMPI PUSH1 0x0 DUP1 REVERT JUMPDEST PUSH2 0x1B15 DUP8 DUP3 DUP9 ADD PUSH2 0x1AA7 JUMP JUMPDEST SWAP2 POP POP SWAP3 SWAP6 SWAP2 SWAP5 POP SWAP3 POP JUMP JUMPDEST PUSH1 0x0 DUP1 PUSH1 0x0 DUP1 PUSH1 0x80 DUP6 DUP8 SUB SLT ISZERO PUSH2 0x1B37 JUMPI PUSH1 0x0 DUP1 REVERT JUMPDEST DUP5 CALLDATALOAD SWAP4 POP PUSH1 0x20 DUP6 ADD CALLDATALOAD SWAP3 POP PUSH2 0x1B4E PUSH1 0x40 DUP7 ADD PUSH2 0x1907 JUMP JUMPDEST SWAP2 POP PUSH1 0x60 DUP6 ADD CALLDATALOAD PUSH8 0xFFFFFFFFFFFFFFFF DUP2 GT ISZERO PUSH2 0x1B09 JUMPI PUSH1 0x0 DUP1 REVERT JUMPDEST PUSH1 0x0 PUSH1 0x20 DUP3 DUP5 SUB SLT ISZERO PUSH2 0x1B7C JUMPI PUSH1 0x0 DUP1 REVERT JUMPDEST DUP2 CALLDATALOAD PUSH8 0xFFFFFFFFFFFFFFFF DUP2 GT ISZERO PUSH2 0x1B93 JUMPI PUSH1 0x0 DUP1 REVERT JUMPDEST DUP3 ADD PUSH1 0x1F DUP2 ADD DUP5 SGT PUSH2 0x1BA4 JUMPI PUSH1 0x0 DUP1 REVERT JUMPDEST PUSH2 0x14BE DUP5 DUP3 CALLDATALOAD PUSH1 0x20 DUP5 ADD PUSH2 0x1A31 JUMP JUMPDEST PUSH1 0x0 DUP1 PUSH1 0x40 DUP4 DUP6 SUB SLT ISZERO PUSH2 0x1BC6 JUMPI PUSH1 0x0 DUP1 REVERT JUMPDEST PUSH2 0x1BCF DUP4 PUSH2 0x1907 JUMP JUMPDEST SWAP2 POP PUSH2 0x1BDD PUSH1 0x20 DUP5 ADD PUSH2 0x18D7 JUMP JUMPDEST SWAP1 POP SWAP3 POP SWAP3 SWAP1 POP JUMP JUMPDEST PUSH1 0x0 DUP1 PUSH1 0x0 DUP1 PUSH1 0x80 DUP6 DUP8 SUB SLT ISZERO PUSH2 0x1BFC JUMPI PUSH1 0x0 DUP1 REVERT JUMPDEST PUSH2 0x1C05 DUP6 PUSH2 0x1907 JUMP JUMPDEST SWAP4 POP PUSH2 0x1C13 PUSH1 0x20 DUP7 ADD PUSH2 0x1907 JUMP JUMPDEST SWAP3 POP PUSH1 0x40 DUP6 ADD CALLDATALOAD SWAP2 POP PUSH1 0x60 DUP6 ADD CALLDATALOAD PUSH8 0xFFFFFFFFFFFFFFFF DUP2 GT ISZERO PUSH2 0x1B09 JUMPI PUSH1 0x0 DUP1 REVERT JUMPDEST PUSH1 0x0 DUP1 PUSH1 0x40 DUP4 DUP6 SUB SLT ISZERO PUSH2 0x1C49 JUMPI PUSH1 0x0 DUP1 REVERT JUMPDEST PUSH2 0x1C52 DUP4 PUSH2 0x1907 JUMP JUMPDEST SWAP2 POP PUSH2 0x1BDD PUSH1 0x20 DUP5 ADD PUSH2 0x1907 JUMP JUMPDEST PUSH1 0x1 DUP2 DUP2 SHR SWAP1 DUP3 AND DUP1 PUSH2 0x1C74 JUMPI PUSH1 0x7F DUP3 AND SWAP2 POP JUMPDEST PUSH1 0x20 DUP3 LT DUP2 SUB PUSH2 0x1C94 JUMPI PUSH4 0x4E487B71 PUSH1 0xE0 SHL PUSH1 0x0 MSTORE PUSH1 0x22 PUSH1 0x4 MSTORE PUSH1 0x24 PUSH1 0x0 REVERT JUMPDEST POP SWAP2 SWAP1 POP JUMP JUMPDEST PUSH4 0x4E487B71 PUSH1 0xE0 SHL PUSH1 0x0 MSTORE PUSH1 0x1 PUSH1 0x4 MSTORE PUSH1 0x24 PUSH1 0x0 REVERT JUMPDEST PUSH4 0x4E487B71 PUSH1 0xE0 SHL PUSH1 0x0 MSTORE PUSH1 0x11 PUSH1 0x4 MSTORE PUSH1 0x24 PUSH1 0x0 REVERT JUMPDEST DUP1 DUP3 ADD DUP1 DUP3 GT ISZERO PUSH2 0x68A JUMPI PUSH2 0x68A PUSH2 0x1CB0 JUMP JUMPDEST DUP1 DUP3 MUL DUP2 ISZERO DUP3 DUP3 DIV DUP5 EQ OR PUSH2 0x68A JUMPI PUSH2 0x68A PUSH2 0x1CB0 JUMP JUMPDEST PUSH1 0x1F DUP3 GT ISZERO PUSH2 0xAA0 JUMPI PUSH1 0x0 DUP2 DUP2 MSTORE PUSH1 0x20 DUP2 KECCAK256 PUSH1 0x1F DUP6 ADD PUSH1 0x5 SHR DUP2 ADD PUSH1 0x20 DUP7 LT ISZERO PUSH2 0x1D17 JUMPI POP DUP1 JUMPDEST PUSH1 0x1F DUP6 ADD PUSH1 0x5 SHR DUP3 ADD SWAP2 POP JUMPDEST DUP2 DUP2 LT ISZERO PUSH2 0x9FE JUMPI DUP3 DUP2 SSTORE PUSH1 0x1 ADD PUSH2 0x1D23 JUMP JUMPDEST DUP2 MLOAD PUSH8 0xFFFFFFFFFFFFFFFF DUP2 GT ISZERO PUSH2 0x1D50 JUMPI PUSH2 0x1D50 PUSH2 0x1A1B JUMP JUMPDEST PUSH2 0x1D64 DUP2 PUSH2 0x1D5E DUP5 SLOAD PUSH2 0x1C60 JUMP JUMPDEST DUP5 PUSH2 0x1CF0 JUMP JUMPDEST PUSH1 0x20 DUP1 PUSH1 0x1F DUP4 GT PUSH1 0x1 DUP2 EQ PUSH2 0x1D99 JUMPI PUSH1 0x0 DUP5 ISZERO PUSH2 0x1D81 JUMPI POP DUP6 DUP4 ADD MLOAD JUMPDEST PUSH1 0x0 NOT PUSH1 0x3 DUP7 SWAP1 SHL SHR NOT AND PUSH1 0x1 DUP6 SWAP1 SHL OR DUP6 SSTORE PUSH2 0x9FE JUMP JUMPDEST PUSH1 0x0 DUP6 DUP2 MSTORE PUSH1 0x20 DUP2 KECCAK256 PUSH1 0x1F NOT DUP7 AND SWAP2 JUMPDEST DUP3 DUP2 LT ISZERO PUSH2 0x1DC8 JUMPI DUP9 DUP7 ADD MLOAD DUP3 SSTORE SWAP5 DUP5 ADD SWAP5 PUSH1 0x1 SWAP1 SWAP2 ADD SWAP1 DUP5 ADD PUSH2 0x1DA9 JUMP JUMPDEST POP DUP6 DUP3 LT ISZERO PUSH2 0x1DE6 JUMPI DUP8 DUP6 ADD MLOAD PUSH1 0x0 NOT PUSH1 0x3 DUP9 SWAP1 SHL PUSH1 0xF8 AND SHR NOT AND DUP2 SSTORE JUMPDEST POP POP POP POP POP PUSH1 0x1 SWAP1 DUP2 SHL ADD SWAP1 SSTORE POP JUMP JUMPDEST PUSH1 0x0 DUP4 MLOAD PUSH2 0x1E08 DUP2 DUP5 PUSH1 0x20 DUP9 ADD PUSH2 0x1939 JUMP JUMPDEST DUP4 MLOAD SWAP1 DUP4 ADD SWAP1 PUSH2 0x1E1C DUP2 DUP4 PUSH1 0x20 DUP9 ADD PUSH2 0x1939 JUMP JUMPDEST ADD SWAP5 SWAP4 POP POP POP POP JUMP JUMPDEST PUSH1 0x1 PUSH1 0x1 PUSH1 0xA0 SHL SUB DUP6 DUP2 AND DUP3 MSTORE DUP5 AND PUSH1 0x20 DUP3 ADD MSTORE PUSH1 0x40 DUP2 ADD DUP4 SWAP1 MSTORE PUSH1 0x80 PUSH1 0x60 DUP3 ADD DUP2 SWAP1 MSTORE PUSH1 0x0 SWAP1 PUSH2 0x1E58 SWAP1 DUP4 ADD DUP5 PUSH2 0x195D JUMP JUMPDEST SWAP7 SWAP6 POP POP POP POP POP POP JUMP JUMPDEST PUSH1 0x0 PUSH1 0x20 DUP3 DUP5 SUB SLT ISZERO PUSH2 0x1E74 JUMPI PUSH1 0x0 DUP1 REVERT JUMPDEST DUP2 MLOAD PUSH2 0x10EC DUP2 PUSH2 0x18A4 JUMP JUMPDEST PUSH4 0x4E487B71 PUSH1 0xE0 SHL PUSH1 0x0 MSTORE PUSH1 0x21 PUSH1 0x4 MSTORE PUSH1 0x24 PUSH1 0x0 REVERT INVALID 0xDD CALLCODE MSTORE 0xAD SHL 0xE2 0xC8 SWAP12 PUSH10 0xC2B068FC378DAA952BA7 CALL PUSH4 0xC4A11628 CREATE2 GAS 0x4D CREATE2 0x23 0xB3 0xEF LOG2 PUSH5 0x6970667358 0x22 SLT KECCAK256 0xCC LT 0xAE CALLVALUE CALLCODE 0xE4 PUSH21 0x58FC10511041DF7AA46D3482C04864DC07B415B87F INVALID 0x4F 0xC4 PUSH3 0x64736F PUSH13 0x63430008110033000000000000 "
				},
				"gasEstimates": {
					"creation": {
						"codeDepositCost": "1583000",
						"executionCost": "infinite",
						"totalCost": "infinite"
					},
					"external": {
						"alreadyMinted(address)": "2609",
						"approve(address,uint256)": "infinite",
						"balanceOf(address)": "2707",
						"baseURI()": "infinite",
						"burn(uint256)": "infinite",
						"getApproved(uint256)": "6903",
						"isApprovedForAll(address,address)": "infinite",
						"maxSupply()": "2383",
						"mint(uint256,uint256,uint256,bytes)": "infinite",
						"name()": "infinite",
						"owner()": "2398",
						"ownerMint(address,uint256)": "infinite",
						"ownerOf(uint256)": "infinite",
						"pause(bool)": "26762",
						"paused()": "2345",
						"publicMaxNFTPerAddress()": "2407",
						"publicMint()": "2400",
						"publicPriceMint()": "2361",
						"renounceOwnership()": "infinite",
						"safeTransferFrom(address,address,uint256)": "infinite",
						"safeTransferFrom(address,address,uint256,bytes)": "infinite",
						"setApprovalForAll(address,bool)": "infinite",
						"setBaseUri(string)": "infinite",
						"setPublicMaxNFTPerAddress(uint256)": "24577",
						"setPublicMint(bool)": "26841",
						"setPublicPrice(uint256)": "24599",
						"setSignerAddress(address)": "26837",
						"signerAddress()": "2481",
						"supportsInterface(bytes4)": "557",
						"symbol()": "infinite",
						"tokenURI(uint256)": "infinite",
						"totalSupply()": "4444",
						"transferFrom(address,address,uint256)": "infinite",
						"transferOwnership(address)": "28468",
						"verifyCoupon(uint256,uint256,address,bytes)": "infinite",
						"withdraw()": "infinite"
					},
					"internal": {
						"_baseURI()": "infinite"
					}
				},
				"methodIdentifiers": {
					"alreadyMinted(address)": "0a398b88",
					"approve(address,uint256)": "095ea7b3",
					"balanceOf(address)": "70a08231",
					"baseURI()": "6c0360eb",
					"burn(uint256)": "42966c68",
					"getApproved(uint256)": "081812fc",
					"isApprovedForAll(address,address)": "e985e9c5",
					"maxSupply()": "d5abeb01",
					"mint(uint256,uint256,uint256,bytes)": "4a9eee69",
					"name()": "06fdde03",
					"owner()": "8da5cb5b",
					"ownerMint(address,uint256)": "484b973c",
					"ownerOf(uint256)": "6352211e",
					"pause(bool)": "02329a29",
					"paused()": "5c975abb",
					"publicMaxNFTPerAddress()": "0bab3262",
					"publicMint()": "26092b83",
					"publicPriceMint()": "ceda0dbd",
					"renounceOwnership()": "715018a6",
					"safeTransferFrom(address,address,uint256)": "42842e0e",
					"safeTransferFrom(address,address,uint256,bytes)": "b88d4fde",
					"setApprovalForAll(address,bool)": "a22cb465",
					"setBaseUri(string)": "a0bcfc7f",
					"setPublicMaxNFTPerAddress(uint256)": "c48b1fa6",
					"setPublicMint(bool)": "0e2d56cf",
					"setPublicPrice(uint256)": "c6275255",
					"setSignerAddress(address)": "046dc166",
					"signerAddress()": "5b7633d0",
					"supportsInterface(bytes4)": "01ffc9a7",
					"symbol()": "95d89b41",
					"tokenURI(uint256)": "c87b56dd",
					"totalSupply()": "18160ddd",
					"transferFrom(address,address,uint256)": "23b872dd",
					"transferOwnership(address)": "f2fde38b",
					"verifyCoupon(uint256,uint256,address,bytes)": "8f9db08c",
					"withdraw()": "3ccfd60b"
				}
			},
			"storageLayout": {
				"storage": [
					{
						"astId": 1153,
						"contract": "contracts/WOM_LAND.sol:WomLand",
						"label": "_currentIndex",
						"offset": 0,
						"slot": "0",
						"type": "t_uint256"
					},
					{
						"astId": 1155,
						"contract": "contracts/WOM_LAND.sol:WomLand",
						"label": "_burnCounter",
						"offset": 0,
						"slot": "1",
						"type": "t_uint256"
					},
					{
						"astId": 1157,
						"contract": "contracts/WOM_LAND.sol:WomLand",
						"label": "_name",
						"offset": 0,
						"slot": "2",
						"type": "t_string_storage"
					},
					{
						"astId": 1159,
						"contract": "contracts/WOM_LAND.sol:WomLand",
						"label": "_symbol",
						"offset": 0,
						"slot": "3",
						"type": "t_string_storage"
					},
					{
						"astId": 1163,
						"contract": "contracts/WOM_LAND.sol:WomLand",
						"label": "_packedOwnerships",
						"offset": 0,
						"slot": "4",
						"type": "t_mapping(t_uint256,t_uint256)"
					},
					{
						"astId": 1167,
						"contract": "contracts/WOM_LAND.sol:WomLand",
						"label": "_packedAddressData",
						"offset": 0,
						"slot": "5",
						"type": "t_mapping(t_address,t_uint256)"
					},
					{
						"astId": 1172,
						"contract": "contracts/WOM_LAND.sol:WomLand",
						"label": "_tokenApprovals",
						"offset": 0,
						"slot": "6",
						"type": "t_mapping(t_uint256,t_struct(TokenApprovalRef)1085_storage)"
					},
					{
						"astId": 1178,
						"contract": "contracts/WOM_LAND.sol:WomLand",
						"label": "_operatorApprovals",
						"offset": 0,
						"slot": "7",
						"type": "t_mapping(t_address,t_mapping(t_address,t_bool))"
					},
					{
						"astId": 7,
						"contract": "contracts/WOM_LAND.sol:WomLand",
						"label": "_owner",
						"offset": 0,
						"slot": "8",
						"type": "t_address"
					},
					{
						"astId": 732,
						"contract": "contracts/WOM_LAND.sol:WomLand",
						"label": "baseURI",
						"offset": 0,
						"slot": "9",
						"type": "t_string_storage"
					},
					{
						"astId": 735,
						"contract": "contracts/WOM_LAND.sol:WomLand",
						"label": "maxSupply",
						"offset": 0,
						"slot": "10",
						"type": "t_uint256"
					},
					{
						"astId": 738,
						"contract": "contracts/WOM_LAND.sol:WomLand",
						"label": "publicMaxNFTPerAddress",
						"offset": 0,
						"slot": "11",
						"type": "t_uint256"
					},
					{
						"astId": 741,
						"contract": "contracts/WOM_LAND.sol:WomLand",
						"label": "publicPriceMint",
						"offset": 0,
						"slot": "12",
						"type": "t_uint256"
					},
					{
						"astId": 744,
						"contract": "contracts/WOM_LAND.sol:WomLand",
						"label": "paused",
						"offset": 0,
						"slot": "13",
						"type": "t_bool"
					},
					{
						"astId": 747,
						"contract": "contracts/WOM_LAND.sol:WomLand",
						"label": "publicMint",
						"offset": 1,
						"slot": "13",
						"type": "t_bool"
					},
					{
						"astId": 750,
						"contract": "contracts/WOM_LAND.sol:WomLand",
						"label": "signerAddress",
						"offset": 2,
						"slot": "13",
						"type": "t_address"
					},
					{
						"astId": 754,
						"contract": "contracts/WOM_LAND.sol:WomLand",
						"label": "alreadyMinted",
						"offset": 0,
						"slot": "14",
						"type": "t_mapping(t_address,t_uint256)"
					}
				],
				"types": {
					"t_address": {
						"encoding": "inplace",
						"label": "address",
						"numberOfBytes": "20"
					},
					"t_bool": {
						"encoding": "inplace",
						"label": "bool",
						"numberOfBytes": "1"
					},
					"t_mapping(t_address,t_bool)": {
						"encoding": "mapping",
						"key": "t_address",
						"label": "mapping(address => bool)",
						"numberOfBytes": "32",
						"value": "t_bool"
					},
					"t_mapping(t_address,t_mapping(t_address,t_bool))": {
						"encoding": "mapping",
						"key": "t_address",
						"label": "mapping(address => mapping(address => bool))",
						"numberOfBytes": "32",
						"value": "t_mapping(t_address,t_bool)"
					},
					"t_mapping(t_address,t_uint256)": {
						"encoding": "mapping",
						"key": "t_address",
						"label": "mapping(address => uint256)",
						"numberOfBytes": "32",
						"value": "t_uint256"
					},
					"t_mapping(t_uint256,t_struct(TokenApprovalRef)1085_storage)": {
						"encoding": "mapping",
						"key": "t_uint256",
						"label": "mapping(uint256 => struct ERC721A.TokenApprovalRef)",
						"numberOfBytes": "32",
						"value": "t_struct(TokenApprovalRef)1085_storage"
					},
					"t_mapping(t_uint256,t_uint256)": {
						"encoding": "mapping",
						"key": "t_uint256",
						"label": "mapping(uint256 => uint256)",
						"numberOfBytes": "32",
						"value": "t_uint256"
					},
					"t_string_storage": {
						"encoding": "bytes",
						"label": "string",
						"numberOfBytes": "32"
					},
					"t_struct(TokenApprovalRef)1085_storage": {
						"encoding": "inplace",
						"label": "struct ERC721A.TokenApprovalRef",
						"members": [
							{
								"astId": 1084,
								"contract": "contracts/WOM_LAND.sol:WomLand",
								"label": "value",
								"offset": 0,
								"slot": "0",
								"type": "t_address"
							}
						],
						"numberOfBytes": "32"
					},
					"t_uint256": {
						"encoding": "inplace",
						"label": "uint256",
						"numberOfBytes": "32"
					}
				}
			},
			"userdoc": {
				"errors": {
					"ApprovalCallerNotOwnerNorApproved()": [
						{
							"notice": "The caller must own the token or be an approved operator."
						}
					],
					"ApprovalQueryForNonexistentToken()": [
						{
							"notice": "The token does not exist."
						}
					],
					"BalanceQueryForZeroAddress()": [
						{
							"notice": "Cannot query the balance for the zero address."
						}
					],
					"MintERC2309QuantityExceedsLimit()": [
						{
							"notice": "The `quantity` minted with ERC2309 exceeds the safety limit."
						}
					],
					"MintToZeroAddress()": [
						{
							"notice": "Cannot mint to the zero address."
						}
					],
					"MintZeroQuantity()": [
						{
							"notice": "The quantity of tokens minted must be more than zero."
						}
					],
					"OwnerQueryForNonexistentToken()": [
						{
							"notice": "The token does not exist."
						}
					],
					"OwnershipNotInitializedForExtraData()": [
						{
							"notice": "The `extraData` cannot be set on an unintialized ownership slot."
						}
					],
					"TransferCallerNotOwnerNorApproved()": [
						{
							"notice": "The caller must own the token or be an approved operator."
						}
					],
					"TransferFromIncorrectOwner()": [
						{
							"notice": "The token must be owned by `from`."
						}
					],
					"TransferToNonERC721ReceiverImplementer()": [
						{
							"notice": "Cannot safely transfer to a contract that does not implement the ERC721Receiver interface."
						}
					],
					"TransferToZeroAddress()": [
						{
							"notice": "Cannot transfer to the zero address."
						}
					],
					"URIQueryForNonexistentToken()": [
						{
							"notice": "The token does not exist."
						}
					]
				},
				"kind": "user",
				"methods": {},
				"version": 1
			}
		}
	}
}