{
	".deps/contracts/WOM_Mint.sol": {
		"WOMNFT": {
			"abi": [
				{
					"inputs": [],
					"stateMutability": "nonpayable",
					"type": "constructor"
				},
				{
					"anonymous": false,
					"inputs": [
						{
							"indexed": true,
							"internalType": "address",
							"name": "account",
							"type": "address"
						},
						{
							"indexed": true,
							"internalType": "address",
							"name": "operator",
							"type": "address"
						},
						{
							"indexed": false,
							"internalType": "bool",
							"name": "approved",
							"type": "bool"
						}
					],
					"name": "ApprovalForAll",
					"type": "event"
				},
				{
					"anonymous": false,
					"inputs": [
						{
							"indexed": true,
							"internalType": "address",
							"name": "previousOwner",
							"type": "address"
						},
						{
							"indexed": true,
							"internalType": "address",
							"name": "newOwner",
							"type": "address"
						}
					],
					"name": "OwnershipTransferred",
					"type": "event"
				},
				{
					"anonymous": false,
					"inputs": [
						{
							"indexed": true,
							"internalType": "address",
							"name": "operator",
							"type": "address"
						},
						{
							"indexed": true,
							"internalType": "address",
							"name": "from",
							"type": "address"
						},
						{
							"indexed": true,
							"internalType": "address",
							"name": "to",
							"type": "address"
						},
						{
							"indexed": false,
							"internalType": "uint256[]",
							"name": "ids",
							"type": "uint256[]"
						},
						{
							"indexed": false,
							"internalType": "uint256[]",
							"name": "values",
							"type": "uint256[]"
						}
					],
					"name": "TransferBatch",
					"type": "event"
				},
				{
					"anonymous": false,
					"inputs": [
						{
							"indexed": true,
							"internalType": "address",
							"name": "operator",
							"type": "address"
						},
						{
							"indexed": true,
							"internalType": "address",
							"name": "from",
							"type": "address"
						},
						{
							"indexed": true,
							"internalType": "address",
							"name": "to",
							"type": "address"
						},
						{
							"indexed": false,
							"internalType": "uint256",
							"name": "id",
							"type": "uint256"
						},
						{
							"indexed": false,
							"internalType": "uint256",
							"name": "value",
							"type": "uint256"
						}
					],
					"name": "TransferSingle",
					"type": "event"
				},
				{
					"anonymous": false,
					"inputs": [
						{
							"indexed": false,
							"internalType": "string",
							"name": "value",
							"type": "string"
						},
						{
							"indexed": true,
							"internalType": "uint256",
							"name": "id",
							"type": "uint256"
						}
					],
					"name": "URI",
					"type": "event"
				},
				{
					"inputs": [
						{
							"internalType": "address",
							"name": "account",
							"type": "address"
						},
						{
							"internalType": "uint256",
							"name": "id",
							"type": "uint256"
						}
					],
					"name": "balanceOf",
					"outputs": [
						{
							"internalType": "uint256",
							"name": "",
							"type": "uint256"
						}
					],
					"stateMutability": "view",
					"type": "function"
				},
				{
					"inputs": [
						{
							"internalType": "address[]",
							"name": "accounts",
							"type": "address[]"
						},
						{
							"internalType": "uint256[]",
							"name": "ids",
							"type": "uint256[]"
						}
					],
					"name": "balanceOfBatch",
					"outputs": [
						{
							"internalType": "uint256[]",
							"name": "",
							"type": "uint256[]"
						}
					],
					"stateMutability": "view",
					"type": "function"
				},
				{
					"inputs": [
						{
							"internalType": "address",
							"name": "account",
							"type": "address"
						},
						{
							"internalType": "address",
							"name": "operator",
							"type": "address"
						}
					],
					"name": "isApprovedForAll",
					"outputs": [
						{
							"internalType": "bool",
							"name": "",
							"type": "bool"
						}
					],
					"stateMutability": "view",
					"type": "function"
				},
				{
					"inputs": [
						{
							"internalType": "uint256",
							"name": "tokenId",
							"type": "uint256"
						},
						{
							"internalType": "uint256",
							"name": "amount",
							"type": "uint256"
						}
					],
					"name": "mint",
					"outputs": [],
					"stateMutability": "nonpayable",
					"type": "function"
				},
				{
					"inputs": [],
					"name": "owner",
					"outputs": [
						{
							"internalType": "address",
							"name": "",
							"type": "address"
						}
					],
					"stateMutability": "view",
					"type": "function"
				},
				{
					"inputs": [],
					"name": "renounceOwnership",
					"outputs": [],
					"stateMutability": "nonpayable",
					"type": "function"
				},
				{
					"inputs": [
						{
							"internalType": "address",
							"name": "from",
							"type": "address"
						},
						{
							"internalType": "address",
							"name": "to",
							"type": "address"
						},
						{
							"internalType": "uint256[]",
							"name": "ids",
							"type": "uint256[]"
						},
						{
							"internalType": "uint256[]",
							"name": "amounts",
							"type": "uint256[]"
						},
						{
							"internalType": "bytes",
							"name": "data",
							"type": "bytes"
						}
					],
					"name": "safeBatchTransferFrom",
					"outputs": [],
					"stateMutability": "nonpayable",
					"type": "function"
				},
				{
					"inputs": [
						{
							"internalType": "address",
							"name": "from",
							"type": "address"
						},
						{
							"internalType": "address",
							"name": "to",
							"type": "address"
						},
						{
							"internalType": "uint256",
							"name": "id",
							"type": "uint256"
						},
						{
							"internalType": "uint256",
							"name": "amount",
							"type": "uint256"
						},
						{
							"internalType": "bytes",
							"name": "data",
							"type": "bytes"
						}
					],
					"name": "safeTransferFrom",
					"outputs": [],
					"stateMutability": "nonpayable",
					"type": "function"
				},
				{
					"inputs": [
						{
							"internalType": "address",
							"name": "operator",
							"type": "address"
						},
						{
							"internalType": "bool",
							"name": "approved",
							"type": "bool"
						}
					],
					"name": "setApprovalForAll",
					"outputs": [],
					"stateMutability": "nonpayable",
					"type": "function"
				},
				{
					"inputs": [
						{
							"internalType": "bytes4",
							"name": "interfaceId",
							"type": "bytes4"
						}
					],
					"name": "supportsInterface",
					"outputs": [
						{
							"internalType": "bool",
							"name": "",
							"type": "bool"
						}
					],
					"stateMutability": "view",
					"type": "function"
				},
				{
					"inputs": [
						{
							"internalType": "address",
							"name": "newOwner",
							"type": "address"
						}
					],
					"name": "transferOwnership",
					"outputs": [],
					"stateMutability": "nonpayable",
					"type": "function"
				},
				{
					"inputs": [
						{
							"internalType": "uint256",
							"name": "",
							"type": "uint256"
						}
					],
					"name": "uri",
					"outputs": [
						{
							"internalType": "string",
							"name": "",
							"type": "string"
						}
					],
					"stateMutability": "view",
					"type": "function"
				}
			],
			"devdoc": {
				"kind": "dev",
				"methods": {
					"balanceOf(address,uint256)": {
						"details": "See {IERC1155-balanceOf}. Requirements: - `account` cannot be the zero address."
					},
					"balanceOfBatch(address[],uint256[])": {
						"details": "See {IERC1155-balanceOfBatch}. Requirements: - `accounts` and `ids` must have the same length."
					},
					"isApprovedForAll(address,address)": {
						"details": "See {IERC1155-isApprovedForAll}."
					},
					"owner()": {
						"details": "Returns the address of the current owner."
					},
					"renounceOwnership()": {
						"details": "Leaves the contract without owner. It will not be possible to call `onlyOwner` functions anymore. Can only be called by the current owner. NOTE: Renouncing ownership will leave the contract without an owner, thereby removing any functionality that is only available to the owner."
					},
					"safeBatchTransferFrom(address,address,uint256[],uint256[],bytes)": {
						"details": "See {IERC1155-safeBatchTransferFrom}."
					},
					"safeTransferFrom(address,address,uint256,uint256,bytes)": {
						"details": "See {IERC1155-safeTransferFrom}."
					},
					"setApprovalForAll(address,bool)": {
						"details": "See {IERC1155-setApprovalForAll}."
					},
					"supportsInterface(bytes4)": {
						"details": "See {IERC165-supportsInterface}."
					},
					"transferOwnership(address)": {
						"details": "Transfers ownership of the contract to a new account (`newOwner`). Can only be called by the current owner."
					},
					"uri(uint256)": {
						"details": "See {IERC1155MetadataURI-uri}. This implementation returns the same URI for *all* token types. It relies on the token type ID substitution mechanism https://eips.ethereum.org/EIPS/eip-1155#metadata[defined in the EIP]. Clients calling this function must replace the `\\{id\\}` substring with the actual token type ID."
					}
				},
				"version": 1
			},
			"evm": {
				"assembly": "    /* \".deps/contracts/WOM_Mint.sol\":178:393  contract WOMNFT is ERC1155, Ownable {   ... */\n  mstore(0x40, 0x80)\n    /* \".deps/contracts/WOM_Mint.sol\":223:262  constructor() ERC1155(\"\") {      ... */\n  callvalue\n  dup1\n  iszero\n  tag_1\n  jumpi\n  0x00\n  dup1\n  revert\ntag_1:\n  pop\n    /* \"@openzeppelin/contracts/token/ERC1155/ERC1155.sol\":1107:1169  constructor(string memory uri_) {... */\n  0x40\n  dup1\n  mload\n  0x20\n  dup2\n  add\n  swap1\n  swap2\n  mstore\n  0x00\n  dup2\n  mstore\n    /* \"@openzeppelin/contracts/token/ERC1155/ERC1155.sol\":1149:1162  _setURI(uri_) */\n  tag_6\n    /* \"@openzeppelin/contracts/token/ERC1155/ERC1155.sol\":1107:1169  constructor(string memory uri_) {... */\n  dup2\n    /* \"@openzeppelin/contracts/token/ERC1155/ERC1155.sol\":1149:1156  _setURI */\n  tag_7\n    /* \"@openzeppelin/contracts/token/ERC1155/ERC1155.sol\":1149:1162  _setURI(uri_) */\n  jump\t// in\ntag_6:\n  pop\n    /* \"@openzeppelin/contracts/access/Ownable.sol\":936:968  _transferOwnership(_msgSender()) */\n  tag_9\n    /* \"@openzeppelin/contracts/utils/Context.sol\":719:729  msg.sender */\n  caller\n    /* \"@openzeppelin/contracts/access/Ownable.sol\":936:954  _transferOwnership */\n  tag_12\n    /* \"@openzeppelin/contracts/access/Ownable.sol\":936:968  _transferOwnership(_msgSender()) */\n  jump\t// in\ntag_9:\n    /* \".deps/contracts/WOM_Mint.sol\":178:393  contract WOMNFT is ERC1155, Ownable {   ... */\n  jump(tag_25)\n    /* \"@openzeppelin/contracts/token/ERC1155/ERC1155.sol\":8173:8259  function _setURI(string memory newuri) internal virtual {... */\ntag_7:\n    /* \"@openzeppelin/contracts/token/ERC1155/ERC1155.sol\":8239:8243  _uri */\n  0x02\n    /* \"@openzeppelin/contracts/token/ERC1155/ERC1155.sol\":8239:8252  _uri = newuri */\n  tag_16\n    /* \"@openzeppelin/contracts/token/ERC1155/ERC1155.sol\":8246:8252  newuri */\n  dup3\n    /* \"@openzeppelin/contracts/token/ERC1155/ERC1155.sol\":8239:8243  _uri */\n  dup3\n    /* \"@openzeppelin/contracts/token/ERC1155/ERC1155.sol\":8239:8252  _uri = newuri */\n  tag_17\n  jump\t// in\ntag_16:\n  pop\n    /* \"@openzeppelin/contracts/token/ERC1155/ERC1155.sol\":8173:8259  function _setURI(string memory newuri) internal virtual {... */\n  pop\n  jump\t// out\n    /* \"@openzeppelin/contracts/access/Ownable.sol\":2433:2620  function _transferOwnership(address newOwner) internal virtual {... */\ntag_12:\n    /* \"@openzeppelin/contracts/access/Ownable.sol\":2525:2531  _owner */\n  0x03\n  dup1\n  sload\n  sub(shl(0xa0, 0x01), 0x01)\n    /* \"@openzeppelin/contracts/access/Ownable.sol\":2541:2558  _owner = newOwner */\n  dup4\n  dup2\n  and\n  not(sub(shl(0xa0, 0x01), 0x01))\n  dup4\n  and\n  dup2\n  or\n  swap1\n  swap4\n  sstore\n    /* \"@openzeppelin/contracts/access/Ownable.sol\":2573:2613  OwnershipTransferred(oldOwner, newOwner) */\n  mload(0x40)\n    /* \"@openzeppelin/contracts/access/Ownable.sol\":2525:2531  _owner */\n  swap2\n  and\n  swap2\n    /* \"@openzeppelin/contracts/access/Ownable.sol\":2541:2558  _owner = newOwner */\n  swap1\n    /* \"@openzeppelin/contracts/access/Ownable.sol\":2525:2531  _owner */\n  dup3\n  swap1\n    /* \"@openzeppelin/contracts/access/Ownable.sol\":2573:2613  OwnershipTransferred(oldOwner, newOwner) */\n  0x8be0079c531659141344cd1fd0a4f28419497f9722a3daafe3b4186f6b6457e0\n  swap1\n    /* \"@openzeppelin/contracts/access/Ownable.sol\":2506:2522  address oldOwner */\n  0x00\n  swap1\n    /* \"@openzeppelin/contracts/access/Ownable.sol\":2573:2613  OwnershipTransferred(oldOwner, newOwner) */\n  log3\n    /* \"@openzeppelin/contracts/access/Ownable.sol\":2496:2620  {... */\n  pop\n    /* \"@openzeppelin/contracts/access/Ownable.sol\":2433:2620  function _transferOwnership(address newOwner) internal virtual {... */\n  pop\n  jump\t// out\n    /* \"#utility.yul\":14:141   */\ntag_20:\n    /* \"#utility.yul\":75:85   */\n  0x4e487b71\n    /* \"#utility.yul\":70:73   */\n  0xe0\n    /* \"#utility.yul\":66:86   */\n  shl\n    /* \"#utility.yul\":63:64   */\n  0x00\n    /* \"#utility.yul\":56:87   */\n  mstore\n    /* \"#utility.yul\":106:110   */\n  0x41\n    /* \"#utility.yul\":103:104   */\n  0x04\n    /* \"#utility.yul\":96:111   */\n  mstore\n    /* \"#utility.yul\":130:134   */\n  0x24\n    /* \"#utility.yul\":127:128   */\n  0x00\n    /* \"#utility.yul\":120:135   */\n  revert\n    /* \"#utility.yul\":146:526   */\ntag_21:\n    /* \"#utility.yul\":225:226   */\n  0x01\n    /* \"#utility.yul\":221:233   */\n  dup2\n  dup2\n  shr\n  swap1\n    /* \"#utility.yul\":268:280   */\n  dup3\n  and\n  dup1\n    /* \"#utility.yul\":289:350   */\n  tag_28\n  jumpi\n    /* \"#utility.yul\":343:347   */\n  0x7f\n    /* \"#utility.yul\":335:341   */\n  dup3\n    /* \"#utility.yul\":331:348   */\n  and\n    /* \"#utility.yul\":321:348   */\n  swap2\n  pop\n    /* \"#utility.yul\":289:350   */\ntag_28:\n    /* \"#utility.yul\":396:398   */\n  0x20\n    /* \"#utility.yul\":388:394   */\n  dup3\n    /* \"#utility.yul\":385:399   */\n  lt\n    /* \"#utility.yul\":365:383   */\n  dup2\n    /* \"#utility.yul\":362:400   */\n  sub\n    /* \"#utility.yul\":359:520   */\n  tag_29\n  jumpi\n    /* \"#utility.yul\":442:452   */\n  0x4e487b71\n    /* \"#utility.yul\":437:440   */\n  0xe0\n    /* \"#utility.yul\":433:453   */\n  shl\n    /* \"#utility.yul\":430:431   */\n  0x00\n    /* \"#utility.yul\":423:454   */\n  mstore\n    /* \"#utility.yul\":477:481   */\n  0x22\n    /* \"#utility.yul\":474:475   */\n  0x04\n    /* \"#utility.yul\":467:482   */\n  mstore\n    /* \"#utility.yul\":505:509   */\n  0x24\n    /* \"#utility.yul\":502:503   */\n  0x00\n    /* \"#utility.yul\":495:510   */\n  revert\n    /* \"#utility.yul\":359:520   */\ntag_29:\n  pop\n    /* \"#utility.yul\":146:526   */\n  swap2\n  swap1\n  pop\n  jump\t// out\n    /* \"#utility.yul\":657:1202   */\ntag_23:\n    /* \"#utility.yul\":759:761   */\n  0x1f\n    /* \"#utility.yul\":754:757   */\n  dup3\n    /* \"#utility.yul\":751:762   */\n  gt\n    /* \"#utility.yul\":748:1196   */\n  iszero\n  tag_32\n  jumpi\n    /* \"#utility.yul\":795:796   */\n  0x00\n    /* \"#utility.yul\":820:825   */\n  dup2\n    /* \"#utility.yul\":816:818   */\n  dup2\n    /* \"#utility.yul\":809:826   */\n  mstore\n    /* \"#utility.yul\":865:869   */\n  0x20\n    /* \"#utility.yul\":861:863   */\n  dup2\n    /* \"#utility.yul\":851:870   */\n  keccak256\n    /* \"#utility.yul\":935:937   */\n  0x1f\n    /* \"#utility.yul\":923:933   */\n  dup6\n    /* \"#utility.yul\":919:938   */\n  add\n    /* \"#utility.yul\":916:917   */\n  0x05\n    /* \"#utility.yul\":912:939   */\n  shr\n    /* \"#utility.yul\":906:910   */\n  dup2\n    /* \"#utility.yul\":902:940   */\n  add\n    /* \"#utility.yul\":971:975   */\n  0x20\n    /* \"#utility.yul\":959:969   */\n  dup7\n    /* \"#utility.yul\":956:976   */\n  lt\n    /* \"#utility.yul\":953:1000   */\n  iszero\n  tag_33\n  jumpi\n  pop\n    /* \"#utility.yul\":994:998   */\n  dup1\n    /* \"#utility.yul\":953:1000   */\ntag_33:\n    /* \"#utility.yul\":1049:1051   */\n  0x1f\n    /* \"#utility.yul\":1044:1047   */\n  dup6\n    /* \"#utility.yul\":1040:1052   */\n  add\n    /* \"#utility.yul\":1037:1038   */\n  0x05\n    /* \"#utility.yul\":1033:1053   */\n  shr\n    /* \"#utility.yul\":1027:1031   */\n  dup3\n    /* \"#utility.yul\":1023:1054   */\n  add\n    /* \"#utility.yul\":1013:1054   */\n  swap2\n  pop\n    /* \"#utility.yul\":1104:1186   */\ntag_34:\n    /* \"#utility.yul\":1122:1124   */\n  dup2\n    /* \"#utility.yul\":1115:1120   */\n  dup2\n    /* \"#utility.yul\":1112:1125   */\n  lt\n    /* \"#utility.yul\":1104:1186   */\n  iszero\n  tag_36\n  jumpi\n    /* \"#utility.yul\":1167:1184   */\n  dup3\n  dup2\n  sstore\n    /* \"#utility.yul\":1148:1149   */\n  0x01\n    /* \"#utility.yul\":1137:1150   */\n  add\n    /* \"#utility.yul\":1104:1186   */\n  jump(tag_34)\ntag_36:\n    /* \"#utility.yul\":1108:1111   */\n  pop\n  pop\n  pop\n    /* \"#utility.yul\":748:1196   */\ntag_32:\n    /* \"#utility.yul\":657:1202   */\n  pop\n  pop\n  pop\n  jump\t// out\n    /* \"#utility.yul\":1378:2730   */\ntag_17:\n    /* \"#utility.yul\":1498:1508   */\n  dup2\n  mload\n  sub(shl(0x40, 0x01), 0x01)\n    /* \"#utility.yul\":1520:1550   */\n  dup2\n  gt\n    /* \"#utility.yul\":1517:1573   */\n  iszero\n  tag_40\n  jumpi\n    /* \"#utility.yul\":1553:1571   */\n  tag_40\n  tag_20\n  jump\t// in\ntag_40:\n    /* \"#utility.yul\":1582:1679   */\n  tag_41\n    /* \"#utility.yul\":1672:1678   */\n  dup2\n    /* \"#utility.yul\":1632:1670   */\n  tag_42\n    /* \"#utility.yul\":1664:1668   */\n  dup5\n    /* \"#utility.yul\":1658:1669   */\n  sload\n    /* \"#utility.yul\":1632:1670   */\n  tag_21\n  jump\t// in\ntag_42:\n    /* \"#utility.yul\":1626:1630   */\n  dup5\n    /* \"#utility.yul\":1582:1679   */\n  tag_23\n  jump\t// in\ntag_41:\n    /* \"#utility.yul\":1734:1738   */\n  0x20\n  dup1\n    /* \"#utility.yul\":1798:1800   */\n  0x1f\n    /* \"#utility.yul\":1787:1801   */\n  dup4\n  gt\n    /* \"#utility.yul\":1815:1816   */\n  0x01\n    /* \"#utility.yul\":1810:2473   */\n  dup2\n  eq\n  tag_44\n  jumpi\n    /* \"#utility.yul\":2517:2518   */\n  0x00\n    /* \"#utility.yul\":2534:2540   */\n  dup5\n    /* \"#utility.yul\":2531:2620   */\n  iszero\n  tag_45\n  jumpi\n  pop\n    /* \"#utility.yul\":2586:2605   */\n  dup6\n  dup4\n  add\n    /* \"#utility.yul\":2580:2606   */\n  mload\n    /* \"#utility.yul\":2531:2620   */\ntag_45:\n  not(0x00)\n    /* \"#utility.yul\":1335:1336   */\n  0x03\n    /* \"#utility.yul\":1331:1342   */\n  dup7\n  swap1\n  shl\n    /* \"#utility.yul\":1327:1351   */\n  shr\n    /* \"#utility.yul\":1323:1352   */\n  not\n    /* \"#utility.yul\":1313:1353   */\n  and\n    /* \"#utility.yul\":1359:1360   */\n  0x01\n    /* \"#utility.yul\":1355:1366   */\n  dup6\n  swap1\n  shl\n    /* \"#utility.yul\":1310:1367   */\n  or\n    /* \"#utility.yul\":2633:2714   */\n  dup6\n  sstore\n    /* \"#utility.yul\":1780:2724   */\n  jump(tag_36)\n    /* \"#utility.yul\":1810:2473   */\ntag_44:\n    /* \"#utility.yul\":604:605   */\n  0x00\n    /* \"#utility.yul\":597:611   */\n  dup6\n  dup2\n  mstore\n    /* \"#utility.yul\":641:645   */\n  0x20\n    /* \"#utility.yul\":628:646   */\n  dup2\n  keccak256\n  not(0x1f)\n    /* \"#utility.yul\":1846:1866   */\n  dup7\n  and\n  swap2\n    /* \"#utility.yul\":1964:2200   */\ntag_48:\n    /* \"#utility.yul\":1978:1985   */\n  dup3\n    /* \"#utility.yul\":1975:1976   */\n  dup2\n    /* \"#utility.yul\":1972:1986   */\n  lt\n    /* \"#utility.yul\":1964:2200   */\n  iszero\n  tag_50\n  jumpi\n    /* \"#utility.yul\":2067:2086   */\n  dup9\n  dup7\n  add\n    /* \"#utility.yul\":2061:2087   */\n  mload\n    /* \"#utility.yul\":2046:2088   */\n  dup3\n  sstore\n    /* \"#utility.yul\":2159:2186   */\n  swap5\n  dup5\n  add\n  swap5\n    /* \"#utility.yul\":2127:2128   */\n  0x01\n    /* \"#utility.yul\":2115:2129   */\n  swap1\n  swap2\n  add\n  swap1\n    /* \"#utility.yul\":1994:2013   */\n  dup5\n  add\n    /* \"#utility.yul\":1964:2200   */\n  jump(tag_48)\ntag_50:\n    /* \"#utility.yul\":1968:1971   */\n  pop\n    /* \"#utility.yul\":2228:2234   */\n  dup6\n    /* \"#utility.yul\":2219:2226   */\n  dup3\n    /* \"#utility.yul\":2216:2235   */\n  lt\n    /* \"#utility.yul\":2213:2414   */\n  iszero\n  tag_51\n  jumpi\n    /* \"#utility.yul\":2289:2308   */\n  dup8\n  dup6\n  add\n    /* \"#utility.yul\":2283:2309   */\n  mload\n  not(0x00)\n    /* \"#utility.yul\":2372:2373   */\n  0x03\n    /* \"#utility.yul\":2368:2382   */\n  dup9\n  swap1\n  shl\n    /* \"#utility.yul\":2384:2387   */\n  0xf8\n    /* \"#utility.yul\":2364:2388   */\n  and\n    /* \"#utility.yul\":2360:2397   */\n  shr\n    /* \"#utility.yul\":2356:2398   */\n  not\n    /* \"#utility.yul\":2341:2399   */\n  and\n    /* \"#utility.yul\":2326:2400   */\n  dup2\n  sstore\n    /* \"#utility.yul\":2213:2414   */\ntag_51:\n  pop\n  pop\n  pop\n  pop\n  pop\n    /* \"#utility.yul\":2460:2461   */\n  0x01\n    /* \"#utility.yul\":2444:2458   */\n  swap1\n  dup2\n  shl\n    /* \"#utility.yul\":2440:2462   */\n  add\n    /* \"#utility.yul\":2427:2463   */\n  swap1\n  sstore\n  pop\n    /* \"#utility.yul\":1378:2730   */\n  jump\t// out\ntag_25:\n    /* \".deps/contracts/WOM_Mint.sol\":178:393  contract WOMNFT is ERC1155, Ownable {   ... */\n  dataSize(sub_0)\n  dup1\n  dataOffset(sub_0)\n  0x00\n  codecopy\n  0x00\n  return\nstop\n\nsub_0: assembly {\n        /* \".deps/contracts/WOM_Mint.sol\":178:393  contract WOMNFT is ERC1155, Ownable {   ... */\n      mstore(0x40, 0x80)\n      callvalue\n      dup1\n      iszero\n      tag_1\n      jumpi\n      0x00\n      dup1\n      revert\n    tag_1:\n      pop\n      jumpi(tag_2, lt(calldatasize, 0x04))\n      shr(0xe0, calldataload(0x00))\n      dup1\n      0x715018a6\n      gt\n      tag_15\n      jumpi\n      dup1\n      0x715018a6\n      eq\n      tag_9\n      jumpi\n      dup1\n      0x8da5cb5b\n      eq\n      tag_10\n      jumpi\n      dup1\n      0xa22cb465\n      eq\n      tag_11\n      jumpi\n      dup1\n      0xe985e9c5\n      eq\n      tag_12\n      jumpi\n      dup1\n      0xf242432a\n      eq\n      tag_13\n      jumpi\n      dup1\n      0xf2fde38b\n      eq\n      tag_14\n      jumpi\n      0x00\n      dup1\n      revert\n    tag_15:\n      dup1\n      0xfdd58e\n      eq\n      tag_3\n      jumpi\n      dup1\n      0x01ffc9a7\n      eq\n      tag_4\n      jumpi\n      dup1\n      0x0e89341c\n      eq\n      tag_5\n      jumpi\n      dup1\n      0x1b2ef1ca\n      eq\n      tag_6\n      jumpi\n      dup1\n      0x2eb2c2d6\n      eq\n      tag_7\n      jumpi\n      dup1\n      0x4e1273f4\n      eq\n      tag_8\n      jumpi\n    tag_2:\n      0x00\n      dup1\n      revert\n        /* \"@openzeppelin/contracts/token/ERC1155/ERC1155.sol\":2185:2412  function balanceOf(address account, uint256 id) public view virtual override returns (uint256) {... */\n    tag_3:\n      tag_16\n      tag_17\n      calldatasize\n      0x04\n      tag_18\n      jump\t// in\n    tag_17:\n      tag_19\n      jump\t// in\n    tag_16:\n      mload(0x40)\n        /* \"#utility.yul\":597:622   */\n      swap1\n      dup2\n      mstore\n        /* \"#utility.yul\":585:587   */\n      0x20\n        /* \"#utility.yul\":570:588   */\n      add\n        /* \"@openzeppelin/contracts/token/ERC1155/ERC1155.sol\":2185:2412  function balanceOf(address account, uint256 id) public view virtual override returns (uint256) {... */\n    tag_20:\n      mload(0x40)\n      dup1\n      swap2\n      sub\n      swap1\n      return\n        /* \"@openzeppelin/contracts/token/ERC1155/ERC1155.sol\":1236:1541  function supportsInterface(bytes4 interfaceId) public view virtual override(ERC165, IERC165) returns (bool) {... */\n    tag_4:\n      tag_22\n      tag_23\n      calldatasize\n      0x04\n      tag_24\n      jump\t// in\n    tag_23:\n      tag_25\n      jump\t// in\n    tag_22:\n      mload(0x40)\n        /* \"#utility.yul\":1184:1198   */\n      swap1\n      iszero\n        /* \"#utility.yul\":1177:1199   */\n      iszero\n        /* \"#utility.yul\":1159:1200   */\n      dup2\n      mstore\n        /* \"#utility.yul\":1147:1149   */\n      0x20\n        /* \"#utility.yul\":1132:1150   */\n      add\n        /* \"@openzeppelin/contracts/token/ERC1155/ERC1155.sol\":1236:1541  function supportsInterface(bytes4 interfaceId) public view virtual override(ERC165, IERC165) returns (bool) {... */\n      tag_20\n        /* \"#utility.yul\":1019:1206   */\n      jump\n        /* \"@openzeppelin/contracts/token/ERC1155/ERC1155.sol\":1940:2043  function uri(uint256) public view virtual override returns (string memory) {... */\n    tag_5:\n      tag_28\n      tag_29\n      calldatasize\n      0x04\n      tag_30\n      jump\t// in\n    tag_29:\n      tag_31\n      jump\t// in\n    tag_28:\n      mload(0x40)\n      tag_20\n      swap2\n      swap1\n      tag_33\n      jump\t// in\n        /* \".deps/contracts/WOM_Mint.sol\":272:391  function mint(uint256 tokenId, uint256 amount) onlyOwner public {... */\n    tag_6:\n      tag_34\n      tag_35\n      calldatasize\n      0x04\n      tag_36\n      jump\t// in\n    tag_35:\n      tag_37\n      jump\t// in\n    tag_34:\n      stop\n        /* \"@openzeppelin/contracts/token/ERC1155/ERC1155.sol\":4065:4492  function safeBatchTransferFrom(... */\n    tag_7:\n      tag_34\n      tag_39\n      calldatasize\n      0x04\n      tag_40\n      jump\t// in\n    tag_39:\n      tag_41\n      jump\t// in\n        /* \"@openzeppelin/contracts/token/ERC1155/ERC1155.sol\":2569:3077  function balanceOfBatch(address[] memory accounts, uint256[] memory ids)... */\n    tag_8:\n      tag_42\n      tag_43\n      calldatasize\n      0x04\n      tag_44\n      jump\t// in\n    tag_43:\n      tag_45\n      jump\t// in\n    tag_42:\n      mload(0x40)\n      tag_20\n      swap2\n      swap1\n      tag_47\n      jump\t// in\n        /* \"@openzeppelin/contracts/access/Ownable.sol\":1831:1932  function renounceOwnership() public virtual onlyOwner {... */\n    tag_9:\n      tag_34\n      tag_49\n      jump\t// in\n        /* \"@openzeppelin/contracts/access/Ownable.sol\":1201:1286  function owner() public view virtual returns (address) {... */\n    tag_10:\n        /* \"@openzeppelin/contracts/access/Ownable.sol\":1273:1279  _owner */\n      sload(0x03)\n        /* \"@openzeppelin/contracts/access/Ownable.sol\":1201:1286  function owner() public view virtual returns (address) {... */\n      mload(0x40)\n      sub(shl(0xa0, 0x01), 0x01)\n        /* \"@openzeppelin/contracts/access/Ownable.sol\":1273:1279  _owner */\n      swap1\n      swap2\n      and\n        /* \"#utility.yul\":7227:7278   */\n      dup2\n      mstore\n        /* \"#utility.yul\":7215:7217   */\n      0x20\n        /* \"#utility.yul\":7200:7218   */\n      add\n        /* \"@openzeppelin/contracts/access/Ownable.sol\":1201:1286  function owner() public view virtual returns (address) {... */\n      tag_20\n        /* \"#utility.yul\":7081:7284   */\n      jump\n        /* \"@openzeppelin/contracts/token/ERC1155/ERC1155.sol\":3145:3298  function setApprovalForAll(address operator, bool approved) public virtual override {... */\n    tag_11:\n      tag_34\n      tag_55\n      calldatasize\n      0x04\n      tag_56\n      jump\t// in\n    tag_55:\n      tag_57\n      jump\t// in\n        /* \"@openzeppelin/contracts/token/ERC1155/ERC1155.sol\":3365:3531  function isApprovedForAll(address account, address operator) public view virtual override returns (bool) {... */\n    tag_12:\n      tag_22\n      tag_59\n      calldatasize\n      0x04\n      tag_60\n      jump\t// in\n    tag_59:\n      sub(shl(0xa0, 0x01), 0x01)\n        /* \"@openzeppelin/contracts/token/ERC1155/ERC1155.sol\":3487:3514  _operatorApprovals[account] */\n      swap2\n      dup3\n      and\n        /* \"@openzeppelin/contracts/token/ERC1155/ERC1155.sol\":3464:3468  bool */\n      0x00\n        /* \"@openzeppelin/contracts/token/ERC1155/ERC1155.sol\":3487:3514  _operatorApprovals[account] */\n      swap1\n      dup2\n      mstore\n        /* \"@openzeppelin/contracts/token/ERC1155/ERC1155.sol\":3487:3505  _operatorApprovals */\n      0x01\n        /* \"@openzeppelin/contracts/token/ERC1155/ERC1155.sol\":3487:3514  _operatorApprovals[account] */\n      0x20\n      swap1\n      dup2\n      mstore\n      0x40\n      dup1\n      dup4\n      keccak256\n        /* \"@openzeppelin/contracts/token/ERC1155/ERC1155.sol\":3487:3524  _operatorApprovals[account][operator] */\n      swap4\n      swap1\n      swap5\n      and\n      dup3\n      mstore\n      swap2\n      swap1\n      swap2\n      mstore\n      keccak256\n      sload\n      0xff\n      and\n      swap1\n        /* \"@openzeppelin/contracts/token/ERC1155/ERC1155.sol\":3365:3531  function isApprovedForAll(address account, address operator) public view virtual override returns (bool) {... */\n      jump\n        /* \"@openzeppelin/contracts/token/ERC1155/ERC1155.sol\":3598:3993  function safeTransferFrom(... */\n    tag_13:\n      tag_34\n      tag_64\n      calldatasize\n      0x04\n      tag_65\n      jump\t// in\n    tag_64:\n      tag_66\n      jump\t// in\n        /* \"@openzeppelin/contracts/access/Ownable.sol\":2081:2279  function transferOwnership(address newOwner) public virtual onlyOwner {... */\n    tag_14:\n      tag_34\n      tag_68\n      calldatasize\n      0x04\n      tag_69\n      jump\t// in\n    tag_68:\n      tag_70\n      jump\t// in\n        /* \"@openzeppelin/contracts/token/ERC1155/ERC1155.sol\":2185:2412  function balanceOf(address account, uint256 id) public view virtual override returns (uint256) {... */\n    tag_19:\n        /* \"@openzeppelin/contracts/token/ERC1155/ERC1155.sol\":2271:2278  uint256 */\n      0x00\n      sub(shl(0xa0, 0x01), 0x01)\n        /* \"@openzeppelin/contracts/token/ERC1155/ERC1155.sol\":2298:2319  account != address(0) */\n      dup4\n      and\n        /* \"@openzeppelin/contracts/token/ERC1155/ERC1155.sol\":2290:2366  require(account != address(0), \"ERC1155: address zero is not a valid owner\") */\n      tag_72\n      jumpi\n      mload(0x40)\n      shl(0xe5, 0x461bcd)\n      dup2\n      mstore\n        /* \"#utility.yul\":8910:8912   */\n      0x20\n        /* \"@openzeppelin/contracts/token/ERC1155/ERC1155.sol\":2290:2366  require(account != address(0), \"ERC1155: address zero is not a valid owner\") */\n      0x04\n      dup3\n      add\n        /* \"#utility.yul\":8892:8913   */\n      mstore\n        /* \"#utility.yul\":8949:8951   */\n      0x2a\n        /* \"#utility.yul\":8929:8947   */\n      0x24\n      dup3\n      add\n        /* \"#utility.yul\":8922:8952   */\n      mstore\n        /* \"#utility.yul\":8988:9022   */\n      0x455243313135353a2061646472657373207a65726f206973206e6f7420612076\n        /* \"#utility.yul\":8968:8986   */\n      0x44\n      dup3\n      add\n        /* \"#utility.yul\":8961:9023   */\n      mstore\n      shl(0xb1, 0x30b634b21037bbb732b9)\n        /* \"#utility.yul\":9039:9057   */\n      0x64\n      dup3\n      add\n        /* \"#utility.yul\":9032:9072   */\n      mstore\n        /* \"#utility.yul\":9089:9108   */\n      0x84\n      add\n        /* \"@openzeppelin/contracts/token/ERC1155/ERC1155.sol\":2290:2366  require(account != address(0), \"ERC1155: address zero is not a valid owner\") */\n    tag_73:\n      mload(0x40)\n      dup1\n      swap2\n      sub\n      swap1\n      revert\n    tag_72:\n      pop\n        /* \"@openzeppelin/contracts/token/ERC1155/ERC1155.sol\":2383:2392  _balances */\n      0x00\n        /* \"@openzeppelin/contracts/token/ERC1155/ERC1155.sol\":2383:2396  _balances[id] */\n      swap1\n      dup2\n      mstore\n      0x20\n      dup2\n      dup2\n      mstore\n      0x40\n      dup1\n      dup4\n      keccak256\n      sub(shl(0xa0, 0x01), 0x01)\n        /* \"@openzeppelin/contracts/token/ERC1155/ERC1155.sol\":2383:2405  _balances[id][account] */\n      swap5\n      swap1\n      swap5\n      and\n      dup4\n      mstore\n      swap3\n      swap1\n      mstore\n      keccak256\n      sload\n      swap1\n        /* \"@openzeppelin/contracts/token/ERC1155/ERC1155.sol\":2185:2412  function balanceOf(address account, uint256 id) public view virtual override returns (uint256) {... */\n      jump\t// out\n        /* \"@openzeppelin/contracts/token/ERC1155/ERC1155.sol\":1236:1541  function supportsInterface(bytes4 interfaceId) public view virtual override(ERC165, IERC165) returns (bool) {... */\n    tag_25:\n        /* \"@openzeppelin/contracts/token/ERC1155/ERC1155.sol\":1338:1342  bool */\n      0x00\n      not(sub(shl(0xe0, 0x01), 0x01))\n        /* \"@openzeppelin/contracts/token/ERC1155/ERC1155.sol\":1373:1414  interfaceId == type(IERC1155).interfaceId */\n      dup3\n      and\n      shl(0xe1, 0x6cdb3d13)\n      eq\n      dup1\n        /* \"@openzeppelin/contracts/token/ERC1155/ERC1155.sol\":1373:1482  interfaceId == type(IERC1155).interfaceId ||... */\n      tag_76\n      jumpi\n      pop\n      not(sub(shl(0xe0, 0x01), 0x01))\n        /* \"@openzeppelin/contracts/token/ERC1155/ERC1155.sol\":1430:1482  interfaceId == type(IERC1155MetadataURI).interfaceId */\n      dup3\n      and\n      shl(0xe2, 0x03a24d07)\n      eq\n        /* \"@openzeppelin/contracts/token/ERC1155/ERC1155.sol\":1373:1482  interfaceId == type(IERC1155).interfaceId ||... */\n    tag_76:\n        /* \"@openzeppelin/contracts/token/ERC1155/ERC1155.sol\":1373:1534  interfaceId == type(IERC1155).interfaceId ||... */\n      dup1\n      tag_78\n      jumpi\n      pop\n      shl(0xe0, 0x01ffc9a7)\n      not(sub(shl(0xe0, 0x01), 0x01))\n        /* \"@openzeppelin/contracts/utils/introspection/ERC165.sol\":937:977  interfaceId == type(IERC165).interfaceId */\n      dup4\n      and\n      eq\n        /* \"@openzeppelin/contracts/token/ERC1155/ERC1155.sol\":1498:1534  super.supportsInterface(interfaceId) */\n    tag_78:\n        /* \"@openzeppelin/contracts/token/ERC1155/ERC1155.sol\":1354:1534  return... */\n      swap3\n        /* \"@openzeppelin/contracts/token/ERC1155/ERC1155.sol\":1236:1541  function supportsInterface(bytes4 interfaceId) public view virtual override(ERC165, IERC165) returns (bool) {... */\n      swap2\n      pop\n      pop\n      jump\t// out\n        /* \"@openzeppelin/contracts/token/ERC1155/ERC1155.sol\":1940:2043  function uri(uint256) public view virtual override returns (string memory) {... */\n    tag_31:\n        /* \"@openzeppelin/contracts/token/ERC1155/ERC1155.sol\":2000:2013  string memory */\n      0x60\n        /* \"@openzeppelin/contracts/token/ERC1155/ERC1155.sol\":2032:2036  _uri */\n      0x02\n        /* \"@openzeppelin/contracts/token/ERC1155/ERC1155.sol\":2025:2036  return _uri */\n      dup1\n      sload\n      tag_81\n      swap1\n      tag_82\n      jump\t// in\n    tag_81:\n      dup1\n      0x1f\n      add\n      0x20\n      dup1\n      swap2\n      div\n      mul\n      0x20\n      add\n      mload(0x40)\n      swap1\n      dup2\n      add\n      0x40\n      mstore\n      dup1\n      swap3\n      swap2\n      swap1\n      dup2\n      dup2\n      mstore\n      0x20\n      add\n      dup3\n      dup1\n      sload\n      tag_83\n      swap1\n      tag_82\n      jump\t// in\n    tag_83:\n      dup1\n      iszero\n      tag_84\n      jumpi\n      dup1\n      0x1f\n      lt\n      tag_85\n      jumpi\n      0x0100\n      dup1\n      dup4\n      sload\n      div\n      mul\n      dup4\n      mstore\n      swap2\n      0x20\n      add\n      swap2\n      jump(tag_84)\n    tag_85:\n      dup3\n      add\n      swap2\n      swap1\n      0x00\n      mstore\n      keccak256(0x00, 0x20)\n      swap1\n    tag_86:\n      dup2\n      sload\n      dup2\n      mstore\n      swap1\n      0x01\n      add\n      swap1\n      0x20\n      add\n      dup1\n      dup4\n      gt\n      tag_86\n      jumpi\n      dup3\n      swap1\n      sub\n      0x1f\n      and\n      dup3\n      add\n      swap2\n    tag_84:\n      pop\n      pop\n      pop\n      pop\n      pop\n      swap1\n      pop\n        /* \"@openzeppelin/contracts/token/ERC1155/ERC1155.sol\":1940:2043  function uri(uint256) public view virtual override returns (string memory) {... */\n      swap2\n      swap1\n      pop\n      jump\t// out\n        /* \".deps/contracts/WOM_Mint.sol\":272:391  function mint(uint256 tokenId, uint256 amount) onlyOwner public {... */\n    tag_37:\n        /* \"@openzeppelin/contracts/access/Ownable.sol\":1094:1107  _checkOwner() */\n      tag_88\n        /* \"@openzeppelin/contracts/access/Ownable.sol\":1094:1105  _checkOwner */\n      tag_89\n        /* \"@openzeppelin/contracts/access/Ownable.sol\":1094:1107  _checkOwner() */\n      jump\t// in\n    tag_88:\n        /* \".deps/contracts/WOM_Mint.sol\":346:384  _mint(msg.sender, tokenId, amount, \"\") */\n      tag_91\n        /* \".deps/contracts/WOM_Mint.sol\":352:362  msg.sender */\n      caller\n        /* \".deps/contracts/WOM_Mint.sol\":364:371  tokenId */\n      dup4\n        /* \".deps/contracts/WOM_Mint.sol\":373:379  amount */\n      dup4\n        /* \".deps/contracts/WOM_Mint.sol\":346:384  _mint(msg.sender, tokenId, amount, \"\") */\n      mload(0x40)\n      dup1\n      0x20\n      add\n      0x40\n      mstore\n      dup1\n      0x00\n      dup2\n      mstore\n      pop\n        /* \".deps/contracts/WOM_Mint.sol\":346:351  _mint */\n      tag_92\n        /* \".deps/contracts/WOM_Mint.sol\":346:384  _mint(msg.sender, tokenId, amount, \"\") */\n      jump\t// in\n    tag_91:\n        /* \".deps/contracts/WOM_Mint.sol\":272:391  function mint(uint256 tokenId, uint256 amount) onlyOwner public {... */\n      pop\n      pop\n      jump\t// out\n        /* \"@openzeppelin/contracts/token/ERC1155/ERC1155.sol\":4065:4492  function safeBatchTransferFrom(... */\n    tag_41:\n      sub(shl(0xa0, 0x01), 0x01)\n        /* \"@openzeppelin/contracts/token/ERC1155/ERC1155.sol\":4290:4310  from == _msgSender() */\n      dup6\n      and\n        /* \"@openzeppelin/contracts/utils/Context.sol\":719:729  msg.sender */\n      caller\n        /* \"@openzeppelin/contracts/token/ERC1155/ERC1155.sol\":4290:4310  from == _msgSender() */\n      eq\n      dup1\n        /* \"@openzeppelin/contracts/token/ERC1155/ERC1155.sol\":4290:4350  from == _msgSender() || isApprovedForAll(from, _msgSender()) */\n      tag_97\n      jumpi\n      pop\n        /* \"@openzeppelin/contracts/token/ERC1155/ERC1155.sol\":4314:4350  isApprovedForAll(from, _msgSender()) */\n      tag_97\n        /* \"@openzeppelin/contracts/token/ERC1155/ERC1155.sol\":4331:4335  from */\n      dup6\n        /* \"@openzeppelin/contracts/utils/Context.sol\":719:729  msg.sender */\n      caller\n        /* \"@openzeppelin/contracts/token/ERC1155/ERC1155.sol\":3365:3531  function isApprovedForAll(address account, address operator) public view virtual override returns (bool) {... */\n      tag_59\n      jump\t// in\n        /* \"@openzeppelin/contracts/token/ERC1155/ERC1155.sol\":4314:4350  isApprovedForAll(from, _msgSender()) */\n    tag_97:\n        /* \"@openzeppelin/contracts/token/ERC1155/ERC1155.sol\":4269:4423  require(... */\n      tag_99\n      jumpi\n      mload(0x40)\n      shl(0xe5, 0x461bcd)\n      dup2\n      mstore\n      0x04\n      add\n      tag_73\n      swap1\n      tag_101\n      jump\t// in\n    tag_99:\n        /* \"@openzeppelin/contracts/token/ERC1155/ERC1155.sol\":4433:4485  _safeBatchTransferFrom(from, to, ids, amounts, data) */\n      tag_102\n        /* \"@openzeppelin/contracts/token/ERC1155/ERC1155.sol\":4456:4460  from */\n      dup6\n        /* \"@openzeppelin/contracts/token/ERC1155/ERC1155.sol\":4462:4464  to */\n      dup6\n        /* \"@openzeppelin/contracts/token/ERC1155/ERC1155.sol\":4466:4469  ids */\n      dup6\n        /* \"@openzeppelin/contracts/token/ERC1155/ERC1155.sol\":4471:4478  amounts */\n      dup6\n        /* \"@openzeppelin/contracts/token/ERC1155/ERC1155.sol\":4480:4484  data */\n      dup6\n        /* \"@openzeppelin/contracts/token/ERC1155/ERC1155.sol\":4433:4455  _safeBatchTransferFrom */\n      tag_103\n        /* \"@openzeppelin/contracts/token/ERC1155/ERC1155.sol\":4433:4485  _safeBatchTransferFrom(from, to, ids, amounts, data) */\n      jump\t// in\n    tag_102:\n        /* \"@openzeppelin/contracts/token/ERC1155/ERC1155.sol\":4065:4492  function safeBatchTransferFrom(... */\n      pop\n      pop\n      pop\n      pop\n      pop\n      jump\t// out\n        /* \"@openzeppelin/contracts/token/ERC1155/ERC1155.sol\":2569:3077  function balanceOfBatch(address[] memory accounts, uint256[] memory ids)... */\n    tag_45:\n        /* \"@openzeppelin/contracts/token/ERC1155/ERC1155.sol\":2720:2736  uint256[] memory */\n      0x60\n        /* \"@openzeppelin/contracts/token/ERC1155/ERC1155.sol\":2779:2782  ids */\n      dup2\n        /* \"@openzeppelin/contracts/token/ERC1155/ERC1155.sol\":2779:2789  ids.length */\n      mload\n        /* \"@openzeppelin/contracts/token/ERC1155/ERC1155.sol\":2760:2768  accounts */\n      dup4\n        /* \"@openzeppelin/contracts/token/ERC1155/ERC1155.sol\":2760:2775  accounts.length */\n      mload\n        /* \"@openzeppelin/contracts/token/ERC1155/ERC1155.sol\":2760:2789  accounts.length == ids.length */\n      eq\n        /* \"@openzeppelin/contracts/token/ERC1155/ERC1155.sol\":2752:2835  require(accounts.length == ids.length, \"ERC1155: accounts and ids length mismatch\") */\n      tag_105\n      jumpi\n      mload(0x40)\n      shl(0xe5, 0x461bcd)\n      dup2\n      mstore\n        /* \"#utility.yul\":10122:10124   */\n      0x20\n        /* \"@openzeppelin/contracts/token/ERC1155/ERC1155.sol\":2752:2835  require(accounts.length == ids.length, \"ERC1155: accounts and ids length mismatch\") */\n      0x04\n      dup3\n      add\n        /* \"#utility.yul\":10104:10125   */\n      mstore\n        /* \"#utility.yul\":10161:10163   */\n      0x29\n        /* \"#utility.yul\":10141:10159   */\n      0x24\n      dup3\n      add\n        /* \"#utility.yul\":10134:10164   */\n      mstore\n        /* \"#utility.yul\":10200:10234   */\n      0x455243313135353a206163636f756e747320616e6420696473206c656e677468\n        /* \"#utility.yul\":10180:10198   */\n      0x44\n      dup3\n      add\n        /* \"#utility.yul\":10173:10235   */\n      mstore\n      shl(0xbb, 0x040dad2e6dac2e8c6d)\n        /* \"#utility.yul\":10251:10269   */\n      0x64\n      dup3\n      add\n        /* \"#utility.yul\":10244:10283   */\n      mstore\n        /* \"#utility.yul\":10300:10319   */\n      0x84\n      add\n        /* \"@openzeppelin/contracts/token/ERC1155/ERC1155.sol\":2752:2835  require(accounts.length == ids.length, \"ERC1155: accounts and ids length mismatch\") */\n      tag_73\n        /* \"#utility.yul\":9920:10325   */\n      jump\n        /* \"@openzeppelin/contracts/token/ERC1155/ERC1155.sol\":2752:2835  require(accounts.length == ids.length, \"ERC1155: accounts and ids length mismatch\") */\n    tag_105:\n        /* \"@openzeppelin/contracts/token/ERC1155/ERC1155.sol\":2846:2876  uint256[] memory batchBalances */\n      0x00\n        /* \"@openzeppelin/contracts/token/ERC1155/ERC1155.sol\":2893:2901  accounts */\n      dup4\n        /* \"@openzeppelin/contracts/token/ERC1155/ERC1155.sol\":2893:2908  accounts.length */\n      mload\n        /* \"@openzeppelin/contracts/token/ERC1155/ERC1155.sol\":2879:2909  new uint256[](accounts.length) */\n      0xffffffffffffffff\n      dup2\n      gt\n      iszero\n      tag_109\n      jumpi\n      tag_109\n      tag_110\n      jump\t// in\n    tag_109:\n      mload(0x40)\n      swap1\n      dup1\n      dup3\n      mstore\n      dup1\n      0x20\n      mul\n      0x20\n      add\n      dup3\n      add\n      0x40\n      mstore\n      dup1\n      iszero\n      tag_111\n      jumpi\n      dup2\n      0x20\n      add\n      0x20\n      dup3\n      mul\n      dup1\n      calldatasize\n      dup4\n      calldatacopy\n      add\n      swap1\n      pop\n    tag_111:\n      pop\n        /* \"@openzeppelin/contracts/token/ERC1155/ERC1155.sol\":2846:2909  uint256[] memory batchBalances = new uint256[](accounts.length) */\n      swap1\n      pop\n        /* \"@openzeppelin/contracts/token/ERC1155/ERC1155.sol\":2925:2934  uint256 i */\n      0x00\n        /* \"@openzeppelin/contracts/token/ERC1155/ERC1155.sol\":2920:3040  for (uint256 i = 0; i < accounts.length; ++i) {... */\n    tag_112:\n        /* \"@openzeppelin/contracts/token/ERC1155/ERC1155.sol\":2944:2952  accounts */\n      dup5\n        /* \"@openzeppelin/contracts/token/ERC1155/ERC1155.sol\":2944:2959  accounts.length */\n      mload\n        /* \"@openzeppelin/contracts/token/ERC1155/ERC1155.sol\":2940:2941  i */\n      dup2\n        /* \"@openzeppelin/contracts/token/ERC1155/ERC1155.sol\":2940:2959  i < accounts.length */\n      lt\n        /* \"@openzeppelin/contracts/token/ERC1155/ERC1155.sol\":2920:3040  for (uint256 i = 0; i < accounts.length; ++i) {... */\n      iszero\n      tag_113\n      jumpi\n        /* \"@openzeppelin/contracts/token/ERC1155/ERC1155.sol\":2999:3029  balanceOf(accounts[i], ids[i]) */\n      tag_115\n        /* \"@openzeppelin/contracts/token/ERC1155/ERC1155.sol\":3009:3017  accounts */\n      dup6\n        /* \"@openzeppelin/contracts/token/ERC1155/ERC1155.sol\":3018:3019  i */\n      dup3\n        /* \"@openzeppelin/contracts/token/ERC1155/ERC1155.sol\":3009:3020  accounts[i] */\n      dup2\n      mload\n      dup2\n      lt\n      tag_117\n      jumpi\n      tag_117\n      tag_118\n      jump\t// in\n    tag_117:\n      0x20\n      mul\n      0x20\n      add\n      add\n      mload\n        /* \"@openzeppelin/contracts/token/ERC1155/ERC1155.sol\":3022:3025  ids */\n      dup6\n        /* \"@openzeppelin/contracts/token/ERC1155/ERC1155.sol\":3026:3027  i */\n      dup4\n        /* \"@openzeppelin/contracts/token/ERC1155/ERC1155.sol\":3022:3028  ids[i] */\n      dup2\n      mload\n      dup2\n      lt\n      tag_120\n      jumpi\n      tag_120\n      tag_118\n      jump\t// in\n    tag_120:\n      0x20\n      mul\n      0x20\n      add\n      add\n      mload\n        /* \"@openzeppelin/contracts/token/ERC1155/ERC1155.sol\":2999:3008  balanceOf */\n      tag_19\n        /* \"@openzeppelin/contracts/token/ERC1155/ERC1155.sol\":2999:3029  balanceOf(accounts[i], ids[i]) */\n      jump\t// in\n    tag_115:\n        /* \"@openzeppelin/contracts/token/ERC1155/ERC1155.sol\":2980:2993  batchBalances */\n      dup3\n        /* \"@openzeppelin/contracts/token/ERC1155/ERC1155.sol\":2994:2995  i */\n      dup3\n        /* \"@openzeppelin/contracts/token/ERC1155/ERC1155.sol\":2980:2996  batchBalances[i] */\n      dup2\n      mload\n      dup2\n      lt\n      tag_122\n      jumpi\n      tag_122\n      tag_118\n      jump\t// in\n    tag_122:\n      0x20\n      swap1\n      dup2\n      mul\n      swap2\n      swap1\n      swap2\n      add\n      add\n        /* \"@openzeppelin/contracts/token/ERC1155/ERC1155.sol\":2980:3029  batchBalances[i] = balanceOf(accounts[i], ids[i]) */\n      mstore\n        /* \"@openzeppelin/contracts/token/ERC1155/ERC1155.sol\":2961:2964  ++i */\n      tag_123\n      dup2\n      tag_124\n      jump\t// in\n    tag_123:\n      swap1\n      pop\n        /* \"@openzeppelin/contracts/token/ERC1155/ERC1155.sol\":2920:3040  for (uint256 i = 0; i < accounts.length; ++i) {... */\n      jump(tag_112)\n    tag_113:\n      pop\n        /* \"@openzeppelin/contracts/token/ERC1155/ERC1155.sol\":3057:3070  batchBalances */\n      swap4\n        /* \"@openzeppelin/contracts/token/ERC1155/ERC1155.sol\":2569:3077  function balanceOfBatch(address[] memory accounts, uint256[] memory ids)... */\n      swap3\n      pop\n      pop\n      pop\n      jump\t// out\n        /* \"@openzeppelin/contracts/access/Ownable.sol\":1831:1932  function renounceOwnership() public virtual onlyOwner {... */\n    tag_49:\n        /* \"@openzeppelin/contracts/access/Ownable.sol\":1094:1107  _checkOwner() */\n      tag_126\n        /* \"@openzeppelin/contracts/access/Ownable.sol\":1094:1105  _checkOwner */\n      tag_89\n        /* \"@openzeppelin/contracts/access/Ownable.sol\":1094:1107  _checkOwner() */\n      jump\t// in\n    tag_126:\n        /* \"@openzeppelin/contracts/access/Ownable.sol\":1895:1925  _transferOwnership(address(0)) */\n      tag_128\n        /* \"@openzeppelin/contracts/access/Ownable.sol\":1922:1923  0 */\n      0x00\n        /* \"@openzeppelin/contracts/access/Ownable.sol\":1895:1913  _transferOwnership */\n      tag_129\n        /* \"@openzeppelin/contracts/access/Ownable.sol\":1895:1925  _transferOwnership(address(0)) */\n      jump\t// in\n    tag_128:\n        /* \"@openzeppelin/contracts/access/Ownable.sol\":1831:1932  function renounceOwnership() public virtual onlyOwner {... */\n      jump\t// out\n        /* \"@openzeppelin/contracts/token/ERC1155/ERC1155.sol\":3145:3298  function setApprovalForAll(address operator, bool approved) public virtual override {... */\n    tag_57:\n        /* \"@openzeppelin/contracts/token/ERC1155/ERC1155.sol\":3239:3291  _setApprovalForAll(_msgSender(), operator, approved) */\n      tag_91\n        /* \"@openzeppelin/contracts/utils/Context.sol\":719:729  msg.sender */\n      caller\n        /* \"@openzeppelin/contracts/token/ERC1155/ERC1155.sol\":3272:3280  operator */\n      dup4\n        /* \"@openzeppelin/contracts/token/ERC1155/ERC1155.sol\":3282:3290  approved */\n      dup4\n        /* \"@openzeppelin/contracts/token/ERC1155/ERC1155.sol\":3239:3257  _setApprovalForAll */\n      tag_134\n        /* \"@openzeppelin/contracts/token/ERC1155/ERC1155.sol\":3239:3291  _setApprovalForAll(_msgSender(), operator, approved) */\n      jump\t// in\n        /* \"@openzeppelin/contracts/token/ERC1155/ERC1155.sol\":3598:3993  function safeTransferFrom(... */\n    tag_66:\n      sub(shl(0xa0, 0x01), 0x01)\n        /* \"@openzeppelin/contracts/token/ERC1155/ERC1155.sol\":3798:3818  from == _msgSender() */\n      dup6\n      and\n        /* \"@openzeppelin/contracts/utils/Context.sol\":719:729  msg.sender */\n      caller\n        /* \"@openzeppelin/contracts/token/ERC1155/ERC1155.sol\":3798:3818  from == _msgSender() */\n      eq\n      dup1\n        /* \"@openzeppelin/contracts/token/ERC1155/ERC1155.sol\":3798:3858  from == _msgSender() || isApprovedForAll(from, _msgSender()) */\n      tag_139\n      jumpi\n      pop\n        /* \"@openzeppelin/contracts/token/ERC1155/ERC1155.sol\":3822:3858  isApprovedForAll(from, _msgSender()) */\n      tag_139\n        /* \"@openzeppelin/contracts/token/ERC1155/ERC1155.sol\":3839:3843  from */\n      dup6\n        /* \"@openzeppelin/contracts/utils/Context.sol\":719:729  msg.sender */\n      caller\n        /* \"@openzeppelin/contracts/token/ERC1155/ERC1155.sol\":3365:3531  function isApprovedForAll(address account, address operator) public view virtual override returns (bool) {... */\n      tag_59\n      jump\t// in\n        /* \"@openzeppelin/contracts/token/ERC1155/ERC1155.sol\":3822:3858  isApprovedForAll(from, _msgSender()) */\n    tag_139:\n        /* \"@openzeppelin/contracts/token/ERC1155/ERC1155.sol\":3777:3931  require(... */\n      tag_141\n      jumpi\n      mload(0x40)\n      shl(0xe5, 0x461bcd)\n      dup2\n      mstore\n      0x04\n      add\n      tag_73\n      swap1\n      tag_101\n      jump\t// in\n    tag_141:\n        /* \"@openzeppelin/contracts/token/ERC1155/ERC1155.sol\":3941:3986  _safeTransferFrom(from, to, id, amount, data) */\n      tag_102\n        /* \"@openzeppelin/contracts/token/ERC1155/ERC1155.sol\":3959:3963  from */\n      dup6\n        /* \"@openzeppelin/contracts/token/ERC1155/ERC1155.sol\":3965:3967  to */\n      dup6\n        /* \"@openzeppelin/contracts/token/ERC1155/ERC1155.sol\":3969:3971  id */\n      dup6\n        /* \"@openzeppelin/contracts/token/ERC1155/ERC1155.sol\":3973:3979  amount */\n      dup6\n        /* \"@openzeppelin/contracts/token/ERC1155/ERC1155.sol\":3981:3985  data */\n      dup6\n        /* \"@openzeppelin/contracts/token/ERC1155/ERC1155.sol\":3941:3958  _safeTransferFrom */\n      tag_144\n        /* \"@openzeppelin/contracts/token/ERC1155/ERC1155.sol\":3941:3986  _safeTransferFrom(from, to, id, amount, data) */\n      jump\t// in\n        /* \"@openzeppelin/contracts/access/Ownable.sol\":2081:2279  function transferOwnership(address newOwner) public virtual onlyOwner {... */\n    tag_70:\n        /* \"@openzeppelin/contracts/access/Ownable.sol\":1094:1107  _checkOwner() */\n      tag_146\n        /* \"@openzeppelin/contracts/access/Ownable.sol\":1094:1105  _checkOwner */\n      tag_89\n        /* \"@openzeppelin/contracts/access/Ownable.sol\":1094:1107  _checkOwner() */\n      jump\t// in\n    tag_146:\n      sub(shl(0xa0, 0x01), 0x01)\n        /* \"@openzeppelin/contracts/access/Ownable.sol\":2169:2191  newOwner != address(0) */\n      dup2\n      and\n        /* \"@openzeppelin/contracts/access/Ownable.sol\":2161:2234  require(newOwner != address(0), \"Ownable: new owner is the zero address\") */\n      tag_148\n      jumpi\n      mload(0x40)\n      shl(0xe5, 0x461bcd)\n      dup2\n      mstore\n        /* \"#utility.yul\":10936:10938   */\n      0x20\n        /* \"@openzeppelin/contracts/access/Ownable.sol\":2161:2234  require(newOwner != address(0), \"Ownable: new owner is the zero address\") */\n      0x04\n      dup3\n      add\n        /* \"#utility.yul\":10918:10939   */\n      mstore\n        /* \"#utility.yul\":10975:10977   */\n      0x26\n        /* \"#utility.yul\":10955:10973   */\n      0x24\n      dup3\n      add\n        /* \"#utility.yul\":10948:10978   */\n      mstore\n        /* \"#utility.yul\":11014:11048   */\n      0x4f776e61626c653a206e6577206f776e657220697320746865207a65726f2061\n        /* \"#utility.yul\":10994:11012   */\n      0x44\n      dup3\n      add\n        /* \"#utility.yul\":10987:11049   */\n      mstore\n      shl(0xd0, 0x646472657373)\n        /* \"#utility.yul\":11065:11083   */\n      0x64\n      dup3\n      add\n        /* \"#utility.yul\":11058:11094   */\n      mstore\n        /* \"#utility.yul\":11111:11130   */\n      0x84\n      add\n        /* \"@openzeppelin/contracts/access/Ownable.sol\":2161:2234  require(newOwner != address(0), \"Ownable: new owner is the zero address\") */\n      tag_73\n        /* \"#utility.yul\":10734:11136   */\n      jump\n        /* \"@openzeppelin/contracts/access/Ownable.sol\":2161:2234  require(newOwner != address(0), \"Ownable: new owner is the zero address\") */\n    tag_148:\n        /* \"@openzeppelin/contracts/access/Ownable.sol\":2244:2272  _transferOwnership(newOwner) */\n      tag_151\n        /* \"@openzeppelin/contracts/access/Ownable.sol\":2263:2271  newOwner */\n      dup2\n        /* \"@openzeppelin/contracts/access/Ownable.sol\":2244:2262  _transferOwnership */\n      tag_129\n        /* \"@openzeppelin/contracts/access/Ownable.sol\":2244:2272  _transferOwnership(newOwner) */\n      jump\t// in\n    tag_151:\n        /* \"@openzeppelin/contracts/access/Ownable.sol\":2081:2279  function transferOwnership(address newOwner) public virtual onlyOwner {... */\n      pop\n      jump\t// out\n        /* \"@openzeppelin/contracts/access/Ownable.sol\":1359:1489  function _checkOwner() internal view virtual {... */\n    tag_89:\n        /* \"@openzeppelin/contracts/access/Ownable.sol\":1273:1279  _owner */\n      and(sub(shl(0xa0, 0x01), 0x01), sload(0x03))\n        /* \"@openzeppelin/contracts/utils/Context.sol\":719:729  msg.sender */\n      caller\n        /* \"@openzeppelin/contracts/access/Ownable.sol\":1422:1445  owner() == _msgSender() */\n      eq\n        /* \"@openzeppelin/contracts/access/Ownable.sol\":1414:1482  require(owner() == _msgSender(), \"Ownable: caller is not the owner\") */\n      tag_128\n      jumpi\n      mload(0x40)\n      shl(0xe5, 0x461bcd)\n      dup2\n      mstore\n        /* \"#utility.yul\":11343:11345   */\n      0x20\n        /* \"@openzeppelin/contracts/access/Ownable.sol\":1414:1482  require(owner() == _msgSender(), \"Ownable: caller is not the owner\") */\n      0x04\n      dup3\n      add\n        /* \"#utility.yul\":11325:11346   */\n      dup2\n      swap1\n      mstore\n        /* \"#utility.yul\":11362:11380   */\n      0x24\n      dup3\n      add\n        /* \"#utility.yul\":11355:11385   */\n      mstore\n        /* \"#utility.yul\":11421:11455   */\n      0x4f776e61626c653a2063616c6c6572206973206e6f7420746865206f776e6572\n        /* \"#utility.yul\":11401:11419   */\n      0x44\n      dup3\n      add\n        /* \"#utility.yul\":11394:11456   */\n      mstore\n        /* \"#utility.yul\":11473:11491   */\n      0x64\n      add\n        /* \"@openzeppelin/contracts/access/Ownable.sol\":1414:1482  require(owner() == _msgSender(), \"Ownable: caller is not the owner\") */\n      tag_73\n        /* \"#utility.yul\":11141:11497   */\n      jump\n        /* \"@openzeppelin/contracts/token/ERC1155/ERC1155.sol\":8632:9341  function _mint(... */\n    tag_92:\n      sub(shl(0xa0, 0x01), 0x01)\n        /* \"@openzeppelin/contracts/token/ERC1155/ERC1155.sol\":8779:8795  to != address(0) */\n      dup5\n      and\n        /* \"@openzeppelin/contracts/token/ERC1155/ERC1155.sol\":8771:8833  require(to != address(0), \"ERC1155: mint to the zero address\") */\n      tag_160\n      jumpi\n      mload(0x40)\n      shl(0xe5, 0x461bcd)\n      dup2\n      mstore\n        /* \"#utility.yul\":11704:11706   */\n      0x20\n        /* \"@openzeppelin/contracts/token/ERC1155/ERC1155.sol\":8771:8833  require(to != address(0), \"ERC1155: mint to the zero address\") */\n      0x04\n      dup3\n      add\n        /* \"#utility.yul\":11686:11707   */\n      mstore\n        /* \"#utility.yul\":11743:11745   */\n      0x21\n        /* \"#utility.yul\":11723:11741   */\n      0x24\n      dup3\n      add\n        /* \"#utility.yul\":11716:11746   */\n      mstore\n        /* \"#utility.yul\":11782:11816   */\n      0x455243313135353a206d696e7420746f20746865207a65726f20616464726573\n        /* \"#utility.yul\":11762:11780   */\n      0x44\n      dup3\n      add\n        /* \"#utility.yul\":11755:11817   */\n      mstore\n      shl(0xf8, 0x73)\n        /* \"#utility.yul\":11833:11851   */\n      0x64\n      dup3\n      add\n        /* \"#utility.yul\":11826:11857   */\n      mstore\n        /* \"#utility.yul\":11874:11893   */\n      0x84\n      add\n        /* \"@openzeppelin/contracts/token/ERC1155/ERC1155.sol\":8771:8833  require(to != address(0), \"ERC1155: mint to the zero address\") */\n      tag_73\n        /* \"#utility.yul\":11502:11899   */\n      jump\n        /* \"@openzeppelin/contracts/token/ERC1155/ERC1155.sol\":8771:8833  require(to != address(0), \"ERC1155: mint to the zero address\") */\n    tag_160:\n        /* \"@openzeppelin/contracts/utils/Context.sol\":719:729  msg.sender */\n      caller\n        /* \"@openzeppelin/contracts/token/ERC1155/ERC1155.sol\":8844:8860  address operator */\n      0x00\n        /* \"@openzeppelin/contracts/token/ERC1155/ERC1155.sol\":8908:8929  _asSingletonArray(id) */\n      tag_164\n        /* \"@openzeppelin/contracts/token/ERC1155/ERC1155.sol\":8926:8928  id */\n      dup6\n        /* \"@openzeppelin/contracts/token/ERC1155/ERC1155.sol\":8908:8925  _asSingletonArray */\n      tag_165\n        /* \"@openzeppelin/contracts/token/ERC1155/ERC1155.sol\":8908:8929  _asSingletonArray(id) */\n      jump\t// in\n    tag_164:\n        /* \"@openzeppelin/contracts/token/ERC1155/ERC1155.sol\":8885:8929  uint256[] memory ids = _asSingletonArray(id) */\n      swap1\n      pop\n        /* \"@openzeppelin/contracts/token/ERC1155/ERC1155.sol\":8939:8963  uint256[] memory amounts */\n      0x00\n        /* \"@openzeppelin/contracts/token/ERC1155/ERC1155.sol\":8966:8991  _asSingletonArray(amount) */\n      tag_166\n        /* \"@openzeppelin/contracts/token/ERC1155/ERC1155.sol\":8984:8990  amount */\n      dup6\n        /* \"@openzeppelin/contracts/token/ERC1155/ERC1155.sol\":8966:8983  _asSingletonArray */\n      tag_165\n        /* \"@openzeppelin/contracts/token/ERC1155/ERC1155.sol\":8966:8991  _asSingletonArray(amount) */\n      jump\t// in\n    tag_166:\n        /* \"@openzeppelin/contracts/token/ERC1155/ERC1155.sol\":8939:8991  uint256[] memory amounts = _asSingletonArray(amount) */\n      swap1\n      pop\n        /* \"@openzeppelin/contracts/token/ERC1155/ERC1155.sol\":9079:9088  _balances */\n      0x00\n        /* \"@openzeppelin/contracts/token/ERC1155/ERC1155.sol\":9079:9092  _balances[id] */\n      dup7\n      dup2\n      mstore\n      0x20\n      dup2\n      dup2\n      mstore\n      0x40\n      dup1\n      dup4\n      keccak256\n      sub(shl(0xa0, 0x01), 0x01)\n        /* \"@openzeppelin/contracts/token/ERC1155/ERC1155.sol\":9079:9096  _balances[id][to] */\n      dup12\n      and\n      dup5\n      mstore\n      swap1\n      swap2\n      mstore\n      dup2\n      keccak256\n        /* \"@openzeppelin/contracts/token/ERC1155/ERC1155.sol\":9079:9106  _balances[id][to] += amount */\n      dup1\n      sload\n        /* \"@openzeppelin/contracts/token/ERC1155/ERC1155.sol\":9100:9106  amount */\n      dup8\n      swap3\n        /* \"@openzeppelin/contracts/token/ERC1155/ERC1155.sol\":9079:9088  _balances */\n      swap1\n        /* \"@openzeppelin/contracts/token/ERC1155/ERC1155.sol\":9079:9106  _balances[id][to] += amount */\n      tag_169\n      swap1\n        /* \"@openzeppelin/contracts/token/ERC1155/ERC1155.sol\":9100:9106  amount */\n      dup5\n      swap1\n        /* \"@openzeppelin/contracts/token/ERC1155/ERC1155.sol\":9079:9106  _balances[id][to] += amount */\n      tag_170\n      jump\t// in\n    tag_169:\n      swap1\n      swap2\n      sstore\n      pop\n      pop\n        /* \"@openzeppelin/contracts/token/ERC1155/ERC1155.sol\":9121:9173  TransferSingle(operator, address(0), to, id, amount) */\n      0x40\n      dup1\n      mload\n        /* \"#utility.yul\":12211:12236   */\n      dup8\n      dup2\n      mstore\n        /* \"#utility.yul\":12267:12269   */\n      0x20\n        /* \"#utility.yul\":12252:12270   */\n      dup2\n      add\n        /* \"#utility.yul\":12245:12279   */\n      dup8\n      swap1\n      mstore\n      sub(shl(0xa0, 0x01), 0x01)\n        /* \"@openzeppelin/contracts/token/ERC1155/ERC1155.sol\":9121:9173  TransferSingle(operator, address(0), to, id, amount) */\n      dup1\n      dup11\n      and\n      swap3\n        /* \"@openzeppelin/contracts/token/ERC1155/ERC1155.sol\":9154:9155  0 */\n      0x00\n      swap3\n        /* \"@openzeppelin/contracts/token/ERC1155/ERC1155.sol\":9121:9173  TransferSingle(operator, address(0), to, id, amount) */\n      swap2\n      dup8\n      and\n      swap2\n      0xc3d58168c5ae7397731d063d5bbf3d657854427343f4c083240f7aacaa2d0f62\n      swap2\n        /* \"#utility.yul\":12184:12202   */\n      add\n        /* \"@openzeppelin/contracts/token/ERC1155/ERC1155.sol\":9121:9173  TransferSingle(operator, address(0), to, id, amount) */\n      mload(0x40)\n      dup1\n      swap2\n      sub\n      swap1\n      log4\n        /* \"@openzeppelin/contracts/token/ERC1155/ERC1155.sol\":9260:9334  _doSafeTransferAcceptanceCheck(operator, address(0), to, id, amount, data) */\n      tag_175\n        /* \"@openzeppelin/contracts/token/ERC1155/ERC1155.sol\":9291:9299  operator */\n      dup4\n        /* \"@openzeppelin/contracts/token/ERC1155/ERC1155.sol\":9309:9310  0 */\n      0x00\n        /* \"@openzeppelin/contracts/token/ERC1155/ERC1155.sol\":9313:9315  to */\n      dup10\n        /* \"@openzeppelin/contracts/token/ERC1155/ERC1155.sol\":9317:9319  id */\n      dup10\n        /* \"@openzeppelin/contracts/token/ERC1155/ERC1155.sol\":9321:9327  amount */\n      dup10\n        /* \"@openzeppelin/contracts/token/ERC1155/ERC1155.sol\":9329:9333  data */\n      dup10\n        /* \"@openzeppelin/contracts/token/ERC1155/ERC1155.sol\":9260:9290  _doSafeTransferAcceptanceCheck */\n      tag_176\n        /* \"@openzeppelin/contracts/token/ERC1155/ERC1155.sol\":9260:9334  _doSafeTransferAcceptanceCheck(operator, address(0), to, id, amount, data) */\n      jump\t// in\n    tag_175:\n        /* \"@openzeppelin/contracts/token/ERC1155/ERC1155.sol\":8761:9341  {... */\n      pop\n      pop\n      pop\n        /* \"@openzeppelin/contracts/token/ERC1155/ERC1155.sol\":8632:9341  function _mint(... */\n      pop\n      pop\n      pop\n      pop\n      jump\t// out\n        /* \"@openzeppelin/contracts/token/ERC1155/ERC1155.sol\":6235:7350  function _safeBatchTransferFrom(... */\n    tag_103:\n        /* \"@openzeppelin/contracts/token/ERC1155/ERC1155.sol\":6455:6462  amounts */\n      dup2\n        /* \"@openzeppelin/contracts/token/ERC1155/ERC1155.sol\":6455:6469  amounts.length */\n      mload\n        /* \"@openzeppelin/contracts/token/ERC1155/ERC1155.sol\":6441:6444  ids */\n      dup4\n        /* \"@openzeppelin/contracts/token/ERC1155/ERC1155.sol\":6441:6451  ids.length */\n      mload\n        /* \"@openzeppelin/contracts/token/ERC1155/ERC1155.sol\":6441:6469  ids.length == amounts.length */\n      eq\n        /* \"@openzeppelin/contracts/token/ERC1155/ERC1155.sol\":6433:6514  require(ids.length == amounts.length, \"ERC1155: ids and amounts length mismatch\") */\n      tag_179\n      jumpi\n      mload(0x40)\n      shl(0xe5, 0x461bcd)\n      dup2\n      mstore\n        /* \"#utility.yul\":12492:12494   */\n      0x20\n        /* \"@openzeppelin/contracts/token/ERC1155/ERC1155.sol\":6433:6514  require(ids.length == amounts.length, \"ERC1155: ids and amounts length mismatch\") */\n      0x04\n      dup3\n      add\n        /* \"#utility.yul\":12474:12495   */\n      mstore\n        /* \"#utility.yul\":12531:12533   */\n      0x28\n        /* \"#utility.yul\":12511:12529   */\n      0x24\n      dup3\n      add\n        /* \"#utility.yul\":12504:12534   */\n      mstore\n        /* \"#utility.yul\":12570:12604   */\n      0x455243313135353a2069647320616e6420616d6f756e7473206c656e67746820\n        /* \"#utility.yul\":12550:12568   */\n      0x44\n      dup3\n      add\n        /* \"#utility.yul\":12543:12605   */\n      mstore\n      shl(0xc3, 0x0dad2e6dac2e8c6d)\n        /* \"#utility.yul\":12621:12639   */\n      0x64\n      dup3\n      add\n        /* \"#utility.yul\":12614:12652   */\n      mstore\n        /* \"#utility.yul\":12669:12688   */\n      0x84\n      add\n        /* \"@openzeppelin/contracts/token/ERC1155/ERC1155.sol\":6433:6514  require(ids.length == amounts.length, \"ERC1155: ids and amounts length mismatch\") */\n      tag_73\n        /* \"#utility.yul\":12290:12694   */\n      jump\n        /* \"@openzeppelin/contracts/token/ERC1155/ERC1155.sol\":6433:6514  require(ids.length == amounts.length, \"ERC1155: ids and amounts length mismatch\") */\n    tag_179:\n      sub(shl(0xa0, 0x01), 0x01)\n        /* \"@openzeppelin/contracts/token/ERC1155/ERC1155.sol\":6532:6548  to != address(0) */\n      dup5\n      and\n        /* \"@openzeppelin/contracts/token/ERC1155/ERC1155.sol\":6524:6590  require(to != address(0), \"ERC1155: transfer to the zero address\") */\n      tag_182\n      jumpi\n      mload(0x40)\n      shl(0xe5, 0x461bcd)\n      dup2\n      mstore\n      0x04\n      add\n      tag_73\n      swap1\n      tag_184\n      jump\t// in\n    tag_182:\n        /* \"@openzeppelin/contracts/utils/Context.sol\":719:729  msg.sender */\n      caller\n        /* \"@openzeppelin/contracts/token/ERC1155/ERC1155.sol\":6601:6617  address operator */\n      0x00\n        /* \"@openzeppelin/contracts/token/ERC1155/ERC1155.sol\":6714:7125  for (uint256 i = 0; i < ids.length; ++i) {... */\n    tag_187:\n        /* \"@openzeppelin/contracts/token/ERC1155/ERC1155.sol\":6738:6741  ids */\n      dup5\n        /* \"@openzeppelin/contracts/token/ERC1155/ERC1155.sol\":6738:6748  ids.length */\n      mload\n        /* \"@openzeppelin/contracts/token/ERC1155/ERC1155.sol\":6734:6735  i */\n      dup2\n        /* \"@openzeppelin/contracts/token/ERC1155/ERC1155.sol\":6734:6748  i < ids.length */\n      lt\n        /* \"@openzeppelin/contracts/token/ERC1155/ERC1155.sol\":6714:7125  for (uint256 i = 0; i < ids.length; ++i) {... */\n      iszero\n      tag_188\n      jumpi\n        /* \"@openzeppelin/contracts/token/ERC1155/ERC1155.sol\":6769:6779  uint256 id */\n      0x00\n        /* \"@openzeppelin/contracts/token/ERC1155/ERC1155.sol\":6782:6785  ids */\n      dup6\n        /* \"@openzeppelin/contracts/token/ERC1155/ERC1155.sol\":6786:6787  i */\n      dup3\n        /* \"@openzeppelin/contracts/token/ERC1155/ERC1155.sol\":6782:6788  ids[i] */\n      dup2\n      mload\n      dup2\n      lt\n      tag_191\n      jumpi\n      tag_191\n      tag_118\n      jump\t// in\n    tag_191:\n      0x20\n      mul\n      0x20\n      add\n      add\n      mload\n        /* \"@openzeppelin/contracts/token/ERC1155/ERC1155.sol\":6769:6788  uint256 id = ids[i] */\n      swap1\n      pop\n        /* \"@openzeppelin/contracts/token/ERC1155/ERC1155.sol\":6802:6816  uint256 amount */\n      0x00\n        /* \"@openzeppelin/contracts/token/ERC1155/ERC1155.sol\":6819:6826  amounts */\n      dup6\n        /* \"@openzeppelin/contracts/token/ERC1155/ERC1155.sol\":6827:6828  i */\n      dup4\n        /* \"@openzeppelin/contracts/token/ERC1155/ERC1155.sol\":6819:6829  amounts[i] */\n      dup2\n      mload\n      dup2\n      lt\n      tag_193\n      jumpi\n      tag_193\n      tag_118\n      jump\t// in\n    tag_193:\n      0x20\n      swap1\n      dup2\n      mul\n      swap2\n      swap1\n      swap2\n      add\n      dup2\n      add\n      mload\n        /* \"@openzeppelin/contracts/token/ERC1155/ERC1155.sol\":6844:6863  uint256 fromBalance */\n      0x00\n        /* \"@openzeppelin/contracts/token/ERC1155/ERC1155.sol\":6866:6879  _balances[id] */\n      dup5\n      dup2\n      mstore\n      dup1\n      dup4\n      mstore\n      0x40\n      dup1\n      dup3\n      keccak256\n      sub(shl(0xa0, 0x01), 0x01)\n        /* \"@openzeppelin/contracts/token/ERC1155/ERC1155.sol\":6866:6885  _balances[id][from] */\n      dup15\n      and\n      dup4\n      mstore\n      swap1\n      swap4\n      mstore\n      swap2\n      swap1\n      swap2\n      keccak256\n      sload\n        /* \"@openzeppelin/contracts/token/ERC1155/ERC1155.sol\":6819:6829  amounts[i] */\n      swap1\n      swap2\n      pop\n        /* \"@openzeppelin/contracts/token/ERC1155/ERC1155.sol\":6907:6928  fromBalance >= amount */\n      dup2\n      dup2\n      lt\n      iszero\n        /* \"@openzeppelin/contracts/token/ERC1155/ERC1155.sol\":6899:6975  require(fromBalance >= amount, \"ERC1155: insufficient balance for transfer\") */\n      tag_194\n      jumpi\n      mload(0x40)\n      shl(0xe5, 0x461bcd)\n      dup2\n      mstore\n      0x04\n      add\n      tag_73\n      swap1\n      tag_196\n      jump\t// in\n    tag_194:\n        /* \"@openzeppelin/contracts/token/ERC1155/ERC1155.sol\":7017:7026  _balances */\n      0x00\n        /* \"@openzeppelin/contracts/token/ERC1155/ERC1155.sol\":7017:7030  _balances[id] */\n      dup4\n      dup2\n      mstore\n      0x20\n      dup2\n      dup2\n      mstore\n      0x40\n      dup1\n      dup4\n      keccak256\n      sub(shl(0xa0, 0x01), 0x01)\n        /* \"@openzeppelin/contracts/token/ERC1155/ERC1155.sol\":7017:7036  _balances[id][from] */\n      dup15\n      dup2\n      and\n      dup6\n      mstore\n      swap3\n      mstore\n      dup1\n      dup4\n      keccak256\n        /* \"@openzeppelin/contracts/token/ERC1155/ERC1155.sol\":7039:7059  fromBalance - amount */\n      dup6\n      dup6\n      sub\n        /* \"@openzeppelin/contracts/token/ERC1155/ERC1155.sol\":7017:7059  _balances[id][from] = fromBalance - amount */\n      swap1\n      sstore\n        /* \"@openzeppelin/contracts/token/ERC1155/ERC1155.sol\":7087:7104  _balances[id][to] */\n      swap1\n      dup12\n      and\n      dup3\n      mstore\n      dup2\n      keccak256\n        /* \"@openzeppelin/contracts/token/ERC1155/ERC1155.sol\":7087:7114  _balances[id][to] += amount */\n      dup1\n      sload\n        /* \"@openzeppelin/contracts/token/ERC1155/ERC1155.sol\":7039:7059  fromBalance - amount */\n      dup5\n      swap3\n        /* \"@openzeppelin/contracts/token/ERC1155/ERC1155.sol\":7017:7026  _balances */\n      swap1\n        /* \"@openzeppelin/contracts/token/ERC1155/ERC1155.sol\":7087:7114  _balances[id][to] += amount */\n      tag_197\n      swap1\n        /* \"@openzeppelin/contracts/token/ERC1155/ERC1155.sol\":7039:7059  fromBalance - amount */\n      dup5\n      swap1\n        /* \"@openzeppelin/contracts/token/ERC1155/ERC1155.sol\":7087:7114  _balances[id][to] += amount */\n      tag_170\n      jump\t// in\n    tag_197:\n      swap3\n      pop\n      pop\n      dup2\n      swap1\n      sstore\n      pop\n        /* \"@openzeppelin/contracts/token/ERC1155/ERC1155.sol\":6755:7125  {... */\n      pop\n      pop\n      pop\n        /* \"@openzeppelin/contracts/token/ERC1155/ERC1155.sol\":6750:6753  ++i */\n      dup1\n      tag_198\n      swap1\n      tag_124\n      jump\t// in\n    tag_198:\n      swap1\n      pop\n        /* \"@openzeppelin/contracts/token/ERC1155/ERC1155.sol\":6714:7125  for (uint256 i = 0; i < ids.length; ++i) {... */\n      jump(tag_187)\n    tag_188:\n      pop\n        /* \"@openzeppelin/contracts/token/ERC1155/ERC1155.sol\":7170:7172  to */\n      dup5\n      sub(shl(0xa0, 0x01), 0x01)\n        /* \"@openzeppelin/contracts/token/ERC1155/ERC1155.sol\":7140:7187  TransferBatch(operator, from, to, ids, amounts) */\n      and\n        /* \"@openzeppelin/contracts/token/ERC1155/ERC1155.sol\":7164:7168  from */\n      dup7\n      sub(shl(0xa0, 0x01), 0x01)\n        /* \"@openzeppelin/contracts/token/ERC1155/ERC1155.sol\":7140:7187  TransferBatch(operator, from, to, ids, amounts) */\n      and\n        /* \"@openzeppelin/contracts/token/ERC1155/ERC1155.sol\":7154:7162  operator */\n      dup3\n      sub(shl(0xa0, 0x01), 0x01)\n        /* \"@openzeppelin/contracts/token/ERC1155/ERC1155.sol\":7140:7187  TransferBatch(operator, from, to, ids, amounts) */\n      and\n      0x4a39dc06d4c0dbc64b70af90fd698a233a518aa5d07e595d983b8c0526c8f7fb\n        /* \"@openzeppelin/contracts/token/ERC1155/ERC1155.sol\":7174:7177  ids */\n      dup8\n        /* \"@openzeppelin/contracts/token/ERC1155/ERC1155.sol\":7179:7186  amounts */\n      dup8\n        /* \"@openzeppelin/contracts/token/ERC1155/ERC1155.sol\":7140:7187  TransferBatch(operator, from, to, ids, amounts) */\n      mload(0x40)\n      tag_199\n      swap3\n      swap2\n      swap1\n      tag_200\n      jump\t// in\n    tag_199:\n      mload(0x40)\n      dup1\n      swap2\n      sub\n      swap1\n      log4\n        /* \"@openzeppelin/contracts/token/ERC1155/ERC1155.sol\":7268:7343  _doSafeBatchTransferAcceptanceCheck(operator, from, to, ids, amounts, data) */\n      tag_202\n        /* \"@openzeppelin/contracts/token/ERC1155/ERC1155.sol\":7304:7312  operator */\n      dup2\n        /* \"@openzeppelin/contracts/token/ERC1155/ERC1155.sol\":7314:7318  from */\n      dup8\n        /* \"@openzeppelin/contracts/token/ERC1155/ERC1155.sol\":7320:7322  to */\n      dup8\n        /* \"@openzeppelin/contracts/token/ERC1155/ERC1155.sol\":7324:7327  ids */\n      dup8\n        /* \"@openzeppelin/contracts/token/ERC1155/ERC1155.sol\":7329:7336  amounts */\n      dup8\n        /* \"@openzeppelin/contracts/token/ERC1155/ERC1155.sol\":7338:7342  data */\n      dup8\n        /* \"@openzeppelin/contracts/token/ERC1155/ERC1155.sol\":7268:7303  _doSafeBatchTransferAcceptanceCheck */\n      tag_203\n        /* \"@openzeppelin/contracts/token/ERC1155/ERC1155.sol\":7268:7343  _doSafeBatchTransferAcceptanceCheck(operator, from, to, ids, amounts, data) */\n      jump\t// in\n    tag_202:\n        /* \"@openzeppelin/contracts/token/ERC1155/ERC1155.sol\":6423:7350  {... */\n      pop\n        /* \"@openzeppelin/contracts/token/ERC1155/ERC1155.sol\":6235:7350  function _safeBatchTransferFrom(... */\n      pop\n      pop\n      pop\n      pop\n      pop\n      jump\t// out\n        /* \"@openzeppelin/contracts/access/Ownable.sol\":2433:2620  function _transferOwnership(address newOwner) internal virtual {... */\n    tag_129:\n        /* \"@openzeppelin/contracts/access/Ownable.sol\":2525:2531  _owner */\n      0x03\n      dup1\n      sload\n      sub(shl(0xa0, 0x01), 0x01)\n        /* \"@openzeppelin/contracts/access/Ownable.sol\":2541:2558  _owner = newOwner */\n      dup4\n      dup2\n      and\n      not(sub(shl(0xa0, 0x01), 0x01))\n      dup4\n      and\n      dup2\n      or\n      swap1\n      swap4\n      sstore\n        /* \"@openzeppelin/contracts/access/Ownable.sol\":2573:2613  OwnershipTransferred(oldOwner, newOwner) */\n      mload(0x40)\n        /* \"@openzeppelin/contracts/access/Ownable.sol\":2525:2531  _owner */\n      swap2\n      and\n      swap2\n        /* \"@openzeppelin/contracts/access/Ownable.sol\":2541:2558  _owner = newOwner */\n      swap1\n        /* \"@openzeppelin/contracts/access/Ownable.sol\":2525:2531  _owner */\n      dup3\n      swap1\n        /* \"@openzeppelin/contracts/access/Ownable.sol\":2573:2613  OwnershipTransferred(oldOwner, newOwner) */\n      0x8be0079c531659141344cd1fd0a4f28419497f9722a3daafe3b4186f6b6457e0\n      swap1\n        /* \"@openzeppelin/contracts/access/Ownable.sol\":2506:2522  address oldOwner */\n      0x00\n      swap1\n        /* \"@openzeppelin/contracts/access/Ownable.sol\":2573:2613  OwnershipTransferred(oldOwner, newOwner) */\n      log3\n        /* \"@openzeppelin/contracts/access/Ownable.sol\":2496:2620  {... */\n      pop\n        /* \"@openzeppelin/contracts/access/Ownable.sol\":2433:2620  function _transferOwnership(address newOwner) internal virtual {... */\n      pop\n      jump\t// out\n        /* \"@openzeppelin/contracts/token/ERC1155/ERC1155.sol\":12912:13235  function _setApprovalForAll(... */\n    tag_134:\n        /* \"@openzeppelin/contracts/token/ERC1155/ERC1155.sol\":13062:13070  operator */\n      dup2\n      sub(shl(0xa0, 0x01), 0x01)\n        /* \"@openzeppelin/contracts/token/ERC1155/ERC1155.sol\":13053:13070  owner != operator */\n      and\n        /* \"@openzeppelin/contracts/token/ERC1155/ERC1155.sol\":13053:13058  owner */\n      dup4\n      sub(shl(0xa0, 0x01), 0x01)\n        /* \"@openzeppelin/contracts/token/ERC1155/ERC1155.sol\":13053:13070  owner != operator */\n      and\n      sub\n        /* \"@openzeppelin/contracts/token/ERC1155/ERC1155.sol\":13045:13116  require(owner != operator, \"ERC1155: setting approval status for self\") */\n      tag_206\n      jumpi\n      mload(0x40)\n      shl(0xe5, 0x461bcd)\n      dup2\n      mstore\n        /* \"#utility.yul\":14188:14190   */\n      0x20\n        /* \"@openzeppelin/contracts/token/ERC1155/ERC1155.sol\":13045:13116  require(owner != operator, \"ERC1155: setting approval status for self\") */\n      0x04\n      dup3\n      add\n        /* \"#utility.yul\":14170:14191   */\n      mstore\n        /* \"#utility.yul\":14227:14229   */\n      0x29\n        /* \"#utility.yul\":14207:14225   */\n      0x24\n      dup3\n      add\n        /* \"#utility.yul\":14200:14230   */\n      mstore\n        /* \"#utility.yul\":14266:14300   */\n      0x455243313135353a2073657474696e6720617070726f76616c20737461747573\n        /* \"#utility.yul\":14246:14264   */\n      0x44\n      dup3\n      add\n        /* \"#utility.yul\":14239:14301   */\n      mstore\n      shl(0xb9, 0x103337b91039b2b633)\n        /* \"#utility.yul\":14317:14335   */\n      0x64\n      dup3\n      add\n        /* \"#utility.yul\":14310:14349   */\n      mstore\n        /* \"#utility.yul\":14366:14385   */\n      0x84\n      add\n        /* \"@openzeppelin/contracts/token/ERC1155/ERC1155.sol\":13045:13116  require(owner != operator, \"ERC1155: setting approval status for self\") */\n      tag_73\n        /* \"#utility.yul\":13986:14391   */\n      jump\n        /* \"@openzeppelin/contracts/token/ERC1155/ERC1155.sol\":13045:13116  require(owner != operator, \"ERC1155: setting approval status for self\") */\n    tag_206:\n      sub(shl(0xa0, 0x01), 0x01)\n        /* \"@openzeppelin/contracts/token/ERC1155/ERC1155.sol\":13126:13151  _operatorApprovals[owner] */\n      dup4\n      dup2\n      and\n      0x00\n      dup2\n      dup2\n      mstore\n        /* \"@openzeppelin/contracts/token/ERC1155/ERC1155.sol\":13126:13144  _operatorApprovals */\n      0x01\n        /* \"@openzeppelin/contracts/token/ERC1155/ERC1155.sol\":13126:13151  _operatorApprovals[owner] */\n      0x20\n      swap1\n      dup2\n      mstore\n      0x40\n      dup1\n      dup4\n      keccak256\n        /* \"@openzeppelin/contracts/token/ERC1155/ERC1155.sol\":13126:13161  _operatorApprovals[owner][operator] */\n      swap5\n      dup8\n      and\n      dup1\n      dup5\n      mstore\n      swap5\n      dup3\n      mstore\n      swap2\n      dup3\n      swap1\n      keccak256\n        /* \"@openzeppelin/contracts/token/ERC1155/ERC1155.sol\":13126:13172  _operatorApprovals[owner][operator] = approved */\n      dup1\n      sload\n      not(0xff)\n      and\n      dup7\n      iszero\n      iszero\n      swap1\n      dup2\n      or\n      swap1\n      swap2\n      sstore\n        /* \"@openzeppelin/contracts/token/ERC1155/ERC1155.sol\":13187:13228  ApprovalForAll(owner, operator, approved) */\n      swap2\n      mload\n        /* \"#utility.yul\":1159:1200   */\n      swap2\n      dup3\n      mstore\n        /* \"@openzeppelin/contracts/token/ERC1155/ERC1155.sol\":13187:13228  ApprovalForAll(owner, operator, approved) */\n      0x17307eab39ab6107e8899845ad3d59bd9653f200f220920489ca2b5937696c31\n      swap2\n        /* \"#utility.yul\":1132:1150   */\n      add\n        /* \"@openzeppelin/contracts/token/ERC1155/ERC1155.sol\":13187:13228  ApprovalForAll(owner, operator, approved) */\n      mload(0x40)\n      dup1\n      swap2\n      sub\n      swap1\n      log3\n        /* \"@openzeppelin/contracts/token/ERC1155/ERC1155.sol\":12912:13235  function _setApprovalForAll(... */\n      pop\n      pop\n      pop\n      jump\t// out\n        /* \"@openzeppelin/contracts/token/ERC1155/ERC1155.sol\":4942:5889  function _safeTransferFrom(... */\n    tag_144:\n      sub(shl(0xa0, 0x01), 0x01)\n        /* \"@openzeppelin/contracts/token/ERC1155/ERC1155.sol\":5123:5139  to != address(0) */\n      dup5\n      and\n        /* \"@openzeppelin/contracts/token/ERC1155/ERC1155.sol\":5115:5181  require(to != address(0), \"ERC1155: transfer to the zero address\") */\n      tag_211\n      jumpi\n      mload(0x40)\n      shl(0xe5, 0x461bcd)\n      dup2\n      mstore\n      0x04\n      add\n      tag_73\n      swap1\n      tag_184\n      jump\t// in\n    tag_211:\n        /* \"@openzeppelin/contracts/utils/Context.sol\":719:729  msg.sender */\n      caller\n        /* \"@openzeppelin/contracts/token/ERC1155/ERC1155.sol\":5192:5208  address operator */\n      0x00\n        /* \"@openzeppelin/contracts/token/ERC1155/ERC1155.sol\":5256:5277  _asSingletonArray(id) */\n      tag_214\n        /* \"@openzeppelin/contracts/token/ERC1155/ERC1155.sol\":5274:5276  id */\n      dup6\n        /* \"@openzeppelin/contracts/token/ERC1155/ERC1155.sol\":5256:5273  _asSingletonArray */\n      tag_165\n        /* \"@openzeppelin/contracts/token/ERC1155/ERC1155.sol\":5256:5277  _asSingletonArray(id) */\n      jump\t// in\n    tag_214:\n        /* \"@openzeppelin/contracts/token/ERC1155/ERC1155.sol\":5233:5277  uint256[] memory ids = _asSingletonArray(id) */\n      swap1\n      pop\n        /* \"@openzeppelin/contracts/token/ERC1155/ERC1155.sol\":5287:5311  uint256[] memory amounts */\n      0x00\n        /* \"@openzeppelin/contracts/token/ERC1155/ERC1155.sol\":5314:5339  _asSingletonArray(amount) */\n      tag_215\n        /* \"@openzeppelin/contracts/token/ERC1155/ERC1155.sol\":5332:5338  amount */\n      dup6\n        /* \"@openzeppelin/contracts/token/ERC1155/ERC1155.sol\":5314:5331  _asSingletonArray */\n      tag_165\n        /* \"@openzeppelin/contracts/token/ERC1155/ERC1155.sol\":5314:5339  _asSingletonArray(amount) */\n      jump\t// in\n    tag_215:\n        /* \"@openzeppelin/contracts/token/ERC1155/ERC1155.sol\":5287:5339  uint256[] memory amounts = _asSingletonArray(amount) */\n      swap1\n      pop\n        /* \"@openzeppelin/contracts/token/ERC1155/ERC1155.sol\":5421:5440  uint256 fromBalance */\n      0x00\n        /* \"@openzeppelin/contracts/token/ERC1155/ERC1155.sol\":5443:5456  _balances[id] */\n      dup7\n      dup2\n      mstore\n      0x20\n      dup2\n      dup2\n      mstore\n      0x40\n      dup1\n      dup4\n      keccak256\n      sub(shl(0xa0, 0x01), 0x01)\n        /* \"@openzeppelin/contracts/token/ERC1155/ERC1155.sol\":5443:5462  _balances[id][from] */\n      dup13\n      and\n      dup5\n      mstore\n      swap1\n      swap2\n      mstore\n      swap1\n      keccak256\n      sload\n        /* \"@openzeppelin/contracts/token/ERC1155/ERC1155.sol\":5480:5501  fromBalance >= amount */\n      dup6\n      dup2\n      lt\n      iszero\n        /* \"@openzeppelin/contracts/token/ERC1155/ERC1155.sol\":5472:5548  require(fromBalance >= amount, \"ERC1155: insufficient balance for transfer\") */\n      tag_217\n      jumpi\n      mload(0x40)\n      shl(0xe5, 0x461bcd)\n      dup2\n      mstore\n      0x04\n      add\n      tag_73\n      swap1\n      tag_196\n      jump\t// in\n    tag_217:\n        /* \"@openzeppelin/contracts/token/ERC1155/ERC1155.sol\":5582:5591  _balances */\n      0x00\n        /* \"@openzeppelin/contracts/token/ERC1155/ERC1155.sol\":5582:5595  _balances[id] */\n      dup8\n      dup2\n      mstore\n      0x20\n      dup2\n      dup2\n      mstore\n      0x40\n      dup1\n      dup4\n      keccak256\n      sub(shl(0xa0, 0x01), 0x01)\n        /* \"@openzeppelin/contracts/token/ERC1155/ERC1155.sol\":5582:5601  _balances[id][from] */\n      dup14\n      dup2\n      and\n      dup6\n      mstore\n      swap3\n      mstore\n      dup1\n      dup4\n      keccak256\n        /* \"@openzeppelin/contracts/token/ERC1155/ERC1155.sol\":5604:5624  fromBalance - amount */\n      dup10\n      dup6\n      sub\n        /* \"@openzeppelin/contracts/token/ERC1155/ERC1155.sol\":5582:5624  _balances[id][from] = fromBalance - amount */\n      swap1\n      sstore\n        /* \"@openzeppelin/contracts/token/ERC1155/ERC1155.sol\":5644:5661  _balances[id][to] */\n      swap1\n      dup11\n      and\n      dup3\n      mstore\n      dup2\n      keccak256\n        /* \"@openzeppelin/contracts/token/ERC1155/ERC1155.sol\":5644:5671  _balances[id][to] += amount */\n      dup1\n      sload\n        /* \"@openzeppelin/contracts/token/ERC1155/ERC1155.sol\":5604:5624  fromBalance - amount */\n      dup9\n      swap3\n        /* \"@openzeppelin/contracts/token/ERC1155/ERC1155.sol\":5582:5591  _balances */\n      swap1\n        /* \"@openzeppelin/contracts/token/ERC1155/ERC1155.sol\":5644:5671  _balances[id][to] += amount */\n      tag_219\n      swap1\n        /* \"@openzeppelin/contracts/token/ERC1155/ERC1155.sol\":5604:5624  fromBalance - amount */\n      dup5\n      swap1\n        /* \"@openzeppelin/contracts/token/ERC1155/ERC1155.sol\":5644:5671  _balances[id][to] += amount */\n      tag_170\n      jump\t// in\n    tag_219:\n      swap1\n      swap2\n      sstore\n      pop\n      pop\n        /* \"@openzeppelin/contracts/token/ERC1155/ERC1155.sol\":5687:5733  TransferSingle(operator, from, to, id, amount) */\n      0x40\n      dup1\n      mload\n        /* \"#utility.yul\":12211:12236   */\n      dup9\n      dup2\n      mstore\n        /* \"#utility.yul\":12267:12269   */\n      0x20\n        /* \"#utility.yul\":12252:12270   */\n      dup2\n      add\n        /* \"#utility.yul\":12245:12279   */\n      dup9\n      swap1\n      mstore\n      sub(shl(0xa0, 0x01), 0x01)\n        /* \"@openzeppelin/contracts/token/ERC1155/ERC1155.sol\":5687:5733  TransferSingle(operator, from, to, id, amount) */\n      dup1\n      dup12\n      and\n      swap3\n      dup13\n      dup3\n      and\n      swap3\n      swap2\n      dup9\n      and\n      swap2\n      0xc3d58168c5ae7397731d063d5bbf3d657854427343f4c083240f7aacaa2d0f62\n      swap2\n        /* \"#utility.yul\":12184:12202   */\n      add\n        /* \"@openzeppelin/contracts/token/ERC1155/ERC1155.sol\":5687:5733  TransferSingle(operator, from, to, id, amount) */\n      mload(0x40)\n      dup1\n      swap2\n      sub\n      swap1\n      log4\n        /* \"@openzeppelin/contracts/token/ERC1155/ERC1155.sol\":5814:5882  _doSafeTransferAcceptanceCheck(operator, from, to, id, amount, data) */\n      tag_222\n        /* \"@openzeppelin/contracts/token/ERC1155/ERC1155.sol\":5845:5853  operator */\n      dup5\n        /* \"@openzeppelin/contracts/token/ERC1155/ERC1155.sol\":5855:5859  from */\n      dup11\n        /* \"@openzeppelin/contracts/token/ERC1155/ERC1155.sol\":5861:5863  to */\n      dup11\n        /* \"@openzeppelin/contracts/token/ERC1155/ERC1155.sol\":5865:5867  id */\n      dup11\n        /* \"@openzeppelin/contracts/token/ERC1155/ERC1155.sol\":5869:5875  amount */\n      dup11\n        /* \"@openzeppelin/contracts/token/ERC1155/ERC1155.sol\":5877:5881  data */\n      dup11\n        /* \"@openzeppelin/contracts/token/ERC1155/ERC1155.sol\":5814:5844  _doSafeTransferAcceptanceCheck */\n      tag_176\n        /* \"@openzeppelin/contracts/token/ERC1155/ERC1155.sol\":5814:5882  _doSafeTransferAcceptanceCheck(operator, from, to, id, amount, data) */\n      jump\t// in\n    tag_222:\n        /* \"@openzeppelin/contracts/token/ERC1155/ERC1155.sol\":5105:5889  {... */\n      pop\n      pop\n      pop\n      pop\n        /* \"@openzeppelin/contracts/token/ERC1155/ERC1155.sol\":4942:5889  function _safeTransferFrom(... */\n      pop\n      pop\n      pop\n      pop\n      pop\n      jump\t// out\n        /* \"@openzeppelin/contracts/token/ERC1155/ERC1155.sol\":17066:17259  function _asSingletonArray(uint256 element) private pure returns (uint256[] memory) {... */\n    tag_165:\n        /* \"@openzeppelin/contracts/token/ERC1155/ERC1155.sol\":17185:17201  new uint256[](1) */\n      0x40\n      dup1\n      mload\n        /* \"@openzeppelin/contracts/token/ERC1155/ERC1155.sol\":17199:17200  1 */\n      0x01\n        /* \"@openzeppelin/contracts/token/ERC1155/ERC1155.sol\":17185:17201  new uint256[](1) */\n      dup1\n      dup3\n      mstore\n      dup2\n      dup4\n      add\n      swap1\n      swap3\n      mstore\n        /* \"@openzeppelin/contracts/token/ERC1155/ERC1155.sol\":17132:17148  uint256[] memory */\n      0x60\n      swap2\n        /* \"@openzeppelin/contracts/token/ERC1155/ERC1155.sol\":17160:17182  uint256[] memory array */\n      0x00\n      swap2\n        /* \"@openzeppelin/contracts/token/ERC1155/ERC1155.sol\":17185:17201  new uint256[](1) */\n      swap1\n      0x20\n      dup1\n      dup4\n      add\n      swap1\n      dup1\n      calldatasize\n      dup4\n      calldatacopy\n      add\n      swap1\n      pop\n      pop\n        /* \"@openzeppelin/contracts/token/ERC1155/ERC1155.sol\":17160:17201  uint256[] memory array = new uint256[](1) */\n      swap1\n      pop\n        /* \"@openzeppelin/contracts/token/ERC1155/ERC1155.sol\":17222:17229  element */\n      dup3\n        /* \"@openzeppelin/contracts/token/ERC1155/ERC1155.sol\":17211:17216  array */\n      dup2\n        /* \"@openzeppelin/contracts/token/ERC1155/ERC1155.sol\":17217:17218  0 */\n      0x00\n        /* \"@openzeppelin/contracts/token/ERC1155/ERC1155.sol\":17211:17219  array[0] */\n      dup2\n      mload\n      dup2\n      lt\n      tag_228\n      jumpi\n      tag_228\n      tag_118\n      jump\t// in\n    tag_228:\n      0x20\n      swap1\n      dup2\n      mul\n      swap2\n      swap1\n      swap2\n      add\n      add\n        /* \"@openzeppelin/contracts/token/ERC1155/ERC1155.sol\":17211:17229  array[0] = element */\n      mstore\n        /* \"@openzeppelin/contracts/token/ERC1155/ERC1155.sol\":17247:17252  array */\n      swap3\n        /* \"@openzeppelin/contracts/token/ERC1155/ERC1155.sol\":17066:17259  function _asSingletonArray(uint256 element) private pure returns (uint256[] memory) {... */\n      swap2\n      pop\n      pop\n      jump\t// out\n        /* \"@openzeppelin/contracts/token/ERC1155/ERC1155.sol\":15537:16262  function _doSafeTransferAcceptanceCheck(... */\n    tag_176:\n      sub(shl(0xa0, 0x01), 0x01)\n        /* \"@openzeppelin/contracts/token/ERC1155/ERC1155.sol\":15744:15757  to.isContract */\n      dup5\n      and\n        /* \"@openzeppelin/contracts/utils/Address.sol\":1465:1484  account.code.length */\n      extcodesize\n        /* \"@openzeppelin/contracts/utils/Address.sol\":1465:1488  account.code.length > 0 */\n      iszero\n        /* \"@openzeppelin/contracts/token/ERC1155/ERC1155.sol\":15740:16256  if (to.isContract()) {... */\n      tag_202\n      jumpi\n        /* \"@openzeppelin/contracts/token/ERC1155/ERC1155.sol\":15779:15851  IERC1155Receiver(to).onERC1155Received(operator, from, id, amount, data) */\n      mload(0x40)\n      shl(0xe0, 0xf23a6e61)\n      dup2\n      mstore\n      sub(shl(0xa0, 0x01), 0x01)\n        /* \"@openzeppelin/contracts/token/ERC1155/ERC1155.sol\":15779:15817  IERC1155Receiver(to).onERC1155Received */\n      dup6\n      and\n      swap1\n      0xf23a6e61\n      swap1\n        /* \"@openzeppelin/contracts/token/ERC1155/ERC1155.sol\":15779:15851  IERC1155Receiver(to).onERC1155Received(operator, from, id, amount, data) */\n      tag_235\n      swap1\n        /* \"@openzeppelin/contracts/token/ERC1155/ERC1155.sol\":15818:15826  operator */\n      dup10\n      swap1\n        /* \"@openzeppelin/contracts/token/ERC1155/ERC1155.sol\":15828:15832  from */\n      dup10\n      swap1\n        /* \"@openzeppelin/contracts/token/ERC1155/ERC1155.sol\":15834:15836  id */\n      dup9\n      swap1\n        /* \"@openzeppelin/contracts/token/ERC1155/ERC1155.sol\":15838:15844  amount */\n      dup9\n      swap1\n        /* \"@openzeppelin/contracts/token/ERC1155/ERC1155.sol\":15846:15850  data */\n      dup9\n      swap1\n        /* \"@openzeppelin/contracts/token/ERC1155/ERC1155.sol\":15779:15851  IERC1155Receiver(to).onERC1155Received(operator, from, id, amount, data) */\n      0x04\n      add\n      tag_236\n      jump\t// in\n    tag_235:\n      0x20\n      mload(0x40)\n      dup1\n      dup4\n      sub\n      dup2\n      0x00\n      dup8\n      gas\n      call\n      swap3\n      pop\n      pop\n      pop\n      dup1\n      iszero\n      tag_237\n      jumpi\n      pop\n      0x40\n      dup1\n      mload\n      0x1f\n      returndatasize\n      swap1\n      dup2\n      add\n      not(0x1f)\n      and\n      dup3\n      add\n      swap1\n      swap3\n      mstore\n      tag_238\n      swap2\n      dup2\n      add\n      swap1\n      tag_239\n      jump\t// in\n    tag_238:\n      0x01\n    tag_237:\n        /* \"@openzeppelin/contracts/token/ERC1155/ERC1155.sol\":15775:16246  try IERC1155Receiver(to).onERC1155Received(operator, from, id, amount, data) returns (bytes4 response) {... */\n      tag_240\n      jumpi\n      tag_244\n      tag_245\n      jump\t// in\n    tag_244:\n      dup1\n      0x08c379a0\n      sub\n      tag_243\n      jumpi\n      pop\n      tag_246\n      tag_247\n      jump\t// in\n    tag_246:\n      dup1\n      tag_248\n      jumpi\n      pop\n      jump(tag_242)\n    tag_248:\n        /* \"@openzeppelin/contracts/token/ERC1155/ERC1155.sol\":16122:16128  reason */\n      dup1\n        /* \"@openzeppelin/contracts/token/ERC1155/ERC1155.sol\":16115:16129  revert(reason) */\n      mload(0x40)\n      shl(0xe5, 0x461bcd)\n      dup2\n      mstore\n      0x04\n      add\n      tag_73\n      swap2\n      swap1\n      tag_33\n      jump\t// in\n        /* \"@openzeppelin/contracts/token/ERC1155/ERC1155.sol\":15775:16246  try IERC1155Receiver(to).onERC1155Received(operator, from, id, amount, data) returns (bytes4 response) {... */\n    tag_243:\n      pop\n    tag_242:\n        /* \"@openzeppelin/contracts/token/ERC1155/ERC1155.sol\":16169:16231  revert(\"ERC1155: transfer to non ERC1155Receiver implementer\") */\n      mload(0x40)\n      shl(0xe5, 0x461bcd)\n      dup2\n      mstore\n        /* \"#utility.yul\":16278:16280   */\n      0x20\n        /* \"@openzeppelin/contracts/token/ERC1155/ERC1155.sol\":16169:16231  revert(\"ERC1155: transfer to non ERC1155Receiver implementer\") */\n      0x04\n      dup3\n      add\n        /* \"#utility.yul\":16260:16281   */\n      mstore\n        /* \"#utility.yul\":16317:16319   */\n      0x34\n        /* \"#utility.yul\":16297:16315   */\n      0x24\n      dup3\n      add\n        /* \"#utility.yul\":16290:16320   */\n      mstore\n        /* \"#utility.yul\":16356:16390   */\n      0x455243313135353a207472616e7366657220746f206e6f6e2045524331313535\n        /* \"#utility.yul\":16336:16354   */\n      0x44\n      dup3\n      add\n        /* \"#utility.yul\":16329:16391   */\n      mstore\n      shl(0x61, 0x2932b1b2b4bb32b91034b6b83632b6b2b73a32b9)\n        /* \"#utility.yul\":16407:16425   */\n      0x64\n      dup3\n      add\n        /* \"#utility.yul\":16400:16450   */\n      mstore\n        /* \"#utility.yul\":16467:16486   */\n      0x84\n      add\n        /* \"@openzeppelin/contracts/token/ERC1155/ERC1155.sol\":16169:16231  revert(\"ERC1155: transfer to non ERC1155Receiver implementer\") */\n      tag_73\n        /* \"#utility.yul\":16076:16492   */\n      jump\n        /* \"@openzeppelin/contracts/token/ERC1155/ERC1155.sol\":15775:16246  try IERC1155Receiver(to).onERC1155Received(operator, from, id, amount, data) returns (bytes4 response) {... */\n    tag_240:\n      not(sub(shl(0xe0, 0x01), 0x01))\n        /* \"@openzeppelin/contracts/token/ERC1155/ERC1155.sol\":15900:15955  response != IERC1155Receiver.onERC1155Received.selector */\n      dup2\n      and\n      shl(0xe0, 0xf23a6e61)\n      eq\n        /* \"@openzeppelin/contracts/token/ERC1155/ERC1155.sol\":15896:16048  if (response != IERC1155Receiver.onERC1155Received.selector) {... */\n      tag_175\n      jumpi\n        /* \"@openzeppelin/contracts/token/ERC1155/ERC1155.sol\":15979:16029  revert(\"ERC1155: ERC1155Receiver rejected tokens\") */\n      mload(0x40)\n      shl(0xe5, 0x461bcd)\n      dup2\n      mstore\n      0x04\n      add\n      tag_73\n      swap1\n      tag_255\n      jump\t// in\n        /* \"@openzeppelin/contracts/token/ERC1155/ERC1155.sol\":16268:17060  function _doSafeBatchTransferAcceptanceCheck(... */\n    tag_203:\n      sub(shl(0xa0, 0x01), 0x01)\n        /* \"@openzeppelin/contracts/token/ERC1155/ERC1155.sol\":16500:16513  to.isContract */\n      dup5\n      and\n        /* \"@openzeppelin/contracts/utils/Address.sol\":1465:1484  account.code.length */\n      extcodesize\n        /* \"@openzeppelin/contracts/utils/Address.sol\":1465:1488  account.code.length > 0 */\n      iszero\n        /* \"@openzeppelin/contracts/token/ERC1155/ERC1155.sol\":16496:17054  if (to.isContract()) {... */\n      tag_202\n      jumpi\n        /* \"@openzeppelin/contracts/token/ERC1155/ERC1155.sol\":16535:16614  IERC1155Receiver(to).onERC1155BatchReceived(operator, from, ids, amounts, data) */\n      mload(0x40)\n      shl(0xe0, 0xbc197c81)\n      dup2\n      mstore\n      sub(shl(0xa0, 0x01), 0x01)\n        /* \"@openzeppelin/contracts/token/ERC1155/ERC1155.sol\":16535:16578  IERC1155Receiver(to).onERC1155BatchReceived */\n      dup6\n      and\n      swap1\n      0xbc197c81\n      swap1\n        /* \"@openzeppelin/contracts/token/ERC1155/ERC1155.sol\":16535:16614  IERC1155Receiver(to).onERC1155BatchReceived(operator, from, ids, amounts, data) */\n      tag_259\n      swap1\n        /* \"@openzeppelin/contracts/token/ERC1155/ERC1155.sol\":16579:16587  operator */\n      dup10\n      swap1\n        /* \"@openzeppelin/contracts/token/ERC1155/ERC1155.sol\":16589:16593  from */\n      dup10\n      swap1\n        /* \"@openzeppelin/contracts/token/ERC1155/ERC1155.sol\":16595:16598  ids */\n      dup9\n      swap1\n        /* \"@openzeppelin/contracts/token/ERC1155/ERC1155.sol\":16600:16607  amounts */\n      dup9\n      swap1\n        /* \"@openzeppelin/contracts/token/ERC1155/ERC1155.sol\":16609:16613  data */\n      dup9\n      swap1\n        /* \"@openzeppelin/contracts/token/ERC1155/ERC1155.sol\":16535:16614  IERC1155Receiver(to).onERC1155BatchReceived(operator, from, ids, amounts, data) */\n      0x04\n      add\n      tag_260\n      jump\t// in\n    tag_259:\n      0x20\n      mload(0x40)\n      dup1\n      dup4\n      sub\n      dup2\n      0x00\n      dup8\n      gas\n      call\n      swap3\n      pop\n      pop\n      pop\n      dup1\n      iszero\n      tag_261\n      jumpi\n      pop\n      0x40\n      dup1\n      mload\n      0x1f\n      returndatasize\n      swap1\n      dup2\n      add\n      not(0x1f)\n      and\n      dup3\n      add\n      swap1\n      swap3\n      mstore\n      tag_262\n      swap2\n      dup2\n      add\n      swap1\n      tag_239\n      jump\t// in\n    tag_262:\n      0x01\n    tag_261:\n        /* \"@openzeppelin/contracts/token/ERC1155/ERC1155.sol\":16531:17044  try IERC1155Receiver(to).onERC1155BatchReceived(operator, from, ids, amounts, data) returns (... */\n      tag_263\n      jumpi\n      tag_244\n      tag_245\n      jump\t// in\n    tag_263:\n      not(sub(shl(0xe0, 0x01), 0x01))\n        /* \"@openzeppelin/contracts/token/ERC1155/ERC1155.sol\":16693:16753  response != IERC1155Receiver.onERC1155BatchReceived.selector */\n      dup2\n      and\n      shl(0xe0, 0xbc197c81)\n      eq\n        /* \"@openzeppelin/contracts/token/ERC1155/ERC1155.sol\":16689:16846  if (response != IERC1155Receiver.onERC1155BatchReceived.selector) {... */\n      tag_175\n      jumpi\n        /* \"@openzeppelin/contracts/token/ERC1155/ERC1155.sol\":16777:16827  revert(\"ERC1155: ERC1155Receiver rejected tokens\") */\n      mload(0x40)\n      shl(0xe5, 0x461bcd)\n      dup2\n      mstore\n      0x04\n      add\n      tag_73\n      swap1\n      tag_255\n      jump\t// in\n        /* \"#utility.yul\":14:187   */\n    tag_276:\n        /* \"#utility.yul\":82:102   */\n      dup1\n      calldataload\n      sub(shl(0xa0, 0x01), 0x01)\n        /* \"#utility.yul\":131:162   */\n      dup2\n      and\n        /* \"#utility.yul\":121:163   */\n      dup2\n      eq\n        /* \"#utility.yul\":111:181   */\n      tag_287\n      jumpi\n        /* \"#utility.yul\":177:178   */\n      0x00\n        /* \"#utility.yul\":174:175   */\n      dup1\n        /* \"#utility.yul\":167:179   */\n      revert\n        /* \"#utility.yul\":111:181   */\n    tag_287:\n        /* \"#utility.yul\":14:187   */\n      swap2\n      swap1\n      pop\n      jump\t// out\n        /* \"#utility.yul\":192:446   */\n    tag_18:\n        /* \"#utility.yul\":260:266   */\n      0x00\n        /* \"#utility.yul\":268:274   */\n      dup1\n        /* \"#utility.yul\":321:323   */\n      0x40\n        /* \"#utility.yul\":309:318   */\n      dup4\n        /* \"#utility.yul\":300:307   */\n      dup6\n        /* \"#utility.yul\":296:319   */\n      sub\n        /* \"#utility.yul\":292:324   */\n      slt\n        /* \"#utility.yul\":289:341   */\n      iszero\n      tag_289\n      jumpi\n        /* \"#utility.yul\":337:338   */\n      0x00\n        /* \"#utility.yul\":334:335   */\n      dup1\n        /* \"#utility.yul\":327:339   */\n      revert\n        /* \"#utility.yul\":289:341   */\n    tag_289:\n        /* \"#utility.yul\":360:389   */\n      tag_290\n        /* \"#utility.yul\":379:388   */\n      dup4\n        /* \"#utility.yul\":360:389   */\n      tag_276\n      jump\t// in\n    tag_290:\n        /* \"#utility.yul\":350:389   */\n      swap5\n        /* \"#utility.yul\":436:438   */\n      0x20\n        /* \"#utility.yul\":421:439   */\n      swap4\n      swap1\n      swap4\n      add\n        /* \"#utility.yul\":408:440   */\n      calldataload\n      swap4\n      pop\n      pop\n      pop\n        /* \"#utility.yul\":192:446   */\n      jump\t// out\n        /* \"#utility.yul\":633:764   */\n    tag_277:\n      not(sub(shl(0xe0, 0x01), 0x01))\n        /* \"#utility.yul\":707:739   */\n      dup2\n      and\n        /* \"#utility.yul\":697:740   */\n      dup2\n      eq\n        /* \"#utility.yul\":687:758   */\n      tag_151\n      jumpi\n        /* \"#utility.yul\":754:755   */\n      0x00\n        /* \"#utility.yul\":751:752   */\n      dup1\n        /* \"#utility.yul\":744:756   */\n      revert\n        /* \"#utility.yul\":769:1014   */\n    tag_24:\n        /* \"#utility.yul\":827:833   */\n      0x00\n        /* \"#utility.yul\":880:882   */\n      0x20\n        /* \"#utility.yul\":868:877   */\n      dup3\n        /* \"#utility.yul\":859:866   */\n      dup5\n        /* \"#utility.yul\":855:878   */\n      sub\n        /* \"#utility.yul\":851:883   */\n      slt\n        /* \"#utility.yul\":848:900   */\n      iszero\n      tag_295\n      jumpi\n        /* \"#utility.yul\":896:897   */\n      0x00\n        /* \"#utility.yul\":893:894   */\n      dup1\n        /* \"#utility.yul\":886:898   */\n      revert\n        /* \"#utility.yul\":848:900   */\n    tag_295:\n        /* \"#utility.yul\":935:944   */\n      dup2\n        /* \"#utility.yul\":922:945   */\n      calldataload\n        /* \"#utility.yul\":954:984   */\n      tag_296\n        /* \"#utility.yul\":978:983   */\n      dup2\n        /* \"#utility.yul\":954:984   */\n      tag_277\n      jump\t// in\n    tag_296:\n        /* \"#utility.yul\":1003:1008   */\n      swap4\n        /* \"#utility.yul\":769:1014   */\n      swap3\n      pop\n      pop\n      pop\n      jump\t// out\n        /* \"#utility.yul\":1211:1391   */\n    tag_30:\n        /* \"#utility.yul\":1270:1276   */\n      0x00\n        /* \"#utility.yul\":1323:1325   */\n      0x20\n        /* \"#utility.yul\":1311:1320   */\n      dup3\n        /* \"#utility.yul\":1302:1309   */\n      dup5\n        /* \"#utility.yul\":1298:1321   */\n      sub\n        /* \"#utility.yul\":1294:1326   */\n      slt\n        /* \"#utility.yul\":1291:1343   */\n      iszero\n      tag_299\n      jumpi\n        /* \"#utility.yul\":1339:1340   */\n      0x00\n        /* \"#utility.yul\":1336:1337   */\n      dup1\n        /* \"#utility.yul\":1329:1341   */\n      revert\n        /* \"#utility.yul\":1291:1343   */\n    tag_299:\n      pop\n        /* \"#utility.yul\":1362:1385   */\n      calldataload\n      swap2\n        /* \"#utility.yul\":1211:1391   */\n      swap1\n      pop\n      jump\t// out\n        /* \"#utility.yul\":1396:1868   */\n    tag_278:\n        /* \"#utility.yul\":1438:1441   */\n      0x00\n        /* \"#utility.yul\":1476:1481   */\n      dup2\n        /* \"#utility.yul\":1470:1482   */\n      mload\n        /* \"#utility.yul\":1503:1509   */\n      dup1\n        /* \"#utility.yul\":1498:1501   */\n      dup5\n        /* \"#utility.yul\":1491:1510   */\n      mstore\n        /* \"#utility.yul\":1528:1529   */\n      0x00\n        /* \"#utility.yul\":1538:1700   */\n    tag_301:\n        /* \"#utility.yul\":1552:1558   */\n      dup2\n        /* \"#utility.yul\":1549:1550   */\n      dup2\n        /* \"#utility.yul\":1546:1559   */\n      lt\n        /* \"#utility.yul\":1538:1700   */\n      iszero\n      tag_303\n      jumpi\n        /* \"#utility.yul\":1614:1618   */\n      0x20\n        /* \"#utility.yul\":1670:1683   */\n      dup2\n      dup6\n      add\n        /* \"#utility.yul\":1666:1688   */\n      dup2\n      add\n        /* \"#utility.yul\":1660:1689   */\n      mload\n        /* \"#utility.yul\":1642:1653   */\n      dup7\n      dup4\n      add\n        /* \"#utility.yul\":1638:1658   */\n      dup3\n      add\n        /* \"#utility.yul\":1631:1690   */\n      mstore\n        /* \"#utility.yul\":1567:1579   */\n      add\n        /* \"#utility.yul\":1538:1700   */\n      jump(tag_301)\n    tag_303:\n        /* \"#utility.yul\":1718:1724   */\n      dup2\n        /* \"#utility.yul\":1715:1716   */\n      dup2\n        /* \"#utility.yul\":1712:1725   */\n      gt\n        /* \"#utility.yul\":1709:1796   */\n      iszero\n      tag_304\n      jumpi\n        /* \"#utility.yul\":1784:1785   */\n      0x00\n        /* \"#utility.yul\":1777:1781   */\n      0x20\n        /* \"#utility.yul\":1768:1774   */\n      dup4\n        /* \"#utility.yul\":1763:1766   */\n      dup8\n        /* \"#utility.yul\":1759:1775   */\n      add\n        /* \"#utility.yul\":1755:1782   */\n      add\n        /* \"#utility.yul\":1748:1786   */\n      mstore\n        /* \"#utility.yul\":1709:1796   */\n    tag_304:\n      pop\n        /* \"#utility.yul\":1850:1852   */\n      0x1f\n        /* \"#utility.yul\":1829:1844   */\n      add\n      not(0x1f)\n        /* \"#utility.yul\":1825:1854   */\n      and\n        /* \"#utility.yul\":1816:1855   */\n      swap3\n      swap1\n      swap3\n      add\n        /* \"#utility.yul\":1857:1861   */\n      0x20\n        /* \"#utility.yul\":1812:1862   */\n      add\n      swap3\n        /* \"#utility.yul\":1396:1868   */\n      swap2\n      pop\n      pop\n      jump\t// out\n        /* \"#utility.yul\":1873:2093   */\n    tag_33:\n        /* \"#utility.yul\":2022:2024   */\n      0x20\n        /* \"#utility.yul\":2011:2020   */\n      dup2\n        /* \"#utility.yul\":2004:2025   */\n      mstore\n        /* \"#utility.yul\":1985:1989   */\n      0x00\n        /* \"#utility.yul\":2042:2087   */\n      tag_296\n        /* \"#utility.yul\":2083:2085   */\n      0x20\n        /* \"#utility.yul\":2072:2081   */\n      dup4\n        /* \"#utility.yul\":2068:2086   */\n      add\n        /* \"#utility.yul\":2060:2066   */\n      dup5\n        /* \"#utility.yul\":2042:2087   */\n      tag_278\n      jump\t// in\n        /* \"#utility.yul\":2098:2346   */\n    tag_36:\n        /* \"#utility.yul\":2166:2172   */\n      0x00\n        /* \"#utility.yul\":2174:2180   */\n      dup1\n        /* \"#utility.yul\":2227:2229   */\n      0x40\n        /* \"#utility.yul\":2215:2224   */\n      dup4\n        /* \"#utility.yul\":2206:2213   */\n      dup6\n        /* \"#utility.yul\":2202:2225   */\n      sub\n        /* \"#utility.yul\":2198:2230   */\n      slt\n        /* \"#utility.yul\":2195:2247   */\n      iszero\n      tag_308\n      jumpi\n        /* \"#utility.yul\":2243:2244   */\n      0x00\n        /* \"#utility.yul\":2240:2241   */\n      dup1\n        /* \"#utility.yul\":2233:2245   */\n      revert\n        /* \"#utility.yul\":2195:2247   */\n    tag_308:\n      pop\n      pop\n        /* \"#utility.yul\":2266:2289   */\n      dup1\n      calldataload\n      swap3\n        /* \"#utility.yul\":2336:2338   */\n      0x20\n        /* \"#utility.yul\":2321:2339   */\n      swap1\n      swap2\n      add\n        /* \"#utility.yul\":2308:2340   */\n      calldataload\n      swap2\n      pop\n        /* \"#utility.yul\":2098:2346   */\n      jump\t// out\n        /* \"#utility.yul\":2351:2478   */\n    tag_110:\n        /* \"#utility.yul\":2412:2422   */\n      0x4e487b71\n        /* \"#utility.yul\":2407:2410   */\n      0xe0\n        /* \"#utility.yul\":2403:2423   */\n      shl\n        /* \"#utility.yul\":2400:2401   */\n      0x00\n        /* \"#utility.yul\":2393:2424   */\n      mstore\n        /* \"#utility.yul\":2443:2447   */\n      0x41\n        /* \"#utility.yul\":2440:2441   */\n      0x04\n        /* \"#utility.yul\":2433:2448   */\n      mstore\n        /* \"#utility.yul\":2467:2471   */\n      0x24\n        /* \"#utility.yul\":2464:2465   */\n      0x00\n        /* \"#utility.yul\":2457:2472   */\n      revert\n        /* \"#utility.yul\":2483:2732   */\n    tag_279:\n        /* \"#utility.yul\":2593:2595   */\n      0x1f\n        /* \"#utility.yul\":2574:2587   */\n      dup3\n      add\n      not(0x1f)\n        /* \"#utility.yul\":2570:2597   */\n      and\n        /* \"#utility.yul\":2558:2598   */\n      dup2\n      add\n        /* \"#utility.yul\":2628:2646   */\n      0xffffffffffffffff\n        /* \"#utility.yul\":2613:2647   */\n      dup2\n      gt\n        /* \"#utility.yul\":2649:2671   */\n      dup3\n      dup3\n      lt\n        /* \"#utility.yul\":2610:2672   */\n      or\n        /* \"#utility.yul\":2607:2695   */\n      iszero\n      tag_312\n      jumpi\n        /* \"#utility.yul\":2675:2693   */\n      tag_312\n      tag_110\n      jump\t// in\n    tag_312:\n        /* \"#utility.yul\":2711:2713   */\n      0x40\n        /* \"#utility.yul\":2704:2726   */\n      mstore\n      pop\n      pop\n        /* \"#utility.yul\":2483:2732   */\n      jump\t// out\n        /* \"#utility.yul\":2737:2920   */\n    tag_280:\n        /* \"#utility.yul\":2797:2801   */\n      0x00\n        /* \"#utility.yul\":2830:2848   */\n      0xffffffffffffffff\n        /* \"#utility.yul\":2822:2828   */\n      dup3\n        /* \"#utility.yul\":2819:2849   */\n      gt\n        /* \"#utility.yul\":2816:2872   */\n      iszero\n      tag_315\n      jumpi\n        /* \"#utility.yul\":2852:2870   */\n      tag_315\n      tag_110\n      jump\t// in\n    tag_315:\n      pop\n        /* \"#utility.yul\":2897:2898   */\n      0x05\n        /* \"#utility.yul\":2893:2907   */\n      shl\n        /* \"#utility.yul\":2909:2913   */\n      0x20\n        /* \"#utility.yul\":2889:2914   */\n      add\n      swap1\n        /* \"#utility.yul\":2737:2920   */\n      jump\t// out\n        /* \"#utility.yul\":2925:3649   */\n    tag_281:\n        /* \"#utility.yul\":2979:2984   */\n      0x00\n        /* \"#utility.yul\":3032:3035   */\n      dup3\n        /* \"#utility.yul\":3025:3029   */\n      0x1f\n        /* \"#utility.yul\":3017:3023   */\n      dup4\n        /* \"#utility.yul\":3013:3030   */\n      add\n        /* \"#utility.yul\":3009:3036   */\n      slt\n        /* \"#utility.yul\":2999:3054   */\n      tag_317\n      jumpi\n        /* \"#utility.yul\":3050:3051   */\n      0x00\n        /* \"#utility.yul\":3047:3048   */\n      dup1\n        /* \"#utility.yul\":3040:3052   */\n      revert\n        /* \"#utility.yul\":2999:3054   */\n    tag_317:\n        /* \"#utility.yul\":3086:3092   */\n      dup2\n        /* \"#utility.yul\":3073:3093   */\n      calldataload\n        /* \"#utility.yul\":3112:3116   */\n      0x20\n        /* \"#utility.yul\":3135:3178   */\n      tag_318\n        /* \"#utility.yul\":3175:3177   */\n      dup3\n        /* \"#utility.yul\":3135:3178   */\n      tag_280\n      jump\t// in\n    tag_318:\n        /* \"#utility.yul\":3207:3209   */\n      0x40\n        /* \"#utility.yul\":3201:3210   */\n      mload\n        /* \"#utility.yul\":3219:3250   */\n      tag_319\n        /* \"#utility.yul\":3247:3249   */\n      dup3\n        /* \"#utility.yul\":3239:3245   */\n      dup3\n        /* \"#utility.yul\":3219:3250   */\n      tag_279\n      jump\t// in\n    tag_319:\n        /* \"#utility.yul\":3285:3303   */\n      dup4\n      dup2\n      mstore\n        /* \"#utility.yul\":3377:3378   */\n      0x05\n        /* \"#utility.yul\":3373:3383   */\n      swap4\n      swap1\n      swap4\n      shl\n        /* \"#utility.yul\":3361:3384   */\n      dup6\n      add\n        /* \"#utility.yul\":3357:3389   */\n      dup3\n      add\n      swap3\n        /* \"#utility.yul\":3319:3334   */\n      dup3\n      dup2\n      add\n      swap2\n      pop\n        /* \"#utility.yul\":3401:3416   */\n      dup7\n      dup5\n      gt\n        /* \"#utility.yul\":3398:3433   */\n      iszero\n      tag_320\n      jumpi\n        /* \"#utility.yul\":3429:3430   */\n      0x00\n        /* \"#utility.yul\":3426:3427   */\n      dup1\n        /* \"#utility.yul\":3419:3431   */\n      revert\n        /* \"#utility.yul\":3398:3433   */\n    tag_320:\n        /* \"#utility.yul\":3465:3467   */\n      dup3\n        /* \"#utility.yul\":3457:3463   */\n      dup7\n        /* \"#utility.yul\":3453:3468   */\n      add\n        /* \"#utility.yul\":3477:3619   */\n    tag_321:\n        /* \"#utility.yul\":3493:3499   */\n      dup5\n        /* \"#utility.yul\":3488:3491   */\n      dup2\n        /* \"#utility.yul\":3485:3500   */\n      lt\n        /* \"#utility.yul\":3477:3619   */\n      iszero\n      tag_323\n      jumpi\n        /* \"#utility.yul\":3559:3576   */\n      dup1\n      calldataload\n        /* \"#utility.yul\":3547:3577   */\n      dup4\n      mstore\n        /* \"#utility.yul\":3597:3609   */\n      swap2\n      dup4\n      add\n      swap2\n        /* \"#utility.yul\":3510:3522   */\n      dup4\n      add\n        /* \"#utility.yul\":3477:3619   */\n      jump(tag_321)\n    tag_323:\n      pop\n        /* \"#utility.yul\":3637:3643   */\n      swap7\n        /* \"#utility.yul\":2925:3649   */\n      swap6\n      pop\n      pop\n      pop\n      pop\n      pop\n      pop\n      jump\t// out\n        /* \"#utility.yul\":3654:4209   */\n    tag_282:\n        /* \"#utility.yul\":3696:3701   */\n      0x00\n        /* \"#utility.yul\":3749:3752   */\n      dup3\n        /* \"#utility.yul\":3742:3746   */\n      0x1f\n        /* \"#utility.yul\":3734:3740   */\n      dup4\n        /* \"#utility.yul\":3730:3747   */\n      add\n        /* \"#utility.yul\":3726:3753   */\n      slt\n        /* \"#utility.yul\":3716:3771   */\n      tag_325\n      jumpi\n        /* \"#utility.yul\":3767:3768   */\n      0x00\n        /* \"#utility.yul\":3764:3765   */\n      dup1\n        /* \"#utility.yul\":3757:3769   */\n      revert\n        /* \"#utility.yul\":3716:3771   */\n    tag_325:\n        /* \"#utility.yul\":3803:3809   */\n      dup2\n        /* \"#utility.yul\":3790:3810   */\n      calldataload\n        /* \"#utility.yul\":3829:3847   */\n      0xffffffffffffffff\n        /* \"#utility.yul\":3825:3827   */\n      dup2\n        /* \"#utility.yul\":3822:3848   */\n      gt\n        /* \"#utility.yul\":3819:3871   */\n      iszero\n      tag_327\n      jumpi\n        /* \"#utility.yul\":3851:3869   */\n      tag_327\n      tag_110\n      jump\t// in\n    tag_327:\n        /* \"#utility.yul\":3900:3902   */\n      0x40\n        /* \"#utility.yul\":3894:3903   */\n      mload\n        /* \"#utility.yul\":3912:3979   */\n      tag_328\n        /* \"#utility.yul\":3967:3969   */\n      0x1f\n        /* \"#utility.yul\":3948:3961   */\n      dup4\n      add\n      not(0x1f)\n        /* \"#utility.yul\":3944:3971   */\n      and\n        /* \"#utility.yul\":3973:3977   */\n      0x20\n        /* \"#utility.yul\":3940:3978   */\n      add\n        /* \"#utility.yul\":3894:3903   */\n      dup3\n        /* \"#utility.yul\":3912:3979   */\n      tag_279\n      jump\t// in\n    tag_328:\n        /* \"#utility.yul\":4003:4005   */\n      dup2\n        /* \"#utility.yul\":3995:4001   */\n      dup2\n        /* \"#utility.yul\":3988:4006   */\n      mstore\n        /* \"#utility.yul\":4049:4052   */\n      dup5\n        /* \"#utility.yul\":4042:4046   */\n      0x20\n        /* \"#utility.yul\":4037:4039   */\n      dup4\n        /* \"#utility.yul\":4029:4035   */\n      dup7\n        /* \"#utility.yul\":4025:4040   */\n      add\n        /* \"#utility.yul\":4021:4047   */\n      add\n        /* \"#utility.yul\":4018:4053   */\n      gt\n        /* \"#utility.yul\":4015:4070   */\n      iszero\n      tag_329\n      jumpi\n        /* \"#utility.yul\":4066:4067   */\n      0x00\n        /* \"#utility.yul\":4063:4064   */\n      dup1\n        /* \"#utility.yul\":4056:4068   */\n      revert\n        /* \"#utility.yul\":4015:4070   */\n    tag_329:\n        /* \"#utility.yul\":4130:4132   */\n      dup2\n        /* \"#utility.yul\":4123:4127   */\n      0x20\n        /* \"#utility.yul\":4115:4121   */\n      dup6\n        /* \"#utility.yul\":4111:4128   */\n      add\n        /* \"#utility.yul\":4104:4108   */\n      0x20\n        /* \"#utility.yul\":4096:4102   */\n      dup4\n        /* \"#utility.yul\":4092:4109   */\n      add\n        /* \"#utility.yul\":4079:4133   */\n      calldatacopy\n        /* \"#utility.yul\":4177:4178   */\n      0x00\n        /* \"#utility.yul\":4153:4168   */\n      swap2\n      dup2\n      add\n        /* \"#utility.yul\":4170:4174   */\n      0x20\n        /* \"#utility.yul\":4149:4175   */\n      add\n        /* \"#utility.yul\":4142:4179   */\n      swap2\n      swap1\n      swap2\n      mstore\n        /* \"#utility.yul\":4157:4163   */\n      swap4\n        /* \"#utility.yul\":3654:4209   */\n      swap3\n      pop\n      pop\n      pop\n      jump\t// out\n        /* \"#utility.yul\":4214:5157   */\n    tag_40:\n        /* \"#utility.yul\":4368:4374   */\n      0x00\n        /* \"#utility.yul\":4376:4382   */\n      dup1\n        /* \"#utility.yul\":4384:4390   */\n      0x00\n        /* \"#utility.yul\":4392:4398   */\n      dup1\n        /* \"#utility.yul\":4400:4406   */\n      0x00\n        /* \"#utility.yul\":4453:4456   */\n      0xa0\n        /* \"#utility.yul\":4441:4450   */\n      dup7\n        /* \"#utility.yul\":4432:4439   */\n      dup9\n        /* \"#utility.yul\":4428:4451   */\n      sub\n        /* \"#utility.yul\":4424:4457   */\n      slt\n        /* \"#utility.yul\":4421:4474   */\n      iszero\n      tag_331\n      jumpi\n        /* \"#utility.yul\":4470:4471   */\n      0x00\n        /* \"#utility.yul\":4467:4468   */\n      dup1\n        /* \"#utility.yul\":4460:4472   */\n      revert\n        /* \"#utility.yul\":4421:4474   */\n    tag_331:\n        /* \"#utility.yul\":4493:4522   */\n      tag_332\n        /* \"#utility.yul\":4512:4521   */\n      dup7\n        /* \"#utility.yul\":4493:4522   */\n      tag_276\n      jump\t// in\n    tag_332:\n        /* \"#utility.yul\":4483:4522   */\n      swap5\n      pop\n        /* \"#utility.yul\":4541:4579   */\n      tag_333\n        /* \"#utility.yul\":4575:4577   */\n      0x20\n        /* \"#utility.yul\":4564:4573   */\n      dup8\n        /* \"#utility.yul\":4560:4578   */\n      add\n        /* \"#utility.yul\":4541:4579   */\n      tag_276\n      jump\t// in\n    tag_333:\n        /* \"#utility.yul\":4531:4579   */\n      swap4\n      pop\n        /* \"#utility.yul\":4630:4632   */\n      0x40\n        /* \"#utility.yul\":4619:4628   */\n      dup7\n        /* \"#utility.yul\":4615:4633   */\n      add\n        /* \"#utility.yul\":4602:4634   */\n      calldataload\n        /* \"#utility.yul\":4653:4671   */\n      0xffffffffffffffff\n        /* \"#utility.yul\":4694:4696   */\n      dup1\n        /* \"#utility.yul\":4686:4692   */\n      dup3\n        /* \"#utility.yul\":4683:4697   */\n      gt\n        /* \"#utility.yul\":4680:4714   */\n      iszero\n      tag_334\n      jumpi\n        /* \"#utility.yul\":4710:4711   */\n      0x00\n        /* \"#utility.yul\":4707:4708   */\n      dup1\n        /* \"#utility.yul\":4700:4712   */\n      revert\n        /* \"#utility.yul\":4680:4714   */\n    tag_334:\n        /* \"#utility.yul\":4733:4794   */\n      tag_335\n        /* \"#utility.yul\":4786:4793   */\n      dup10\n        /* \"#utility.yul\":4777:4783   */\n      dup4\n        /* \"#utility.yul\":4766:4775   */\n      dup11\n        /* \"#utility.yul\":4762:4784   */\n      add\n        /* \"#utility.yul\":4733:4794   */\n      tag_281\n      jump\t// in\n    tag_335:\n        /* \"#utility.yul\":4723:4794   */\n      swap5\n      pop\n        /* \"#utility.yul\":4847:4849   */\n      0x60\n        /* \"#utility.yul\":4836:4845   */\n      dup9\n        /* \"#utility.yul\":4832:4850   */\n      add\n        /* \"#utility.yul\":4819:4851   */\n      calldataload\n        /* \"#utility.yul\":4803:4851   */\n      swap2\n      pop\n        /* \"#utility.yul\":4876:4878   */\n      dup1\n        /* \"#utility.yul\":4866:4874   */\n      dup3\n        /* \"#utility.yul\":4863:4879   */\n      gt\n        /* \"#utility.yul\":4860:4896   */\n      iszero\n      tag_336\n      jumpi\n        /* \"#utility.yul\":4892:4893   */\n      0x00\n        /* \"#utility.yul\":4889:4890   */\n      dup1\n        /* \"#utility.yul\":4882:4894   */\n      revert\n        /* \"#utility.yul\":4860:4896   */\n    tag_336:\n        /* \"#utility.yul\":4915:4978   */\n      tag_337\n        /* \"#utility.yul\":4970:4977   */\n      dup10\n        /* \"#utility.yul\":4959:4967   */\n      dup4\n        /* \"#utility.yul\":4948:4957   */\n      dup11\n        /* \"#utility.yul\":4944:4968   */\n      add\n        /* \"#utility.yul\":4915:4978   */\n      tag_281\n      jump\t// in\n    tag_337:\n        /* \"#utility.yul\":4905:4978   */\n      swap4\n      pop\n        /* \"#utility.yul\":5031:5034   */\n      0x80\n        /* \"#utility.yul\":5020:5029   */\n      dup9\n        /* \"#utility.yul\":5016:5035   */\n      add\n        /* \"#utility.yul\":5003:5036   */\n      calldataload\n        /* \"#utility.yul\":4987:5036   */\n      swap2\n      pop\n        /* \"#utility.yul\":5061:5063   */\n      dup1\n        /* \"#utility.yul\":5051:5059   */\n      dup3\n        /* \"#utility.yul\":5048:5064   */\n      gt\n        /* \"#utility.yul\":5045:5081   */\n      iszero\n      tag_338\n      jumpi\n        /* \"#utility.yul\":5077:5078   */\n      0x00\n        /* \"#utility.yul\":5074:5075   */\n      dup1\n        /* \"#utility.yul\":5067:5079   */\n      revert\n        /* \"#utility.yul\":5045:5081   */\n    tag_338:\n      pop\n        /* \"#utility.yul\":5100:5151   */\n      tag_339\n        /* \"#utility.yul\":5143:5150   */\n      dup9\n        /* \"#utility.yul\":5132:5140   */\n      dup3\n        /* \"#utility.yul\":5121:5130   */\n      dup10\n        /* \"#utility.yul\":5117:5141   */\n      add\n        /* \"#utility.yul\":5100:5151   */\n      tag_282\n      jump\t// in\n    tag_339:\n        /* \"#utility.yul\":5090:5151   */\n      swap2\n      pop\n      pop\n        /* \"#utility.yul\":4214:5157   */\n      swap3\n      swap6\n      pop\n      swap3\n      swap6\n      swap1\n      swap4\n      pop\n      jump\t// out\n        /* \"#utility.yul\":5162:6370   */\n    tag_44:\n        /* \"#utility.yul\":5280:5286   */\n      0x00\n        /* \"#utility.yul\":5288:5294   */\n      dup1\n        /* \"#utility.yul\":5341:5343   */\n      0x40\n        /* \"#utility.yul\":5329:5338   */\n      dup4\n        /* \"#utility.yul\":5320:5327   */\n      dup6\n        /* \"#utility.yul\":5316:5339   */\n      sub\n        /* \"#utility.yul\":5312:5344   */\n      slt\n        /* \"#utility.yul\":5309:5361   */\n      iszero\n      tag_341\n      jumpi\n        /* \"#utility.yul\":5357:5358   */\n      0x00\n        /* \"#utility.yul\":5354:5355   */\n      dup1\n        /* \"#utility.yul\":5347:5359   */\n      revert\n        /* \"#utility.yul\":5309:5361   */\n    tag_341:\n        /* \"#utility.yul\":5397:5406   */\n      dup3\n        /* \"#utility.yul\":5384:5407   */\n      calldataload\n        /* \"#utility.yul\":5426:5444   */\n      0xffffffffffffffff\n        /* \"#utility.yul\":5467:5469   */\n      dup1\n        /* \"#utility.yul\":5459:5465   */\n      dup3\n        /* \"#utility.yul\":5456:5470   */\n      gt\n        /* \"#utility.yul\":5453:5487   */\n      iszero\n      tag_342\n      jumpi\n        /* \"#utility.yul\":5483:5484   */\n      0x00\n        /* \"#utility.yul\":5480:5481   */\n      dup1\n        /* \"#utility.yul\":5473:5485   */\n      revert\n        /* \"#utility.yul\":5453:5487   */\n    tag_342:\n        /* \"#utility.yul\":5521:5527   */\n      dup2\n        /* \"#utility.yul\":5510:5519   */\n      dup6\n        /* \"#utility.yul\":5506:5528   */\n      add\n        /* \"#utility.yul\":5496:5528   */\n      swap2\n      pop\n        /* \"#utility.yul\":5566:5573   */\n      dup6\n        /* \"#utility.yul\":5559:5563   */\n      0x1f\n        /* \"#utility.yul\":5555:5557   */\n      dup4\n        /* \"#utility.yul\":5551:5564   */\n      add\n        /* \"#utility.yul\":5547:5574   */\n      slt\n        /* \"#utility.yul\":5537:5592   */\n      tag_343\n      jumpi\n        /* \"#utility.yul\":5588:5589   */\n      0x00\n        /* \"#utility.yul\":5585:5586   */\n      dup1\n        /* \"#utility.yul\":5578:5590   */\n      revert\n        /* \"#utility.yul\":5537:5592   */\n    tag_343:\n        /* \"#utility.yul\":5624:5626   */\n      dup2\n        /* \"#utility.yul\":5611:5627   */\n      calldataload\n        /* \"#utility.yul\":5646:5650   */\n      0x20\n        /* \"#utility.yul\":5669:5712   */\n      tag_344\n        /* \"#utility.yul\":5709:5711   */\n      dup3\n        /* \"#utility.yul\":5669:5712   */\n      tag_280\n      jump\t// in\n    tag_344:\n        /* \"#utility.yul\":5741:5743   */\n      0x40\n        /* \"#utility.yul\":5735:5744   */\n      mload\n        /* \"#utility.yul\":5753:5784   */\n      tag_345\n        /* \"#utility.yul\":5781:5783   */\n      dup3\n        /* \"#utility.yul\":5773:5779   */\n      dup3\n        /* \"#utility.yul\":5753:5784   */\n      tag_279\n      jump\t// in\n    tag_345:\n        /* \"#utility.yul\":5819:5837   */\n      dup4\n      dup2\n      mstore\n        /* \"#utility.yul\":5907:5908   */\n      0x05\n        /* \"#utility.yul\":5903:5913   */\n      swap4\n      swap1\n      swap4\n      shl\n        /* \"#utility.yul\":5895:5914   */\n      dup6\n      add\n        /* \"#utility.yul\":5891:5919   */\n      dup3\n      add\n      swap3\n        /* \"#utility.yul\":5853:5868   */\n      dup3\n      dup2\n      add\n      swap2\n      pop\n        /* \"#utility.yul\":5931:5950   */\n      dup10\n      dup5\n      gt\n        /* \"#utility.yul\":5928:5967   */\n      iszero\n      tag_346\n      jumpi\n        /* \"#utility.yul\":5963:5964   */\n      0x00\n        /* \"#utility.yul\":5960:5961   */\n      dup1\n        /* \"#utility.yul\":5953:5965   */\n      revert\n        /* \"#utility.yul\":5928:5967   */\n    tag_346:\n        /* \"#utility.yul\":5987:5998   */\n      swap5\n      dup3\n      add\n      swap5\n        /* \"#utility.yul\":6007:6155   */\n    tag_347:\n        /* \"#utility.yul\":6023:6029   */\n      dup4\n        /* \"#utility.yul\":6018:6021   */\n      dup7\n        /* \"#utility.yul\":6015:6030   */\n      lt\n        /* \"#utility.yul\":6007:6155   */\n      iszero\n      tag_349\n      jumpi\n        /* \"#utility.yul\":6089:6112   */\n      tag_350\n        /* \"#utility.yul\":6108:6111   */\n      dup7\n        /* \"#utility.yul\":6089:6112   */\n      tag_276\n      jump\t// in\n    tag_350:\n        /* \"#utility.yul\":6077:6113   */\n      dup3\n      mstore\n        /* \"#utility.yul\":6040:6052   */\n      swap5\n      dup3\n      add\n      swap5\n        /* \"#utility.yul\":6133:6145   */\n      swap1\n      dup3\n      add\n      swap1\n        /* \"#utility.yul\":6007:6155   */\n      jump(tag_347)\n    tag_349:\n        /* \"#utility.yul\":6174:6180   */\n      swap7\n      pop\n      pop\n        /* \"#utility.yul\":6218:6236   */\n      dup7\n      add\n        /* \"#utility.yul\":6205:6237   */\n      calldataload\n      swap3\n      pop\n      pop\n        /* \"#utility.yul\":6249:6265   */\n      dup1\n      dup3\n      gt\n        /* \"#utility.yul\":6246:6282   */\n      iszero\n      tag_351\n      jumpi\n        /* \"#utility.yul\":6278:6279   */\n      0x00\n        /* \"#utility.yul\":6275:6276   */\n      dup1\n        /* \"#utility.yul\":6268:6280   */\n      revert\n        /* \"#utility.yul\":6246:6282   */\n    tag_351:\n      pop\n        /* \"#utility.yul\":6301:6364   */\n      tag_352\n        /* \"#utility.yul\":6356:6363   */\n      dup6\n        /* \"#utility.yul\":6345:6353   */\n      dup3\n        /* \"#utility.yul\":6334:6343   */\n      dup7\n        /* \"#utility.yul\":6330:6354   */\n      add\n        /* \"#utility.yul\":6301:6364   */\n      tag_281\n      jump\t// in\n    tag_352:\n        /* \"#utility.yul\":6291:6364   */\n      swap2\n      pop\n      pop\n        /* \"#utility.yul\":5162:6370   */\n      swap3\n      pop\n      swap3\n      swap1\n      pop\n      jump\t// out\n        /* \"#utility.yul\":6375:6810   */\n    tag_283:\n        /* \"#utility.yul\":6428:6431   */\n      0x00\n        /* \"#utility.yul\":6466:6471   */\n      dup2\n        /* \"#utility.yul\":6460:6472   */\n      mload\n        /* \"#utility.yul\":6493:6499   */\n      dup1\n        /* \"#utility.yul\":6488:6491   */\n      dup5\n        /* \"#utility.yul\":6481:6500   */\n      mstore\n        /* \"#utility.yul\":6519:6523   */\n      0x20\n        /* \"#utility.yul\":6548:6550   */\n      dup1\n        /* \"#utility.yul\":6543:6546   */\n      dup6\n        /* \"#utility.yul\":6539:6551   */\n      add\n        /* \"#utility.yul\":6532:6551   */\n      swap5\n      pop\n        /* \"#utility.yul\":6585:6587   */\n      dup1\n        /* \"#utility.yul\":6578:6583   */\n      dup5\n        /* \"#utility.yul\":6574:6588   */\n      add\n        /* \"#utility.yul\":6606:6607   */\n      0x00\n        /* \"#utility.yul\":6616:6785   */\n    tag_354:\n        /* \"#utility.yul\":6630:6636   */\n      dup4\n        /* \"#utility.yul\":6627:6628   */\n      dup2\n        /* \"#utility.yul\":6624:6637   */\n      lt\n        /* \"#utility.yul\":6616:6785   */\n      iszero\n      tag_356\n      jumpi\n        /* \"#utility.yul\":6691:6704   */\n      dup2\n      mload\n        /* \"#utility.yul\":6679:6705   */\n      dup8\n      mstore\n        /* \"#utility.yul\":6725:6737   */\n      swap6\n      dup3\n      add\n      swap6\n        /* \"#utility.yul\":6760:6775   */\n      swap1\n      dup3\n      add\n      swap1\n        /* \"#utility.yul\":6652:6653   */\n      0x01\n        /* \"#utility.yul\":6645:6654   */\n      add\n        /* \"#utility.yul\":6616:6785   */\n      jump(tag_354)\n    tag_356:\n      pop\n        /* \"#utility.yul\":6801:6804   */\n      swap5\n      swap6\n        /* \"#utility.yul\":6375:6810   */\n      swap5\n      pop\n      pop\n      pop\n      pop\n      pop\n      jump\t// out\n        /* \"#utility.yul\":6815:7076   */\n    tag_47:\n        /* \"#utility.yul\":6994:6996   */\n      0x20\n        /* \"#utility.yul\":6983:6992   */\n      dup2\n        /* \"#utility.yul\":6976:6997   */\n      mstore\n        /* \"#utility.yul\":6957:6961   */\n      0x00\n        /* \"#utility.yul\":7014:7070   */\n      tag_296\n        /* \"#utility.yul\":7066:7068   */\n      0x20\n        /* \"#utility.yul\":7055:7064   */\n      dup4\n        /* \"#utility.yul\":7051:7069   */\n      add\n        /* \"#utility.yul\":7043:7049   */\n      dup5\n        /* \"#utility.yul\":7014:7070   */\n      tag_283\n      jump\t// in\n        /* \"#utility.yul\":7289:7636   */\n    tag_56:\n        /* \"#utility.yul\":7354:7360   */\n      0x00\n        /* \"#utility.yul\":7362:7368   */\n      dup1\n        /* \"#utility.yul\":7415:7417   */\n      0x40\n        /* \"#utility.yul\":7403:7412   */\n      dup4\n        /* \"#utility.yul\":7394:7401   */\n      dup6\n        /* \"#utility.yul\":7390:7413   */\n      sub\n        /* \"#utility.yul\":7386:7418   */\n      slt\n        /* \"#utility.yul\":7383:7435   */\n      iszero\n      tag_361\n      jumpi\n        /* \"#utility.yul\":7431:7432   */\n      0x00\n        /* \"#utility.yul\":7428:7429   */\n      dup1\n        /* \"#utility.yul\":7421:7433   */\n      revert\n        /* \"#utility.yul\":7383:7435   */\n    tag_361:\n        /* \"#utility.yul\":7454:7483   */\n      tag_362\n        /* \"#utility.yul\":7473:7482   */\n      dup4\n        /* \"#utility.yul\":7454:7483   */\n      tag_276\n      jump\t// in\n    tag_362:\n        /* \"#utility.yul\":7444:7483   */\n      swap2\n      pop\n        /* \"#utility.yul\":7533:7535   */\n      0x20\n        /* \"#utility.yul\":7522:7531   */\n      dup4\n        /* \"#utility.yul\":7518:7536   */\n      add\n        /* \"#utility.yul\":7505:7537   */\n      calldataload\n        /* \"#utility.yul\":7580:7585   */\n      dup1\n        /* \"#utility.yul\":7573:7586   */\n      iszero\n        /* \"#utility.yul\":7566:7587   */\n      iszero\n        /* \"#utility.yul\":7559:7564   */\n      dup2\n        /* \"#utility.yul\":7556:7588   */\n      eq\n        /* \"#utility.yul\":7546:7606   */\n      tag_363\n      jumpi\n        /* \"#utility.yul\":7602:7603   */\n      0x00\n        /* \"#utility.yul\":7599:7600   */\n      dup1\n        /* \"#utility.yul\":7592:7604   */\n      revert\n        /* \"#utility.yul\":7546:7606   */\n    tag_363:\n        /* \"#utility.yul\":7625:7630   */\n      dup1\n        /* \"#utility.yul\":7615:7630   */\n      swap2\n      pop\n      pop\n        /* \"#utility.yul\":7289:7636   */\n      swap3\n      pop\n      swap3\n      swap1\n      pop\n      jump\t// out\n        /* \"#utility.yul\":7641:7901   */\n    tag_60:\n        /* \"#utility.yul\":7709:7715   */\n      0x00\n        /* \"#utility.yul\":7717:7723   */\n      dup1\n        /* \"#utility.yul\":7770:7772   */\n      0x40\n        /* \"#utility.yul\":7758:7767   */\n      dup4\n        /* \"#utility.yul\":7749:7756   */\n      dup6\n        /* \"#utility.yul\":7745:7768   */\n      sub\n        /* \"#utility.yul\":7741:7773   */\n      slt\n        /* \"#utility.yul\":7738:7790   */\n      iszero\n      tag_365\n      jumpi\n        /* \"#utility.yul\":7786:7787   */\n      0x00\n        /* \"#utility.yul\":7783:7784   */\n      dup1\n        /* \"#utility.yul\":7776:7788   */\n      revert\n        /* \"#utility.yul\":7738:7790   */\n    tag_365:\n        /* \"#utility.yul\":7809:7838   */\n      tag_366\n        /* \"#utility.yul\":7828:7837   */\n      dup4\n        /* \"#utility.yul\":7809:7838   */\n      tag_276\n      jump\t// in\n    tag_366:\n        /* \"#utility.yul\":7799:7838   */\n      swap2\n      pop\n        /* \"#utility.yul\":7857:7895   */\n      tag_367\n        /* \"#utility.yul\":7891:7893   */\n      0x20\n        /* \"#utility.yul\":7880:7889   */\n      dup5\n        /* \"#utility.yul\":7876:7894   */\n      add\n        /* \"#utility.yul\":7857:7895   */\n      tag_276\n      jump\t// in\n    tag_367:\n        /* \"#utility.yul\":7847:7895   */\n      swap1\n      pop\n        /* \"#utility.yul\":7641:7901   */\n      swap3\n      pop\n      swap3\n      swap1\n      pop\n      jump\t// out\n        /* \"#utility.yul\":7906:8512   */\n    tag_65:\n        /* \"#utility.yul\":8010:8016   */\n      0x00\n        /* \"#utility.yul\":8018:8024   */\n      dup1\n        /* \"#utility.yul\":8026:8032   */\n      0x00\n        /* \"#utility.yul\":8034:8040   */\n      dup1\n        /* \"#utility.yul\":8042:8048   */\n      0x00\n        /* \"#utility.yul\":8095:8098   */\n      0xa0\n        /* \"#utility.yul\":8083:8092   */\n      dup7\n        /* \"#utility.yul\":8074:8081   */\n      dup9\n        /* \"#utility.yul\":8070:8093   */\n      sub\n        /* \"#utility.yul\":8066:8099   */\n      slt\n        /* \"#utility.yul\":8063:8116   */\n      iszero\n      tag_369\n      jumpi\n        /* \"#utility.yul\":8112:8113   */\n      0x00\n        /* \"#utility.yul\":8109:8110   */\n      dup1\n        /* \"#utility.yul\":8102:8114   */\n      revert\n        /* \"#utility.yul\":8063:8116   */\n    tag_369:\n        /* \"#utility.yul\":8135:8164   */\n      tag_370\n        /* \"#utility.yul\":8154:8163   */\n      dup7\n        /* \"#utility.yul\":8135:8164   */\n      tag_276\n      jump\t// in\n    tag_370:\n        /* \"#utility.yul\":8125:8164   */\n      swap5\n      pop\n        /* \"#utility.yul\":8183:8221   */\n      tag_371\n        /* \"#utility.yul\":8217:8219   */\n      0x20\n        /* \"#utility.yul\":8206:8215   */\n      dup8\n        /* \"#utility.yul\":8202:8220   */\n      add\n        /* \"#utility.yul\":8183:8221   */\n      tag_276\n      jump\t// in\n    tag_371:\n        /* \"#utility.yul\":8173:8221   */\n      swap4\n      pop\n        /* \"#utility.yul\":8268:8270   */\n      0x40\n        /* \"#utility.yul\":8257:8266   */\n      dup7\n        /* \"#utility.yul\":8253:8271   */\n      add\n        /* \"#utility.yul\":8240:8272   */\n      calldataload\n        /* \"#utility.yul\":8230:8272   */\n      swap3\n      pop\n        /* \"#utility.yul\":8319:8321   */\n      0x60\n        /* \"#utility.yul\":8308:8317   */\n      dup7\n        /* \"#utility.yul\":8304:8322   */\n      add\n        /* \"#utility.yul\":8291:8323   */\n      calldataload\n        /* \"#utility.yul\":8281:8323   */\n      swap2\n      pop\n        /* \"#utility.yul\":8374:8377   */\n      0x80\n        /* \"#utility.yul\":8363:8372   */\n      dup7\n        /* \"#utility.yul\":8359:8378   */\n      add\n        /* \"#utility.yul\":8346:8379   */\n      calldataload\n        /* \"#utility.yul\":8402:8420   */\n      0xffffffffffffffff\n        /* \"#utility.yul\":8394:8400   */\n      dup2\n        /* \"#utility.yul\":8391:8421   */\n      gt\n        /* \"#utility.yul\":8388:8438   */\n      iszero\n      tag_372\n      jumpi\n        /* \"#utility.yul\":8434:8435   */\n      0x00\n        /* \"#utility.yul\":8431:8432   */\n      dup1\n        /* \"#utility.yul\":8424:8436   */\n      revert\n        /* \"#utility.yul\":8388:8438   */\n    tag_372:\n        /* \"#utility.yul\":8457:8506   */\n      tag_339\n        /* \"#utility.yul\":8498:8505   */\n      dup9\n        /* \"#utility.yul\":8489:8495   */\n      dup3\n        /* \"#utility.yul\":8478:8487   */\n      dup10\n        /* \"#utility.yul\":8474:8496   */\n      add\n        /* \"#utility.yul\":8457:8506   */\n      tag_282\n      jump\t// in\n        /* \"#utility.yul\":8517:8703   */\n    tag_69:\n        /* \"#utility.yul\":8576:8582   */\n      0x00\n        /* \"#utility.yul\":8629:8631   */\n      0x20\n        /* \"#utility.yul\":8617:8626   */\n      dup3\n        /* \"#utility.yul\":8608:8615   */\n      dup5\n        /* \"#utility.yul\":8604:8627   */\n      sub\n        /* \"#utility.yul\":8600:8632   */\n      slt\n        /* \"#utility.yul\":8597:8649   */\n      iszero\n      tag_375\n      jumpi\n        /* \"#utility.yul\":8645:8646   */\n      0x00\n        /* \"#utility.yul\":8642:8643   */\n      dup1\n        /* \"#utility.yul\":8635:8647   */\n      revert\n        /* \"#utility.yul\":8597:8649   */\n    tag_375:\n        /* \"#utility.yul\":8668:8697   */\n      tag_296\n        /* \"#utility.yul\":8687:8696   */\n      dup3\n        /* \"#utility.yul\":8668:8697   */\n      tag_276\n      jump\t// in\n        /* \"#utility.yul\":9119:9499   */\n    tag_82:\n        /* \"#utility.yul\":9198:9199   */\n      0x01\n        /* \"#utility.yul\":9194:9206   */\n      dup2\n      dup2\n      shr\n      swap1\n        /* \"#utility.yul\":9241:9253   */\n      dup3\n      and\n      dup1\n        /* \"#utility.yul\":9262:9323   */\n      tag_379\n      jumpi\n        /* \"#utility.yul\":9316:9320   */\n      0x7f\n        /* \"#utility.yul\":9308:9314   */\n      dup3\n        /* \"#utility.yul\":9304:9321   */\n      and\n        /* \"#utility.yul\":9294:9321   */\n      swap2\n      pop\n        /* \"#utility.yul\":9262:9323   */\n    tag_379:\n        /* \"#utility.yul\":9369:9371   */\n      0x20\n        /* \"#utility.yul\":9361:9367   */\n      dup3\n        /* \"#utility.yul\":9358:9372   */\n      lt\n        /* \"#utility.yul\":9338:9356   */\n      dup2\n        /* \"#utility.yul\":9335:9373   */\n      sub\n        /* \"#utility.yul\":9332:9493   */\n      tag_380\n      jumpi\n        /* \"#utility.yul\":9415:9425   */\n      0x4e487b71\n        /* \"#utility.yul\":9410:9413   */\n      0xe0\n        /* \"#utility.yul\":9406:9426   */\n      shl\n        /* \"#utility.yul\":9403:9404   */\n      0x00\n        /* \"#utility.yul\":9396:9427   */\n      mstore\n        /* \"#utility.yul\":9450:9454   */\n      0x22\n        /* \"#utility.yul\":9447:9448   */\n      0x04\n        /* \"#utility.yul\":9440:9455   */\n      mstore\n        /* \"#utility.yul\":9478:9482   */\n      0x24\n        /* \"#utility.yul\":9475:9476   */\n      0x00\n        /* \"#utility.yul\":9468:9483   */\n      revert\n        /* \"#utility.yul\":9332:9493   */\n    tag_380:\n      pop\n        /* \"#utility.yul\":9119:9499   */\n      swap2\n      swap1\n      pop\n      jump\t// out\n        /* \"#utility.yul\":9504:9915   */\n    tag_101:\n        /* \"#utility.yul\":9706:9708   */\n      0x20\n        /* \"#utility.yul\":9688:9709   */\n      dup1\n      dup3\n      mstore\n        /* \"#utility.yul\":9745:9747   */\n      0x2f\n        /* \"#utility.yul\":9725:9743   */\n      swap1\n      dup3\n      add\n        /* \"#utility.yul\":9718:9748   */\n      mstore\n        /* \"#utility.yul\":9784:9818   */\n      0x455243313135353a2063616c6c6572206973206e6f7420746f6b656e206f776e\n        /* \"#utility.yul\":9779:9781   */\n      0x40\n        /* \"#utility.yul\":9764:9782   */\n      dup3\n      add\n        /* \"#utility.yul\":9757:9819   */\n      mstore\n      shl(0x8a, 0x195c881b9bdc88185c1c1c9bdd9959)\n        /* \"#utility.yul\":9850:9852   */\n      0x60\n        /* \"#utility.yul\":9835:9853   */\n      dup3\n      add\n        /* \"#utility.yul\":9828:9873   */\n      mstore\n        /* \"#utility.yul\":9905:9908   */\n      0x80\n        /* \"#utility.yul\":9890:9909   */\n      add\n      swap1\n        /* \"#utility.yul\":9504:9915   */\n      jump\t// out\n        /* \"#utility.yul\":10330:10457   */\n    tag_118:\n        /* \"#utility.yul\":10391:10401   */\n      0x4e487b71\n        /* \"#utility.yul\":10386:10389   */\n      0xe0\n        /* \"#utility.yul\":10382:10402   */\n      shl\n        /* \"#utility.yul\":10379:10380   */\n      0x00\n        /* \"#utility.yul\":10372:10403   */\n      mstore\n        /* \"#utility.yul\":10422:10426   */\n      0x32\n        /* \"#utility.yul\":10419:10420   */\n      0x04\n        /* \"#utility.yul\":10412:10427   */\n      mstore\n        /* \"#utility.yul\":10446:10450   */\n      0x24\n        /* \"#utility.yul\":10443:10444   */\n      0x00\n        /* \"#utility.yul\":10436:10451   */\n      revert\n        /* \"#utility.yul\":10462:10589   */\n    tag_284:\n        /* \"#utility.yul\":10523:10533   */\n      0x4e487b71\n        /* \"#utility.yul\":10518:10521   */\n      0xe0\n        /* \"#utility.yul\":10514:10534   */\n      shl\n        /* \"#utility.yul\":10511:10512   */\n      0x00\n        /* \"#utility.yul\":10504:10535   */\n      mstore\n        /* \"#utility.yul\":10554:10558   */\n      0x11\n        /* \"#utility.yul\":10551:10552   */\n      0x04\n        /* \"#utility.yul\":10544:10559   */\n      mstore\n        /* \"#utility.yul\":10578:10582   */\n      0x24\n        /* \"#utility.yul\":10575:10576   */\n      0x00\n        /* \"#utility.yul\":10568:10583   */\n      revert\n        /* \"#utility.yul\":10594:10729   */\n    tag_124:\n        /* \"#utility.yul\":10633:10636   */\n      0x00\n        /* \"#utility.yul\":10654:10671   */\n      0x01\n      dup3\n      add\n        /* \"#utility.yul\":10651:10694   */\n      tag_387\n      jumpi\n        /* \"#utility.yul\":10674:10692   */\n      tag_387\n      tag_284\n      jump\t// in\n    tag_387:\n      pop\n        /* \"#utility.yul\":10721:10722   */\n      0x01\n        /* \"#utility.yul\":10710:10723   */\n      add\n      swap1\n        /* \"#utility.yul\":10594:10729   */\n      jump\t// out\n        /* \"#utility.yul\":11904:12032   */\n    tag_170:\n        /* \"#utility.yul\":11944:11947   */\n      0x00\n        /* \"#utility.yul\":11975:11976   */\n      dup3\n        /* \"#utility.yul\":11971:11977   */\n      not\n        /* \"#utility.yul\":11968:11969   */\n      dup3\n        /* \"#utility.yul\":11965:11978   */\n      gt\n        /* \"#utility.yul\":11962:12001   */\n      iszero\n      tag_393\n      jumpi\n        /* \"#utility.yul\":11981:11999   */\n      tag_393\n      tag_284\n      jump\t// in\n    tag_393:\n      pop\n        /* \"#utility.yul\":12017:12026   */\n      add\n      swap1\n        /* \"#utility.yul\":11904:12032   */\n      jump\t// out\n        /* \"#utility.yul\":12699:13100   */\n    tag_184:\n        /* \"#utility.yul\":12901:12903   */\n      0x20\n        /* \"#utility.yul\":12883:12904   */\n      dup1\n      dup3\n      mstore\n        /* \"#utility.yul\":12940:12942   */\n      0x25\n        /* \"#utility.yul\":12920:12938   */\n      swap1\n      dup3\n      add\n        /* \"#utility.yul\":12913:12943   */\n      mstore\n        /* \"#utility.yul\":12979:13013   */\n      0x455243313135353a207472616e7366657220746f20746865207a65726f206164\n        /* \"#utility.yul\":12974:12976   */\n      0x40\n        /* \"#utility.yul\":12959:12977   */\n      dup3\n      add\n        /* \"#utility.yul\":12952:13014   */\n      mstore\n      shl(0xd8, 0x6472657373)\n        /* \"#utility.yul\":13045:13047   */\n      0x60\n        /* \"#utility.yul\":13030:13048   */\n      dup3\n      add\n        /* \"#utility.yul\":13023:13058   */\n      mstore\n        /* \"#utility.yul\":13090:13093   */\n      0x80\n        /* \"#utility.yul\":13075:13094   */\n      add\n      swap1\n        /* \"#utility.yul\":12699:13100   */\n      jump\t// out\n        /* \"#utility.yul\":13105:13511   */\n    tag_196:\n        /* \"#utility.yul\":13307:13309   */\n      0x20\n        /* \"#utility.yul\":13289:13310   */\n      dup1\n      dup3\n      mstore\n        /* \"#utility.yul\":13346:13348   */\n      0x2a\n        /* \"#utility.yul\":13326:13344   */\n      swap1\n      dup3\n      add\n        /* \"#utility.yul\":13319:13349   */\n      mstore\n        /* \"#utility.yul\":13385:13419   */\n      0x455243313135353a20696e73756666696369656e742062616c616e636520666f\n        /* \"#utility.yul\":13380:13382   */\n      0x40\n        /* \"#utility.yul\":13365:13383   */\n      dup3\n      add\n        /* \"#utility.yul\":13358:13420   */\n      mstore\n      shl(0xb1, 0x39103a3930b739b332b9)\n        /* \"#utility.yul\":13451:13453   */\n      0x60\n        /* \"#utility.yul\":13436:13454   */\n      dup3\n      add\n        /* \"#utility.yul\":13429:13469   */\n      mstore\n        /* \"#utility.yul\":13501:13504   */\n      0x80\n        /* \"#utility.yul\":13486:13505   */\n      add\n      swap1\n        /* \"#utility.yul\":13105:13511   */\n      jump\t// out\n        /* \"#utility.yul\":13516:13981   */\n    tag_200:\n        /* \"#utility.yul\":13773:13775   */\n      0x40\n        /* \"#utility.yul\":13762:13771   */\n      dup2\n        /* \"#utility.yul\":13755:13776   */\n      mstore\n        /* \"#utility.yul\":13736:13740   */\n      0x00\n        /* \"#utility.yul\":13799:13855   */\n      tag_399\n        /* \"#utility.yul\":13851:13853   */\n      0x40\n        /* \"#utility.yul\":13840:13849   */\n      dup4\n        /* \"#utility.yul\":13836:13854   */\n      add\n        /* \"#utility.yul\":13828:13834   */\n      dup6\n        /* \"#utility.yul\":13799:13855   */\n      tag_283\n      jump\t// in\n    tag_399:\n        /* \"#utility.yul\":13903:13912   */\n      dup3\n        /* \"#utility.yul\":13895:13901   */\n      dup2\n        /* \"#utility.yul\":13891:13913   */\n      sub\n        /* \"#utility.yul\":13886:13888   */\n      0x20\n        /* \"#utility.yul\":13875:13884   */\n      dup5\n        /* \"#utility.yul\":13871:13889   */\n      add\n        /* \"#utility.yul\":13864:13914   */\n      mstore\n        /* \"#utility.yul\":13931:13975   */\n      tag_400\n        /* \"#utility.yul\":13968:13974   */\n      dup2\n        /* \"#utility.yul\":13960:13966   */\n      dup6\n        /* \"#utility.yul\":13931:13975   */\n      tag_283\n      jump\t// in\n    tag_400:\n        /* \"#utility.yul\":13923:13975   */\n      swap6\n        /* \"#utility.yul\":13516:13981   */\n      swap5\n      pop\n      pop\n      pop\n      pop\n      pop\n      jump\t// out\n        /* \"#utility.yul\":14396:14957   */\n    tag_236:\n      sub(shl(0xa0, 0x01), 0x01)\n        /* \"#utility.yul\":14693:14708   */\n      dup7\n      dup2\n      and\n        /* \"#utility.yul\":14675:14709   */\n      dup3\n      mstore\n        /* \"#utility.yul\":14745:14760   */\n      dup6\n      and\n        /* \"#utility.yul\":14740:14742   */\n      0x20\n        /* \"#utility.yul\":14725:14743   */\n      dup3\n      add\n        /* \"#utility.yul\":14718:14761   */\n      mstore\n        /* \"#utility.yul\":14792:14794   */\n      0x40\n        /* \"#utility.yul\":14777:14795   */\n      dup2\n      add\n        /* \"#utility.yul\":14770:14804   */\n      dup5\n      swap1\n      mstore\n        /* \"#utility.yul\":14835:14837   */\n      0x60\n        /* \"#utility.yul\":14820:14838   */\n      dup2\n      add\n        /* \"#utility.yul\":14813:14847   */\n      dup4\n      swap1\n      mstore\n        /* \"#utility.yul\":14655:14658   */\n      0xa0\n        /* \"#utility.yul\":14878:14881   */\n      0x80\n        /* \"#utility.yul\":14863:14882   */\n      dup3\n      add\n        /* \"#utility.yul\":14856:14888   */\n      dup2\n      swap1\n      mstore\n        /* \"#utility.yul\":14618:14622   */\n      0x00\n      swap1\n        /* \"#utility.yul\":14905:14951   */\n      tag_403\n      swap1\n        /* \"#utility.yul\":14931:14950   */\n      dup4\n      add\n        /* \"#utility.yul\":14923:14929   */\n      dup5\n        /* \"#utility.yul\":14905:14951   */\n      tag_278\n      jump\t// in\n    tag_403:\n        /* \"#utility.yul\":14897:14951   */\n      swap8\n        /* \"#utility.yul\":14396:14957   */\n      swap7\n      pop\n      pop\n      pop\n      pop\n      pop\n      pop\n      pop\n      jump\t// out\n        /* \"#utility.yul\":14962:15211   */\n    tag_239:\n        /* \"#utility.yul\":15031:15037   */\n      0x00\n        /* \"#utility.yul\":15084:15086   */\n      0x20\n        /* \"#utility.yul\":15072:15081   */\n      dup3\n        /* \"#utility.yul\":15063:15070   */\n      dup5\n        /* \"#utility.yul\":15059:15082   */\n      sub\n        /* \"#utility.yul\":15055:15087   */\n      slt\n        /* \"#utility.yul\":15052:15104   */\n      iszero\n      tag_405\n      jumpi\n        /* \"#utility.yul\":15100:15101   */\n      0x00\n        /* \"#utility.yul\":15097:15098   */\n      dup1\n        /* \"#utility.yul\":15090:15102   */\n      revert\n        /* \"#utility.yul\":15052:15104   */\n    tag_405:\n        /* \"#utility.yul\":15132:15141   */\n      dup2\n        /* \"#utility.yul\":15126:15142   */\n      mload\n        /* \"#utility.yul\":15151:15181   */\n      tag_296\n        /* \"#utility.yul\":15175:15180   */\n      dup2\n        /* \"#utility.yul\":15151:15181   */\n      tag_277\n      jump\t// in\n        /* \"#utility.yul\":15216:15395   */\n    tag_245:\n        /* \"#utility.yul\":15251:15254   */\n      0x00\n        /* \"#utility.yul\":15293:15294   */\n      0x03\n        /* \"#utility.yul\":15275:15291   */\n      returndatasize\n        /* \"#utility.yul\":15272:15295   */\n      gt\n        /* \"#utility.yul\":15269:15389   */\n      iszero\n      tag_408\n      jumpi\n        /* \"#utility.yul\":15339:15340   */\n      0x04\n        /* \"#utility.yul\":15336:15337   */\n      0x00\n        /* \"#utility.yul\":15333:15334   */\n      dup1\n        /* \"#utility.yul\":15318:15341   */\n      returndatacopy\n      pop\n        /* \"#utility.yul\":15376:15377   */\n      0x00\n        /* \"#utility.yul\":15370:15378   */\n      mload\n        /* \"#utility.yul\":15365:15368   */\n      0xe0\n        /* \"#utility.yul\":15361:15379   */\n      shr\n        /* \"#utility.yul\":15269:15389   */\n    tag_408:\n        /* \"#utility.yul\":15216:15395   */\n      swap1\n      jump\t// out\n        /* \"#utility.yul\":15400:16071   */\n    tag_247:\n        /* \"#utility.yul\":15439:15442   */\n      0x00\n        /* \"#utility.yul\":15481:15485   */\n      0x44\n        /* \"#utility.yul\":15463:15479   */\n      returndatasize\n        /* \"#utility.yul\":15460:15486   */\n      lt\n        /* \"#utility.yul\":15457:15496   */\n      iszero\n      tag_410\n      jumpi\n        /* \"#utility.yul\":15400:16071   */\n      swap1\n      jump\t// out\n        /* \"#utility.yul\":15457:15496   */\n    tag_410:\n        /* \"#utility.yul\":15523:15525   */\n      0x40\n        /* \"#utility.yul\":15517:15526   */\n      mload\n      not(0x03)\n        /* \"#utility.yul\":15588:15604   */\n      returndatasize\n        /* \"#utility.yul\":15584:15609   */\n      dup2\n      add\n        /* \"#utility.yul\":15581:15582   */\n      0x04\n        /* \"#utility.yul\":15517:15526   */\n      dup4\n        /* \"#utility.yul\":15560:15610   */\n      returndatacopy\n        /* \"#utility.yul\":15639:15643   */\n      dup2\n        /* \"#utility.yul\":15633:15644   */\n      mload\n        /* \"#utility.yul\":15663:15679   */\n      returndatasize\n        /* \"#utility.yul\":15698:15716   */\n      0xffffffffffffffff\n        /* \"#utility.yul\":15769:15771   */\n      dup2\n        /* \"#utility.yul\":15762:15766   */\n      0x24\n        /* \"#utility.yul\":15754:15760   */\n      dup5\n        /* \"#utility.yul\":15750:15767   */\n      add\n        /* \"#utility.yul\":15747:15772   */\n      gt\n        /* \"#utility.yul\":15742:15744   */\n      dup2\n        /* \"#utility.yul\":15734:15740   */\n      dup5\n        /* \"#utility.yul\":15731:15745   */\n      gt\n        /* \"#utility.yul\":15728:15773   */\n      or\n        /* \"#utility.yul\":15725:15783   */\n      iszero\n      tag_411\n      jumpi\n        /* \"#utility.yul\":15776:15781   */\n      pop\n      pop\n      pop\n      pop\n      pop\n        /* \"#utility.yul\":15400:16071   */\n      swap1\n      jump\t// out\n        /* \"#utility.yul\":15725:15783   */\n    tag_411:\n        /* \"#utility.yul\":15813:15819   */\n      dup3\n        /* \"#utility.yul\":15807:15811   */\n      dup6\n        /* \"#utility.yul\":15803:15820   */\n      add\n        /* \"#utility.yul\":15792:15820   */\n      swap2\n      pop\n        /* \"#utility.yul\":15849:15852   */\n      dup2\n        /* \"#utility.yul\":15843:15853   */\n      mload\n        /* \"#utility.yul\":15876:15878   */\n      dup2\n        /* \"#utility.yul\":15868:15874   */\n      dup2\n        /* \"#utility.yul\":15865:15879   */\n      gt\n        /* \"#utility.yul\":15862:15889   */\n      iszero\n      tag_412\n      jumpi\n        /* \"#utility.yul\":15882:15887   */\n      pop\n      pop\n      pop\n      pop\n      pop\n      pop\n        /* \"#utility.yul\":15400:16071   */\n      swap1\n      jump\t// out\n        /* \"#utility.yul\":15862:15889   */\n    tag_412:\n        /* \"#utility.yul\":15966:15968   */\n      dup5\n        /* \"#utility.yul\":15947:15963   */\n      returndatasize\n        /* \"#utility.yul\":15941:15945   */\n      dup8\n        /* \"#utility.yul\":15937:15964   */\n      add\n        /* \"#utility.yul\":15933:15969   */\n      add\n        /* \"#utility.yul\":15926:15930   */\n      0x20\n        /* \"#utility.yul\":15917:15923   */\n      dup3\n        /* \"#utility.yul\":15912:15915   */\n      dup6\n        /* \"#utility.yul\":15908:15924   */\n      add\n        /* \"#utility.yul\":15904:15931   */\n      add\n        /* \"#utility.yul\":15901:15970   */\n      gt\n        /* \"#utility.yul\":15898:15980   */\n      iszero\n      tag_413\n      jumpi\n        /* \"#utility.yul\":15973:15978   */\n      pop\n      pop\n      pop\n      pop\n      pop\n      pop\n        /* \"#utility.yul\":15400:16071   */\n      swap1\n      jump\t// out\n        /* \"#utility.yul\":15898:15980   */\n    tag_413:\n        /* \"#utility.yul\":15989:16046   */\n      tag_414\n        /* \"#utility.yul\":16040:16044   */\n      0x20\n        /* \"#utility.yul\":16031:16037   */\n      dup3\n        /* \"#utility.yul\":16023:16029   */\n      dup7\n        /* \"#utility.yul\":16019:16038   */\n      add\n        /* \"#utility.yul\":16015:16045   */\n      add\n        /* \"#utility.yul\":16009:16013   */\n      dup8\n        /* \"#utility.yul\":15989:16046   */\n      tag_279\n      jump\t// in\n    tag_414:\n      pop\n        /* \"#utility.yul\":16062:16065   */\n      swap1\n      swap6\n        /* \"#utility.yul\":15400:16071   */\n      swap5\n      pop\n      pop\n      pop\n      pop\n      pop\n      jump\t// out\n        /* \"#utility.yul\":16497:16901   */\n    tag_255:\n        /* \"#utility.yul\":16699:16701   */\n      0x20\n        /* \"#utility.yul\":16681:16702   */\n      dup1\n      dup3\n      mstore\n        /* \"#utility.yul\":16738:16740   */\n      0x28\n        /* \"#utility.yul\":16718:16736   */\n      swap1\n      dup3\n      add\n        /* \"#utility.yul\":16711:16741   */\n      mstore\n        /* \"#utility.yul\":16777:16811   */\n      0x455243313135353a204552433131353552656365697665722072656a65637465\n        /* \"#utility.yul\":16772:16774   */\n      0x40\n        /* \"#utility.yul\":16757:16775   */\n      dup3\n      add\n        /* \"#utility.yul\":16750:16812   */\n      mstore\n      shl(0xc0, 0x6420746f6b656e73)\n        /* \"#utility.yul\":16843:16845   */\n      0x60\n        /* \"#utility.yul\":16828:16846   */\n      dup3\n      add\n        /* \"#utility.yul\":16821:16859   */\n      mstore\n        /* \"#utility.yul\":16891:16894   */\n      0x80\n        /* \"#utility.yul\":16876:16895   */\n      add\n      swap1\n        /* \"#utility.yul\":16497:16901   */\n      jump\t// out\n        /* \"#utility.yul\":16906:17733   */\n    tag_260:\n      sub(shl(0xa0, 0x01), 0x01)\n        /* \"#utility.yul\":17303:17318   */\n      dup7\n      dup2\n      and\n        /* \"#utility.yul\":17285:17319   */\n      dup3\n      mstore\n        /* \"#utility.yul\":17355:17370   */\n      dup6\n      and\n        /* \"#utility.yul\":17350:17352   */\n      0x20\n        /* \"#utility.yul\":17335:17353   */\n      dup3\n      add\n        /* \"#utility.yul\":17328:17371   */\n      mstore\n        /* \"#utility.yul\":17265:17268   */\n      0xa0\n        /* \"#utility.yul\":17402:17404   */\n      0x40\n        /* \"#utility.yul\":17387:17405   */\n      dup3\n      add\n        /* \"#utility.yul\":17380:17411   */\n      dup2\n      swap1\n      mstore\n        /* \"#utility.yul\":17228:17232   */\n      0x00\n      swap1\n        /* \"#utility.yul\":17434:17491   */\n      tag_418\n      swap1\n        /* \"#utility.yul\":17471:17490   */\n      dup4\n      add\n        /* \"#utility.yul\":17463:17469   */\n      dup7\n        /* \"#utility.yul\":17434:17491   */\n      tag_283\n      jump\t// in\n    tag_418:\n        /* \"#utility.yul\":17539:17548   */\n      dup3\n        /* \"#utility.yul\":17531:17537   */\n      dup2\n        /* \"#utility.yul\":17527:17549   */\n      sub\n        /* \"#utility.yul\":17522:17524   */\n      0x60\n        /* \"#utility.yul\":17511:17520   */\n      dup5\n        /* \"#utility.yul\":17507:17525   */\n      add\n        /* \"#utility.yul\":17500:17550   */\n      mstore\n        /* \"#utility.yul\":17573:17617   */\n      tag_419\n        /* \"#utility.yul\":17610:17616   */\n      dup2\n        /* \"#utility.yul\":17602:17608   */\n      dup7\n        /* \"#utility.yul\":17573:17617   */\n      tag_283\n      jump\t// in\n    tag_419:\n        /* \"#utility.yul\":17559:17617   */\n      swap1\n      pop\n        /* \"#utility.yul\":17666:17675   */\n      dup3\n        /* \"#utility.yul\":17658:17664   */\n      dup2\n        /* \"#utility.yul\":17654:17676   */\n      sub\n        /* \"#utility.yul\":17648:17651   */\n      0x80\n        /* \"#utility.yul\":17637:17646   */\n      dup5\n        /* \"#utility.yul\":17633:17652   */\n      add\n        /* \"#utility.yul\":17626:17677   */\n      mstore\n        /* \"#utility.yul\":17694:17727   */\n      tag_420\n        /* \"#utility.yul\":17720:17726   */\n      dup2\n        /* \"#utility.yul\":17712:17718   */\n      dup6\n        /* \"#utility.yul\":17694:17727   */\n      tag_278\n      jump\t// in\n    tag_420:\n        /* \"#utility.yul\":17686:17727   */\n      swap9\n        /* \"#utility.yul\":16906:17733   */\n      swap8\n      pop\n      pop\n      pop\n      pop\n      pop\n      pop\n      pop\n      pop\n      jump\t// out\n\n    auxdata: 0xa2646970667358221220b2a6533bb8ee4f7aa34cd8e425bd74781f12c578060f4e75ff8eda8027d55cbd64736f6c634300080f0033\n}\n",
				"bytecode": {
					"linkReferences": {},
					"object": "60806040523480156200001157600080fd5b506040805160208101909152600081526200002c816200003e565b50620000383362000050565b62000213565b60026200004c828262000147565b5050565b600380546001600160a01b038381166001600160a01b0319831681179093556040519116919082907f8be0079c531659141344cd1fd0a4f28419497f9722a3daafe3b4186f6b6457e090600090a35050565b634e487b7160e01b600052604160045260246000fd5b600181811c90821680620000cd57607f821691505b602082108103620000ee57634e487b7160e01b600052602260045260246000fd5b50919050565b601f8211156200014257600081815260208120601f850160051c810160208610156200011d5750805b601f850160051c820191505b818110156200013e5782815560010162000129565b5050505b505050565b81516001600160401b03811115620001635762000163620000a2565b6200017b81620001748454620000b8565b84620000f4565b602080601f831160018114620001b357600084156200019a5750858301515b600019600386901b1c1916600185901b1785556200013e565b600085815260208120601f198616915b82811015620001e457888601518255948401946001909101908401620001c3565b5085821015620002035787850151600019600388901b60f8161c191681555b5050505050600190811b01905550565b61169f80620002236000396000f3fe608060405234801561001057600080fd5b50600436106100b35760003560e01c8063715018a611610071578063715018a6146101695780638da5cb5b14610171578063a22cb4651461018c578063e985e9c51461019f578063f242432a146101db578063f2fde38b146101ee57600080fd5b8062fdd58e146100b857806301ffc9a7146100de5780630e89341c146101015780631b2ef1ca146101215780632eb2c2d6146101365780634e1273f414610149575b600080fd5b6100cb6100c6366004610e1b565b610201565b6040519081526020015b60405180910390f35b6100f16100ec366004610e5b565b610297565b60405190151581526020016100d5565b61011461010f366004610e7f565b6102e9565b6040516100d59190610ee5565b61013461012f366004610ef8565b61037d565b005b610134610144366004611066565b6103a4565b61015c610157366004611110565b6103f0565b6040516100d59190611216565b61013461051a565b6003546040516001600160a01b0390911681526020016100d5565b61013461019a366004611229565b61052e565b6100f16101ad366004611265565b6001600160a01b03918216600090815260016020908152604080832093909416825291909152205460ff1690565b6101346101e9366004611298565b610539565b6101346101fc3660046112fd565b61057e565b60006001600160a01b0383166102715760405162461bcd60e51b815260206004820152602a60248201527f455243313135353a2061646472657373207a65726f206973206e6f742061207660448201526930b634b21037bbb732b960b11b60648201526084015b60405180910390fd5b506000908152602081815260408083206001600160a01b03949094168352929052205490565b60006001600160e01b03198216636cdb3d1360e11b14806102c857506001600160e01b031982166303a24d0760e21b145b806102e357506301ffc9a760e01b6001600160e01b03198316145b92915050565b6060600280546102f890611318565b80601f016020809104026020016040519081016040528092919081815260200182805461032490611318565b80156103715780601f1061034657610100808354040283529160200191610371565b820191906000526020600020905b81548152906001019060200180831161035457829003601f168201915b50505050509050919050565b6103856105f7565b6103a033838360405180602001604052806000815250610651565b5050565b6001600160a01b0385163314806103c057506103c085336101ad565b6103dc5760405162461bcd60e51b815260040161026890611352565b6103e98585858585610765565b5050505050565b606081518351146104555760405162461bcd60e51b815260206004820152602960248201527f455243313135353a206163636f756e747320616e6420696473206c656e677468604482015268040dad2e6dac2e8c6d60bb1b6064820152608401610268565b6000835167ffffffffffffffff81111561047157610471610f1a565b60405190808252806020026020018201604052801561049a578160200160208202803683370190505b50905060005b8451811015610512576104e58582815181106104be576104be6113a1565b60200260200101518583815181106104d8576104d86113a1565b6020026020010151610201565b8282815181106104f7576104f76113a1565b602090810291909101015261050b816113cd565b90506104a0565b509392505050565b6105226105f7565b61052c6000610942565b565b6103a0338383610994565b6001600160a01b038516331480610555575061055585336101ad565b6105715760405162461bcd60e51b815260040161026890611352565b6103e98585858585610a74565b6105866105f7565b6001600160a01b0381166105eb5760405162461bcd60e51b815260206004820152602660248201527f4f776e61626c653a206e6577206f776e657220697320746865207a65726f206160448201526564647265737360d01b6064820152608401610268565b6105f481610942565b50565b6003546001600160a01b0316331461052c5760405162461bcd60e51b815260206004820181905260248201527f4f776e61626c653a2063616c6c6572206973206e6f7420746865206f776e65726044820152606401610268565b6001600160a01b0384166106b15760405162461bcd60e51b815260206004820152602160248201527f455243313135353a206d696e7420746f20746865207a65726f206164647265736044820152607360f81b6064820152608401610268565b3360006106bd85610b9e565b905060006106ca85610b9e565b90506000868152602081815260408083206001600160a01b038b168452909152812080548792906106fc9084906113e6565b909155505060408051878152602081018790526001600160a01b03808a1692600092918716917fc3d58168c5ae7397731d063d5bbf3d657854427343f4c083240f7aacaa2d0f62910160405180910390a461075c83600089898989610be9565b50505050505050565b81518351146107c75760405162461bcd60e51b815260206004820152602860248201527f455243313135353a2069647320616e6420616d6f756e7473206c656e677468206044820152670dad2e6dac2e8c6d60c31b6064820152608401610268565b6001600160a01b0384166107ed5760405162461bcd60e51b8152600401610268906113fe565b3360005b84518110156108d457600085828151811061080e5761080e6113a1565b60200260200101519050600085838151811061082c5761082c6113a1565b602090810291909101810151600084815280835260408082206001600160a01b038e16835290935291909120549091508181101561087c5760405162461bcd60e51b815260040161026890611443565b6000838152602081815260408083206001600160a01b038e8116855292528083208585039055908b168252812080548492906108b99084906113e6565b92505081905550505050806108cd906113cd565b90506107f1565b50846001600160a01b0316866001600160a01b0316826001600160a01b03167f4a39dc06d4c0dbc64b70af90fd698a233a518aa5d07e595d983b8c0526c8f7fb878760405161092492919061148d565b60405180910390a461093a818787878787610d44565b505050505050565b600380546001600160a01b038381166001600160a01b0319831681179093556040519116919082907f8be0079c531659141344cd1fd0a4f28419497f9722a3daafe3b4186f6b6457e090600090a35050565b816001600160a01b0316836001600160a01b031603610a075760405162461bcd60e51b815260206004820152602960248201527f455243313135353a2073657474696e6720617070726f76616c20737461747573604482015268103337b91039b2b63360b91b6064820152608401610268565b6001600160a01b03838116600081815260016020908152604080832094871680845294825291829020805460ff191686151590811790915591519182527f17307eab39ab6107e8899845ad3d59bd9653f200f220920489ca2b5937696c31910160405180910390a3505050565b6001600160a01b038416610a9a5760405162461bcd60e51b8152600401610268906113fe565b336000610aa685610b9e565b90506000610ab385610b9e565b90506000868152602081815260408083206001600160a01b038c16845290915290205485811015610af65760405162461bcd60e51b815260040161026890611443565b6000878152602081815260408083206001600160a01b038d8116855292528083208985039055908a16825281208054889290610b339084906113e6565b909155505060408051888152602081018890526001600160a01b03808b16928c821692918816917fc3d58168c5ae7397731d063d5bbf3d657854427343f4c083240f7aacaa2d0f62910160405180910390a4610b93848a8a8a8a8a610be9565b505050505050505050565b60408051600180825281830190925260609160009190602080830190803683370190505090508281600081518110610bd857610bd86113a1565b602090810291909101015292915050565b6001600160a01b0384163b1561093a5760405163f23a6e6160e01b81526001600160a01b0385169063f23a6e6190610c2d90899089908890889088906004016114bb565b6020604051808303816000875af1925050508015610c68575060408051601f3d908101601f19168201909252610c6591810190611500565b60015b610d1457610c7461151d565b806308c379a003610cad5750610c88611539565b80610c935750610caf565b8060405162461bcd60e51b81526004016102689190610ee5565b505b60405162461bcd60e51b815260206004820152603460248201527f455243313135353a207472616e7366657220746f206e6f6e20455243313135356044820152732932b1b2b4bb32b91034b6b83632b6b2b73a32b960611b6064820152608401610268565b6001600160e01b0319811663f23a6e6160e01b1461075c5760405162461bcd60e51b8152600401610268906115c3565b6001600160a01b0384163b1561093a5760405163bc197c8160e01b81526001600160a01b0385169063bc197c8190610d88908990899088908890889060040161160b565b6020604051808303816000875af1925050508015610dc3575060408051601f3d908101601f19168201909252610dc091810190611500565b60015b610dcf57610c7461151d565b6001600160e01b0319811663bc197c8160e01b1461075c5760405162461bcd60e51b8152600401610268906115c3565b80356001600160a01b0381168114610e1657600080fd5b919050565b60008060408385031215610e2e57600080fd5b610e3783610dff565b946020939093013593505050565b6001600160e01b0319811681146105f457600080fd5b600060208284031215610e6d57600080fd5b8135610e7881610e45565b9392505050565b600060208284031215610e9157600080fd5b5035919050565b6000815180845260005b81811015610ebe57602081850181015186830182015201610ea2565b81811115610ed0576000602083870101525b50601f01601f19169290920160200192915050565b602081526000610e786020830184610e98565b60008060408385031215610f0b57600080fd5b50508035926020909101359150565b634e487b7160e01b600052604160045260246000fd5b601f8201601f1916810167ffffffffffffffff81118282101715610f5657610f56610f1a565b6040525050565b600067ffffffffffffffff821115610f7757610f77610f1a565b5060051b60200190565b600082601f830112610f9257600080fd5b81356020610f9f82610f5d565b604051610fac8282610f30565b83815260059390931b8501820192828101915086841115610fcc57600080fd5b8286015b84811015610fe75780358352918301918301610fd0565b509695505050505050565b600082601f83011261100357600080fd5b813567ffffffffffffffff81111561101d5761101d610f1a565b604051611034601f8301601f191660200182610f30565b81815284602083860101111561104957600080fd5b816020850160208301376000918101602001919091529392505050565b600080600080600060a0868803121561107e57600080fd5b61108786610dff565b945061109560208701610dff565b9350604086013567ffffffffffffffff808211156110b257600080fd5b6110be89838a01610f81565b945060608801359150808211156110d457600080fd5b6110e089838a01610f81565b935060808801359150808211156110f657600080fd5b5061110388828901610ff2565b9150509295509295909350565b6000806040838503121561112357600080fd5b823567ffffffffffffffff8082111561113b57600080fd5b818501915085601f83011261114f57600080fd5b8135602061115c82610f5d565b6040516111698282610f30565b83815260059390931b850182019282810191508984111561118957600080fd5b948201945b838610156111ae5761119f86610dff565b8252948201949082019061118e565b965050860135925050808211156111c457600080fd5b506111d185828601610f81565b9150509250929050565b600081518084526020808501945080840160005b8381101561120b578151875295820195908201906001016111ef565b509495945050505050565b602081526000610e7860208301846111db565b6000806040838503121561123c57600080fd5b61124583610dff565b91506020830135801515811461125a57600080fd5b809150509250929050565b6000806040838503121561127857600080fd5b61128183610dff565b915061128f60208401610dff565b90509250929050565b600080600080600060a086880312156112b057600080fd5b6112b986610dff565b94506112c760208701610dff565b93506040860135925060608601359150608086013567ffffffffffffffff8111156112f157600080fd5b61110388828901610ff2565b60006020828403121561130f57600080fd5b610e7882610dff565b600181811c9082168061132c57607f821691505b60208210810361134c57634e487b7160e01b600052602260045260246000fd5b50919050565b6020808252602f908201527f455243313135353a2063616c6c6572206973206e6f7420746f6b656e206f776e60408201526e195c881b9bdc88185c1c1c9bdd9959608a1b606082015260800190565b634e487b7160e01b600052603260045260246000fd5b634e487b7160e01b600052601160045260246000fd5b6000600182016113df576113df6113b7565b5060010190565b600082198211156113f9576113f96113b7565b500190565b60208082526025908201527f455243313135353a207472616e7366657220746f20746865207a65726f206164604082015264647265737360d81b606082015260800190565b6020808252602a908201527f455243313135353a20696e73756666696369656e742062616c616e636520666f60408201526939103a3930b739b332b960b11b606082015260800190565b6040815260006114a060408301856111db565b82810360208401526114b281856111db565b95945050505050565b6001600160a01b03868116825285166020820152604081018490526060810183905260a0608082018190526000906114f590830184610e98565b979650505050505050565b60006020828403121561151257600080fd5b8151610e7881610e45565b600060033d11156115365760046000803e5060005160e01c5b90565b600060443d10156115475790565b6040516003193d81016004833e81513d67ffffffffffffffff816024840111818411171561157757505050505090565b828501915081518181111561158f5750505050505090565b843d87010160208285010111156115a95750505050505090565b6115b860208286010187610f30565b509095945050505050565b60208082526028908201527f455243313135353a204552433131353552656365697665722072656a656374656040820152676420746f6b656e7360c01b606082015260800190565b6001600160a01b0386811682528516602082015260a060408201819052600090611637908301866111db565b828103606084015261164981866111db565b9050828103608084015261165d8185610e98565b9897505050505050505056fea2646970667358221220b2a6533bb8ee4f7aa34cd8e425bd74781f12c578060f4e75ff8eda8027d55cbd64736f6c634300080f0033",
					"opcodes": "PUSH1 0x80 PUSH1 0x40 MSTORE CALLVALUE DUP1 ISZERO PUSH3 0x11 JUMPI PUSH1 0x0 DUP1 REVERT JUMPDEST POP PUSH1 0x40 DUP1 MLOAD PUSH1 0x20 DUP2 ADD SWAP1 SWAP2 MSTORE PUSH1 0x0 DUP2 MSTORE PUSH3 0x2C DUP2 PUSH3 0x3E JUMP JUMPDEST POP PUSH3 0x38 CALLER PUSH3 0x50 JUMP JUMPDEST PUSH3 0x213 JUMP JUMPDEST PUSH1 0x2 PUSH3 0x4C DUP3 DUP3 PUSH3 0x147 JUMP JUMPDEST POP POP JUMP JUMPDEST PUSH1 0x3 DUP1 SLOAD PUSH1 0x1 PUSH1 0x1 PUSH1 0xA0 SHL SUB DUP4 DUP2 AND PUSH1 0x1 PUSH1 0x1 PUSH1 0xA0 SHL SUB NOT DUP4 AND DUP2 OR SWAP1 SWAP4 SSTORE PUSH1 0x40 MLOAD SWAP2 AND SWAP2 SWAP1 DUP3 SWAP1 PUSH32 0x8BE0079C531659141344CD1FD0A4F28419497F9722A3DAAFE3B4186F6B6457E0 SWAP1 PUSH1 0x0 SWAP1 LOG3 POP POP JUMP JUMPDEST PUSH4 0x4E487B71 PUSH1 0xE0 SHL PUSH1 0x0 MSTORE PUSH1 0x41 PUSH1 0x4 MSTORE PUSH1 0x24 PUSH1 0x0 REVERT JUMPDEST PUSH1 0x1 DUP2 DUP2 SHR SWAP1 DUP3 AND DUP1 PUSH3 0xCD JUMPI PUSH1 0x7F DUP3 AND SWAP2 POP JUMPDEST PUSH1 0x20 DUP3 LT DUP2 SUB PUSH3 0xEE JUMPI PUSH4 0x4E487B71 PUSH1 0xE0 SHL PUSH1 0x0 MSTORE PUSH1 0x22 PUSH1 0x4 MSTORE PUSH1 0x24 PUSH1 0x0 REVERT JUMPDEST POP SWAP2 SWAP1 POP JUMP JUMPDEST PUSH1 0x1F DUP3 GT ISZERO PUSH3 0x142 JUMPI PUSH1 0x0 DUP2 DUP2 MSTORE PUSH1 0x20 DUP2 KECCAK256 PUSH1 0x1F DUP6 ADD PUSH1 0x5 SHR DUP2 ADD PUSH1 0x20 DUP7 LT ISZERO PUSH3 0x11D JUMPI POP DUP1 JUMPDEST PUSH1 0x1F DUP6 ADD PUSH1 0x5 SHR DUP3 ADD SWAP2 POP JUMPDEST DUP2 DUP2 LT ISZERO PUSH3 0x13E JUMPI DUP3 DUP2 SSTORE PUSH1 0x1 ADD PUSH3 0x129 JUMP JUMPDEST POP POP POP JUMPDEST POP POP POP JUMP JUMPDEST DUP2 MLOAD PUSH1 0x1 PUSH1 0x1 PUSH1 0x40 SHL SUB DUP2 GT ISZERO PUSH3 0x163 JUMPI PUSH3 0x163 PUSH3 0xA2 JUMP JUMPDEST PUSH3 0x17B DUP2 PUSH3 0x174 DUP5 SLOAD PUSH3 0xB8 JUMP JUMPDEST DUP5 PUSH3 0xF4 JUMP JUMPDEST PUSH1 0x20 DUP1 PUSH1 0x1F DUP4 GT PUSH1 0x1 DUP2 EQ PUSH3 0x1B3 JUMPI PUSH1 0x0 DUP5 ISZERO PUSH3 0x19A JUMPI POP DUP6 DUP4 ADD MLOAD JUMPDEST PUSH1 0x0 NOT PUSH1 0x3 DUP7 SWAP1 SHL SHR NOT AND PUSH1 0x1 DUP6 SWAP1 SHL OR DUP6 SSTORE PUSH3 0x13E JUMP JUMPDEST PUSH1 0x0 DUP6 DUP2 MSTORE PUSH1 0x20 DUP2 KECCAK256 PUSH1 0x1F NOT DUP7 AND SWAP2 JUMPDEST DUP3 DUP2 LT ISZERO PUSH3 0x1E4 JUMPI DUP9 DUP7 ADD MLOAD DUP3 SSTORE SWAP5 DUP5 ADD SWAP5 PUSH1 0x1 SWAP1 SWAP2 ADD SWAP1 DUP5 ADD PUSH3 0x1C3 JUMP JUMPDEST POP DUP6 DUP3 LT ISZERO PUSH3 0x203 JUMPI DUP8 DUP6 ADD MLOAD PUSH1 0x0 NOT PUSH1 0x3 DUP9 SWAP1 SHL PUSH1 0xF8 AND SHR NOT AND DUP2 SSTORE JUMPDEST POP POP POP POP POP PUSH1 0x1 SWAP1 DUP2 SHL ADD SWAP1 SSTORE POP JUMP JUMPDEST PUSH2 0x169F DUP1 PUSH3 0x223 PUSH1 0x0 CODECOPY PUSH1 0x0 RETURN INVALID PUSH1 0x80 PUSH1 0x40 MSTORE CALLVALUE DUP1 ISZERO PUSH2 0x10 JUMPI PUSH1 0x0 DUP1 REVERT JUMPDEST POP PUSH1 0x4 CALLDATASIZE LT PUSH2 0xB3 JUMPI PUSH1 0x0 CALLDATALOAD PUSH1 0xE0 SHR DUP1 PUSH4 0x715018A6 GT PUSH2 0x71 JUMPI DUP1 PUSH4 0x715018A6 EQ PUSH2 0x169 JUMPI DUP1 PUSH4 0x8DA5CB5B EQ PUSH2 0x171 JUMPI DUP1 PUSH4 0xA22CB465 EQ PUSH2 0x18C JUMPI DUP1 PUSH4 0xE985E9C5 EQ PUSH2 0x19F JUMPI DUP1 PUSH4 0xF242432A EQ PUSH2 0x1DB JUMPI DUP1 PUSH4 0xF2FDE38B EQ PUSH2 0x1EE JUMPI PUSH1 0x0 DUP1 REVERT JUMPDEST DUP1 PUSH3 0xFDD58E EQ PUSH2 0xB8 JUMPI DUP1 PUSH4 0x1FFC9A7 EQ PUSH2 0xDE JUMPI DUP1 PUSH4 0xE89341C EQ PUSH2 0x101 JUMPI DUP1 PUSH4 0x1B2EF1CA EQ PUSH2 0x121 JUMPI DUP1 PUSH4 0x2EB2C2D6 EQ PUSH2 0x136 JUMPI DUP1 PUSH4 0x4E1273F4 EQ PUSH2 0x149 JUMPI JUMPDEST PUSH1 0x0 DUP1 REVERT JUMPDEST PUSH2 0xCB PUSH2 0xC6 CALLDATASIZE PUSH1 0x4 PUSH2 0xE1B JUMP JUMPDEST PUSH2 0x201 JUMP JUMPDEST PUSH1 0x40 MLOAD SWAP1 DUP2 MSTORE PUSH1 0x20 ADD JUMPDEST PUSH1 0x40 MLOAD DUP1 SWAP2 SUB SWAP1 RETURN JUMPDEST PUSH2 0xF1 PUSH2 0xEC CALLDATASIZE PUSH1 0x4 PUSH2 0xE5B JUMP JUMPDEST PUSH2 0x297 JUMP JUMPDEST PUSH1 0x40 MLOAD SWAP1 ISZERO ISZERO DUP2 MSTORE PUSH1 0x20 ADD PUSH2 0xD5 JUMP JUMPDEST PUSH2 0x114 PUSH2 0x10F CALLDATASIZE PUSH1 0x4 PUSH2 0xE7F JUMP JUMPDEST PUSH2 0x2E9 JUMP JUMPDEST PUSH1 0x40 MLOAD PUSH2 0xD5 SWAP2 SWAP1 PUSH2 0xEE5 JUMP JUMPDEST PUSH2 0x134 PUSH2 0x12F CALLDATASIZE PUSH1 0x4 PUSH2 0xEF8 JUMP JUMPDEST PUSH2 0x37D JUMP JUMPDEST STOP JUMPDEST PUSH2 0x134 PUSH2 0x144 CALLDATASIZE PUSH1 0x4 PUSH2 0x1066 JUMP JUMPDEST PUSH2 0x3A4 JUMP JUMPDEST PUSH2 0x15C PUSH2 0x157 CALLDATASIZE PUSH1 0x4 PUSH2 0x1110 JUMP JUMPDEST PUSH2 0x3F0 JUMP JUMPDEST PUSH1 0x40 MLOAD PUSH2 0xD5 SWAP2 SWAP1 PUSH2 0x1216 JUMP JUMPDEST PUSH2 0x134 PUSH2 0x51A JUMP JUMPDEST PUSH1 0x3 SLOAD PUSH1 0x40 MLOAD PUSH1 0x1 PUSH1 0x1 PUSH1 0xA0 SHL SUB SWAP1 SWAP2 AND DUP2 MSTORE PUSH1 0x20 ADD PUSH2 0xD5 JUMP JUMPDEST PUSH2 0x134 PUSH2 0x19A CALLDATASIZE PUSH1 0x4 PUSH2 0x1229 JUMP JUMPDEST PUSH2 0x52E JUMP JUMPDEST PUSH2 0xF1 PUSH2 0x1AD CALLDATASIZE PUSH1 0x4 PUSH2 0x1265 JUMP JUMPDEST PUSH1 0x1 PUSH1 0x1 PUSH1 0xA0 SHL SUB SWAP2 DUP3 AND PUSH1 0x0 SWAP1 DUP2 MSTORE PUSH1 0x1 PUSH1 0x20 SWAP1 DUP2 MSTORE PUSH1 0x40 DUP1 DUP4 KECCAK256 SWAP4 SWAP1 SWAP5 AND DUP3 MSTORE SWAP2 SWAP1 SWAP2 MSTORE KECCAK256 SLOAD PUSH1 0xFF AND SWAP1 JUMP JUMPDEST PUSH2 0x134 PUSH2 0x1E9 CALLDATASIZE PUSH1 0x4 PUSH2 0x1298 JUMP JUMPDEST PUSH2 0x539 JUMP JUMPDEST PUSH2 0x134 PUSH2 0x1FC CALLDATASIZE PUSH1 0x4 PUSH2 0x12FD JUMP JUMPDEST PUSH2 0x57E JUMP JUMPDEST PUSH1 0x0 PUSH1 0x1 PUSH1 0x1 PUSH1 0xA0 SHL SUB DUP4 AND PUSH2 0x271 JUMPI PUSH1 0x40 MLOAD PUSH3 0x461BCD PUSH1 0xE5 SHL DUP2 MSTORE PUSH1 0x20 PUSH1 0x4 DUP3 ADD MSTORE PUSH1 0x2A PUSH1 0x24 DUP3 ADD MSTORE PUSH32 0x455243313135353A2061646472657373207A65726F206973206E6F7420612076 PUSH1 0x44 DUP3 ADD MSTORE PUSH10 0x30B634B21037BBB732B9 PUSH1 0xB1 SHL PUSH1 0x64 DUP3 ADD MSTORE PUSH1 0x84 ADD JUMPDEST PUSH1 0x40 MLOAD DUP1 SWAP2 SUB SWAP1 REVERT JUMPDEST POP PUSH1 0x0 SWAP1 DUP2 MSTORE PUSH1 0x20 DUP2 DUP2 MSTORE PUSH1 0x40 DUP1 DUP4 KECCAK256 PUSH1 0x1 PUSH1 0x1 PUSH1 0xA0 SHL SUB SWAP5 SWAP1 SWAP5 AND DUP4 MSTORE SWAP3 SWAP1 MSTORE KECCAK256 SLOAD SWAP1 JUMP JUMPDEST PUSH1 0x0 PUSH1 0x1 PUSH1 0x1 PUSH1 0xE0 SHL SUB NOT DUP3 AND PUSH4 0x6CDB3D13 PUSH1 0xE1 SHL EQ DUP1 PUSH2 0x2C8 JUMPI POP PUSH1 0x1 PUSH1 0x1 PUSH1 0xE0 SHL SUB NOT DUP3 AND PUSH4 0x3A24D07 PUSH1 0xE2 SHL EQ JUMPDEST DUP1 PUSH2 0x2E3 JUMPI POP PUSH4 0x1FFC9A7 PUSH1 0xE0 SHL PUSH1 0x1 PUSH1 0x1 PUSH1 0xE0 SHL SUB NOT DUP4 AND EQ JUMPDEST SWAP3 SWAP2 POP POP JUMP JUMPDEST PUSH1 0x60 PUSH1 0x2 DUP1 SLOAD PUSH2 0x2F8 SWAP1 PUSH2 0x1318 JUMP JUMPDEST DUP1 PUSH1 0x1F ADD PUSH1 0x20 DUP1 SWAP2 DIV MUL PUSH1 0x20 ADD PUSH1 0x40 MLOAD SWAP1 DUP2 ADD PUSH1 0x40 MSTORE DUP1 SWAP3 SWAP2 SWAP1 DUP2 DUP2 MSTORE PUSH1 0x20 ADD DUP3 DUP1 SLOAD PUSH2 0x324 SWAP1 PUSH2 0x1318 JUMP JUMPDEST DUP1 ISZERO PUSH2 0x371 JUMPI DUP1 PUSH1 0x1F LT PUSH2 0x346 JUMPI PUSH2 0x100 DUP1 DUP4 SLOAD DIV MUL DUP4 MSTORE SWAP2 PUSH1 0x20 ADD SWAP2 PUSH2 0x371 JUMP JUMPDEST DUP3 ADD SWAP2 SWAP1 PUSH1 0x0 MSTORE PUSH1 0x20 PUSH1 0x0 KECCAK256 SWAP1 JUMPDEST DUP2 SLOAD DUP2 MSTORE SWAP1 PUSH1 0x1 ADD SWAP1 PUSH1 0x20 ADD DUP1 DUP4 GT PUSH2 0x354 JUMPI DUP3 SWAP1 SUB PUSH1 0x1F AND DUP3 ADD SWAP2 JUMPDEST POP POP POP POP POP SWAP1 POP SWAP2 SWAP1 POP JUMP JUMPDEST PUSH2 0x385 PUSH2 0x5F7 JUMP JUMPDEST PUSH2 0x3A0 CALLER DUP4 DUP4 PUSH1 0x40 MLOAD DUP1 PUSH1 0x20 ADD PUSH1 0x40 MSTORE DUP1 PUSH1 0x0 DUP2 MSTORE POP PUSH2 0x651 JUMP JUMPDEST POP POP JUMP JUMPDEST PUSH1 0x1 PUSH1 0x1 PUSH1 0xA0 SHL SUB DUP6 AND CALLER EQ DUP1 PUSH2 0x3C0 JUMPI POP PUSH2 0x3C0 DUP6 CALLER PUSH2 0x1AD JUMP JUMPDEST PUSH2 0x3DC JUMPI PUSH1 0x40 MLOAD PUSH3 0x461BCD PUSH1 0xE5 SHL DUP2 MSTORE PUSH1 0x4 ADD PUSH2 0x268 SWAP1 PUSH2 0x1352 JUMP JUMPDEST PUSH2 0x3E9 DUP6 DUP6 DUP6 DUP6 DUP6 PUSH2 0x765 JUMP JUMPDEST POP POP POP POP POP JUMP JUMPDEST PUSH1 0x60 DUP2 MLOAD DUP4 MLOAD EQ PUSH2 0x455 JUMPI PUSH1 0x40 MLOAD PUSH3 0x461BCD PUSH1 0xE5 SHL DUP2 MSTORE PUSH1 0x20 PUSH1 0x4 DUP3 ADD MSTORE PUSH1 0x29 PUSH1 0x24 DUP3 ADD MSTORE PUSH32 0x455243313135353A206163636F756E747320616E6420696473206C656E677468 PUSH1 0x44 DUP3 ADD MSTORE PUSH9 0x40DAD2E6DAC2E8C6D PUSH1 0xBB SHL PUSH1 0x64 DUP3 ADD MSTORE PUSH1 0x84 ADD PUSH2 0x268 JUMP JUMPDEST PUSH1 0x0 DUP4 MLOAD PUSH8 0xFFFFFFFFFFFFFFFF DUP2 GT ISZERO PUSH2 0x471 JUMPI PUSH2 0x471 PUSH2 0xF1A JUMP JUMPDEST PUSH1 0x40 MLOAD SWAP1 DUP1 DUP3 MSTORE DUP1 PUSH1 0x20 MUL PUSH1 0x20 ADD DUP3 ADD PUSH1 0x40 MSTORE DUP1 ISZERO PUSH2 0x49A JUMPI DUP2 PUSH1 0x20 ADD PUSH1 0x20 DUP3 MUL DUP1 CALLDATASIZE DUP4 CALLDATACOPY ADD SWAP1 POP JUMPDEST POP SWAP1 POP PUSH1 0x0 JUMPDEST DUP5 MLOAD DUP2 LT ISZERO PUSH2 0x512 JUMPI PUSH2 0x4E5 DUP6 DUP3 DUP2 MLOAD DUP2 LT PUSH2 0x4BE JUMPI PUSH2 0x4BE PUSH2 0x13A1 JUMP JUMPDEST PUSH1 0x20 MUL PUSH1 0x20 ADD ADD MLOAD DUP6 DUP4 DUP2 MLOAD DUP2 LT PUSH2 0x4D8 JUMPI PUSH2 0x4D8 PUSH2 0x13A1 JUMP JUMPDEST PUSH1 0x20 MUL PUSH1 0x20 ADD ADD MLOAD PUSH2 0x201 JUMP JUMPDEST DUP3 DUP3 DUP2 MLOAD DUP2 LT PUSH2 0x4F7 JUMPI PUSH2 0x4F7 PUSH2 0x13A1 JUMP JUMPDEST PUSH1 0x20 SWAP1 DUP2 MUL SWAP2 SWAP1 SWAP2 ADD ADD MSTORE PUSH2 0x50B DUP2 PUSH2 0x13CD JUMP JUMPDEST SWAP1 POP PUSH2 0x4A0 JUMP JUMPDEST POP SWAP4 SWAP3 POP POP POP JUMP JUMPDEST PUSH2 0x522 PUSH2 0x5F7 JUMP JUMPDEST PUSH2 0x52C PUSH1 0x0 PUSH2 0x942 JUMP JUMPDEST JUMP JUMPDEST PUSH2 0x3A0 CALLER DUP4 DUP4 PUSH2 0x994 JUMP JUMPDEST PUSH1 0x1 PUSH1 0x1 PUSH1 0xA0 SHL SUB DUP6 AND CALLER EQ DUP1 PUSH2 0x555 JUMPI POP PUSH2 0x555 DUP6 CALLER PUSH2 0x1AD JUMP JUMPDEST PUSH2 0x571 JUMPI PUSH1 0x40 MLOAD PUSH3 0x461BCD PUSH1 0xE5 SHL DUP2 MSTORE PUSH1 0x4 ADD PUSH2 0x268 SWAP1 PUSH2 0x1352 JUMP JUMPDEST PUSH2 0x3E9 DUP6 DUP6 DUP6 DUP6 DUP6 PUSH2 0xA74 JUMP JUMPDEST PUSH2 0x586 PUSH2 0x5F7 JUMP JUMPDEST PUSH1 0x1 PUSH1 0x1 PUSH1 0xA0 SHL SUB DUP2 AND PUSH2 0x5EB JUMPI PUSH1 0x40 MLOAD PUSH3 0x461BCD PUSH1 0xE5 SHL DUP2 MSTORE PUSH1 0x20 PUSH1 0x4 DUP3 ADD MSTORE PUSH1 0x26 PUSH1 0x24 DUP3 ADD MSTORE PUSH32 0x4F776E61626C653A206E6577206F776E657220697320746865207A65726F2061 PUSH1 0x44 DUP3 ADD MSTORE PUSH6 0x646472657373 PUSH1 0xD0 SHL PUSH1 0x64 DUP3 ADD MSTORE PUSH1 0x84 ADD PUSH2 0x268 JUMP JUMPDEST PUSH2 0x5F4 DUP2 PUSH2 0x942 JUMP JUMPDEST POP JUMP JUMPDEST PUSH1 0x3 SLOAD PUSH1 0x1 PUSH1 0x1 PUSH1 0xA0 SHL SUB AND CALLER EQ PUSH2 0x52C JUMPI PUSH1 0x40 MLOAD PUSH3 0x461BCD PUSH1 0xE5 SHL DUP2 MSTORE PUSH1 0x20 PUSH1 0x4 DUP3 ADD DUP2 SWAP1 MSTORE PUSH1 0x24 DUP3 ADD MSTORE PUSH32 0x4F776E61626C653A2063616C6C6572206973206E6F7420746865206F776E6572 PUSH1 0x44 DUP3 ADD MSTORE PUSH1 0x64 ADD PUSH2 0x268 JUMP JUMPDEST PUSH1 0x1 PUSH1 0x1 PUSH1 0xA0 SHL SUB DUP5 AND PUSH2 0x6B1 JUMPI PUSH1 0x40 MLOAD PUSH3 0x461BCD PUSH1 0xE5 SHL DUP2 MSTORE PUSH1 0x20 PUSH1 0x4 DUP3 ADD MSTORE PUSH1 0x21 PUSH1 0x24 DUP3 ADD MSTORE PUSH32 0x455243313135353A206D696E7420746F20746865207A65726F20616464726573 PUSH1 0x44 DUP3 ADD MSTORE PUSH1 0x73 PUSH1 0xF8 SHL PUSH1 0x64 DUP3 ADD MSTORE PUSH1 0x84 ADD PUSH2 0x268 JUMP JUMPDEST CALLER PUSH1 0x0 PUSH2 0x6BD DUP6 PUSH2 0xB9E JUMP JUMPDEST SWAP1 POP PUSH1 0x0 PUSH2 0x6CA DUP6 PUSH2 0xB9E JUMP JUMPDEST SWAP1 POP PUSH1 0x0 DUP7 DUP2 MSTORE PUSH1 0x20 DUP2 DUP2 MSTORE PUSH1 0x40 DUP1 DUP4 KECCAK256 PUSH1 0x1 PUSH1 0x1 PUSH1 0xA0 SHL SUB DUP12 AND DUP5 MSTORE SWAP1 SWAP2 MSTORE DUP2 KECCAK256 DUP1 SLOAD DUP8 SWAP3 SWAP1 PUSH2 0x6FC SWAP1 DUP5 SWAP1 PUSH2 0x13E6 JUMP JUMPDEST SWAP1 SWAP2 SSTORE POP POP PUSH1 0x40 DUP1 MLOAD DUP8 DUP2 MSTORE PUSH1 0x20 DUP2 ADD DUP8 SWAP1 MSTORE PUSH1 0x1 PUSH1 0x1 PUSH1 0xA0 SHL SUB DUP1 DUP11 AND SWAP3 PUSH1 0x0 SWAP3 SWAP2 DUP8 AND SWAP2 PUSH32 0xC3D58168C5AE7397731D063D5BBF3D657854427343F4C083240F7AACAA2D0F62 SWAP2 ADD PUSH1 0x40 MLOAD DUP1 SWAP2 SUB SWAP1 LOG4 PUSH2 0x75C DUP4 PUSH1 0x0 DUP10 DUP10 DUP10 DUP10 PUSH2 0xBE9 JUMP JUMPDEST POP POP POP POP POP POP POP JUMP JUMPDEST DUP2 MLOAD DUP4 MLOAD EQ PUSH2 0x7C7 JUMPI PUSH1 0x40 MLOAD PUSH3 0x461BCD PUSH1 0xE5 SHL DUP2 MSTORE PUSH1 0x20 PUSH1 0x4 DUP3 ADD MSTORE PUSH1 0x28 PUSH1 0x24 DUP3 ADD MSTORE PUSH32 0x455243313135353A2069647320616E6420616D6F756E7473206C656E67746820 PUSH1 0x44 DUP3 ADD MSTORE PUSH8 0xDAD2E6DAC2E8C6D PUSH1 0xC3 SHL PUSH1 0x64 DUP3 ADD MSTORE PUSH1 0x84 ADD PUSH2 0x268 JUMP JUMPDEST PUSH1 0x1 PUSH1 0x1 PUSH1 0xA0 SHL SUB DUP5 AND PUSH2 0x7ED JUMPI PUSH1 0x40 MLOAD PUSH3 0x461BCD PUSH1 0xE5 SHL DUP2 MSTORE PUSH1 0x4 ADD PUSH2 0x268 SWAP1 PUSH2 0x13FE JUMP JUMPDEST CALLER PUSH1 0x0 JUMPDEST DUP5 MLOAD DUP2 LT ISZERO PUSH2 0x8D4 JUMPI PUSH1 0x0 DUP6 DUP3 DUP2 MLOAD DUP2 LT PUSH2 0x80E JUMPI PUSH2 0x80E PUSH2 0x13A1 JUMP JUMPDEST PUSH1 0x20 MUL PUSH1 0x20 ADD ADD MLOAD SWAP1 POP PUSH1 0x0 DUP6 DUP4 DUP2 MLOAD DUP2 LT PUSH2 0x82C JUMPI PUSH2 0x82C PUSH2 0x13A1 JUMP JUMPDEST PUSH1 0x20 SWAP1 DUP2 MUL SWAP2 SWAP1 SWAP2 ADD DUP2 ADD MLOAD PUSH1 0x0 DUP5 DUP2 MSTORE DUP1 DUP4 MSTORE PUSH1 0x40 DUP1 DUP3 KECCAK256 PUSH1 0x1 PUSH1 0x1 PUSH1 0xA0 SHL SUB DUP15 AND DUP4 MSTORE SWAP1 SWAP4 MSTORE SWAP2 SWAP1 SWAP2 KECCAK256 SLOAD SWAP1 SWAP2 POP DUP2 DUP2 LT ISZERO PUSH2 0x87C JUMPI PUSH1 0x40 MLOAD PUSH3 0x461BCD PUSH1 0xE5 SHL DUP2 MSTORE PUSH1 0x4 ADD PUSH2 0x268 SWAP1 PUSH2 0x1443 JUMP JUMPDEST PUSH1 0x0 DUP4 DUP2 MSTORE PUSH1 0x20 DUP2 DUP2 MSTORE PUSH1 0x40 DUP1 DUP4 KECCAK256 PUSH1 0x1 PUSH1 0x1 PUSH1 0xA0 SHL SUB DUP15 DUP2 AND DUP6 MSTORE SWAP3 MSTORE DUP1 DUP4 KECCAK256 DUP6 DUP6 SUB SWAP1 SSTORE SWAP1 DUP12 AND DUP3 MSTORE DUP2 KECCAK256 DUP1 SLOAD DUP5 SWAP3 SWAP1 PUSH2 0x8B9 SWAP1 DUP5 SWAP1 PUSH2 0x13E6 JUMP JUMPDEST SWAP3 POP POP DUP2 SWAP1 SSTORE POP POP POP POP DUP1 PUSH2 0x8CD SWAP1 PUSH2 0x13CD JUMP JUMPDEST SWAP1 POP PUSH2 0x7F1 JUMP JUMPDEST POP DUP5 PUSH1 0x1 PUSH1 0x1 PUSH1 0xA0 SHL SUB AND DUP7 PUSH1 0x1 PUSH1 0x1 PUSH1 0xA0 SHL SUB AND DUP3 PUSH1 0x1 PUSH1 0x1 PUSH1 0xA0 SHL SUB AND PUSH32 0x4A39DC06D4C0DBC64B70AF90FD698A233A518AA5D07E595D983B8C0526C8F7FB DUP8 DUP8 PUSH1 0x40 MLOAD PUSH2 0x924 SWAP3 SWAP2 SWAP1 PUSH2 0x148D JUMP JUMPDEST PUSH1 0x40 MLOAD DUP1 SWAP2 SUB SWAP1 LOG4 PUSH2 0x93A DUP2 DUP8 DUP8 DUP8 DUP8 DUP8 PUSH2 0xD44 JUMP JUMPDEST POP POP POP POP POP POP JUMP JUMPDEST PUSH1 0x3 DUP1 SLOAD PUSH1 0x1 PUSH1 0x1 PUSH1 0xA0 SHL SUB DUP4 DUP2 AND PUSH1 0x1 PUSH1 0x1 PUSH1 0xA0 SHL SUB NOT DUP4 AND DUP2 OR SWAP1 SWAP4 SSTORE PUSH1 0x40 MLOAD SWAP2 AND SWAP2 SWAP1 DUP3 SWAP1 PUSH32 0x8BE0079C531659141344CD1FD0A4F28419497F9722A3DAAFE3B4186F6B6457E0 SWAP1 PUSH1 0x0 SWAP1 LOG3 POP POP JUMP JUMPDEST DUP2 PUSH1 0x1 PUSH1 0x1 PUSH1 0xA0 SHL SUB AND DUP4 PUSH1 0x1 PUSH1 0x1 PUSH1 0xA0 SHL SUB AND SUB PUSH2 0xA07 JUMPI PUSH1 0x40 MLOAD PUSH3 0x461BCD PUSH1 0xE5 SHL DUP2 MSTORE PUSH1 0x20 PUSH1 0x4 DUP3 ADD MSTORE PUSH1 0x29 PUSH1 0x24 DUP3 ADD MSTORE PUSH32 0x455243313135353A2073657474696E6720617070726F76616C20737461747573 PUSH1 0x44 DUP3 ADD MSTORE PUSH9 0x103337B91039B2B633 PUSH1 0xB9 SHL PUSH1 0x64 DUP3 ADD MSTORE PUSH1 0x84 ADD PUSH2 0x268 JUMP JUMPDEST PUSH1 0x1 PUSH1 0x1 PUSH1 0xA0 SHL SUB DUP4 DUP2 AND PUSH1 0x0 DUP2 DUP2 MSTORE PUSH1 0x1 PUSH1 0x20 SWAP1 DUP2 MSTORE PUSH1 0x40 DUP1 DUP4 KECCAK256 SWAP5 DUP8 AND DUP1 DUP5 MSTORE SWAP5 DUP3 MSTORE SWAP2 DUP3 SWAP1 KECCAK256 DUP1 SLOAD PUSH1 0xFF NOT AND DUP7 ISZERO ISZERO SWAP1 DUP2 OR SWAP1 SWAP2 SSTORE SWAP2 MLOAD SWAP2 DUP3 MSTORE PUSH32 0x17307EAB39AB6107E8899845AD3D59BD9653F200F220920489CA2B5937696C31 SWAP2 ADD PUSH1 0x40 MLOAD DUP1 SWAP2 SUB SWAP1 LOG3 POP POP POP JUMP JUMPDEST PUSH1 0x1 PUSH1 0x1 PUSH1 0xA0 SHL SUB DUP5 AND PUSH2 0xA9A JUMPI PUSH1 0x40 MLOAD PUSH3 0x461BCD PUSH1 0xE5 SHL DUP2 MSTORE PUSH1 0x4 ADD PUSH2 0x268 SWAP1 PUSH2 0x13FE JUMP JUMPDEST CALLER PUSH1 0x0 PUSH2 0xAA6 DUP6 PUSH2 0xB9E JUMP JUMPDEST SWAP1 POP PUSH1 0x0 PUSH2 0xAB3 DUP6 PUSH2 0xB9E JUMP JUMPDEST SWAP1 POP PUSH1 0x0 DUP7 DUP2 MSTORE PUSH1 0x20 DUP2 DUP2 MSTORE PUSH1 0x40 DUP1 DUP4 KECCAK256 PUSH1 0x1 PUSH1 0x1 PUSH1 0xA0 SHL SUB DUP13 AND DUP5 MSTORE SWAP1 SWAP2 MSTORE SWAP1 KECCAK256 SLOAD DUP6 DUP2 LT ISZERO PUSH2 0xAF6 JUMPI PUSH1 0x40 MLOAD PUSH3 0x461BCD PUSH1 0xE5 SHL DUP2 MSTORE PUSH1 0x4 ADD PUSH2 0x268 SWAP1 PUSH2 0x1443 JUMP JUMPDEST PUSH1 0x0 DUP8 DUP2 MSTORE PUSH1 0x20 DUP2 DUP2 MSTORE PUSH1 0x40 DUP1 DUP4 KECCAK256 PUSH1 0x1 PUSH1 0x1 PUSH1 0xA0 SHL SUB DUP14 DUP2 AND DUP6 MSTORE SWAP3 MSTORE DUP1 DUP4 KECCAK256 DUP10 DUP6 SUB SWAP1 SSTORE SWAP1 DUP11 AND DUP3 MSTORE DUP2 KECCAK256 DUP1 SLOAD DUP9 SWAP3 SWAP1 PUSH2 0xB33 SWAP1 DUP5 SWAP1 PUSH2 0x13E6 JUMP JUMPDEST SWAP1 SWAP2 SSTORE POP POP PUSH1 0x40 DUP1 MLOAD DUP9 DUP2 MSTORE PUSH1 0x20 DUP2 ADD DUP9 SWAP1 MSTORE PUSH1 0x1 PUSH1 0x1 PUSH1 0xA0 SHL SUB DUP1 DUP12 AND SWAP3 DUP13 DUP3 AND SWAP3 SWAP2 DUP9 AND SWAP2 PUSH32 0xC3D58168C5AE7397731D063D5BBF3D657854427343F4C083240F7AACAA2D0F62 SWAP2 ADD PUSH1 0x40 MLOAD DUP1 SWAP2 SUB SWAP1 LOG4 PUSH2 0xB93 DUP5 DUP11 DUP11 DUP11 DUP11 DUP11 PUSH2 0xBE9 JUMP JUMPDEST POP POP POP POP POP POP POP POP POP JUMP JUMPDEST PUSH1 0x40 DUP1 MLOAD PUSH1 0x1 DUP1 DUP3 MSTORE DUP2 DUP4 ADD SWAP1 SWAP3 MSTORE PUSH1 0x60 SWAP2 PUSH1 0x0 SWAP2 SWAP1 PUSH1 0x20 DUP1 DUP4 ADD SWAP1 DUP1 CALLDATASIZE DUP4 CALLDATACOPY ADD SWAP1 POP POP SWAP1 POP DUP3 DUP2 PUSH1 0x0 DUP2 MLOAD DUP2 LT PUSH2 0xBD8 JUMPI PUSH2 0xBD8 PUSH2 0x13A1 JUMP JUMPDEST PUSH1 0x20 SWAP1 DUP2 MUL SWAP2 SWAP1 SWAP2 ADD ADD MSTORE SWAP3 SWAP2 POP POP JUMP JUMPDEST PUSH1 0x1 PUSH1 0x1 PUSH1 0xA0 SHL SUB DUP5 AND EXTCODESIZE ISZERO PUSH2 0x93A JUMPI PUSH1 0x40 MLOAD PUSH4 0xF23A6E61 PUSH1 0xE0 SHL DUP2 MSTORE PUSH1 0x1 PUSH1 0x1 PUSH1 0xA0 SHL SUB DUP6 AND SWAP1 PUSH4 0xF23A6E61 SWAP1 PUSH2 0xC2D SWAP1 DUP10 SWAP1 DUP10 SWAP1 DUP9 SWAP1 DUP9 SWAP1 DUP9 SWAP1 PUSH1 0x4 ADD PUSH2 0x14BB JUMP JUMPDEST PUSH1 0x20 PUSH1 0x40 MLOAD DUP1 DUP4 SUB DUP2 PUSH1 0x0 DUP8 GAS CALL SWAP3 POP POP POP DUP1 ISZERO PUSH2 0xC68 JUMPI POP PUSH1 0x40 DUP1 MLOAD PUSH1 0x1F RETURNDATASIZE SWAP1 DUP2 ADD PUSH1 0x1F NOT AND DUP3 ADD SWAP1 SWAP3 MSTORE PUSH2 0xC65 SWAP2 DUP2 ADD SWAP1 PUSH2 0x1500 JUMP JUMPDEST PUSH1 0x1 JUMPDEST PUSH2 0xD14 JUMPI PUSH2 0xC74 PUSH2 0x151D JUMP JUMPDEST DUP1 PUSH4 0x8C379A0 SUB PUSH2 0xCAD JUMPI POP PUSH2 0xC88 PUSH2 0x1539 JUMP JUMPDEST DUP1 PUSH2 0xC93 JUMPI POP PUSH2 0xCAF JUMP JUMPDEST DUP1 PUSH1 0x40 MLOAD PUSH3 0x461BCD PUSH1 0xE5 SHL DUP2 MSTORE PUSH1 0x4 ADD PUSH2 0x268 SWAP2 SWAP1 PUSH2 0xEE5 JUMP JUMPDEST POP JUMPDEST PUSH1 0x40 MLOAD PUSH3 0x461BCD PUSH1 0xE5 SHL DUP2 MSTORE PUSH1 0x20 PUSH1 0x4 DUP3 ADD MSTORE PUSH1 0x34 PUSH1 0x24 DUP3 ADD MSTORE PUSH32 0x455243313135353A207472616E7366657220746F206E6F6E2045524331313535 PUSH1 0x44 DUP3 ADD MSTORE PUSH20 0x2932B1B2B4BB32B91034B6B83632B6B2B73A32B9 PUSH1 0x61 SHL PUSH1 0x64 DUP3 ADD MSTORE PUSH1 0x84 ADD PUSH2 0x268 JUMP JUMPDEST PUSH1 0x1 PUSH1 0x1 PUSH1 0xE0 SHL SUB NOT DUP2 AND PUSH4 0xF23A6E61 PUSH1 0xE0 SHL EQ PUSH2 0x75C JUMPI PUSH1 0x40 MLOAD PUSH3 0x461BCD PUSH1 0xE5 SHL DUP2 MSTORE PUSH1 0x4 ADD PUSH2 0x268 SWAP1 PUSH2 0x15C3 JUMP JUMPDEST PUSH1 0x1 PUSH1 0x1 PUSH1 0xA0 SHL SUB DUP5 AND EXTCODESIZE ISZERO PUSH2 0x93A JUMPI PUSH1 0x40 MLOAD PUSH4 0xBC197C81 PUSH1 0xE0 SHL DUP2 MSTORE PUSH1 0x1 PUSH1 0x1 PUSH1 0xA0 SHL SUB DUP6 AND SWAP1 PUSH4 0xBC197C81 SWAP1 PUSH2 0xD88 SWAP1 DUP10 SWAP1 DUP10 SWAP1 DUP9 SWAP1 DUP9 SWAP1 DUP9 SWAP1 PUSH1 0x4 ADD PUSH2 0x160B JUMP JUMPDEST PUSH1 0x20 PUSH1 0x40 MLOAD DUP1 DUP4 SUB DUP2 PUSH1 0x0 DUP8 GAS CALL SWAP3 POP POP POP DUP1 ISZERO PUSH2 0xDC3 JUMPI POP PUSH1 0x40 DUP1 MLOAD PUSH1 0x1F RETURNDATASIZE SWAP1 DUP2 ADD PUSH1 0x1F NOT AND DUP3 ADD SWAP1 SWAP3 MSTORE PUSH2 0xDC0 SWAP2 DUP2 ADD SWAP1 PUSH2 0x1500 JUMP JUMPDEST PUSH1 0x1 JUMPDEST PUSH2 0xDCF JUMPI PUSH2 0xC74 PUSH2 0x151D JUMP JUMPDEST PUSH1 0x1 PUSH1 0x1 PUSH1 0xE0 SHL SUB NOT DUP2 AND PUSH4 0xBC197C81 PUSH1 0xE0 SHL EQ PUSH2 0x75C JUMPI PUSH1 0x40 MLOAD PUSH3 0x461BCD PUSH1 0xE5 SHL DUP2 MSTORE PUSH1 0x4 ADD PUSH2 0x268 SWAP1 PUSH2 0x15C3 JUMP JUMPDEST DUP1 CALLDATALOAD PUSH1 0x1 PUSH1 0x1 PUSH1 0xA0 SHL SUB DUP2 AND DUP2 EQ PUSH2 0xE16 JUMPI PUSH1 0x0 DUP1 REVERT JUMPDEST SWAP2 SWAP1 POP JUMP JUMPDEST PUSH1 0x0 DUP1 PUSH1 0x40 DUP4 DUP6 SUB SLT ISZERO PUSH2 0xE2E JUMPI PUSH1 0x0 DUP1 REVERT JUMPDEST PUSH2 0xE37 DUP4 PUSH2 0xDFF JUMP JUMPDEST SWAP5 PUSH1 0x20 SWAP4 SWAP1 SWAP4 ADD CALLDATALOAD SWAP4 POP POP POP JUMP JUMPDEST PUSH1 0x1 PUSH1 0x1 PUSH1 0xE0 SHL SUB NOT DUP2 AND DUP2 EQ PUSH2 0x5F4 JUMPI PUSH1 0x0 DUP1 REVERT JUMPDEST PUSH1 0x0 PUSH1 0x20 DUP3 DUP5 SUB SLT ISZERO PUSH2 0xE6D JUMPI PUSH1 0x0 DUP1 REVERT JUMPDEST DUP2 CALLDATALOAD PUSH2 0xE78 DUP2 PUSH2 0xE45 JUMP JUMPDEST SWAP4 SWAP3 POP POP POP JUMP JUMPDEST PUSH1 0x0 PUSH1 0x20 DUP3 DUP5 SUB SLT ISZERO PUSH2 0xE91 JUMPI PUSH1 0x0 DUP1 REVERT JUMPDEST POP CALLDATALOAD SWAP2 SWAP1 POP JUMP JUMPDEST PUSH1 0x0 DUP2 MLOAD DUP1 DUP5 MSTORE PUSH1 0x0 JUMPDEST DUP2 DUP2 LT ISZERO PUSH2 0xEBE JUMPI PUSH1 0x20 DUP2 DUP6 ADD DUP2 ADD MLOAD DUP7 DUP4 ADD DUP3 ADD MSTORE ADD PUSH2 0xEA2 JUMP JUMPDEST DUP2 DUP2 GT ISZERO PUSH2 0xED0 JUMPI PUSH1 0x0 PUSH1 0x20 DUP4 DUP8 ADD ADD MSTORE JUMPDEST POP PUSH1 0x1F ADD PUSH1 0x1F NOT AND SWAP3 SWAP1 SWAP3 ADD PUSH1 0x20 ADD SWAP3 SWAP2 POP POP JUMP JUMPDEST PUSH1 0x20 DUP2 MSTORE PUSH1 0x0 PUSH2 0xE78 PUSH1 0x20 DUP4 ADD DUP5 PUSH2 0xE98 JUMP JUMPDEST PUSH1 0x0 DUP1 PUSH1 0x40 DUP4 DUP6 SUB SLT ISZERO PUSH2 0xF0B JUMPI PUSH1 0x0 DUP1 REVERT JUMPDEST POP POP DUP1 CALLDATALOAD SWAP3 PUSH1 0x20 SWAP1 SWAP2 ADD CALLDATALOAD SWAP2 POP JUMP JUMPDEST PUSH4 0x4E487B71 PUSH1 0xE0 SHL PUSH1 0x0 MSTORE PUSH1 0x41 PUSH1 0x4 MSTORE PUSH1 0x24 PUSH1 0x0 REVERT JUMPDEST PUSH1 0x1F DUP3 ADD PUSH1 0x1F NOT AND DUP2 ADD PUSH8 0xFFFFFFFFFFFFFFFF DUP2 GT DUP3 DUP3 LT OR ISZERO PUSH2 0xF56 JUMPI PUSH2 0xF56 PUSH2 0xF1A JUMP JUMPDEST PUSH1 0x40 MSTORE POP POP JUMP JUMPDEST PUSH1 0x0 PUSH8 0xFFFFFFFFFFFFFFFF DUP3 GT ISZERO PUSH2 0xF77 JUMPI PUSH2 0xF77 PUSH2 0xF1A JUMP JUMPDEST POP PUSH1 0x5 SHL PUSH1 0x20 ADD SWAP1 JUMP JUMPDEST PUSH1 0x0 DUP3 PUSH1 0x1F DUP4 ADD SLT PUSH2 0xF92 JUMPI PUSH1 0x0 DUP1 REVERT JUMPDEST DUP2 CALLDATALOAD PUSH1 0x20 PUSH2 0xF9F DUP3 PUSH2 0xF5D JUMP JUMPDEST PUSH1 0x40 MLOAD PUSH2 0xFAC DUP3 DUP3 PUSH2 0xF30 JUMP JUMPDEST DUP4 DUP2 MSTORE PUSH1 0x5 SWAP4 SWAP1 SWAP4 SHL DUP6 ADD DUP3 ADD SWAP3 DUP3 DUP2 ADD SWAP2 POP DUP7 DUP5 GT ISZERO PUSH2 0xFCC JUMPI PUSH1 0x0 DUP1 REVERT JUMPDEST DUP3 DUP7 ADD JUMPDEST DUP5 DUP2 LT ISZERO PUSH2 0xFE7 JUMPI DUP1 CALLDATALOAD DUP4 MSTORE SWAP2 DUP4 ADD SWAP2 DUP4 ADD PUSH2 0xFD0 JUMP JUMPDEST POP SWAP7 SWAP6 POP POP POP POP POP POP JUMP JUMPDEST PUSH1 0x0 DUP3 PUSH1 0x1F DUP4 ADD SLT PUSH2 0x1003 JUMPI PUSH1 0x0 DUP1 REVERT JUMPDEST DUP2 CALLDATALOAD PUSH8 0xFFFFFFFFFFFFFFFF DUP2 GT ISZERO PUSH2 0x101D JUMPI PUSH2 0x101D PUSH2 0xF1A JUMP JUMPDEST PUSH1 0x40 MLOAD PUSH2 0x1034 PUSH1 0x1F DUP4 ADD PUSH1 0x1F NOT AND PUSH1 0x20 ADD DUP3 PUSH2 0xF30 JUMP JUMPDEST DUP2 DUP2 MSTORE DUP5 PUSH1 0x20 DUP4 DUP7 ADD ADD GT ISZERO PUSH2 0x1049 JUMPI PUSH1 0x0 DUP1 REVERT JUMPDEST DUP2 PUSH1 0x20 DUP6 ADD PUSH1 0x20 DUP4 ADD CALLDATACOPY PUSH1 0x0 SWAP2 DUP2 ADD PUSH1 0x20 ADD SWAP2 SWAP1 SWAP2 MSTORE SWAP4 SWAP3 POP POP POP JUMP JUMPDEST PUSH1 0x0 DUP1 PUSH1 0x0 DUP1 PUSH1 0x0 PUSH1 0xA0 DUP7 DUP9 SUB SLT ISZERO PUSH2 0x107E JUMPI PUSH1 0x0 DUP1 REVERT JUMPDEST PUSH2 0x1087 DUP7 PUSH2 0xDFF JUMP JUMPDEST SWAP5 POP PUSH2 0x1095 PUSH1 0x20 DUP8 ADD PUSH2 0xDFF JUMP JUMPDEST SWAP4 POP PUSH1 0x40 DUP7 ADD CALLDATALOAD PUSH8 0xFFFFFFFFFFFFFFFF DUP1 DUP3 GT ISZERO PUSH2 0x10B2 JUMPI PUSH1 0x0 DUP1 REVERT JUMPDEST PUSH2 0x10BE DUP10 DUP4 DUP11 ADD PUSH2 0xF81 JUMP JUMPDEST SWAP5 POP PUSH1 0x60 DUP9 ADD CALLDATALOAD SWAP2 POP DUP1 DUP3 GT ISZERO PUSH2 0x10D4 JUMPI PUSH1 0x0 DUP1 REVERT JUMPDEST PUSH2 0x10E0 DUP10 DUP4 DUP11 ADD PUSH2 0xF81 JUMP JUMPDEST SWAP4 POP PUSH1 0x80 DUP9 ADD CALLDATALOAD SWAP2 POP DUP1 DUP3 GT ISZERO PUSH2 0x10F6 JUMPI PUSH1 0x0 DUP1 REVERT JUMPDEST POP PUSH2 0x1103 DUP9 DUP3 DUP10 ADD PUSH2 0xFF2 JUMP JUMPDEST SWAP2 POP POP SWAP3 SWAP6 POP SWAP3 SWAP6 SWAP1 SWAP4 POP JUMP JUMPDEST PUSH1 0x0 DUP1 PUSH1 0x40 DUP4 DUP6 SUB SLT ISZERO PUSH2 0x1123 JUMPI PUSH1 0x0 DUP1 REVERT JUMPDEST DUP3 CALLDATALOAD PUSH8 0xFFFFFFFFFFFFFFFF DUP1 DUP3 GT ISZERO PUSH2 0x113B JUMPI PUSH1 0x0 DUP1 REVERT JUMPDEST DUP2 DUP6 ADD SWAP2 POP DUP6 PUSH1 0x1F DUP4 ADD SLT PUSH2 0x114F JUMPI PUSH1 0x0 DUP1 REVERT JUMPDEST DUP2 CALLDATALOAD PUSH1 0x20 PUSH2 0x115C DUP3 PUSH2 0xF5D JUMP JUMPDEST PUSH1 0x40 MLOAD PUSH2 0x1169 DUP3 DUP3 PUSH2 0xF30 JUMP JUMPDEST DUP4 DUP2 MSTORE PUSH1 0x5 SWAP4 SWAP1 SWAP4 SHL DUP6 ADD DUP3 ADD SWAP3 DUP3 DUP2 ADD SWAP2 POP DUP10 DUP5 GT ISZERO PUSH2 0x1189 JUMPI PUSH1 0x0 DUP1 REVERT JUMPDEST SWAP5 DUP3 ADD SWAP5 JUMPDEST DUP4 DUP7 LT ISZERO PUSH2 0x11AE JUMPI PUSH2 0x119F DUP7 PUSH2 0xDFF JUMP JUMPDEST DUP3 MSTORE SWAP5 DUP3 ADD SWAP5 SWAP1 DUP3 ADD SWAP1 PUSH2 0x118E JUMP JUMPDEST SWAP7 POP POP DUP7 ADD CALLDATALOAD SWAP3 POP POP DUP1 DUP3 GT ISZERO PUSH2 0x11C4 JUMPI PUSH1 0x0 DUP1 REVERT JUMPDEST POP PUSH2 0x11D1 DUP6 DUP3 DUP7 ADD PUSH2 0xF81 JUMP JUMPDEST SWAP2 POP POP SWAP3 POP SWAP3 SWAP1 POP JUMP JUMPDEST PUSH1 0x0 DUP2 MLOAD DUP1 DUP5 MSTORE PUSH1 0x20 DUP1 DUP6 ADD SWAP5 POP DUP1 DUP5 ADD PUSH1 0x0 JUMPDEST DUP4 DUP2 LT ISZERO PUSH2 0x120B JUMPI DUP2 MLOAD DUP8 MSTORE SWAP6 DUP3 ADD SWAP6 SWAP1 DUP3 ADD SWAP1 PUSH1 0x1 ADD PUSH2 0x11EF JUMP JUMPDEST POP SWAP5 SWAP6 SWAP5 POP POP POP POP POP JUMP JUMPDEST PUSH1 0x20 DUP2 MSTORE PUSH1 0x0 PUSH2 0xE78 PUSH1 0x20 DUP4 ADD DUP5 PUSH2 0x11DB JUMP JUMPDEST PUSH1 0x0 DUP1 PUSH1 0x40 DUP4 DUP6 SUB SLT ISZERO PUSH2 0x123C JUMPI PUSH1 0x0 DUP1 REVERT JUMPDEST PUSH2 0x1245 DUP4 PUSH2 0xDFF JUMP JUMPDEST SWAP2 POP PUSH1 0x20 DUP4 ADD CALLDATALOAD DUP1 ISZERO ISZERO DUP2 EQ PUSH2 0x125A JUMPI PUSH1 0x0 DUP1 REVERT JUMPDEST DUP1 SWAP2 POP POP SWAP3 POP SWAP3 SWAP1 POP JUMP JUMPDEST PUSH1 0x0 DUP1 PUSH1 0x40 DUP4 DUP6 SUB SLT ISZERO PUSH2 0x1278 JUMPI PUSH1 0x0 DUP1 REVERT JUMPDEST PUSH2 0x1281 DUP4 PUSH2 0xDFF JUMP JUMPDEST SWAP2 POP PUSH2 0x128F PUSH1 0x20 DUP5 ADD PUSH2 0xDFF JUMP JUMPDEST SWAP1 POP SWAP3 POP SWAP3 SWAP1 POP JUMP JUMPDEST PUSH1 0x0 DUP1 PUSH1 0x0 DUP1 PUSH1 0x0 PUSH1 0xA0 DUP7 DUP9 SUB SLT ISZERO PUSH2 0x12B0 JUMPI PUSH1 0x0 DUP1 REVERT JUMPDEST PUSH2 0x12B9 DUP7 PUSH2 0xDFF JUMP JUMPDEST SWAP5 POP PUSH2 0x12C7 PUSH1 0x20 DUP8 ADD PUSH2 0xDFF JUMP JUMPDEST SWAP4 POP PUSH1 0x40 DUP7 ADD CALLDATALOAD SWAP3 POP PUSH1 0x60 DUP7 ADD CALLDATALOAD SWAP2 POP PUSH1 0x80 DUP7 ADD CALLDATALOAD PUSH8 0xFFFFFFFFFFFFFFFF DUP2 GT ISZERO PUSH2 0x12F1 JUMPI PUSH1 0x0 DUP1 REVERT JUMPDEST PUSH2 0x1103 DUP9 DUP3 DUP10 ADD PUSH2 0xFF2 JUMP JUMPDEST PUSH1 0x0 PUSH1 0x20 DUP3 DUP5 SUB SLT ISZERO PUSH2 0x130F JUMPI PUSH1 0x0 DUP1 REVERT JUMPDEST PUSH2 0xE78 DUP3 PUSH2 0xDFF JUMP JUMPDEST PUSH1 0x1 DUP2 DUP2 SHR SWAP1 DUP3 AND DUP1 PUSH2 0x132C JUMPI PUSH1 0x7F DUP3 AND SWAP2 POP JUMPDEST PUSH1 0x20 DUP3 LT DUP2 SUB PUSH2 0x134C JUMPI PUSH4 0x4E487B71 PUSH1 0xE0 SHL PUSH1 0x0 MSTORE PUSH1 0x22 PUSH1 0x4 MSTORE PUSH1 0x24 PUSH1 0x0 REVERT JUMPDEST POP SWAP2 SWAP1 POP JUMP JUMPDEST PUSH1 0x20 DUP1 DUP3 MSTORE PUSH1 0x2F SWAP1 DUP3 ADD MSTORE PUSH32 0x455243313135353A2063616C6C6572206973206E6F7420746F6B656E206F776E PUSH1 0x40 DUP3 ADD MSTORE PUSH15 0x195C881B9BDC88185C1C1C9BDD9959 PUSH1 0x8A SHL PUSH1 0x60 DUP3 ADD MSTORE PUSH1 0x80 ADD SWAP1 JUMP JUMPDEST PUSH4 0x4E487B71 PUSH1 0xE0 SHL PUSH1 0x0 MSTORE PUSH1 0x32 PUSH1 0x4 MSTORE PUSH1 0x24 PUSH1 0x0 REVERT JUMPDEST PUSH4 0x4E487B71 PUSH1 0xE0 SHL PUSH1 0x0 MSTORE PUSH1 0x11 PUSH1 0x4 MSTORE PUSH1 0x24 PUSH1 0x0 REVERT JUMPDEST PUSH1 0x0 PUSH1 0x1 DUP3 ADD PUSH2 0x13DF JUMPI PUSH2 0x13DF PUSH2 0x13B7 JUMP JUMPDEST POP PUSH1 0x1 ADD SWAP1 JUMP JUMPDEST PUSH1 0x0 DUP3 NOT DUP3 GT ISZERO PUSH2 0x13F9 JUMPI PUSH2 0x13F9 PUSH2 0x13B7 JUMP JUMPDEST POP ADD SWAP1 JUMP JUMPDEST PUSH1 0x20 DUP1 DUP3 MSTORE PUSH1 0x25 SWAP1 DUP3 ADD MSTORE PUSH32 0x455243313135353A207472616E7366657220746F20746865207A65726F206164 PUSH1 0x40 DUP3 ADD MSTORE PUSH5 0x6472657373 PUSH1 0xD8 SHL PUSH1 0x60 DUP3 ADD MSTORE PUSH1 0x80 ADD SWAP1 JUMP JUMPDEST PUSH1 0x20 DUP1 DUP3 MSTORE PUSH1 0x2A SWAP1 DUP3 ADD MSTORE PUSH32 0x455243313135353A20696E73756666696369656E742062616C616E636520666F PUSH1 0x40 DUP3 ADD MSTORE PUSH10 0x39103A3930B739B332B9 PUSH1 0xB1 SHL PUSH1 0x60 DUP3 ADD MSTORE PUSH1 0x80 ADD SWAP1 JUMP JUMPDEST PUSH1 0x40 DUP2 MSTORE PUSH1 0x0 PUSH2 0x14A0 PUSH1 0x40 DUP4 ADD DUP6 PUSH2 0x11DB JUMP JUMPDEST DUP3 DUP2 SUB PUSH1 0x20 DUP5 ADD MSTORE PUSH2 0x14B2 DUP2 DUP6 PUSH2 0x11DB JUMP JUMPDEST SWAP6 SWAP5 POP POP POP POP POP JUMP JUMPDEST PUSH1 0x1 PUSH1 0x1 PUSH1 0xA0 SHL SUB DUP7 DUP2 AND DUP3 MSTORE DUP6 AND PUSH1 0x20 DUP3 ADD MSTORE PUSH1 0x40 DUP2 ADD DUP5 SWAP1 MSTORE PUSH1 0x60 DUP2 ADD DUP4 SWAP1 MSTORE PUSH1 0xA0 PUSH1 0x80 DUP3 ADD DUP2 SWAP1 MSTORE PUSH1 0x0 SWAP1 PUSH2 0x14F5 SWAP1 DUP4 ADD DUP5 PUSH2 0xE98 JUMP JUMPDEST SWAP8 SWAP7 POP POP POP POP POP POP POP JUMP JUMPDEST PUSH1 0x0 PUSH1 0x20 DUP3 DUP5 SUB SLT ISZERO PUSH2 0x1512 JUMPI PUSH1 0x0 DUP1 REVERT JUMPDEST DUP2 MLOAD PUSH2 0xE78 DUP2 PUSH2 0xE45 JUMP JUMPDEST PUSH1 0x0 PUSH1 0x3 RETURNDATASIZE GT ISZERO PUSH2 0x1536 JUMPI PUSH1 0x4 PUSH1 0x0 DUP1 RETURNDATACOPY POP PUSH1 0x0 MLOAD PUSH1 0xE0 SHR JUMPDEST SWAP1 JUMP JUMPDEST PUSH1 0x0 PUSH1 0x44 RETURNDATASIZE LT ISZERO PUSH2 0x1547 JUMPI SWAP1 JUMP JUMPDEST PUSH1 0x40 MLOAD PUSH1 0x3 NOT RETURNDATASIZE DUP2 ADD PUSH1 0x4 DUP4 RETURNDATACOPY DUP2 MLOAD RETURNDATASIZE PUSH8 0xFFFFFFFFFFFFFFFF DUP2 PUSH1 0x24 DUP5 ADD GT DUP2 DUP5 GT OR ISZERO PUSH2 0x1577 JUMPI POP POP POP POP POP SWAP1 JUMP JUMPDEST DUP3 DUP6 ADD SWAP2 POP DUP2 MLOAD DUP2 DUP2 GT ISZERO PUSH2 0x158F JUMPI POP POP POP POP POP POP SWAP1 JUMP JUMPDEST DUP5 RETURNDATASIZE DUP8 ADD ADD PUSH1 0x20 DUP3 DUP6 ADD ADD GT ISZERO PUSH2 0x15A9 JUMPI POP POP POP POP POP POP SWAP1 JUMP JUMPDEST PUSH2 0x15B8 PUSH1 0x20 DUP3 DUP7 ADD ADD DUP8 PUSH2 0xF30 JUMP JUMPDEST POP SWAP1 SWAP6 SWAP5 POP POP POP POP POP JUMP JUMPDEST PUSH1 0x20 DUP1 DUP3 MSTORE PUSH1 0x28 SWAP1 DUP3 ADD MSTORE PUSH32 0x455243313135353A204552433131353552656365697665722072656A65637465 PUSH1 0x40 DUP3 ADD MSTORE PUSH8 0x6420746F6B656E73 PUSH1 0xC0 SHL PUSH1 0x60 DUP3 ADD MSTORE PUSH1 0x80 ADD SWAP1 JUMP JUMPDEST PUSH1 0x1 PUSH1 0x1 PUSH1 0xA0 SHL SUB DUP7 DUP2 AND DUP3 MSTORE DUP6 AND PUSH1 0x20 DUP3 ADD MSTORE PUSH1 0xA0 PUSH1 0x40 DUP3 ADD DUP2 SWAP1 MSTORE PUSH1 0x0 SWAP1 PUSH2 0x1637 SWAP1 DUP4 ADD DUP7 PUSH2 0x11DB JUMP JUMPDEST DUP3 DUP2 SUB PUSH1 0x60 DUP5 ADD MSTORE PUSH2 0x1649 DUP2 DUP7 PUSH2 0x11DB JUMP JUMPDEST SWAP1 POP DUP3 DUP2 SUB PUSH1 0x80 DUP5 ADD MSTORE PUSH2 0x165D DUP2 DUP6 PUSH2 0xE98 JUMP JUMPDEST SWAP9 SWAP8 POP POP POP POP POP POP POP POP JUMP INVALID LOG2 PUSH5 0x6970667358 0x22 SLT KECCAK256 0xB2 0xA6 MSTORE8 EXTCODESIZE 0xB8 0xEE 0x4F PUSH27 0xA34CD8E425BD74781F12C578060F4E75FF8EDA8027D55CBD64736F PUSH13 0x634300080F0033000000000000 "
				},
				"gasEstimates": {
					"creation": {
						"codeDepositCost": "1158200",
						"executionCost": "infinite",
						"totalCost": "infinite"
					},
					"external": {
						"balanceOf(address,uint256)": "2672",
						"balanceOfBatch(address[],uint256[])": "infinite",
						"isApprovedForAll(address,address)": "infinite",
						"mint(uint256,uint256)": "infinite",
						"owner()": "2323",
						"renounceOwnership()": "infinite",
						"safeBatchTransferFrom(address,address,uint256[],uint256[],bytes)": "infinite",
						"safeTransferFrom(address,address,uint256,uint256,bytes)": "infinite",
						"setApprovalForAll(address,bool)": "26727",
						"supportsInterface(bytes4)": "544",
						"transferOwnership(address)": "28446",
						"uri(uint256)": "infinite"
					}
				},
				"methodIdentifiers": {
					"balanceOf(address,uint256)": "00fdd58e",
					"balanceOfBatch(address[],uint256[])": "4e1273f4",
					"isApprovedForAll(address,address)": "e985e9c5",
					"mint(uint256,uint256)": "1b2ef1ca",
					"owner()": "8da5cb5b",
					"renounceOwnership()": "715018a6",
					"safeBatchTransferFrom(address,address,uint256[],uint256[],bytes)": "2eb2c2d6",
					"safeTransferFrom(address,address,uint256,uint256,bytes)": "f242432a",
					"setApprovalForAll(address,bool)": "a22cb465",
					"supportsInterface(bytes4)": "01ffc9a7",
					"transferOwnership(address)": "f2fde38b",
					"uri(uint256)": "0e89341c"
				}
			},
			"storageLayout": {
				"storage": [
					{
						"astId": 172,
						"contract": ".deps/contracts/WOM_Mint.sol:WOMNFT",
						"label": "_balances",
						"offset": 0,
						"slot": "0",
						"type": "t_mapping(t_uint256,t_mapping(t_address,t_uint256))"
					},
					{
						"astId": 178,
						"contract": ".deps/contracts/WOM_Mint.sol:WOMNFT",
						"label": "_operatorApprovals",
						"offset": 0,
						"slot": "1",
						"type": "t_mapping(t_address,t_mapping(t_address,t_bool))"
					},
					{
						"astId": 180,
						"contract": ".deps/contracts/WOM_Mint.sol:WOMNFT",
						"label": "_uri",
						"offset": 0,
						"slot": "2",
						"type": "t_string_storage"
					},
					{
						"astId": 41,
						"contract": ".deps/contracts/WOM_Mint.sol:WOMNFT",
						"label": "_owner",
						"offset": 0,
						"slot": "3",
						"type": "t_address"
					}
				],
				"types": {
					"t_address": {
						"encoding": "inplace",
						"label": "address",
						"numberOfBytes": "20"
					},
					"t_bool": {
						"encoding": "inplace",
						"label": "bool",
						"numberOfBytes": "1"
					},
					"t_mapping(t_address,t_bool)": {
						"encoding": "mapping",
						"key": "t_address",
						"label": "mapping(address => bool)",
						"numberOfBytes": "32",
						"value": "t_bool"
					},
					"t_mapping(t_address,t_mapping(t_address,t_bool))": {
						"encoding": "mapping",
						"key": "t_address",
						"label": "mapping(address => mapping(address => bool))",
						"numberOfBytes": "32",
						"value": "t_mapping(t_address,t_bool)"
					},
					"t_mapping(t_address,t_uint256)": {
						"encoding": "mapping",
						"key": "t_address",
						"label": "mapping(address => uint256)",
						"numberOfBytes": "32",
						"value": "t_uint256"
					},
					"t_mapping(t_uint256,t_mapping(t_address,t_uint256))": {
						"encoding": "mapping",
						"key": "t_uint256",
						"label": "mapping(uint256 => mapping(address => uint256))",
						"numberOfBytes": "32",
						"value": "t_mapping(t_address,t_uint256)"
					},
					"t_string_storage": {
						"encoding": "bytes",
						"label": "string",
						"numberOfBytes": "32"
					},
					"t_uint256": {
						"encoding": "inplace",
						"label": "uint256",
						"numberOfBytes": "32"
					}
				}
			},
			"userdoc": {
				"kind": "user",
				"methods": {},
				"version": 1
			}
		}
	}
}